:10000000C2C60000D2C60000D0C60000CEC60000A6
:10001000CCC600000C94092AC8C600000C94650EDA
:10002000C4C60000C2C600000C9457200C94ED29F1
:100030000C94FB290C943120B8C60000B6C6000011
:100040000C94C729B2C60000B0C60000AEC60000BE
:10005000ACC600000C94660EA8C60000A6C6000040
:10006000A4C60000A2C60000E62FF72F903009F4C6
:100070009395E5B8C4B8B6EFB0937A00A5E0A09325
:100080007B00A8E0A093810010928000AFEFA093C6
:100090008500A0938400A6E0A093360010928B0008
:1000A00010928A00B3E0AFE3A91B51E0392F33303F
:1000B0002AF0A05CBC4F53953350F9CFB093890020
:1000C000A0938800A0917A00A4FFFCCFB6EBB09378
:1000D0007A00A2E0A0936F00A9E0A093810062E003
:1000E000A0E0A0937B00A1E0A09353008895E5B821
:1000F000C4B884FF1AC0A8E10000AA95F1F7EF93F5
:10010000FF93E7B1F8B1A4E0C2FCA2E0C0FCA1E01B
:10011000BF2FBA2BAE2BB8B904B9A7B9E7B9F8B954
:10012000FF91EF910BC00C947300ACE10000000054
:10013000AA95F1F725B9E5B8000004B9A0918400AB
:10014000A0918500B0918900A395AB1760F7A091AD
:100150007A00A4FFF3CFB6EBB0937A006A9571F7FB
:100160006091780070917900308186FD630F619312
:10017000308186FD731F80FF7193652F4A9579F753
:1001800010926F0010928100B6E0B0937A0008954B
:10019000D601CF01C8011008407E01013E01013E99
:1001A00001013E01017E404018000720080808F8C0
:1001B0000000002060A03FA06020020202FF0202B7
:1001C000021010101F000000050842818989760581
:1001D00008C2A19189860508000402FF00101005DD
:1001E00008F878385888091003081C3E7F0D080766
:1001F00010FF818181F1E1C1FF4040404743410D43
:10020000080110FFFF11080310F1E1C14743410E3F
:100210000008202121122060E0E0E0FEFE0402013F
:100220000001037F7F21C2C4C4C04094840007033F
:100230000102040E080210FEFE7F7F000000001184
:100240000005202060E0E0E00201000103C2C4C418
:10025000C0400703010204010410090A0C4E6F7428
:100260002063616C696272617465642120466F72FB
:10027000FF63616C6962726174696F6E20636C61A7
:100280006D70207468652033FF70696E7320746F21
:1002900067657468657220616E642073746172743E
:1002A000207769746820746865FF6B65792E20413A
:1002B000636B6E6F776C6564676520746865207327
:1002C000656C662D74657374207769746820746832
:1002D00065206B65792077697468696EFF32732ECB
:1002E00020446973636F6E6E6563742070696E730A
:1002F00020616674657220746865FF6D6573736153
:100300006765202269736F6C617465FF50726F625C
:100310006521222069732073686F776E2E20536FDA
:1003200066747761726520616E6420646F63756DB9
:10033000656E746174696F6E2069732061742073D7
:10034000766E3A2F2F206D696B726F636F6E7472C9
:100350006F6C6C65722E206E65742F7472616E7393
:100360006973746F72207465737465722000B903C9
:10037000870358032E030703E402C302A402880282
:100380000000140029003E0053006900800097001F
:10039000AE00C600DF00F80012012D014901650121
:1003A0008201A001BE01DE01FF01210244026802B8
:1003B0008E02B502DE020903350364039403C80309
:1003C000FE0337047304B404F90443059305EA05F6
:1003D0004906B3062907AE074808FF08DE09FD0AEB
:1003E000930C480F991B0000000000000000000063
:1003F0000000000000001E2121211200807F00006B
:10040000007E4A4A4A34000000000000FC402010F0
:1004100008040201000000010101010101010101C4
:10042000010101017F0488D0E0F0F8000000000025
:1004300000000000000000000000000000FC949498
:100440008400000102FC0000000000000000000029
:1004500000001E21212112E0C0804020100F00006A
:1004600000C020202040000000FC00009E9E0403ED
:10047000030303020000002020232425252320203D
:10048000203F00007B7B2142840480C000000000EC
:1004900000000000000000000000FC9494840004B0
:1004A0000607070708F00000000000000000000039
:1004B000000000803F2121120C00000000FF00001E
:1004C00000F0084848C80000FE0000E7818181C1B3
:1004D000E1F18181810100202020212121202020A3
:1004E0003F0000F340404041434740407FC0000090
:1004F00000000000000000000000000048949494F8
:100500006400000000FF0000000000000000000088
:100510000000000000003F2121120C0000FF00003D
:1005200000F0084848D0000000000000FEFE04046F
:100530000404040404070008080809090908087FDE
:100540003E1C08087F7F20202020202020E0000083
:1005500000000000000000000000000000004894BF
:100560009494640000FF0000000000000000000000
:1005700000FF003C0A090A3C00223129292600001C
:1005800082868E9EBEFEFEBEDEEFF6FAFEFEFAF21A
:10059000E2C28200000008080804027984A4A4686A
:1005A00000FF00000000000000000000000000004C
:1005B000000000000000000000FF0000F0282428D8
:1005C000F0001008FC000000000000000000000027
:1005D000003C0A090A3C00FF000000000000000087
:1005E00000000000000000000000040C1C3C7CFF28
:1005F0007C3C1C0C040000000000009EA1A9A99AEC
:10060000804323130B0703FF0303030303030000CB
:10061000000000000000000000788484844800FF8F
:10062000000000000000000000F00804E2110909C9
:10063000090909090909091121C2040810E000008B
:100640000001020404070000000000804020108820
:100650004423100804030000000000000000000014
:1006600000FE0100FC02010000000000000000008C
:1006700000000000000000000079494979000000F6
:1006800000000000000040F0101010F040000101D8
:100690000101010040F8F0E040F8400003010000D3
:1006A000030040F840E0F0F84000030000010300C0
:1006B00040FCFC00FCFC4000070700070700E010BE
:1006C0001010E000000407000704000000F800001C
:1006D000F000000E0102010302000808080808F8F3
:1006E000400202020202030040F80808080808005D
:1006F000030202020202404040404040400000002D
:10070000000000004040C000008000000001020224
:10071000010200800000C04040020102020100000E
:1007200000FC021212EC000E0300010100000000A8
:1007300000000000000000000000000000000000B9
:1007400000000000000000000000000000000000A9
:100750000000000000000000000000000000000099
:1007600000000000000000F80402FE02000C070474
:1007700004070C00FE000000FE000007040404074C
:100780000C00FE00FE00FE000007040704070C003A
:1007900000E01008F808000C070404070C00E0143F
:1007A000FC14E00000010A0F0A010000F80000003C
:1007B000F8000007040404070C00F800F800F80033
:1007C0000007040704070C00000000000000000000
:1007D0000000000000000000000000000000000019
:1007E0000000000000000000000000000000000009
:1007F00000000000000000000000000000000000F9
:1008000000000000000000000000000000000000E8
:1008100000000000000000000000000000000000D8
:1008200000000000000000000000000000000000C8
:1008300000000000000000000000000000000000B8
:1008400000000000000000000000000000000000A8
:100850000000000000003CFE3C00000000001B0007
:10086000000000160E00160E000000000000000040
:1008700008FE0808FE08000107010107010038FE14
:100880004484FE0800041F08081F07001C149C4035
:100890002018000601000E0A0E008854225488C059
:1008A00000030404020106000000160E0000000010
:1008B000000000000000F008040202000003040829
:1008C000101000000002020408F0000010100804DC
:1008D00003004850E0E0504800020100000102001F
:1008E000004040F040400000000001000000000017
:1008F00000000000000000160E00000040404040D4
:100900004040000000000000000000000000000067
:1009100000000006060000000000804020100002D9
:10092000010000000000F804020204F800010204C3
:1009300004020100000804FE020000000004070495
:10094000000008048242241800060504040406007E
:10095000060212122AC60001020404020100E098F5
:100960008680F88000000000040704003E22121276
:1009700022C60001020404020100F824121222C05F
:1009800000010204040201000602C262321E0000DD
:10099000000700000000885422225488000102044D
:1009A000040201003844828244F800000404040276
:1009B00001000000303000000000000606000000CA
:1009C0000000303000000000000A06000000004077
:1009D000A0100804000000000102040020202020D4
:1009E0002020000101010101010000040810A040C5
:1009F00000000402010000001804824224180000D4
:100A0000000D00000000F804629294F80001020456
:100A10000404020000F8848284F80000070000004B
:100A2000070002FE222222DC000407040404030063
:100A3000F8040202040E000102040404030002FE92
:100A4000020204F8000407040402010002FE2272FC
:100A50000206000407040404060002FE22720206D5
:100A60000004070400000000F8040282848E0001E4
:100A700002040402070000FE202020FE0000070000
:100A800000000700000002FE02000000000407044E
:100A9000000000000002FE02000002040403000047
:100AA00002FE22F09C06000407040007040002FE78
:100AB00002000000000407040404060000FE1C708D
:100AC0001CFE0000070000000700FE1C70C0FE00B6
:100AD0000007000001070000F804020204F800010A
:100AE00002040402010002FE4242423C00040704E8
:100AF00000000000F804020204F8000102040502EC
:100B0000050002FE42C2423C000407000007040048
:100B10000C122222448E0001020404020100000E85
:100B200002FE020E000000040704000000FE0000A8
:100B300000FE0000030404040300007EC000C07E29
:100B4000000000010701000000FE80F880FE0000A8
:100B50000107010701008ED87070D88E00070000D1
:100B6000000007003E60C0603E0000000407040073
:100B7000000006824222120E00070404040406004C
:100B800000FE0202020000000F0808080000081022
:100B9000204080000000000000000102000202026C
:100BA000FE0000000808080F000000080402040806
:100BB000000000000000000000000000000000082D
:100BC00008080808080800000E16000000000000D1
:100BD00000000000C0282848F000000304040403BB
:100BE000040002FE120808F00004070404040300D5
:100BF000E010080810380001020404040200F008A4
:100C00000810FE020003040404070400E090888832
:100C100090E000010204040400000010FC12120421
:100C20000000040704000000F0080808F0080001B4
:100C30000A0A0907000002FE100808F00004070471
:100C400000000700000016F6000000000004070482
:100C5000000000000016F60000000408080700006D
:100C600002FE40F09808000407040007040000009A
:100C700002FE0000000000040704000008F808F06D
:100C800008F0000407000700070008F8100808F043
:100C90000004070000000700E010080810E0000151
:100CA00002040402010008F0080808F000080F0917
:100CB00002020100F0080808F00800010202090F12
:100CC000080008F8201008300004070400000000A5
:100CD000304848489038000204040404030000101F
:100CE000FE1010000000000304040200F8000000E1
:100CF000F808000304040207040078C000C078006C
:100D00000000010701000000F880F080F8000001F9
:100D100007010701000018B0C0C0B01800060300AA
:100D20000003060008F80000F8080000090A0A0796
:100D30000000180888482818000605040404060066
:100D40000040A01C0202000000000708080000008C
:100D5000003E0000000000001F0000000002021C16
:100D6000A040000008080700000004060206040670
:100D70000000000000000000000000000000000073
:100D800000000000000011241FBECFEFD8E0DEBF3E
:100D9000CDBF21E0A0E0B1E001C01D92AE3BB207A3
:100DA000E1F70E941D350C942A3D2AC95D98559A99
:100DB00080FD599A80FF5998519A539A5A9867FD25
:100DC0005B9A67FF5B985A9A5A9866FD5B9A66FF32
:100DD0005B985A9A5A9865FD5B9A65FF5B985A9A98
:100DE0005A9864FD5B9A64FF5B985A9A5A9863FD1F
:100DF0005B9A63FF5B985A9A5A9862FD5B9A62FF0E
:100E00005B985A9A5A9861FD5B9A61FF5B985A9A6F
:100E10005A9860FD5B9A60FF5B985A9A5D9A5A985F
:100E20005B98089560933F018093040186958093B9
:100E3000A50187E0689F602D112460930F0108953C
:100E400080913F01809301018091A501809303016E
:100E500008958091030160910101880FE3CF089507
:100E6000CF93C82F692F81E0A1DF6C2F81E09EDF37
:100E7000CF910895682F80E099CF08958EEAFADF28
:100E800085EAF8CF08958DE066D58AE064C50895B7
:100E90001092A50160E080E0C5DFF5CF0895CF9303
:100EA000DF93C0E080E1E6DF80E0E4DF8C2F806B41
:100EB000E1DFD4E860E081E079DFD150D9F7CF5F9E
:100EC000C83081F7E5DFDF91CF91089558985A989F
:100ED0005B985D98509A529A539A559A6DD55D9A3F
:100EE000559A5998519A84E16ED5589A84E16BD5F8
:100EF0008EEAC0DF82EEBEDF82EABCDF80EABADFC4
:100F000080ECB8DF8FE2B6DF84E2B4DF81E8B2DFE5
:100F10008AE293E00E94FC3C8F73ACDF80E4AADF9E
:100F200084EAA8DF86EAA6DFBADF8FEAA3DF60E003
:100F300080E078CF089581E08093A50160E082E0B1
:100F400071DFA1CF089582E08093A50160E084E085
:100F500069DF99CF089583E08093A50160E086E082
:100F600061DF91CF08950895582F28E030E090E890
:100F700041E080E0652F642309F0892B440F9695AA
:100F800021503109B9F70895B0E0A0E0EAECF7E0AC
:100F90000C946B3C6C01A02EB12CC501860F911DE9
:100FA000813891050CF041C0E42FEE0DFF27FF1FA3
:100FB000CF01E134F105CCF5D42FD695D695D69551
:100FC000019733E0959587953A95E1F7F22FF27006
:100FD0004F2E21FF0DC0482F4D1B550BFA01EA9DE6
:100FE000A001EB9D500DFA9D500D1124C40ED51E8D
:100FF000C82F883008F0C7E080E8782E701A761A7B
:10100000872D82958F70582E689454F8572D5F70F5
:10101000752E2170622E850101501109CD1750F4F3
:10102000809104018F70806B25DFCDB7DEB7E0E1E2
:101030000C94873C8D2F806B1DDF852D1BDF872D4A
:1010400019DF912C812C7601E00EF11EA814B90451
:1010500031F44420B1F0CA18DB08DF5FDFCFF701BD
:10106000E819F909662019F0F601E80DF91D8491D7
:1010700041107ADF682F81E099DE8FEF881A980A95
:10108000E5CFCA0CDB1CE9CFEF920F93482F8F738B
:1010900020E6829FC00111248A519C4F28E046FF20
:1010A00028E4209310011092000147FD08C0209110
:1010B000100130E2309300012D5E2093100120E2F8
:1010C000E22E08E120E040910001609110015CDF18
:1010D0000F91EF900895EF920F93262FFC0134911A
:1010E00031964491319604913196E490E09100015B
:1010F0004E0F60911001630F049646DF0F91EF9041
:10110000089560E0E8CF0895EF920F93CF93C82F32
:1011100080913F018F5F80933F0140910401440F14
:10112000440F440F2EE0C29FC001112420E1E22EA3
:1011300007E020E060910F018A57994F25DF8091E9
:101140000F01895F80930F01EFEFEC0F8C2FEA30D6
:10115000B0F4F0E0E255F74F0C947E3BB808BC08C1
:10116000C508CD08CB08C708C708C908D308D308E5
:101170008EE3F1D38CE703C08CE7EDD38CE3EBD3A4
:10118000A895CF910F91EF9008958CE7F2CF82E56B
:10119000F6CF8DE2F4CF85E7F2CF8FE4DCD388E69B
:1011A000DAD38DE6ECCF8CE4EACF8F5CADCF089537
:1011B00080E2AACF0895CF93C82F1C1614F0CF91C8
:1011C0000895F6DFC150F9CF90913F0182E1891B6C
:1011D000F2CF0895CF93C82FF7DF8091A5018F5FDD
:1011E0008093A501843070F083E08093A50181E0B5
:1011F000809342018091A5016C2F880F13DE43DE9E
:10120000CF91089510924201F5CFE4DFBFD48091D1
:10121000A501833008F037CE08953ADED5DF38CE09
:10122000089589DED1DF87CE08958DE36DCF0895CF
:10123000CF93DF93EC018991811103C0DF91CF91AE
:10124000089562DFF8CFCF93DF93EC01FE01849124
:10125000982F9F7719F058DF2196F8CFDF91CF9123
:101260000895CF93DF93EC01CE010E94FC3C982FB0
:101270009F7719F049DF2196F7CFDF91CF9108953D
:10128000EF920F93FC0104913196E49002967CDE7C
:101290000F91EF9008950F9380E991E0E2DF409184
:1012A00089014D3F6CF460917701709178018091D4
:1012B000790190917A0103E026E417D10F91089506
:1012C0008FE322DFFBCF90911D019F70923071F46C
:1012D0009CDF84E790E0C5DFE0914001F09141019F
:1012E00022E044E06FEF84819581E1C1089597FF8A
:1012F00009C08F939F938DE207DF9F918F91909507
:1013000081959F4F65E271E04AE050E00E94C93C40
:101310008FCF0895ECDF01C0EADF4ACF0895EF9246
:10132000FF920F931F93182F062FF42E82E791E060
:1013300098DFEE24E0914001F09141018685E816A6
:1013400011F4812F09C08485E81611F4802F04C0A0
:101350008585E81611F48F2DD7DEE3948E2D83302A
:1013600049F71F910F91FF90EF900895EF92FF9230
:101370000F931F93182F062FF42E80E046DF88E787
:1013800091E06FDFEE248E2D10DF4FDFE091400102
:10139000F09141018685E81611F4812F09C08485FA
:1013A000E81611F4802F04C08585E81611F48F2DFE
:1013B000ABDEFEDEE3948E2D833029F71F910F9173
:1013C000FF90EF900895682F80E092E0662309F483
:1013D00091E0623009F481E008950F93082FE6EA66
:1013E000F1E0880F880FE80FF11D60817181828123
:1013F0009381643671058105910570F42091020195
:1014000027FD0AC0802FDFDF692F0E94CE256EEFF7
:1014100023E044E04CD104C04FEF04E024E065D069
:10142000C7DE0F910895863058F4E9E9F1E0E80F3E
:10143000F11DE80FF11D8081918163E043D1B8CEA9
:1014400008951F93182F80917301882319F0B0DE3F
:1014500080E05ADE70DD89E691E003DF812F82951E
:101460008F70E1DF812F8F70DEDF1F9108958091F3
:10147000110182958F7019D08091110183701CD059
:1014800080911101DECF0895EDE8F1E0E80FF11D44
:101490000895CF93F9DF9081C681C91710F405D064
:1014A00001C013D085DECF910895EEDF8F93808148
:1014B0007CDE8F9101C008958F9387E391E0D1DEA8
:1014C0008F91E2DF868171CE0895DEDF8F93868172
:1014D0006CDE8F9101C008958F9383E391E0C1DEAC
:1014E0008F91D2DF808161CE0895AEE0B0E0EBE76E
:1014F000FAE00C94693C142F622E702E6B017C0173
:101500000F7080E389838A838B838C838D838E83A2
:10151000F7FE40C08DE2F8DDF094E094D094C094E2
:10152000C11CD11CE11CF11C68EE862E63E0962ED6
:10153000A12CB12C033041F150E1852E57E2952EBC
:10154000A12CB12C043001F140EA842E46E8942EFF
:10155000AA24A394B12C0530B9F030E4832E32E4F0
:10156000932E3FE0A32EB12C063071F074E6872E47
:10157000912CA12CB12C073039F420E8822E26E9D9
:10158000922E28E9A22EB12C9AE0292E312C412C42
:10159000512C12C075FEC8CF8BE2B6DDC5CFC70196
:1015A000B6016B5F7F4F8F4F9F4FA20191010E9449
:1015B000403B69017A011F5FC814D904EA04FB04A7
:1015C00070F781E1810F9BEA899F812D1124A82E5C
:1015D000A69486E0811B899F112D11241695912FC9
:1015E000990F190F811B182F4E0187E0880E911C4F
:1015F0002AE0A401C701B6010E94A83CF4010190B1
:101600000020E9F731977F01E818F9089E2C67015F
:10161000DD24812F90E004968C159D0514F4A3948D
:101620001D5F8A2D90E0845D9F4F0E94FC3CA82E98
:1016300074FE29C0901638F50E198E2C811A800E72
:10164000181424F08EE260DD012F0E19111102C072
:1016500088EF882E912C10E0C00ED11EE82C082CAB
:10166000000CFF08E92DF0E0EC15FD0574F0AA2050
:1016700011F08A2D49DD662011F0862D45DD2E966C
:10168000E2E10C94853C00E0D8CF3696E01BF10BEC
:1016900081E090E08C0F9D1FE80FF91F808134DD01
:1016A00093949E141F04F1F68EE22EDDDBCF0F9390
:1016B000362FBC0190E080E0022F242F432F15DF4E
:1016C0000F9108950F93062FBC0190E080E026E56E
:1016D0004DEF0BDF0F9108950F93042F28E440E0A6
:1016E00004DF8AE711DD64DD0F910895E82FF0E053
:1016F000EE0FFF1FE057FE4F85919491209100015E
:10170000420F20911001620F20E0BACD0895CF93CF
:10171000DF93C82FD62FE0914001F091410148E1BD
:101720006EE18685E3DFE0914001F09141014D2FAC
:101730006C2F8485DBDFE0914001F091410140E0B6
:101740006EE18585D3DFDF91CF9108951F93CF930D
:10175000DF93A5DB80EC98DC62E088EA91E0BBDCFB
:1017600080E892DC8DED91E0CCDC60E085E05ADB36
:1017700085E891E076DD69E085E054DB8DE791E076
:1017800070DD88E99AE3C9D18ADB83E47DDC83E0FC
:101790007BDC86EE91E0B5DC61E082E043DB8EE449
:1017A000B3DC8DE2B1DC8FE991E05BDD6AE082E0E1
:1017B00039DB80E5A9DC8DE2A7DC8FE991E051DD22
:1017C00088E99AE3AAD16BDB81EC5EDC81E85CDC22
:1017D0008FE392E096DC60E085E024DB8EE494DC2D
:1017E0008DE292DC85E490DC89E991E03ADD69E004
:1017F00086E018DB80E588DC8DE286DC85E484DC2D
:1018000089E991E02EDD88E99AE387D148DB81E41C
:101810003BDC83E392E075DC81E036DC8FE092E034
:1018200070DC60E081E0FEDA8EE46EDC8DE26CDC80
:1018300084E46ADC89E991E014DD69E082E0F2DAAF
:1018400080E562DC8DE260DC84E45EDC89E991E0C5
:1018500008DD88E99AE361D122DB82EC15DC82E8BD
:1018600013DC85E092E04DDC60E085E0DBDA8EE4BD
:101870004BDC8DE249DC85E447DC84EA91E0F1DC75
:1018800069E086E0CFDA80E53FDC8DE23DDC85E48F
:101890003BDC84EA91E0E5DC88E99AE33ED1FFDABB
:1018A00082E4F2DB8FEF91E02CDC82E0EDDB8DEE69
:1018B00091E027DC61E081E0B5DA8EE425DC8DE2A1
:1018C00023DC84E421DC84EA91E0CBDC6AE082E082
:1018D000A9DA80E519DC8DE217DC84E415DC84EA02
:1018E00091E0BFDC88E99AE318D1D9DAD1DA88E14E
:1018F00091E0B7DC20DB83E191E0B3DC24DB8BE516
:1019000091E0AFDC28DB87E391E0ABDC51DC83E3E3
:1019100091E0A7DCC0E012E18C2F612F0E940D3B0B
:1019200091110BC0D82FD37021F488E99AE3F5D038
:10193000B6DA60E08D2F880F75DA80E28C0FE4DB79
:10194000CF5FCF3549F788E99AE3E7D0A8DADF918E
:10195000CF911F9108958F932F932AE080953B9A02
:10196000089410F4439802C0439A000020D027D076
:1019700086952A95B1F72F918F91089503D002D0C3
:1019800001D000D000D003D002D001D000D000D0D0
:1019900003D002D001D000D000D0A89503D002D04F
:1019A00001D000D000D003D002D001D000D000D0B0
:1019B00003D002D001D000D000D003D002D001D09B
:1019C00000D00000089590E0893C28F0885C48EC45
:1019D000849FC0011124009709F40895209181008B
:1019E000277019F0DADF0197F6CF8130910519F0F1
:1019F00002973EE303C037E180E090E02091B2001F
:101A0000230F2093B30042E04093700027E023BFF0
:101A1000889526E023BF10927000A895DCCF8F93A5
:101A200084E0D1DF07C08F9382E0CDDF03C08F93C6
:101A300081E0C9DF8F911F93182F106410937C00F1
:101A4000E12FE07880913001E81759F0E093300100
:101A5000AEDF8EE980937A0083E083BF889582E0D1
:101A600083BF20E030E0A901E0E01FC08EE9809351
:101A70007A0083E083BF889582E083BF609178001D
:101A800070917900260F371F411D511DE43061F41C
:101A900080913201803041F084E02030380720F41A
:101AA00017FD02C01068CACFEF5F80912F01E817C1
:101AB000E8F2609133017091340117FF04C0609126
:101AC00031017091320180E090E00E94FE3A2FEFE8
:101AD00033E040E050E00E94403BB901CA01209150
:101AE0002F0130E040E050E00E94403BC9011F91CF
:101AF00008959B01281B390B50F0C9010895BC01C2
:101B000080913301909134016817790718F4861B8E
:101B1000970B089580E090E00895EF92FF920F9365
:101B20001F93CF93DF93F82EE92EC5E64F9B1CC081
:101B3000CF2DDE2D15E500E0D7FD10C082E043DF9C
:101B4000110F4F9B1F5F1F731F3399F4011103C0C7
:101B5000CF2DDE2D04E00F5F083C78F0802FCDB74D
:101B6000DEB7E6E00C94913C81E02DDFC150F1F648
:101B7000DFCF111102C00111F1CFA8951C161D066F
:101B8000DCF62A97C9F6CFEFDFEFD6CFCF9358D93F
:101B9000C82F809142018823D1F0813051F4C330A5
:101BA00041F461E186E03ED98BE2AEDA61E186E0A4
:101BB00039D980E49FE1B1DFC33041F48091420123
:101BC000813021F460E086E02DD9FEDA42D9CF9150
:101BD000089583E593E00E94FC3C382F84E593E070
:101BE0000E94FC3C20913701230F30913801381FAF
:101BF00020931A0130931B0183E0283E380720F020
:101C0000C901885E934002C080E090E062E370E02A
:101C10000E94193B683008F067E0EEE6F3E0E60F5B
:101C2000F11DE60FF11D459155912591359162E326
:101C3000681B421B530B649FC001659F900D1124CC
:101C4000499662E370E00E94193B620F731F709324
:101C500076016093750185E593E00E94FC3C99272D
:101C600087FD90956091370170913801860F971F1D
:101C700090933201809331019093720180937101AE
:101C80000895CF93DF9324E130E0B9010E94193B1E
:101C9000DC01E0E8F3E0E60FF71FE60FF71FC59160
:101CA000D591459155914C1B5D0B4A9FC0014B9FAF
:101CB000900D5A9F900D1124B9010E94193B6C0F91
:101CC0007D1FCB01DF91CF91089518951895409114
:101CD0001C01A0914001B0914101EDE8F1E030E03C
:101CE00020E0822F2417B0F451911C969C911C97F0
:101CF000591719F05581951303C02F5F3F4FF1CF4E
:101D0000220F331FF901E756FE4F20813181293E12
:101D1000334008F084E1089510921E0110921C01D6
:101D200010926C011092520110921D0110923E010E
:101D300010927301E7E5F1E0108211821282E7E769
:101D4000F1E0108A82E0818B1092020117861686DC
:101D5000148215821682178281EF838B08958FE497
:101D6000FADD86E4F8DD86E4F6DD8DD887D85E9866
:101D700008DE90E080E0D1CE08951F93CF93DF93EB
:101D8000162F98E097B998B9E82FF0E0E95AFD4F7F
:101D9000949195B9262F281BE20FF11D27FDFA9586
:101DA000E491E92BE4B947DEEC01812F44DEAC017C
:101DB000209133013091340136952795C90103975D
:101DC000BE01625E7F4F8617970778F4255E3F4F0E
:101DD000C217D30750F4BA01625E7F4F8617970788
:101DE00020F481E04217530708F080E014B8DF9137
:101DF000CF911F910895CF9361E080E0BEDFC82F9F
:101E000062E080E0BADFC80F62E081E0B6DF8C0FED
:101E1000CF910895AFE0B0E0E0E1FFE00C94693CC1
:101E2000B82E10921E01807FB9F4E5DF833081F473
:101E300036D882E692E015DA7ED88FE365D980ED58
:101E400097E06BDE8B30B0F42AD885E091E009DAB8
:101E50002F96E2E10C94853C06E910E020D881ED54
:101E600091E0FFD9C8DF833009F068C01F5F1430EC
:101E700008F465C060D80E94B82081EC90E0F1D9E8
:101E800060E08DE293E00E94093D60E08EE293E025
:101E90000E94093D60E08CE293E00E94093D60E011
:101EA00082E00E94CE256C019A83898361E082E002
:101EB0000E94CE257C019C838B8360E081E00E94A0
:101EC000CE258C019E838D8323E040E26EEFC60118
:101ED000EEDB23E040E26EEFC701E9DB23E044E004
:101EE0006EEFC801E4DB2AE5C216D10424F084E1D8
:101EF00090E09A83898369818DE293E00E94093D95
:101F00008AE5E816F10424F084E190E09C838B8359
:101F10006B818EE293E00E94093D0A35110524F0A1
:101F200084E190E09E838D836D818CE293E00E943A
:101F3000093D82E08093420129DE06C010E088E27C
:101F400042DD015009F08ACFEB2DEF70EF87E130D1
:101F500009F04DC0EE24E394F12C78EB872E72ED5E
:101F6000972E77E4A72EB12CE2E0DE2E08E0F0E217
:101F70003F2EC12C1E2D50E3252E53D94ED984E57A
:101F8000C3D8C701BFD914D9113009F0CEC184EF2D
:101F900090E067D964E0809137019091380192DB3D
:101FA0000E949B078FEE90E05CD980917501909123
:101FB0007601A8D98EEB80932F0107B908B914B820
:101FC00015B888EE93E0A9DD143011F08B3020F4C1
:101FD000C39484E0C812D1CF88EE93E09EDDEFEF8A
:101FE000EE1AFE0AF8E0EF16F10409F0C2CF18E786
:101FF00002DF882341F015D982E592E032D984E6E8
:10200000E2DC1150A9F70E944F078AEB90E029D932
:1020100023E044E06FEF809135019091360147DB7A
:102020000E949B0783EB90E01CD923E044E06FEF14
:1020300080913C0190913D013ADB82E08093420126
:10204000A5DD10921E010E944F078FEA90E009D98A
:1020500060E082E00E946B1D80907F019090800183
:10206000A0908101B09082019C868B8661E082E025
:102070000E946B1DC0907F01D0908001E090810193
:10208000F0908201DE86CD8660E081E00E946B1DCB
:1020900000917F01109180011E830D8362E080E03A
:1020A0000E946B1D80917F01909180019C838B83A6
:1020B00062E081E00E946B1D80917F019091800120
:1020C0009A87898761E080E00E946B1D80917F0183
:1020D000909180019A8389832F85213029F0209166
:1020E0003B01223009F00AC2029698878F83C4010F
:1020F00013D9C60111D9B801110F880B990B03E050
:1021000026E444EFF2D98E010F5F1F4F9E01215F3D
:102110003F4F7801F701819191917F010A97853BAB
:102120009105D0F42E173F07A9F74CE4C42E43E0E5
:10213000D42EF80160810E5F1F4F6E5EC6010E94B3
:10214000093DFFEFCF1ADF0A0E151F0591F70E9418
:102150009B0785EB91E085D882E08093420116DDF4
:102160000E94B3312F85213029F080913B018230CC
:1021700009F0C2C00E944F0780E017D88BE591E0BC
:1021800070D882E012D884E290E06BD820E4F22E7E
:1021900010E03AE0832E912CA12CB12CBDDD1092E1
:1021A0001E0160E082E00E946B1D00918901209178
:1021B0007701309178014091790150917A01073F80
:1021C0000CF4A1C100938901209377013093780129
:1021D0004093790150937A01073F09F09CC1205642
:1021E000310941095109203935454105510508F0AA
:1021F00092C160918B0170918C01CB018B569F4FE6
:102200008B32914008F087C11F5F153008F484C1FC
:1022100083E593E00E94173D0E944F078DE190E017
:1022200020D880918B0190918C0161D8D2DC88E01C
:1022300088B989E087B980E284B982E0FCDB853D1A
:102240009340DCF714B8109232011092310182E011
:10225000F2DB7C01809171019091720190933201C7
:102260008093310182E0E7DB6C01CC0CDD1C109225
:1022700032011092310182E0DEDB4C01A09071014D
:10228000B0907201B0923201A09231010E949B077E
:1022900086E190E00E94310985E593E00E94FC3CD4
:1022A000182FD701A80DB91DAC19BD0995010E94C1
:1022B000933B96010D2C000C440B550B0E94623B86
:1022C0001D5F120F612F85E593E00E94093D812F6C
:1022D000012E000C990B0BD87CDC82E0809342012C
:1022E00055DC10923B018CE493E00E94FC3C682F8B
:1022F0008FE493E00E94093D89E180932F0180E003
:102300000E94D6340E944F0785E091E00E94310977
:102310000E949B0789E492E00E94310910921E01FD
:1023200082E08093420132DC93CD123089F5209116
:10233000330130913401A8E5BBE10E94843B24ECD9
:1023400036E340E050E00E94623B29013A0181E01F
:1023500085B9F5E0F4B980E062DB841995099A83C8
:10236000898381E184B980E05ADB841995099C83D3
:102370008B8384E085B984E184B981E050DB8419E2
:1023800095099E838D8389ED90E00E94310934C0C8
:10239000133049F5D5B82AE024B980E040DB20911C
:1023A0003301309134013695279538872F83821B6E
:1023B000930B9A83898382E284B980E030DB2F819A
:1023C0003885821B930B9C838B8305B9E8E2E4B9C3
:1023D00081E025DB2F813885821B930B9E838D83C3
:1023E0008BEC90E0D2CF1430D1F482E592E00E94E1
:1023F000310901DD8111A8C00E949B0789819A8162
:102400000E9477090E94D8088B819C810E947709DD
:102410000E94D8088D819E810E947709CECD15300B
:1024200099F415B8D4B880E0FADA9A83898304B9AC
:1024300081E0F5DA9C838B8334B882E0F0DA9E8306
:102440008D838BEE90E0A1CF163039F5D4B8D5B896
:1024500080E0E5DA2091330130913401821B930B47
:102460009A83898304B905B981E0D9DA20913301CF
:1024700030913401821B930B9C838B8334B835B825
:1024800082E0CDDA2091330130913401821B930B2D
:102490009E838D8387EE90E078CF173059F5209199
:1024A000330130913401A8E5BBE10E94843BA501D2
:1024B00094010E94403B29013A01D5B8F3E0F4B9F8
:1024C00080E0ADDA841995099A83898305B92CE0F7
:1024D00024B981E0A4DA841995099C838B8335B8EB
:1024E00024B882E09CDA841995099E838D8385EC5B
:1024F00090E04BCF113009F07FCF5FCD98878F836D
:1025000010923B01F4CD0F5FCA01B901A5019401FE
:102510000E94403B54CE10E00E949B0760917701DF
:10252000709178018091790190917A0104E026E41C
:10253000409189010E94750A0E94E40888E243DA0A
:10254000FA94F1102BCED8CE82E0C82E55CF8091D0
:102550003B0181110DC08CE493E00E94FC3C61E0E2
:10256000680F8FE493E00E94093D81E080933B0176
:102570000895EF92FF920F931F93CF93DF93D62F7F
:10258000E82FF0E0E65AFD4FE491E8B9E860E7B9DA
:1025900015B8E62FF0E0E95AFD4FE491E4B9CE2FEB
:1025A000CC0F88E8E82E83E1F82E8D2F38DA8C01E5
:1025B000C4B98E159F0518F1892BE1F00E94AB0775
:1025C0008BE391E00E943109D80120EA36E841E02E
:1025D00050E00E94993B28E937EB40E050E00E9430
:1025E000403BC90122E041E467EF61D888E087B948
:1025F00088B914B8CDB7DEB7E6E00C94913C780109
:10260000D4CF0F931F93CF93DF9385E014DA85E047
:102610000EDA8C019C01A2E4B0E00E94843B21E22E
:1026200030E040E050E00E94403BE90122961092E9
:102630003901C43883E0D80770F489EA91E00E9438
:1026400031090E94E40881E080933901DF91CF9144
:102650001F910F91089588EB91E00E94310962E08B
:10266000CE0130D80E94D80800318EE01807A0F4BF
:1026700000381C4050F48BEB92E00E9431090E941C
:10268000E4088DECA0D96BDBE1CF82EC92E00E94F4
:1026900031090E94E408DACF85EB91E0F8CFFC0124
:1026A0009C01261B370BCA0170E060E0A901460FB0
:1026B000511D452F5527620F240F351FAC01470FC1
:1026C000511D452F5527780FDA01AA0FBB1F8A0F1E
:1026D0009B1F4B3E20F4E217F30740F7089590E06C
:1026E00080E00895A9E1B0E0E8E7F3E10C94693CEB
:1026F000582E462E342EA895E62FF0E0E95AFD4FCD
:1027000024912E87220F2F8B339634913A8BE42F0E
:10271000F0E0E95AFD4F44914983339684918F83C9
:10272000E52DF0E0E95AFD4F2490922D990F9F87F7
:10273000339624912B8328602C8338603A8345B9E3
:10274000EE84E42AE4B827B93B8138B9862F6FD9E3
:102750008C014E8544B9842D6AD9B82E998714B856
:102760001BD915B8E4B8842D62D9B801C2D96C015F
:102770008A8187B988E088B9998192299D8395B922
:1027800094B9852D54D9BBD94C0115B805D925B8B4
:10279000852D4DD9B4D99D878C8724B8852D47D9EF
:1027A000AED93C016C857D85C401A3D98032E1E0BE
:1027B0009E0730F4F0E2CF16F1E0DF0608F481C6A0
:1027C0002C853D85C20ED31E800F911FC816D906D9
:1027D00020F01D870C876B2C798420915201809109
:1027E0006C01820F9927991F02974CF0213009F054
:1027F00096C590914F0180916901981390C5D98039
:10280000DD0CFE84FD283D2D32293B878C859D857E
:102810008437910508F490C10A96880F991F6816AD
:10282000790608F089C19C8197B9EB81E8B9F4B8C1
:10283000842DF9D88C01832DFED87C01D5B8842D48
:10284000F2D89801295A3D4F2817390708F0ADC032
:1028500088E088B9FA81F7B92B8524B925B9832D89
:10286000E2D888349F4008F49BC085E080931E0125
:1028700082E280931D011093480100934701B70144
:10288000C80142D990934E0180934D019801A0E177
:10289000B7E20E94843B209118013091190150E069
:1028A00040E00E94403B30934A01209349018F89C8
:1028B0008D2984B915B84C8147B98B8188B9832D8E
:1028C000BAD88C01842DAFD8B8011ED99C01909341
:1028D0004C0180934B0190911D019F70943071F5D4
:1028E0004091490150914A0160914D0170914E0112
:1028F000C901D5DE0097F1F0D4B8EA899C81E92BB3
:10290000E7B9842D90D88C0188E087B99801A0E1BF
:10291000B7E20E94843B20913C0130913D0150E0A0
:1029200040E00E94403BA901B80180914B01909189
:102930004C01B5DE909348018093470180911D01C1
:102940008F70843039F188E088B9EF81FA81EF2BFC
:10295000E7B924B82D8125B9852D69D88C01CFD848
:102960009E838D83842D67D8E0901F01F090200115
:10297000BC01C801C9D89701DC010E94843BED81EC
:10298000FE819F0150E040E00E94403B30934801AF
:1029900020934701809152018F5F8093520147C37A
:1029A00085E080931E0184E264CF88E088B9FA81D3
:1029B000F7B92B8524B925B9852D35D88C01832D00
:1029C0003AD87C0125B8852D2ED8895A9D4F80177D
:1029D000910708F0A4C43B8138B94C8147B9832DD5
:1029E00022D8813D934008F0A2C085E080931E016B
:1029F00082E380931D01B801C70186D890936801D6
:102A000080936701C8017BD89C01A0E1B7E20E94D6
:102A1000843B20911F013091200150E040E00E9452
:102A2000403B3093640120936301F8E0F8B92A81B8
:102A300027B98F858D2984B985B9852D0E941B0DF5
:102A40008C01832D0E94130DB8015ED89C019093D8
:102A500066018093650190911D019F70943099F5F6
:102A60004091630150916401609167017091680128
:102A7000C90115DE009719F1D5B8D4B83B8138B932
:102A8000EC814A81E42BE7B9852D0E94130D37D8DC
:102A90008C0188E087B99801A0E1B7E20E94843BED
:102AA000209135013091360150E040E00E94403BDA
:102AB000A901B8018091650190916601F0DD9093C4
:102AC00062018093610180911D018F70843049F112
:102AD000EB819F81E92BE8B9EC819E2B97B915B862
:102AE000FD81F4B9852D0E94170D7C01842D0E9473
:102AF0001B0D9E838D830091180110911901BC015B
:102B0000C70102D89801DC010E94843BED81FE815F
:102B10009F0150E040E00E94403B309362012093CF
:102B2000610180916C018F5F80936C0118C185E019
:102B300080931E0184E35DCF88E088B9FA81F7B9FC
:102B400025B82B8524B9852D0E94170D998B888B6C
:102B50000E947F0D98878F83832D0E941B0D9A877B
:102B6000898783010C591F4F8F819885B3010817FE
:102B7000190708F0F6C00E94840D9C8B8B8B209166
:102B80001F013091200150E040E060E871EA83E0ED
:102B90009CE10E94403BAB89BC890E94993BE9853E
:102BA000FA859F0150E040E00E94403B49015A01F4
:102BB00014B815B8FB81F8B92C8127B981E00E94BF
:102BC000E30CE4B8842D0E94170D8F359D4008F466
:102BD00074C1F4B8842D0E94130D998F888F832DB2
:102BE0000E941B0D9C8B8B8B852D0E941B0D9E8B39
:102BF0008D8B8B899C89813D974008F4E6C084E0E9
:102C000080931E018DE080931D01288D398D8901EF
:102C1000061917096216730610F0088D198DC090F9
:102C20001801D0901901F12CE12C60E871EA83E0E1
:102C30009CE1A70196010E94403BD8010E94993B6C
:102C4000EB89FC899F0150E040E00E94403B80916D
:102C50006C01882371F080915D0190915E01A091DB
:102C60005F01B091600182179307A407B50708F0D0
:102C700099C020935D0130935E0140935F015093B2
:102C80006001288D398DA0E1B7E20E94843BA70145
:102C900096010E94403B30936401209363016B894D
:102CA0007C898D899E890E94840D90936201809316
:102CB000610181E040915D0150915E0160915F0191
:102CC00070916001481559056A057B0508F06CC0D4
:102CD00080925D0190925E01A0925F01B0926001CE
:102CE00069857A85888999890E94840D909362010B
:102CF000809361012F813885A0E1B7E20E94843B77
:102D000020911F013091200150E040E00E94403BA3
:102D1000205F384D3093640120936301C090180107
:102D2000D0901901F12CE12C9301A0E1B7E20E94AF
:102D3000843BA70196010E94403B3093660120939B
:102D400065012C853D85A0E1B7E20E94843BA70187
:102D500096010E94403B309368012093670181E017
:102D600025C08F8198850E94840D9C8B8B8BFD8163
:102D7000F4B9852D0E94170D998B888B0E947F0DC9
:102D800098878F83832D0E941B0D9A878987BC01AA
:102D90008B899C890E94840D9C01A4E6B0E00E946E
:102DA000843BFDCE80E086CF8111B8CF90916C013D
:102DB0009F5F90936C01882309F477C33092690177
:102DC00040926A0150926B0170C3F1E66F16710474
:102DD00008F073C0288D398D213D47E0340708F491
:102DE0006CC085E080931E0182E180931D01C901C2
:102DF00086509F4FED89FE898E179F0708F043C0CC
:102E000083E180931D01FA89F770DF2E832D8064A2
:102E100080937C00EBE0EE2E21E030E03E832D83BA
:102E20000FEF13E0A89561E089816ED5F4B886B103
:102E30008D21E9F33E8534B980917A0080648093D6
:102E40007A0080917A0086FDFCCF80917800909185
:102E50007900F801E81BF90B2D813E812E0F3F1FF1
:102E60003E832D83EA94E110DDCFC901880F991FBD
:102E7000880F991F69E070E00E94193B7093680108
:102E8000609367014ECE0091180110911901688D71
:102E9000798D8D899E890E94840D9801DC010E94A4
:102EA000843BE88DF98D9F0150E040E00E94403B5B
:102EB0003093620120936101A6CFF4B8D5B8842D78
:102EC0000E94170D6C01832D0E941B0D98878F8324
:102ED0000E947F0D9A8789870C151D0508F0A9C0EF
:102EE000B301C6010E94840D8C012091180130911C
:102EF000190150E040E060E871EA83E09CE10E9443
:102F0000403BD8010E94993BE985FA859F0150E03A
:102F100040E00E94403B49015A01FA81F7B988E03C
:102F200088B92D8124B925B9852D0E94170D8C01F2
:102F3000832D0E941B0D9A878987842D0E941B0D6B
:102F40007C01003331E1130708F0E6C125B8852D77
:102F50000E94170D998B888B24B8852D0E94170D20
:102F60009C8B8B8B15B881E00E94E30C25B8852DD6
:102F70000E94170DEB89FC89E034F64008F079C017
:102F80008133914108F475C0C8018A569F4FE88982
:102F9000F989E817F90708F06CC086E080931E01F4
:102FA000809152018F5F80935201B70189859A8584
:102FB0000E94840D9093480180934701B701C80196
:102FC0000E94840D90934E0180934D0114B815B862
:102FD000FA89F8B981E00E94E30C24B8852D0E949B
:102FE000170D853F910518F52D8124B9832D0E9479
:102FF000170D813D9340D8F0852D0E941B0D8D3D0E
:103000009240A8F024B8852D0E94170D8D3D924066
:1030100070F025B881E00E94E30C15B8852D0E9460
:10302000170D853F910518F487E080931E0181E01C
:10303000F8C0E4B8F981F5B9842D0E94170D6C0130
:10304000832D0E941B0D98878F830E947F0D9A8786
:103050008987C6016C147D0410F486199709698567
:103060007A850E94840D9C01A4E6B0E00E94843B16
:103070004BCFFA81F7B9298124B925B981E00E94A3
:10308000E30C3B8534B935B9852D0E94170D8C01B1
:103090000E947F0D998B888B832D0E941B0D9E8330
:1030A0008D830E947F0D9A878987842D0E941B0D36
:1030B0007C0189859A858E3F994008F4C1C084E0DF
:1030C00080931E018CE080931D01B301888999894A
:1030D0000E94840D8C0120911F013091200150E04D
:1030E00040E060E871EA83E09CE10E94403BD80147
:1030F0000E94993BE985FA859F0150E040E00E94DB
:10310000403B80915201882371F08091430190915E
:103110004401A0914501B091460182179307A4078D
:10312000B50708F07AC020934301309344014093DF
:10313000450150934601B7018D819E810E94840D07
:10314000909348018093470128893989A0E1B7E22B
:103150000E94843B20911F013091200150E040E00B
:103160000E94403B30934A012093490181E0409105
:103170004301509144016091450170914601481509
:1031800059056A057B0508F04AC080924301909278
:103190004401A0924501B0924601B6018F81988505
:1031A0000E94840D90934801809347019601A0E10D
:1031B000B7E20E94843B209118013091190150E040
:1031C00040E00E94403B205F384D30934A012093FD
:1031D00049019301A0E1B7E20E94843B20911801CC
:1031E0003091190150E040E00E94403B30934C0187
:1031F00020934B012C853D85A0E1B7E20E94843BE2
:1032000020911F013091200150E040E00E94403B9E
:1032100030934E0120934D010ACF80E0A8CF811159
:10322000D8CF909152019F5F90935201882309F467
:103230003CC130924F01509250014092510135C132
:10324000F1E66F16710408F067C0288939892934BE
:103250003D4008F461C085E080931E0182E08093C8
:103260001D01C70186509F4F8017910708F03CC091
:1032700083E080931D010B810770832D8064809310
:103280007C001BE021E030E03E832D83A89560E0C8
:1032900089813AD33B8534B935B986B18023E9F7C2
:1032A00024B880917A00806480937A0080917A00BB
:1032B00086FDFCCF8091780090917900ED81FE81B0
:1032C000E80FF91FFE83ED83115001F7CF01880F3E
:1032D000991F880F991F69E070E00E94193B709355
:1032E0004E0160934D0156CBC0901F01D09020013C
:1032F000B701C8010E94840D9601DC010E94843B45
:10330000E889F9899F0150E040E00E94403B3093FA
:10331000480120934701AFCF88E087B988B914B836
:1033200015B888E087B9F7EC6F16F1E07F0608F46E
:10333000E4C088B92F8524B938EC3D834C818A815B
:10334000482B4F839F8197B981E00E94E30CEA816B
:10335000E7B9852D0E941B0D429728F0FD81F150A1
:10336000FD83F111EFCF2F8524B925B961E0898163
:10337000CBD2852D0E94170D6C013F8934B915B849
:103380004C8147B98B8188B960E08981BDD2842D99
:103390000E94170D0E947F0D9E838D839E8594B998
:1033A000842D0E941B0D8C01852D0E94170DB801E4
:1033B0000E94840D8C01842D0E941B0D7C01852DA3
:1033C0000E94170DB7010E94840D98012C5E3F4F9B
:1033D0002817390708F469C088E088B9EA81E7B995
:1033E00024B825B861E089818FD2842D0E941B0DFD
:1033F0007C01852D0E94170DB7010E94840D7C0170
:103400000817190708F060C0FF85F4B9F5B9852DD4
:103410000E94170D9C01CD82DE8288EEE81683E0C3
:10342000F80608F063C0C70164E670E00E94193B2B
:10343000C701875991098938914108F05EC02E155E
:103440003F0508F05AC08D819E8143E0969587958F
:103450004A95E1F7893C910510F088EC90E02D81C8
:103460003E81820F931F8E159F0508F046C062179C
:10347000730708F042C080911E01833018F483E086
:1034800080931E0120911C01822F90E0FC01E357E4
:10349000FE4F50824682880F991FFC01E756FE4F6F
:1034A000F182E0822F5F20931C0188E087B988B900
:1034B00014B815B88EE20E9484086996E2E10C9473
:1034C000853C6B2C79842BCF2F8924B915B83C818E
:1034D00037B94B8148B960E0898116D2842D0E94AA
:1034E000170D0E947F0D9C01780197CFB70154E022
:1034F000769567955A95E1F79BCF642D852D01D080
:10350000D4CFB0E0A0E0E7E8FAE10C946B3CC82F20
:10351000D62FA895862F90E0FC01E95AFD4F5490D4
:10352000339624914C2F50E0FA01E95AFD4F149143
:103530003396049160916C0130915201630F7727AB
:10354000771F672B09F05AC0A895609122017091EE
:103550002301660F771F660F771F70933401609306
:1035600033016091710170917201660F771F660FD0
:10357000771F70933201609331013EEB30932F013E
:1035800060911C01EDE8F1E030E0840F951F6313BA
:103590003AC088E088B9286027B914B915B9B8E1EC
:1035A000BB2ED12CC12C8D2F0E94170D782E692E89
:1035B0008C2F0E941B0D7C018C199D0997FF03C065
:1035C00091958195910903970CF45AC1A895BA94E5
:1035D0006701B110E8CF809122019091230190936F
:1035E0003401809333018091710190917201909325
:1035F00032018093310189E180932F01CDB7DEB78D
:10360000E0E10C94873C51914581450F5527551FAA
:103610004817590701F33F5FBACF25E8C21621E0EA
:10362000D206C8F6043AE2E01E0708F0B5C0F8E991
:10363000AF16B10480F2C6010E947F0DAC01960165
:10364000A8E9B7EB0E94843B9A0150E040E00E9459
:10365000403B29013A01C5010E947F0D9C01A8E968
:10366000B7EB0E94843B950150E040E00E94403B54
:1036700088E7C8168FE0D80608F072C0F2E0440C64
:10368000551C661C771CFA95D1F7C301B201620F75
:10369000731F841F951F25E030E040E050E00E943A
:1036A000403BA4E6B0E00E94993B6B017C01FCEA40
:1036B000CF0EFDE0DF1EE11CF11C10911E01143045
:1036C00008F089CFC1500C2F0D0F802F90E0EC0136
:1036D000C95ADE4F2881880F991F880F991F8A5574
:1036E0009E4FFC01222309F4C4C080809180A280F7
:1036F000B380A7019601281939094A095B0957FFC8
:1037000007C050954095309521953F4F4F4F5F4FE3
:10371000AAE0B0E00E94993BF4E68F0E911CA11C38
:10372000B11CA50194012C0D3D1D4E1D5F1D0E9475
:10373000403B232B242B252B09F04DCF133019F0C0
:1037400081E080931E0182E0888380917301E82FDD
:10375000F0E0E65AFE4F00838F5F809373013BCF0A
:10376000E8E7AE16EFE0BE0670F4E2E0220F331F8A
:10377000441F551FEA95D1F7CA01B901640D751DA3
:10378000861D971D88CF240D351D461D571D569546
:1037900047953795279585CFC0901F01D090200180
:1037A000672D762DE616F70608F4B701C7010E94CB
:1037B000840D9601DC010E94843B2B013C01C70172
:1037C0000E947F0D9C0150E040E0C301B2010E94C5
:1037D000403B29013A01A0901801B0901901892DB0
:1037E000982D8017910708F4C801B8010E94840D34
:1037F0009501DC010E94843B980150E040E00E946A
:10380000403B88E7E8168FE0F806B0F462E0440C2D
:10381000551C661C771C6A95D1F7C301B201620F73
:10382000731F841F951F25E030E040E050E00E94A8
:10383000403B69017A0141CF0837EFE01E0770F481
:10384000CA01B90152E0660F771F881F991F5A9568
:10385000D1F7640D751D861D971DE5CF73016201BB
:10386000C20ED31EE41EF51EF694E794D794C794B7
:1038700024CFC082D182E282F38281E08883ABCE02
:10388000110F15B814B98C2F0E94170D81359105B1
:1038900008F0A1CE15B98C2F0E94170D6C01802F56
:1038A000886087B908B915B854B8A8E14A2EB12C78
:1038B000A12C8C2F0E94170D982E892E8D2F0E94DF
:1038C0001B0D8C018A199B0997FF03C09195819567
:1038D0009109039734F0A8954A9458014110E9CF13
:1038E0007ACE550C54B88D2F0E94170D5C01F0EC68
:1038F000EF16F4E4FF0608F490CE80EBC8168DE4D2
:10390000D80608F068CE8ECECF93C82FC09595B15B
:1039100060FF10C0982B95B994B1892B84B982E0CF
:103920000E94E30C84B18C2384B985B18C2385B9C2
:10393000CF9108959C23EFCFB0E0A0E0E2EAFCE154
:103940000C94713C1AE008E08FE3C82E99E0D92E60
:1039500007B908B915B8C4B880E00E94170D7C01FA
:1039600081E00E941B0DEC0182E00E941B0D9C0176
:1039700080911E018930A1F488E087B914B8F092D3
:103980000601E0920501D0930801C093070130932E
:103990000A0120930901CDB7DEB7EAE00C948D3C13
:1039A00084E0E816F10448F4C430D10560F4243012
:1039B000310510F399E092600AC098E088EEE816AD
:1039C00083E0F80608F499E0C83ED340A0F3283E0F
:1039D000334008F4946097B9D0E0C0E0A89580E047
:1039E0000E940F0D5C0181E00E941B0D7C0182E0B2
:1039F0000E941B0D24E1A21625E0B20608F4389AB5
:103A000024E1E21625E0F20608F4399A843125E033
:103A1000920708F43A9A26E0A216B10430F426E0A0
:103A2000E216F10410F4069738F02196C43F81E0C5
:103A3000D807A1F6D0921E01F12CE12CEC16FD0660
:103A400021F4115009F084CFA6CF0E94D20C2FEFA1
:103A5000E21AF20AF3CFCF92DF92EF92FF92CF9366
:103A600020917701309178014091790150917A014C
:103A7000C09189018AE0C82ED12CE12CF12C8C2F29
:103A8000CF5F213A96E8390791E049075105E0F404
:103A900080938901A0913301B09134010E94993B38
:103AA00028E833E140E050E00E94403B209377015A
:103AB000309378014093790150937A01CF91FF9030
:103AC000EF90DF90CF900895CA01B901A701960148
:103AD0000E94403BD4CFB0E0A0E0E1E7FDE10C94D0
:103AE0006F3CC82F062F880F8C0F9FEF960F890F02
:103AF00080935401EC2FF0E0E95AFD4F1491862F8A
:103B000090E0FC01E95AFD4FF490FC01E65AFD4FAC
:103B1000D49180911E018130C1F120911C01EDE80A
:103B2000F1E090E080E08217A8F1D8601092840163
:103B30001092830181EF8093890110927701109296
:103B400078011092790110927A01F6DE88E088B946
:103B5000D7B9F4B8F5B88C2F0E941B0D5C01802FEB
:103B60000E941B0DA81AB90A14B81092560110929F
:103B700055018091550190915601843F9140F0F09C
:103B800088E087B988B914B815B8CDB7DEB7ECE0CE
:103B90000C948B3C368130130EC030813C130BC02B
:103BA000DC01AA0FBB1FA357BE4F1C964D915C9121
:103BB0004C3D554050F301963196B5CF15B914B927
:103BC0000E94CC0C14B815B80E94D30CA8958C2F69
:103BD0000E941B0D7C01EA18FB0880915501909111
:103BE00056018E37910520F08BE4E816F10444F27B
:103BF00080915501909156012DE2E21621E0F206E6
:103C00000CF023C201969093560180935501B1CFD9
:103C10000E94CD0C8C2F0E941B0D8A199B09A89520
:103C20002FEFC21AD20A20915501309156012C155E
:103C30003D0570F75701A81AB90A1A141B040CF0B5
:103C4000ADC039ECA316B1040CF09ACF28EE33E0E6
:103C5000D5010E94933B97010F2C000C440B550B90
:103C60000E94403B69018091550190915601019657
:103C7000B0E0A0E080937F0190938001A093810148
:103C8000B0938201C7018A0D9B1D33D220917F0121
:103C9000309180014091810150918201DC010E94AC
:103CA000993B60937F017093800180938101909391
:103CB00082016093770170937801809379019093EA
:103CC0007A0187EF80938901C6DE8090770190901A
:103CD0007801A0907901B0907A018FE293E00E9480
:103CE000FC3CA8EEB3E0A81BB10987FDB395A50184
:103CF00094010E94A33B24E630E040E050E00E94A3
:103D0000403B2093770130937801409379015093A1
:103D10007A0180911C01882329F080911E01853051
:103D200009F02ECF88E080931E0180918901909147
:103D30008A019817C4F0891323CF8090770190905F
:103D40007801A0907901B0907A0140917B01509167
:103D50007C0160917D0170917E01481559056A05CD
:103D60007B0508F00DCF409177015091780160916B
:103D7000790170917A0140937B0150937C016093AB
:103D80007D0170937E0180938A01D0928601C0925A
:103D9000850100938701C0938801F2CED12CC12CFC
:103DA00062CFCADD15B88FE087B988E088B9F12EF7
:103DB000FF0CF4B880E480937B0084E580BF8C2FF7
:103DC000806480937C0086E180937A000E94D60C08
:103DD00010925601109255011092800010928500A9
:103DE0001092840087E286BB81E280936F0081E0BD
:103DF00080937401F5B890911E01809381009530F5
:103E000009F005C181E090E00C2E01C0880F0A94F2
:103E1000EAF780958F7087B9F89483B7817F83BF65
:103E200080917401882389F083B7816083BF78947F
:103E3000889583B78E7F83BFF894A89580915501AC
:103E4000909156018034964059F7789410928100F1
:103E5000E0908600F090870010926F0086E98093D2
:103E60007A0014B815B88C2F0E941B0D20913701D1
:103E700030913801821B930B0C9690938C018093A8
:103E80008B0180915501909156018032934008F04A
:103E900077CE809155019091560190938201809345
:103EA0008101F0928001E0927F0184EF809389018B
:103EB000809155019091560182349105C8F060912E
:103EC0007F0170918001809181019091820124E6AF
:103ED00030E040E050E00E94403B20937F0130936F
:103EE0008001409381015093820186EF8093890184
:103EF000A0917501B091760120917F0130918001F0
:103F000040918101509182010E94993B20E233E06F
:103F100040E050E00E94403B20937F0130938001BD
:103F2000409381015093820120937701309378016F
:103F30004093790150937A018EDD80918901843F0D
:103F400009F054C0C0907701D0907801E0907901D9
:103F5000F0907A0180EAC8168FE0D806E104F104F7
:103F6000C0F4A70196012C543F4F4F4F5F4F60EABA
:103F70007FE080E090E00E94403BC20ED31EE41E32
:103F8000F51EC0927701D0927801E0927901F0920B
:103F90007A01C0907701D0907801E0907901F0909B
:103FA0007A01C114D10421E0E206F10490F5D09227
:103FB000B701C092B6018091540190E0845B9C4FA0
:103FC0000E94FC3C90E0B0E0A0E08C159D05AE05A1
:103FD000BF0530F5C81AD90AEA0AFB0AC092770170
:103FE000D0927801E0927901F0927A0114B980912F
:103FF000770190917801A0917901B0917A01499768
:10400000A105B10508F4BCCDD12CC12C82CED7B905
:1040100003CF81E090E09093B7018093B601CBCFBE
:1040200034E1C30ED11CE11CF11CC816D906EA0606
:10403000FB0610F40E94A7121092770110927801EB
:104040001092790110927A01D1CF892B31F485E158
:10405000E81685E0F8060CF0A4CEC701D12CC12CDF
:10406000E2CD1F920F920FB60F9211248F939F9360
:10407000B59904C080917401811109C0B59B10C02D
:1040800080918600909187008A3F910548F4809145
:1040900055019091560101969093560180935501D8
:1040A0009F918F910F900FBE0F901F9018951F92A8
:1040B0000F920FB60F9211248F939F931092740159
:1040C000B09B10C080918600909187008A3F910537
:1040D00048F48091550190915601019690935601B4
:1040E000809355019F918F910F900FBE0F901F905D
:1040F00018950F9221E08C32920710F48CE291E037
:104100008C52914069E170E00E94193B99E16B3259
:1041100010F0982F6BE2981BE0EDF2E0E60FF11D36
:10412000E60FF11D9F93CF010E94FC3C482F319672
:10413000CF010E94FC3C582F3196CF010E94FC3CDD
:10414000282F3196CF010E94FC3C382F6F91421BE3
:10415000530B649FC001659F900D11240C9669E17B
:1041600070E00E94193B620F731FCB010F900895FE
:10417000B0E0A0E0EEEBF0E20C946F3C88E893E155
:104180009093230180932201909334018093330113
:104190008EEB80932F01C8E0C8B988E187B90E94EF
:1041A000DB0CC7B984E00E94170DAC018B5C984012
:1041B000833F9140A0F481E080933E012091330140
:1041C00030913401AFEBB9E00E94843B9A0150E09A
:1041D00040E00E94403B30932301209322018091D4
:1041E00022019091230190933401809333018EE05A
:1041F0000E941B0D8EE00E94170D90933801809352
:1042000037010E94E90D98DB88E0F82EF8B8C9E084
:10421000C7B985E185B9D1E0D4B980E00E94170D16
:104220008C019AE0D92ED7B824E0B22EB4B881E040
:104230000E94170D080F191F3CE0E32EE7B840E17C
:10424000C42EC4B882E00E94170D080F191F15B8BC
:10425000C8B9C7B9D4B980E00E94170D0E947F0D7C
:10426000EC01D8B8D7B8B4B881E00E94170D0E940D
:104270007F0DC80FD91FE8B8E7B8C4B882E00E9424
:10428000170D0E947F0DC80FD91FF7B8F8B814B8E2
:1042900080913301909134016C01CC0CDD1CC80E6F
:1042A000D91EC01AD10ACC1ADD0AF12CE12C9801D2
:1042B000A0E9BAE10E94843BA70196010E94403B1D
:1042C00049015A0130933D0120933C019E01A0E930
:1042D000BAE10E94843BA70196010E94403B3093C3
:1042E0003601209335012057354E3093200120931D
:1042F0001F0180E7881A85EE980A90921901809232
:10430000180189E180932F01CDB7DEB7ECE00C9462
:104310008B3CCF92DF92EF92FF920F93CF93DF937C
:10432000F82ED62FC42F0E94D50888E191E00E9474
:104330003109F6D16D2F8F2D0E944A33C090BA01FA
:10434000D090BB01E090BC01F090BD0180910201D2
:1043500087FD05C0C114D104E104F10421F084E11A
:1043600091E00E9431098D2F0E94D508C114D1041B
:10437000E104F10409F474C00E94D80880915A0144
:104380000E94ED09CC2309F467C080913F018F3072
:1043900030F48650990B8A5A9C4F0E94310980E074
:1043A0000E940509CD28CE28CF2809F45EC060916F
:1043B000BA017091BB018091BC019091BD0103E0F5
:1043C00028E447EF0E94750A87E291E00E943109D4
:1043D00083E693E00E94043D23E046E464EF0E94FC
:1043E000570B8091B2019091B301A091B401B091AB
:1043F000B501892B8A2B8B2B01F180E00E940509E6
:104400006091B2017091B3018091B4019091B501B6
:1044100004E028E440E00E94750A82E291E00E94F4
:10442000310923E040E26FEF8091B8019091B9012A
:104430000E94570B0E94E40807C080E00E94EA082F
:10444000809142018823B1F3DF91CF910F91FF90CA
:10445000EF90DF90CF90089580E00E940509A7CFEC
:10446000C11193CF80E00E94050980915A010E94FA
:10447000ED09809102018E3F0CF0B3CF8FE391E004
:104480000E94310960910B0170910C0180910D0126
:1044900090910E0103E028E4409102010E94750A08
:1044A000A0CFEF92FF920F931F93CF93DF93182F1C
:1044B0000E944807809187010E94D5088BE591E012
:1044C0000E94310913D5609187018091880166D3DC
:1044D000EC019093840180938301E0908501F0903A
:1044E0008601CA3F8FEFD80720F489E191E00E944E
:1044F0003109809188010E94D508112309F445C033
:1045000090913F018FE0891B0E94DB0889E790E0D2
:104510000E9431090E949B0760917B0170917C0190
:1045200080917D0190917E0104E026E440918A0112
:104530000E94750ACA3FDF4F68F48AE491E00E9446
:10454000310922E044E06EEF809183019091840173
:104550000E94570B0E94E4080E94A307E114F10493
:1045600069F083E491E00E94310922E045E26FEFB7
:1045700080918501909186010E94570B0E94E4086A
:10458000CDB7DEB7E6E00C94913C0E94E408C2CFC0
:104590008F7021F40E94AB070C94011308958F30A3
:1045A00021F490913901913011F08F5F089580E0EE
:1045B0000895CF9384E890E00E940C2EC0E00E9402
:1045C0008C0E60E082E00E94811A62E080E00E942E
:1045D000811A0E944807809173018823A9F041E065
:1045E00062E080E096DE8C2FD3DF88EE93E00E94BD
:1045F0008D0D811105C08C2FD2DFC82F8A3FF8F2B4
:104600000E944F07CF91089584E890E00E943109FD
:104610008AE593E00E9431090E949B078FE30E9484
:10462000840880E00E94EA080E94E408DCCF0F932F
:104630001F93CF93DF93C0E0D8E012EF0FE00E940A
:104640008C0E60E082E047DAD0931E0180918901F0
:10465000843FE1F48091770190917801A0917901F4
:10466000B0917A0184369105A105B10578F440E056
:1046700060E082E00E94D23060937701709378010D
:104680008093790190937A01109389018091890137
:10469000823F4CF180938A0180917701909178015B
:1046A000A0917901B0917A0180937B0190937C0174
:1046B000A0937D01B0937E0181E0F3DE8C2F68DF53
:1046C00088EE93E00E948D0D811106C08C2F67DF6C
:1046D000C82F8A3F08F4B3CF0E944F07DF91CF91D4
:1046E0001F910F9108950E9448078DE790E00E9466
:1046F000310980913F01902F981B892F0E94DB0880
:1047000089E790E00E9431090E949B078FE30E9495
:1047100084080E94E4080E94A3070E94E408CECF08
:10472000A6E1B0E0E6E9F3E20C94693C82E0809314
:10473000020180911E01813009F0F0C18091730166
:10474000813009F0EBC140905A0124E0429EF00113
:104750001124EA55FE4F80819181A281B381893075
:1047600032E59307A105B10508F0D8C11C01712CF1
:1047700081E0871508F4D6C1842D0E94E309982EA4
:10478000892EE82DF0E0E65AFD4F5490892D90E0F7
:10479000FC01E95AFD4FE49115B828E028B9372DFE
:1047A0003170632E20EF2216310408F0C0C13111A0
:1047B000BEC1009118011091190100591A4121E060
:1047C00030E0092C02C0220F331F0A94E2F7C9011E
:1047D0008860852987B934E1398B892D0E94130DB2
:1047E0005C01882D0E941B0D24E0A216B10410F478
:1047F000049728F039893150398B3111EECF80E49C
:1048000080937B0094E590BF892D806480937C0029
:1048100026E120937A00F12CE12C10928000109276
:1048200085001092840087E286BB0E94D60C872DFB
:1048300090E09A8B898B611083C181E8809381001D
:1048400058B886B385FD0CC080FFFBCF21E026BBA6
:10485000A89597012F5F3F4F79012035310589F7E2
:1048600038E038B91092810090E296BB2091860022
:104870003091870069014091840050918500241790
:10488000350738F480FF05C021E026BB3FEFE31A6F
:10489000F30A86E980937A00B4E15B2E892D0E94A9
:1048A000130D5C01882D0E941B0D24E0A216B1049B
:1048B00010F4049718F05A945110F0CF80903C01F6
:1048C00090903D01820C931C800E911E20911A0144
:1048D00030911B0100398AE1180708F03AC169E1FB
:1048E00091EEC916D104E104F10430F4C60165E08B
:1048F00070E00E94193B645128523109261B31098E
:1049000067FD339566E0862F90E0B0E0A0E08C155F
:104910009D05AE05BF0508F025C1C81AD90AEA0AE7
:10492000FB0A662029F082E2C80ED11CE11CF11CB2
:1049300090E5E916F10418F0C12CD12C76018BE03A
:10494000C816D104E104F10428F091E0C91AD10895
:10495000E108F108B12CA12CA8EEB3E00E94843B41
:104960006B8B7C8B8D8B9E8BA0913301B09134012E
:1049700098010E94843BA50194010E94403B44277A
:1049800055276B897C898D899E890E94403BC9018E
:104990000E94410EFC01A5019401C701B6010E94CD
:1049A000FE3A4B015C01BF0190E080E0E3E0660F5E
:1049B000771F881F991FEA95D1F76B5F7F4F8F4F45
:1049C0009F4F2AE030E040E050E00E94403BC501AC
:1049D000B4010E94403BE989FA89EE0FFF1FEE0FF8
:1049E000FF1F81E090E08C0F9D1FE80FF91F2083CF
:1049F000318342835383611018C09CE0C916D104EF
:104A0000E104F10490F07394E989FA893196EE0F8C
:104A1000FF1FEE0FFF1F81E090E08C0F9D1FE80F3E
:104A2000F91F2083318342835383A895739493E0C5
:104A3000971508F09DCE88E088B984E00E94E30CC9
:104A400091E00D811E812F81388549815A816B81CA
:104A50007C81401751076207730708F090E00D85CD
:104A60001E852F85388949855A856B857C8582E02E
:104A7000401751076207730708F483E024E0829F20
:104A8000D001112421E030E02C0F3D1FA20FB31FF5
:104A9000E92FF0E0EE0FFF1FEE0FFF1FE20FF31FF5
:104AA0000D911D912D913C914081518162817381C5
:104AB000041715072607370708F0892F34E0839F6E
:104AC000F001112421E030E02C0F3D1FE20FF31F15
:104AD000408151816281738140930B0150930C019D
:104AE00060930D0170930E0180FD40C030EF2316DE
:104AF0003104E0F58BEF8093020180910B019091DE
:104B00000C01A0910D01B0910E01892B8A2B8B2BEA
:104B100011F41092020188E087B914B86696E2E1B8
:104B20000C94853C842D0E94E3094C012ACEE4B903
:104B3000852D886087B900911801109119014BCE1D
:104B400058B80E94DF0C90E296BB81E88093810008
:104B500078CEC40160EB76E30E94193B695F285D63
:104B60003F4FD1CEC12CD12C7601DBCE8CEF809380
:104B70000201CB01BA016B5F7F4F8F4F9F4F2AE03D
:104B800030E040E050E00E94403B20930B01309326
:104B90000C0140930D0150930E01AFCFAEE1B0E098
:104BA000E4EDF5E20C94693C662EB82E860F8983FD
:104BB00020911E01283059F520917B0130917C0114
:104BC00040917D0150917E0157FD15C010918A01E1
:104BD00009C0CA01B9012AE0312D412D512D0E9491
:104BE000403B1F5F173FACF391F4243160E0360780
:104BF0004105510518F48FEF9FEF45C1173F39F478
:104C000080E028178DE738074105410510F020E0C6
:104C10003DE72C8B3D8B26EDA22EEAE5F2E0E60D7A
:104C2000F11D859188608E87EAE5F2E0EB0DF11DBC
:104C3000859188608F87E7E5F2E0E60DF11D7590BC
:104C4000E7E5F2E0EB0DF11DC59090EC692AB92A79
:104C500081E0E82EF12C012D112D8E831F82188604
:104C600019861A861B861C861D86188E198E1B8E29
:104C70001A8E0E949C1C88E088B960927C000E9479
:104C8000D70C3F8537B975B874B852E05A95F1F72B
:104C90000000000014B815B8DD243E8537B975B89A
:104CA00074B860927C00A895A0927A0080917A00F6
:104CB00086FDFCCF2090780030907900B0927C0087
:104CC0004C2DE5D02091780030917900288B398BDC
:104CD0003F8537B9C5B8C4B8A895B0927C00A092FA
:104CE0007A0080917A0086FDFCCF60917800709107
:104CF000790060927C00472DCAD040917800509195
:104D0000790014B8CB01820D931DE80EF91E011D28
:104D1000111DEA82FB820C831D8388899989840F87
:104D2000951F2E813F8168857985280F391F611D68
:104D3000711D2E833F836887798722E32417150628
:104D400050F075B874B80E94E10C14B815B8888D8D
:104D50008395888F07C0483E73E0570718F08A8D07
:104D600083958A8F888999892817190660F03E856E
:104D700037B9C5B8C4B80E94E10C14B815B8898D0C
:104D80008395898F07C0883E73E0970718F08B8D55
:104D900083958B8FD3945D2D5F3F49F05F3731F45E
:104DA0005C2D550FC50E572D550F750E76CF4090C3
:104DB0003C0150903D01440C551C9201E4E0240D4F
:104DC000351DEA95E1F72901570168016E807F8062
:104DD0008884998420911E012830C1F46C897D89D2
:104DE000812D912D65507040804090409B01AC0119
:104DF0000E94FE3A9B01AC0160E779E786E190E012
:104E00000E94403B621A730A840A950AA614B704EA
:104E1000C804D90428F46A187B088C089D0803C0CC
:104E2000662477244301B20180E090E09301A4015D
:104E30000E94FE3A9501A6010E94403B8BE293E05E
:104E40007981870F911D0E94FC3C682EC90160E1A9
:104E500070E00E94193B260F371FC901681619061A
:104E600018F4861991090FC08C5E9F4F8615910525
:104E700040F48C899D89843981E1980710F00E9463
:104E8000A712812D912D6E96E2E10C94853C109233
:104E900081001092800010926F0010928B0010928F
:104EA0008A0057E056BB5FEF509385005093840013
:104EB00055E050937B0056EB50937A0051E05093AD
:104EC000810058E25A95F1F7000045B944B955E020
:104ED0005A95F1F7000014B815B81092810080912E
:104EE0007A0084FFFCCF80937A000895B0E0A0E0C0
:104EF000ECE7F7E20C946B3C009185011091860180
:104F00000115110509F091C0E0918701F0E0E65A22
:104F1000FD4FD491D860E0918801F0E0E95AFD4F4F
:104F2000C4910E949C1C88E088B915B8D7B9C4B94F
:104F3000809188010E941B0D7C01D0918A018CE038
:104F40008D0F843008F071C080917B0190917C01BD
:104F5000A0917D01B0917E01D15F2AE0422E512CBB
:104F6000612C712CBC01CD016B5F7F4F8F4F9F4F28
:104F7000A30192010E94403B49015A01DA01C90193
:104F8000DF5FD73079F7893823E19207A105B105B2
:104F900008F04BC0059708F448C0C5B9C4B9D0E0C3
:104FA000C0E0C815D90508F445C014B815B8A895CF
:104FB00085E080932F01809188010E941B0DEC01F8
:104FC000CE19DF09E816F90610F0D0E0C0E0D12CC8
:104FD000C12CC814D90490F1809188010E941B0D46
:104FE00029E120932F01A895E816F90618F48C0101
:104FF0000E191F090C171D0788F49E01201B310B89
:1050000069F0A4EFB1E00E94843B9E0150E040E0D3
:105010000E94403B30938601209385010E949C1C96
:1050200088E087B988B914B815B8CDB7DEB7E0E124
:105030000C94873C0E94DD0C2296B3CF0E94DD0CBD
:105040008FEFC81AD80AC5CFA7E0B0E0EAE2F8E2CD
:105050000C94693C87EC91E0DFD560EF6B8354984A
:105060000E94D20C14BC16BC1092120110921301B3
:10507000109214011092150181E085BB80936E009F
:1050800010928000E3E1FAE7F0938B00E0938A004E
:1050900081E090E0909389008093880010928500D1
:1050A0001092840083B5816083BD96E096BB909397
:1050B0006F007894E4E0E0938100F2E3F9831A82D0
:1050C0000E94CB0CA8954F9902C061E06A8385B518
:1050D000882329F08981815089838111F1CF15BC02
:1050E00086B5809312010E94A3070E94E4080E94E3
:1050F000AB070E94E4080E94110986E60E9484081A
:105100000E941509609112017091130180911401A0
:105110009091150147E00E946C0B5498809181009A
:10512000882319F08FE30E94840810928100109266
:105130006F002091120130911301409114015091A0
:105140001501DA01C9010197A109B109813F904810
:10515000A105B10508F096C0AAE0B0E00E94993B15
:10516000685F7F4F8F4F9F4F23E096958795779588
:1051700067952A95D1F7660F771F70936E0160933C
:105180006D0154980E94D20C16BC1092120110921C
:1051900013011092140110921501F1E0F5BBF09388
:1051A0006E001092700110926F0164E06BBB8091F1
:1051B0006800846080936800789480916D008061BD
:1051C00080936D0019820E94CB0CA8954F9902C064
:1051D00081E08A8380916D0084FF05C099819F5F83
:1051E00099839A3F81F715BC80916D008F7E8093E3
:1051F0006D00809168008B7F8093680086B58093F6
:1052000012010E94A30784E50E9484080E941509E8
:10521000E0916D01F0916E01FD83EC8360911201CC
:1052200070911301809114019091150128EA31E6E3
:1052300040E050E00E94A93BEC81FD81612C712C83
:1052400043015F01C12CD12CE12CF12C00E010E0D6
:105250000E94FD3B49014F835E831B012C018C8121
:105260009D818038910500F107E023E745EFB40107
:105270008F81952F0E94750A99819A3F71F58FE36E
:105280000E94840810926E0080ED97E00E948D0DC0
:105290006A81860F29F48B8181508B838111DFCE47
:1052A0002796E2E10C94853C84E6A82EB12CC12C13
:1052B000D12CE12CF12C00E010E094014F815E81B3
:1052C000B101C2010E94FD3BF22FE42F07E023E76A
:1052D00047EF6F2F732F8E2FCCCF94014F815E81BC
:1052E000B101C201263E354B4105510561057105ED
:1052F0008105910539F230F20E94AB0786E60E94E3
:1053000084080E94150994014F815E81B101C20198
:1053100054012115FAEC3F07FAE94F07FBE35F0759
:105320006105710581059105F1F0E8F06A017101EF
:10533000820120E030E04AE85DE568E775E483E655
:1053400091E00E94FD3BF22FE42F07E028E44AEFB2
:105350006F2F732F8E2F952F0E94750A8AE70E9458
:10536000840854988FCFCF80DE807101820120E0C5
:1053700030E44AE750E163EF7AE580E090E00E9494
:10538000FD3BF22FE42F07E028E44DEFE1CF1F9221
:105390000F920FB60F9211248F939F93AF93BF93E9
:1053A00078948091120190911301A0911401B09111
:1053B00015019F5FAF4FBF4F809312019093130170
:1053C000A0931401B0931501BF91AF919F918F915C
:1053D0000F900FBE0F901F9018951F920F920FB64F
:1053E0000F9211248F9386E085BD8F910F900FBE91
:1053F0000F901F9018951F920F920FB60F921124C5
:10540000A8951092810015BC0F900FBE0F901F90B1
:1054100018951F920F920FB60F9211242F933F935E
:105420008F939F9380916F0190917001892B11F45C
:1054300081E085BD20916F013091700180916D01F7
:1054400090916E012817390730F015BC80916D00DE
:105450008F7E80936D0080916F0190917001019615
:105460009093700180936F019F918F913F912F9145
:105470000F900FBE0F901F9018958C3008F08C5035
:10548000811109C083E392E00E9431090E94E4087F
:105490000C9443070895813019F487EC91E0F4CF20
:1054A000823019F48AE092E0EFCF833019F48FEF65
:1054B00091E0EACF843019F48FE890E0E5CF8530B1
:1054C00019F484E890E0E0CF863019F48DE790E09D
:1054D000DBCF873019F48EEE91E0D6CF883019F407
:1054E0008FED91E0D1CF893019F48EEB91E0CCCFE4
:1054F0008A3019F481E292E0C7CF8B3039F686E129
:1055000092E0C2CF0F93CF938FE890E085D3C0E0B5
:1055100010921E0160E082E094D380911E018830D9
:1055200009F04CC00E949B0783E40E9484080E94FB
:10553000150960917B0170917C0180917D019091B2
:105540007E0103E026E440918A010E94750A0E94D0
:10555000E408609187018091880120DB90938401A9
:10556000809383010E94A3078BE491E00E9431099C
:1055700080918301909184018A3F2FEF9207D0F4AC
:1055800022E044E06EEF0E94570B0E94E4088C2F4B
:105590000E94C82288EE93E00E948D0D811107C001
:1055A0008C2F0E94CF22C82F8A3F08F4B1CFCF9111
:1055B0000F9108958FE30E948408E7CF0E9411099C
:1055C0000E94A307E2CF0895A5E0B0E0EAEEFAE278
:1055D0000C94693C8AE092E01FD380E180938000C4
:1055E00010926F0081E090E0909389008093880092
:1055F00010928B0010928A0083E086BB109282008A
:1056000088E08093810015B891E194B988B989E068
:1056100087B9229A80938100312C20E03AE03983C7
:1056200041E04C83812C912C5401839451E15D83A2
:10563000832D90E00A966EE170E00E942D3B6B8313
:10564000F62E621761F00E9448078AE092E00E94FD
:10565000310910E01F1508F4DCC00E94E4088C81B9
:1056600069810E940D3BA92FB0E0A50194010E9421
:10567000993B6B017C018D81823150F0652D762D37
:10568000872D902F0E94403BC60ED71EE81EF91EA4
:105690000E949B079C812981212C921306C081E0E6
:1056A0003D81323108F480E0282E2A828CE32110DB
:1056B00005C04D818EE3463108F082E50E948408E2
:1056C0000E94D8084D81C701B6010E946C0BC7012A
:1056D000B6017E5E85489F4FA7019601220F331FBA
:1056E000441F551F0E94403BCA014F3F510509F01E
:1056F00008F494C08DE08093810080E094E02C0158
:10570000712C612CCA01B901A30192010E94403B96
:1057100021503109309389002093880080918800BE
:1057200090918900892B31F481E090E09093890079
:10573000809388000E94E4080E94A30786E60E94E6
:1057400084080E94D808009188001091890060E0C8
:1057500079E08DE390E0A30192010E94403BA4E632
:10576000B0E00E94993B0F5F1F4F980150E040E06E
:105770000E94403B29013A01A4E6B0E0A70196014E
:105780000E94993BA3019201261B370B480B590B32
:10579000CA01B90105E228E44EEF0E94750A8AE7C2
:1057A0000E9484080E94E40880ED97E00E948D0D1D
:1057B000882309F46BC0883C08F07BC0813508F46D
:1057C0005FC0222009F44AC03D8131503D83C501AC
:1057D000B4012AE030E040E050E00E94403B490143
:1057E0005A01C701B6010E94403BCA01B9012AE033
:1057F00030E040E050E00E94403B6A834AE0498349
:105800002A812C83312C2B815C2C6D2C7E2C0F2D2E
:105810000FCF8EE20E9484081F5F1CCF40345105D9
:1058200030F08CE08093810080E091E068CF4830D8
:10583000510530F08BE08093810080E490E05FCFF1
:10584000892B31F08AE08093810088E090E057CF87
:1058500089E08093810081E090E051CF5D815631F5
:10586000A0F55F5F5D83563111F485E18983AAE07D
:10587000B0E0A50194010E94993B4B015C01C0CFAF
:105880008B3018F09C819F5F9C83312C2C81822F60
:1058900090E03981632F70E06F5F7F4F0E942D3B56
:1058A0008C83832D0E94CF22382E4FEE481708F0AC
:1058B000AACF109281001092800088E087B914B8B6
:1058C00022982596E2E10C94853C5AE0598381E0C8
:1058D0008A83812C912C5401839491E19D8390CFF4
:1058E000B0E0A0E0E6E7FCE20C946B3C8FEF91E0C7
:1058F00093D183E28093800010926F008FEF90E04D
:1059000090938B0080938A0083E086BB1092820084
:1059100015B881E184B988E088B989E087B9229A0D
:1059200021E030E03093890020938800809381004B
:10593000D0E080E0C2E310E094E6C92ED12CE12C47
:10594000F12C88248A9423E0922EA12CB12CC81724
:10595000A1F1C43608F0C4562C2F30E0AFEFB3E00D
:105960000E94843B6E5C7F4F8F4F9F4FA701960133
:105970000E94403B29013A0130938B0020938A001A
:105980000E949B07A8EEB3E0A30192010E94993BFD
:1059900061507E4F8F4F9F4FA50194010E94403B65
:1059A000C90125E045E26FEF0E94570B0E94E40811
:1059B000193218F08CE30E94E30C80E496E00E9418
:1059C0008D0D182F833880F40AE0833320F40C2FD8
:1059D000882319F001E00C0FD0E08D2F0E94CF2218
:1059E000D82F8C2FD03F68F088E087B910928100C3
:1059F0001092800014B82298CDB7DEB7E0E10C9485
:105A0000873CC02FA4CFCF93DF938EEB91E004D1DE
:105A10008AE293E00E94FC3CC82FD0E081E80E941B
:105A20003A078C2F0E943A070E949B0724E040E22D
:105A300060E08C2F90E00E94570B0E94E40880E405
:105A400096E00E948D0D811111C0CF778D2F0E949D
:105A5000CF22D82F803F10F36C2F8AE293E00E9470
:105A6000093DDF91CF910895C15805C08238A0F754
:105A70008932D0F3CF5FD0E0E8CF0F931F93CF935D
:105A8000DF938EEE91E0C8D08FE293E00E94FC3C61
:105A9000C82FD0E00E949B070C2F0C2E000C110B7E
:105AA000C7FF27C08DE20E94840823E045E26FEF24
:105AB00088279927801B910B0E94570B0E94E408AE
:105AC00080E496E00E948D0D81111EC0C135C4F0A6
:105AD000C5568D2F0E94CF22D82F803FD8F26C2F31
:105AE0008FE293E00E94093DDF91CF911F910F91CA
:105AF000089523E045E26FEFC801DECFC15009C031
:105B0000CC3E3CF7CB59E5CF823848F78932B0F329
:105B1000CF5FD0E0DBCF813019F480E095CA0895E3
:105B2000823011F451CD0895833011F4D9CE089507
:105B3000843011F4E7CC0895853019F40C94D922FF
:105B40000895863029F40E944F070C941723089576
:105B5000873011F492CF0895883021F481E10C94BC
:105B60000A0F0895893011F44ECF08958A3011F448
:105B7000A7C108958B3011F40C94AF0E0895FF92D5
:105B80000F931F93CF93DF938EE392E045D010E005
:105B9000C0E0D0E0FF24FA94FC0E01E00D0F60E0BD
:105BA000802F880F0E941207D13069F58EE30E9482
:105BB00084088C2F8D0F51F18F2D8D0F5EDCD02F2F
:105BC000033059F780E49FE10E948D0D811110E0B0
:105BD00090913901913009F410E08233C8F0CC2360
:105BE00041F08C2F98DF8EE392E016D01F5F1837BC
:105BF00031F480E0CDB7DEB7E5E00C94923CCC30D8
:105C000040F2CC50C6CF0E94D808D3CF8BE0D6CF7D
:105C1000882361F3CF5FEACFCF93DF93EC010E943B
:105C20004F07CE010E943109C4E682E00E94E30CD6
:105C30004F9902C0C150C9F70E949B07DF91CF91D5
:105C40000895B0E0A0E0E7E2FEE20C94723C182F69
:105C5000062F862F90E0FC01E65AFD4FE491FE2EC0
:105C60006894F3F8E12FF0E0E95AFD4FC491FC018C
:105C7000E95AFD4FD4911092840110928301109241
:105C80007701109278011092790110927A0187EFD2
:105C9000809389010E949C1C88E088B9F7B8D4B928
:105CA000D5B9812F0E941B0D7C01802F0E941B0DF6
:105CB000E81AF90A14B8109256011092550130E012
:105CC00020E05CE2C52EDD24D394DAE064E6B62E53
:105CD0008091550190915601843D904350F088E0A9
:105CE00087B988B914B815B8CDB7DEB7E9E00C9418
:105CF0008E3CC5B98091550190915601892B91F048
:105D0000F601E21BF30B6091550170915601D29F91
:105D1000C001D39F900D11240E94193BE617F7078D
:105D200008F0A5C0C4B90E94D60C14B880915501E2
:105D3000909156010196909356018093550115B8A4
:105D40000E94D80CA895812F0E941B0D9C012E1932
:105D50003F0980915501909156018B31964020F07A
:105D6000253231050CF4BBCF2D3281E038070CF41D
:105D7000AFCF8091550190915601019729F42531BB
:105D800085E038070CF0ABCF80915501909156011A
:105D9000880F991FB0E0A0E080937F01909380016D
:105DA000A0938101B0938201C90168E270E00E9472
:105DB0002D3BCB01820F931F0E94792020917F0100
:105DC000309180014091810150918201DC010E945B
:105DD000993B60937F017093800180938101909340
:105DE0008201609377017093780180937901909399
:105DF0007A010E942B1DC0907701D0907801E0902D
:105E00007901F0907A018FE293E00E94FC3CA8EEC9
:105E1000B3E0A81BB10987FDB395A70196010E94C5
:105E2000A33B20E137E240E050E00E94403B20935A
:105E30007701309378014093790150937A0188E09B
:105E400080931E0120937B0130937C0140937D0160
:105E500050937E018091890180938A01109286017E
:105E600010928501009387011093880138CF8091AB
:105E70005501909156010B97C8F0609155017091B2
:105E80005601B29EC001B39E900D11240E94193B91
:105E90006E177F0758F4C4B90E94CB0C14B88091D8
:105EA0005501909156018C599F4F45CFC4B90E941E
:105EB000D10C14B880915501909156010A963BCFB0
:105EC000CF92DF92FF920F931F93CF93DF930E94A5
:105ED0004F0785E091E00E9431090E949B0781EC09
:105EE00090E00E9431098DE293E00E94FC3C23E0A7
:105EF00040E26EEF90E00E94570B8EE293E00E942A
:105F0000FC3C23E040E26EEF90E00E94570B8CE2F5
:105F100093E00E94FC3C23E044E06EEF90E00E949E
:105F2000570B0E94A3078AEB90E00E94310923E0FF
:105F300044E06FEF80913501909136010E94570B3C
:105F40000E94AB0783EB90E00E94310923E044E01C
:105F50006FEF80913C0190913D010E94570B88E9C1
:105F60009AE30E948D0D0E944F078FEA90E00E94F5
:105F7000310981E593E00E94FC3C8251990B0E941B
:105F80008C0982E593E00E94FC3C8251990B0E94AF
:105F90008C098EE493E00E94FC3C23E046E464EF2D
:105FA0008251990B0E94570B0E949B0783E00E942D
:105FB000DB088DE493E00E94FC3C8251990B0E9427
:105FC0008C0980E593E00E94FC3C8251990B0E9471
:105FD0008C098CE493E00E94FC3C23E046E464EFEF
:105FE0008251990B0E94570B0E94A3078DE190E00C
:105FF0000E94310983E593E00E94043D0E947709E5
:106000000E94AB0786E190E00E94310985E593E0AC
:106010000E94FC3C082E000C990B0E94770960E05E
:1060200086E00E941207C0E0FC2EFF0CFC0ED0E0C0
:10603000FA94CD17B9F10F2D0D0F10E0000F111FBD
:10604000C801825C9C4F0E94043D6C01C801805DC8
:106050009C4F0E94043D8C018091A5018330B8F1D2
:1060600088E99AE30E948D0D0E944F0787EA90E02D
:106070000E9431098C2F0E94D5088AE30E9484086F
:106080008D2F0E94D50880E00E94EA0823E040E2BC
:106090006EEFC6010E94570B23E046E462EFC80191
:1060A0000E94570BDF5FD33021F6CF5FC33009F07A
:1060B000BBCF88E99AE30E948D0D0E94A60BDF9169
:1060C000CF911F910F91FF90DF90CF90089580E0C6
:1060D0000E94EA08CBCF08954F925F926F927F9211
:1060E0008F929F92AF92BF92CF92DF92EF92FF92E8
:1060F000AC016C01F12CE12C560199248824E52F88
:10610000FF279A01DA010E94843B2C016624772440
:10611000920165E0369527956A95E1F7E29FC00107
:10612000E39F900DF29F900D11249A0174E0369533
:1061300027957A95E1F7E20FF31FE40FF51F92011F
:106140003695279536952795B4E056944794BA9599
:10615000E1F72419350950E040E02E0F3F1F411DA3
:10616000511DBC01E3E076956795EA95E1F7861B42
:10617000970B280F391F411D511DC701B6010E9401
:10618000FE3A680D791D8A1D9B1DFF90EF90DF90F0
:10619000CF90BF90AF909F908F907F906F905F90C7
:1061A0004F900895A3E0B2E0E8EDF0E30C94693C71
:1061B000CF5FDD4F8883C150D240162FCE5FDD4FB9
:1061C0004883C250D2400E949C1CCF5FDD4F288183
:1061D000C150D240E22FF0E0E95AFD4FF4909F2CDD
:1061E000990CE12FF0E0E65AFD4FE491E860E7B941
:1061F00015B8F4B8822F806480937C000E94D70C7D
:10620000CE5FDD4F3881C250D2403170CD5FDD4F5F
:106210003883C350D240CE5FDD4F8881C250D24018
:106220008F2C80FF892CE0E2DE2E90E080E0CF2CE6
:10623000E82C092D282D44E7BE016F5F7F4F0E9497
:106240003400DA9480E490E0D110F1CF14B81E014C
:1062500097E4290E311C73E2472E512C612C712CCE
:10626000C12CD12C7601812C912C5401F10181910A
:1062700091911F01CD5FDD4FF881C350D240FF23C4
:1062800029F020E030E8281B390BC90125DF9C01EB
:1062900050E040E0820E931EA41EB51EC301B20161
:1062A0000E94FE3AC60ED71EE81EF91E3FEF431AA3
:1062B000530A630A730A84E748165104610471049F
:1062C000A9F6C501B40121E530E040E050E00E94AC
:1062D000403BABEBB7E10E94993BC61AD70AE80AEC
:1062E000F90AA701960164E05695479537952795D9
:1062F0006A95D1F760EE7DEC81EC9FE80E94403B0F
:1063000069017A01CE5FDD4F9881C250D24091FD84
:1063100020C0CF5FDD4F8881C150D240880FCF5F52
:10632000DD4FE881C150D2408E0F1150810F90E0B7
:10633000880F991FCD5FDD4FF881C350D240FF23F6
:1063400079F0805D9C4F0E94043DC81AD90AE1088B
:10635000F108C701B601CD5FDD4FE2E10C94853C49
:10636000825C9C4FF0CF4F925F926F927F928F92A0
:106370009F92AF92BF92FF920F931F93CF93DF93A1
:10638000C0E0FC2EFF0CFC0ED0E0FA94CD1709F40F
:106390003EC042E06D2F8C2F05DF2B0143E06D2FB7
:1063A0008C2F00DF4B010E944F0787EA90E00E948C
:1063B00031090E94D8088C2F0E94D5088AE30E94D8
:1063C00084088D2F0E94D5080E94D8080E949B0740
:1063D00024E040E26EEFC2010E94570B24E046E445
:1063E00062EFC4010E94570B0F2D0D0F10E0000F3C
:1063F000111FB201C801825C9C4F0E94173DB4017D
:10640000C801805D9C4F0E94173D0E94E408DF5F39
:10641000D33009F0BBCFCF5FC33009F0B2CF0E94B9
:10642000480785EB91E00E9431090E94E40888E268
:106430000E94E30CDF91CF911F910F91FF90BF90CD
:10644000AF909F908F907F906F905F904F90089546
:10645000A2E1B0E0EEE2F2E30C94693C2C017C8313
:106460006B83DD24D3942D2C312C33E0D39E90010B
:1064700011243E872D87F101EE0FFF1FEE0FFF1F46
:10648000FC87EB87812C30E4932E50E0712C612C3B
:1064900018861F82B12CA12C1A8219821E821D829D
:1064A00040E0C12CF0E0E0E030E020E061E070E0AE
:1064B0008FEF90E082199309988B8F870C2D10E055
:1064C0008F8598890817190774F1AB81BC81AB2BB4
:1064D00029F170E060E04230E8F09501ED81FE8145
:1064E0002E1B3F0BA8EEB3E00E94843BE981FA81AA
:1064F000AE1ABF0A950150E040E00E94403B88EE92
:1065000093E0821B930B0E94410EBC0188EB9AE73B
:106510000E94193BAB81BC816D937C93C401629650
:10652000E2E10C94853CD801A20DB31DAA0FBB1F5C
:10653000A40DB51D8D919C91E80FF91FD801AA0FEC
:10654000BB1FA40DB51D8D919C91280F391FCD1433
:1065500008F48AC0D801A219B309AA0FBB1FA40D61
:10656000B51D0D90BC91A02D2A1B3B0BE81BF90B10
:106570007901EE0EFF1EC9018E1B9F0B89879A873A
:10658000D701B695A795B695A795A80FB91FB7FDE2
:1065900076C0E217F30708F069C0513009F066C011
:1065A000D80156E0AA0FBB1F5A95E1F7BA8BA98B09
:1065B000DC01A61BB70BBD01A817B90770F0A6E058
:1065C000880F991FAA95E1F780960E94193B898947
:1065D0009A89861B970B9A8B898BAD85BE85EA16A7
:1065E000FB0608F472CF8B859C8508171907BCF150
:1065F0004423B1F069897A8966197709433050F0EC
:10660000D4019096C401969587958A0F9B1F861793
:106610009707D0F1D71650F4DD24D394D70E23CFAB
:10662000A989BA89B887AF83FE82ED82AE0CBF1C00
:106630004F5F4130F9F0842F8150990BBC01959543
:106640008795A989BA898A0F9B1FAF81B8858A1B54
:106650009B0BEFD74B0169887A88FA82E982453132
:1066600008F033CF50E002C069877A87C394698508
:106670007A8524CF69887A88FA82E982F3CF51E05B
:10668000E217F30798F78CCFEB81FC81EF2B09F031
:1066900024CF44CFA6E2B2E0E0E5F3E30C946D3CF6
:1066A000F82ED62E83E693E00E94043D3C01ED2DAA
:1066B000F0E0E95AFD4F1491EF2DF0E0E65AFD4F5E
:1066C000E4911092B2011092B3011092B4011092B1
:1066D000B5011092B9011092B8011092BA0110924E
:1066E000BB011092BC011092BD0180911E0181304E
:1066F00009F0D2C08091020118160CF4CDC088E0D8
:1067000088B9E860E7B90E94D70C2D2D206CD22EF5
:1067100020937C000E94D70CC12EE12C00E0212F99
:106720004FEFBE016F5F7F4F80E191E00E94340028
:106730003F2D306CF32E30937C00212F44E1BE01BD
:1067400061507E4F80E191E00E943400FE0131965D
:10675000BE0161507E4F5B01AE01475D5F4F81918D
:106760009191D5016D917D915D019F01225031097B
:106770008617970708F495C0861B970BD9018D9350
:106780009C93E417F50759F7D0927C0070E060E025
:10679000CE0101965DDE9F5F30E1A32EBB24B39452
:1067A000912C812C913178F040E1A42E44E0B42E5C
:1067B00052E0852E912C903430F090E1A92EBA2C25
:1067C00024E0822E912C88E0D82EA895C12EE12CB1
:1067D00000E0212F4FEFBE016F5F7F4FC5010E9488
:1067E00034008114910409F462C068EB71E0CE01B9
:1067F00001962EDE5C01813C9F4308F0B2C065012A
:10680000F12CE12C9501D5017FD723E330E040E066
:1068100050E036D7A8E6B2E08CD73FEF831A930A50
:1068200076946794930150E040E02AD7C401880F22
:10683000991F04C0220F331F441F551F8A95D2F79A
:106840002093BA013093BB014093BC015093BD012A
:1068500080910B0190910C01A0910D01B0910E015E
:106860000397A105B10540F01092BA011092BB0147
:106870001092BC011092BD01A114B10409F074C0C2
:106880001092B9011092B8011092BA011092BB0196
:106890001092BC011092BD01CA5DDD4FEEE00C9478
:1068A000893CD9011D921C926CCF5C018ECFC50131
:1068B0008064DA94D110F9CF81159440C8F08EEF3E
:1068C0008F3F09F492CFE82FF0E0EE0FFF1F21E099
:1068D00030E02C0F3D1FE20FF31F20813181A3E038
:1068E00036952795AA95E1F7318320838150E8CF2B
:1068F000F0927C00E894A6F808E0F02EC12EE12C7E
:1069000000E0212F44E1BE0161507E4FC5010E948D
:1069100034006894A6F8FA94F110F0CF24E12150E5
:1069200070F2822F90E0880F991FE1E0F0E0EC0F09
:10693000FD1FE80FF91F408151816FEF71E06C0F6F
:106940007D1F860F971FDC018D919C914817590779
:1069500028F0481B590B51834083E1CF11821082EC
:10696000DECFB12CA12C4BCF27E030E0281939091C
:1069700060E072E18AE790E004C0660F771F881F2D
:10698000991F2A95D2F7A70196017AD62093B201D2
:106990003093B3014093B4015093B501809102014B
:1069A00087FD7ACF8FEF8093020176CFCF93DF936D
:1069B000D82F0E94480786E090E00E9431090E948B
:1069C000E408C0E01092B7011092B60184E10E9481
:1069D000E30C62E080E00E946B1D0E949B0724E0B4
:1069E00046E464EF8091B6019091B7010E94570B85
:1069F0006091B6017091B701CB018C539F408539EE
:106A00009547A8F4CF5FC53098F083E693E00E94E5
:106A1000173D0E94D80885EB91E00E94310984E679
:106A20000E94E30C0E944807DF91CF910895C0E0D7
:106A30000E94E408DF5F31F6F5CFB0E0A0E0E2E2CB
:106A4000F5E347C780E48AB98BB9D6E8D0937A00DA
:106A50001092C1000E94C30CC4B7C87084B7877F6E
:106A600084BF0FB6F894A8958091600088618093E8
:106A70006000109260000FBED093640088E38093A2
:106A80007E001092B00087E08093B10078940E945D
:106A90006607C111A2C580E185BF4F9906C082E09B
:106AA0000E94E30CCF5FCC33C1F78FE59DE6909356
:106AB000170180931601CF3130F080E69DE6909368
:106AC000170180931601109230010E94B82088E1CE
:106AD0009FE00FB6F894A895809360000FBE909346
:106AE0006000CC3309F467C038E0632E48E1542ECF
:106AF0005DE5C52E51E0D52E60EF262E73E3472EBF
:106B0000E1E23E2E8FEA0E943A0784EA0E943A07A9
:106B10000E944F0767B80E948C0E0E94B8200E9406
:106B200048070E94011380913E01882381F00E9452
:106B30009B0780E591E00E94310963E08091330179
:106B4000909134010E94620B88EC0E94E30C0E9439
:106B50009B070E949C1C80911E01893089F50E9430
:106B60004F0785E591E00E9431090E949B0763E091
:106B700080910501909106010E94620B0E94D80845
:106B800063E080910701909108010E94620B0E94CE
:106B9000D80863E08091090190910A010E94620B7C
:106BA0008AEC0E94E30C81E10E940A0F8091160199
:106BB00090911701A1C10E94BF2D8111FCCF94CFEC
:106BC0008FE493E019D7C82F8CE493E015D7C81B46
:106BD000C0933B0180E00E940A0F0E94110987ECDC
:106BE00092E00E94310983E00E94AB0C0E944307AF
:106BF00042E061E080E00E94721342E060E081E0E8
:106C00000E94721341E062E080E00E94721341E052
:106C100060E082E00E94721340E062E081E00E9446
:106C2000721340E061E082E00E94721380911E01C5
:106C300081110EC00E949C1C60E082E00E946B1DCE
:106C400061E082E00E946B1D60E081E00E946B1DAC
:106C50000E944F0723E431E030934101209340012B
:106C600080911E01863009F585EC0E94440860E1A0
:106C700088EF0E94870B67E080E00E9412078EE990
:106C800092E00E94310967E082E00E94120789E6E3
:106C900091E00E94310962E08091470190914801A2
:106CA0000E94620B0E94430781CF873071F484EC0D
:106CB0000E94440860E188EF0E94870B67E080E053
:106CC0000E94120787EA92E0DCCF8830C1F48091FD
:106CD000870190918801890F9927991F029759F48C
:106CE0000E94172380913B01882309F461C4D4E0FA
:106CF00010E000E04AC480E00E94512257CF833068
:106D000009F007C180911C01813009F069C080E061
:106D10000E94490A60918D01809193010E94B912ED
:106D200080E70E94210A40E060918D0180919301EB
:106D300039DA6093770170937801809379019093A9
:106D40007A0180E00E9405096091770170917801D5
:106D50008091790190917A0102E026E442EF0E944D
:106D6000750A8DE20E94840841E060918D01809156
:106D7000930118DA60937701709378018093790119
:106D800090937A0126E442EF0E94750A8CE291E02A
:106D90000E9431090E9443070E94430780917301BA
:106DA000882309F403CF57B867B880E00E9405092B
:106DB00030917301332309F4ABC380915A01313010
:106DC00009F042C30E94E30920915A01213009F0E1
:106DD00036C320911C01211132C30E94D92282CFD7
:106DE000823071F582E30E9484088DE191E00E9477
:106DF000310990918D0130918E01931308C080E08C
:106E00000E94650A81E00E945C0A81E08ACF20919D
:106E1000930180919401281307C080E00E94550AD5
:106E200081E00E946C0AF1CF321306C081E08093AA
:106E300011010E94370AB0CF98133DC080E1F7CF0F
:106E40008330C9F5409211018091930190918E0198
:106E5000891303C021E02093110140918D013091ED
:106E60009401431303C020E12093110120918F016D
:106E7000821303C082E08093110180919501481331
:106E800003C040E24093110132130DC032E1309350
:106E90001101981751F083E30E9484088DE191E07D
:106EA0000E943109C6CF981302C03092110180911F
:106EB0001101823280F38DEA92E00E94310985E966
:106EC00092E00E9431090E949B0780911C01805D25
:106ED0000E9484088AE20E94840887E391E00E946D
:106EE00031098BE792E00E9431090E94430786E056
:106EF0000E94440880E49FE157B84F9BFECF0E9458
:106F00008D0D823308F411C30E94BF2D8111FCCF77
:106F1000F9CD843009F058C180916C01882309F4BF
:106F20005EC080915201882309F459C060914F01DD
:106F3000809151010E946B1D8090770190907801A3
:106F4000A0907901B0907A01C091890160916B01A4
:106F5000809169010E946B1D8091430190914401D1
:106F6000A0914501B091460140915D0150915E01B3
:106F700060915F0170916001843F21E09207A1055B
:106F8000B10538F4443F31E053076105710508F05D
:106F9000C0EF443F51406105710538F4843F914092
:106FA000A105B10510F020928901809189018C130F
:106FB00011C08091770190917801A0917901B091F1
:106FC0007A0188169906AA06BB0630F09CE09093D9
:106FD0001D0105C0C817D4F78DE080931D01809175
:106FE0006C01882361F080915201882341F04F9910
:106FF00006C080911D0191E0892780931D0167E003
:1070000080E00E94120780EC0E94440880911D01DC
:107010008C3009F0C2C085E891E00E94310980916E
:107020006C01882319F080E70E9484080E94670E93
:10703000C82F853090F4A0914001B0914101E82F14
:10704000F0E0E357FE4F1D969C91808160E098131D
:1070500062E088EA91E00E946B0860E189EF0E949B
:10706000870B87E00E94EA0884E991E00E943109D9
:10707000E0914001F09141016081718182819381B1
:1070800003E020E04EEF0E94750A88E00E94EA08C3
:1070900089E40E948408E0914001F09141018681D9
:1070A00097818031974208F48BC085E60E9484085E
:1070B000E0914001F0914101868197818051974292
:1070C000978386830E941509E0914001F091410168
:1070D00022E041E46AEF868197810E94570B87E0A6
:1070E0000E94EA088DE691E00E943109E09140019A
:1070F000F091410163E0848195810E94620B81E0FF
:1071000080934201E0914001F09141018085918599
:10711000892B91F086E00E9405098FEF90E00E9494
:107120003109E0914001F091410122E041E46AEF30
:10713000808591850E94570BE0914001F0914101BB
:1071400082859385892B91F086E00E94050989EF5D
:1071500090E00E943109E0914001F091410122E06C
:1071600041E46AEF828593850E94570BC53078F41D
:1071700080E00E9405098C2F0E94490A89E691E06F
:107180000E9431098C2F0E94130A0E94430743E496
:1071900062E485E40E94B60985CDD0924101C09297
:1071A00040018DED91E00E9481088DE791E00E9401
:1071B000310980915201882309F438CF8EE634CF0B
:1071C00083E60E9484087ECF853009F0F1CD67E028
:1071D00080E00E94120780911D01C82FC07184FFBA
:1071E00062C080E50E948408D0924101C0924001B3
:1071F000C2E08DE20E94840880911D01D82FDF70CB
:10720000D43009F054C08FE991E00E94310983EC39
:107210000E94440886EE91E0C11165C00E94670E8D
:10722000853090F4A0914001B0914101E82FF0E049
:10723000E357FE4F1D969C91808160E0981362E0B9
:1072400088EA91E00E946B0860E189EF0E94870B59
:1072500087E00E94EA0880911D0185FD60C085E6F7
:1072600091E00E943109E0914001F091410162E01A
:10727000828593850E94620BE0914001F09141016B
:10728000668584850E946B1D87E00E94EA080E9443
:107290004B0986E00E946309D43009F0CEC04FE369
:1072A00067E48FE377CF8EE40E948408A2CF85FF46
:1072B0001DC084E40E948408CF5FD330D9F489E9EB
:1072C00091E00E94310981EC0E94440883E392E03E
:1072D000C13049F08FE392E0C23029F08FE092E0B4
:1072E000C33009F09BCF0E94810898CF85E40E94AB
:1072F0008408E3CF84EA91E00E94310982EC0E9485
:1073000044088FEF91E0C13071F385E092E0C23024
:1073100051F3C33009F082CF8DEE91E0E4CFE091DC
:107320004001F09141018F70843009F454C06685AA
:1073300084850E946B1D0E944B0960E084E00E94DE
:10734000120789E40E94840884E60E9484080E944F
:107350001509E0914001F091410122E041E46AEF1A
:10736000868197810E94570B8FE591E00E94310939
:10737000E0914001F091410162E0828593850E9495
:10738000620BE0914001F091410180859185803C44
:107390009241F8F480E00E94050989E40E94840883
:1073A00084E60E9484080E94150922E041E46BEF04
:1073B00090E080E00E94570B8FE591E00E94310938
:1073C000E0914001F091410162E0808591850E9449
:1073D000620B80E05FCF84819581892B09F4ADCF6A
:1073E00080E090E00E943109E0914001F09141017C
:1073F00022E041E46AEF848195810E94570B9DCF82
:1074000080E00E9405098C2F0E94490A89E691E0DC
:107410000E9431098C2F0E94130A0E944307CF5FFC
:1074200080911C01C81760F344E467E483E5D3301E
:1074300009F0B0CE43E467E4ACCEC0E0F1CF40E069
:10744000692F0E948921B2CB90915B0124E0929F29
:10745000D0011124AA55BE4F24E0829FF0011124CF
:10746000EA55FE4FED90FD900D911C9140815181A8
:1074700062817381282F4E155F056007710708F43C
:10748000292F890FC3E0C81B3230E1F0C0915C01A5
:1074900034E0C39FD0011124AA55BE4F84E0289F39
:1074A000F0011124EA55FE4F4D915D916D917C9153
:1074B00080819181A281B38184179507A607B707C0
:1074C00008F0C22F1C2F1695D2E0DC1B02E0C11180
:1074D00001C001E0812F0E94D50888E191E00E945F
:1074E00031098D2F0E94D50888E191E00E94310971
:1074F000802F0E94D50880E00E94EA0881E0C11137
:1075000080E00E94ED0982E0811B0E94ED094ECBD4
:1075100085E892E00E9431090E949B0782EB92E08D
:107520000E9431098DEA92E0DECC8111EBCADACB00
:10753000F501E80FF91FC491C03209F4782E0196C5
:1075400083319105A9F7DD2349F19D2F9370F92E21
:1075500011F40E944F0760E08F2D880F0E941207E0
:107560000E944307A895DF5FD370F12CE12CE7144C
:1075700010F1CC23C9F0070D111DF801E35AFD4F9E
:10758000E491E03211F40F5F1F4F90E080E022E1C0
:10759000722E9801235A3D4F5901CACF80E197E2DC
:1075A0000E948D0D882389F280E197E20E948D0D63
:1075B0000E94AF0EA7CAF501EE0DFF1DC491CC23AA
:1075C00099F3CF3F31F40E94D8082FEFE21AF20A64
:1075D000CECF8C2F0E948408F8CF0E94480782E704
:1075E00092E00E9431098BEC0E94E30C0E94AF0EE6
:1075F00090E080E0CDB7DEB7E2E187C1DB018F9399
:107600009F9397D0BF91AF91A29F800D911DA39F93
:10761000900DB29F900D11240895991B79E004C03C
:10762000991F961708F0961B881F7A95C9F78095C1
:107630000895AA1BBB1B51E107C0AA1FBB1FA617B9
:10764000B70710F0A61BB70B881F991F5A95A9F70B
:1076500080959095BC01CD01089597FB072E16F4F7
:10766000009406D077FD08D0E4DF07FC05D03EF497
:10767000909581959F4F0895709561957F4F0895DE
:10768000A1E21A2EAA1BBB1BFD010DC0AA1FBB1F26
:10769000EE1FFF1FA217B307E407F50720F0A21B98
:1076A000B30BE40BF50B661F771F881F991F1A9405
:1076B00069F760957095809590959B01AC01BD012F
:1076C000CF010895052E97FB16F400940FD057FDB7
:1076D00005D0D6DF07FC02D046F408C0509540958F
:1076E000309521953F4F4F4F5F4F0895909580956E
:1076F000709561957F4F8F4F9F4F0895EE0FFF1F3D
:107700000590F491E02D0994A29FB001B39FC001B0
:10771000A39F700D811D1124911DB29F700D811DBD
:107720001124911D0895F0DFB7FF0895821B930B7C
:107730000895EADFA59F900DB49F900DA49F800D42
:10774000911D11240895B7FFF4CFF3DF821B930B33
:107750000895E894DF93CF93FC01DB01D5DF7F939D
:107760006F93E9019A01AC01BF93AF933F932F93BD
:10777000DF01CADF26F46C1B7D0B820B930B9E018D
:10778000EB01FC01DDD0AF91BF912F913F91D8D09B
:10779000BE01CF01F9012F913F91CF91DF91089563
:1077A000689401C0E894F92FF12B0AF027C0A0E0FB
:1077B000B0E0ECEDFBE393C0092E05941AF479D008
:1077C000112392F4F0E80F26FFEFE094F094009577
:1077D0001095B094C094D094A194BF0ACF0ADF0A48
:1077E000EF0AFF0A0F0B1F0B13D007FC62D0CDB7B7
:1077F000DEB7ECE090C0689401C0E8948F929F924D
:10780000CF93DF9305D0DF91CF919F908F90089514
:1078100088249924F401E401B0E49F93AA279A15DF
:107820008B049C04ED05FE05CF05D007A10798F455
:10783000AD2FDC2FCF2FFE2FE92D982C892E982FDE
:10784000872F762F652F542F432F322F2227B850A2
:1078500031F7BF9127C01B2EBF91BB27220F331FCB
:10786000441F551F661F771F881F991F881C991C6E
:10787000EE1FFF1FCC1FDD1FAA1FBB1F8A149B0416
:10788000EC05FD05CE05DF05A007B10748F08A1815
:107890009B08EC09FD09CE09DF09A00BB10B2160A3
:1078A0001A94E1F62EF49401AF01BE01CD01000C53
:1078B0000895609570958095909530954095509578
:1078C00021953F4F4F4F5F4F6F4F7F4F8F4F9F4FD0
:1078D00008952F923F924F925F926F927F928F9274
:1078E0009F92AF92BF92CF92DF92EF92FF920F934F
:1078F0001F93CF93DF93CDB7DEB7CA1BDB0B0FB659
:10790000F894DEBF0FBECDBF09942A883988488815
:107910005F846E847D848C849B84AA84B984C884AB
:10792000DF80EE80FD800C811B81AA81B981CE0FA2
:10793000D11D0FB6F894DEBF0FBECDBFED01089587
:10794000E3DE460F571FC81FD91F08F4319608956C
:10795000BB27FA01A62F6217710581059105330B2C
:1079600030FB66F0AA27660F771F881F991FAA1F92
:10797000A21710F0A21B63953850A9F7A05DAA3397
:1079800008F0A95DA19336F7B111B1931082CA0135
:1079900023C04532510518F4423008F004C0FB0101
:1079A0001082CB010895BB27FB015527AA27880F1A
:1079B000991FAA1FA41710F0A41B83955051B9F763
:1079C000A05DAA3308F0A95DA193009779F7B111E2
:1079D000B1931192CB0100C0DC01FC01672F7191C2
:1079E0007723E1F7329704C07C916D9370836291A5
:1079F000AE17BF07C8F30895F999FECF92BD81BDB8
:107A0000F89A992780B50895A8E1B0E042E050E0E7
:107A100013C0262FF999FECF1FBA92BD81BD20BD9C
:107A20000FB6F894FA9AF99A0FBE01960895F1DF0D
:107A3000272FF0CFDC01CB01FC01F999FECF06C066
:107A4000F2BDE1BDF89A319600B40D92415050401C
:087A5000B8F70895F894FFCF88
:00000001FF
