:100000002EC400003EC400003CC400003AC40000FE
:1000100038C400000C942A2734C400000C942A0C25
:1000200030C400002EC400000C94151E0C940E2742
:100030000C941C270C94EF1D24C4000022C4000063
:100040000C94E8261EC400001CC400001AC4000062
:1000500018C400000C942B0C14C4000012C400003F
:1000600010C400000EC40000AE00A700A0001008DD
:10007000407E01013E01013E01013E01017E404002
:1000800018000720080808F80000002060A03FA022
:100090006020020202FF0202021010101F00000086
:1000A000050842818989760508C2A19189860508DB
:1000B000000402FF0010100508F87838588809106D
:1000C00003081C3E7F0D080710FF818181F1E1C10B
:1000D000FF4040404743410D080110FFFF11080356
:1000E00010F1E1C14743410E000820212112206098
:1000F000E0E0E0FEFE0402010001037F7F21C2C4B4
:10010000C4C04094840007030102040E080210FEDC
:10011000FE7F7F00000000110005202060E0E0E08D
:100120000201000103C2C4C4C0400703010204016C
:100130000410090A0C4E6F742063616C696272616D
:100140007465642120466F72FF63616C696272613D
:1001500074696F6E20636C616D7020746865203304
:10016000FF70696E7320746F6765746865722061D3
:100170006E64207374617274207769746820746887
:1001800065FF6B65792E2041636B6E6F776C6564DC
:100190006765207468652073656C662D746573747B
:1001A000207769746820746865206B6579207769A9
:1001B0007468696EFF32732E20446973636F6E6ECC
:1001C0006563742070696E73206166746572207453
:1001D0006865FF6D657373616765202269736F6C75
:1001E000617465FF50726F6265212220697320730C
:1001F000686F776E2E20536F667477617265206129
:100200006E6420646F63756D656E746174696F6E82
:100210002069732061742073766E3A2F2F206D69E8
:100220006B726F636F6E74726F6C6C65722E206E82
:1002300065742F7472616E736973746F7220746564
:10024000737465722000B903870358032E030703F4
:10025000E402C302A40288020000140029003E0048
:100260005300690080009700AE00C600DF00F80070
:1002700012012D01490165018201A001BE01DE01CB
:10028000FF012102440268028E02B502DE02090368
:10029000350364039403C803FE0337047304B404F2
:1002A000F90443059305EA054906B3062907AE0795
:1002B0004808FF08DE09FD0A930C480F991B00004F
:1002C00000000000000000000000000000001E21EF
:1002D00021211200807F0000007E4A4A4A3400003B
:1002E00000000000FC402010080402010000000192
:1002F0000101010101010101010101017F0488D017
:10030000E0F0F80000000000000000000000000025
:100310000000000000FC94948400000102FC000036
:10032000000000000000000000001E21212112E05A
:10033000C0804020100F000000C02020204000009E
:1003400000FC00009E9E0403030303020000002043
:100350002023242525232020203F00007B7B2142D1
:10036000840480C0000000000000000000000000C5
:100370000000FC94948400040607070708F00000BE
:100380000000000000000000000000803F2121125A
:100390000C00000000FF000000F0084848C8000002
:1003A000FE0000E7818181C1E1F1818181010020AE
:1003B00020202121212020203F0000F34040404107
:1003C000434740407FC000000000000000000000E4
:1003D00000000000489494946400000000FF0000B6
:1003E00000000000000000000000000000003F21AD
:1003F00021120C0000FF000000F0084848D0000067
:1004000000000000FEFE04040404040404070008C5
:10041000080809090908087F3E1C08087F7F20207A
:100420002020202020E0000000000000000000004C
:1004300000000000000048949494640000FF000055
:10044000000000000000000000FF003C0A090A3C18
:10045000002231292926000082868E9EBEFEFEBE25
:10046000DEEFF6FAFEFEFAF2E2C2820000000808B1
:100470000804027984A4A46800FF000000000000C2
:10048000000000000000000000000000000000006C
:1004900000FF0000F0282428F0001008FC000000F5
:1004A0000000000000000000003C0A090A3C00FFB8
:1004B000000000000000000000000000000000003C
:1004C0000000040C1C3C7CFF7C3C1C0C0400000065
:1004D0000000009EA1A9A99A804323130B0703FFE4
:1004E00003030303030300000000000000000000FA
:1004F00000788484844800FF0000000000000000B1
:1005000000F00804E211090909090909090909119A
:1005100021C2040810E000000001020404070000EA
:1005200000000080402010884423100804030000CD
:10053000000000000000000000FE0100FC020100BD
:1005400000000000000000000000000000000000AB
:100550000079494979000000000000000000083ED1
:1005600022223E08087F2214087F7F0814227F0879
:100570007F7F00007F7F00586404645800807C20E7
:10058000201C22222222223E3E222222222208084F
:10059000080808083840403040403040403040387B
:1005A000007E1515150A00062979290600000000AD
:1005B000000000607E0A353F002A1C361C2A00E03D
:1005C000514F41FF007F404040FF007F407F40FF90
:1005D00000E0544C44FC0018247E2418007C404069
:1005E00040FC007C407C40FC0014B6FFB6140004C4
:1005F000067F06040010307F30100008083E1C08FB
:1006000000081C3E080800784040404000083E08B2
:100610003E0800303C3F3C3000030F3F0F0300001A
:10062000000000000000005F000000000300030065
:1006300000147F147F1400242A7F2A120023130839
:100640006462003649552250000005030000000096
:100650001C224100000041221C000014083E081426
:100660000008083E08080000A0600000080808080C
:100670000800000060600000002010080402003E36
:100680005149453E0000427F4000004261514946C9
:10069000002141454B31001814127F1000274545B9
:1006A0004539003C4A4949300001710905030036CB
:1006B0004949493600064949291E000036360000DE
:1006C00000005636000000081422410000141414E3
:1006D00014140000412214080002015109060032DE
:1006E0004979413E007E1111117E007F494949360A
:1006F000003E41414122007F4141221C007F494987
:100700004941007F09090901003E4149497A007FBA
:100710000808087F0000417F4100002040413F0160
:10072000007F08142241007F40404040007F020CBF
:10073000027F007F0408107F003E4141413E007F60
:1007400009090906003E4151215E007F0919294629
:100750000046494949310001017F0101003F404005
:10076000403F001F2040201F003F4038403F0063B3
:1007700014081463000708700807006151494543D5
:1007800000007F4141000018247E241000004141F8
:100790007F0000040201020400808080808000004D
:1007A00001020000002054545438007F484444386B
:1007B00000384444442000384444487F00385454AE
:1007C000541800087E09010200085454543C007F6C
:1007D000080404780000447D4000002040443D00AF
:1007E000007F102844000000417F4000007C041876
:1007F0000478007C08040478003844444438007CC1
:100800001414140800081414147C007C0804040850
:1008100000485454542000043F444020003C4040D1
:10082000207C001C2040201C003C4030403C004408
:1008300028102844000C5050503C004464544C4450
:100840000000083641000000003F00000000413673
:1008500008000008082A1C08003C2623263C112416
:100860001FBECFEFD8E0DEBFCDBF21E0A0E0B1E0FA
:1008700001C01D92AA3BB207E1F70E94A12D0C9482
:100880009735BECB5D98559A80FD599A80FF59984F
:10089000519A539A5A9867FD5B9A67FF5B985A9AE8
:1008A0005A9866FD5B9A66FF5B985A9A5A9865FD5E
:1008B0005B9A65FF5B985A9A5A9864FD5B9A64FF4D
:1008C0005B985A9A5A9863FD5B9A63FF5B985A9AB1
:1008D0005A9862FD5B9A62FF5B985A9A5A9861FD3A
:1008E0005B9A61FF5B985A9A5A9860FD5B9A60FF29
:1008F0005B985A9A5D9A5A985B980895609346015E
:10090000809304018093AD01862F880F680F660FD6
:1009100060930F01089580914601809301018091B9
:10092000AD0180930301089560910101809103015D
:10093000E5CF0895CF93C82F692F81E0A3DF6C2FF7
:1009400081E0A0DFCF910895682F80E09BCF0895CC
:100950008DE048D58AE046C508951092AD0160E06B
:1009600080E0CCDFF5CF0895CF93DF93C0E080E83F
:10097000EBDF8C2F8064E8DFD6E660E081E082DF89
:10098000D150D9F7CF5FC83091F7E7DFDF91CF9132
:10099000089558985A985B985D98509A529A539A2D
:1009A000559A51D55D9A559A5998519A84E152D5E4
:1009B000589A84E14FD584E14DD581E2C5DF8BE0C3
:1009C000C3DF84E1C1DF85E0BFDF81E093E00E9407
:1009D00069358068B9DF80E2B7DFC6DF8DE0B4DF5C
:1009E0008AE038C5089581E08093AD0160E086DF3C
:1009F000AFCF089582E08093AD0160E07FDFA8CFA4
:100A0000089583E08093AD0160E078DFA1CF089581
:100A10000895582F28E030E090E841E080E0652F0D
:100A2000642309F0892B440F969521503109B9F7B9
:100A30000895B0E0A0E0EFE1F5E00C94D9346C014A
:100A400010E0C801860F911D87369105C4F5E42F8B
:100A5000EE0DFF27FF1FCF01E134F10584F5D42F00
:100A6000D695D695D695019733E0959587953A9585
:100A7000E1F7F22FF2705F2E21FF0DC0482F4D1BC2
:100A8000550BFA01E09FA001E19F500DF09F500D22
:100A90001124C40ED51EC82F883008F0C7E0662E7A
:100AA000689467F82170722E780151E0E51AF10818
:100AB000CD1750F4809104018F70806445DFCDB76D
:100AC000DEB7EFE00C94F5348D2F80643DDF862D8A
:100AD0003BDF912C812C5601AE0CBF1C081519056B
:100AE00031F45520B9F0C01AD10ADF5FE1CFF5012A
:100AF000E819F909711003C0F601E80DF91D849198
:100B0000511001C086DF682F81E0BCDE8FEF881AAC
:100B1000980AE4CFC00ED11EE8CFEF920F93482F72
:100B20008F7320E6829FC001112482549D4F28E0DC
:100B300046FF2BE3209310011092000147FD08C0EF
:100B40002091100130E2309300012A5F20931001C0
:100B500020E2E22E08E120E04091000160911001C6
:100B600068DF0F91EF900895EF920F93262FFC010D
:100B7000349131964491319604913196E490E0910C
:100B800000014E0F60911001630F049652DF0F9128
:100B9000EF90089560E0E8CF0895EF920F93CF9320
:100BA000C82F809146018F5F8093460140910401D8
:100BB000440F440F440F26E0C29FC001112428E0D7
:100BC000E22E06E020E060910F01825A9A4F31DF59
:100BD00080910F018A5F80930F01EFEFEC0F8C2F54
:100BE000EA30B0F4F0E0E950FA4F0C94EB33010630
:100BF00005060E06160614061006100612061C063A
:100C00001C068EE3EFD38CE703C08CE7EBD38CE3B9
:100C1000E9D3A895CF910F91EF9008958CE7F2CF8B
:100C200082E5F6CF8DE2F4CF85E7F2CF8FE4DAD319
:100C300088E6D8D38DE6ECCF8CE4EACF8F5CADCFDD
:100C4000089580E2AACF0895CF93C82F1C1614F000
:100C5000CF910895F6DFC150F9CF9091460181E11F
:100C6000891BF2CF0895CF93C82FF7DF8091AD0194
:100C70008F5F8093AD01883068F087E08093AD018D
:100C800081E0809349016C2F8091AD0137DE60DEF9
:100C9000CF91089510924901F6CFE5DF36D58091C6
:100CA000AD01833008F054CE089557DED6DF55CE1F
:100CB000089599DED2DF97CE08958DE36ECF089523
:100CC000CF93DF93EC018991811103C0DF91CF9124
:100CD000089563DFF8CFCF93DF93EC01FE01849199
:100CE000982F9F7719F059DF2196F8CFDF91CF9198
:100CF0000895CF93DF93EC01CE010E946935982FC0
:100D00009F7719F04ADF2196F7CFDF91CF910895B1
:100D1000EF920F93FC0104913196E490029689DEE4
:100D20000F91EF9008950F9387E691E0E2DF4091F5
:100D300091014D3F6CF460917F0170918001809131
:100D400081019091820103E026E417D10F9108956B
:100D50008FE323DFFBCF909124019F70923071F4D9
:100D60009CDF84E690E0C5DFE0914701F091480107
:100D700022E044E06FEF84819581E1C1089597FFFF
:100D800009C08F939F938DE208DF9F918F9190957B
:100D900081959F4F6CE271E04AE050E00E94363549
:100DA0008FCF0895ECDF01C0EADF4BCF0895EF92BB
:100DB000FF920F931F93182F062FF42E89E491E0D2
:100DC00098DFEE24E0914701F09148018685E8160E
:100DD00011F4812F09C08485E81611F4802F04C016
:100DE0008585E81611F48F2DD8DEE3948E2D83309F
:100DF00049F71F910F91FF90EF900895EF92FF92A6
:100E00000F931F93182F062FF42E80E046DF8FE4F8
:100E100091E06FDFEE248E2D11DF4FDFE09147016F
:100E2000F09148018685E81611F4812F09C0848568
:100E3000E81611F4802F04C08585E81611F48F2D73
:100E4000ACDEFFDEE3948E2D833029F71F910F91E6
:100E5000FF90EF900895682F80E092E0662309F4F8
:100E600091E0623009F481E008950F93082FEEEAD3
:100E7000F1E0880F880FE80FF11D60817181828198
:100E80009381643671058105910570F4209102010A
:100E900027FD0AC0802FDFDF692F0E94EB226EEF53
:100EA00023E044E04CD104C04FEF04E024E065D0DF
:100EB000C8DE0F910895863058F4E1EAF1E0E80FBA
:100EC000F11DE80FF11D8081918163E043D1B9CE1E
:100ED00008951F93182F80917A01882319F0B1DEAD
:100EE00080E05BDE80DD80E491E003DF812F82958E
:100EF0008F70E1DF812F8F70DEDF1F910895809169
:100F0000110182958F7019D08091110183701CD0CE
:100F100080911101DECF0895E5E9F1E0E80FF11DC0
:100F20000895CF93F9DF9081C681C91710F405D0D9
:100F300001C013D086DECF910895EEDF8F938081BC
:100F40007DDE8F9101C008958F938EE091E0D1DE18
:100F50008F91E2DF868172CE0895DEDF8F938681E6
:100F60006DDE8F9101C008958F938AE091E0C1DE1C
:100F70008F91D2DF808162CE0895AEE0B0E0E3ECE5
:100F8000F7E00C94D634142F622E702E6B017C0186
:100F90000F7080E389838A838B838C838D838E8318
:100FA000F7FE40C08DE2F9DDF094E094D094C09457
:100FB000C11CD11CE11CF11C68EE862E63E0962E4C
:100FC000A12CB12C033041F150E1852E57E2952E32
:100FD000A12CB12C043001F140EA842E46E8942E75
:100FE000AA24A394B12C0530B9F030E4832E32E466
:100FF000932E3FE0A32EB12C063071F074E6872EBD
:10100000912CA12CB12C073039F420E8822E26E94E
:10101000922E28E9A22EB12C9AE0292E312C412CB7
:10102000512C12C075FEC8CF8BE2B7DDC5CFC7010A
:10103000B6016B5F7F4F8F4F9F4FA20191010E94BE
:10104000AD3369017A011F5FC814D904EA04FB04B7
:1010500070F781E1810F9BEA899F812D1124A82ED1
:10106000A69486E0811B899F112D11241695912F3E
:10107000990F190F811B182F4E0187E0880E911CC4
:101080002AE0A401C701B6010E941535F4010190C0
:101090000020E9F731977F01E818F9089E2C6701D5
:1010A000DD24812F90E004968C159D0514F4A39403
:1010B0001D5F8A2D90E0845E9F4F0E946935A82EA7
:1010C00074FE29C0901638F50E198E2C811A800EE8
:1010D000181424F08EE261DD012F0E19111102C0E7
:1010E00088EF882E912C10E0C00ED11EE82C082C21
:1010F000000CFF08E92DF0E0EC15FD0574F0AA20C6
:1011000011F08A2D4ADD662011F0862D46DD2E96DF
:10111000E2E10C94F23400E0D8CF3696E01BF10BFC
:1011200081E090E08C0F9D1FE80FF91F808135DD75
:1011300093949E141F04F1F68EE22FDDDBCF0F9304
:10114000362FBC0190E080E0022F242F432F15DFC3
:101150000F9108950F93062FBC0190E080E026E5E3
:101160004DEF0BDF0F9108950F93042F28E440E01B
:1011700004DF8AE712DD65DD0F910895E82FF0E0C6
:10118000EE0FFF1FE859FF4F8591949120910001C8
:10119000420F20911001620F20E0BACD0895CF9345
:1011A000DF93C82FD62FE0914701F091480148E125
:1011B0006EE18685E3DFE0914701F09148014D2F14
:1011C0006C2F8485DBDFE0914701F091480140E01E
:1011D0006EE18585D3DFDF91CF9108951F93CF9383
:1011E000DF93C2DB80EC99DC62E080E890E0BCDC5D
:1011F00080E893DC85EB90E0CDDC60E085E07EDB91
:101200008CE591E076DD68E085E078DB84E591E0CF
:1012100070DD88E99AE312D2A7DB83E47EDC83E009
:101220007CDC8EEB90E0B6DC61E082E067DB8EE494
:10123000B4DC8DE2B2DC86E791E05BDD69E082E060
:101240005DDB80E5AADC8DE2A8DC86E791E051DD7C
:1012500088E99AE3F3D188DB81EC5FDC81E85DDC2F
:1012600087E191E097DC60E085E048DB8EE495DC87
:101270008DE293DC85E491DC80E791E03ADD68E083
:1012800086E03CDB80E589DC8DE287DC85E485DC7B
:1012900080E791E02EDD88E99AE3D0D165DB81E437
:1012A0003CDC8BE091E076DC81E037DC87EE90E09F
:1012B00071DC60E081E022DB8EE46FDC8DE26DDCCE
:1012C00084E46BDC80E791E014DD68E082E016DB0B
:1012D00080E563DC8DE261DC84E45FDC80E791E043
:1012E00008DD88E99AE3AAD13FDB82EC16DC82E8CC
:1012F00014DC8DED90E04EDC60E085E0FFDA8EE4FA
:101300004CDC8DE24ADC85E448DC8BE791E0F1DCE3
:1013100068E086E0F3DA80E540DC8DE23EDC85E4DF
:101320003CDC8BE791E0E5DC88E99AE387D11CDBC4
:1013300082E4F3DB87ED90E02DDC82E0EEDB85ECF0
:1013400090E028DC61E081E0D9DA8EE426DC8DE2F1
:1013500024DC84E422DC8BE791E0CBDC69E082E0F2
:10136000CDDA80E51ADC8DE218DC84E416DC8BE74C
:1013700091E0BFDC88E99AE361D1F6DAEEDA80E049
:1013800091E0B7DC30DB8BEF90E0B3DC33DB82E362
:1013900091E0AFDC36DB8EE091E0ABDC52DC8AE042
:1013A00091E0A7DCC0E011E18C2F612F0E947A331D
:1013B000D82F911109C0811104C088E99AE33ED168
:1013C000D3DA60E08D2F9ADA80E28C0FE6DBCF5F14
:1013D000CF3551F788E99AE331D1C6DADF91CF9161
:1013E0001F9108958F932F932AE080953B9A08943C
:1013F00010F4439802C0439A000020D027D086956D
:101400002A95B1F72F918F91089503D002D001D082
:1014100000D000D003D002D001D000D000D003D043
:1014200002D001D000D000D0A89503D002D001D0C6
:1014300000D000D003D002D001D000D000D003D023
:1014400002D001D000D000D003D002D001D000D013
:101450000000089590E0893C28F0885C48EC849F67
:10146000C0011124009709F408952091810027708C
:1014700019F0DADF0197F6CF8130910519F0029764
:101480003EE303C037E180E090E02091B200230FFB
:101490002093B30042E04093700027E023BF88957B
:1014A00026E023BF10927000A895DCCF8F9384E0D4
:1014B000D1DF07C08F9382E0CDDF03C08F9381E03F
:1014C000C9DF8F911F93182F106410937C00E12FB8
:1014D000E07880913701E81759F0E0933701AEDFEB
:1014E0008EE980937A0083E083BF889582E083BF92
:1014F00020E030E0A901E0E01FC08EE980937A008F
:1015000083E083BF889582E083BF6091780070910B
:101510007900260F371F411D511DE43061F4809181
:101520003901803041F084E02030380720F417FD85
:1015300002C01068CACFEF5F80913601E817E8F269
:1015400060913A0170913B0117FF04C0609138012E
:101550007091390180E090E00E946B332FEF33E00F
:1015600040E050E00E94AD33B901CA01209136013C
:1015700030E040E050E00E94AD33C9011F91089572
:101580009B01281B390B50F0C9010895BC018091C3
:101590003A0190913B016817790718F4861B970B65
:1015A000089580E090E0089589B183FB882780F951
:1015B0004999826090911C01943050F09EE0909384
:1015C00018018093190110921D0191E090931C0164
:1015D000E0911C01AE2FB0E0A85EBE4F2C91281701
:1015E000C1F081110EC090911D01A3E0AE0FA37058
:1015F0002230B1F4B0E0A85EBE4F2C919F5F233043
:10160000C1F0EF5FE370E0931C01F0E0E85EFE4F95
:10161000808380911D0187FD0FC080931E01089576
:10162000213079F7B0E0A85EBE4F2C91233049F706
:10163000915090931D01E5CF8195EFCFB0E0A0E0F0
:10164000E4E2FBE00C94DF34E82ED92E5398519855
:10165000F0DE10921D01E0911C01F0E03196E37084
:10166000FF27E85EFE4F80EF8083C5E6D9E19CDF6F
:101670004F9B24C0CE2DDD2DF12C15E500E0BB24C1
:10168000B394D7FD15C082E3C82E8EDFD6DECA9490
:10169000C110FBCF110F4F9B1F5F1F731F33A1F4AE
:1016A000011103C0CE2DDD2D04E00F5F083C80F05A
:1016B000802FCDB7DEB7E9E00C94FB34BEDED1500D
:1016C000B1F6C15099F6D6CF111102C00111F0CF79
:1016D000A8951C161D0624F42A9711F4CFEFDFEF0E
:1016E00080911E01882339F0F39480917B01811150
:1016F00002C0B0927B0184E18F1508F0C2CF8091C7
:101700001D018111D5CFF12CBCCFCF9304D9C82FA7
:1017100080914901882301F1813051F4C73041F4AF
:1017200060E187E0EBD88BE238DA60E187E0E6D869
:1017300080E49FE183DF811104C080911E0181114B
:10174000F7CFC73041F480914901813021F460E046
:1017500087E0D4D882DAE8D8CF9108958EE093E07C
:101760000E946935382F8FE093E00E9469352091FF
:101770003E01230F30913F01381F20932101309308
:10178000220183E0283E380720F0C901885E93409B
:1017900002C080E090E062E370E00E94863368302F
:1017A00008F067E0E6E4F2E0E60FF11DE60FF11D58
:1017B000459155912591359162E3681B421B530B6E
:1017C000649FC001659F900D1124499662E370E00B
:1017D0000E948633620F731F70937E0160937D01B8
:1017E00080E193E00E946935992787FD909560918B
:1017F0003E0170913F01860F971F909339018093AE
:10180000380190937901809378010895CF93DF9305
:1018100024E130E0B9010E948633DC01E8E5F2E022
:10182000E60FF71FE60FF71FC591D591459155912A
:101830004C1B5D0B4A9FC0014B9F900D5A9F900D12
:101840001124B9010E9486336C0F7D1FCB01DF91FB
:10185000CF9108951895189540912301A0914701C3
:10186000B0914801E5E9F1E030E020E0822F241753
:10187000B0F451911C969C911C97591719F0558101
:10188000951303C02F5F3F4FF1CF220F331FF90194
:10189000EF55FE4F20813181293E334008F084E12D
:1018A0000895109225011092230110927301109255
:1018B0005901109224011092450110927A01EEE52F
:1018C000F1E0108211821282EFE7F1E0108A82E0EB
:1018D000818B109202011786168614821582168259
:1018E000178281EF838B08958FE47CDD86E47ADDB7
:1018F00086E478DD2DD85E988BDD90E080E09ECE8A
:1019000008951F93CF93DF93162F98E097B998B956
:10191000E82FF0E0E15DFE4F949195B9262F281B4A
:10192000E20FF11D27FDFA95E491E92BE4B9CADD38
:10193000EC01812FC7DDAC0120913A0130913B01D0
:1019400036952795C9010397BE01625E7F4F8617C2
:10195000970778F4255E3F4FC217D30750F4BA01BA
:10196000625E7F4F8617970720F481E04217530786
:1019700008F080E014B8DF91CF911F910895CF93C4
:1019800061E080E0BEDFC82F62E080E0BADFC80F10
:1019900062E081E0B6DF8C0FCF910895AFE0B0E058
:1019A000E4EDFCE00C94D634B82E10922501807F33
:1019B000C9F4E5DF833091F40E94B40489E392E036
:1019C00098D911D88FE3E9D880ED97E037DE8B30D6
:1019D000C0F40E94B4048DEE90E08BD92F96E2E122
:1019E0000C94F23406E910E00E94B40488EA91E015
:1019F00080D9C5DF833009F069C01F5F143008F457
:101A000066C00E94F3040E94761E89EA90E071D9B4
:101A100060E084E093E00E94763560E085E093E04A
:101A20000E94763560E083E093E00E94763560E0C6
:101A300082E00E94EB226C019A83898361E082E05C
:101A40000E94EB227C019C838B8360E081E00E94FA
:101A5000EB228C019E838D8323E040E26EEFC60172
:101A60006EDB23E040E26EEFC70169DB23E044E078
:101A70006EEFC80164DB2AE5C216D10424F084E1CC
:101A800090E09A838983698184E093E00E947635AF
:101A90008AE5E816F10424F084E190E09C838B83CE
:101AA0006B8185E093E00E9476350A35110524F0BC
:101AB00084E190E09E838D836D8183E093E00E94BA
:101AC000763582E08093490120DE06C010E088E28E
:101AD000C1DC015009F088CFEB2DEF70EF87E130CA
:101AE00009F04DC0EE24E394F12C78EB872E72EDD3
:101AF000972E77E4A72EB12CE2E0DE2E08E0F0E28C
:101B00003F2EC12C1E2D50E3252ED3D8CED884E5F0
:101B100044D8C7013FD995D8113009F0D0C18CED18
:101B200090E0E7D864E080913E0190913F0112DBA4
:101B30000E94F30487ED90E0DCD880917D019091C4
:101B40007E0128D98EEB8093360107B908B914B805
:101B500015B888EE93E072DD143011F08B3020F46C
:101B6000C39484E0C812D1CF88EE93E067DDEFEF35
:101B7000EE1AFE0AF8E0EF16F10409F0C2CF18E7FA
:101B8000FEDE882341F095D889E292E0B2D884E65F
:101B900061DC1150A9F70E94B40482EA90E0A9D850
:101BA00023E044E06FEF80913C0190913D01C7DA62
:101BB0000E94F3048BE990E09CD823E044E06FEFAF
:101BC0008091430190914401BADA82E08093490107
:101BD0009CDD109225010E94B40487E990E089D829
:101BE00060E082E00E943B1B80908701909088011A
:101BF000A0908901B0908A019C868B8661E082E08A
:101C00000E943B1BC0908701D0908801E090890121
:101C1000F0908A01DE86CD8660E081E00E943B1B69
:101C200000918701109188011E830D8362E080E09E
:101C30000E943B1B80918701909188019C838B833C
:101C400062E081E00E943B1B8091870190918801B6
:101C50009A87898761E080E00E943B1B8091870121
:101C6000909188019A8389832F85213029F02091D2
:101C70004201223009F00CC2029698878F83C4017A
:101C800093D8C60191D8B801110F880B990B03E0C6
:101C900026E444EF72D98E010F5F1F4F9E01215F32
:101CA0003F4F7801F701819191917F010A97853B20
:101CB0009105D0F42E173F07A9F747E0C42E43E063
:101CC000D42EF80160810E5F1F4F6E5EC6010E9428
:101CD0007635FFEFCF1ADF0A0E151F0591F70E9428
:101CE000F3048CE891E005D882E0809349010DDD92
:101CF0002F85213029F080914201823009F0C9C03E
:101D00000E94B40480E00E941E0682E391E00E94DB
:101D1000790682E00E941E0684E190E00E94790626
:101D200020E4F22E10E03AE0832E912CA12CB12C6D
:101D3000B8DD1092250160E082E00E943B1B00911B
:101D4000910120917F01309180014091810150915A
:101D50008201073F0CF4A1C10093910120937F0100
:101D6000309380014093810150938201073F09F035
:101D70009CC1205631094109510920393545410599
:101D8000510508F092C16091930170919401CB01CB
:101D90008B569F4F8B32914008F087C11F5F1530E3
:101DA00008F484C18EE093E00E9484350E94B4045C
:101DB0008DE090E00E9479068091930190919401CA
:101DC0000E94BF06CBDC88E088B989E087B980E251
:101DD00084B982E077DB853D9340DCF714B810923C
:101DE00039011092380182E06DDB7C01809178012D
:101DF00090917901909339018093380182E062DB00
:101E00006C01CC0CDD1C109239011092380182E07B
:101E100059DB4C01A0907801B0907901B092390162
:101E2000A09238010E94F30486E090E00E947906B7
:101E300080E193E00E946935182FD701A80DB91DE4
:101E4000AC19BD0995010E94003496010D2C000CBF
:101E5000440B550B0E94CF331D5F120F612F80E1A1
:101E600093E00E947635812F012E000C990B0E9481
:101E7000BF0674DC82E08093490147DC1092420186
:101E800087E093E00E946935682F8AE093E00E9422
:101E9000763589E1809336010E94B4048DEE90E09E
:101EA0000E9479060E94F30480E292E00E94790683
:101EB0001092250182E08093490127DC8FCD1230FA
:101EC00089F520913A0130913B01A8E5BBE10E94E0
:101ED000F13324EC36E340E050E00E94CF33290197
:101EE0003A0181E085B9F5E0F4B980E0DFDA8419E0
:101EF00095099A83898381E184B980E0D7DA8419CE
:101F000095099C838B8384E085B984E184B981E061
:101F1000CDDA841995099E838D8381EC90E00E942F
:101F2000790634C0133049F5D5B82AE024B980E0E9
:101F3000BDDA20913A0130913B01369527953887DB
:101F40002F83821B930B9A83898382E284B980E07A
:101F5000ADDA2F813885821B930B9C838B8305B967
:101F6000E8E2E4B981E0A2DA2F813885821B930B85
:101F70009E838D8383EB90E0D2CF1430D1F489E23D
:101F800092E00E947906FBDC8111A8C00E94F30454
:101F900089819A810E94BF060E9421068B819C81C3
:101FA0000E94BF060E9421068D819E810E94BF066D
:101FB000CCCD153099F415B8D4B880E077DA9A838F
:101FC000898304B981E072DA9C838B8334B882E020
:101FD0006DDA9E838D8383ED90E0A1CF163039F5C5
:101FE000D4B8D5B880E062DA20913A0130913B0153
:101FF000821B930B9A83898304B905B981E056DA71
:1020000020913A0130913B01821B930B9C838B837F
:1020100034B835B882E04ADA20913A0130913B0178
:10202000821B930B9E838D838FEC90E078CF1730CB
:1020300059F520913A0130913B01A8E5BBE10E949E
:10204000F133A50194010E94AD3329013A01D5B8BD
:10205000F3E0F4B980E02ADA841995099A83898338
:1020600005B92CE024B981E021DA841995099C8313
:102070008B8335B824B882E019DA841995099E83D8
:102080008D838DEA90E04BCF113009F07FCF5DCD8D
:1020900098878F8310924201F2CD0F5FCA01B90178
:1020A000A50194010E94AD3354CE10E00E94F304C8
:1020B00060917F01709180018091810190918201F6
:1020C00004E026E4409191010E94BD070E942D0684
:1020D00088E2C0D9FA94F1102BCEDBCE82E0C82E74
:1020E00055CF8091420181110DC087E093E00E949D
:1020F000693561E0680F8AE093E00E94763581E0FF
:10210000809342010895EF92FF920F931F93CF9314
:10211000DF93D62FE82FF0E0EE5CFE4FE491E8B9B4
:10212000E860E7B915B8E62FF0E0E15DFE4FE49115
:10213000E4B9CE2FCC0F88E8E82E83E1F82E8D2F5E
:10214000B5D98C01C4B98E159F0520F1892BE9F012
:102150000E94010582E191E00E947906D80120EAFF
:1021600036E841E050E00E94063428E937EB40E0D1
:1021700050E00E94AD33C90122E041E467EF0E94C4
:102180009F0888E087B988B914B8CDB7DEB7E6E014
:102190000C94FE347801D3CF0F931F93CF93DF932A
:1021A00085E090D985E08AD98C01EC01CC0FDD1F48
:1021B000CC0FDD1FCA56DF4F10924001C43883E0B8
:1021C000D80770F480E891E00E9479060E942D06FD
:1021D00081E080934001DF91CF911F910F9108958D
:1021E0008FE891E00E94790662E0CE010E94AA0881
:1021F0000E9421060A3F86E01807A0F40333164028
:1022000050F482E992E00E9479060E942D068DEC3E
:1022100021D96ADBE0CF89E992E00E9479060E9429
:102220002D06D9CF8CE891E0F8CFFC019C01261B4C
:10223000370BCA0170E060E0A901460F511D452F20
:102240005527620F240F351FAC01470F511D452F35
:102250005527780FDA01AA0FBB1F8A0F9B1F4B3E31
:1022600020F4E217F30740F7089590E080E0089526
:10227000A9E1B0E0EEE3F1E10C94D634582E462EFD
:10228000342EA895E62FF0E0E15DFE4F24912E87D5
:10229000220F2F8B339634913A8BE42FF0E0E15DDF
:1022A000FE4F44914983339684918F83E52DF0E06E
:1022B000E15DFE4F2490922D990F9F8733962491D4
:1022C0002B8328602C8338603A8345B9EE84E42A56
:1022D000E4B827B93B8138B9862FF0D88C014E85F8
:1022E00044B9842DEBD8B82E998714B89CD815B86A
:1022F000E4B8842DE3D8B80143D96C018A8187B949
:1023000088E088B9998192299D8395B994B9852DE2
:10231000D5D83CD94C0115B886D825B8852DCED84E
:1023200035D99D878C8724B8852DC8D82FD93C01F5
:102330006C857D85C40124D98032E1E09E0730F4AC
:10234000F0E2CF16F1E0DF0608F48BC62C853D8560
:10235000C20ED31E800F911FC816D90620F01D870C
:102360000C876B2C79842091590180917301820F25
:102370009927991F02974CF0213009F0A0C5909140
:1023800056018091700198139AC5D980DD0CFE84A6
:10239000FD283D2D32293B878C859D85843791050D
:1023A00008F49AC10A96880F991F6816790608F0F2
:1023B00093C19C8197B9EB81E8B9F4B8842D7AD8A0
:1023C0008C01832D7FD87C01D5B8842D73D89801DA
:1023D000295A3D4F2817390708F0AFC088E088B95F
:1023E000FA81F7B92B8524B925B9832D63D88834B0
:1023F0009F4008F49DC085E08093250182E2809390
:10240000240110934F0100934E01B701C801C3D8B6
:1024100090935501809354019801A0E1B7E20E9486
:10242000F13320911F013091200150E040E00E94E3
:10243000AD3330935101209350018F898D2984B998
:1024400015B84C8147B98B8188B9832D3BD88C0155
:10245000842D30D8B8019FD89C019093530180936C
:102460005201909124019F70943071F54091500178
:10247000509151016091540170915501C901D5DE0F
:102480000097F1F0D4B8EA899C81E92BE7B9842D53
:1024900011D88C0188E087B99801A0E1B7E20E94C9
:1024A000F133209143013091440150E040E00E941B
:1024B000AD33A901B8018091520190915301B5DE6D
:1024C00090934F0180934E01809124018F7084304E
:1024D00049F188E088B9EF81FA81EF2BE7B924B898
:1024E0002D8125B9852D0E945E0A8C014FD89E83CF
:1024F0008D83842D0E94620AE0902601F0902701CE
:10250000BC01C80148D89701DC010E94F133ED817C
:10251000FE819F0150E040E00E94AD3330934F01B7
:1025200020934E01809159018F5F809359014FC3D1
:1025300085E08093250184E262CF88E088B9FA8142
:10254000F7B92B8524B925B9852D0E945A0A8C012B
:10255000832D0E94620A7C0125B8852D0E945A0AAB
:10256000895A9D4F8017910708F0A9C43B8138B95B
:102570004C8147B9832D0E945A0A813D934008F04F
:10258000A6C085E08093250182E380932401B801F1
:10259000C70101D890936F0180936E01C8010E941A
:1025A000C60A9C01A0E1B7E20E94F1332091260106
:1025B0003091270150E040E00E94AD3330936B0131
:1025C00020936A01F8E0F8B92A8127B98F858D290F
:1025D00084B985B9852D0E94620A8C01832D0E94E1
:1025E0005A0AB8010E94CB0A9C0190936D01809316
:1025F0006C01909124019F709430A1F540916A0183
:1026000050916B0160916E0170916F01C9010DDEF7
:10261000009721F1D5B8D4B83B8138B9EC814A8113
:10262000E42BE7B9852D0E945A0A0E94C60A8C0144
:1026300088E087B99801A0E1B7E20E94F1332091C8
:102640003C0130913D0150E040E00E94AD33A901D2
:10265000B80180916C0190916D01E7DD9093690163
:1026600080936801809124018F70843051F1EB8157
:102670009F81E92BE8B9EC819E2B97B915B8FD81B4
:10268000F4B9852D0E945E0A7C01842D0E94620AA5
:102690009E838D8300911F0110912001BC01C70111
:1026A0000E94CB0A9801DC010E94F133ED81FE818A
:1026B0009F0150E040E00E94AD33309369012093C8
:1026C0006801809173018F5F8093730118C185E069
:1026D0008093250184E359CF88E088B9FA81F7B95E
:1026E00025B82B8524B9852D0E945E0A998B888B8D
:1026F0000E94C60A98878F83832D0E94620A9A8758
:10270000898783010C591F4F8F819885B301081762
:10271000190708F0F6C00E94CB0A9C8B8B8B209186
:1027200026013091270150E040E060E871EA83E043
:102730009CE10E94AD33AB89BC890E940634E985D7
:10274000FA859F0150E040E00E94AD3349015A01F3
:1027500014B815B8FB81F8B92C8127B981E00E9423
:102760002A0AE4B8842D0E945E0A8F359D4008F441
:1027700074C1F4B8842D0E945A0A998F888F832DD2
:102780000E94620A9C8B8B8B852D0E94620A9E8B15
:102790008D8B8B899C89813D974008F4E6C084E04D
:1027A000809325018DE080932401288D398D890146
:1027B000061917096216730610F0088D198DC0905E
:1027C0001F01D0902001F12CE12C60E871EA83E038
:1027D0009CE1A70196010E94AD33D8010E94063406
:1027E000EB89FC899F0150E040E00E94AD3380916D
:1027F0007301882371F08091640190916501A0912B
:102800006601B091670182179307A407B50708F026
:1028100099C0209364013093650140936601509301
:102820006701288D398DA0E1B7E20E94F133A7013D
:1028300096010E94AD3330936B0120936A016B893E
:102840007C898D899E890E94CB0A9093690180932F
:10285000680181E0409164015091650160916601D9
:1028600070916701481559056A057B0508F06CC031
:102870008092640190926501A0926601B092670116
:1028800069857A85888999890E94CB0A9093690124
:10289000809368012F813885A0E1B7E20E94F1336F
:1028A000209126013091270150E040E00E94AD3395
:1028B000205F384D30936B0120936A01C0901F0157
:1028C000D0902001F12CE12C9301A0E1B7E20E940D
:1028D000F133A70196010E94AD3330936D0120932F
:1028E0006C012C853D85A0E1B7E20E94F133A70180
:1028F00096010E94AD3330936F0120936E0181E009
:1029000025C08F8198850E94CB0A9C8B8B8BFD8183
:10291000F4B9852D0E945E0A998B888B0E94C60AA5
:1029200098878F83832D0E94620A9A878987BC01CA
:102930008B899C890E94CB0A9C01A4E6B0E00E948E
:10294000F133FDCE80E086CF8111B8CF9091730135
:102950009F5F90937301882309F477C330927001CD
:10296000409271015092720170C3F1E66F167104CA
:1029700008F073C0288D398D213D47E0340708F4F5
:102980006CC085E08093250182E180932401C90118
:1029900086509F4FED89FE898E179F0708F043C030
:1029A00083E180932401FA89F770DF2E832D806400
:1029B00080937C00EBE0EE2E21E030E03E832D831F
:1029C0000FEF13E0A89561E089816ED5F4B886B168
:1029D0008D21E9F33E8534B980917A00806480933B
:1029E0007A0080917A0086FDFCCF809178009091EA
:1029F0007900F801E81BF90B2D813E812E0F3F1F56
:102A00003E832D83EA94E110DDCFC901880F991F21
:102A1000880F991F69E070E00E94863370936F0100
:102A200060936E014ECE00911F0110912001688DC0
:102A3000798D8D899E890E94CB0A9801DC010E94C4
:102A4000F133E88DF98D9F0150E040E00E94AD33F5
:102A50003093690120936801A6CFF4B8D5B8842DCE
:102A60000E945E0A6C01832D0E94620A98878F8300
:102A70000E94C60A9A8789870C151D0508F0A9C00F
:102A8000B301C6010E94CB0A8C0120911F01309135
:102A9000200150E040E060E871EA83E09CE10E94A0
:102AA000AD33D8010E940634E985FA859F0150E0D4
:102AB00040E00E94AD3349015A01FA81F7B988E03C
:102AC00088B92D8124B925B9852D0E945E0A8C0113
:102AD000832D0E94620A9A878987842D0E94620A48
:102AE0007C01003331E1130708F0E6C125B8852DDC
:102AF0000E945E0A998B888B24B8852D0E945E0AFD
:102B00009C8B8B8B15B881E00E942A0A25B8852DF5
:102B10000E945E0AEB89FC89E034F64008F079C037
:102B20008133914108F475C0C8018A569F4FE889E6
:102B3000F989E817F90708F06CC086E08093250151
:102B4000809159018F5F80935901B70189859A85DA
:102B50000E94CB0A90934F0180934E01B701C801A8
:102B60000E94CB0A909355018093540114B815B874
:102B7000FA89F8B981E00E942A0A24B8852D0E94BA
:102B80005E0A853F910518F52D8124B9832D0E9499
:102B90005E0A813D9340D8F0852D0E94620A8D3DEA
:102BA0009240A8F024B8852D0E945E0A8D3D924087
:102BB00070F025B881E00E942A0A15B8852D0E9480
:102BC0005E0A853F910518F487E08093250181E036
:102BD000F8C0E4B8F981F5B9842D0E945E0A6C0151
:102BE000832D0E94620A98878F830E94C60A9A8763
:102BF0008987C6016C147D0410F4861997096985CC
:102C00007A850E94CB0A9C01A4E6B0E00E94F133D1
:102C10004BCFFA81F7B9298124B925B981E00E9407
:102C20002A0A3B8534B935B9852D0E945E0A8C018C
:102C30000E94C60A998B888B832D0E94620A9E830C
:102C40008D830E94C60A9A878987842D0E94620A12
:102C50007C0189859A858E3F994008F4C1C084E043
:102C6000809325018CE080932401B30188899989A0
:102C70000E94CB0A8C01209126013091270150E05F
:102C800040E060E871EA83E09CE10E94AD33D80146
:102C90000E940634E985FA859F0150E040E00E94D9
:102CA000AD3380915901882371F080914A01909150
:102CB0004B01A0914C01B0914D0182179307A407DD
:102CC000B50708F07AC020934A0130934B01409336
:102CD0004C0150934D01B7018D819E810E94CB0A1A
:102CE00090934F0180934E0128893989A0E1B7E282
:102CF0000E94F133209126013091270150E040E0FD
:102D00000E94AD33309351012093500181E04091F6
:102D10004A0150914B0160914C0170914D01481551
:102D200059056A057B0508F04AC080924A019092D5
:102D30004B01A0924C01B0924D01B6018F81988554
:102D40000E94CB0A90934F0180934E019601A0E11F
:102D5000B7E20E94F13320911F013091200150E031
:102D600040E00E94AD33205F384D309351012093F5
:102D700050019301A0E1B7E20E94F13320911F01BD
:102D80003091200150E040E00E94AD333093530178
:102D9000209352012C853D85A0E1B7E20E94F133DA
:102DA000209126013091270150E040E00E94AD3390
:102DB00030935501209354010ACF80E0A8CF8111B0
:102DC000D8CF909159019F5F90935901882309F4BE
:102DD0003CC130925601509257014092580135C182
:102DE000F1E66F16710408F067C028893989293423
:102DF0003D4008F461C085E08093250182E0809326
:102E00002401C70186509F4F8017910708F03CC0EE
:102E100083E0809324010B810770832D806480936D
:102E20007C001BE021E030E03E832D83A89560E02C
:102E300089813AD33B8534B935B986B18023E9F726
:102E400024B880917A00806480937A0080917A001F
:102E500086FDFCCF8091780090917900ED81FE8114
:102E6000E80FF91FFE83ED83115001F7CF01880FA2
:102E7000991F880F991F69E070E00E948633709354
:102E80005501609354014ECBC0902601D09027018C
:102E9000B701C8010E94CB0A9601DC010E94F13300
:102EA000E889F9899F0150E040E00E94AD333093FA
:102EB0004F0120934E01AFCF88E087B988B914B88D
:102EC00015B888E087B9F7EC6F16F1E07F0608F4D3
:102ED000E4C088B92F8524B938EC3D834C818A81C0
:102EE000482B4F839F8197B981E00E942A0AEA818B
:102EF000E7B9852D0E94620A429728F0FD81F150C2
:102F0000FD83F111EFCF2F8524B925B961E08981C7
:102F1000CBD2852D0E945E0A6C013F8934B915B869
:102F20004C8147B98B8188B960E08981BDD2842DFD
:102F30000E945E0A0E94C60A9E838D839E8594B974
:102F4000842D0E94620A8C01852D0E945E0AB801C0
:102F50000E94CB0A8C01842D0E94620A7C01852D7F
:102F60000E945E0AB7010E94CB0A98012C5E3F4F77
:102F70002817390708F469C088E088B9EA81E7B9F9
:102F800024B825B861E089818FD2842D0E94620A1D
:102F90007C01852D0E945E0AB7010E94CB0A7C014C
:102FA0000817190708F060C0FF85F4B9F5B9852D39
:102FB0000E945E0A9C01CD82DE8288EEE81683E0E4
:102FC000F80608F063C0C70164E670E00E9486332B
:102FD000C701875991098938914108F05EC02E15C3
:102FE0003F0508F05AC08D819E8143E096958795F4
:102FF0004A95E1F7893C910510F088EC90E02D812D
:103000003E81820F931F8E159F0508F046C0621700
:10301000730708F042C080912501833018F483E0E3
:103020008093250120912301822F90E0FC01EB5633
:10303000FE4F50824682880F991FFC01EF55FE4FCC
:10304000F182E0822F5F2093230188E087B988B95D
:1030500014B815B88EE20E94CD056996E2E10C9491
:10306000F2346B2C79842BCF2F8924B915B83C818D
:1030700037B94B8148B960E0898116D2842D0E940E
:103080005E0A0E94C60A9C01780197CFB70154E0FE
:10309000769567955A95E1F79BCF642D852D01D0E4
:1030A000D4CFB0E0A0E0E7E5F8E10C94D834C82F25
:1030B000D62FA895862F90E0FC01E15DFE4F54903D
:1030C000339624914C2F50E0FA01E15DFE4F1491AC
:1030D000339604916091730130915901630F772702
:1030E000771F672B09F05AC0A8956091290170914C
:1030F0002A01660F771F660F771F70933B0160935D
:103100003A016091780170917901660F771F660F1F
:10311000771F70933901609338013EEB309336018D
:1031200060912301E5E9F1E030E0840F951F63131E
:103130003AC088E088B9286027B914B915B9B8E150
:10314000BB2ED12CC12C8D2F0E945E0A782E692EA9
:103150008C2F0E94620A7C018C199D0997FF03C085
:1031600091958195910903970CF45AC1A895BA9449
:103170006701B110E8CF8091290190912A019093C5
:103180003B0180933A01809178019091790190936D
:1031900039018093380189E180933601CDB7DEB7DC
:1031A000E0E10C94F43451914581450F5527551FAA
:1031B0004817590701F33F5FBACF25E8C21621E04F
:1031C000D206C8F6043AE2E01E0708F0B5C0F8E9F6
:1031D000AF16B10480F2C6010E94C60AAC01960186
:1031E000A8E9B7EB0E94F1339A0150E040E00E9459
:1031F000AD3329013A01C5010E94C60A9C01A8E924
:10320000B7EB0E94F133950150E040E00E94AD33EE
:1032100088E7C8168FE0D80608F072C0F2E0440CC8
:10322000551C661C771CFA95D1F7C301B201620FD9
:10323000731F841F951F25E030E040E050E00E949E
:10324000AD33A4E6B0E00E9406346B017C01FCEAD9
:10325000CF0EFDE0DF1EE11CF11C109125011430A2
:1032600008F089CFC1500C2F0D0F802F90E0EC019A
:10327000C25ADE4F2881880F991F880F991F8255E7
:103280009E4FFC01222309F4C4C080809180A2805B
:10329000B380A7019601281939094A095B0957FF2C
:1032A00007C050954095309521953F4F4F4F5F4F48
:1032B000AAE0B0E00E940634F4E68F0E911CA11C37
:1032C000B11CA50194012C0D3D1D4E1D5F1D0E94DA
:1032D000AD33232B242B252B09F04DCF133019F0C0
:1032E00081E08093250182E0888380917A01E82F34
:1032F000F0E0EF59FE4F00838F5F80937A013BCF60
:10330000E8E7AE16EFE0BE0670F4E2E0220F331FEE
:10331000441F551FEA95D1F7CA01B901640D751D07
:10332000861D971D88CF240D351D461D571D5695AA
:1033300047953795279585CFC0902601D0902701D6
:10334000672D762DE616F70608F4B701C7010E942F
:10335000CB0A9601DC010E94F1332B013C01C7012D
:103360000E94C60A9C0150E040E0C301B2010E94E5
:10337000AD3329013A01A0901F01B0902001892DA1
:10338000982D8017910708F4C801B8010E94CB0A54
:103390009501DC010E94F133980150E040E00E9469
:1033A000AD3388E7E8168FE0F806B0F462E0440C2D
:1033B000551C661C771C6A95D1F7C301B201620FD8
:1033C000731F841F951F25E030E040E050E00E940D
:1033D000AD3369017A0141CF0837EFE01E0770F481
:1033E000CA01B90152E0660F771F881F991F5A95CD
:1033F000D1F7640D751D861D971DE5CF7301620120
:10340000C20ED31EE41EF51EF694E794D794C7941B
:1034100024CFC082D182E282F38281E08883ABCE66
:10342000110F15B814B98C2F0E945E0A81359105D1
:1034300008F0A1CE15B98C2F0E945E0A6C01802F76
:10344000886087B908B915B854B8A8E14A2EB12CDC
:10345000A12C8C2F0E945E0A982E892E8D2F0E94FF
:10346000620A8C018A199B0997FF03C09195819587
:103470009109039734F0A8954A9458014110E9CF77
:103480007ACE550C54B88D2F0E945E0A5C01F0EC88
:10349000EF16F4E4FF0608F490CE80EBC8168DE436
:1034A000D80608F068CE8ECECF93C82FC09595B1C0
:1034B00060FF10C0982B95B994B1892B84B982E034
:1034C0000E942A0A84B18C2384B985B18C2385B9E2
:1034D000CF9108959C23EFCFB0E0A0E0E2E7FAE1BE
:1034E0000C94DE341AE008E08FE3C82E99E0D92E60
:1034F00007B908B915B8C4B880E00E945E0A7C011B
:1035000081E00E94620AEC0182E00E94620A9C0152
:10351000809125018930A1F488E087B914B8F09230
:103520000601E0920501D0930801C0930701309392
:103530000A0120930901CDB7DEB7EAE00C94FA3412
:1035400084E0E816F10448F4C430D10560F4243076
:10355000310510F399E092600AC098E088EEE81611
:1035600083E0F80608F499E0C83ED340A0F3283E73
:10357000334008F4946097B9D0E0C0E0A89580E0AB
:103580000E94560A5C0181E00E94620A7C0182E08E
:103590000E94620A24E1A21625E0B20608F4389AD5
:1035A00024E1E21625E0F20608F4399A843125E098
:1035B000920708F43A9A26E0A216B10430F426E005
:1035C000E216F10410F4069738F02196C43F81E02A
:1035D000D807A1F6D0922501F12CE12CEC16FD06BE
:1035E00021F4115009F084CFA6CF0E94190A2FEFC1
:1035F000E21AF20AF3CFCF92DF92EF92FF92CF93CB
:1036000020917F0130918001409181015091820190
:10361000C09191018AE0C82ED12CE12CF12C8C2F85
:10362000CF5F213A96E8390791E049075105E0F468
:1036300080939101A0913A01B0913B010E94063420
:1036400028E833E140E050E00E94AD3320937F0151
:10365000309380014093810150938201CF91FF907C
:10366000EF90DF90CF900895CA01B901A7019601AC
:103670000E94AD33D4CFB0E0A0E0E1E4FBE10C94D4
:10368000DC34C82F162F880F8C0F9FEF960F890FF1
:1036900080935B01EC2FF0E0E15DFE4FD491862F2B
:1036A00090E0FC01E15DFE4FF490FC01EE5CFE4F0A
:1036B0000491809125018130C1F120912301E5E938
:1036C000F1E090E080E08217A8F1086010928C0190
:1036D00010928B0181EF8093910110927F011092E3
:1036E00080011092810110928201F6DE88E088B993
:1036F00007B9F4B8F5B88C2F0E94620A5C01812FDB
:103700000E94620AA81AB90A14B810925D011092B8
:103710005C0180915C0190915D01843F9140F0F0EB
:1037200088E087B988B914B815B8CDB7DEB7ECE032
:103730000C94F834368131130EC030813C130BC029
:10374000DC01AA0FBB1FAB56BE4F1C964D915C917E
:103750004C3D554050F301963196B5CFD5B9D4B90B
:103760000E94130A14B815B80E941A0AA8958C2F43
:103770000E94620A7C01EA18FB0880915C0190912A
:103780005D018E37910520F08BE4E816F10444F2D8
:1037900080915C0190915D012DE2E21621E0F2063C
:1037A0000CF011C2019690935D0180935C01B1CF42
:1037B0000E94140A8C2F0E94620A8A199B09A895FC
:1037C0002FEFC21AD20A20915C0130915D012C15B5
:1037D0003D0570F75701A81AB90A1A141B040CF01A
:1037E000ADC039ECA316B1040CF09ACF28EE33E04B
:1037F000D5010E94003497010F2C000C440B550B8F
:103800000E94AD33690180915C0190915D01019648
:10381000B0E0A0E08093870190938801A093890194
:10382000B0938A01C7018A0D9B1D21D22091870187
:10383000309188014091890150918A01DC010E94F8
:103840000634609387017093880180938901909377
:103850008A0160937F01709380018093810190932E
:10386000820187EF80939101C6DE80907F01909066
:103870008001A0908101B090820186E093E00E94D7
:103880006935A8EEB3E0A81BB10987FDB395A50182
:1038900094010E94103424E630E040E050E00E94A1
:1038A000AD3320937F013093800140938101509389
:1038B000820180912301882329F0809125018530A0
:1038C00009F02ECF88E0809325018091910190919D
:1038D00092019817C4F0891323CF80907F019090B4
:1038E0008001A0908101B0908201409183015091AC
:1038F00084016091850170918601481559056A051A
:103900007B0508F00DCF40917F01509180016091BF
:1039100081017091820140938301509384016093EF
:1039200085017093860180939201D0928E01C0929E
:103930008D0110938F01C0939001F2CED12CC12C38
:1039400062CFCADD15B88FE087B988E088B9FD2E4F
:10395000FF0CF4B880E480937B0084E580BF8C2F5B
:10396000806480937C0086E180937A000E941D0A27
:1039700010925D0110925C011092800010928500FF
:103980001092840087E286BB81E280936F0081E021
:1039900080937C01F5B8909125018093810095304A
:1039A00009F0FBC081E090E00C2E01C0880F0A9462
:1039B000EAF780958F7087B9F89483B7817F83BFCA
:1039C00080917C01882389F083B7816083BF7894DC
:1039D000889583B78E7F83BFF894A89580915C010A
:1039E00090915D018034964059F77894109281004F
:1039F000E0908600F090870010926F0086E9809337
:103A00007A0014B815B88C2F0E94620A20913E01EA
:103A100030913F01821B930B0C96909394018093FD
:103A2000930180915C0190915D018032934008F098
:103A300077CE80915C0190915D0190938A01809393
:103A40008901F0928801E092870184EF80939101CF
:103A500080915C0190915D0182349105C8F0609184
:103A60008701709188018091890190918A0124E6F3
:103A700030E040E050E00E94AD3320938701309366
:103A800088014093890150938A0186EF80939101C8
:103A9000A0917D01B0917E01209187013091880134
:103AA0004091890150918A010E94063420E233E05E
:103AB00040E050E00E94AD332093870130938801AD
:103AC0004093890150938A0120937F0130938001B4
:103AD00040938101509382018EDD80919101843F5A
:103AE00009F04AC0C0907F01D0908001E090810130
:103AF000F090820180EAC8168FE0D806E104F10454
:103B0000C0F4A70196012C543F4F4F4F5F4F60EA1E
:103B10007FE080E090E00E94AD33C20ED31EE41E31
:103B2000F51EC0927F01D0928001E0928101F09257
:103B3000820180915B0190E0895F9C4F0E94693512
:103B400040917F01509180016091810170918201CB
:103B500090E0B0E0A0E084179507A607B707F8F457
:103B6000481B590B6A0B7B0B40937F0150938001DC
:103B70006093810170938201D4B980917F0190910B
:103B80008001A0918101B09182014997A105B10501
:103B900008F4C6CDD12CC12C8CCE07B90DCF4C5E0C
:103BA0005F4F6F4F7F4F481759076A077B0710F425
:103BB0000E94711010927F01109280011092810179
:103BC00010928201D9CF892B31F485E1E81685E086
:103BD000F8060CF0B6CEC701D12CC12CF4CD1F9243
:103BE0000F920FB60F9211248F939F93B59904C033
:103BF00080917C01811109C0B59B10C08091860025
:103C0000909187008A3F910548F480915C019091E2
:103C10005D01019690935D0180935C019F918F916E
:103C20000F900FBE0F901F9018951F920F920FB616
:103C30000F9211248F939F9310927C01B09B10C020
:103C400080918600909187008A3F910548F4809189
:103C50005C0190915D01019690935D0180935C0100
:103C60009F918F910F900FBE0F901F9018950F92FC
:103C700021E08C32920710F48CE291E08C5291405A
:103C800069E170E00E94863399E16B3210F0982F61
:103C90006BE2981BE7EAF2E0E60FF11DE60FF11D7B
:103CA0009F93CF010E946935482F3196CF010E9422
:103CB0006935582F3196CF010E946935282F3196EA
:103CC000CF010E946935382F6F91421B530B649FBF
:103CD000C001659F900D11240C9669E170E00E946F
:103CE0008633620F731FCB010F900895B0E0A0E000
:103CF000ECE7FEE10C94DC3488E893E190932A0130
:103D00008093290190933B0180933A018EEB80933D
:103D10003601C8E0C8B988E187B90E94220AC7B94C
:103D200084E00E945E0AAC018B5C9840833F914026
:103D3000A0F481E08093450120913A0130913B014C
:103D4000AFEBB9E00E94F1339A0150E040E00E94ED
:103D5000AD3330932A01209329018091290190915C
:103D60002A0190933B0180933A018EE00E94620AFF
:103D70008EE00E945E0A90933F0180933E010E9474
:103D8000AE0BAADB88E0F82EF8B8D9E0D7B9C1E0CD
:103D9000C5B9C4B980E00E945E0A8C019AE0B92ED0
:103DA000B7B824E0C22EC5B8C4B881E00E945E0A4C
:103DB000080F191F3CE0D32ED7B840E1E42EE5B838
:103DC000E4B882E00E945E0A080F191F15B8D8B93E
:103DD000D7B9C4B980E00E945E0A0E94C60AEC010D
:103DE000B8B8B7B8C4B881E00E945E0A0E94C60A9B
:103DF000C80FD91FD8B8D7B8E4B882E00E945E0ACD
:103E00000E94C60AC80FD91FF7B8F8B814B8809135
:103E10003A0190913B016C01CC0CDD1CC80ED91EFF
:103E2000C01AD10ACC1ADD0AF12CE12C9801A0E9C4
:103E3000BAE10E94F133A70196010E94AD33490116
:103E40005A0130934401209343019E01A0E9BAE155
:103E50000E94F133A70196010E94AD3330933D01DA
:103E600020933C012057354E3093270120932601A3
:103E700080E7881A85EE980A9092200180921F01AF
:103E800089E180933601CDB7DEB7ECE00C94F834CD
:103E90000F93CF93DF93D62FC42F0E941E0680E08E
:103EA00091E00E94790659D18091020187FF04C0F8
:103EB0008CEF90E00E9479068D2F0E941E06CC2385
:103EC00051F0809146018E3030F48650990B8F5E10
:103ED0009C4F0E94790680E00E944D06809161010E
:103EE0000E943507809102018E3F94F486E191E0B3
:103EF0000E94790660910B0170910C0180910D0177
:103F000090910E0103E028E4409102010E94BD0758
:103F1000DF91CF910F910895EF92FF920F931F932E
:103F2000CF93DF93182F0E94AD0480918F010E94E0
:103F30001E0682E391E00E947906F5D460918F011C
:103F40008091900148D3EC0190938C0180938B0178
:103F5000E0908D01F0908E01CA3F8FEFD80720F4DA
:103F600081E091E00E947906809190010E941E06F6
:103F7000112309F445C0909146018EE0891B0E94EF
:103F8000240689E690E00E9479060E94F30460917D
:103F9000830170918401809185019091860104E0F4
:103FA00026E4409192010E94BD07CA3FDF4F68F4AA
:103FB00081E291E00E94790622E044E06EEF809178
:103FC0008B0190918C010E949F080E942D060E94F7
:103FD000FA04E114F10469F08AE191E00E947906A3
:103FE00022E045E26FEF80918D0190918E010E9459
:103FF0009F080E942D06CDB7DEB7E6E00C94FE3494
:104000000E942D06C2CF8F7021F40E9401050C94EE
:10401000CC1008958F3021F490914001913011F02F
:104020008F5F089580E00895CF9384E790E00E9429
:104030008C2BC0E00E94510C60E082E032D862E03C
:1040400080E02FD80E94AD0480917A018823C9F0C6
:1040500041E062E080E01CDF8C2FD5DF88EE93E04A
:104060000E941E0B811109C080911E01843028F42A
:104070008C2FD0DFC82F8A3FE8F20E94B404CF9182
:10408000089584E790E00E94790685E193E00E941C
:1040900079060E94F3048FE30E94CD0580E00E9420
:1040A00033060E942D06D8CF1F93CF93DF93C0E035
:1040B000D8E01EE00E94510C60E082E0DCDAD09390
:1040C000250180919101823F5CF180939201809162
:1040D0007F0190918001A0918101B0918201809334
:1040E000830190938401A0938501B093860181E0C0
:1040F00013DF8C2F88DF88EE93E00E941E0B811166
:1041000009C080911E01843028F48C2F83DFC82FD2
:104110008A3F80F20E94B404DF91CF911F910895ED
:104120000E94AD048DE690E00E94790680914601E0
:10413000912F981B892F0E94240689E690E00E9407
:1041400079060E94F3048FE30E94CD050E942D069C
:104150000E94FA040E942D06CCCFA6E1B0E0E3EB6A
:10416000F0E20C94D63482E0809302018091250124
:10417000813009F0F0C180917A01813009F0EBC102
:104180004090610124E0429EF0011124E255FE4F6F
:1041900080819181A281B381893032E59307A105A5
:1041A000B10508F0D8C11C01712C81E0871508F415
:1041B000D6C1842D0E942B07982E892EE82DF0E081
:1041C000EE5CFE4F5490892D90E0FC01E15DFE4FC6
:1041D000E49115B828E028B9372D3170632E20EF0F
:1041E0002216310408F0C0C13111BEC100911F0177
:1041F0001091200100591A4121E030E0092C02C041
:10420000220F331F0A94E2F7C9018860852987B914
:1042100034E1398B892D0E945A0A5C01882D0E9455
:10422000620A24E0A216B10410F4049728F0398938
:104230003150398B3111EECF80E480937B0094E5CF
:1042400090BF892D806480937C0026E120937A00C2
:10425000F12CE12C109280001092850010928400C5
:1042600087E286BB0E941D0A872D90E09A8B898B7E
:10427000611083C181E88093810058B886B385FDC1
:104280000CC080FFFBCF21E026BBA89597012F5FD4
:104290003F4F79012035310589F738E038B9109260
:1042A000810090E296BB20918600309187006901E1
:1042B00040918400509185002417350738F480FF21
:1042C00005C021E026BB3FEFE31AF30A86E980939D
:1042D0007A00B4E15B2E892D0E945A0A5C01882D78
:1042E0000E94620A24E0A216B10410F4049718F0A8
:1042F0005A945110F0CF8090430190904401820C69
:10430000931C800E911E20912101309122010039D1
:104310008AE1180708F03AC169E191EEC916D104A3
:10432000E104F10430F4C60165E070E00E948633D8
:10433000645128523109261B310967FD339566E027
:10434000862F90E0B0E0A0E08C159D05AE05BF057E
:1043500008F025C1C81AD90AEA0AFB0A662029F022
:1043600082E2C80ED11CE11CF11C90E5E916F104B3
:1043700018F0C12CD12C76018BE0C816D104E104D1
:10438000F10428F091E0C91AD108E108F108B12C34
:10439000A12CA8EEB3E00E94F1336B8B7C8B8D8B4C
:1043A0009E8BA0913A01B0913B0198010E94F1339C
:1043B000A50194010E94AD33442755276B897C8960
:1043C0008D899E890E94AD33C9010E94060CFC01B3
:1043D000A5019401C701B6010E946B334B015C013A
:1043E000BF0190E080E0E3E0660F771F881F991F10
:1043F000EA95D1F76B5F7F4F8F4F9F4F2AE030E0F8
:1044000040E050E00E94AD33C501B4010E94AD33DD
:10441000E989FA89EE0FFF1FEE0FFF1F81E090E0A0
:104420008C0F9D1FE80FF91F208331834283538334
:10443000611018C09CE0C916D104E104F10490F0A9
:104440007394E989FA893196EE0FFF1FEE0FFF1F73
:1044500081E090E08C0F9D1FE80FF91F20833183CE
:1044600042835383A895739493E0971508F09DCEEB
:1044700088E088B984E00E942A0A91E00D811E81BB
:104480002F81388549815A816B817C814017510782
:104490006207730708F090E00D851E852F85388927
:1044A00049855A856B857C8582E0401751076207F4
:1044B000730708F483E024E0829FD001112421E0F7
:1044C00030E02C0F3D1FA20FB31FE92FF0E0EE0FDD
:1044D000FF1FEE0FFF1FE20FF31F0D911D912D9196
:1044E0003C91408151816281738104171507260731
:1044F000370708F0892F34E0839FF001112421E071
:1045000030E02C0F3D1FE20FF31F4081518162818B
:10451000738140930B0150930C0160930D017093D4
:104520000E0180FD40C030EF23163104E0F58BEF23
:104530008093020180910B0190910C01A0910D01DB
:10454000B0910E01892B8A2B8B2B11F41092020152
:1045500088E087B914B86696E2E10C94F234842DB1
:104560000E942B074C012ACEE4B9852D886087B9BB
:1045700000911F01109120014BCE58B80E94260ACD
:1045800090E296BB81E88093810078CEC40160EB15
:1045900076E30E948633695F285D3F4FD1CEC12C00
:1045A000D12C7601DBCE8CEF80930201CB01BA01D6
:1045B0006B5F7F4F8F4F9F4F2AE030E040E050E02D
:1045C0000E94AD3320930B0130930C0140930D01F9
:1045D00050930E01AFCFAEE1B0E0E1EFF2E20C9408
:1045E000D634662EB82E860F898320912501283077
:1045F00059F52091830130918401409185015091BA
:10460000860157FD15C01091920109C0CA01B90178
:104610002AE0312D412D512D0E94AD331F5F173FF0
:10462000ACF391F4243160E036074105510518F4EC
:104630008FEF9FEF45C1173F39F480E028178DE7D2
:1046400038074105410510F020E03DE72C8B3D8BFC
:1046500026EDA22EE2E3F1E0E60DF11D85918860E2
:104660008E87E2E3F1E0EB0DF11D859188608F8785
:10467000EFE2F1E0E60DF11D7590EFE2F1E0EB0DF8
:10468000F11DC59090EC692AB92A81E0E82EF12C41
:10469000012D112D8E831F82188619861A861B867E
:1046A0001C861D86188E198E1B8E1A8E0E946C1AFF
:1046B00088E088B960927C000E941E0A3F8537B965
:1046C00075B874B852E05A95F1F70000000014B8BC
:1046D00015B8DD243E8537B975B874B860927C0092
:1046E000A895A0927A0080917A0086FDFCCF209058
:1046F000780030907900B0927C004C2DE5D020916C
:10470000780030917900288B398B3F8537B9C5B84F
:10471000C4B8A895B0927C00A0927A0080917A00EB
:1047200086FDFCCF609178007091790060927C00EA
:10473000472DCAD0409178005091790014B8CB0130
:10474000820D931DE80EF91E011D111DEA82FB82E8
:104750000C831D8388899989840F951F2E813F8141
:1047600068857985280F391F611D711D2E833F8350
:104770006887798722E32417150650F075B874B856
:104780000E94280A14B815B8888D8395888F07C0B1
:10479000483E73E0570718F08A8D83958A8F888981
:1047A00099892817190660F03E8537B9C5B8C4B88D
:1047B0000E94280A14B815B8898D8395898F07C07F
:1047C000883E73E0970718F08B8D83958B8FD39479
:1047D0005D2D5F3F49F05F3731F45C2D550FC50EFD
:1047E000572D550F750E76CF4090430150904401E0
:1047F000440C551C9201E4E0240D351DEA95E1F7C7
:104800002901570168016E807F80888499842091F6
:1048100025012830C1F46C897D89812D912D655049
:104820007040804090409B01AC010E946B339B0123
:10483000AC0160E779E786E190E00E94AD33621A4F
:10484000730A840A950AA614B704C804D90428F484
:104850006A187B088C089D0803C0662477244301EE
:10486000B20180E090E09301A4010E946B339501B6
:10487000A6010E94AD3382E093E07981870F911DFC
:104880000E946935682EC90160E170E00E9486339C
:10489000260F371FC9016816190618F486199109E1
:1048A0000FC08C5E9F4F8615910540F48C899D89C1
:1048B000843981E1980710F00E947110812D912DAB
:1048C0006E96E2E10C94F234109281001092800016
:1048D00010926F0010928B0010928A0057E056BB26
:1048E0005FEF509385005093840055E050937B0018
:1048F00056EB50937A0051E05093810058E25A955C
:10490000F1F7000045B944B955E05A95F1F70000B8
:1049100014B815B81092810080917A0084FFFCCF02
:1049200080937A000895B0E0A0E0E9E9F4E20C9405
:10493000D83400918D0110918E010115110509F0F7
:1049400091C0E0918F01F0E0EE5CFE4FD491D86011
:10495000E0919001F0E0E15DFE4FC4910E946C1A7D
:1049600088E088B915B8D7B9C4B9809190010E9480
:10497000620A7C01D09192018CE08D0F843008F0A6
:1049800071C08091830190918401A0918501B091C3
:104990008601D15F2AE0422E512C612C712CBC0182
:1049A000CD016B5F7F4F8F4F9F4FA30192010E94FC
:1049B000AD3349015A01DA01C901DF5FD73079F718
:1049C000893823E19207A105B10508F04BC005978E
:1049D00008F448C0C5B9C4B9D0E0C0E0C815D905CD
:1049E00008F445C014B815B8A89585E08093360141
:1049F000809190010E94620AEC01CE19DF09E8164D
:104A0000F90610F0D0E0C0E0D12CC12CC814D904B4
:104A100090F1809190010E94620A29E12093360171
:104A2000A895E816F90618F48C010E191F090C1741
:104A30001D0788F49E01201B310B69F0A4EFB1E043
:104A40000E94F1339E0150E040E00E94AD3330936C
:104A50008E0120938D010E946C1A88E087B988B975
:104A600014B815B8CDB7DEB7E0E10C94F4340E9469
:104A7000240A2296B3CF0E94240A8FEFC81AD80ABC
:104A8000C5CFA7E0B0E0E7E4F5E20C94D6348EE9B8
:104A900091E042D660EF6B8354980E94190A14BCCF
:104AA00016BC109212011092130110921401109270
:104AB000150181E085BB80936E0010928000E3E1D8
:104AC000FAE7F0938B00E0938A0081E090E0909306
:104AD000890080938800109285001092840083B52D
:104AE000816083BD96E096BB90936F007894E4E07C
:104AF000E0938100F2E3F9831A820E94120AA895DA
:104B00004F9902C061E06A8385B5882329F08981C5
:104B1000815089838111F1CF15BC86B58093120134
:104B20000E94FA040E942D060E9401050E942D0693
:104B30000E94590686E60E94CD050E945D0660919E
:104B4000120170911301809114019091150147E0B9
:104B50000E94B408549880918100882319F08FE353
:104B60000E94CD051092810010926F0020911201D9
:104B7000309113014091140150911501DA01C901DE
:104B80000197A109B109813F9048A105B10508F03D
:104B900096C0AAE0B0E00E940634685F7F4F8F4F56
:104BA0009F4F23E096958795779567952A95D1F73E
:104BB000660F771F709375016093740154980E947B
:104BC000190A16BC109212011092130110921401CE
:104BD00010921501F1E0F5BBF0936E001092770191
:104BE0001092760164E06BBB8091680084608093D2
:104BF0006800789480916D00806180936D001982C7
:104C00000E94120AA8954F9902C081E08A83809180
:104C10006D0084FF05C099819F5F99839A3F81F75A
:104C200015BC80916D008F7E80936D00809168002F
:104C30008B7F8093680086B5809312010E94FA04EE
:104C400084E50E94CD050E945D06E0917401F0911B
:104C50007501FD83EC8360911201709113018091C5
:104C600014019091150128EA31E640E050E00E94DD
:104C70001634EC81FD81612C712C43015F01C12C44
:104C8000D12CE12CF12C00E010E00E946A344901A3
:104C90004F835E831B012C018C819D81803891059F
:104CA00020F107E023E745EFB4018F81952F0E94A3
:104CB000BD0799819A3F91F58FE30E94CD0510922F
:104CC0006E0080ED97E00E941E0B6A81860F49F40A
:104CD00080911E01833028F48B8181508B83811158
:104CE000DBCE2796E2E10C94F23484E6A82EB12CB8
:104CF000C12CD12CE12CF12C00E010E094014F816B
:104D00005E81B101C2010E946A34F22FE42F07E0F4
:104D100023E747EF6F2F732F8E2FC8CF94014F815A
:104D20005E81B101C201263E354B41055105610549
:104D300071058105910519F210F20E94010586E6C0
:104D40000E94CD050E945D0694014F815E81B101F4
:104D5000C20154012115FAEC3F07FAE94F07FBE3C2
:104D60005F076105710581059105F1F0E8F06A01C1
:104D70007101820120E030E04AE85DE568E775E412
:104D800083E691E00E946A34F22FE42F07E028E4E2
:104D90004AEF6F2F732F8E2F952F0E94BD078AE742
:104DA0000E94CD0554988BCFCF80DE8071018201A7
:104DB00020E030E44AE750E163EF7AE580E090E0FC
:104DC0000E946A34F22FE42F07E028E44DEFE1CF90
:104DD0001F920F920FB60F9211248F939F93AF9350
:104DE000BF9378948091120190911301A0911401C6
:104DF000B09115019F5FAF4FBF4F80931201909309
:104E00001301A0931401B0931501BF91AF919F912D
:104E10008F910F900FBE0F901F9018951F920F92B9
:104E20000FB60F9211248F9386E085BD8F910F905E
:104E30000FBE0F901F9018951F920F920FB60F92F2
:104E40001124A8951092810015BC0F900FBE0F90F1
:104E50001F9018951F920F920FB60F9211242F9347
:104E60003F938F939F938091760190917701892B47
:104E700011F481E085BD2091760130917701809118
:104E80007401909175012817390730F015BC809195
:104E90006D008F7E80936D008091760190917701F7
:104EA000019690937701809376019F918F913F9126
:104EB0002F910F900FBE0F901F9018958C3008F017
:104EC0008C50811109C08AE092E00E9479060E940C
:104ED0002D060C94A8040895813019F48EE991E010
:104EE000F4CF823019F481EE91E0EFCF833019F4E2
:104EF00086ED91E0EACF843019F48FE790E0E5CFBA
:104F0000853019F484E790E0E0CF863019F48DE61F
:104F100090E0DBCF873019F485EC91E0D6CF883074
:104F200019F486EB91E0D1CF893019F485E991E04D
:104F3000CCCF8A3019F488EF91E0C7CF8B3039F6A7
:104F40008DEE91E0C2CF0F93CF938FE790E0E4D343
:104F5000C0E01092250160E082E0F3D3809125014A
:104F6000883009F04EC00E94F30483E40E94CD050E
:104F70000E945D066091830170918401809185019A
:104F80009091860103E026E4409192010E94BD07C2
:104F90000E942D0660918F01809190011CDB9093FF
:104FA0008C0180938B010E94FA0482E291E00E94BE
:104FB000790680918B0190918C018A3F2FEF9207A7
:104FC000E0F422E044E06EEF0E949F080E942D066C
:104FD0008C2F19D888EE93E00E941E0B81110AC015
:104FE00080911E01843030F48C2F14D8C82F8A3F52
:104FF00008F4AFCFCF910F9108958FE30E94CD05B4
:10500000E5CF0E9459060E94FA04E0CF0895A5E07A
:10501000B0E0EDE0F8E20C94D63481EE91E07CD380
:1050200080E18093800010926F0081E090E0909387
:1050300089008093880010928B0010928A0083E090
:1050400086BB1092820088E08093810015B891E1C0
:1050500094B988B989E087B9229A80938100312C6C
:1050600020E03AE0398341E04D83812C912C5401BA
:10507000839451E15C83832D90E00A966EE170E0A9
:105080000E949A336B83F62E621761F00E94AD0482
:1050900081EE91E00E94790610E01F1508F4DAC055
:1050A0000E942D068D8169810E947A33A92FB0E07C
:1050B000A50194010E9406346B017C018C81823130
:1050C00050F0652D762D872D902F0E94AD33C60EA2
:1050D000D71EE81EF91E0E94F3049D812981212C10
:1050E000921306C081E03C81323108F480E0282E22
:1050F0002A828CE3211005C04C818EE3463108F0F2
:1051000082E50E94CD050E9421064C81C701B601AF
:105110000E94B408C701B6017E5E85489F4FA70173
:105120009601220F331F441F551F0E94AD33CA0141
:105130004F3F510509F008F492C08DE08093810043
:1051400080E094E02C01712C612CCA01B901A3010B
:1051500092010E94AD332150310930938900209390
:1051600088008091880090918900892B31F481E03A
:1051700090E090938900809388000E942D060E9401
:10518000FA0486E60E94CD050E942106009188005F
:105190001091890060E079E08DE390E0A301920135
:1051A0000E94AD33A4E6B0E00E9406340F5F1F4FAB
:1051B000980150E040E00E94AD3329013A01A4E695
:1051C000B0E0A70196010E940634A3019201261BBC
:1051D000370B480B590BCA01B90105E228E44EEF21
:1051E0000E94BD078AE70E94CD050E942D0680ED32
:1051F00097E00E941E0B282F811151C080911E0143
:10520000811101C0232D80911E018B30B8F4809153
:105210001D0187FD88C03D81830F90E03981632F98
:1052200070E06F5F7F4F0E949A338D83822F0E94C0
:105230000A20382E4FEE481708F056C01092810011
:105240001092800088E087B914B822982596E2E190
:105250000C94F2348EE20E94CD051F5F1ECF4034C5
:10526000510530F08CE08093810080E091E06ACFBE
:105270004830510530F08BE08093810080E490E06D
:1052800061CF892B31F08AE08093810088E090E043
:1052900059CF89E08093810081E090E053CF883C32
:1052A00068F68135C8F1222029F13C8131503C83D8
:1052B000C501B4012AE030E040E050E00E94AD3387
:1052C00049015A01C701B6010E94AD33CA01B901B3
:1052D0002AE030E040E050E00E94AD336A834AE0CB
:1052E00049832A812D83312C2B815C2C6D2C7E2CC3
:1052F0000F2DC1CE5C815631E0F45F5F5C83563187
:1053000011F485E18983AAE0B0E0A50194010E942F
:1053100006344B015C01E5CF8B3018F09D819F5F17
:105320009D8320E070CF8F5F4981840F5D81850F61
:1053300074CF5AE0598381E08A83812C912C5401E7
:10534000839491E19C83CDCFB0E0A0E0EAEAF9E25A
:105350000C94D83486ED91E0DFD183E28093800015
:1053600010926F008FEF90E090938B0080938A00F3
:1053700083E086BB1092820015B881E184B988E091
:1053800088B989E087B9229A21E030E0309389001A
:10539000209388008093810010E080E0D2E300E059
:1053A00094E6C92ED12CE12CF12C88248A9423E098
:1053B000922EA12CB12CD817A1F1D43608F0D456D6
:1053C0002D2F30E0AFEFB3E00E94F1336E5C7F4FE2
:1053D0008F4F9F4FA70196010E94AD3329013A01DB
:1053E00030938B0020938A000E94F304A8EEB3E070
:1053F000A30192010E94063461507E4F8F4F9F4F50
:10540000A50194010E94AD33C90125E045E26FEF8B
:105410000E949F080E942D06093218F08CE30E941A
:105420002A0A80E496E00E941E0B082F8338A0F41D
:1054300080911E018B3080F4C0911D01C7FD1BC0FF
:10544000CD0F0333D0F0C65F10E0812F0E940A20F9
:10545000182F8D2F103F68F088E087B910928100D7
:105460001092800014B82298CDB7DEB7E0E10C941A
:10547000F434DC2FA0CFCC59E3CF002311F0CF5F61
:10548000E3CF8111E1CFE1CFCF93DF9385E991E0C5
:1054900043D181E093E00E946935C82FD0E081E2DA
:1054A0000E94A4048C2F80680E94A40480E20E94C1
:1054B000A4040E94F30424E040E260E08C2F90E01A
:1054C0000E949F080E942D0680E496E00E941E0B19
:1054D000811121C090911E0191111FC090911E0158
:1054E0009B3088F490911D0197FD19C0C90F882346
:1054F00019F08932B0F0CF5FCF778D2F0E940A204C
:10550000D82F803F60F26C2F81E093E00E947635C7
:10551000DF91CF9108958238B0F7D0E0DFCF905877
:10552000E5CFC158E9CF0F931F93CF93DF9385EC5D
:1055300091E0F2D086E093E00E946935C82FD0E078
:105540000E94F3040C2F0C2E000C110BC7FF37C068
:105550008DE20E94CD0523E045E26FEF8827992771
:10556000801B910B0E949F080E942D0680E496E00C
:105570000E941E0B811128C090911E01911126C01E
:1055800090911E019B3088F490911D01C90F8823D2
:1055900019F08932E8F0CF5FC135E4F0C5568D2FA0
:1055A0000E940A20D82F803F58F26C2F86E093E0AB
:1055B0000E947635DF91CF911F910F91089523E0DE
:1055C00045E26FEFC801CECF823878F7D0E0D8CF70
:1055D000C150E2CFCC3E1CF7CB59E1CF813019F45A
:1055E00080E04FCA0895823011F411CD08958330C0
:1055F00011F4AACE0895843011F4A5CC0895853015
:1056000019F40C9414200895863029F40E94B404EF
:105610000C9454200895873011F485CF0895883074
:1056200021F481E10C94CE0C0895893011F42CCF33
:1056300008958A3011F4BEC108958B3011F40C9492
:10564000740C0895FF920F931F93CF93DF9385E11E
:1056500092E062D0D0E0C0E01AE01C0F00E0FF242E
:10566000F394F00E60E08F2D0E947E04023009F06A
:1056700049C08EE30E94CD0584EF810F1C3008F4F1
:10568000812F1CDC1F5F0F2D053049F780E49FE15F
:105690000E941E0B8111D0E090914001913009F4DD
:1056A000D0E0823330F490917B01992371F088230C
:1056B00061F0CC23D9F08C2F91DF10921E01109253
:1056C0001D0185E192E028D080E090911E019A3082
:1056D00068F490911D01992319F097FD16C0D0E050
:1056E000C90F811117C0DF5FD83739F480E0CDB71B
:1056F000DEB7E5E00C94FF34D1E0CC3008F4ACCF59
:10570000CC50AACF0E942106B7CF945FC90F88233F
:1057100099F3D0E0CF5FE7CFCF93DF93EC010E9406
:10572000B404CE010E947906C4E682E00E942A0AEF
:105730004F9902C0C150C9F70E94F304DF91CF9185
:105740000895B0E0A0E0E7EAFBE20C94DF34182F04
:10575000062F862F90E0FC01EE5CFE4FE491FE2EBA
:105760006894F3F8E12FF0E0E15DFE4FC491FC0195
:10577000E15DFE4FD49110928C0110928B0110923A
:105780007F0110928001109281011092820187EFB7
:10579000809391010E946C1A88E088B9F7B8D4B957
:1057A000D5B9812F0E94620A7C01802F0E94620A73
:1057B000E81AF90A14B810925D0110925C0130E009
:1057C00020E05CE2C52EDD24D394DAE064E6B62E58
:1057D00080915C0190915D01843D904350F088E0A0
:1057E00087B988B914B815B8CDB7DEB7E9E00C941D
:1057F000FB34C5B980915C0190915D01892B89F0E2
:10580000F601E21BF30B60915C0170915D01D29F88
:10581000C001D39F900D112479D7E617F70708F040
:10582000A1C0C4B90E941D0A14B880915C01909176
:105830005D01019690935D0180935C0115B80E9413
:105840001F0AA895812F0E94620A9C012E193F0908
:1058500080915C0190915D018B31964020F0253262
:1058600031050CF4BCCF2D3281E038070CF4B0CFF9
:1058700080915C0190915D01019729F4253185E0CB
:1058800038070CF0ACCF80915C0190915D01880FDE
:10589000991FB0E0A0E08093870190938801A093C6
:1058A0008901B0938A01C90168E270E043D7CB0156
:1058B000820F931F0E94371E20918701309188012B
:1058C0004091890150918A01DC01A0D76093870142
:1058D000709388018093890190938A0160937F017E
:1058E0007093800180938101909382010E94FB1A42
:1058F000C0907F01D0908001E0908101F090820102
:1059000086E093E00E946935A8EEB3E0A81BB109D8
:1059100087FDB395A701960183D720E137E240E0E8
:1059200050E01BD720937F01309380014093810189
:105930005093820188E08093250120938301309366
:105940008401409385015093860180919101809359
:10595000920110928E0110928D0100938F0110938D
:1059600090013DCF80915C0190915D010B97C0F05B
:1059700060915C0170915D01B29EC001B39E900D7B
:105980001124C4D66E177F0758F4C4B90E94120AB6
:1059900014B880915C0190915D018C599F4F4ACF62
:1059A000C4B90E94180A14B880915C0190915D01FD
:1059B0000A9640CF0E94B4048DEE90E00E947906D2
:1059C0000E94F30489EA90E00E94790684E093E063
:1059D0000E94693523E040E26EEF90E00E949F084C
:1059E00085E093E00E94693523E040E26EEF90E0AD
:1059F0000E949F0883E093E00E94693523E044E021
:105A00006EEF90E00E949F080E94FA0482EA90E004
:105A10000E94790623E044E06FEF80913C01909171
:105A20003D010E949F080E9401058BE990E00E94C1
:105A3000790623E044E06FEF8091430190914401A7
:105A40000E949F0888E99AE30E941E0B80911E0124
:105A50008B3008F074C080911D0187FDABCF0E9490
:105A6000B40487E990E00E9479068CE093E00E94FC
:105A700069358251990B0E94D4068DE093E00E9413
:105A800069358251990B0E94D40689E093E00E9407
:105A9000693523E046E464EF8251990B0E949F0828
:105AA0000E94F30483E00E94240688E093E00E94B1
:105AB00069358251990B0E94D4068BE093E00E94D5
:105AC00069358251990B0E94D40687E093E00E94C9
:105AD000693523E046E464EF8251990B0E949F08E8
:105AE0000E94FA048DE090E00E9479068EE093E037
:105AF000F8D70E94BF060E94010586E090E00E9450
:105B0000790680E193E0E5D7082E000C990B0E94FE
:105B1000BF0688E99AE30E941E0B80911E018B301C
:105B200070F480911D018F3F0CF444CF8F3F09F436
:105B300096CF88E99AE30E941E0B0C94EE08089514
:105B40000895B0E0A0E0E6EAFDE230C780E48AB95B
:105B50008BB95F9AD6E8D0937A001092C1000E9468
:105B60000A0AC4B7C87084B7877F84BF0FB6F89499
:105B7000A895809160008861809360001092600019
:105B80000FBED093640088E380937E001092B00033
:105B900087E08093B10078940E94C904C1118AC53E
:105BA00084E080931C014F9906C082E00E942A0A7B
:105BB000CF5FCC33C1F78FE59DE6909317018093BB
:105BC0001601CF3130F080E69DE690931701809367
:105BD0001601109237010E94761E88E19FE00FB6F1
:105BE000F894A895809360000FBE90936000CC332A
:105BF00009F461C038E0732E48E1642E54E6C52EE6
:105C000051E0D52E63E3562E71E2472EE2E13E2E9F
:105C10000E94B40477B80E94510C0E94761E0E9424
:105C2000AD040E94CC1080914501882381F00E9430
:105C3000F30487E291E00E94790663E080913A01E3
:105C400090913B010E94AA0888EC0E942A0A0E94B7
:105C5000F3040E946C1A80912501893081F50E941D
:105C6000B4048CE291E00E9479060E94F30463E0A0
:105C700080910501909106010E94AA080E942106C8
:105C800063E080910701909108010E94AA080E9498
:105C9000210663E08091090190910A010E94AA08FF
:105CA0008AEC0E942A0A81E10E94CE0CC091160162
:105CB000D091170186C1C6DC8111FDCF9BCF8AE050
:105CC00093E007D7C82F87E093E003D7C81BC093A2
:105CD000420180E00E94CE0C0E9459068EE992E0BB
:105CE0000E94790683E00E94F2090E94A80442E023
:105CF00061E080E00E94381142E060E081E00E94B3
:105D0000381141E062E080E00E94381141E060E03B
:105D100082E00E94381140E062E081E00E94381188
:105D200040E061E082E00E943811809125018111FC
:105D30000EC00E946C1A60E082E00E943B1B61E092
:105D400082E00E943B1B60E081E00E943B1B0E94BE
:105D5000B4042AE431E03093480120934701809154
:105D60002501863009F585EC0E948D0560E188EFFC
:105D70000E94CF0868E080E00E947E0485E792E000
:105D80000E94790668E081E00E947E0480E491E050
:105D90000E94790662E080914E0190914F010E942D
:105DA000AA080E94A80482CF873071F484EC0E9474
:105DB0008D0560E188EF0E94CF0868E080E00E94D6
:105DC0007E048EE792E0DCCF8830C1F480918F01B1
:105DD00090919001890F9927991F029759F40E9479
:105DE000542080914201882309F44FC4D8E010E088
:105DF00000E038C480E00E948C1F58CF833009F047
:105E0000F1C080912301813009F04EC080E00E94F2
:105E100091076091950180919B010E94831080E71A
:105E20000E9469076091950180919B010E943B1B34
:105E3000809191018D3FA4F40E94FA0484E691E0E0
:105E40000E94790660917F017091800180918101AB
:105E50009091820103E026E4409191010E94BD07E8
:105E60000E94A80480917A01882309F41FCF67B8A3
:105E700077B880E00E944D0630917A01332309F40F
:105E8000B3C380916101313009F04AC30E942B07EE
:105E900020916101213009F03EC32091230121119D
:105EA0003AC30E9414209DCF823081F582E30E9484
:105EB000CD0585E091E00E947906909195013091A1
:105EC000960193130AC080E00E94AD0781E00E9412
:105ED000A40781E00E946907C3CF20919B018091B4
:105EE0009C01281307C080E00E949D0781E00E946A
:105EF000B407EFCF321306C081E0809311010E94F6
:105F00007F07AECF98133CC080E1F7CF8330C1F557
:105F10005092110180919B0190919601891303C0C9
:105F200021E0209311014091950130919C01431390
:105F300003C020E12093110120919701821303C037
:105F400082E08093110180919D01481303C040E2DB
:105F50004093110132130CC030921101981751F087
:105F600083E30E94CD0585E091E00E947906C7CFCA
:105F7000981302C04092110180911101823280F386
:105F800084E892E00E9479068CE692E00E9479060D
:105F90000E94F30480912301805D0E94CD058AE276
:105FA0000E94CD058EE091E00E94790682E592E0A4
:105FB0000E9479060E94A80486E00E948D05C0E434
:105FC000DFE167B84F9BFECFCE010E941E0B8233EC
:105FD00028F490911E01933008F413C333DB811130
:105FE000FDCF16CE843009F059C18091730188230A
:105FF00009F45FC080915901882309F45AC0609167
:106000005601809158010E943B1B80907F01909027
:106010008001A0908101B0908201C09191016091B6
:106020007201809170010E943B1B80914A01909106
:106030004B01A0914C01B0914D01409164015091F0
:1060400065016091660170916701843F31E09307BB
:10605000A105B10538F4443F21E0520761057105FF
:1060600008F0C0EF443F51406105710540F4843FA2
:106070009140A105B10518F030EF30939101809166
:1060800091018C1311C080917F0190918001A091AA
:106090008101B091820188169906AA06BB0630F0EC
:1060A0009CE09093240105C0C817D4F78DE080933D
:1060B000240180917301882361F080915901882324
:1060C00041F04F9906C08091240191E08927809387
:1060D000240168E080E00E947E0480EC0E948D052F
:1060E000809124018C3009F0C2C08CE591E00E94BF
:1060F000790680917301882319F080E70E94CD050D
:106100000E942C0CC82F853090F4A0914701B091CB
:106110004801E82FF0E0EB56FE4F1D969C918081E0
:1061200060E0981362E080E890E00E94B40560E1CE
:1061300089EF0E94CF0888E00E9433068BE691E049
:106140000E947906E0914701F091480160817181D8
:106150008281938103E020E04EEF0E94BD0789E039
:106160000E94330689E40E94CD05E0914701F09139
:106170004801868197818031974208F48BC085E67B
:106180000E94CD05E0914701F091480186819781F9
:1061900080519742978386830E945D06E091470174
:1061A000F091480122E041E46AEF868197810E94E4
:1061B0009F0888E00E94330684E491E00E947906FB
:1061C000E0914701F091480163E0848195810E944C
:1061D000AA0881E080934901E0914701F0914801CC
:1061E00080859185892B91F087E00E944D0687EE8E
:1061F00090E00E947906E0914701F091480122E089
:1062000041E46AEF808591850E949F08E0914701F3
:10621000F091480182859385892B91F087E00E9457
:106220004D0681EE90E00E947906E0914701F091E1
:10623000480122E041E46AEF828593850E949F082D
:10624000C53078F480E00E944D068C2F0E949107A3
:1062500080E491E00E9479068C2F0E945B070E94E7
:10626000A80443E462E485E40E94FE069ACDD0923D
:106270004801C092470185EB90E00E94CA0584E581
:1062800091E00E94790680915901882309F438CF62
:106290008EE634CF83E60E94CD057ECF853009F0AF
:1062A000EBCD68E080E00E947E0480912401C82F3D
:1062B000C07184FF65C080E50E94CD05D092480181
:1062C000C0924701C2E08DE20E94CD058091240179
:1062D000D82FDF70D43009F057C086E791E00E94D4
:1062E000790683EC0E948D058EEB90E0C11168C0A9
:1062F0000E942C0C853090F4A0914701B091480188
:10630000E82FF0E0EB56FE4F1D969C91808160E0F7
:10631000981362E080E890E00E94B40560E189EFA4
:106320000E94CF0888E00E94330688E00E9433066E
:106330008091240185FD60C08CE391E00E94790684
:10634000E0914701F091480162E0828593850E94C7
:10635000AA08E0914701F0914801668584850E9472
:106360003B1B88E00E9433060E94930687E00E9450
:10637000AB06D43009F0CDC04FE367E48FE374CFB0
:106380008EE40E94CD059FCF85FF1DC084E40E944E
:10639000CD05CF5FD330D9F480E791E00E94790634
:1063A00081EC0E948D058BE091E0C13049F087E1DE
:1063B00091E0C23029F087EE90E0C33009F098CF29
:1063C0000E94CA0595CF85E40E94CD05E3CF8BE7F7
:1063D00091E00E94790682EC0E948D0587ED90E0A5
:1063E000C13071F38DED90E0C23051F3C33009F04C
:1063F0007FCF85EC90E0E4CFE0914701F091480138
:106400008F70843009F44EC0668584850E943B1BE2
:106410000E94930660E085E00E947E0489E40E9469
:10642000CD050E945D06E0914701F091480122E010
:1064300041E46AEF868197810E949F0886E391E09C
:106440000E947906E0914701F091480162E082855F
:1064500093850E94AA08E0914701F0914801808548
:106460009185803C9241E0F480E00E944D0689E4F1
:106470000E94CD050E945D0622E041E46BEF90E0B2
:1064800080E00E949F0886E391E00E947906E091F7
:106490004701F091480162E0808591850E94AA0839
:1064A00080E065CF84819581892B09F4B3CF80E0AA
:1064B00090E00E947906E0914701F091480122E0C6
:1064C00041E46AEF848195810E949F08A3CFC111A6
:1064D00003C080E00E94330680E00E944D068C2FAE
:1064E0000E94910780E491E00E9479068C2F0E941F
:1064F0005B070E94A804CF5F80912301C81738F37F
:1065000044E467E483E5D33009F0AECE43E467E4C6
:10651000AACEC0E0F1CF40E0692F0E94481FC6CB51
:106520009091620124E0929FD0011124A255BE4FA8
:1065300024E0829FF0011124E255FE4FED90FD9082
:106540000D911C914081518162817381282F4E15DC
:106550005F056007710708F4292F980FC3E0C91B76
:106560003230E1F0C091630134E0C39FD0011124C7
:10657000A255BE4F84E0289FF0011124E255FE4F42
:106580004D915D916D917C9180819181A281B381CA
:1065900084179507A607B70708F0C22F1C2F16957A
:1065A000D2E0DC1B02E0C11101C001E0812F0E949A
:1065B0001E0680E091E00E9479068D2F0E941E0643
:1065C00080E091E00E947906802F0E941E0680E004
:1065D0000E94330681E0C11180E00E94350782E00D
:1065E000811B0E94350762CB8CE592E00E94790600
:1065F0000E94F30489E892E00E94790684E892E020
:10660000D7CC811105CB9111DFCCEBCBFC01EA0D8E
:10661000FB1DC491C03209F4282E019682319105E8
:10662000A9F7DD2341F19D2F9770F92E11F40E94F7
:10663000B40460E08F2D0E947E040E94A804A895F7
:10664000DF5FD770F12CE12CE21410F1CC23C9F0FC
:10665000020D111DF801EB5CFE4FE491E03211F4E4
:106660000F5F1F4F90E080E021E1222E98012B5C0C
:106670003E4F5901CBCF80E197E20E941E0B882349
:1066800091F280E197E20E941E0B0E94740CC0CA36
:10669000F501EE0DFF1DC491CC2399F3CF3F31F4EA
:1066A0000E9421062FEFE21AF20ACECF8C2F0E9411
:1066B000CD05F8CF0E94AD0489E492E00E947906EE
:1066C0008BEC0E942A0A0E94740C90E080E0CDB707
:1066D000DEB7E2E187C1DB018F939F9397D0BF9133
:1066E000AF91A29F800D911DA39F900DB29F900D21
:1066F00011240895991B79E004C0991F961708F09A
:10670000961B881F7A95C9F780950895AA1BBB1B15
:1067100051E107C0AA1FBB1FA617B70710F0A61BA1
:10672000B70B881F991F5A95A9F780959095BC01C2
:10673000CD01089597FB072E16F4009406D077FD3F
:1067400008D0E4DF07FC05D03EF4909581959F4F7B
:106750000895709561957F4F0895A1E21A2EAA1BA6
:10676000BB1BFD010DC0AA1FBB1FEE1FFF1FA21701
:10677000B307E407F50720F0A21BB30BE40BF50BFE
:10678000661F771F881F991F1A9469F76095709587
:10679000809590959B01AC01BD01CF010895052E18
:1067A00097FB16F400940FD057FD05D0D6DF07FCF9
:1067B00002D046F408C050954095309521953F4F42
:1067C0004F4F5F4F089590958095709561957F4FDD
:1067D0008F4F9F4F0895EE0FFF1F0590F491E02D0E
:1067E0000994A29FB001B39FC001A39F700D811DAA
:1067F0001124911DB29F700D811D1124911D0895CA
:10680000F0DFB7FF0895821B930B0895EADFA59F81
:10681000900DB49F900DA49F800D911D112408959B
:10682000B7FFF4CFF3DF821B930B0895E894DF9357
:10683000CF93FC01DB01D5DF7F936F93E9019A01D0
:10684000AC01BF93AF933F932F93DF01CADF26F4D0
:106850006C1B7D0B820B930B9E01EB01FC01DDD0C9
:10686000AF91BF912F913F91D8D0BE01CF01F901D7
:106870002F913F91CF91DF910895689401C0E894E2
:10688000F92FF12B0AF027C0A0E0B0E0E9E4F4E32F
:1068900093C0092E05941AF479D0112392F4F0E8EC
:1068A0000F26FFEFE094F09400951095B094C094FB
:1068B000D094A194BF0ACF0ADF0AEF0AFF0A0F0B98
:1068C0001F0B13D007FC62D0CDB7DEB7ECE090C051
:1068D000689401C0E8948F929F92CF93DF9305D084
:1068E000DF91CF919F908F90089588249924F4018F
:1068F000E401B0E49F93AA279A158B049C04ED054C
:10690000FE05CF05D007A10798F4AD2FDC2FCF2FC0
:10691000FE2FE92D982C892E982F872F762F652F03
:10692000542F432F322F2227B85031F7BF9127C061
:106930001B2EBF91BB27220F331F441F551F661FFD
:10694000771F881F991F881C991CEE1FFF1FCC1FE3
:10695000DD1FAA1FBB1F8A149B04EC05FD05CE0595
:10696000DF05A007B10748F08A189B08EC09FD096C
:10697000CE09DF09A00BB10B21601A94E1F62EF4C9
:106980009401AF01BE01CD01000C08956095709592
:106990008095909530954095509521953F4F4F4F5C
:1069A0005F4F6F4F7F4F8F4F9F4F08952F923F92B2
:1069B0004F925F926F927F928F929F92AF92BF920F
:1069C000CF92DF92EF92FF920F931F93CF93DF93BB
:1069D000CDB7DEB7CA1BDB0B0FB6F894DEBF0FBE18
:1069E000CDBF09942A88398848885F846E847D8465
:1069F0008C849B84AA84B984C884DF80EE80FD8067
:106A00000C811B81AA81B981CE0FD11D0FB6F894DC
:106A1000DEBF0FBECDBFED010895E3DE460F571F69
:106A2000C81FD91F08F431960895BB27FA01A62F75
:106A30006217710581059105330B30FB66F0AA27BB
:106A4000660F771F881F991FAA1FA21710F0A21B9D
:106A500063953850A9F7A05DAA3308F0A95DA1930A
:106A600036F7B111B1931082CA0123C045325105E6
:106A700018F4423008F004C0FB011082CB010895E5
:106A8000BB27FB015527AA27880F991FAA1FA41708
:106A900010F0A41B83955051B9F7A05DAA3308F0FC
:106AA000A95DA193009779F7B111B1931192CB0130
:106AB00000C0DC01FC01672F71917723E1F7329769
:106AC00004C07C916D9370836291AE17BF07C8F3C9
:106AD0000895F999FECF92BD81BDF89A992780B5A6
:106AE0000895A8E1B0E042E050E013C0262FF999E4
:106AF000FECF1FBA92BD81BD20BD0FB6F894FA9AA1
:106B0000F99A0FBE01960895F1DF272FF0CFDC012F
:106B1000CB01FC01F999FECF06C0F2BDE1BDF89AA8
:106B2000319600B40D9241505040B8F70895F89452
:026B3000FFCF95
:00000001FF
