:1000000078C1000088C1000086C1000084C10000E2
:1000100082C100000C946F227EC1000098C60000CF
:100020007AC1000078C100000C94A1180C945322EE
:100030000C9461220C947B186EC100006CC100000E
:100040000C942D2268C1000066C1000064C100004C
:1000500062C100007DC600005EC100005CC10000FE
:100060005AC1000058C10000E62FF72F903009F464
:100070009395E5B8C4B8B6EFB0937A00A5E0A09325
:100080007B00A8E0A093810010928000AFEFA093C6
:100090008500A0938400A6E0A093360010928B0008
:1000A00010928A00B3E0AFE3A91B51E0392F33303F
:1000B0002AF0A05CBC4F53953350F9CFB093890020
:1000C000A0938800A0917A00A4FFFCCFB6EBB09378
:1000D0007A00A2E0A0936F00A9E0A093810062E003
:1000E000A0E0A0937B00A1E0A09353008895E5B821
:1000F000C4B884FF1AC0A8E10000AA95F1F7EF93F5
:10010000FF93E7B1F8B1A4E0C2FCA2E0C0FCA1E01B
:10011000BF2FBA2BAE2BB8B904B9A7B9E7B9F8B954
:10012000FF91EF910BC00C947300ACE10000000054
:10013000AA95F1F725B9E5B8000004B9A0918400AB
:10014000A0918500B0918900A395AB1760F7A091AD
:100150007A00A4FFF3CFB6EBB0937A006A9571F7FB
:100160006091780070917900308186FD630F619312
:10017000308186FD731F80FF7193652F4A9579F753
:1001800010926F0010928100B6E0B0937A0008954B
:10019000010410090A0C556E6B616C696272696525
:1001A000727421205A756DFF4B616C6962726965CA
:1001B00072656E206B6C656D6D652033FF50696EE6
:1001C0006E65207A7573616D6D656E20756E642045
:1001D000737461727465206D697420646572205453
:1001E000617374652E204265737461657469676517
:1001F0002064656E2053656C62737474657374203B
:100200006D69742064657220546173746520696E31
:100210002032732E205472656E6E652064696520ED
:1002200050696E6E652E20536F667477617265201B
:10023000756E6420446F6B756D656E746174696F63
:100240006E20697374206175662073766E3A2F2F65
:10025000206D696B726F636F6E74726F6C6C657218
:100260002E206E65742F7472616E736973746F7271
:10027000207465737465722000B903870358032ED8
:10028000030703E402C302A4028802000014002949
:10029000003E005300690080009700AE00C600DFFA
:1002A00000F80012012D01490165018201A001BE83
:1002B00001DE01FF012102440268028E02B502DE66
:1002C000020903350364039403C803FE0337047370
:1002D00004B404F90443059305EA054906B3062965
:1002E00007AE074808FF08DE09FD0A930C480F997E
:1002F0001B0011241FBECFEFD8E0DEBFCDBF21E031
:10030000A0E0B1E001C01D92AA3BB207E1F70E9454
:10031000D82D0C94E63574CE80FD5C9A80FF5C98F5
:10032000549A00005D9A559A589859985A985B9833
:1003300064FD589A509A65FD599A519A66FD5A9AE9
:10034000529A67FD5B9A539A00005D987ED387FDB1
:1003500010C05D9A589859985A985B9860FD589AC1
:1003600061FD599A62FD5A9A63FD5B9A00005D989F
:100370006CC3089580913B01809300018091A1019D
:10038000809302010895CF93C82F80913B018F5F26
:1003900080933B016C2F81E0BFDF4ED3C83068F4FF
:1003A00082E5C630B0F4C23089F0C330B1F0C1305C
:1003B000E1F48EE314D38CE70CC085E7C43E49F02A
:1003C000C43F69F0CD3289F48DE203C08CE707D3D6
:1003D0008CE305D3A895CF9108958CE7EBCF8FE4FC
:1003E000FED288E6FCD28DE6F4CF8C2FF2CF8F5C64
:1003F000CACF089580E2C7CF0895CF93C82F1C16A7
:1004000014F0CF910895F6DFC150F9CF8DE3BBCF43
:100410000895682F80E080DF0FC3089560933B014B
:10042000813021F480EC860FF4CF089580E8FBCF73
:100430006091000180910201F1CF08958DE0CFD24B
:100440008AE0CDC208951092A10180E8E2DF109207
:100450003B01F4CF089581E0DCDF82E0F8D2F3CFF6
:10046000089581E08093A10180ECD3DF10923B01DD
:10047000E5CF089582E08093A10180E9CADF109260
:100480003B01DCCF089583E08093A10180EDC1DFC3
:1004900010923B01D3CF0895CF93DF93EC01899164
:1004A000811103C0DF91CF9108956DDFF8CFCF9315
:1004B000DF93EC01FE018491982F9F7719F063DFA1
:1004C0002196F8CFDF91CF910895CF93DF93EC0180
:1004D000CE010E94B835982F9F7719F054DF2196EE
:1004E000F7CFDF91CF9108950F931F93CF93DF93B1
:1004F000EC0128968C010F5F1F4F0E94B83543DF37
:10050000C8010C171D07B1F7DF91CF911F910F9113
:10051000089584E19CD283E37CDF82E37ADF82E08A
:1005200096D280E276DF80E274DF8AE272DF88E0D2
:1005300070DF86E06EDF82E06CDF8DDF81E087D2E6
:100540008CE067DF88E465DF82E690E0CDDF80E560
:1005500060DF8AE590E0C8DF88E55BDF8AE690E04F
:10056000C3DF88E756DF82E590E0BEDF80E751DF3A
:100570008AE490E0B9DF80E44CDF82E490E0B4CF1D
:10058000089590913B0180E1891B37CF0895CF9367
:10059000C82FF7DF8091A1018F5F8093A101823086
:1005A00060F081E08093A10180933E016C2F8091E7
:1005B000A10134DF43DFCF91089510923E01F6CFC1
:1005C000E6DF28D38091A101833008F037CF08956A
:1005D0003ADFD7DF38CF089544DFD3DF42CF089525
:1005E00008950F9383E891E070DF409185014D3FBE
:1005F0006CF4609173017091740180917501909118
:10060000760103E026E4EAD00F9108958FE3BBDE84
:10061000FBCF909119019F70923071F4D1DF82E786
:1006200090E053DFE0913C01F0913D0122E044EF86
:100630006FEF84819581B4C1089597FF09C08F93AE
:100640009F938DE2A0DE9F918F91909581959F4F12
:1006500061E271E04AE050E00E9485351DCF0895C7
:10066000ECDF01C0EADFC6CE0895EF92FF920F9350
:100670001F93182F062FF42E82E791E026DFEE2439
:10068000E0913C01F0913D018685E81611F4812F3F
:1006900009C08485E81611F4802F04C08585E8160A
:1006A00011F48F2D70DEE3948E2D833049F71F9166
:1006B0000F91FF90EF900895682F80E092E06623FD
:1006C00009F491E0623009F481E008950F93082F56
:1006D000E2EAF1E0880F880FE80FF11D6081718177
:1006E00082819381643671058105910570F42091B2
:1006F000010127FD0AC0802FDFDF692F0E943C1E09
:100700006EEF23E044EF4CD104C04FEF04E024EF40
:1007100065D070DE0F910895863058F4E5E9F1E078
:10072000E80FF11DE80FF11D8081918163E043D155
:1007300061CE08951F93182F80916F01882319F0BF
:1007400059DE80E020DE8DDE89E691E0BEDE812F7D
:1007500082958F70E1DF812F8F70DEDF1F9108950A
:1007600080910D0182958F7019D080910D01837059
:100770001CD080910D01DECF0895E9E8F1E0E80F8B
:10078000F11D0895CF93F9DF9081C681C91710F448
:1007900005D001C013D02EDECF910895EEDF8F93E8
:1007A000808125DE8F9101C008958F9385E391E0CC
:1007B0008CDE8F91E2DF86811ACE0895DEDF8F9383
:1007C000868115DE8F9101C008958F9381E391E0BA
:1007D0007CDE8F91D2DF80810ACE0895AEE0B0E05A
:1007E000E4EFF3E00C942535142F622E702E6B018C
:1007F0007C010F7080E389838A838B838C838D8354
:100800008E83F7FE40C08DE2BEDDF094E094D0947C
:10081000C094C11CD11CE11CF11C68EE862E63E063
:10082000962EA12CB12C033041F150E1852E57E2D8
:10083000952EA12CB12C043001F140EA842E46E81B
:10084000942EAA24A394B12C0530B9F030E4832E61
:1008500032E4932E3FE0A32EB12C063071F074E603
:10086000872E912CA12CB12C073039F420E8822E50
:1008700026E9922E28E9A22EB12C9AE0292E312CBD
:10088000412C512C12C075FEC8CF8BE27CDDC5CF48
:10089000C701B6016B5F7F4F8F4F9F4FA201910140
:1008A0000E94023469017A011F5FC814D904EA0466
:1008B000FB0470F781E1810F9BEA899F812D112450
:1008C000A82EA69486E0811B899F112D11241695D0
:1008D000912F990F190F811B182F4E0187E0880E59
:1008E000911C2AE0A401C701B6010E946435F401FD
:1008F00001900020E9F731977F01E818F9089E2C54
:100900006701DD24812F90E004968C159D0514F479
:10091000A3941D5F8A2D90E0865C9F4F0E94B8359E
:10092000A82E74FE29C0901638F50E198E2C811A47
:10093000800E181424F08EE226DD012F0E191111FD
:1009400002C088EF882E912C10E0C00ED11EE82C3A
:10095000082C000CFF08E92DF0E0EC15FD0574F003
:10096000AA2011F08A2D0FDD662011F0862D0BDDF7
:100970002E96E2E10C94413500E0D8CF3696E01B8C
:10098000F10B81E090E08C0F9D1FE80FF91F808133
:10099000FADC93949E141F04F1F68EE2F4DCDBCFB4
:1009A0000F93362FBC0190E080E0022F242F432FBD
:1009B00015DF0F9108950F93062FBC0190E080E0A2
:1009C00026E54DEF0BDF0F9108950F93042F28E4D8
:1009D00040E004DF8AE7D7DC0DDD0F9108958F93A7
:1009E0002F932AE080953B9A089410F4439802C014
:1009F000439A000020D027D086952A95B1F72F91F1
:100A00008F91089503D002D001D000D000D003D040
:100A100002D001D000D000D003D002D001D000D04D
:100A200000D0A89503D002D001D000D000D003D0D0
:100A300002D001D000D000D003D002D001D000D02D
:100A400000D003D002D001D000D00000089590E083
:100A5000893C28F0885C48EC849FC00111240097F1
:100A600009F4089520918100277019F0DADF0197C9
:100A7000F6CF8130910519F002973EE303C037E1CC
:100A800080E090E02091B200230F2093B30042E079
:100A90004093700027E023BF889526E023BF109283
:100AA0007000A895DCCF8F9384E0D1DF07C08F93CF
:100AB00082E0CDDF03C08F9381E0C9DF8F911F9368
:100AC000182F106410937C00E12FE07880912C01A6
:100AD000E81759F0E0932C01AEDF8EE980937A009D
:100AE00083E083BF889582E083BF20E030E0A901E6
:100AF000E0E01FC08EE980937A0083E083BF889591
:100B000082E083BF6091780070917900260F371FD3
:100B1000411D511DE43061F480912E01803041F07F
:100B200084E02030380720F417FD02C01068CACFD7
:100B3000EF5F80912B01E817E8F260912F0170912F
:100B4000300117FF04C060912D0170912E0180E0EB
:100B500090E00E94C0332FEF33E040E050E00E946D
:100B60000234B901CA0120912B0130E040E050E08D
:100B70000E940234C9011F9108959B01281B390B63
:100B800050F0C9010895BC0180912F01909130016E
:100B90006817790718F4861B970B089580E090E09A
:100BA0000895EF92FF920F931F93CF93DF93F82E48
:100BB000E92EC5E64F9B1CC0CF2DDE2D15E500E0CC
:100BC000D7FD10C082E043DF110F4F9B1F5F1F73E3
:100BD0001F3399F4011103C0CF2DDE2D04E00F5F08
:100BE000083C78F0802FCDB7DEB7E6E00C944D35A9
:100BF00081E02DDFC150F1F6DFCF111102C00111EC
:100C0000F1CFA8951C161D06DCF62A97C9F6CFEF82
:100C1000DFEFD6CFCF93AEDBC82F80913E01882384
:100C2000C1F0813049F4C13039F46FE0F7DB8BE279
:100C3000AADB6FE081E0F2DB80E49FE1B2DFC1304C
:100C400039F480913E01813019F460E0E7DB99DCF2
:100C5000EFDBCF91089580E493E00E94B835382F00
:100C600081E493E00E94B83520913301230F309145
:100C70003401381F209316013093170183E0283E7A
:100C8000380720F0C901885E934002C080E090E000
:100C900062E370E00E94DB33683008F067E0E9E768
:100CA000F2E0E60FF11DE60FF11D459155912591FA
:100CB000359162E3681B421B530B649FC001659F23
:100CC000900D1124499662E370E00E94DB33620FBD
:100CD000731F709372016093710182E493E00E942C
:100CE000B835992787FD9095609133017091340153
:100CF000860F971F90932E0180932D0190936E0184
:100D000080936D010895CF93DF9324E130E0B90122
:100D10000E94DB33DC01EBE8F2E0E60FF71FE60FA1
:100D2000F71FC591D591459155914C1B5D0B4A9F7D
:100D3000C0014B9F900D5A9F900D1124B9010E9444
:100D4000DB336C0F7D1FCB01DF91CF910895189598
:100D5000189540911801A0913C01B0913D01E9E83E
:100D6000F1E030E020E0822F2417B0F451911C967E
:100D70009C911C97591719F05581951303C02F5F4B
:100D80003F4FF1CF220F331FF901EB56FE4F208169
:100D90003181293E334008F084E1089510921A0110
:100DA000109218011092680110924E0110921901D0
:100DB00010923A0110926F01E3E5F1E01082118286
:100DC0001282E3E7F1E0108A82E0818B1092010148
:100DD00017861686148215821682178281EF838BFE
:100DE00008958FE4FCDD86E4FADD86E4F8DD26DB99
:100DF0005E980BDE90E080E0D4CE08951F93CF93F1
:100E0000DF93162F98E097B998B9E82FF0E0E057F4
:100E1000FE4F949195B9262F281BE20FF11D27FD57
:100E2000FA95E491E92BE4B94ADEEC01812F47DE23
:100E3000AC0120912F013091300136952795C901E1
:100E40000397BE01625E7F4F8617970778F4255E91
:100E50003F4FC217D30750F4BA01625E7F4F861727
:100E6000970720F481E04217530708F080E014B898
:100E7000DF91CF911F910895CF9361E080E0BEDFB5
:100E8000C82F62E080E0BADFC80F62E081E0B6DF21
:100E90008C0FCF910895AFE0B0E0E1E5F7E00C945E
:100EA0002535B82E10921A01807FB9F4E5DF833022
:100EB00081F4D1DA8CE492E008DBD3DA8FE363DAF1
:100EC00080ED97E06EDE8B30B0F4C5DA83E091E020
:100ED000FCDA2F96E2E10C94413506E910E0BBDA2A
:100EE0008EEA91E0F2DAC8DF833009F068C01F5F54
:100EF000143008F465C0B5DA0E9402198FEB90E057
:100F0000E4DA60E08AE193E00E94C53560E08BE1BD
:100F100093E00E94C53560E089E193E00E94C53509
:100F200060E082E00E943C1E6C019A83898361E04C
:100F300082E00E943C1E7C019C838B8360E081E008
:100F40000E943C1E8C019E838D8323E040E26EEF65
:100F5000C60126DD23E040E26EEFC70121DD23E07C
:100F600044EF6EEFC8011CDD2AE5C216D10424F05F
:100F700084E190E09A83898369818AE193E00E9409
:100F8000C5358AE5E816F10424F084E190E09C83FD
:100F90008B836B818BE193E00E94C5350A35110587
:100FA00024F084E190E09E838D836D8189E193E05C
:100FB0000E94C53582E080933E012CDE06C010E021
:100FC00088E245DD015009F08ACFEB2DEF70EF8705
:100FD000E13009F04CC0EE24E394F12C78EB872E3D
:100FE00072ED972E77E4A72EB12CE2E0DE2E08E01A
:100FF000F0E23F2EC12C1E2D50E3252EEDDAE8DA6B
:1010000084E5C1D9C70124DBF5D9113009F0C3C18A
:1010100082EF90E05ADA64E08091330190913401DC
:10102000CADC1FDA8DEE90E050DA80917101909168
:1010300072010EDB8EEB80932B0107B908B914B84F
:1010400015B888EE93E0ADDD143011F08B3020F44C
:10105000C39484E0C812D2CF88EE93E0A2DDEFEF14
:10106000EE1AFE0AF8E0EF16F10409F0C3CF18E714
:1010700003DF882341F0B0DA8FE392E026DA84E6DA
:10108000E6DC1150A9F7E7D988EB90E01EDA23E0FF
:1010900044EF6FEF809131019091320181DCE1D911
:1010A00081EB90E012DA23E044EF6FEF809138019A
:1010B0009091390175DC82E080933E01ABDD1092A6
:1010C0001A01C9D98DEA90E000DA60E082E00E945E
:1010D000B51580907B0190907C01A0907D01B0902F
:1010E0007E019C868B8661E082E00E94B515C090EF
:1010F0007B01D0907C01E0907D01F0907E01DE8646
:10110000CD8660E081E00E94B51500917B011091D1
:101110007C011E830D8362E080E00E94B515809102
:101120007B0190917C019C838B8362E081E00E9433
:10113000B51580917B0190917C019A87898761E048
:1011400080E00E94B51580917B0190917C019A838B
:1011500089832F85213029F020913701223009F031
:10116000FDC1029698878F83C4017CDAC6017ADAC2
:10117000B801110F880B990B03E026E444EF2EDB36
:101180008E010F5F1F4F9E01215F3F4F7801F701D6
:10119000819191917F010A97853B9105C8F42E17A3
:1011A0003F07A9F749E3C42E43E0D42EF80160813C
:1011B0000E5F1F4F6E5EC6010E94C535FFEFCF1A4E
:1011C000DF0A0E151F0591F74CD985EA91E07DD90C
:1011D00082E080933E011EDD0E946E2A2F85213021
:1011E00029F080913701823009F0C0C034D980E005
:1011F000FED88BE591E069D982E0F9D882E390E0EE
:1012000064D920E4F22E10E03AE0832E912CA12C38
:10121000B12CC4DD10921A0160E082E00E94B51585
:101220000091850120917301309174014091750105
:1012300050917601073F0CF499C1009385012093EA
:101240007301309374014093750150937601073F09
:1012500009F094C120563109410951092039354519
:101260004105510508F08AC160918701709188019C
:10127000CB018B569F4F8B32914008F07FC11F5F8F
:10128000153008F47CC180E493E00E94D335E3D8A4
:101290008BE290E01AD98091870190918801CDD995
:1012A000DADC88E088B989E087B980E284B982E035
:1012B00006DC853D9340DCF714B810922E011092A5
:1012C0002D0182E0FCDB7C0180916D0190916E012B
:1012D00090932E0180932D0182E0F1DB6C01CC0C08
:1012E000DD1C10922E0110922D0182E0E8DB4C01F2
:1012F000A0906D01B0906E01B0922E01A0922D01D0
:10130000B0D884E290E0E1D882E493E00E94B8355E
:10131000182FD701A80DB91DAC19BD0995010E9460
:101320004F3496010D2C000C440B550B0E942434B5
:101330001D5F120F612F82E493E00E94C535812F5B
:10134000012E000C990B79D986DC82E080933E0156
:1013500061DC109237018CE05CD889E393E00E9455
:10136000B835682F8CE393E00E94C53589E18093FE
:101370002B0180E00E94912D6ED883E091E0A5D8EA
:1013800070D885E392E0A1D810921A0182E0809390
:101390003E0140DC9ECD123081F520912F0130912D
:1013A0003001A8E5BBE10E94403424EC36E340E084
:1013B00050E00E94243429013A0181E085B9F5E02A
:1013C000F4B980E070DB841995099A83898381E1FF
:1013D00084B980E068DB841995099C838B8384E061
:1013E00085B984E184B981E05EDB841995099E8327
:1013F0008D8387ED90E069D833C0133049F5D5B8B7
:101400002AE024B980E04FDB20912F013091300198
:101410003695279538872F83821B930B9A83898370
:1014200082E284B980E03FDB2F813885821B930BF9
:101430009C838B8305B9E8E2E4B981E034DB2F813A
:101440003885821B930B9E838D8389EC90E0D3CFEC
:101450001430A9F48FE392E038D80EDD8111A6C0D4
:1014600000D889819A81E9D80E94FA018B819C81F8
:10147000E4D80E94FA018D819E81DFD8DECD15303F
:1014800099F415B8D4B880E00EDB9A83898304B947
:1014900081E009DB9C838B8334B882E004DB9E838C
:1014A0008D8389EE90E0A7CF163039F5D4B8D5B842
:1014B00080E0F9DA20912F0130913001821B930BEB
:1014C0009A83898304B905B981E0EDDA20912F016F
:1014D00030913001821B930B9C838B8334B835B8D9
:1014E00082E0E1DA20912F0130913001821B930BD1
:1014F0009E838D8385EE90E07ECF173059F5209145
:101500002F0130913001A8E5BBE10E944034A501D4
:1015100094010E94023429013A01D5B8F3E0F4B9EC
:1015200080E0C1DA841995099A83898305B92CE092
:1015300024B981E0B8DA841995099C838B8335B886
:1015400024B882E0B0DA841995099E838D8383ECF8
:1015500090E051CF113009F083CF6FCD98878F8302
:10156000109237018CE00E940902FECD0F5FCA0184
:10157000B901A50194010E9402345CCE10E00E94E2
:1015800031026091730170917401809175019091A5
:10159000760104E026E44091850120D90E94C10231
:1015A00088E255DAFA94F11034CEE0CE82E0C82E0B
:1015B00057CF8091370181110DC089E393E00E94DC
:1015C000B83561E0680F8CE393E00E94C53581E097
:1015D000809337010895EF92FF920F931F93CF935B
:1015E000DF93D62FE82FF0E0ED56FE4FE491E8B9F7
:1015F000E860E7B915B8E62FF0E0E057FE4FE49158
:10160000E4B9CE2FCC0F88E8E82E83E1F82E8D2F99
:101610004ADA8C01C4B98E159F0508F1892BD1F0E7
:1016200089E391E00E946502D80120EA36E841E0B2
:1016300050E00E94553428E937EB40E050E00E942A
:101640000234C90122E041E467EFAAD988E087B9F2
:1016500088B914B8CDB7DEB7E6E00C944D35780103
:10166000D6CF0F931F93CF93DF9385E028DA85E0E1
:1016700022DAEC018C01000F111F000F111F1092D4
:101680003501043883E0180770F489E991E00E947D
:1016900065020E94C10281E080933501DF91CF9104
:1016A0001F910F91089588EA91E00E94650262E01F
:1016B000C80181D90E94FA01C93082E0D807A0F49C
:1016C000C73DD14050F489EA92E00E9465020E9431
:1016D000C1028DECBCD985DBE1CF8FEA92E00E949C
:1016E00065020E94C102DACF85EA91E0F8CFFC01E1
:1016F0009C01261B370BCA0170E060E0A901460F70
:10170000511D452F5527620F240F351FAC01470F80
:10171000511D452F5527780FDA01AA0FBB1F8A0FDD
:101720009B1F4B3E20F4E217F30740F7089590E02B
:1017300080E00895A8E1B0E0E0EAFBE00C942535F4
:10174000582E462E342EA895E62FF0E0E057FE4F97
:1017500024912E87220F2F8B339634913E8BE42FCA
:10176000F0E0E057FE4F44914983440F488F339691
:1017700084918F83E52DF0E0E057FE4F2490922D69
:10178000990F9F87339624912B8328602C83386090
:101790003A83398135B98E84832A84B827B94B813D
:1017A00048B9862F88D98C018981988D892B85B974
:1017B0009E84992A94B8842D7ED9EE85E4B9842D2F
:1017C0007AD95C0114B82CD915B884B8842D73D992
:1017D000B801D3D96C01FA81F7B988E088B92981B9
:1017E00022292D8325B924B9852D65D9CCD97C0131
:1017F00015B816D925B8852D5ED9C5D99D878C8792
:1018000024B8852D58D9BFD93C016C857D85C70189
:10181000B4D9803231E0930730F440E2C41641E09D
:10182000D40608F499C6EC85FD85CE0EDF1E800F28
:10183000911FC816D90618F01D870C873501209115
:101840004E0180916801820F9927991F02974CF0F1
:10185000213009F0AFC590914B018091650198133B
:10186000A9C5F88DF229FB872C853D8524373105E4
:1018700008F494C1C9010A96880F991F6816790661
:1018800008F08CC13C8137B94B8148B994B8842D9C
:101890000ED98C01832D13D97C01888D85B9842DB7
:1018A00006D99801295A3D4F2817390708F0AFC0CB
:1018B00088E088B99A8197B9EB85E4B9E5B9832DB9
:1018C000F6D888349F4008F49DC085E080931A01C3
:1018D00082E2809319011093440100934301B70100
:1018E000C80156D990934A01809349019801A0E11B
:1018F000B7E20E944034209114013091150150E06C
:1019000040E00E94023430934601209345018F89C4
:10191000288D822B84B915B83C8137B94B8148B9E1
:10192000832DCDD88C01842DC2D8B80131D99C012A
:101930009093480180934701909119019F709430D2
:1019400079F54091450150914601609149017091AE
:101950004A01C901CCDE0097F9F0888D84B9EE897F
:101960009C81E92BE7B9842DA2D88C0188E087B946
:101970009801A0E1B7E20E944034209138013091F3
:10198000390150E040E00E940234A901B801809181
:10199000470190914801ABDE90934401809343014D
:1019A000809119018F70843039F188E088B9EF8116
:1019B000FA81EF2BE7B924B82D8125B9852D7BD885
:1019C0008C01E1D89E838D83842D79D8E0901B0112
:1019D000F0901C01BC01C801DBD89701DC010E941A
:1019E0004034ED81FE819F0150E040E00E940234CE
:1019F000309344012093430180914E018F5F809387
:101A00004E0160C385E080931A0184E262CF88E0D2
:101A100088B9FA81F7B92B8524B925B9852D47D81E
:101A20008C01832D4CD87C0125B8852D40D8895A4E
:101A30009D4F8017910708F0BDC43B8138B94C8198
:101A400047B9832D34D8813D934008F0A2C085E08A
:101A500080931A0182E380931901B801C70198D8D5
:101A60009093640180936301C8018DD89C01A0E12B
:101A7000B7E20E94403420911B0130911C0150E0DC
:101A800040E00E9402343093600120935F01F8E04F
:101A9000FF2EF8B8FA81F7B98F85288D822B84B98B
:101AA00085B9852D0CD88C01832D01D8B80170D84B
:101AB0009C019093620180936101909119019F7044
:101AC000943099F540915F015091600160916301FC
:101AD00070916401C9010BDE009719F1388D35B999
:101AE00034B94B8148B9EC818A81E82BE7B9852D5F
:101AF0000E94570548D88C01F7B89C01A0E1B7E2D5
:101B00000E944034209131013091320150E040E098
:101B10000E940234A901B801809161019091620193
:101B2000E6DD90935E0180935D01809119018F70D5
:101B3000843049F1EB819F81E92BE8B9EC819E2B40
:101B400097B915B8FD81F4B9852D0E945B057C011C
:101B5000842D0E945F059E838D8300911401109156
:101B60001501BC01C70114D89801DC010E94403462
:101B7000ED81FE819F0150E040E00E9402343093ED
:101B80005E0120935D01809168018F5F8093680101
:101B900080C085E080931A0184E35DCF88E088B936
:101BA000FA81F7B925B82B8524B9852D0E945B05EC
:101BB000998B888B0E94C30598878F83832D0E9401
:101BC0005F059A878987530134E6A30EB11C8F8184
:101BD0009885B301A816B90608F06BC00E94C80525
:101BE0008C0120911B0130911C0150E040E060E825
:101BF00071EA83E09CE10E940234D8010E945534CE
:101C0000E985FA859F0150E040E00E9402346901B5
:101C10007A0114B815B8FB81F8B92C8127B981E095
:101C20000E94270584B8842D0E945B058F359D4056
:101C300008F48DC194B8842D0E9457058C01832D22
:101C40000E945F059B8B8A8B852D0E945F059D8B73
:101C50008C8B8A899B89813D974008F402C1F88D5D
:101C6000F5B9842D0E9457058115944008F440C0B1
:101C700080911A018430E0F58AE080931A016A8924
:101C80007B898C899D890E94C80590935E01809311
:101C90005D0181E0909168019F5F909368018823C6
:101CA00009F44EC43092650140926601509267017A
:101CB00047C48F8198850E94C8058C01FD81F4B9C5
:101CC000852D0E945B05998B888B0E94C3059887A0
:101CD0008F83832D0E945F059A878987BC01C80185
:101CE0000E94C8059C01A4E6B0E00E94403488CF61
:101CF00084E080931A018DE08093190160167106CB
:101D000008F0A6C0C801861997099E838D8380902C
:101D1000140190901501B12CA12C60E871EA83E0C8
:101D20009CE1A50194010E940234AD81BE810E9414
:101D30005534EA89FB899F0150E040E00E9402345B
:101D400080916801882371F08091590190915A0126
:101D5000A0915B01B0915C0182179307A407B507BE
:101D600008F079C02093590130935A0140935B01E8
:101D700050935C019801A0E1B7E20E944034A501B4
:101D800094010E9402343093600120935F016A89BC
:101D90007B898C899D890E94C80590935E01809300
:101DA0005D0181E04091590150915A0160915B01C0
:101DB00070915C014C155D056E057F0508F04DC006
:101DC000C0925901D0925A01E0925B01F0925C01FD
:101DD00069857A85888999890E94C80590935E01F2
:101DE00080935D012F813885A0E1B7E20E944034E5
:101DF00020911B0130911C0150E040E00E94023410
:101E0000205F384D3093600120935F01C090140132
:101E1000D0901501F12CE12C9301A0E1B7E20E94D2
:101E20004034A70196010E9402343093620120934E
:101E300061012C853D85A0E1B7E20E944034A701F5
:101E400096010E940234309364012093630121CFF4
:101E50001E830D835CCF80E0A5CF882309F41ACFC1
:101E6000D5CFF1E66F16710408F071C0013D27E08F
:101E7000120708F46CC085E080931A0182E1809318
:101E80001901C80186509F4FEC89FD898E179F0765
:101E900008F043C083E1809319013E893770E32E37
:101EA000832D806480937C00EBE0FE2E81E090E047
:101EB0009E838D830FEF13E0A89561E089816ED535
:101EC00094B886B18E21E9F39E8594B980917A0009
:101ED000806480937A0080917A0086FDFCCF8091A7
:101EE000780090917900F801E81BF90B2D813E8173
:101EF0002E0F3F1F3E832D83FA94F110DDCFC901D1
:101F0000880F991F880F991F69E070E00E94DB33EA
:101F1000709364016093630136CE20911401309177
:101F200015013E832D83B8018C899D890E94C805C7
:101F30002D813E81DC010E944034980150E040E058
:101F40000E94023430935E0120935D01A6CF94B8C5
:101F5000388D35B9842D0E945B056C01832D0E945C
:101F60005F0598878F830E94C3059A878987AC1481
:101F7000BD0408F0A9C0B301C6010E94C8058C01C8
:101F8000209114013091150150E040E060E871EAC1
:101F900083E09CE10E940234D8010E945534E98517
:101FA000FA859F0150E040E00E94023449015A0145
:101FB000FA81F7B988E088B92D8124B925B9852D32
:101FC0000E945B058C01832D0E945F059A8789879B
:101FD000842D0E945F057C01003331E1130708F076
:101FE000E6C125B8852D0E945B05998B888B24B8A6
:101FF000852D0E945B059B8B8A8B15B881E00E9422
:10200000270525B8852D0E945B05EA89FB89E03408
:10201000F64008F079C08133914108F475C0C801D9
:102020008A569F4FE889F989E817F90708F06CC0CC
:1020300086E080931A0180914E018F5F80934E015C
:10204000B70189859A850E94C805909344018093C1
:102050004301B701C8010E94C80590934A018093CB
:10206000490114B815B8FE89F8B981E00E94270526
:1020700024B8852D0E945B05853F910518F52D81BB
:1020800024B9832D0E945B05813D9340D8F0852DB6
:102090000E945F058D3D9240A8F024B8852D0E94D6
:1020A0005B058D3D924070F025B881E00E942705C8
:1020B00015B8852D0E945B05853F910518F487E0D2
:1020C00080931A0181E0F8C084B8F981F5B9842DB4
:1020D0000E945B056C01832D0E945F0598878F83AA
:1020E0000E94C3059A878987C6016C147D0410F489
:1020F0008619970969857A850E94C8059C01A4E61E
:10210000B0E00E9440344BCFFA81F7B9298124B95D
:1021100025B981E00E9427053B8534B935B9852D65
:102120000E945B058C010E94C305998B888B832DCF
:102130000E945F059E838D830E94C3059A878987CD
:10214000842D0E945F057C0189859A858E3F994088
:1021500008F4C1C084E080931A018CE080931901D7
:10216000B301888999890E94C8058C0120911B01BF
:1021700030911C0150E040E060E871EA83E09CE1AE
:102180000E940234D8010E945534E985FA859F01E6
:1021900050E040E00E94023480914E01882371F0AB
:1021A00080913F0190914001A0914101B091420185
:1021B00082179307A407B50708F07AC020933F0160
:1021C000309340014093410150934201B7018D810A
:1021D0009E810E94C8059093440180934301288901
:1021E0003989A0E1B7E20E94403420911B0130916F
:1021F0001C0150E040E00E940234309346012093DD
:10220000450181E040913F015091400160914101C1
:1022100070914201481559056A057B0508F04AC0CE
:1022200080923F0190924001A0924101B092420100
:10223000B6018F8198850E94C805909344018093D0
:1022400043019601A0E1B7E20E94403420911401BD
:102250003091150150E040E00E940234205F384D7B
:1022600030934601209345019301A0E1B7E20E941B
:102270004034209114013091150150E040E00E945B
:10228000023430934801209347012C853D85A0E11D
:10229000B7E20E94403420911B0130911C0150E0B4
:1022A00040E00E94023430934A01209349010ACF52
:1022B00080E0A8CF8111D8CF90914E019F5F90937D
:1022C0004E01882309F43CC130924B0150924C01DD
:1022D00040924D0135C1F1E66F16710408F067C0F8
:1022E0002889398929343D4008F461C085E080930C
:1022F0001A0182E080931901C70186509F4F801711
:10230000910708F03CC083E0809319010B810770AE
:10231000832D806480937C001BE021E030E03E83CD
:102320002D83A89560E0898139D33B8534B935B9CF
:1023300086B18023E9F724B880917A008064809385
:102340007A0080917A0086FDFCCF80917800909190
:102350007900ED81FE81E80FF91FFE83ED831150B6
:1023600001F7CF01880F991F880F991F69E070E06E
:102370000E94DB3370934A01609349013DCBC090CA
:102380001B01D0901C01B701C8010E94C80596012D
:10239000DC010E944034E889F9899F0150E040E067
:1023A0000E9402343093440120934301AFCF88E070
:1023B00087B988B914B815B888E087B9F7EC6F16F3
:1023C000F1E07F0608F4E3C088B92F8524B938EC22
:1023D0003D834C818A81482B4F839F8197B981E04F
:1023E0000E942705EA81E7B9852D0E945F05429783
:1023F00028F0FD81F150FD83F111EFCF2F8524B935
:1024000025B961E08981CAD2852D0E945B056C01E6
:102410003F8934B915B84C8147B98B8188B960E0E0
:102420008981BCD2842D0E945B050E94C3059E83D6
:102430008D839E8594B9842D0E945F058C01852D26
:102440000E945B05B8010E94C8058C01842D0E9482
:102450005F057C01852D0E945B05B7010E94C805C0
:1024600098012C5E3F4F2817390708F469C088E0AF
:1024700088B9EA81E7B924B825B861E089818ED2AC
:10248000842D0E945F057C01852D0E945B05B701AC
:102490000E94C8057C010817190708F05FC0FF8576
:1024A000F4B9F5B9852D0E945B059C01CD82DE82D1
:1024B00088EEE81683E0F80608F062C0C70164E61B
:1024C00070E00E94DB33C701875991098938914137
:1024D00008F05DC02E153F0508F059C08D819E8122
:1024E00043E0969587954A95E1F7893C910510F070
:1024F00088EC90E02D813E81820F931F8E159F0501
:1025000008F045C06217730708F041C080911A01B6
:10251000833018F483E080931A0120911801822FF0
:1025200090E0FC01E757FE4F50824682880F991FCA
:10253000FC01EB56FE4FF182E0822F5F20931801E1
:1025400088E087B988B914B815B88EE20E94C30133
:102550006896E2E10C94413535012CCF2F8924B9DE
:1025600015B83C8137B94B8148B960E0898116D2F2
:10257000842D0E945B050E94C3059C01780198CFC1
:10258000B70154E0769567955A95E1F79CCF642D95
:10259000852D01D0D5CFB0E0A0E0E1EDF2E10C94C3
:1025A0002735C82FD62FA895862F90E0FC01E0573D
:1025B000FE4F5490339624914C2F50E0FA01E0578F
:1025C000FE4F1491339604916091680130914E0151
:1025D000630F7727771F672B09F05AC0A895609182
:1025E0001E0170911F01660F771F660F771F709392
:1025F000300160932F0160916D0170916E01660F43
:10260000771F660F771F70932E0160932D013EEBAD
:1026100030932B0160911801E9E8F1E030E0840F7C
:10262000951F63133AC088E088B9286027B914B9A8
:1026300015B9B8E1BB2ED12CC12C8D2F0E945B05A2
:10264000782E692E8C2F0E945F057C018C199D09C4
:1026500097FF03C091958195910903970CF45AC196
:10266000A895BA946701B110E8CF80911E019091AE
:102670001F019093300180932F0180916D01909103
:102680006E0190932E0180932D0189E180932B019F
:10269000CDB7DEB7E0E10C94433551914581450F4C
:1026A0005527551F4817590701F33F5FBACF25E853
:1026B000C21621E0D206C8F6043AE2E01E0708F08E
:1026C000B5C0F8E9AF16B10480F2C6010E94C30597
:1026D000AC019601A8E9B7EB0E9440349A0150E0A2
:1026E00040E00E94023429013A01C5010E94C3055D
:1026F0009C01A8E9B7EB0E944034950150E040E00E
:102700000E94023488E7C8168FE0D80608F072C02D
:10271000F2E0440C551C661C771CFA95D1F7C301F6
:10272000B201620F731F841F951F25E030E040E067
:1027300050E00E940234A4E6B0E00E9455346B01E0
:102740007C01FCEACF0EFDE0DF1EE11CF11C1091C4
:102750001A01143008F089CFC1500C2F0D0F802FB3
:1027600090E0EC01CD5ADE4F2881880F991F880F29
:10277000991F8E559E4FFC01222309F4C4C080800E
:102780009180A280B380A7019601281939094A09CE
:102790005B0957FF07C050954095309521953F4FF5
:1027A0004F4F5F4FAAE0B0E00E945534F4E68F0E21
:1027B000911CA11CB11CA50194012C0D3D1D4E1DA9
:1027C0005F1D0E940234232B242B252B09F04DCFB3
:1027D000133019F081E080931A0182E088838091A0
:1027E0006F01E82FF0E0EA5AFE4F00838F5F80937D
:1027F0006F013BCFE8E7AE16EFE0BE0670F4E2E013
:10280000220F331F441F551FEA95D1F7CA01B901A2
:10281000640D751D861D971D88CF240D351D461D21
:10282000571D569547953795279585CFC0901B0125
:10283000D0901C01672D762DE616F70608F4B70137
:10284000C7010E94C8059601DC010E9440342B019B
:102850003C01C7010E94C3059C0150E040E0C30158
:10286000B2010E94023429013A01A0901401B090F3
:102870001501892D982D8017910708F4C801B8011A
:102880000E94C8059501DC010E944034980150E087
:1028900040E00E94023488E7E8168FE0F806B0F4C2
:1028A00062E0440C551C661C771C6A95D1F7C30185
:1028B000B201620F731F841F951F25E030E040E0D6
:1028C00050E00E94023469017A0141CF0837EFE0FD
:1028D0001E0770F4CA01B90152E0660F771F881F06
:1028E000991F5A95D1F7640D751D861D971DE5CF6B
:1028F00073016201C20ED31EE41EF51EF694E79426
:10290000D794C79424CFC082D182E282F38281E03F
:102910008883ABCE110F15B814B98C2F0E945B05BC
:102920008135910508F0A1CE15B98C2F0E945B0569
:102930006C01802F886087B908B915B854B8A8E130
:102940004A2EB12CA12C8C2F0E945B05982E892E2B
:102950008D2F0E945F058C018A199B0997FF03C088
:10296000919581959109039734F0A8954A9458015F
:102970004110E9CF7ACE550C54B88D2F0E945B05DB
:102980005C01F0ECEF16F4E4FF0608F490CE80EB67
:10299000C8168DE4D80608F068CE8ECECF93C82F27
:1029A000C09595B160FF10C0982B95B994B1892B53
:1029B00084B982E00E94270584B18C2384B985B153
:1029C0008C2385B9CF9108959C23EFCFB0E0A0E090
:1029D000ECEEF4E10C942D351AE008E08FE3C82EFC
:1029E00099E0D92E07B908B915B8C4B880E00E949B
:1029F0005B057C0181E00E945F05EC0182E00E94A2
:102A00005F059C0180911A018930A1F488E087B9A3
:102A100014B8F0920401E0920301D0930601C09330
:102A200005013093080120930701CDB7DEB7EAE036
:102A30000C94493584E0E816F10448F4C430D1051B
:102A400060F42430310510F399E092600AC098E0F8
:102A500088EEE81683E0F80608F499E0C83ED34013
:102A6000A0F3283E334008F4946097B9D0E0C0E06A
:102A7000A89580E00E9453055C0181E00E945F05FB
:102A80007C0182E00E945F0524E1A21625E0B206E7
:102A900008F4389A24E1E21625E0F20608F4399A9F
:102AA000843125E0920708F43A9A26E0A216B10490
:102AB00030F426E0E216F10410F4069738F021967F
:102AC000C43F81E0D807A1F6D0921A01F12CE12C85
:102AD000EC16FD0621F4115009F084CFA6CF0E9418
:102AE00016052FEFE21AF20AF3CFCF92DF92EF92A0
:102AF000FF92CF9320917301309174014091750141
:102B000050917601C09185018AE0C82ED12CE12C2C
:102B1000F12C8C2FCF5F213A96E8390791E04907D5
:102B20005105E0F480938501A0912F01B09130010F
:102B30000E94553428E833E140E050E00E9402341E
:102B40002093730130937401409375015093760183
:102B5000CF91FF90EF90DF90CF900895CA01B90117
:102B6000A70196010E940234D4CFB0E0A0E0EBEBC5
:102B7000F5E10C942B35C82F062F880F8C0F9FEF93
:102B8000960F890F80935001EC2FF0E0E057FE4F35
:102B90001491862F90E0FC01E057FE4FF490FC0169
:102BA000ED56FE4FD49180911A018130C1F12091F0
:102BB0001801E9E8F1E090E080E08217A8F1D86020
:102BC0001092800110927F0181EF80938501109215
:102BD0007301109274011092750110927601F6DE65
:102BE00088E088B9D7B9F4B8F5B88C2F0E945F0592
:102BF0005C01802F0E945F05A81AB90A14B81092D0
:102C00005201109251018091510190915201843FE3
:102C10009140F0F088E087B988B914B815B8CDB7FD
:102C2000DEB7ECE00C944735368130130EC03081AE
:102C30003C130BC0DC01AA0FBB1FA757BE4F1C964D
:102C40004D915C914C3D554050F301963196B5CF76
:102C500015B914B90E94100514B815B80E941705CB
:102C6000A8958C2F0E945F057C01EA18FB088091D3
:102C70005101909152018E37910520F08BE4E816B6
:102C8000F10444F280915101909152012DE2E2163B
:102C900021E0F2060CF023C201969093520180933A
:102CA0005101B1CF0E9411058C2F0E945F058A1936
:102CB0009B09A8952FEFC21AD20A20915101309199
:102CC00052012C153D0570F75701A81AB90A1A14BC
:102CD0001B040CF0ADC039ECA316B1040CF09ACF74
:102CE00028EE33E0D5010E944F3497010F2C000CE1
:102CF000440B550B0E94023469018091510190915F
:102D000052010196B0E0A0E080937B0190937C019A
:102D1000A0937D01B0937E01C7018A0D9B1D33D224
:102D200020917B0130917C0140917D0150917E0189
:102D3000DC010E94553460937B0170937C01809389
:102D40007D0190937E016093730170937401809371
:102D500075019093760187EF80938501C6DE8090A0
:102D6000730190907401A0907501B09076018CE190
:102D700093E00E94B835A8EEB3E0A81BB10987FD27
:102D8000B395A50194010E945F3424E630E040E051
:102D900050E00E94023420937301309374014093F9
:102DA00075015093760180911801882329F0809154
:102DB0001A01853009F02ECF88E080931A018091A6
:102DC0008501909186019817C4F0891323CF8090D4
:102DD000730190907401A0907501B09076014091BC
:102DE0007701509178016091790170917A014815CD
:102DF00059056A057B0508F00DCF4091730150918C
:102E00007401609175017091760140937701509340
:102E100078016093790170937A0180938601D09252
:102E20008201C092810100938301C0938401F2CE9C
:102E3000D12CC12C62CFCADD15B88FE087B988E0EC
:102E400088B9F12EFF0CF4B880E480937B0084E510
:102E500080BF8C2F806480937C0086E180937A0011
:102E60000E941A0510925201109251011092800096
:102E7000109285001092840087E286BB81E28093E5
:102E80006F0081E080937001F5B890911A018093F2
:102E90008100953009F005C181E090E00C2E01C061
:102EA000880F0A94EAF780958F7087B9F89483B7F2
:102EB000817F83BF80917001882389F083B781600F
:102EC00083BF7894889583B78E7F83BFF894A89545
:102ED00080915101909152018034964059F7789435
:102EE00010928100E0908600F090870010926F00B1
:102EF00086E980937A0014B815B88C2F0E945F057C
:102F00002091330130913401821B930B0C969093E6
:102F10008801809387018091510190915201803204
:102F2000934008F077CE8091510190915201909397
:102F30007E0180937D01F0927C01E0927B0184EF21
:102F400080938501809151019091520182349105C5
:102F5000C8F060917B0170917C0180917D0190911E
:102F60007E0124E630E040E050E00E9402342093ED
:102F70007B0130937C0140937D0150937E0186EF6D
:102F800080938501A0917101B091720120917B0124
:102F900030917C0140917D0150917E010E94553419
:102FA00020E233E040E050E00E94023420937B01B5
:102FB00030937C0140937D0150937E0120937301F7
:102FC0003093740140937501509376018EDD8091AA
:102FD0008501843F09F054C0C0907301D090740102
:102FE000E0907501F090760180EAC8168FE0D8066F
:102FF000E104F104C0F4A70196012C543F4F4F4F58
:103000005F4F60EA7FE080E090E00E940234C20EF1
:10301000D31EE41EF51EC0927301D0927401E0929B
:103020007501F0927601C0907301D0907401E09028
:103030007501F0907601C114D10421E0E206F1049B
:1030400090F5D092B301C092B2018091500190E00E
:10305000875C9C4F0E94B83590E0B0E0A0E08C15F2
:103060009D05AE05BF0530F5C81AD90AEA0AFB0A64
:10307000C0927301D0927401E0927501F0927601D2
:1030800014B98091730190917401A0917501B09170
:1030900076014997A105B10508F4BCCDD12CC12C0E
:1030A00082CED7B903CF81E090E09093B3018093B3
:1030B000B201CBCF34E1C30ED11CE11CF11CC81608
:1030C000D906EA06FB0610F40E94D90A1092730191
:1030D000109274011092750110927601D1CF892B54
:1030E00031F485E1E81685E0F8060CF0A4CEC701BE
:1030F000D12CC12CE2CD1F920F920FB60F9211244A
:103100008F939F93B59904C080917001811109C07C
:10311000B59B10C080918600909187008A3F9105F1
:1031200048F480915101909152010196909352017F
:10313000809351019F918F910F900FBE0F901F9020
:1031400018951F920F920FB60F9211248F939F9391
:1031500010927001B09B10C0809186009091870002
:103160008A3F910548F48091510190915201019656
:1031700090935201809351019F918F910F900FBEB8
:103180000F901F9018950F9221E08C32920710F447
:103190008CE291E08C52914069E170E00E94DB3357
:1031A00099E16B3210F0982F6BE2981BEEEBF2E096
:1031B000E60FF11DE60FF11D9F93CF010E94B83578
:1031C000482F3196CF010E94B835582F3196CF0144
:1031D0000E94B835282F3196CF010E94B835382F7C
:1031E0006F91421B530B649FC001659F900D11248A
:1031F0000C9669E170E00E94DB33620F731FCB0114
:103200000F900895B0E0A0E0E8E0F9E10C942B35D0
:1032100088E893E190931F0180931E019093300101
:1032200080932F018EEB80932B01C8E0C8B988E111
:1032300087B90E941F05C7B984E00E945B05AC01F5
:103240008B5C9840833F9140A0F481E080933A01E9
:1032500020912F0130913001AFEBB9E00E94403452
:103260009A0150E040E00E94023430931F01209305
:103270001E0180911E0190911F0190933001809357
:103280002F018EE00E945F058EE00E945B05909307
:103290003401809333010E942B0698DB88E0F82EDE
:1032A000F8B8C9E0C7B985E185B9D1E0D4B980E003
:1032B0000E945B058C019AE0D92ED7B824E0B22E8B
:1032C000B4B881E00E945B05080F191F3CE0E32EB3
:1032D000E7B840E1C42EC4B882E00E945B05080F45
:1032E000191F15B8C8B9C7B9D4B980E00E945B05E9
:1032F0000E94C305EC01D8B8D7B8B4B881E00E94E9
:103300005B050E94C305C80FD91FE8B8E7B8C4B869
:1033100082E00E945B050E94C305C80FD91FF7B861
:10332000F8B814B880912F01909130016C01CC0C49
:10333000DD1CC80ED91EC01AD10ACC1ADD0AF12C28
:10334000E12C9801A0E9BAE10E944034A70196015E
:103350000E94023449015A01309339012093380107
:103360009E01A0E9BAE10E944034A70196010E94A3
:10337000023430933201209331012057354E30937F
:103380001C0120931B0180E7881A85EE980A909211
:1033900015018092140189E180932B01CDB7DEB72E
:1033A000ECE00C944735CF92DF92EF92FF920F93AF
:1033B000CF93DF93F82ED62FC42F0E94F70186E11A
:1033C00091E00E9465021AD26D2F8F2D0E94052C6C
:1033D000C090B601D090B701E090B801F090B9016B
:1033E0008091010187FD05C0C114D104E104F104FD
:1033F00021F082E191E00E9465028D2F0E94F70189
:10340000C114D104E104F10409F474C00E94FA016A
:10341000809156010E946603CC2309F467C0809115
:103420003B018D3030F48650990B8D5B9C4F0E9490
:10343000650280E00E94E002CD28CE28CF2809F462
:103440005EC06091B6017091B7018091B801909112
:10345000B90103E028E447EF0E94EE0385E291E022
:103460000E9465028EE493E00E94C03522E046E4AB
:1034700064EF0E94D0048091AE019091AF01A091C1
:10348000B001B091B101892B8A2B8B2B01F180E027
:103490000E94E0026091AE017091AF018091B00195
:1034A0009091B10104E028E440E00E94EE0380E244
:1034B00091E00E94650223E040E26FEF8091B40149
:1034C0009091B5010E94D0040E94C10207C080E023
:1034D0000E94C70280913E018823B1F3DF91CF9112
:1034E0000F91FF90EF90DF90CF90089580E00E94C1
:1034F000E002A7CFC11193CF80E00E94E00280914B
:1035000056010E946603809101018E3F0CF0B3CFFB
:103510008FE391E00E9465026091090170910A01B8
:1035200080910B0190910C0103E028E4409101018E
:103530000E94EE03A0CFCF92DF92EF92FF920F9303
:10354000CF93C82F0E942302809183010E94F7012C
:103550008BE591E00E94650237D5609183018091EF
:1035600084018AD37C019093800180937F01C09075
:103570008101D09082018AEFE8168FEFF80678F487
:10358000C114D10441F081E090E0C11102C090E08B
:1035900080E0892B21F087E191E00E946502809113
:1035A00084010E94F701CC2309F44BC090913B01A8
:1035B0008DE0891B0E94FD0187E790E00E94650273
:1035C0000E943102609177017091780180917901B8
:1035D00090917A0104E026E4409186010E94EE0376
:1035E0008AEFE8168FEFF80668F48AE491E00E940B
:1035F000650222E044EF6EEF80917F01909180019F
:103600000E94D0040E94C102CC2391F0CD2881F009
:1036100080E00E94E00283E491E00E94650222E0E3
:1036200045E26FEF80918101909182010E94D00468
:103630000E94C102CF910F91FF90EF90DF90CF9049
:1036400008958091810190918201892B69F082E433
:1036500091E00E94650222E045E26FEF80918101D6
:10366000909182010E94D0040E94C102A9CF8F7064
:1036700051F488EC0E9427050E9431020E94310B10
:1036800088EC0C94270508958F3021F49091350132
:10369000913011F08F5F089580E00895CF9382E814
:1036A00090E00E940926C0E00E94CE0660E082E021
:1036B0000E94CB1262E080E00E94CB120E942302A3
:1036C00080916F018823A9F041E062E080E06BDE29
:1036D0008C2FCDDF88EE93E00E94D105811105C0CB
:1036E0008C2FD2DFC82F8A3FF8F20E942B02CF9195
:1036F000089582E890E00E94650287E493E00E94CA
:1037000065020E9431028FE30E94C3010E94C10240
:10371000DFCF0F931F93CF93DF93C0E0D8E012EF7A
:103720000DE00E94CE0660E082E01FDAD0931A011D
:1037300080918501843FE1F480917301909174013F
:10374000A0917501B091760184369105A105B1056E
:1037500078F440E060E082E00E948D29609373017C
:103760007093740180937501909376011093850195
:1037700080918501823F4CF1809386018091730195
:1037800090917401A0917501B091760180937701B9
:1037900090937801A0937901B0937A0181E0CBDE18
:1037A0008C2F65DF80ED97E00E94D105811106C066
:1037B0008C2F6ADFC82F8A3F08F4B3CF0E942B02F8
:1037C000DF91CF911F910F9108950E9423028BE703
:1037D00090E00E94650280913B01902F981B892FF9
:1037E0000E94FD0187E790E00E9465020E9431027D
:1037F0008FE30E94C3010E94C102D2CFA6E1B0E0D4
:10380000E4E0FCE10C94253582E080930101809195
:103810001A01813009F0F0C180916F01813009F007
:10382000EBC14090560124E0429EF0011124EE5578
:10383000FE4F80819181A281B381893032E5930767
:10384000A105B10508F0D8C11C01712C81E08715D4
:1038500008F4D6C1842D0E945C03982E892EE82D91
:10386000F0E0ED56FE4F5490892D90E0FC01E057BA
:10387000FE4FE49115B828E028B9372D3170632E3A
:1038800020EF2216310408F0C0C13111BEC10091F1
:1038900014011091150100591A4121E030E0092C62
:1038A00002C0220F331F0A94E2F7C90188608529FC
:1038B00087B934E1398B892D0E9457055C01882D29
:1038C0000E945F0524E0A216B10410F4049728F0CA
:1038D00039893150398B3111EECF80E480937B00F0
:1038E00094E590BF892D806480937C0026E120932D
:1038F0007A00F12CE12C1092800010928500109239
:10390000840087E286BB0E941A05872D90E09A8B7F
:10391000898B611083C181E88093810058B886B398
:1039200085FD0CC080FFFBCF21E026BBA895970149
:103930002F5F3F4F79012035310589F738E038B9DD
:103940001092810090E296BB209186003091870012
:10395000690140918400509185002417350738F49F
:1039600080FF05C021E026BB3FEFE31AF30A86E99A
:1039700080937A00B4E15B2E892D0E9457055C018B
:10398000882D0E945F0524E0A216B10410F404976C
:1039900018F05A945110F0CF80903801909039016E
:1039A000820C931C800E911E2091160130911701FC
:1039B00000398AE1180708F03AC169E191EEC916A9
:1039C000D104E104F10430F4C60165E070E00E9426
:1039D000DB33645128523109261B310967FD3395C9
:1039E00066E0862F90E0B0E0A0E08C159D05AE0566
:1039F000BF0508F025C1C81AD90AEA0AFB0A6620E1
:103A000029F082E2C80ED11CE11CF11C90E5E916F8
:103A1000F10418F0C12CD12C76018BE0C816D1042A
:103A2000E104F10428F091E0C91AD108E108F10895
:103A3000B12CA12CA8EEB3E00E9440346B8B7C8BA0
:103A40008D8B9E8BA0912F01B091300198010E9427
:103A50004034A50194010E940234442755276B8904
:103A60007C898D899E890E940234C9010E94830647
:103A7000FC01A5019401C701B6010E94C0334B01AE
:103A80005C01BF0190E080E0E3E0660F771F881FD4
:103A9000991FEA95D1F76B5F7F4F8F4F9F4F2AE0B9
:103AA00030E040E050E00E940234C501B4010E94C1
:103AB0000234E989FA89EE0FFF1FEE0FFF1F81E044
:103AC00090E08C0F9D1FE80FF91F20833183428304
:103AD0005383611018C09CE0C916D104E104F104BD
:103AE00090F07394E989FA893196EE0FFF1FEE0F7B
:103AF000FF1F81E090E08C0F9D1FE80FF91F2083CE
:103B0000318342835383A895739493E0971508F00B
:103B10009DCE88E088B984E00E94270591E00D8160
:103B20001E812F81388549815A816B817C814017A4
:103B300051076207730708F090E00D851E852F85F9
:103B4000388949855A856B857C8582E04017510705
:103B50006207730708F483E024E0829FD0011124F8
:103B600021E030E02C0F3D1FA20FB31FE92FF0E042
:103B7000EE0FFF1FEE0FFF1FE20FF31F0D911D91C0
:103B80002D913C9140815181628173810417150709
:103B90002607370708F0892F34E0839FF0011124AE
:103BA00021E030E02C0F3D1FE20FF31F40815181D7
:103BB000628173814093090150930A0160930B0164
:103BC00070930C0180FD40C030EF23163104E0F506
:103BD0008BEF809301018091090190910A01A091DE
:103BE0000B01B0910C01892B8A2B8B2B11F41092B5
:103BF000010188E087B914B86696E2E10C9441357A
:103C0000842D0E945C034C012ACEE4B9852D886086
:103C100087B900911401109115014BCE58B80E943C
:103C2000230590E296BB81E88093810078CEC401A1
:103C300060EB76E30E94DB33695F285D3F4FD1CEB6
:103C4000C12CD12C7601DBCE8CEF80930101CB010E
:103C5000BA016B5F7F4F8F4F9F4F2AE030E040E00B
:103C600050E00E9402342093090130930A014093EE
:103C70000B0150930C01AFCFAEE1B0E0E2E4FEE106
:103C80000C942535662EB82E860F898320911A0153
:103C9000283059F5209177013091780140917901D0
:103CA00050917A0157FD15C01091860109C0CA01D3
:103CB000B9012AE0312D412D512D0E9402341F5FA0
:103CC000173FACF391F4243160E03607410551050C
:103CD00018F48FEF9FEF45C1173F39F480E02817A4
:103CE0008DE738074105410510F020E03DE72C8BBA
:103CF0003D8B26EDA22EE3E9F1E0E60DF11D859165
:103D000088608E87E3E9F1E0EB0DF11D8591886015
:103D10008F87E0E9F1E0E60DF11D7590E0E9F1E053
:103D2000EB0DF11DC59090EC692AB92A81E0E82ECF
:103D3000F12C012D112D8E831F82188619861A866B
:103D40001B861C861D86188E198E1B8E1A8E0E944D
:103D5000E61488E088B960927C000E941B053F85CC
:103D600037B975B874B852E05A95F1F70000000001
:103D700014B815B8DD243E8537B975B874B86092AB
:103D80007C00A895A0927A0080917A0086FDFCCFF5
:103D90002090780030907900B0927C004C2DE5D0D6
:103DA0002091780030917900288B398B3F8537B985
:103DB000C5B8C4B8A895B0927C00A0927A00809152
:103DC0007A0086FDFCCF6091780070917900609256
:103DD0007C00472DCAD0409178005091790014B8EA
:103DE000CB01820D931DE80EF91E011D111DEA8203
:103DF000FB820C831D8388899989840F951F2E81EE
:103E00003F8168857985280F391F611D711D2E83BB
:103E10003F836887798722E32417150650F075B829
:103E200074B80E94250514B815B8888D8395888FBD
:103E300007C0483E73E0570718F08A8D83958A8F34
:103E4000888999892817190660F03E8537B9C5B861
:103E5000C4B80E94250514B815B8898D8395898F3B
:103E600007C0883E73E0970718F08B8D83958B8F82
:103E7000D3945D2D5F3F49F05F3731F45C2D550FD2
:103E8000C50E572D550F750E76CF409038015090C6
:103E90003901440C551C9201E4E0240D351DEA95CE
:103EA000E1F72901570168016E807F808884998439
:103EB00020911A012830C1F46C897D89812D912DC2
:103EC00065507040804090409B01AC010E94C0331F
:103ED0009B01AC0160E779E786E190E00E94023443
:103EE000621A730A840A950AA614B704C804D9048E
:103EF00028F46A187B088C089D0803C06624772480
:103F00004301B20180E090E09301A4010E94C0331C
:103F10009501A6010E94023488E193E07981870F20
:103F2000911D0E94B835682EC90160E170E00E94C1
:103F3000DB33260F371FC9016816190618F48619D6
:103F400091090FC08C5E9F4F8615910540F48C89B6
:103F50009D89843981E1980710F00E94D90A812D4A
:103F6000912D6E96E2E10C944135109281001092F1
:103F7000800010926F0010928B0010928A0057E020
:103F800056BB5FEF509385005093840055E05093EB
:103F90007B0056EB50937A0051E05093810058E239
:103FA0005A95F1F7000045B944B955E05A95F1F733
:103FB000000014B815B81092810080917A0084FF37
:103FC000FCCF80937A000895B0E0A0E0EAEEFFE134
:103FD0000C94273500918101109182010115110582
:103FE00009F091C0E0918301F0E0ED56FE4FD491CD
:103FF000D860E0918401F0E0E057FE4FC4910E9448
:10400000E61488E088B915B8D7B9C4B9809184019D
:104010000E945F057C01D09186018CE08D0F843079
:1040200008F071C08091770190917801A091790199
:10403000B0917A01D15F2AE0422E512C612C712C73
:10404000BC01CD016B5F7F4F8F4F9F4FA30192014A
:104050000E94023449015A01DA01C901DF5FD730F9
:1040600079F7893823E19207A105B10508F04BC023
:10407000059708F448C0C5B9C4B9D0E0C0E0C81578
:10408000D90508F445C014B815B8A89585E0809303
:104090002B01809184010E945F05EC01CE19DF099C
:1040A000E816F90610F0D0E0C0E0D12CC12CC814FD
:1040B000D90490F1809184010E945F0529E1209349
:1040C0002B01A895E816F90618F48C010E191F09A2
:1040D0000C171D0788F49E01201B310B69F0A4EF1B
:1040E000B1E00E9440349E0150E040E00E94023462
:1040F00030938201209381010E94E61488E087B901
:1041000088B914B815B8CDB7DEB7E0E10C944335E3
:104110000E9421052296B3CF0E9421058FEFC81A75
:10412000D80AC5CFA7E0B0E0E8E9F0E20C94253565
:1041300088E192E06ED560EF6B8354980E9416057B
:1041400014BC16BC10920E0110920F0110921001B7
:104150001092110181E085BB80936E001092800067
:10416000E3E1FAE7F0938B00E0938A0081E090E0CE
:1041700090938900809388001092850010928400AB
:1041800083B5816083BD96E096BB90936F00789471
:10419000E4E0E0938100F2E3F9831A820E940F05C4
:1041A000A8954F9902C061E06A8385B5882329F0FC
:1041B0008981815089838111F1CF15BC86B58093A7
:1041C0000E010E942B0286E60E94C3010E94060295
:1041D00060910E0170910F01809110019091110179
:1041E00047E00E94E504549880918100882319F0EB
:1041F0008FE30E94C3011092810010926F00209102
:104200000E0130910F014091100150911101DA011E
:10421000C9010197A109B109813F9048A105B105E4
:1042200008F096C0AAE0B0E00E945534685F7F4F66
:104230008F4F9F4F23E096958795779567952A95A1
:10424000D1F7660F771F70936A01609369015498E4
:104250000E94160516BC10920E0110920F011092CA
:10426000100110921101F1E0F5BBF0936E00109275
:104270006C0110926B0164E06BBB809168008460FC
:1042800080936800789480916D00806180936D00C8
:1042900019820E940F05A8954F9902C081E08A8378
:1042A00080916D0084FF05C099819F5F99839A3F3B
:1042B00081F715BC80916D008F7E80936D00809199
:1042C00068008B7F8093680086B580930E010E9402
:1042D000310284E50E94C3010E940602E091690157
:1042E000F0916A01FD83EC8360910E0170910F01E2
:1042F000809110019091110128EA31E640E050E0F0
:104300000E946534EC81FD81612C712C43015F01B9
:10431000C12CD12CE12CF12C00E010E00E94B9342A
:1043200049014F835E831B012C018C819D81803864
:10433000910500F107E023E745EFB4018F81952F48
:104340000E94EE0399819A3F71F58FE30E94C301A9
:1043500010926E0080ED97E00E94D1056A81860F71
:1043600029F48B8181508B838111E7CE2796E2E17E
:104370000C94413584E6A82EB12CC12CD12CE12C13
:10438000F12C00E010E094014F815E81B101C20187
:104390000E94B934F22FE42F07E023E747EF6F2F95
:1043A000732F8E2FCCCF94014F815E81B101C2015A
:1043B000263E354B41055105610571058105910585
:1043C00039F230F20E94230286E60E94C3010E9465
:1043D000060294014F815E81B101C2015401211591
:1043E000FAEC3F07FAE94F07FBE35F076105710548
:1043F00081059105F1F0E8F06A017101820120E088
:1044000030E04AE85DE568E775E483E691E00E9404
:10441000B934F22FE42F07E028E44AEF6F2F732F0F
:104420008E2F952F0E94EE038AE70E94C3015498B5
:104430008FCFCF80DE807101820120E030E44AE737
:1044400050E163EF7AE580E090E00E94B934F22F0A
:10445000E42F07E028E44DEFE1CF1F920F920FB653
:104460000F9211248F939F93AF93BF937894809171
:104470000E0190910F01A0911001B09111019F5F69
:10448000AF4FBF4F80930E0190930F01A093100187
:10449000B0931101BF91AF919F918F910F900FBE7B
:1044A0000F901F9018951F920F920FB60F92112424
:1044B0008F9386E085BD8F910F900FBE0F901F9058
:1044C00018951F920F920FB60F921124A895109273
:1044D000810015BC0F900FBE0F901F9018951F9272
:1044E0000F920FB60F9211242F933F938F939F93A8
:1044F00080916B0190916C01892B11F481E085BD55
:1045000020916B0130916C018091690190916A0159
:104510002817390730F015BC80916D008F7E80938D
:104520006D0080916B0190916C01019690936C01EC
:1045300080936B019F918F913F912F910F900FBEB0
:104540000F901F9018958B3008F08B50811109C087
:1045500081E292E00E9465020E94C1020C941E0258
:104560000895813019F488E192E0F4CF823019F493
:104570008BEE91E0EFCF833019F480EE91E0EACF3B
:10458000843019F48DE890E0E5CF853019F482E8A5
:1045900090E0E0CF863019F48BE790E0DBCF8730F6
:1045A00019F480ED91E0D6CF883019F48DEB91E0CD
:1045B000D1CF893019F483E092E0CCCF8A3061F614
:1045C00087EF91E0C7CF0F93CF938DE890E021D391
:1045D000C0E010921A0160E082E030D380911A01AD
:1045E000883009F04AC00E94230283E40E94C3017C
:1045F0000E940602609177017091780180917901A3
:1046000090917A0103E026E4409186010E94EE0336
:104610000E94C10260918301809184012DDB9093FF
:10462000800180937F010E9431028BE491E00E941F
:10463000650280917F01909180018A3F2FEF920760
:10464000C0F422E044EF6EEF0E94D0040E94C10249
:104650008C2F0DD888EE93E00E94D105811106C001
:104660008C2F12D8C82F8A3F08F4B3CFCF910F9167
:1046700008958FE30E94C301E9CF0E9423028DE8D1
:1046800090E00E9465020E94C1020E94EC02E0CF0D
:104690000895A5E0B0E0EFE4F3E20C9425358BEE4D
:1046A00091E0B7D280E18093800010926F0081E0AA
:1046B00090E0909389008093880010928B00109274
:1046C0008A0083E086BB1092820088E0809381009C
:1046D00015B891E194B988B989E087B9229A809395
:1046E0008100312C20E03AE0398341E04C83812C79
:1046F000912C5401839451E15D83832D90E00A96BF
:104700006EE170E00E94EF336B83F62E621761F06A
:104710000E9423028BEE91E00E94650210E01F15BB
:1047200008F4D1C00E94C1028C8169810E94CF33FC
:10473000A92FB0E0A50194010E9455346B017C01C2
:104740008D81823150F0652D762D872D902F0E941E
:104750000234C60ED71EE81EF91E0E9431029C814B
:104760002981212C921306C081E03D81323108F469
:1047700080E0282E2A828CE3211005C04D818EE333
:10478000463108F082E50E94C3014D81C701B601A0
:104790000E94E504C701B6017E5E85489F4FA701D0
:1047A0009601220F331F441F551F0E940234CA0175
:1047B0004F3F510509F008F48BC08DE080938100D4
:1047C00080E094E02C01712C612CCA01B901A30195
:1047D00092010E94023421503109309389002093C4
:1047E00088008091880090918900892B31F481E0C4
:1047F00090E0909389008093880000918800109148
:10480000890060E079E08DE390E0A30192010E94CD
:104810000234A4E6B0E00E9455340F5F1F4F9801A8
:1048200050E040E00E94023429013A01A4E6B0E0E1
:10483000A70196010E945534A3019201261B370B54
:10484000480B590BCA01B90102E228E44EEF0E945D
:10485000EE038AE70E94C3010E94C10280ED97E047
:104860000E94D105882309F46BC0883C08F07BC006
:10487000813508F45FC0222009F44AC03D813150DF
:104880003D83C501B4012AE030E040E050E00E94E1
:10489000023449015A01C701B6010E940234CA011B
:1048A000B9012AE030E040E050E00E9402346A831F
:1048B0004AE049832A812C83312C2B815C2C6D2C7E
:1048C0007E2C0F2D1ACF8EE20E94C3011F5F27CFCF
:1048D0004034510530F08CE08093810080E091E01D
:1048E00071CF4830510530F08BE08093810080E437
:1048F00090E068CF892B31F08AE08093810088E0D6
:1049000090E060CF89E08093810081E090E05ACF11
:104910005D815631A0F55F5F5D83563111F485E10D
:104920008983AAE0B0E0A50194010E9455344B01AF
:104930005C01C0CF8B3018F09C819F5F9C83312C31
:104940002C81822F90E03981632F70E06F5F7F4F61
:104950000E94EF338C83832D0E94441B382E4FEE30
:10496000481708F0AACF109281001092800088E0CA
:1049700087B914B822982596E2E10C9441355AE0A3
:10498000598381E08A83812C912C5401839491E195
:104990009D8390CFB0E0A0E0E0EDF4E20C942735E9
:1049A00080EE91E036D183E28093800010926F0018
:1049B0008FEF90E090938B0080938A0083E086BB1A
:1049C0001092820015B881E184B988E088B989E045
:1049D00087B9229A21E030E0309389002093880043
:1049E00080938100D0E080E0C2E310E094E6C92E1D
:1049F000D12CE12CF12C88248A9423E0922EA12C36
:104A0000B12CC817A1F1C43608F0C4562C2F30E0E1
:104A1000AFEFB3E00E9440346E5C7F4F8F4F9F4FEB
:104A2000A70196010E94023429013A0130938B00BC
:104A300020938A000E943102A8EEB3E0A301920104
:104A40000E94553461507E4F8F4F9F4FA5019401B6
:104A50000E940234C90125E045E26FEF0E94D004B4
:104A60000E94C102193218F08CE30E94270580E4ED
:104A700096E00E94D105182F833880F40AE0833332
:104A800020F40C2F882319F001E00C0FD0E08D2FBB
:104A90000E94441BD82F8C2FD03F68F088E087B944
:104AA000109281001092800014B82298CDB7DEB722
:104AB000E0E10C944335C02FA4CF0F931F93CF9305
:104AC000DF9380ED91E0A5D08CE193E00E94B835B2
:104AD000C82FD0E00E9431020C2F0C2E000C110BBD
:104AE000C7FF27C08DE20E94C30123E045E26FEFBC
:104AF00088279927801B910B0E94D0040E94C10235
:104B000080E496E00E94D10581111EC0C135C4F039
:104B1000C5568D2F0E94441BD82F803FD8F26C2F92
:104B20008CE193E00E94C535DF91CF911F910F91E9
:104B3000089523E045E26FEFC801DECFC15009C000
:104B4000CC3E3CF7CB59E5CF823848F78932B0F3F9
:104B5000CF5FD0E0DBCF813019F480E0E3CA089565
:104B6000823011F496CD0895833011F413CF089557
:104B7000843011F428CD0895853019F40C944E1B1F
:104B80000895863029F40E942B020C94891B089505
:104B9000873011F492CF0895883021F481E10C948C
:104BA0004B070895893011F488C108958A3011F4B3
:104BB0000C94F1060895CF93DF938CE292E029D014
:104BC000D0E0C0E00E9431028C2FBDDC80E49FE188
:104BD0000E94D1058111D0E090913501913009F406
:104BE000D0E0823390F0CC2341F08C2FB4DF8CE204
:104BF00092E00FD0DF5FDE3621F480E0DF91CF91CD
:104C00000895CB30F8F2CB50DDCF882399F3CF5FF6
:104C1000F1CFCF93DF93EC010E942B02CE010E94D3
:104C20006502C4E682E00E9427054F9902C0C15088
:104C3000C9F70E943102DF91CF910895B0E0A0E062
:104C4000E4E2F6E20C942E35182F062F862F90E022
:104C5000FC01ED56FE4FE491FE2E6894F3F8E12F2F
:104C6000F0E0E057FE4FC491FC01E057FE4FD491B5
:104C70001092800110927F011092730110927401C2
:104C8000109275011092760187EF809385010E9442
:104C9000E61488E088B9F7B8D4B9D5B9812F0E9455
:104CA0005F057C01802F0E945F05E81AF90A14B89D
:104CB000109252011092510130E020E05CE2C52ECA
:104CC000DD24D394DAE064E6B62E80915101909110
:104CD0005201843D904350F088E087B988B914B8F8
:104CE00015B8CDB7DEB7E9E00C944A35C5B9809167
:104CF000510190915201892B91F0F601E21BF30BC7
:104D00006091510170915201D29FC001D39F900DCB
:104D100011240E94DB33E617F70708F0A5C0C4B9D9
:104D20000E941A0514B88091510190915201019688
:104D3000909352018093510115B80E941C05A895CB
:104D4000812F0E945F059C012E193F09809151011E
:104D5000909152018B31964020F0253231050CF4B0
:104D6000BBCF2D3281E038070CF4AFCF80915101D9
:104D700090915201019729F4253185E038070CF014
:104D8000ABCF8091510190915201880F991FB0E0F3
:104D9000A0E080937B0190937C01A0937D01B09370
:104DA0007E01C90168E270E00E94EF33CB01820FFF
:104DB000931F0E94C31820917B0130917C01409188
:104DC0007D0150917E01DC010E94553460937B018E
:104DD00070937C0180937D0190937E0160937301B9
:104DE0007093740180937501909376010E947515FC
:104DF000C0907301D0907401E0907501F09076013D
:104E00008CE193E00E94B835A8EEB3E0A81BB1098D
:104E100087FDB395A70196010E945F3420E137E238
:104E200040E050E00E9402342093730130937401FB
:104E3000409375015093760188E080931A01209386
:104E40007701309378014093790150937A018091F2
:104E50008501809386011092820110928101009356
:104E600083011093840138CF8091510190915201B8
:104E70000B97C8F06091510170915201B29EC00130
:104E8000B39E900D11240E94DB336E177F0758F4F8
:104E9000C4B90E940F0514B880915101909152013C
:104EA0008C599F4F45CFC4B90E94150514B8809105
:104EB0005101909152010A963BCFCF92DF92FF921F
:104EC0000F931F93CF93DF930E942B0283E091E017
:104ED0000E9465020E9431028FEB90E00E94650201
:104EE0008AE193E00E94B83523E040E26EEF90E063
:104EF0000E94D0048BE193E00E94B83523E040E2A9
:104F00006EEF90E00E94D00489E193E00E94B835F2
:104F100023E044EF6EEF90E00E94D00488E99AE32A
:104F20000E94D1050E942B0288EB90E00E9465024E
:104F300023E044EF6FEF80913101909132010E94A4
:104F4000D0040E94310281EB90E00E94650223E0D0
:104F500044EF6FEF80913801909139010E94D004A5
:104F600088E99AE30E94D1050E942B028DEA90E025
:104F70000E9465028EE393E00E94B8358251990B3E
:104F80000E9432038FE393E00E94B8358251990B5F
:104F90000E9432038BE393E00E94B83523E046E49D
:104FA00064EF8251990B0E94D0040E94310283E089
:104FB0000E94FD018AE393E00E94B8358251990B6B
:104FC0000E9432038DE393E00E94B8358251990B21
:104FD0000E94320389E393E00E94B83523E046E45F
:104FE00064EF8251990B0E94D00488E99AE30E94F1
:104FF000D1050E942B028BE290E00E94650280E4C2
:1050000093E00E94C0350E941D030E94310284E299
:1050100090E00E94650282E493E00E94B835082E79
:10502000000C990B0E941D0360E081E00E940E02BB
:10503000C0E0FC2EFF0CFC0ED0E0FA94CD17B9F1C5
:105040000F2D0D0F10E0000F111FC801855D9C4F43
:105050000E94C0356C01C801835E9C4F0E94C03520
:105060008C018091A1018823A9F188E99AE30E942B
:10507000D1050E942B0285EA90E00E9465028C2FE8
:105080000E94F7018AE30E94C3018D2F0E94F7015D
:1050900080E00E94C70223E040E26EEFC6010E945A
:1050A000D00423E046E462EFC8010E94D004DF5F31
:1050B000D33021F6CF5FC33009F0BBCF88E99AE344
:1050C0000E94D105DF91CF911F910F91FF90DF904A
:1050D000CF90089580E00E94C702CDCFA0E8B0E055
:1050E000E4E7F8E20C94263550908901D0908F01C6
:1050F000F0909001852D90E09C0120573E4F490192
:10510000452C689446F878E0372EAF2CB12CF50189
:10511000E057FE4F8491F401C490C82A1491110FF6
:10512000182B40927C006D2C712CF301ED56FE4F34
:10513000E491E860E7B938B815B814B80E941B05C7
:10514000E12E012F212F40E4BE016F5F7F4F80E0F1
:1051500090E10E943400FE01759610E08AE02191F2
:1051600031913695279536952795121720F48F5F44
:10517000122F8034A1F7912F969596959695F12F41
:10518000F91B9F2FE82FF0E0EE0FFF1F21E030E02A
:105190002C0F3D1FE20FF31F803439F48F2DF09058
:1051A0008F01FD104CC0D82EB0CF21913191369592
:1051B000279536952795291708F046C082E08093F9
:1051C0001A01D0924D0150924B01F0924C01F50121
:1051D000E60DF71DEE5AFE4F10826D2D8F2D0E94A9
:1051E000CB12E0914D0180914C01E80FFF27FF1F8A
:1051F000EE0FFF1FEE0FFF1FE256FE4F80809180E3
:10520000A280B3801352212F30E0A4E6B0E00E94C8
:1052100040342B013C019A2D892D782D6627A5015C
:1052200094012057354E4F4F5F4F0E940234C30107
:10523000B2010E94023430934A0120934901C058C0
:10524000DF4FE1E10C9442358F5FA6CF08954F9276
:105250005F926F927F928F929F92AF92BF92CF9206
:10526000DF92EF92FF92AC016C01F12CE12C560120
:1052700099248824E52FFF279A01DA010E944034FF
:105280002C0166247724920165E0369527956A956E
:10529000E1F7E29FC001E39F900DF29F900D112472
:1052A0009A0174E0369527957A95E1F7E20FF31F9E
:1052B000E40FF51F92013695279536952795B4E0B2
:1052C00056944794BA95E1F72419350950E040E027
:1052D0002E0F3F1F411D511DBC01E3E076956795E0
:1052E000EA95E1F7861B970B280F391F411D511DC9
:1052F000C701B6010E94C033680D791D8A1D9B1D30
:10530000FF90EF90DF90CF90BF90AF909F908F90E5
:105310007F906F905F904F900895A3E0B2E0E3E933
:10532000F9E20C942535CF5FDD4F8883C150D24020
:10533000162FCE5FDD4F4883C250D2400E94E61444
:10534000CF5FDD4F2881C150D240E22FF0E0E0571F
:10535000FE4FF4909F2C990CE12FF0E0ED56FE4F9C
:10536000E491E860E7B915B8F4B8822F80648093BF
:105370007C000E941B05CE5FDD4F3881C250D240B9
:105380003170CD5FDD4F3883C350D240CE5FDD4FEB
:105390008881C250D2408F2C80FF892CE0E2DE2E23
:1053A00090E080E0CF2CE82C092D282D44E7BE01A9
:1053B0006F5F7F4F0E943400DA9480E490E0D11058
:1053C000F1CF14B81E0197E4290E311C73E2472E69
:1053D000512C612C712CC12CD12C7601812C912C5B
:1053E0005401F101819191911F01CD5FDD4FF88151
:1053F000C350D240FF2329F020E030E8281B390BAE
:10540000C90125DF9C0150E040E0820E931EA41EDE
:10541000B51EC301B2010E94C033C60ED71EE81EDE
:10542000F91E3FEF431A530A630A730A84E74816CA
:10543000510461047104A9F6C501B40121E530E00D
:1054400040E050E00E940234ABEBB7E10E945534DB
:10545000C61AD70AE80AF90AA701960164E0569528
:105460004795379527956A95D1F760EE7DEC81ECED
:105470009FE80E94023469017A01CE5FDD4F988176
:10548000C250D24091FD20C0CF5FDD4F8881C15016
:10549000D240880FCF5FDD4FE881C150D2408E0FE0
:1054A0001150810F90E0880F991FCD5FDD4FF8817B
:1054B000C350D240FF2379F0835E9C4F0E94C035D9
:1054C000C81AD90AE108F108C701B601CD5FDD4F5E
:1054D000E2E10C944135855D9C4FF0CF4F925F9295
:1054E0006F927F928F929F92AF92BF92FF920F9393
:1054F0001F93CF93DF93C0E0FC2EFF0CFC0ED0E097
:10550000FA94CD1709F43EC042E06D2F8C2F05DFD1
:105510002B0143E06D2F8C2F00DF4B010E942B02EB
:1055200085EA90E00E9465020E94FA018C2F0E9499
:10553000F7018AE30E94C3018D2F0E94F7010E94A8
:10554000FA010E94310224E040E26EEFC2010E94A3
:10555000D00424E046E462EFC4010E94D0040F2D81
:105560000D0F10E0000F111FB201C801855D9C4FA7
:105570000E94D335B401C801835E9C4F0E94D3358D
:105580000E94C102DF5FD33009F0BBCFCF5FC330D1
:1055900009F0B2CF0E94230285EA91E00E946502E1
:1055A0000E94C10288E20E942705DF91CF911F91DE
:1055B0000F91FF90BF90AF909F908F907F906F90D2
:1055C0005F904F900895A2E1B0E0E9EEFAE20C940A
:1055D00025352C017C836B83DD24D3942D2C312C39
:1055E00033E0D39E900111243E872D87F101EE0F09
:1055F000FF1FEE0FFF1FFC87EB87812C30E4932EFB
:1056000050E0712C612C18861F82B12CA12C1A82BB
:1056100019821E821D8240E0C12CF0E0E0E030E003
:1056200020E061E070E08FEF90E082199309988BA1
:105630008F870C2D10E08F8598890817190774F152
:10564000AB81BC81AB2B29F170E060E04230E8F027
:105650009501ED81FE812E1B3F0BA8EEB3E00E9469
:105660004034E981FA81AE1ABF0A950150E040E06A
:105670000E94023488EE93E0821B930B0E94830603
:10568000BC0188EB9AE70E94DB33AB81BC816D9350
:105690007C93C4016296E2E10C944135D801A20DDD
:1056A000B31DAA0FBB1FA40DB51D8D919C91E80FD2
:1056B000F91FD801AA0FBB1FA40DB51D8D919C9198
:1056C000280F391FCD1408F48AC0D801A219B309D4
:1056D000AA0FBB1FA40DB51D0D90BC91A02D2A1BB8
:1056E0003B0BE81BF90B7901EE0EFF1EC9018E1B67
:1056F0009F0B89879A87D701B695A795B695A795E9
:10570000A80FB91FB7FD76C0E217F30708F069C00C
:10571000513009F066C0D80156E0AA0FBB1F5A9558
:10572000E1F7BA8BA98BDC01A61BB70BBD01A8174B
:10573000B90770F0A6E0880F991FAA95E1F7809647
:105740000E94DB3389899A89861B970B9A8B898BF8
:10575000AD85BE85EA16FB0608F472CF8B859C8565
:1057600008171907BCF14423B1F069897A896619D1
:105770007709433050F0D4019096C40196958795EF
:105780008A0F9B1F86179707D0F1D71650F4DD2498
:10579000D394D70E23CFA989BA89B887AF83FE8265
:1057A000ED82AE0CBF1C4F5F4130F9F0842F815069
:1057B000990BBC0195958795A989BA898A0F9B1F7A
:1057C000AF81B8858A1B9B0BF6D74B0169887A8815
:1057D000FA82E982453108F033CF50E002C0698790
:1057E0007A87C39469857A8524CF69887A88FA8212
:1057F000E982F3CF51E0E217F30798F78CCFEB8102
:10580000FC81EF2B09F024CF44CFA6E2B2E0EBE01D
:10581000FCE20C942935F82ED62E8EE493E00E94FB
:10582000C0353C01ED2DF0E0E057FE4F1491EF2D17
:10583000F0E0ED56FE4FE4911092AE011092AF01F0
:105840001092B0011092B1011092B5011092B40102
:105850001092B6011092B7011092B8011092B901DE
:1058600080911A01813009F0D2C08091010118168F
:105870000CF4CDC088E088B9E860E7B90E941B0548
:105880002D2D206CD22E20937C000E941B05C12E52
:10589000E12C00E0212F4FEFBE016F5F7F4F80E1D1
:1058A00091E00E9434003F2D306CF32E30937C0049
:1058B000212F44E1BE0161507E4F80E191E00E94C2
:1058C0003400FE013196BE0161507E4F5B01AE0196
:1058D000475D5F4F81919191D5016D917D915D0102
:1058E0009F01225031098617970708F495C0861B3F
:1058F000970BD9018D939C93E417F50759F7D09234
:105900007C0070E060E0CE0101965DDE9F5F30E1DB
:10591000A32EBB24B394912C812C913178F040E1DB
:10592000A42E44E0B42E52E0852E912C903430F019
:1059300090E1A92EBA2C24E0822E912C88E0D82E5A
:10594000A895C12EE12C00E0212F4FEFBE016F5F23
:105950007F4FC5010E9434008114910409F462C094
:1059600064EB71E0CE0101962EDE5C01813C9F4329
:1059700008F0B2C06501F12CE12C9501D50180D76A
:1059800023E330E040E050E03DD7A8E6B2E08DD719
:105990003FEF831A930A76946794930150E040E0B6
:1059A00031D7C401880F991F04C0220F331F441F31
:1059B000551F8A95D2F72093B6013093B7014093D3
:1059C000B8015093B9018091090190910A01A09109
:1059D0000B01B0910C010397A105B10540F01092A5
:1059E000B6011092B7011092B8011092B901A1143A
:1059F000B10409F074C01092B5011092B401109274
:105A0000B6011092B7011092B8011092B901CA5DA7
:105A1000DD4FEEE00C944535D9011D921C926CCF00
:105A20005C018ECFC5018064DA94D110F9CF811565
:105A30009440C8F08EEF8F3F09F492CFE82FF0E04A
:105A4000EE0FFF1F21E030E02C0F3D1FE20FF31F90
:105A500020813181A3E036952795AA95E1F731831E
:105A600020838150E8CFF0927C00E894A6F808E00B
:105A7000F02EC12EE12C00E0212F44E1BE01615047
:105A80007E4FC5010E9434006894A6F8FA94F11084
:105A9000F0CF24E1215070F2822F90E0880F991FFF
:105AA000E1E0F0E0EC0FFD1FE80FF91F40815181AC
:105AB0006FEF71E06C0F7D1F860F971FDC018D91DA
:105AC0009C914817590728F0481B590B5183408374
:105AD000E1CF11821082DECFB12CA12C4BCF27E079
:105AE00030E02819390960E072E18AE790E004C0EB
:105AF000660F771F881F991F2A95D2F7A701960175
:105B000081D62093AE013093AF014093B001509302
:105B1000B1018091010187FD7ACF8FEF8093010160
:105B200076CFCF93DF93D82F0E94230284E190E0B9
:105B30000E9465020E94C102C0E01092B30110925F
:105B4000B20184E10E94270562E080E00E94B51561
:105B50000E94310224E046E464EF8091B20190910A
:105B6000B3010E94D0046091B2017091B301CB01E6
:105B70008C539F4085399547A8F4CF5FC53098F086
:105B80008EE493E00E94D3350E94FA0185EA91E009
:105B90000E94650284E60E9427050E942302DF918D
:105BA000CF910895C0E00E94C102DF5F31F6F5CFCA
:105BB000B0E0A0E0EDEDFDE248C780E48AB98BB922
:105BC000D6E8D0937A001092C1000E940705C4B7AE
:105BD000C87084B7877F84BF0FB6F894A89580916A
:105BE0006000886180936000109260000FBED093C7
:105BF000640088E380937E001092B00087E0809379
:105C0000B10078940E948902C111A9C580E185BFC5
:105C10004F9906C082E00E942705CF5FCC33C1F7C1
:105C20008FE59DE69093130180931201CF3130F000
:105C300080E69DE6909313018093120110922C014F
:105C40000E94021988E19FE00FB6F894A89580930E
:105C500060000FBE90936000CC3321F40E94DB25DE
:105C60008111FCCF48E0542E52E0752E60E1362EB3
:105C700078E1472EE9E5CE2EE1E0DE2EF1E22F2E8F
:105C80000E942B0257B80E94CE060E9402190E9461
:105C900023020E94310B80913A01882381F00E94F7
:105CA000310280E591E00E94650263E080912F015E
:105CB000909130010E94DB0488EC0E9427050E942D
:105CC00031020E94E61480911A01893061F50E9428
:105CD0002B0285E591E00E9465020E94310263E09B
:105CE00080910301909104010E94DB040E94FA015B
:105CF00063E080910501909106010E94DB040E94FF
:105D0000FA0163E080910701909108010E94DB0491
:105D10008AEC0E94270581E10E944B0780911201C5
:105D20009091130106C28CE00E9409028CE393E07B
:105D30001FD7C82F89E393E01BD7C81BC093370137
:105D4000CC2319F08EE00E94090280E00E944B07EC
:105D50000E94EC0286EB92E00E94650283E00E94C2
:105D6000EF040E941E0242E061E080E00E949A0B74
:105D700042E060E081E00E949A0B41E062E080E056
:105D80000E949A0B41E060E082E00E949A0B40E0A2
:105D900062E081E00E949A0B40E061E082E00E94B4
:105DA0009A0B80911A0181110EC00E94E61460E0E6
:105DB00082E00E94B51561E082E00E94B51560E0C6
:105DC00081E00E94B51580911A01833059F48091C9
:105DD0001801823039F49091890180918A019813D9
:105DE00001C07CD90E942B022FE331E030933D01AA
:105DF00020933C0180911A018630D9F488E892E022
:105E00000E94650241E467E48BE40E9435030E942E
:105E1000310289E691E00E946502E0913C01F09137
:105E20003D0162E0848195810E94DB040E941E0294
:105E300075CF873041F481E992E00E94650242E328
:105E400067E481E3E2CF8A3061F480E190E00E9470
:105E50006502D0923D01C0923C014BE467E481E4CD
:105E6000D4CF823009F040C08CE090E00E946502FF
:105E700042E365E481E30E94350380E00E94C702AB
:105E800060914D0180914C01E62FF0E0ED5AFE4FFC
:105E9000E80FF11D319710820E94CB12E0914D0165
:105EA00080914C01E80FFF27FF1FEE0FFF1FEE0F41
:105EB000FF1FE256FE4F608171818281938102E073
:105EC00024EF4FEF0E94EE0386E090E00E9465020F
:105ED0006091490170914A0190E080E003E025E281
:105EE00040E00E94EE031ACF8830D9F480918301FC
:105EF00090918401890F9927991F029771F40E944C
:105F0000891B8CE00E94090280913701882309F4E3
:105F100011C4D2E010E000E0FAC380E00E949B1AB6
:105F2000FDCE833009F012C180911801813009F053
:105F300077C080E00E94C2036091890180918F0147
:105F40000E94EB0A80E70E949A0340E06091890179
:105F500080918F01E2D960937301709374018093F3
:105F600075019093760180E00E94E00260917301D8
:105F700070917401809175019091760102E026E4A0
:105F800042EF0E94EE038DE20E94C30141E0609166
:105F9000890180918F01C1D960937301709374015D
:105FA000809375019093760126E442EF0E94EE0300
:105FB0008BE291E00E9465020E941E020E941E0276
:105FC00080916F01882309F4A9CE47B8809112010E
:105FD000909113010E94D10557B80E942B02809125
:105FE0001801805D0E94C3018BE191E00E9465026F
:105FF00030916F01332309F44EC380915601313043
:1060000009F0E5C20E945C0320915601213009F09D
:10601000D9C2209118012111D5C20E944E1B71CF07
:10602000823079F582E30E94C3018BE191E00E9406
:1060300065029091890130918A01931308C080E034
:106040000E94DE0381E00E94D50381E07CCF209195
:106050008F0180919001281307C080E00E94CE0339
:1060600081E00E94E503F1CF321306C081E0809306
:106070000D010E94B003A2CF98133DC030920D01D4
:10608000F8CF8330C1F533E330930D0180918F0158
:1060900090918A01891303C021E020930D01409162
:1060A000890130919001431302C030920D0120917B
:1060B0008B01821302C070920D01809191014813EF
:1060C00003C040E240930D0132130DC022E1209342
:1060D0000D01981751F083E30E94C3018BE191E019
:1060E0000E946502C6CF981302C020920D018091D4
:1060F0000D01823280F387E992E00E94650280E818
:1061000092E00E9465020E94310280911801805D38
:106110000E94C3018AE20E94C30185E391E00E94CC
:10612000650283E692E00E9465020E941E0280E4FE
:106130009FE147B84F9BFECF0E94D105823308F400
:10614000B7C20E94DB258111FCCF9ACD843009F0C3
:1061500050C180916801882309F45FC080914E018D
:10616000882309F45AC060914B0180914D010E942F
:10617000B5158090730190907401A0907501B09056
:106180007601C091850160916701809165010E944F
:10619000B51580913F0190914001A0914101B091CE
:1061A00042014091590150915A0160915B017091F7
:1061B0005C01843F21E09207A105B10538F4443F1A
:1061C00031E053076105710508F0C0EF443F5140CD
:1061D0006105710540F4843F9140A105B10518F0B7
:1061E00080EF80938501809185018C1311C080918F
:1061F000730190917401A0917501B0917601881698
:106200009906AA06BB0630F08CE08093190105C000
:10621000C817D4F79DE090931901809168018823F5
:1062200061F080914E01882341F04F9906C0809122
:10623000190191E0892780931901809119018C300F
:10624000F9F48CE791E00E9465028091680188234F
:1062500019F080E70E94C3010E94FA010E94A9067A
:10626000C82F853048F5809119018C30B9F481E050
:1062700020914C0190914D019217B8F080E015C02B
:10628000D0923D01C0923C0188E791E00E946502F6
:1062900080914E01882301F38EE6DCCF81E02091CE
:1062A000660190916701291748F7882309F49AC07D
:1062B00085E391E00E94650243E462E485E40E9484
:1062C00035030E94310286E891E00E946502E09168
:1062D0003C01F0913D01608171818281938103E0F5
:1062E00020E04EEF0E94EE030E94FA0189E40E9432
:1062F000C301E0913C01F0913D018681978180319D
:10630000974208F472C085E60E94C301E0913C0107
:10631000F0913D01868197818051974297838683D2
:106320000E940602E0913C01F0913D0122E041E42F
:106330006AEF868197810E94D00480E00E94E0028B
:106340008DE691E00E946502E0913C01F0913D01F3
:1063500063E0848195810E94DB04E0913C01F0912F
:106360003D0180859185892B91F080E00E94E002BB
:106370008DEF90E00E946502E0913C01F0913D01BB
:1063800023E041E46AEF808591850E94D004E0918A
:106390003C01F0913D0182859385892B91F080E04D
:1063A0000E94E00287EF90E00E946502E0913C01CC
:1063B000F0913D0123E041E46AEF828593850E94DC
:1063C000D004C53008F0AACC80E00E94E0028C2FF7
:1063D0000E94C20389E691E00E9465028C2F0E9410
:1063E0008C0324CD81E391E065CF83E60E94C30155
:1063F00097CF853009F0FCCD8091190184FF3EC014
:1064000080E50E94C301D0923D01C0923C018DE223
:106410000E94C30180911901C82FCF70C43091F53B
:106420008FE891E00E9465024FE367E48FE30E94EA
:1064300035038091190185FD3EC00E943102E09133
:106440003C01F0913D01668584850E94B5150E944E
:10645000F10284E691E00E946502E0913C01F09136
:106460003D0162E0828593850E94DB0480E00E940A
:106470000903C43009F452CCC0E09FC08EE40E94EE
:10648000C301C5CF85FF0DC084E40E94C301C330A2
:1064900051F489E891E00E94650243E467E485E4F1
:1064A000C6CF85E4F2CF84E991E00E94650244E41E
:1064B00067E483E5BCCF8F70843009F452C080E07C
:1064C0000E94C702E0913C01F0913D016685848500
:1064D0000E94B5150E94F10280E00E94E00289E46A
:1064E0000E94C3010E940602E0913C01F0913D012F
:1064F00022E041E46AEF868197810E94D0048FE513
:1065000091E00E946502E0913C01F0913D0162E062
:10651000828593850E94DB04E0913C01F0913D016E
:1065200080859185803C924108F0A0CF80E00E9458
:10653000E00289E40E94C3010E94060222E041E4D5
:106540006BEF90E080E00E94D0048FE591E00E9424
:106550006502E0913C01F0913D0162E0808591850A
:1065600083CFE0913C01F0913D0184819581892B9D
:1065700009F4B2CF80E00E94C70280E090E00E9460
:106580006502E0913C01F0913D0122E041E46AEFB7
:10659000848195810E94D0049FCF80E00E94E00218
:1065A0008C2F0E94C20389E691E00E9465028C2F25
:1065B0000E948C030E941E02CF5F80911801C817B1
:1065C00060F3ACCB40E0692F0E94D319A7CB909128
:1065D000570124E0929FD0011124AE55BE4F24E014
:1065E000829FF0011124EE55FE4FED90FD900D912C
:1065F0001C914081518162817381282F4E155F0566
:106600006007710708F4292F980FC3E0C91B3230C7
:10661000E1F0C091580134E0C39FD0011124AE5580
:10662000BE4F84E0289FF0011124EE55FE4F4D919E
:106630005D916D917C9180819181A281B38184175C
:106640009507A607B70708F0C22FDC2FD695072DB0
:106650000C1B12E0C11101C011E08D2F0E94F70147
:1066600086E191E00E946502802F0E94F70186E199
:1066700091E00E946502812F0E94F70180E00E9454
:10668000C70281E0C11180E00E946603872D8D1B47
:106690000E94660343CB8FE692E00E9465020E944F
:1066A00031028FE992E00E94650287E992E03BCDDA
:1066B0008111E6CA26CCF501E80FF91FC491C0325A
:1066C00009F4682E019681319105A9F7DD2341F186
:1066D0009D2F9170F92ED0FF0E942B0260E08F2D2C
:1066E0000E940E020E941E02A895DF5FD170F12C5D
:1066F000E12CE61410F1CC23C9F0060D111DF801B0
:10670000EA56FE4FE491E03211F40F5F1F4F90E024
:1067100080E020E1622E98012A563E4F5901CBCFEE
:1067200080E197E20E94D105882391F280E197E20F
:106730000E94D1050E94F106A3CAF501EE0DFF1DCE
:10674000C491CC2399F3CF3F31F40E94FA012FEF8B
:10675000E21AF20ACECF8C2F0E94C301F8CF0E941A
:1067600023028AE592E00E9465028BEC0E942705D5
:106770000E94F10690E080E0CDB7DEB7E2E181C192
:10678000DB018F939F9391D0BF91AF91A29F800D1A
:10679000911DA39F900DB29F900D11240895991BF8
:1067A00079E004C0991F961708F0961B881F7A9508
:1067B000C9F780950895AA1BBB1B51E107C0AA1F0A
:1067C000BB1FA617B70710F0A61BB70B881F991F92
:1067D0005A95A9F780959095BC01CD01089597FB36
:1067E000072E16F4009406D077FD08D0E4DF07FCEE
:1067F00005D03EF4909581959F4F089570956195D1
:106800007F4F0895A1E21A2EAA1BBB1BFD010DC0EC
:10681000AA1FBB1FEE1FFF1FA217B307E407F50750
:1068200020F0A21BB30BE40BF50B661F771F881F2C
:10683000991F1A9469F760957095809590959B01C2
:10684000AC01BD01CF010895052E97FB16F400940D
:106850000FD057FD05D0D6DF07FC02D046F408C0A4
:1068600050954095309521953F4F4F4F5F4F08957C
:1068700090958095709561957F4F8F4F9F4F0895AC
:10688000A29FB001B39FC001A39F700D811D112471
:10689000911DB29F700D811D1124911D0895F0DF8F
:1068A000B7FF0895821B930B0895EADFA59F900D13
:1068B000B49F900DA49F800D911D11240895B7FFE2
:1068C000F4CFF3DF821B930B0895E894DF93CF930B
:1068D000FC01DB01D5DF7F936F93E9019A01AC01E5
:1068E000BF93AF933F932F93DF01CADF26F46C1B56
:1068F0007D0B820B930B9E01EB01FC01DDD0AF9170
:10690000BF912F913F91D8D0BE01CF01F9012F91B6
:106910003F91CF91DF910895689401C0E894F92FD9
:10692000F12B0AF027C0A0E0B0E0E8E9F4E393C05F
:10693000092E05941AF479D0112392F4F0E80F2669
:10694000FFEFE094F09400951095B094C094D0942B
:10695000A194BF0ACF0ADF0AEF0AFF0A0F0B1F0B31
:1069600013D007FC62D0CDB7DEB7ECE090C06894DE
:1069700001C0E8948F929F92CF93DF9305D0DF916F
:10698000CF919F908F90089588249924F401E40179
:10699000B0E49F93AA279A158B049C04ED05FE058D
:1069A000CF05D007A10798F4AD2FDC2FCF2FFE2FF6
:1069B000E92D982C892E982F872F762F652F542F0D
:1069C000432F322F2227B85031F7BF9127C01B2EFB
:1069D000BF91BB27220F331F441F551F661F771F10
:1069E000881F991F881C991CEE1FFF1FCC1FDD1FDD
:1069F000AA1FBB1F8A149B04EC05FD05CE05DF050D
:106A0000A007B10748F08A189B08EC09FD09CE09D8
:106A1000DF09A00BB10B21601A94E1F62EF494016A
:106A2000AF01BE01CD01000C089560957095809571
:106A3000909530954095509521953F4F4F4F5F4F22
:106A40006F4F7F4F8F4F9F4F08952F923F924F92DE
:106A50005F926F927F928F929F92AF92BF92CF92EE
:106A6000DF92EF92FF920F931F93CF93DF93CDB7F7
:106A7000DEB7CA1BDB0B0FB6F894DEBF0FBECDBF6F
:106A800009942A88398848885F846E847D848C8440
:106A90009B84AA84B984C884DF80EE80FD800C8149
:106AA0001B81AA81B981CE0FD11D0FB6F894DEBF2C
:106AB0000FBECDBFED010895E3DE460F571FC81F7F
:106AC000D91F08F431960895BB27FA01A62F621743
:106AD000710581059105330B30FB66F0AA27660F1F
:106AE000771F881F991FAA1FA21710F0A21B63957A
:106AF0003850A9F7A05DAA3308F0A95DA19336F735
:106B0000B111B1931082CA0123C04532510518F466
:106B1000423008F004C0FB011082CB010895BB276E
:106B2000FB015527AA27880F991FAA1FA41710F049
:106B3000A41B83955051B9F7A05DAA3308F0A95D55
:106B4000A193009779F7B111B1931192CB0100C0D5
:106B5000DC01FC01672F71917723E1F7329704C0C4
:106B60007C916D9370836291AE17BF07C8F308954F
:106B7000F999FECF92BD81BDF89A992780B5089505
:106B8000A8E1B0E042E050E013C0262FF999FECF13
:106B90001FBA92BD81BD20BD0FB6F894FA9AF99A3A
:106BA0000FBE01960895F1DF272FF0CFDC01CB0156
:106BB000FC01F999FECF06C0F2BDE1BDF89A31960D
:106BC00000B40D9241505040B8F70895F894FFCFAB
:00000001FF
