:1000000085C0000095C0000093C0000091C00000B2
:100010008FC000008DC000008BC0000089C00000B0
:1000200087C0000085C0000083C0000081C00000C0
:100030007FC000007DC000007BC0000079C00000D0
:1000400077C0000075C0000073C0000071C00000E0
:100050006FC000006DC000006BC0000069C00000F0
:1000600067C0000065C000005245465F523D005227
:1000700045465F433D00203E3130306E460001046E
:100080001001020452303D00494345733D0049438D
:1000900045303D00B903870358032E030703E402EC
:1000A000C302A40288020000140029003E0053008D
:1000B000690080009700AE00C600DF00F800120162
:1000C0002D01490165018201A001BE01DE01FF0190
:1000D0002102440268028E02B502DE0209033503E2
:1000E00064039403C803FE0337047304B404F904DF
:1000F00043059305EA054906B3062907AE074808F4
:10010000FF08DE09FD0A930C480F991B11241FBE3E
:10011000CFEFD4E0DEBFCDBF21E0A0E0B1E001C071
:100120001D92A33AB207E1F70E94F2190C94901FB6
:1001300067CF80FD5C9A80FF5C98549A00005D9ABE
:10014000559A589859985A985B9864FD589A509ABD
:1001500065FD599A519A66FD5A9A529A67FD5B9AC3
:10016000539A00005D98ECD287FD10C05D9A5898B4
:1001700059985A985B9860FD589A61FD599A62FDAA
:100180005A9A63FD5B9A00005D98DAC208958091E7
:1001900037018093000180919601809302010895B8
:1001A000909137019F5F90933701682F81E0C1DF05
:1001B000BED2A89508958F5CF3CF089580E2F0CF6A
:1001C0000895CF93C82F1C1614F0CF910895F6DF31
:1001D000C150F9CF8DE3E4CF0895682F80E0A9DF07
:1001E000A6C208951092960180E8F7DF10923701B9
:1001F000089581E08093960180ECEFDF1092370143
:10020000089582E08093960180E9E7DF109237013C
:10021000089583E08093960180EDDFDF109237012F
:10022000089560933701813021F480EC860FD5CF9B
:10023000089580E8FBCF6091000180910201F1CF29
:10024000089581E0CADF67D2CDCF0895CF93DF93C1
:10025000EC018991811103C0DF91CF910895A0DF56
:10026000F8CFCF93DF93EC01FE018491982F9F7715
:1002700019F096DF2196F8CFDF91CF910895CF93B3
:10028000DF93EC01CE010E94771F982F9F7719F022
:1002900087DF2196F7CFDF91CF9108950F931F93BA
:1002A000CF93DF93EC0128968C010F5F1F4F0E94C4
:1002B000771F76DFC8010C171D07B1F7DF91CF91CB
:1002C0001F910F91089522D283E387DF82E385DFB8
:1002D00022D280E282DF80E280DF8AE27EDF88E075
:1002E0007CDF86E07ADF82E078DFABDF15D28CE05E
:1002F00074DF88E472DF80E290E0D0DF80E56DDFBC
:1003000088E190E0CBDF88E568DF88E290E0C6DF37
:1003100088E763DF80E190E0C1DF80E75EDF88E0AF
:1003200090E0BCCF08959091370180E1891B49CFBF
:100330000895CF93C82FF7DF809196018F5F809348
:100340009601823058F081E08093960180933A01C3
:100350006C2F8091960165DFCF91089510923A013C
:10036000F7CFE7DF97C208953DDFDDDF3BCF08958C
:1003700040DFD9DF3ECF089508950F938CEB90E0D6
:100380007EDF40917A014D3F6CF46091680170917D
:10039000690180916A0190916B0103E026E4EAD043
:1003A0000F9108958FE3FCDEFBCF909115019F70B4
:1003B000923071F4D6DF80E390E061DFE0913801A4
:1003C000F091390122E044EF6FEF848195817FC184
:1003D000089597FF09C08F939F938DE2E1DE9F916F
:1003E0008F91909581959F4F6DE171E04AE050E0CB
:1003F0000E94441F2BCF0895ECDF01C0EADFDECE60
:100400000895EF92FF920F931F93182F062FF42E4B
:100410008BEA90E034DFEE24E0913801F09139016D
:100420008685E81611F4812F09C08485E81611F439
:10043000802F04C08585E81611F48F2DB1DEE3947A
:100440008E2D833049F71F910F91FF90EF90089503
:10045000682F80E092E0662309F491E0623009F4AD
:1004600081E008950F93082FE7E9F1E0880F880FE6
:10047000E80FF11D6081718182819381643671057D
:100480008105910570F42091010127FD0AC0802F9C
:10049000DFDF692F0E94B5176EEF23E044EF17D11D
:1004A00004C04FEF04E024EF65D088DE0F9108957B
:1004B000863058F4EAE8F1E0E80FF11DE80FF11D8D
:1004C0008081918163E00ED179CE08951F93182F1A
:1004D00080916501882319F071DE82E561DE89DE95
:1004E00082EA90E0CCDE812F82958F70E1DF812F50
:1004F0008F70DEDF1F91089580910D0182958F70BE
:1005000019D080910D0183701CD080910D01DECF38
:100510000895EEE7F1E0E80FF11D0895CF93F9DFBC
:100520009081C681C91710F405D001C013D046DEF2
:10053000CF910895EEDF8F9380813DDE8F9101C0D2
:1005400008958F938EE690E09ADE8F91E2DF8681A8
:1005500032CE0895DEDF8F9386812DDE8F9101C02C
:1005600008958F938AE690E08ADE8F91D2DF8081B2
:1005700022CE0895AEE0B0E0E0ECF2E00C940D1F66
:10058000242E322E6B017C01102F1F7080E3898393
:100590008A838B838C838D838E83F7FE1DC08DE2CF
:1005A000FFDDF094E094D094C094C11CD11CE11CF8
:1005B000F11C88EE93E0133031F084E690E01430C3
:1005C00011F480E197E22C01712C612C9AE0892EC4
:1005D000912CA12CB12C12C005FFEBCF8BE2E0DDFA
:1005E000E8CFC701B6016B5F7F4F8F4F9F4FA501CB
:1005F00094010E94B01E69017A012394C414D504A9
:10060000E604F70470F786E0821963E00E94901E0A
:10061000792E4E0187E0880E911C4AE0B401C60194
:100620000E944E1FF40101900020E9F731977F01ED
:10063000E818F90881E1820D9BEA899F812D112438
:10064000869590E0805090400E94771FB82E04FF5E
:100650002AC0E11640F51E19CE2CC718C10E1C1475
:1006600024F08EE29DDD172D1E19711002C088EF57
:10067000C82E912C012F10E0E00EF12EF11C0C2C55
:10068000000CDD08E92DF0E0EE15FF0574F0BB204D
:1006900011F08B2D85DD332011F0832D81DD2E9619
:1006A000E2E10C94291F10E0D7CF3696E01BF10B46
:1006B00081E090E08C0F9D1FE80FF91F808170DDB5
:1006C00093949C141D04F1F68EE26ADDDBCF0F9348
:1006D000362FBC0190E080E0022F242F432F4ADF09
:1006E0000F9108950F93062FBC0190E080E026E55E
:1006F0004DEF40DF0F910895089503D002D001D04F
:1007000000D000D003D002D001D000D000D003D060
:1007100002D001D000D000D0A89503D002D001D0E3
:1007200000D000D003D002D001D000D000D003D040
:1007300002D001D000D000D003D002D001D000D030
:1007400000000895E8DFE8DFE7DF1F93182F10644B
:1007500010937C00E12FE07880912801E81751F098
:10076000E0932801E3DF86ED80937A0080917A00A0
:1007700086FDFCCF20E030E0A901E0E01EC086ED60
:1007800080937A0080917A0086FDFCCF609178009A
:1007900070917900260F371F411D511DE43061F41F
:1007A00080912A01803041F084E02030380720F425
:1007B00017FD02C01068CCCFEF5F80912701E817CA
:1007C000F0F260912B0170912C0117FF04C0609131
:1007D000290170912A0180E090E00E94811E2FEF94
:1007E00033E040E050E00E94B01EB901CA01209100
:1007F000270130E040E050E00E94B01EC9011F9187
:1008000008959B01281B390B50F0C9010895BC01C4
:1008100080912B0190912C016817790718F4861BA1
:10082000970B089580E090E00895EF92FF920F9368
:100830001F93CF93DF937C01C5E64F9903C06CDF14
:10084000C150D9F7E70105E510E0D7FD1BC063DF14
:10085000000F4F9B0F5F0F730F3341F4111102C054
:10086000E70114E01F5F163928F00CC0011102C027
:10087000111108C0A895209741F32A9731F7CFEFBF
:10088000DFEFE3CF812FDF91CF911F910F91FF9089
:10089000EF900895CF937BDCC82F80913A01882395
:1008A000D1F0813051F4C13041F46FE081E0B9DC26
:1008B0008BE276DC6FE081E0B4DC80E49FE1B5DFC1
:1008C000C13041F480913A01813021F481E060E04F
:1008D000A8DC29DDB0DCCF91089585ED91E00E9480
:1008E000771F382F86ED91E00E94771F20912F010E
:1008F000230F30913001381F2093120130931301E0
:1009000083E0283E380720F0C901885E934002C08A
:1009100080E090E062E370E00E949C1E683008F086
:1009200067E0E4E9F0E0E60FF11DE60FF11D459107
:1009300055912591359162E3681B421B530B649FCF
:10094000C001659F900D1124499662E370E00E94FA
:100950009C1E620F731F709367016093660187EDA1
:1009600091E00E94771F992787FD909560912F0154
:1009700070913001860F971F90932A01809329016F
:1009800090936401809363010895CF93DF9324E1F2
:1009900030E0B9010E949C1EDC01E6EAF0E0E60FBF
:1009A000F71FE60FF71FC591D591459155914C1B47
:1009B0005D0B4A9FC0014B9F900D5A9F900D1124D3
:1009C000B9010E949C1E6C0F7D1FCB01DF91CF915E
:1009D000089540911401A0913801B0913901EEE7DA
:1009E000F1E030E020E0822F2417B0F451911C9602
:1009F0009C911C97591719F05581951303C02F5FCF
:100A00003F4FF1CF220F331FF901E657FE4F2081F0
:100A10003181293E334008F084E108951092160197
:100A2000109214011092620110924A011092150165
:100A30001092360110926501EDE4F1E0108211820E
:100A40001282E8E6F1E0108A82E0818B10920101C7
:100A500017861686148215821682178281EF838B81
:100A600008955E984DDE90E080E0DFCE08951F93FC
:100A7000CF93DF93162F17B818B8E82FF0E0E2589D
:100A8000FF4F949195B9262F281BE20FF11D27FDEA
:100A9000FA95E491E92BE4B958DEEC01812F55DE9B
:100AA000AC0120912B0130912C0136952795C9017D
:100AB0000497BE01625E7F4F8617970778F4265E23
:100AC0003F4FC217D30750F4BA01625E7F4F8617BB
:100AD000970720F481E04217530708F080E014B82C
:100AE000DF91CF911F910895CF9361E080E0BFDF48
:100AF000C82F62E080E0BBDFC80F62E081E0B7DFB3
:100B00008C0FCF910895AEE0B0E0E9E8F5E00C94E9
:100B1000131F10921601807F41F093DB8DE490E06B
:100B2000AEDB2E96ECE00C942F1FDEDF8330C9F78E
:100B300088DB8EEF90E0A3DB5CDB8FE331DB80EDC5
:100B400097E073DE8B3048F354DB0E94051484E891
:100B500090E087DB60E08CEC91E00E947F1F60E01A
:100B60008DEC91E00E947F1F60E08BEC91E00E9491
:100B70007F1F60E082E00E94B5176C019A83898331
:100B800061E082E00E94B5177C019C838B8360E06A
:100B900081E00E94B5178C019E838D8323E040E2A3
:100BA0006EEFC60194DD23E040E26EEFC7018FDDFA
:100BB00023E044EF6EEFC8018ADD2AE5C216D104B6
:100BC00024F084E190E09A83898369818CEC91E040
:100BD0000E947F1F8AE5E816F10424F084E190E08A
:100BE0009C838B836B818DEC91E00E947F1F0A3583
:100BF000110524F084E190E09E838D836D818BEC60
:100C000091E00E947F1F82E080933A0143DE18E763
:100C10006BDF882339F0ACDB81EF90E030DB72DDF5
:100C20001150B1F70EDB86E490E029DB23E044EFBE
:100C30006FEF80912D0190912E0149DDDADA8FE37B
:100C400090E01DDB23E044EF6FEF80913401909141
:100C500035013DDD82E080933A011CDE10921601E1
:100C6000F0DA8BE390E00BDB60E082E00E943F1162
:100C70008090700190907101A0907201B09073010A
:100C80009C868B8661E082E00E943F11C0907001DB
:100C9000D0907101E0907201F0907301DE86CD86F4
:100CA00060E081E00E943F1100917001109171019C
:100CB0001E830D8362E080E00E943F1180917001ED
:100CC000909171019C838B8362E081E00E943F11CF
:100CD00080917001909171019A87898761E080E02D
:100CE0000E943F1180917001909171019A838983D4
:100CF00020913301223009F00CC1029698878F832E
:100D0000C4017CDBC6017ADBB801110F880B990B9B
:100D100003E026E444EF2EDC8E010F5F1F4F9E019F
:100D2000215F3F4F7801F701819191917F010A97EF
:100D3000853B9105C8F42E173F07A9F73EECC32E5B
:100D400031E0D32EF80160810E5F1F4F615FC60155
:100D50000E947F1FFFEFCF1ADF0AE016F10691F71E
:100D600048DA8EED90E08BDA82E080933A0192DDF2
:100D700068DA80E020DA84E990E081DA82E01BDA48
:100D800086E790E06EDA90E4F92E10E02AE0822EF9
:100D9000912CA12CB12C42DE1092160160E082E071
:100DA0000E943F1100917A01209168013091690100
:100DB00040916A0150916B01073F0CF4B1C0009360
:100DC0007A01209368013093690140936A0150933E
:100DD0006B01073F09F0ACC02056310941095109A8
:100DE000203935454105510508F0A2C060917C01CC
:100DF00070917D01CB018B569F4F8B32914008F053
:100E000097C01F5F153008F494C085ED91E00E94F3
:100E10008D1F17DA8FE690E024DA80917C019091A3
:100E20007D01D7DA5ADD18B881E087B980E284B94C
:100E300082E08BDC853D9340DCF714B810922A01E8
:100E40001092290182E081DC7C0180916301909104
:100E5000640190932A018093290182E076DC6C0181
:100E6000CC0CDD1C10922A011092290182E06DDC6D
:100E70004C01A0906301B0906401B0922A01A0924D
:100E80002901B7D988E690E0ECD987ED91E00E947E
:100E9000771F182FD701A80DB91DAC19BD099501F1
:100EA0000E94FD1E96010D2C000C440B550B0E9458
:100EB000D21E1D5F120F612F87ED91E00E947F1FF0
:100EC000812F012E000C990B84DA07DD82E08093DC
:100ED0003A01E0DC109233018CE07FD98EEC91E096
:100EE0000E94771F682F81ED91E00E947F1F89E1AA
:100EF00080932701A6D98DE490E0C1D97AD987EEF5
:100F000090E0BDD91092160182E080933A01C2DCD4
:100F100008CE98878F83109233018CE05ED9F0CE93
:100F20000F5FCA01B901A50194010E94B01E44CF10
:100F300010E05FD9609168017091690180916A0148
:100F400090916B0104E026E440917A0113DBEBD928
:100F5000DCDBFA94F1101FCFCACF809133018111ED
:100F60000DC08EEC91E00E94771F61E0680F81ED6B
:100F700091E00E947F1F81E0809333010895EF92FA
:100F8000FF920F931F93CF93DF93D62FE82FF0E0BC
:100F9000EF57FF4FE491E8B9E7B915B8E62FF0E055
:100FA000E258FF4FE491E4B9CE2FCC0F88E8E82E49
:100FB00083E1F82E8D2FC6DB8C01C4B98E159F05F9
:100FC000F8F0892BC1F082E790E059D9D80120EAE6
:100FD00036E841E050E00E94031F28E937EB40E08B
:100FE00050E00E94B01EC90122E041E467EF6FDBD0
:100FF00017B818B814B8CDB7DEB7E6E00C94351FB3
:101000007801D8CF0F931F93CF93DF9385E09DDBBB
:1010100085E09ADBEC018C01000F111F000F111FFE
:1010200010923101043883E0180760F482ED90E0FB
:1010300026D979D981E080933101DF91CF911F9139
:101040000F91089581EE90E01AD962E0C8014ADB61
:10105000B5D8C93082E0D80778F4C73DD14038F41C
:101060008BE591E00CD95FD948DBFBDCE6CF81E66C
:1010700091E005D958D9E1CF8EED90E0FACFA9E102
:10108000B0E0E5E4F8E00C940D1F888F698F242E02
:10109000A895098DE02FF0E0E258FF4F14911D87CD
:1010A000110F1F8B339604910983E42FF0E0E2586F
:1010B000FF4F949033961491E82FF0E0E258FF4FE1
:1010C0008490082D000F0E873396349095B80D85C7
:1010D00009290F8304B937B838B8898D35DB7C010D
:1010E0000D8504B9898D30DB8A83092F14B813DB91
:1010F00015B82F8124B9898D27DBB70182DB5C010C
:10110000398137B918B8492D48294B8345B944B9B5
:10111000888D1ADB7CDB6C0115B8FDDA85B8888D0B
:1011200013DB75DB3C0184B8888D0EDB70DB2C0192
:10113000B301C60166DB8032A1E09A0730F4B0E269
:10114000AB16B1E0BB0608F4A2C5A60CB71C8E0D09
:101150009F1DA816B90618F037014A80502E20911D
:101160004A0180916201820F9927991F02974CF0E2
:10117000213009F0CBC49091470180915F01981311
:10118000C5C4B92CBB0CAD84AB280B2D08290A8330
:1011900024E76216710408F405C1C3010A96880F9A
:1011A000991F4816590608F0FDC037B838B8A4B8DA
:1011B000898DC9DA7C01822DC8DA6C01B5B8898DB8
:1011C000C2DA9701295A3D4F18B8098107B90A8137
:1011D00004B905B92817390708F06BC0822DB3DAB6
:1011E00088349F4008F460C085E08093160182E255
:1011F00080931501F0924001E0923F01B601C701D2
:101200000BDB90934601809345019701A0E1B7E283
:101210000E94EE1E209110013091110150E040E03B
:101220000E94B01E30934201209341010F89B02AE1
:10123000B4B815B837B838B8822D87DA7C01898DF3
:1012400082DAB701E9DA90934401809343018091F7
:1012500015018F70843011F118B80981102B17B95E
:1012600084B81B8115B9888D6FDA7C01D0DA8C01C6
:10127000898D6BDAC0901701D0901801BC01C701AD
:10128000CBDA9601DC010E94EE1E980150E040E0AE
:101290000E94B01E3093400120933F0180914A018B
:1012A0008F5F80934A01C4C285E08093160184E277
:1012B0009FCF888D48DA7C01822D47DA6C0185B892
:1012C000888D41DA895A9D4F8E159F0508F01EC4FE
:1012D00038B837B8822D37DA813D934008F05DC0C9
:1012E00085E08093160182E380931501B701C60162
:1012F00093DA90935E0180935D01C70188DA9C01C7
:10130000A0E1B7E20E94EE1E209117013091180172
:1013100050E040E00E94B01E30935A0120935901E2
:1013200018B8098107B90E85B02AB4B8B5B8888D48
:101330000CDA7C01822D07DAB7016EDA90935C013A
:1013400080935B01809115018F70843001F1132926
:1013500018B917B915B81B8114B9888DF5D96C0166
:10136000898DF3D98C01E0901001F0901101BC013E
:10137000C60152DA9701DC010E94EE1E980150E08E
:1013800040E00E94B01E3093580120935701809195
:1013900062018F5F8093620105C185E08093160131
:1013A00084E3A2CF18B8098107B985B81A8114B9A6
:1013B000888DCAD99A8789872ADA6C01822DC5D986
:1013C0009E838D83720124E6E20EF11CB201C601F8
:1013D000EC14FD0408F0E8C01FDA8C01209117011D
:1013E0003091180150E040E060E871EA83E09CE150
:1013F0000E94B01ED8010E94031F0D811E8198011A
:1014000050E040E00E94B01E2B8B3C8B4D8B5E8BDE
:1014100014B815B838B837B87FD91F8114B9898D79
:1014200093D98F359D4008F458C1A4B8898D8BD9C4
:101430008C01822D8AD9988B8F87888D86D99A8B3B
:10144000898B8F859889813D974008F4D9C084E0C5
:10145000809316018DE080931501780140165106A6
:1014600010F4E418F5088090100190901101B12C4F
:10147000A12C60E871EA83E09CE1A50194010E943F
:10148000B01ED7010E94031FEF85F8899F0150E02D
:1014900040E00E94B01E80916201882371F080912B
:1014A000530190915401A0915501B09156018217BA
:1014B0009307A407B50708F08EC02093530130931B
:1014C000540140935501509356019801A0E1B7E2B1
:1014D0000E94EE1EA50194010E94B01E30935A0195
:1014E000209359016F85788989899A8995D9909334
:1014F00058018093570181E040915301509154016C
:1015000060915501709156010B891C892D893E8986
:10151000401751076207730708F05FC0009353013B
:101520001093540120935501309356016D817E81B3
:1015300089859A8571D990935801809357019601B6
:10154000A0E1B7E20E94EE1E209117013091180130
:1015500050E040E00E94B01E205F384D30935A01A9
:1015600020935901C0901001D0901101F12CE12C71
:101570009201A0E1B7E20E94EE1EA70196010E942F
:10158000B01E30935C0120935B019301A0E1B7E2B0
:101590000E94EE1EA70196010E94B01E30935E01CC
:1015A00020935D0181E01BC037D98C012B8124B9C8
:1015B000888DCAD89A8789872AD96C01822DC5D887
:1015C0009E838D83BC01C80127D99C01A4E6B0E0AD
:1015D0000E94EE1E12CF80E08FCF8111C3CF909179
:1015E00062019F5F90936201882309F445C32092B2
:1015F0005F01098D00936001188D109361013CC358
:1016000021E64216510408F068C0013D37E0130797
:1016100008F463C085E08093160182E18093150190
:10162000C80186509F4FA989BA898A179B0708F07D
:101630003EC083E18093150109810770C02E822D81
:10164000806480937C00FBE0DF2EEE24E394F12C99
:101650000FEF13E0A89561E0892D36D5A4B886B1C7
:101660008C21E9F32D8524B980917A0080648093E0
:101670007A0080917A0086FDFCCF8091780090916D
:101680007900D801A81BB90BEA0EFB1EDA94D11021
:10169000E1CFC701880F991F880F991F69E070E09B
:1016A0000E949C1E70935E0160935D0170CEE0907D
:1016B0001001F0901101B80189899A89ADD897017C
:1016C000DC010E94EE1E980150E040E00E94B01E36
:1016D0003093580120935701AFCFA4B8B5B8898D86
:1016E00033D85C01822D31D89E838D8390D88C01B4
:1016F000EA14FB0408F09EC0B201C5018DD87C013C
:10170000209110013091110150E040E060E871EA51
:1017100083E09CE10E94B01ED7010E94031F980144
:1017200050E040E00E94B01E29873A874B875C87D3
:10173000198117B918B80B8104B905B9888D04D877
:101740007C01822D02D898878F83898D0E94A50302
:101750006C0110E3E11611E1F10608F0D5C185B87E
:10176000888D0E94A403988B8F8784B8888D0E94EF
:10177000A4038C0115B80E948C0385B8888D0E9443
:10178000A4030034164008F073C08133914108F47B
:101790006FC0C7018A569F4F0F8518890817190710
:1017A00008F066C086E08093160180914A018F5F41
:1017B00080934A01B6018F8198852ED8909340017D
:1017C00080933F01B601C70127D8909346018093CB
:1017D000450114B815B8198118B90E948C0384B852
:1017E000888D0E94A403853F910510F50B8104B9F3
:1017F000822D0E94A403813D9340D0F0888D0E94E9
:10180000A5038D3D9240A0F084B8888D0E94A4036A
:101810008D3D924068F085B80E948C0315B8888D84
:101820000E94A403853F910518F487E08093160178
:1018300081E0F4C00F8104B995B8898D0E94A4039A
:101840005C01822D0E94A5039E838D830E94070464
:101850008C01C5014A145B0410F484199509B80180
:101860000E940C049C01A4E6B0E00E94EE1E57CF3B
:10187000098107B994B895B80E948C031A8114B9EC
:1018800015B9888D0E94A4037C010E9407048C0175
:10189000822D0E94A5039C838B830E940704988756
:1018A0008F83898D0E94A5036C012F8138852E3F7F
:1018B000394008F4C4C084E0809316018CE0809322
:1018C0001501B201C8010E940C047C01209117018E
:1018D0003091180150E040E060E871EA83E09CE15B
:1018E0000E94B01ED7010E94031FAF81B8859D01E1
:1018F00050E040E00E94B01E80914A01882371F0C0
:1019000080913B0190913C01A0913D01B0913E013D
:1019100082179307A407B50708F07CC020933B010A
:1019200030933C0140933D0150933E01B6018B81C1
:101930009C810E940C049093400180933F01980188
:10194000A0E1B7E20E94EE1E20911701309118012C
:1019500050E040E00E94B01E3093420120934101CC
:1019600081E040913B0150913C0160913D017091BB
:101970003E0109851A852B853C8540175107620772
:10198000730708F049C000933B0110933C0120937A
:101990003D0130933E01B5018D819E810E940C0472
:1019A0009093400180933F019501A0E1B7E20E942E
:1019B000EE1E209110013091110150E040E00E9494
:1019C000B01E205F384D30934201209341019201B7
:1019D000A0E1B7E20E94EE1E2091100130911101AA
:1019E00050E040E00E94B01E309344012093430138
:1019F0009301A0E1B7E20E94EE1E20911701309101
:101A0000180150E040E00E94B01E30934601209340
:101A100045010ECF80E0A5CF8111D9CF90914A0129
:101A20009F5F90934A01882309F426C120924701C1
:101A3000088D00934801198D109349011DC121E6BD
:101A40004216510408F060C009343DE0130708F461
:101A50005BC085E08093160182E080931501C6018A
:101A600086509F4F8E159F05C8F583E08093150122
:101A7000432D4770342E822D806480937C007BE060
:101A8000F72E01E010E0A89560E0892D1DD38A8132
:101A900084B985B986B18321E9F784B880917A0049
:101AA000806480937A0080917A0086FDFCCF8091DB
:101AB000780090917900080F191FFA94F110E3CF84
:101AC000C801880F991F880F991F69E070E00E9474
:101AD0009C1E7093460160934501E0CBA0901701D6
:101AE000B0901801B601C7010E940C049501DC01F9
:101AF0000E94EE1E980150E040E00E94B01E30931C
:101B0000400120933F01B4CF17B818B814B815B8E6
:101B100017B897EC491691E0590608F4D2C018B8E6
:101B20000E8504B918EC0981032907B90E948C03BA
:101B3000298127B9888D0E94A503429710F0115082
:101B4000A1F70E8504B905B961E0892DBDD2888D54
:101B50000E94A4035C011F8914B915B837B838B8BE
:101B600060E0892DB1D2898D0E94A4030E940704F0
:101B70007C010D8504B9898D0E94A5038C01888D97
:101B80000E94A403B8010E940C046C01898D0E947C
:101B9000A5038C01888D0E94A403B8010E940C0447
:101BA00096012C5E3F4F2817390708F465C018B816
:101BB000198117B984B885B861E0892D85D2898DDE
:101BC0000E94A5038C01888D0E94A403B8010E9485
:101BD0000C048C01C816D90608F05CC02E8524B907
:101BE00025B9888D0E94A4039C017501083E43E03D
:101BF000140708F05FC0C80164E670E00E949C1EF4
:101C0000C801875991098938914108F05AC02017B5
:101C1000310708F056C0C70143E0969587954A956D
:101C2000E1F7893C910510F088EC90E08E0D9F1D46
:101C30008017910708F045C06E157F0508F041C078
:101C400080911601833018F483E08093160120916F
:101C50001401822F90E0FC01E258FE4FB88DB08352
:101C6000398D3683880F991FFC01E657FE4F11838B
:101C700000832F5F2093140117B818B814B815B853
:101C80008EE20E94D0006996E2E10C94291F4A80FE
:101C9000502E3CCF0F8904B915B837B838B860E07A
:101CA000892D12D2898D0E94A4030E9407049C01F1
:101CB00086019CCFB80154E0769567955A95E1F777
:101CC0009FCF698D888D01D0D7CFB0E0A0E0EBE643
:101CD000FEE00C940F1FC82FD62FA895862F90E0FA
:101CE000FC01E258FF4F5490339624914C2F50E062
:101CF000FA01E258FF4F149133960491609162010A
:101D000030914A01630F7727771F672B09F058C07E
:101D1000A89560911A0170911B01660F771F660FDD
:101D2000771F70932C0160932B0160916301709178
:101D30006401660F771F660F771F70932A01609307
:101D400029013EEB3093270160911401EEE7F1E0A9
:101D500030E0840F951F631338C018B827B914B941
:101D600015B9B8E1BB2ED12CC12C8D2F0E94A40334
:101D7000782E692E8C2F0E94A5037C018C199D0959
:101D800097FF03C091958195910903970CF45AC16F
:101D9000A895BA946701B110E8CF80911A0190918B
:101DA0001B0190932C0180932B01809163019091F2
:101DB000640190932A018093290189E1809327018E
:101DC000CDB7DEB7E0E10C942B1F51914581450F53
:101DD0005527551F4817590701F33F5FBCCF25E82A
:101DE000C21621E0D206C8F6043AE2E01E0708F067
:101DF000B5C0F8E9AF16B10480F2C6010E9407042D
:101E0000AC019601A8E9B7EB0E94EE1E9A0150E0E2
:101E100040E00E94B01E29013A01C5010E9407045A
:101E20009C01A8E9B7EB0E94EE1E950150E040E04E
:101E30000E94B01E88E7C8168FE0D80608F072C06E
:101E4000F2E0440C551C661C771CFA95D1F7C301CF
:101E5000B201620F731F841F951F25E030E040E040
:101E600050E00E94B01EA4E6B0E00E94031F6B0188
:101E70007C01FCEACF0EFDE0DF1EE11CF11C10919D
:101E80001601143008F089CFC1500C2F0D0F802F90
:101E900090E0EC01C35BDE4F2881880F991F880F0B
:101EA000991F89569E4FFC01222309F4C4C08080EB
:101EB0009180A280B380A7019601281939094A09A7
:101EC0005B0957FF07C050954095309521953F4FCE
:101ED0004F4F5F4FAAE0B0E00E94031FF4E68F0E61
:101EE000911CA11CB11CA50194012C0D3D1D4E1D82
:101EF0005F1D0E94B01E232B242B252B09F04DCFF4
:101F0000133019F081E08093160182E0888380917C
:101F10006501E82FF0E0E05BFE4F00838F5F809368
:101F200065013BCFE8E7AE16EFE0BE0670F4E2E0F5
:101F3000220F331F441F551FEA95D1F7CA01B9017B
:101F4000640D751D861D971D88CF240D351D461DFA
:101F5000571D569547953795279585CFC090170102
:101F6000D0901801672D762DE616F70608F4B70114
:101F7000C7010E940C049601DC010E94EE1E2B0199
:101F80003C01C7010E9407049C0150E040E0C301EE
:101F9000B2010E94B01E29013A01A0901001B09038
:101FA0001101892D982D8017910708F4C801B801F7
:101FB0000E940C049501DC010E94EE1E980150E085
:101FC00040E00E94B01E88E7E8168FE0F806B0F403
:101FD00062E0440C551C661C771C6A95D1F7C3015E
:101FE000B201620F731F841F951F25E030E040E0AF
:101FF00050E00E94B01E69017A0141CF0837EFE03E
:102000001E0770F4CA01B90152E0660F771F881FDE
:10201000991F5A95D1F7640D751D861D971DE5CF43
:1020200073016201C20ED31EE41EF51EF694E794FE
:10203000D794C79424CFC082D182E282F38281E018
:102040008883ABCE110F15B814B98C2F0E94A4034E
:102050008135910508F0A1CE15B98C2F0E94A403FB
:102060006C0107B908B915B854B8A8E14A2EB12CCB
:10207000A12C8C2F0E94A403982E892E8D2F0E94B4
:10208000A5038C018A199B0997FF03C0919581953F
:102090009109039734F0A8954A9458014110E9CF6B
:1020A0007CCE550C54B88D2F0E94A4035C01F0EC3B
:1020B000EF16F4E4FF0608F492CE80EBC8168DE428
:1020C000D80608F06ACE90CECF93C82FC09595B1B0
:1020D00060FF0FC0982B95B994B1892B84B90E94E9
:1020E0008B0384B18C2384B985B18C2385B9CF91BE
:1020F00008959C23F0CFB0E0A0E0E1E8F0E10C947B
:10210000161F1AE08FE3B82E09E017B818B815B8F3
:10211000B4B880E00E94A4037C0181E00E94A50382
:10212000EC0182E00E94A5039C0180911601893098
:1021300061F084E0E816F10478F4C430D10508F0C9
:1021400054C02430310508F052C017B814B8CDB7C8
:10215000DEB7E9E00C94321F91E088EEE81683E0E8
:10216000F80608F090E0C83ED34008F49260283E9C
:10217000334008F4946097B9D0E0C0E0A89580E0BF
:102180000E94A2036C0181E00E94A5037C0182E011
:102190000E94A50324E1C21625E0D20608F4389A6D
:1021A00024E1E21625E0F20608F4399A843125E0AC
:1021B000920708F43A9A26E0C216D10430F426E0D9
:1021C000E216F10410F4069738F02196C43F81E03E
:1021D000D807A1F600931601F12CE12CEC16FD06B0
:1021E00041F4115009F091CFB2CF91E0BCCF91E012
:1021F000BDCF0E9491032FEFE21AF20AEFCFCF92E8
:10220000DF92EF92FF92CF932091680130916901A4
:1022100040916A0150916B01C0917A018AE0C82E09
:10222000D12CE12CF12C8C2FCF5F213A96E8390785
:1022300091E049075105E0F480937A01A0912B01C8
:10224000B0912C010E94031F28E833E140E050E0E8
:102250000E94B01E209368013093690140936A0187
:1022600050936B01CF91FF90EF90DF90CF90089546
:10227000CA01B901A70196010E94B01ED4CF8F9266
:102280009F92AF92BF92DF92EF92FF920F931F93B4
:10229000CF93DF93182FD62E880F810F9FEF960FC5
:1022A000890F80934C01E12FF0E0E258FF4F049139
:1022B000862F90E0FC01E258FF4FC491FC01EF57DC
:1022C000FF4FE49080911601813009F44EC02091B7
:1022D0001401AEE7B1E090E080E0821708F451C04D
:1022E000109275011092740181EF80937A0110921F
:1022F00068011092690110926A0110926B01FBDE75
:1023000018B8E7B8C4B9C5B9812F0E94A5035C010C
:102310008D2D0E94A503A81AB90A14B8D0E0C0E018
:1023200005B904B90E948B0314B815B80E94920332
:10233000A895812F0E94A5034C018A189B08CE37CF
:10234000D10520F08BE4881691045CF02DE2821612
:1023500021E092060CF058C12196C43F31E0D3072A
:10236000F9F617B818B814B815B8DF91CF911F91C6
:102370000F91FF90EF90DF90BF90AF909F908F9064
:10238000089516963C9116973D110DC03C9131135E
:102390000AC0FC01EE0FFF1FE258FE4F4485558531
:1023A0004C3D554010F30196119697CFB12C00E0AB
:1023B0005DC1A1DE15B887E087B918B8F02EFF0C13
:1023C000F4B880E480937B0084E580BF812F806433
:1023D00080937C0086E180937A000E94950310929E
:1023E0008000109285001092840087E286BBF5B8C9
:1023F00080911601853009F0F9C081E08093810059
:1024000081E090E0012E01C0880F0A94EAF78095E0
:10241000877087B9F12CE12C91E086B385FD0CC063
:1024200080FFFBCF96BBA8952FEFE21AF20A30E4AB
:10243000E31636E0F30689F71092810090E296BB2E
:10244000A0908600B0908700209184003091850094
:10245000A216B30638F480FF05C081E086BB8FEF7B
:10246000E81AF80A86E980937A0014B815B8812F23
:102470000E94A50320912F0130913001821B930B04
:102480000C9690937D0180937C0120E2E21623E07C
:10249000F20608F066CFF0927301E0927201B092FA
:1024A0007101A092700184EF80937A0132E4E31607
:1024B000F104C8F060917001709171018091720116
:1024C0009091730124E630E040E050E00E94B01E9D
:1024D0002093700130937101409372015093730106
:1024E00086EF80937A01A0916601B09167012091F7
:1024F00070013091710140917201509173010E94FD
:10250000031F20E233E040E050E00E94B01E209321
:1025100070013093710140937201509373012093C5
:1025200068013093690140936A0150936B0167DE43
:1025300080917A01843F09F04AC0809068019090B0
:102540006901A0906A01B0906B0180EA88168FE063
:102550009806A104B104C0F4A501940124523F4F90
:102560004F4F5F4F60EA7FE080E090E00E94B01E36
:10257000820E931EA41EB51E80926801909269017E
:10258000A0926A01B0926B0180914C0190E082535D
:102590009E4F0E94771F40916801509169016091A0
:1025A0006A0170916B0190E0B0E0A0E0841795079C
:1025B000A607B70700F5481B590B6A0B7B0B409326
:1025C00068015093690160936A0170936B0104B9CB
:1025D0008091680190916901A0916A01B0916B01AD
:1025E0004997A105B10508F4BCCE8BC081E080936A
:1025F0008100E7B80FCF1092680110926901109224
:102600006A0110926B01E3CF209731F485E18816BF
:1026100085E098060CF0CDCEF12CE12C0E948C03C5
:10262000812F0E94A503A8952FEFE21AF20ACE157A
:10263000DF05A0F78A199B097401E81AF90A1E142C
:102640001F040CF0B3CE39ECE316F1040CF089CE84
:1026500028EE33E0D7010E94FD1E9401092C000CE6
:10266000440B550B0E94B01EB22E032F2196CE01B3
:10267000B0E0A0E08093700190937101A09372018B
:10268000B0937301C4018E0D9F1D80D02091700105
:10269000309171014091720150917301DC010E94EF
:1026A000031F609370017093710180937201909386
:1026B0007301609368017093690180936A0190933C
:1026C0006B0187EF80937A019ADD20916801309148
:1026D000690140916A0150916B01A8EEB3E00E943C
:1026E000031F24E630E040E050E00E94B01E20933B
:1026F00068013093690140936A0150936B01CB2DBF
:10270000D02F80911401882329F080911601853003
:1027100009F027CE88E08093160180917A0190918C
:102720007B019817C4F089131CCE809068019090AB
:102730006901A0906A01B0906B0140916C015091C9
:102740006D0160916E0170916F01481559056A0520
:102750007B0508F006CE40916801509169016091B7
:102760006A0170916B0140936C0150936D0160930D
:102770006E0170936F0180937B01D0937701C093BA
:102780007601D092780110937901EBCD0F9221E080
:102790008C32920710F48CE291E08C52914069E106
:1027A00070E00E949C1E99E16B3210F0982F6BE252
:1027B000981BE0E7F1E0E60FF11DE60FF11D9F9396
:1027C000CF010E94771F482F3196CF010E94771FBB
:1027D000582F3196CF010E94771F282F3196CF01B5
:1027E0000E94771F382F6F91421B530B649FC001CB
:1027F000659F900D11240C9669E170E00E949C1E6B
:10280000620F731FCB010F900895B0E0A0E0EBE0E2
:10281000F4E10C94131F88E893E190931B018093DB
:102820001A0190932C0180932B018EEB809327014A
:1028300018B880E187B90E949A0317B884E00E9413
:10284000A403AC018B5C9840833F9140A0F481E0ED
:102850008093360120912B0130912C01AFEBB9E030
:102860000E94EE1E9A0150E040E00E94B01E30939C
:102870001B0120931A0180911A0190911B019093E2
:102880002C0180932B018EE00E94A5038EE00E9414
:10289000A4039093300180932F010E946D042BDCE0
:1028A00018B8C1E0C7B985E185B9C4B980E00E9414
:1028B000A4038C0182E0D82ED7B8D4E0D4B981E04B
:1028C0000E94A403080F191FD7B990E1C92EC4B8FC
:1028D00082E00E94A403080F191F15B8C8B9C7B930
:1028E000C4B980E00E94A4030E9407047C01D8B808
:1028F000D7B8D4B981E00E94A4030E940704E80E6F
:10290000F91ED8B9D7B9C4B882E00E94A4030E94C6
:102910000704E701C80FD91F17B818B814B8809179
:102920002B0190912C016C01CC0CDD1CC80ED91E22
:10293000C01AD10ACC1ADD0AF12CE12C9801A0E9C9
:10294000BAE10E94EE1EA70196010E94B01E490145
:102950005A0130933501209334019E01A0E9BAE178
:102960000E94EE1EA70196010E94B01E30932E0118
:1029700020932D012057354E3093180120931701D5
:1029800080E7881A85EE980A9092110180921001D2
:1029900089E180932701CDB7DEB7ECE00C942F1FBF
:1029A0000F93CF93C62F0E94DB0080E690E00E9439
:1029B0003F01ADD08091010187FF04C08CE590E01C
:1029C0000E943F018C2F0E94DB000E94930180E057
:1029D0000E94B101809150010E9432028091010158
:1029E0008E3F94F488E790E00E943F0160910901D6
:1029F00070910A0180910B0190910C0103E028E491
:102A0000409101010E94BA02CF910F9108950F9356
:102A1000CF93DF930E94F200809178010E94DB0047
:102A200084E990E00E943F0136D460917801809162
:102A300079019BD2EC0190937501809374012091F0
:102A4000760130917701CA3F8FEFD80760F481E0BB
:102A500090E0232B11F090E080E0892B21F081E6BB
:102A600090E00E943F01809179010E94DB008091FB
:102A7000760190917701892B69F08BE790E00E94B5
:102A80003F0122E045E26FEF80917601909177015E
:102A90000E9467030E9493010E94F90060916C01FB
:102AA00070916D0180916E0190916F0104E026E4B8
:102AB00040917B010E94BA02CA3FDF4F68F483E86D
:102AC00090E00E943F0122E044EF6EEF809174019C
:102AD000909175010E9467030E949301DF91CF914D
:102AE0000F9108958F7041F40E9481030E94F900B4
:102AF0000E9402080C94810308958F3021F4909174
:102B00003101913011F08F5F089580E00895A6E1C2
:102B1000B0E0EDE8F5E10C940D1F82E08093010137
:102B200080911601813009F0E5C180916501813005
:102B300009F0E0C14090500124E0429EF0011124D0
:102B4000E956FE4F80819181A281B381893032E5BF
:102B50009307A105B10508F0CDC11C01712C81E0DE
:102B6000871508F4CAC1842D0E942802982E892E48
:102B7000E82DF0E0EF57FF4F5490892D90E0FC01D5
:102B8000E258FF4FE49115B818B8272D2170622E36
:102B900030EF2316310408F0B5C12111B3C1009103
:102BA00010011091110100591A4121E030E0092C67
:102BB00002C0220F331F0A94E2F7C901852987B9A1
:102BC00034E1398B892D0E94A3035C01882D0E947A
:102BD000A50324E0A216B10410F4049728F0398963
:102BE0003150398B3111EECF80E480937B0094E536
:102BF00090BF892D806480937C0026E120937A0029
:102C0000F12CE12C1092800010928500109284002B
:102C100037E236BB0E949503872D90E09A8B898B13
:102C2000611077C181E88093810058B886B385FD33
:102C30000CC080FFFBCF21E026BBA89597012F5F3A
:102C40003F4F79012035310589F718B8109281007E
:102C500030E236BB209186003091870069014091B7
:102C60008400509185002417350738F480FF05C093
:102C700081E086BB9FEFE91AF90A86E980937A0022
:102C8000B4E15B2E892D0E94A3035C01882D0E9474
:102C9000A50324E0A216B10410F4049718F05A9486
:102CA0005110F0CF8090340190903501820C931C2C
:102CB000800E911E209112013091130100398AE19A
:102CC000180708F02FC169E191EEC916D104E1049B
:102CD000F10430F4C60165E070E00E949C1E64516E
:102CE00028523109261B310967FD339566E0862F8E
:102CF00090E0B0E0A0E08C159D05AE05BF0508F0A2
:102D000019C1C81AD90AEA0AFB0A662029F082E228
:102D1000C80ED11CE11CF11C90E5E916F10418F075
:102D2000C12CD12C76018BE0C816D104E104F1044A
:102D300028F091E0C91AD108E108F108B12CA12CC2
:102D4000A8EEB3E00E94EE1E6B8B7C8B8D8B9E8B6E
:102D5000A0912B01B0912C0198010E94EE1EA501BB
:102D60009401FED7442755276B897C898D899E89DC
:102D7000F7D7C9010E94C504FC01A5019401C70150
:102D8000B601BFD74B015C01BF0190E080E0E3E0FA
:102D9000660F771F881F991FEA95D1F76B5F7F4FEA
:102DA0008F4F9F4F2AE030E040E050E0D9D7C50177
:102DB000B401D6D7E989FA89EE0FFF1FEE0FFF1F86
:102DC00081E090E08C0F9D1FE80FF91F2083318375
:102DD00042835383611018C09CE0C916D104E104FA
:102DE000F10490F07394E989FA893196EE0FFF1F90
:102DF000EE0FFF1F81E090E08C0F9D1FE80FF91F81
:102E00002083318342835383A895739493E097156D
:102E100008F0A5CE18B80E948A0391E00D811E81AA
:102E20002F81388549815A816B817C8140175107F8
:102E30006207730708F090E00D851E852F8538899D
:102E400049855A856B857C8582E04017510762076A
:102E5000730708F483E024E0829FD001112421E06D
:102E600030E02C0F3D1FA20FB31FE92FF0E0EE0F53
:102E7000FF1FEE0FFF1FE20FF31F0D911D912D910C
:102E80003C914081518162817381041715072607A7
:102E9000370708F0892F34E0839FF001112421E0E7
:102EA00030E02C0F3D1FE20FF31F40815181628102
:102EB00073814093090150930A0160930B01709351
:102EC0000C0180FD3BC030EF23163104B8F58BEFC9
:102ED000809301018091090190910A01A0910B0159
:102EE000B0910C01892B8A2B8B2B11F410920101CC
:102EF00017B814B86696E2E1ACC7842D0E94280288
:102F00004C0136CEE4B957B800911001109111016F
:102F100057CE58B80E949E0390E296BB81E88093FA
:102F2000810084CEC40160EB76E306D7695F285D3B
:102F30003F4FDDCEC12CD12C7601E7CE8CEF8093B4
:102F40000101CB01BA016B5F7F4F8F4F9F4F2AE08A
:102F500030E040E050E004D72093090130930A01AB
:102F600040930B0150930C01B5CFAEE1B0E0EAEB1A
:102F7000F7E153C7662EB82E860F8983209116017C
:102F8000283051F520916C0130916D0140916E0116
:102F900050916F0157FD14C010917B0108C0CA0108
:102FA000B9012AE0312D412D512DDAD61F5F173F8F
:102FB000B4F391F4243160E036074105510518F46B
:102FC0008FEF9FEF36C1173F39F480E028178DE768
:102FD00038074105410510F020E03DE72C8B3D8B83
:102FE00026EDA22EE1E8F0E0E60DF11D859180606E
:102FF0008E87E1E8F0E0EB0DF11D859180608F8711
:10300000EEE7F0E0E60DF11D7590EEE7F0E0EB0D78
:10301000F11DC59090EC692AB92A81E0E82EF12CC7
:10302000012D112D8E831F82188619861A861B8604
:103030001C861D86188E198E1B8E1A8E5CD880E019
:1030400088B960927C000E9496033F8537B975B8B5
:1030500074B852E05A95F1F70000000014B815B8A2
:10306000DD243E8537B975B874B860927C00A895A8
:10307000A0927A0080917A0086FDFCCF20907800A3
:1030800030907900B0927C004C2DD6D02091780001
:1030900030917900288B398B3F8537B9C5B8C4B8D2
:1030A000A895B0927C00A0927A0080917A0086FD6B
:1030B000FCCF609178007091790060927C00472D80
:1030C000BBD0409178005091790014B8CB01820DAB
:1030D000931DE80EF91E011D111DEA82FB820C836F
:1030E0001D8388899989840F951F2E813F8168856A
:1030F0007985280F391F611D711D2E833F836887D5
:10310000798722E32417150650F075B874B80E9429
:10311000A00314B815B8888D8395888F07C0483EE2
:1031200073E0570718F08A8D83958A8F888999896B
:103130002817190660F03E8537B9C5B8C4B80E9493
:10314000A00314B815B8898D8395898F07C0883E70
:1031500073E0970718F08B8D83958B8FD3945D2D3B
:103160005F3F09F07ECF4090340150903501440C10
:10317000551C9201E4E0240D351DEA95E1F7290183
:10318000570168016E807F808884998420911601A0
:103190002830B1F46C897D89812D912D6550704066
:1031A000804090409B01AC01ACD59B01AC0160E735
:1031B00079E786E190E0D4D5621A730A840A950A09
:1031C000A614B704C804D90428F46A187B088C082C
:1031D0009D0803C0662477244301B20180E090E09B
:1031E0009301A4018ED59501A601BAD58AEC91E090
:1031F0007981870F911D7BD6682EC90160E170E04F
:103200009BD5260F371FC9016816190618F48619B1
:1032100091090FC08C5E9F4F8615910540F48C89F3
:103220009D89843981E1980710F00E94AD07812DB6
:10323000912D6E96E2E10DC61092810010928000F1
:1032400010926F0010928B0010928A0057E056BBCC
:103250005FEF509385005093840055E050937B00BE
:1032600056EB50937A0051E05093810058E25A9502
:10327000F1F7000045B944B955E05A95F1F700005F
:1032800014B815B81092810080917A0084FFFCCFA9
:1032900080937A000895B0E0A0E0E0E5F9E1BFC5D1
:1032A00000917601109177010115110509F08BC08D
:1032B000E0917801F0E0EF57FF4FD491E091790170
:1032C000F0E0E258FF4FC4910E947B1018B815B887
:1032D000D7B9C4B9809179010E94A5037C01D0912E
:1032E0007B018CE08D0F843008F06DC080916C0103
:1032F00090916D01A0916E01B0916F01D15F2AE0B4
:10330000422E512C612C712CBC01CD016B5F7F4F83
:103310008F4F9F4FA301920123D549015A01DA0132
:10332000C901DF5FD73081F7893823E19207A10512
:10333000B10508F048C0059708F445C0C5B9C4B93F
:10334000D0E0C0E0C815D90508F441C014B815B8DC
:10335000A89585E080932701809179010E94A503BB
:10336000EC01CE19DF09E816F90610F0D0E0C0E054
:10337000D12CC12CC814D90470F1809179010E941C
:10338000A50329E120932701A895E816F90618F46A
:103390008C010E191F090C171D0778F49E01201BC4
:1033A000310B59F0A4EFB1E019D59E0150E040E097
:1033B000D7D430937701209376010E947B1017B801
:1033C00018B814B815B8CDB7DEB7E0E144C50E940F
:1033D0009C032296B7CF0E949C038FEFC81AD80A8D
:1033E000C9CF0895B0E0A0E0E7EFF9E117C580E4A8
:1033F0008AB98BB986E880937A000E948203C4B7A9
:10340000C87084B7877F84BF0FB6F894A895809161
:103410006000886180936000109260000FBE789415
:103420000E946301C1115DC480E185BF4F9905C051
:103430000E948B03CF5FCC33C9F78FE59DE6909355
:103440000F0180930E01CF3130F080E69DE690931E
:103450000F0180930E0110922801D7D988E19FE0D7
:103460000FB6F894A895809360000FBE909360000B
:10347000D0E13BE3A32E31E0B32E43E5E42E41E05F
:10348000F42E5DE0852E60EF362E13E381E2D82E18
:1034900092E1C92E20E2922E0E94210117B80E94CB
:1034A0000E05B3D90E94F2000E94020880913601F5
:1034B000882379F00E94F90089E890E00E943F019A
:1034C00063E080912B0190912C010E9472030E9475
:1034D00081030E94F9000E947B10809116018930BF
:1034E00081F40E9421018EE890E00E943F010E9439
:1034F000800381E10E94830580910E0190910F016C
:1035000059C18CE00E94ED0081ED91E0F0D4C82F0C
:103510008EEC91E0ECD4C81BC0933301CC2319F09E
:103520008EE00E94ED0081E00E9483050E94B801B8
:1035300088E691E00E943F0142E061E080E00E9465
:103540003F0842E060E081E00E943F0841E062E025
:1035500080E00E943F0841E060E082E00E943F0876
:1035600040E062E081E00E943F0840E061E082E0EC
:103570000E943F088091160181110EC00E947B10AD
:1035800060E082E00E943F1161E082E00E943F1112
:1035900060E081E00E943F110E942101B092390158
:1035A000A0923801809116018630B9F48AE391E047
:1035B0000E943F0141E467E48BE40E9401020E9403
:1035C000F90082EA90E00E943F0162E080913F01B1
:1035D000909140010E9472038FCF873041F483E4C1
:1035E00091E00E943F0142E367E481E3E6CF883047
:1035F00011F40DDA81CF833009F0E6C08091140117
:10360000813009F050C080E00E948E0260917E01FE
:10361000809184010E94BF0780E70E94660260914A
:103620007E01809184010E943F1180917A018D3F3B
:1036300094F489EB90E00E943F01609168017091E1
:10364000690180916A0190916B0102E026E440914A
:103650007A010E94BA0280916501882309F44CCF57
:10366000D7B980910E0190910F010E94150417B8EF
:103670000E94210180911401805D0E94D00085E6A6
:1036800090E00E943F0130916501332309F41CC38F
:1036900080915001313009F0B2C20E94280240E00E
:1036A000692F7ED929CF823089F582E30E94D0002C
:1036B00085E690E00E943F0190917E0130917F016C
:1036C00093130AC080E00E94AA0281E00E94A10236
:1036D00081E00E946602BFCF209184018091850124
:1036E000281307C080E00E949A0281E00E94B10284
:1036F000EFCF321306C081E080930D010E947C025F
:10370000AACF98133BC0D0930D01F8CF8330B1F509
:1037100010930D018091840190917F01891303C062
:1037200021E020930D0140917E01309185014313EA
:1037300002C0D0930D0120918001821303C082E06A
:1037400080930D0180918601481302C090920D0173
:1037500032130CC0C0920D01981751F083E30E9400
:10376000D00085E690E00E943F01C8CF981302C0C8
:10377000D0920D0180910D01823280F389E491E0B5
:103780000E943F0182E391E00E943F010E94F90004
:1037900080911401805D0E94D0008AE20E94D000D6
:1037A0008EE690E00E943F0185E191E00E943F019A
:1037B00080E49FE1D7B94F9BFECF0E941504811191
:1037C0006BCE0E94310561CE843009F04EC18091EC
:1037D0006201882309F45DC080914A01882309F4BD
:1037E00058C060914701809149010E943F1140906B
:1037F00068015090690160906A0170906B01C091FE
:103800007A016091610180915F010E943F11809176
:103810003B0190913C01A0913D01B0913E0140914E
:103820005301509154016091550170915601843FAC
:1038300021E09207A105B10538F4443F21E0520789
:103840006105710508F0C0EF443F51406105710505
:1038500038F4843F9140A105B10510F030927A010F
:1038600080917A018C1311C0809168019091690157
:10387000A0916A01B0916B01481659066A067B0651
:1038800030F08CE08093150104C0C817D4F7809203
:10389000150180916201882361F080914A0188239B
:1038A00041F04F9906C08091150191E089278093DE
:1038B0001501809115018C30F9F485EB90E00E94A0
:1038C0003F0180916201882319F080E70E94D000B7
:1038D0000E94DE000E94E904C82F853048F58091DF
:1038E00015018C30B9F481E0209148019091490193
:1038F0009217B8F080E015C0F0923901E0923801DB
:1039000081EB90E00E943F0180914A01882301F3FE
:103910008EE6DCCF81E02091600190916101291752
:1039200048F7882309F49AC08EE690E00E943F0190
:1039300043E462E485E40E9401020E94F9008FEBF7
:1039400090E00E943F01E0913801F09139016081DF
:1039500071818281938103E020E04EEF0E94BA02E0
:103960000E94DE0089E40E94D000E0913801F091CD
:103970003901868197818031974208F472C085E6CB
:103980000E94D000E0913801F09139018681978141
:1039900080519742978386830E94EA00E091380124
:1039A000F091390122E041E46AEF868197810E941B
:1039B000670380E00E94B10186EA90E00E943F0127
:1039C000E0913801F091390163E0848195810E9492
:1039D0007203E0913801F091390180859185892B3E
:1039E00091F080E00E94B1018EE890E00E943101E8
:1039F000E0913801F091390123E041E46AEF8085DC
:103A000091850E946703E0913801F0913901828528
:103A10009385892B91F080E00E94B10188E890E0C5
:103A20000E943101E0913801F091390123E041E435
:103A30006AEF828593850E946703C53008F05CCDEC
:103A400080E00E94B1018C2F0E948E0282EA90E0F9
:103A50000E943F018C2F0E9458024ECD8AE690E0D2
:103A600065CF83E60E94D00097CF853009F00BCE5A
:103A70008091150184FF3EC080E50E94D000F09245
:103A80003901E09238018DE20E94D0008091150149
:103A9000C82FCF70C43091F588EC90E00E943F01B0
:103AA0004FE367E48FE30E9401028091150185FDD9
:103AB0003EC00E94F900E0913801F091390166851D
:103AC00084850E943F110E94BD018DE990E00E9413
:103AD0003F01E0913801F091390162E082859385E0
:103AE0000E94720380E00E94D501C43009F404CD25
:103AF000C0E080C08EE40E94D000C5CF85FF0DC01D
:103B000084E40E94D000C33051F482EC90E00E9423
:103B10003F0143E467E485E4C6CF85E4F2CF8DEC52
:103B200090E00E943F0144E467E483E5BCCF8F70DE
:103B3000843069F080E00E949901E0913801F091B1
:103B40003901668584850E943F110E94BD0180E095
:103B50000E94B10189E40E94D0000E94EA00E09135
:103B60003801F091390122E041E46AEF86819781C2
:103B70000E94670388E990E00E943F01E0913801CC
:103B8000F091390162E0828593850E947203E09191
:103B90003801F091390180859185803C924108F08F
:103BA000A1CF80E00E94B10189E40E94D0000E9470
:103BB000EA0022E041E46BEF90E080E00E946703BE
:103BC00088E990E00E943F01E0913801F0913901CD
:103BD00062E08085918584CF80E00E94B1018C2FC6
:103BE0000E948E0282EA90E00E943F018C2F0E9488
:103BF0005802CF5F80911401C81770F37DCC90916B
:103C0000510124E0929FD0011124A956BE4F24E017
:103C1000829FF0011124E956FE4F4D905D906D900A
:103C20007C904081518162817381282F4415550514
:103C30006605770508F4292F980FC3E0C91B3230B9
:103C4000E1F0C091520184E0C89FD0011124A9562F
:103C5000BE4F84E0289FF0011124E956FE4F4D919C
:103C60005D916D917C9180819181A281B381841756
:103C70009507A607B70708F0C22F6C2E669482E05E
:103C8000782E7C1A02E0C11101C001E0862D0E944D
:103C9000DB0080E690E00E943F01872D0E94DB0060
:103CA00080E690E00E943F01802F0E94DB0080E0D0
:103CB0000E94990181E0C11180E00E94320282E0FD
:103CC00086190E94320218CC81E291E00E943F01E5
:103CD0000E94F90081E591E00E943F0189E491E0B2
:103CE00065CD0E94F2008CE091E00E943F010E94AD
:103CF0007F030E94310590E080E0CDB7DEB7E1E1BF
:103D0000A9C0DB018F939F937ED0BF91AF91A29FFB
:103D1000800D911DA39F900DB29F900D11240895C9
:103D2000991B79E004C0991F961708F0961B881F0D
:103D30007A95C9F780950895AA1BBB1B51E107C06E
:103D4000AA1FBB1FA617B70710F0A61BB70B881F2B
:103D5000991F5A95A9F780959095BC01CD010895BA
:103D6000A1E21A2EAA1BBB1BFD010DC0AA1FBB1F7F
:103D7000EE1FFF1FA217B307E407F50720F0A21BF1
:103D8000B30BE40BF50B661F771F881F991F1A945E
:103D900069F760957095809590959B01AC01BD0188
:103DA000CF010895052E97FB16F400940FD057FD10
:103DB00005D0D6DF07FC02D046F408C050954095E8
:103DC000309521953F4F4F4F5F4F089590958095C7
:103DD000709561957F4F8F4F9F4F0895A29FB001BF
:103DE000B39FC001A39F700D811D1124911DB29F2F
:103DF000700D811D1124911D0895F0DFB7FF089506
:103E0000821B930B0895EADFA59F900DB49F900D40
:103E1000A49F800D911D112408952F923F924F92DF
:103E20005F926F927F928F929F92AF92BF92CF924A
:103E3000DF92EF92FF920F931F93CF93DF93CDB753
:103E4000DEB7CA1BDB0B0FB6F894DEBF0FBECDBFCB
:103E500009942A88398848885F846E847D848C849C
:103E60009B84AA84B984C884DF80EE80FD800C81A5
:103E70001B81AA81B981CE0FD11D0FB6F894DEBF88
:103E80000FBECDBFED0108954532510518F4423003
:103E900008F004C0FB011082CB010895BB27FB0191
:103EA0005527AA27880F991FAA1FA41710F0A41B33
:103EB00083955051B9F7A05DAA3308F0A95DA1938D
:103EC000009779F7B111B1931192CB0100C0DC01D9
:103ED000FC01672F71917723E1F7329704C07C9141
:103EE0006D9370836291AE17BF07C8F30895F99977
:103EF000FECF92BD81BDF89A992780B50895262FEF
:103F0000F999FECF1FBA92BD81BD20BD0FB6F894BE
:103F1000FA9AF99A0FBE01960895F1DF272FF0CF94
:043F2000F894FFCF43
:00000001FF
