:1000000034C3000044C3000042C3000040C30000EA
:100010003EC300000C94F9243AC3000038C300002A
:1000200036C3000034C3000032C300000C94DD244A
:100030000C94EB242CC300002AC3000028C300004A
:100040000C94B72424C3000022C3000020C3000086
:100050001EC30000AFC700001AC3000018C3000091
:1000600016C3000014C30000E62FF72F903009F4E8
:100070009395E5B8C4B8B7EFB0937A00A5E0A09324
:100080007B00A8E0A093810010928000AFEFA093C6
:100090008500A0938400A6E0A093360010928B0008
:1000A00010928A00B6E0AFE7A91B51E0392F363035
:1000B0002AF0A058B94F53953650F9CFB093890024
:1000C000A0938800A0917A00A4FFFCCFB7EBB09377
:1000D0007A00A2E0A0936F00A9E0A093810062E003
:1000E000A0E0A0937B00A1E0A09353008895E5B821
:1000F000C4B884FF19C0A3E4AA95F1F7EF93FF9366
:10010000E7B1F8B1A4E0C2FCA2E0C0FCA1E0BF2FBF
:10011000BA2BAE2BB8B904B9A7B9E7B9F8B9FF91B2
:10012000EF910AC00C947300A7E40000AA95F1F7C0
:1001300025B9E5B8000004B9A0918400A09185001C
:10014000B0918900A395AB1768F7A0917A00A4FF3E
:10015000F3CFB7EBB0937A006A9571F760917800AE
:1001600070917900308186FD630F6193308186FD47
:10017000731F80FF7193652F4A9579F710926F0076
:1001800010928100B7E0B0937A00089549647373C8
:100190003D00206574613D00554A5400505554009F
:1001A000312D032D3320342D33306E46284C290059
:1001B0005245465F523D005245465F433D00203E5A
:1001C0003130306E460066706EE46D006B4D010498
:1001D00010090A0C041F111111111F04001E020343
:1001E000021E0000000F0818080F00001113171F4F
:1001F0001713110011191D1F1D1911001B1B1B1BAB
:100200001B1B1B005244533D005B435D00312D031B
:100210002D332000312D07062D77772D3320004414
:100220006F6E652E0A00646F206D656E7520004349
:100230002B455352405450313A33006640545032AB
:1002400000203530487A00433073616D70200043E0
:1002500030200052695F4C6F3D0052695F48693D34
:100260000052303D0052482F524C002B52482D2056
:100270003132203133203233002B524C2D20313299
:100280002031332032330052482B0052482D005287
:1002900048663D005265663D00494345733D00494F
:1002A0004345303D0056657273696F6E20312E31C3
:1002B000336B002D77772D002D07062D002A0120A6
:1002C00020007A20513D0020696620002040302D1A
:1002D0003556002D022D002D012D004E6F74206328
:1002E000616C696272617465642120466F72FF639C
:1002F000616C6962726174696F6E20636C616D70AC
:10030000207468652033FF70696E7320746F6765B1
:100310007468657220616E642073746172742077F2
:1003200069746820746865FF6B65792E2041636B82
:100330006E6F776C65646765207468652073656CA3
:10034000662D7465737420776974682074686520FD
:100350006B65792077697468696EFF32732E20446B
:100360006973636F6E6E6563742070696E7320616C
:100370006674657220746865FF6D65737361676587
:10038000202269736F6C617465FF50726F62652122
:10039000222069732073686F776E2E20536F667406
:1003A0007761726520616E6420646F63756D656E40
:1003B000746174696F6E2069732061742073766E46
:1003C0003A2F2F206D696B726F636F6E74726F6C52
:1003D0006C65722E206E65742F7472616E73697312
:1003E000746F7220746573746572200049723D00E9
:1003F0004C3D0020566C6F73733D00204553523DB9
:10040000005643433D0043656C6C21002D032D00D5
:100410004056673D002056743D0055663D005562CC
:10042000653D00203132333D00504E50004E504E5D
:1004300000433D0043673D006846453D002D494768
:100440004254004A464554002D4D4F53004443202A
:10045000507772204D6F6465004F4B004261742EDF
:100460002000462D5363616C65720046726571759C
:10047000656E63790073686F72742050726F626585
:1004800073210053656C6674657374007475726EC5
:1004900021004328E446292D636F727265637469F5
:1004A0006F6E0031302D6269742050574D00662DFB
:1004B00047656E657261746F720053776974636823
:1004C000206F66660053686F772064617461005620
:1004D0006F6C74616765005472616E736973746FD9
:1004E000720053656C656374696F6E3A005465738E
:1004F0007420456E640069736F6C6174652050727E
:100500006F626573210053656C6674657374206D4A
:100510006F64652E2E0054696D656F75742100201F
:100520006465746563746564004E6F2C20756E6B32
:100530006E6F776E2C206F720020756E6B6E6F770A
:100540006E00546879726973742E00547269616325
:1005500000706172740064616D616765642000659C
:100560006D70747921007765616B005465737469EF
:100570006E672E00B903870358032E030703E402B6
:10058000C302A40288020000140029003E005300A8
:10059000690080009700AE00C600DF00F80012017D
:1005A0002D01490165018201A001BE01DE01FF01AB
:1005B0002102440268028E02B502DE0209033503FD
:1005C00064039403C803FE0337047304B404F904FA
:1005D00043059305EA054906B3062907AE0748080F
:1005E000FF08DE09FD0A930C480F991B70578050D5
:1005F0008D4A6645E340E83C5E3933365A33C630AF
:100600006D2E492C532A8428DA264E25DF23892291
:100610004A212020081F011E091D201C431B731A9C
:10062000AD19F1183F189517F4165A16C6153A1554
:10063000B3143214B7134013CE126112F811931190
:100640003111D310781020202020202020202020BD
:10065000202020202020202020202020202020209A
:10066000202020205B524C5D000011241FBECFEFE4
:10067000D8E0DEBFCDBF21E0A0E0B1E001C01D9217
:10068000A83BB207E1F70E942A300C941E38B8CC80
:1006900080FD5C9A80FF5C98549A00005D9A559AA0
:1006A000589859985A985B9864FD589A509A65FDE5
:1006B000599A519A66FD5A9A529A67FD5B9A539AD3
:1006C00000005D982BD387FD10C05D9A589859980B
:1006D0005A985B9860FD589A61FD599A62FD5A9A42
:1006E00063FD5B9A00005D9819C30895CF93DF9373
:1006F000EC018991811103C0DF91CF910895E4D27B
:10070000F8CF80913C018093010180919F018093FB
:100710000301089590913C019F5F90933C018830C4
:1007200060F48630F0F4823081F08330C1F08130A3
:10073000C9F48EE3C9D28CE70BC0843EA9F0843F94
:10074000A9F08D3279F48DE20DC08CE7BDD28CE337
:10075000BBD280913C018F5F80933C0108958CE770
:10076000E9CF82E5B1C2089585E7FCCF8FE4ACD232
:1007700088E6AAD28DE6A8D280913C018E5FECCFAC
:100780008F5CC8CF089580E2C5CF0895CF93C82F5E
:100790001C1614F0CF910895F6DFC150F9CF8DE308
:1007A000B9CF08958DE090D28AE08EC2089510925C
:1007B0009F0110923C01F6CF089581E080939F0144
:1007C00010923C01EFCF089582E080939F01109238
:1007D0003C01E8CF089583E080939F0110923C0193
:1007E000E1CF089580939F0160933C01611101C0A6
:1007F000D9CF08956091010180910301F3CF08954D
:10080000089582E08093C0001092C50080E180933B
:10081000C4008EE08093C20088E18093C1000895F7
:10082000CF93C0DFC8E280E24FD2C150E1F7BFDF13
:10083000CF9108955BCF0895CF93DF93EC01FE0134
:100840008491982F9F7719F065DF2196F8CFDF917B
:10085000CF9108950F931F93CF93DF93EC018C01F9
:10086000085F1F4FFE01849155DF21960C171D076D
:10087000C9F7DF91CF911F910F91089590913C019D
:1008800088E2891B83CF0895CF93C82FF7DF80912B
:100890009F018F5F80939F01803158F08FE080939C
:1008A0009F0181E080933F01C0933C017BDFCF91AA
:1008B000089510923F01F8CFE7DFDDC2089577DF9A
:1008C000DDDF75CF089579DFD9DF77CF08950895FB
:1008D0000F9384E394E0B0DF409183014D3F6CF4CB
:1008E0006091710170917201809173019091740116
:1008F00003E026E4EAD00F9108958FE30BDFFBCFEE
:1009000090911A019F70923071F4D6DF84E092E0EA
:1009100093DFE0913D01F0913E0122E044EF6FEF63
:1009200084819581B2C1089597FF09C08F939F93E9
:100930008DE2F0DE9F918F91909581959F4F62E2BD
:1009400071E04AE050E00E94BD3774CF0895ECDFBB
:1009500001C0EADF18CF0895EF92FF920F931F9323
:10096000182F062FF42E83E294E066DFEE24E09148
:100970003D01F0913E018685E81611F4812F09C0F2
:100980008485E81611F4802F04C08585E81611F4DB
:100990008F2DC0DEE3948E2D833049F71F910F9188
:1009A000FF90EF900895682F80E092E0662309F4AD
:1009B00091E0623009F481E008950F93082FE0EA96
:1009C000F1E0880F880FE80FF11D6081718182814D
:1009D0009381643671058105910570F420910201BF
:1009E00027FD0AC0802FDFDF692F0E9490206EEF65
:1009F00023E044EF4AD104C04FEF04E024EF65D078
:100A0000C2DE0F910895863058F4E3E9F1E0E80F73
:100A1000F11DE80FF11D8081918163E041D1B3CEDA
:100A200008951F93182F80916E01882319F0ABDE73
:100A300080E070DEC2DE8AE194E0FEDE812F8295E6
:100A40008F70E1DF812F8F70DEDF1F91089580911D
:100A50000E0182958F7019D080910E0183701CD089
:100A600080910E01DECF0895E7E8F1E0E80FF11D77
:100A70000895CF93F9DF9081C681C91710F405D08E
:100A800001C013D080DECF910895EEDF8F93808177
:100A900077DE8F9101C008958F9387ED92E0CCDED1
:100AA0008F91E2DF86816CCE0895DEDF8F938681A1
:100AB00067DE8F9101C008958F9383ED92E0BCDED5
:100AC0008F91D2DF80815CCE0895AEE0B0E0EBE69E
:100AD000F5E00C945D37142F322E202E6B017C0133
:100AE0000F7080E389838A838B838C838D838E83CD
:100AF000F7FE40C08DE20EDEF094E094D094C094F6
:100B0000C11CD11CE11CF11C68EE462E63E0562E80
:100B1000612C712C033041F150E1452E57E2552EE6
:100B2000612C712C043001F140EA442E46E8542E29
:100B300066246394712C0530B9F030E4432E32E41E
:100B4000532E3FE0632E712C063071F074E6472E71
:100B5000512C612C712C073039F420E8422E26E903
:100B6000522E28E9622E712C9AE0892E912CA12C0C
:100B7000B12C12C025FEC8CF8BE2CCDDC5CFC7019A
:100B8000B6016B5F7F4F8F4F9F4FA50194010E946D
:100B90003A3669017A011F5FC414D504E604F704EC
:100BA00070F7E1E1E10F9BEAE99FE12D11247E2E30
:100BB000769486E0811B899F112D11241695912F23
:100BC000990F190F811B182F5E0187E0A80EB11C29
:100BD0002AE0A501C701B6010E949C37F5010190EA
:100BE0000020E9F731976F01CA18DB082C2D560158
:100BF000BB24812F90E004968A159B0514F473940E
:100C00001D5FE72DF0E0EA53FE4FF49024FE29C06B
:100C1000201738F50C198C2C811A800E181424F02A
:100C20008EE278DD012F0C19111102C088EF882E99
:100C3000E12C10E0A00EB11EC82C082C000CDD0821
:100C4000EE2DF0E0EA15FB0574F0FF2011F08F2D7A
:100C500061DD332011F0832D5DDD2E96E2E10C94F1
:100C6000793700E0D8CF3696E01BF10B81E090E0B9
:100C70008C0F9D1FE80FF91F80814CDDE394EC146D
:100C80001D04F1F68EE246DDDBCF0F93362FBC015B
:100C900090E080E0022F242F432F17DF0F9108955B
:100CA0000F93062FBC0190E080E026E54DEF0DDFAD
:100CB0000F9108950F93042F28E440E006DF8AE7A0
:100CC00029DD61DD0F9108959091C00095FFFCCF63
:100CD0008093C600089503D002D001D000D000D088
:100CE00003D002D001D000D000D003D002D001D078
:100CF00000D000D0A89503D002D001D000D000D001
:100D000003D002D001D000D000D003D002D001D057
:100D100000D000D003D002D001D000D000D000001D
:100D20000895E7DFE7DFE6DF1F93182F10641093C5
:100D30007C00E12FE07880912D01E81751F0E093DD
:100D40002D01D7DF87ED80937A0080917A0086FDB0
:100D5000FCCF20E030E0A901E0E01EC087ED8093E9
:100D60007A0080917A0086FDFCCF609178007091C6
:100D70007900260F371F411D511DE43061F4809129
:100D80002F01803041F084E02030380720F417FD37
:100D900002C01068CCCFEF5F80912C01E817F0F211
:100DA000609130017091310117FF04C060912E01F4
:100DB00070912F0180E090E00E94F8352FEF33E032
:100DC00040E050E00E943A36B901CA0120912C015E
:100DD00030E040E050E00E943A36C9011F9108958A
:100DE0009B01281B390B50F0C9010895BC0180916B
:100DF0003001909131016817790718F4861B970B21
:100E0000089580E090E00895EF92FF920F931F9372
:100E1000CF93DF93F82EE92EC5E64F9B1BC0CF2D55
:100E2000DE2D15E500E0D7FD0FC063DF110F4F9BEE
:100E30001F5F1F731F3391F4011103C0CF2DDE2DEF
:100E400004E00F5F083C70F0802FCDB7DEB7E6E01E
:100E50000C9485374FDFC15001F7E1CF111102C06B
:100E60000111F2CFA8951C161D06ECF62A97D9F6AB
:100E7000CFEFDFEFD8CFCF9344DCC82F80913F0175
:100E80008823D1F0813051F4CF3041F467E28FE014
:100E9000A9DC8BE23FDC67E28FE0A4DC80E49FE129
:100EA000B3DFCF3041F480913F01813021F460E025
:100EB0008FE098DCE3DC9EDCCF91089589E290E03E
:100EC0000E94F037382F8AE290E00E94F03720919C
:100ED0003401230F30913501381F209317013093CF
:100EE000180183E0283E380720F0C901885E93404E
:100EF00002C080E090E062E370E00E941336683048
:100F000008F067E0E4E7F5E0E60FF11DE60FF11DFC
:100F1000459155912591359162E3681B421B530B16
:100F2000649FC001659F900D1124499662E370E0B3
:100F30000E941336620F731F7093700160936F01EC
:100F40008BE290E00E94F037992787FD90956091A1
:100F5000340170913501860F971F90932F01809374
:100F60002E0190936D0180936C010895CF93DF93D0
:100F700024E130E0B9010E941336DC01E6E8F5E037
:100F8000E60FF71FE60FF71FC591D59145915591D3
:100F90004C1B5D0B4A9FC0014B9F900D5A9F900DBB
:100FA0001124B9010E9413366C0F7D1FCB01DF9114
:100FB000CF910895189540911901A0913D01B091EC
:100FC0003E01E7E8F1E030E020E0822F2417B0F4A2
:100FD00051911C969C911C97591719F055819513A6
:100FE00003C02F5F3F4FF1CF220F331FF901ED56A2
:100FF000FE4F20813181293E334008F084E108957D
:1010000010921B01109219011092670110924F016A
:1010100010921A0110923B0110926E01E2E5F1E08C
:10102000108211821282E1E7F1E0108A82E0818B66
:101030001092020117861686148215821682178274
:1010400081EF838B08958FE43FDE86E43DDE86E406
:101050003BDEA8DB5E9842DE90E080E0D5CE0895CE
:101060001F93CF93DF93162F98E097B998B9E82F85
:10107000F0E0E253FE4F949195B9262F281BE20F22
:10108000F11D27FDFA95E491E92BE4B94DDEEC0161
:10109000812F4ADEAC01209130013091310136952B
:1010A0002795C9010397BE01625E7F4F8617970798
:1010B00078F4255E3F4FC217D30750F4BA01625E41
:1010C0007F4F8617970720F481E04217530708F0F7
:1010D00080E014B8DF91CF911F910895CF9361E024
:1010E00080E0BEDFC82F62E080E0BADFC80F62E0B8
:1010F00081E0B6DF8C0FCF910895AFE0B0E0E3E878
:10110000F8E00C945D37B82E10921B01807FB9F483
:10111000E5DF833081F484DB86E095E08DDB4DDB19
:101120008FE3F8DA80ED97E06FDE8B30B0F478DB98
:1011300085EA92E081DB2F96E2E10C94793706E9AB
:1011400010E06EDB85E794E077DBC8DF833009F0E1
:1011500068C01F5F143008F465C02FDB0E94A01B1D
:1011600081E692E069DB60E082E090E00E94FD377A
:1011700060E083E090E00E94FD3760E081E090E075
:101180000E94FD3760E082E00E9490206C019A830B
:10119000898361E082E00E9490207C019C838B83A4
:1011A00060E081E00E9490208C019E838D8323E08B
:1011B00040E26EEFC60169DD23E040E26EEFC70159
:1011C00064DD23E044EF6EEFC8015FDD2AE5C2165F
:1011D000D10424F084E190E09A838983698182E0DC
:1011E00090E00E94FD378AE5E816F10424F084E1DE
:1011F00090E09C838B836B8183E090E00E94FD37BD
:101200000A35110524F084E190E09E838D836D8181
:1012100081E090E00E94FD3782E080933F012BDE69
:1012200005C010E060DD015009F08BCFEB2DEF70B1
:10123000EF87E13009F04CC0EE24E394F12C78EB19
:10124000872E72ED972E77E4A72EB12CE2E0DE2EEA
:1012500008E0F0E23F2EC12C1E2D50E3252E33DB9B
:101260002EDB84E557DAC7016ADB8DDA113009F02D
:10127000C2C184E992E0E0DA64E0809134019091A7
:1012800035010EDD9ADA8FE892E0D6DA80916F01AF
:101290009091700154DB8EEB80932C0107B908B953
:1012A00014B815B888EE93E0AFDD143011F08B3030
:1012B00020F4C39484E0C812D2CF88EE93E0A4DD7A
:1012C000EFEFEE1AFE0AF8E0EF16F10409F0C3CFD3
:1012D00018E704DF882339F0F6DA86EF94E0ACDA19
:1012E000FFDC1150B1F79CDA8AE592E0A5DA23E041
:1012F00044EF6FEF8091320190913301C6DC5DDAEB
:1013000083E592E099DA23E044EF6FEF80913901B1
:1013100090913A01BADC82E080933F01ACDD1092FB
:101320001B017EDA8FE492E087DA60E082E00E94BF
:10133000C8188090790190907A01A0907B01B090BC
:101340007C019C868B8661E082E00E94C818C09078
:101350007901D0907A01E0907B01F0907C01DE86EB
:10136000CD8660E081E00E94C8180091790110915B
:101370007A011E830D8362E080E00E94C81880918C
:10138000790190917A019C838B8362E081E00E94D5
:10139000C8188091790190917A019A87898761E0D4
:1013A00080E00E94C8188091790190917A019A8317
:1013B00089832F85213029F020913801223009F0CE
:1013C000FBC1029698878F83C401C3DAC601C1DAD4
:1013D000B801110F880B990B03E026E444EF75DB8D
:1013E0008E010F5F1F4F9E01215F3F4F7801F70174
:1013F000819191917F010A97853B9105C8F42E1741
:101400003F07A9F742E2C42E40E0D42EF8016081E4
:101410000E5F1F4F6E5EC6010E94FD37FFEFCF1AB1
:10142000DF0A0E151F0591F7C8D989E594E004DAA3
:1014300082E080933F011FDD0E94C32C2F85213065
:1014400029F080913801823009F0C0C0E9D980E0EC
:1014500097D98CE094E0F0D982E092D98EEB91E0BC
:10146000EBD920E4F22E10E03AE0832E912CA12C4F
:10147000B12CC6DD10921B0160E082E00E94C8180A
:1014800000918301209171013091720140917301AB
:1014900050917401073F0CF496C10093830120938F
:1014A0007101309372014093730150937401073FAF
:1014B00009F091C1205631094109510920393545BA
:1014C0004105510508F087C1609185017091860141
:1014D000CB018B569F4F8B32914008F07CC11F5F30
:1014E000153008F479C189E290E00E940B3898D950
:1014F00087EB91E0A1D9809185019091860114DA62
:10150000DDDC88E088B989E087B980E284B982E0CF
:101510000BDC853D9340DCF714B810922F0110923C
:101520002E0182E001DC7C0180916C0190916D01C3
:1015300090932F0180932E0182E0F6DB6C01CC0C9E
:10154000DD1C10922F0110922E0182E0EDDB4C0188
:10155000A0906C01B0906D01B0922F01A0922E016D
:101560002CD980EB91E068D98BE290E00E94F037B3
:10157000182FD701A80DB91DAC19BD0995010E94FE
:10158000873696010D2C000C440B550B0E945C36DF
:101590001D5F120F612F8BE290E00E94FD37812FBB
:1015A000012E000C990BC0D989DC82E080933F01A9
:1015B00062DC109238018CE023D982E290E00E9434
:1015C000F037682F85E290E00E94FD3789E1809333
:1015D0002C0180E00E94E62F23D985EA92E02CD9E5
:1015E000ECD88DEE94E028D910921B0182E0809314
:1015F0003F0141DCA0CD123081F5209130013091C6
:101600003101A8E5BBE10E94783624EC36E340E0E6
:1016100050E00E945C3629013A0181E085B9F5E08D
:10162000F4B980E07EDB841995099A83898381E18E
:1016300084B980E076DB841995099C838B8384E0F0
:1016400085B984E184B981E06CDB841995099E83B6
:101650008D8389E792E0F0D833C0133049F5D5B8CF
:101660002AE024B980E05DDB209130013091310126
:101670003695279538872F83821B930B9A8389830E
:1016800082E284B980E04DDB2F813885821B930B89
:101690009C838B8305B9E8E2E4B981E042DB2F81CA
:1016A0003885821B930B9E838D838BE692E0D3CF8C
:1016B000143099F486EF94E0BFD810DD8111A1C0F9
:1016C0007CD889819A8130D95ED88B819C812CD934
:1016D0005AD88D819E8128D9E1CD153099F415B85D
:1016E000D4B880E01EDB9A83898304B981E019DBDA
:1016F0009C838B8334B882E014DB9E838D838BE8DC
:1017000092E0A9CF163039F5D4B8D5B880E009DB1E
:101710002091300130913101821B930B9A83898390
:1017200004B905B981E0FDDA209130013091310131
:10173000821B930B9C838B8334B835B882E0F1DA3B
:101740002091300130913101821B930B9E838D8358
:1017500087E892E080CF173059F520913001309121
:101760003101A8E5BBE10E947836A50194010E94F1
:101770003A3629013A01D5B8F3E0F4B980E0D1DA7C
:10178000841995099A83898305B92CE024B981E0ED
:10179000C8DA841995099C838B8335B824B882E014
:1017A000C0DA841995099E838D8385E692E053CF34
:1017B000113009F085CF72CD98878F831092380150
:1017C0008CE01ED801CE0F5FCA01B901A5019401BA
:1017D0000E943A365FCE10E00E94DD0360917101F5
:1017E00070917201809173019091740104E026E47C
:1017F000409183016AD942D876DAFA94F11039CE51
:10180000E5CE82E0C82E5CCF8091380181110DC0F9
:1018100082E290E00E94F03761E0680F85E290E09C
:101820000E94FD3781E0809338010895EF92FF9286
:101830000F931F93CF93DF93D62FE82FF0E0EF5253
:10184000FE4FE491E8B9E860E7B915B8E62FF0E09B
:10185000E253FE4FE491E4B9CE2FCC0F88E8E82E96
:1018600083E1F82E8D2F5DDA8C01C4B98E159F05AA
:1018700018F1892BE1F00E94EB038CEE93E00E94BB
:101880001C04D80120EA36E841E050E00E948D3681
:1018900028E937EB40E050E00E943A36C90122E0E7
:1018A00041E467EFF2D988E087B988B914B8CDB7B9
:1018B000DEB7E6E00C9485377801D4CFFC019C01BB
:1018C000261B370BCA0170E060E0A901460F511DCD
:1018D000452F5527620F240F351FAC01470F511DAF
:1018E000452F5527780FDA01AA0FBB1F8A0F9B1FC0
:1018F0004B3E20F4E217F30740F7089590E080E0B4
:1019000008950F93BC0190E080E003E020E24DEFEA
:10191000DCD80F910895AEE1B0E0E1E9FCE00C9471
:101920005D378D8F6E8F4983A8952E8DE22FF0E065
:10193000E253FE4F34913C8B330F3A8F33968491B0
:10194000898F9981E92FF0E0E253FE4F24912C8397
:10195000922E990C339684903D8DE32FF0E0E25364
:10196000FE4F1491812F880F8D8B33969491988719
:1019700098609987E98DE860ED8325B9FC89F22BA1
:10198000F88FF4B997B9288528B98E8DCCD9998B61
:10199000888B8C81892985B93C8939293C8734B960
:1019A0008E8DC1D99B878A878C8984B98E8DBBD94E
:1019B0001C0114B89ED915B8988D94B98E8DB3D9E1
:1019C0007C01688979890CDA9B838A83ED81E7B988
:1019D00088E088B9FC81F12BFE83F5B9F4B98D8DCF
:1019E000A2D904DA3C0115B884D915B98D8D9BD9DB
:1019F000FDD96C0114B98D8D96D9F8D95C01B60169
:101A0000C301EED92C010E94630484E50E948A037D
:101A100084E50E948A038E8D0E94C0038CE20E949E
:101A20008A038D8D0E94C0030E94C3038DE20E9431
:101A30008A038889998965DF8FE60E948A03C1013C
:101A400060DF8BE20E948A03C7015BDF8FE60E94A2
:101A50008A0388E60E948A038A859B8552DF0E945A
:101A6000E4038DE20E948A03C6014BDF8FE60E94E9
:101A70008A03C50146DF8BE20E948A03C30141DF6E
:101A800020E2421621E0520630F48A819B818032A6
:101A9000914008F465C72A813B812C0D3D1D888942
:101AA0009989840D951D2817390748F483E60E940B
:101AB0008A038EE40E948A03D98AC88A15010E948B
:101AC000630420914F0180916701820F9927991F2C
:101AD00002974CF0213009F043C790914C0180915E
:101AE000640198133DC7F92DF12BFA8728893989AC
:101AF0002437310508F424C2C9010A96880F991FBA
:101B00002816390608F01CC2398537B9888588B986
:101B10009C8594B98E8D06D97C01898105D95C019B
:101B200095B88E8DFFD86C018E8D0E94C00386E61D
:101B30000E948A038D8D0E94C0030E94C303C601C8
:101B4000E0DEC701DEDE0E94E40388899989D9DEE0
:101B5000C101D7DEC701895A9D4F8C159D0508F03C
:101B6000E0C088E088B9ED81E7B9FA85F4B9F5B944
:101B70008981D8D86C018EE40E948A0385E0809325
:101B80001B0128E4C2162FE0D20608F4C5C082E289
:101B900080931A0184E40E948A030E94C303F09296
:101BA0004501E0924401B501C70125D990934B014D
:101BB00080934A019701A0E1B7E20E947836209114
:101BC00015013091160150E040E00E943A36309302
:101BD0004701209346018A8D892984B915B8398532
:101BE00037B9888588B989819FD87C018E8D9AD82C
:101BF000B70101D990934901809348010E94EB03FA
:101C00008EE40E948A038AE60E948A030E94C3032C
:101C100080911A018F70843009F04DC040914601C7
:101C20005091470160914A0170914B0180914801A8
:101C30009091490143DE7C01BC0190E080E003E02B
:101C400020E24AEF0E946505E114F10481F194B8A5
:101C5000E98D9985E92BE7B98E8D64D87C0188E000
:101C600087B99701A0E1B7E20E9478362091390147
:101C700030913A0150E040E00E943A3629013A01A1
:101C8000CA01B9018827992720E24AEF0E94650519
:101C9000A201B70180914801909149010FDE7C01BA
:101CA000BC0190E080E020E24AEF0E946505F092DE
:101CB0004501E092440180911A018F70843019F13E
:101CC00088E088B9ED818E2A87B814B9FE81F5B90C
:101CD0008D8D29D87C018AD88C018E8D25D8C09015
:101CE0001C01D0901D01BC01C70185D89601DC0103
:101CF0000E947836980150E040E00E943A363093D6
:101D000045012093440183E20E948A0380914F01A0
:101D10008F5F80934F0166C484E280931A018AE446
:101D20003ACF88E088B92D8127B93A8534B935B9D9
:101D30008D8D0E9492067C0189810E9494066C011F
:101D400015B98D8D0E949206895A9D4F8E159F055B
:101D500008F006C6888588B9998597B989810E9457
:101D600092065C0180E50E948A0385E080931B0156
:101D7000E1EDAE16E3E0BE0608F0DDC082E380933D
:101D80001A0184E40E948A030E94C303B701C601BA
:101D900032D89093630180936201C70127D89C01D8
:101DA000A0E1B7E20E94783620911C0130911D011C
:101DB00050E040E00E943A3630935F0120935E018C
:101DC00018E018B9FD81F7B98D89892984B985B9D9
:101DD0008D8D0E9494067C0189810E949206B70134
:101DE0000AD890936101809360010E94EB0380E523
:101DF0000E948A038AE40E948A0380911A018F70EC
:101E0000843009F052C040915E0150915F016091B1
:101E100062017091630180916001909161014EDDDA
:101E20007C01BC0190E080E003E020E24AEF0E94E8
:101E30006505E114F104A9F195B894B8288528B98D
:101E4000E9853D81E32BE7B98D8D0E9492060E94C2
:101E5000F6067C0117B99C01A0E1B7E20E94783632
:101E6000209132013091330150E040E00E943A3637
:101E700029013A01CA01B9018827992720E24AEFCE
:101E80000E946505A201B7018091600190916101F6
:101E900015DD7C01BC0190E080E020E24AEF0E9469
:101EA0006505F0925D01E0925C0180911A018F70EE
:101EB000843031F1E885E829E8B98985882A87B82E
:101EC00015B89E8194B98D8D0E9493066C018E8DFC
:101ED0000E9494067C010091150110911601BC012D
:101EE000C6010E94FB069801DC010E94783697012A
:101EF00050E040E00E943A3630935D0120935C014F
:101F0000809167018F5F8093670111E080E50E94F7
:101F10008A03809167018F5F80936701112309F421
:101F20009BC5E981E0936401FE8DF09365012D8DE1
:101F30002093660191C584E380931A018AE422CF3D
:101F400088E088B9ED81E7B915B9FA85F4B98D8DC6
:101F50000E9493069F8B8E8B0E94F6066C018981EE
:101F60000E9494069B838A830E94EB0380E50E9473
:101F70008A0391012C593F4F3C8F2B8FB101C60131
:101F80002C153D0508F0A0C00E94FB067C0188E4EA
:101F90000E948A0320911C0130911D0150E040E015
:101FA00060E871EA83E09CE10E943A36D7010E9422
:101FB0008D36EA81FB819F0150E040E00E943A3675
:101FC00029013A0183E60E948A0383E60E948A037C
:101FD0000E94C30385E60E948A03C60192DC8FE655
:101FE0000E948A03C1018DDC82E60E948A038A81F5
:101FF0009B8187DC82E40E948A038DE30E948A032E
:1020000003E020E24EEFC301B2010E94650514B85F
:1020100015B8F885F8B9298527B90E947A060E9473
:10202000EB038E8D0E94C00385E40E948A038D8D90
:102030000E94C0030E94C303388D34B98E8D0E9464
:1020400093068F359D4008F4CAC1FC85F4B98E8D86
:102050000E9492067C0189810E9494069F878E8748
:102060008D8D0E9494069B8B8A8B2E853F85213D0A
:10207000374008F42BC195B88E8D0E9492064C0112
:10208000811494E0990608F43FC080911B018430CC
:10209000D8F580E50E948A0385E50E948A0384E5DD
:1020A0000E948A030E94C303C4012BDC8AE0809350
:1020B0001B016E857F858A899B890E94FB06909310
:1020C0005D0180935C0121CF0E94FB067C01FE81B3
:1020D000F4B98D8D0E9493069F8B8E8B0E94F6061D
:1020E0006C0189810E9494069B838A838CE40E9400
:1020F0008A036A817B81C7010E94FB069C01A4E6DA
:10210000B0E00E94783655CF84E080931B018DE0CB
:1021100080931A010E94EB0380E50E948A03470125
:102120002E143F0410F48218930888E40E948A0356
:10213000209115013091160150E040E060E871EA0D
:1021400083E09CE10E943A36D4010E948D36EE85F0
:10215000FF859F0150E040E00E943A3649015A0154
:1021600083E60E948A0385E60E948A030E94C303D5
:1021700083E60E948A03C701C4DB8FE60E948A03BC
:10218000C101BFDB82E60E948A038E859F85B9DB91
:1021900082E40E948A038DE30E948A0303E020E226
:1021A0004EEFC501B4010E94650580916701882347
:1021B00071F08091580190915901A0915A01B0910C
:1021C0005B0110E088159905AA05BB0520F58092F2
:1021D000580190925901A0925A01B0925B01970167
:1021E000A0E1B7E20E9478362091150130911601E6
:1021F00050E040E00E943A3630935F0120935E0148
:102200006E857F858A899B890E94FB0690935D017C
:1022100080935C0111E08091580190915901A09147
:102220005A01B0915B0184159505A605B70530F5F7
:10223000409258015092590160925A0170925B018C
:102240006A817B818E899F890E94FB0690935D0144
:1022500080935C019601A0E1B7E20E94783620915C
:102260001C0130911D0150E040E00E943A36205F91
:10227000384D30935F0120935E0111E082E40E94AB
:102280008A03112309F442CEC0901501D0901601A3
:10229000F12CE12C9101A0E1B7E20E947836A70170
:1022A00096010E943A36309361012093600128899B
:1022B0003989A0E1B7E20E947836A70196010E9411
:1022C0003A36309363012093620120CEF1E62F1657
:1022D000310408F084C021EDE21627E0F20608F48C
:1022E0007EC085E080931B0182E180931A01C701C3
:1022F00086509F4FEA89FB898E179F0708F058C0C8
:102300000E94EB0380E50E948A0389E40E948A030D
:1023100087E40E948A030E94C3038A899B89F1DAB9
:10232000C701EFDA83E180931A01198D1770898153
:10233000806480937C000BE0CC24C394D12CEE24E9
:10234000EA94E3E0FE2EA89561E08C813BD6FC8503
:10235000F4B986B18123E9F32C8924B980917A00FC
:10236000806480937A0080917A0086FDFCCF809112
:10237000780090917900F701E81BF90BCE0EDF1E73
:10238000015009F7C601880F991F880F991F69E04E
:1023900070E00E9413367093630160936201809134
:1023A00067018F5F8093670186E40E948A03ADCD49
:1023B000A0901501B0901601B7018A899B890E94EF
:1023C000FB069501DC010E947836970150E040E061
:1023D0000E943A3630935D0120935C01A6CF0E94A3
:1023E000EB038EE40E948A03FC85F4B995B88E8DC8
:1023F0000E9493069B838A8389810E9494069D870D
:102400008C870E94F6067C012B8D3C8D8A819B81F6
:102410002817390708F0E8C0B1010E94FB066C01DB
:1024200088E40E948A03209115013091160150E042
:1024300040E060E871EA83E09CE10E943A36D60110
:102440000E948D36970150E040E00E943A364901E3
:102450005A0183E60E948A0383E60E948A030E944F
:10246000C30385E60E948A038A819B814ADA8FE64C
:102470000E948A03C10145DA82E60E948A03C701ED
:1024800040DA82E40E948A038DE30E948A0303E01B
:1024900020E24EEFC501B4010E9465053D8137B9C8
:1024A00088E088B98E8184B985B98D8D0E949306A4
:1024B0003C0189810E9494069F878E878E8D0E94A1
:1024C00094062C0190E3691691E1790608F045C263
:1024D00015B98D8D0E9493069B8B8A8B14B98D8DB7
:1024E0000E9493066C0115B80E947A0615B98D8D6D
:1024F0000E9493067C010E94EB0389E70E948A03F5
:102500000E94C303C601FDD9C701FBD9C301F9D994
:10251000E0E4CE16E6E0DE0608F08DC0F1E3EF164B
:10252000F1E1FF0608F487C0C3018A569F4F2A894C
:102530003B892817390708F07EC086E080931B018D
:102540000E94EB038E8D0E94C00389E50E948A03DE
:102550008D8D0E94C0030E94C30380914F018F5F45
:1025600080934F01B2018E859F850E94FB06909358
:10257000450180934401B201C3010E94FB06909380
:102580004B0180934A0114B815B8398D38B90E94AF
:102590007A0614B98D8D0E949306853F910510F53A
:1025A0008E8184B989810E949306813D9340D0F049
:1025B0008D8D0E9494068D3D9240A0F014B98D8DB2
:1025C0000E9493068D3D924068F015B90E947A06EC
:1025D00015B88D8D0E949306853F910518F487E00C
:1025E00080931B0111E039C1988D94B9EC81E5B954
:1025F0008E8D0E9493069B838A8389810E94940614
:102600009D878C870E94F6067C018CE40E948A03D9
:102610002A813B81C901821993092216330610F0E1
:102620008A819B81B7010E94FB069C01A4E6B0E071
:102630000E94783607CF3D8137B98C8184B985B93E
:102640000E947A069A8594B995B98D8D0E94930659
:102650003C010E94F6067C0189810E9494069F87B6
:102660008E870E94F6066C018E8D0E9494069F83D1
:102670008E830E94EB0382E70E948A0384E70E9414
:102680008A0380E70E948A030E94C303C60139D9E6
:10269000EEEFCE16E9E0DE0608F4F4C084E08093A5
:1026A0001B018CE080931A010E94EB038EE40E94D0
:1026B0008A03B101C7010E94FB063C0188E40E9425
:1026C0008A0320911C0130911D0150E040E060E838
:1026D00071EA83E09CE10E943A36D3010E948D3674
:1026E000960150E040E00E943A3629013A0183E623
:1026F0000E948A0385E60E948A030E94C30383E640
:102700000E948A03C701FDD88FE60E948A03C10197
:10271000F8D882E60E948A03C601F3D882E40E94B8
:102720008A038DE30E948A0303E020E24EEFC30197
:10273000B2010E94650580914F01882371F080915C
:10274000400190914101A0914201B091430110E0FC
:1027500084159505A605B70520F5409240015092D5
:10276000410160924201709243016E817F818E85AA
:102770009F850E94FB069093450180934401970139
:10278000A0E1B7E20E94783620911C0130911D0132
:1027900050E040E00E943A363093470120934601D2
:1027A00011E08091400190914101A0914201B091CE
:1027B000430188159905AA05BB0538F580924001AB
:1027C00090924101A0924201B09243016A817B81C3
:1027D0008C859D850E94FB06909345018093440162
:1027E0002A813B81A0E1B7E20E9478362091150151
:1027F0003091160150E040E00E943A36205F384D9B
:10280000309347012093460111E082E40E948A033D
:10281000112319F19101A0E1B7E20E9478362091CD
:1028200015013091160150E040E00E943A36309395
:1028300049012093480128893989A0E1B7E20E9423
:10284000783620911C0130911D0150E040E00E943B
:102850003A3630934B0120934A018EE40E948A035A
:1028600080914F018F5F80934F01112309F4F4C0D1
:10287000398130934C018D8D80934D019E8D9093C5
:102880004E01EAC0F1E62F16310408F066C029E4D3
:10289000E2162DE0F20608F460C085E080931B018B
:1028A00082E080931A018E819F8186509F4F86150A
:1028B000970508F03BC083E080931A0186E40E94EC
:1028C0008A0338853770D32E8981806480937C0099
:1028D0000BE0EE24E394F12CA89560E08C8172D398
:1028E0008A8584B985B986B18D21E9F714B98091BB
:1028F0007A00806480937A0080917A0086FDFCCF14
:102900008091780090917900E80EF91E015021F72E
:10291000C701880F991F880F991F69E070E00E9416
:10292000133670934B0160934A01F0C9C0901C01AB
:10293000D0901D016E817F81C3010E94FB0696012C
:10294000DC010E947836970150E040E00E943A3660
:102950003093450120934401B1CF88E087B988B90D
:1029600014B815B888E087B997EC291691E03906B4
:10297000B8F40E94E4038D8D0E94C00384E40E9499
:102980008A038E8D0E94C0030E94C303C1010E946E
:10299000810C8CE30E948A036E8D8D8D10D15CC0FA
:1029A00088B9ED89E4B908ECF984FD81FF2AF7B80C
:1029B0000E947A062D8127B98D8D0E949406429738
:1029C00010F00150A1F73D8934B935B961E08C812F
:1029D000F9D28D8D0E9493063C018A8D84B915B879
:1029E000998597B9E885E8B960E08C81EBD28E8D46
:1029F0000E9493060E94F6066C01FC89F4B98E8D44
:102A00000E9494067C018D8D0E949306B7010E945E
:102A1000FB065C018E8D0E9494067C018D8D0E94C8
:102A20009306B7010E94FB067C0183E40E948A039F
:102A300083E60E948A03C5010E94810CC7010E949F
:102A4000810CC50144968E159F0590F48EE40E947A
:102A50008A0384E40E948A0388E087B988B914B89D
:102A600015B88EE20E948A036E96E2E10C947937E3
:102A700088E088B92D8127B914B915B961E08C8136
:102A8000A1D28E8D0E9494067C018D8D0E949306AA
:102A9000B7010E94FB067C01A816B90608F074C0B5
:102AA0003D8934B935B98D8D0E9493064C0163017F
:102AB0000E94E4038D8D0E94C00384E40E948A0377
:102AC0008E8D0E94C0030E94C30388E60E948A0381
:102AD000C6010E94810C8CE40E948A03C7010E94F7
:102AE000810C88E40E948A03C4010E94810CF8EEE4
:102AF000EF16F3E0FF0608F059C0C70164E670E086
:102B00000E941336C701875991098938914108F00D
:102B100043CF8E149F0408F03FCFC60123E0969563
:102B200087952A95E1F7893C910510F088EC90E0B3
:102B30008C0D9D1D8E159F0508F02ECF6C157D0503
:102B400008F02ACF80911B018330B8F583E0809391
:102B50001B0184E40E948A0380911901282F30E030
:102B6000F901E957FE4F9D8D90839E8D9683220F2C
:102B7000331FF901ED56FE4FF182E08291E0980F8C
:102B8000909319018F5C66CF8A8D84B915B89985A9
:102B900097B9E885E8B960E08C8114D28E8D0E94E7
:102BA00093060E94F6064C01750182CFB70134E00E
:102BB000769567953A95E1F7A5CF84E6CBCFB0E05F
:102BC000A0E0E5EEF5E10C945F37C82FD62FA8956D
:102BD000862F90E0FC01E253FE4F549033962491EF
:102BE0004C2F50E0FA01E253FE4F149133960491BA
:102BF0006091670130914F01630F7727771F672B33
:102C000009F05AC0A89560911F0170912001660FCC
:102C1000771F660F771F70933101609330016091C9
:102C20006C0170916D01660F771F660F771F7093AF
:102C30002F0160932E013EEB30932C01609119011E
:102C4000E7E8F1E030E0840F951F63133AC088E0B5
:102C500088B9286027B914B915B9B8E1BB2ED12CB1
:102C6000C12C8D2F0E949306782E692E8C2F0E94E6
:102C700094067C018C199D0997FF03C0919581955D
:102C8000910903970CF45AC1A895BA946701B11041
:102C9000E8CF80911F0190912001909331018093A2
:102CA000300180916C0190916D0190932F01809380
:102CB0002E0189E180932C01CDB7DEB7E0E10C94C1
:102CC0007B3751914581450F5527551F48175907A7
:102CD00001F33F5FBACF25E8C21621E0D206C8F65D
:102CE000043AE2E01E0708F0B5C0F8E9AF16B104F7
:102CF00080F2C6010E94F606AC019601A8E9B7EB86
:102D00000E9478369A0150E040E00E943A3629014C
:102D10003A01C5010E94F6069C01A8E9B7EB0E94A2
:102D20007836950150E040E00E943A3688E7C816B0
:102D30008FE0D80608F072C0F2E0440C551C661C07
:102D4000771CFA95D1F7C301B201620F731F841F7C
:102D5000951F25E030E040E050E00E943A36A4E6BE
:102D6000B0E00E948D366B017C01FCEACF0EFDE0E5
:102D7000DF1EE11CF11C10911B01143008F089CFFB
:102D8000C1500C2F0D0F802F90E0EC01CE5ADE4F7A
:102D90002881880F991F880F991F80569E4FFC012C
:102DA000222309F4C4C080809180A280B380A7014F
:102DB0009601281939094A095B0957FF07C0509540
:102DC0004095309521953F4F4F4F5F4FAAE0B0E0BF
:102DD0000E948D36F4E68F0E911CA11CB11CA5013A
:102DE00094012C0D3D1D4E1D5F1D0E943A36232B74
:102DF000242B252B09F04DCF133019F081E080935F
:102E00001B0182E0888380916E01E82FF0E0EB5A8D
:102E1000FE4F00838F5F80936E013BCFE8E7AE16D5
:102E2000EFE0BE0670F4E2E0220F331F441F551F8F
:102E3000EA95D1F7CA01B901640D751D861D971D6C
:102E400088CF240D351D461D571D5695479537953E
:102E5000279585CFC0901C01D0901D01672D762D40
:102E6000E616F70608F4B701C7010E94FB069601B3
:102E7000DC010E9478362B013C01C7010E94F60656
:102E80009C0150E040E0C301B2010E943A362901A2
:102E90003A01A0901501B0901601892D982D801748
:102EA000910708F4C801B8010E94FB069501DC01F6
:102EB0000E947836980150E040E00E943A3688E758
:102EC000E8168FE0F806B0F462E0440C551C661C6E
:102ED000771C6A95D1F7C301B201620F731F841F7B
:102EE000951F25E030E040E050E00E943A3669014D
:102EF0007A0141CF0837EFE01E0770F4CA01B9012B
:102F000052E0660F771F881F991F5A95D1F7640DFD
:102F1000751D861D971DE5CF73016201C20ED31E7C
:102F2000E41EF51EF694E794D794C79424CFC0828C
:102F3000D182E282F38281E08883ABCE110F15B893
:102F400014B98C2F0E9493068135910508F0A1CE0B
:102F500015B98C2F0E9493066C01802F886087B969
:102F600008B915B854B8A8E14A2EB12CA12C8C2F61
:102F70000E949306982E892E8D2F0E9494068C0114
:102F80008A199B0997FF03C0919581959109039731
:102F900034F0A8954A9458014110E9CF7ACE550CE7
:102FA00054B88D2F0E9493065C01F0ECEF16F4E408
:102FB000FF0608F490CE80EBC8168DE4D80608F022
:102FC00068CE8ECECF93C82FC09595B160FF0FC04D
:102FD000982B95B994B1892B84B90E94790684B154
:102FE0008C2384B985B18C2385B9CF9108959C2316
:102FF000F0CFB0E0A0E0EFEFF7E10C9465371AE016
:1030000008E08FE3C82E99E0D92E07B908B915B8A2
:10301000C4B880E00E9493067C0181E00E9494067F
:10302000EC0182E00E9494069C0180911B01893092
:10303000A1F488E087B914B8F0920501E092040188
:10304000D0930701C0930601309309012093080132
:10305000CDB7DEB7EAE00C94813784E0E816F104DE
:1030600048F4C430D10560F42430310510F399E000
:1030700092600AC098E088EEE81683E0F80608F44B
:1030800099E0C83ED340A0F3283E334008F4946052
:1030900097B9D0E0C0E0A89580E00E9491065C015D
:1030A00081E00E9494067C0182E00E94940624E163
:1030B000A21625E0B20608F4389A24E1E21625E0CB
:1030C000F20608F4399A843125E0920708F43A9A16
:1030D00026E0A216B10430F426E0E216F10410F462
:1030E000069738F02196C43F81E0D807A1F6D09228
:1030F0001B01F12CE12CEC16FD0621F4115009F016
:1031000084CFA6CF0E947F062FEFE21AF20AF3CFF8
:10311000CF92DF92EF92FF92CF9320917101309185
:1031200072014091730150917401C09183018AE052
:10313000C82ED12CE12CF12C8C2FCF5F213A96E8B0
:10314000390791E049075105E0F480938301A0918C
:103150003001B09131010E948D3628E833E140E022
:1031600050E00E943A3620937101309372014093EF
:10317000730150937401CF91FF90EF90DF90CF9047
:103180000895CA01B901A70196010E943A36D4CF29
:10319000B0E0A0E0EEECF8E10C946337182FF62EC7
:1031A000880F810F9FEF960F890F80935101E12FB8
:1031B000F0E0E253FE4F0491862F90E0FC01E253D1
:1031C000FE4FC491FC01EF52FE4F649180911B01B0
:1031D000813009F453C040911901A7E8B1E090E0B3
:1031E00080E0841708F44FC0E62E6894E3F810924C
:1031F0007E0110927D0181EF809383011092710115
:10320000109272011092730110927401F2DE88E044
:1032100088B9E7B8C4B9C5B9812F0E9494064C019A
:103220008F2D0E949406881A990A14B8D0E0C0E045
:1032300005B904B90E94790614B815B80E94800631
:10324000A895812F0E9494065C01A818B908CE3772
:10325000D10520F02BE4A216B1045CF05DE2A516C6
:1032600051E0B5060CF071C12196C43F81E0D8074A
:10327000F9F688E087B988B914B815B8CDB7DEB7C4
:10328000ECE00C947F3716962C9116972F110EC0F8
:103290002C9121130BC09C01220F331F29573E4F45
:1032A000F901248535852C3D354040F30196119672
:1032B00098CFE12C00E07BC19CDE15B88FE087B988
:1032C00088E088B9D02EDD0CD4B880E480937B00F0
:1032D00084E580BF812F806480937C0087E18093A8
:1032E0007A000E948306109280001092850010924E
:1032F000840087E286BBD5B880911B01853009F038
:1033000003C181E08093810081E090E0012E01C043
:10331000880F0A94EAF780958F7087B9B12CA12C99
:1033200091E086B385FD0CC080FFFBCF96BBA895CE
:103330005FEFA51AB50AE0E8AE16ECE0BE0689F725
:103340001092810090E296BBC0908600D0908700DA
:103350002091840030918500C216D30638F480FF96
:1033600005C081E086BBFFEFAF1ABF0A87E98093F3
:103370007A0014B815B8812F0E9494062091340168
:1033800030913501821B930B0C96909386018093AC
:10339000850120E4A21626E0B20608F06ACFB092BA
:1033A0007C01A0927B01D0927A01C092790184EFD6
:1033B0008093830152E4A516B104C8F060917901AD
:1033C00070917A0180917B0190917C0124E630E03C
:1033D00040E050E00E943A362093790130937A0120
:1033E00040937B0150937C0186EF80938301A091F1
:1033F0006F01B09170012091790130917A01409173
:103400007B0150917C010E948D3620E436E040E043
:1034100050E00E943A362093790130937A0140932C
:103420007B0150937C012093710130937201409392
:103430007301509374016CDE80918301843F09F025
:1034400054C08090710190907201A0907301B0906F
:10345000740180EA88168FE09806A104B104C0F4D4
:10346000A50194012C543F4F4F4F5F4F60EA7FE01E
:1034700080E090E00E943A36820E931EA41EB51E94
:103480008092710190927201A0927301B0927401C6
:103490008090710190907201A0907301B0907401BE
:1034A00081149104E1E0AE06B10498F59092B10167
:1034B0008092B0018091510190E08E5D9F4F0E94FB
:1034C000F03790E0B0E0A0E088159905AA05BB05AB
:1034D00038F5881A990AAA0ABB0A8092710190925B
:1034E0007201A0927301B092740104B980917101CC
:1034F00090917201A0917301B09174014997A10557
:10350000B10508F4B6CEA8C081E080938100E7B889
:1035100005CF81E090E09093B1018093B001CACFD4
:10352000F4E18F0E911CA11CB11C88169906AA0605
:10353000BB0610F40E94040C1092710110927201EB
:103540001092730110927401D0CF209731F4E5E10D
:10355000AE16E5E0BE060CF0AFCED12CC12C0E9419
:103560007A06812F0E949406A895FFEFCF1ADF0AF2
:10357000CC15DD05A0F7881999096501C81AD90A83
:103580001C141D040CF095CE29ECC216D1040CF0CD
:1035900070CE28EE33E0D6010E94873695010B2CC1
:1035A000000C440B550B0E943A36E22E032F219655
:1035B000CE01B0E0A0E08093790190937A01A093CE
:1035C0007B01B0937C01C5018C0D9D1D8AD020919B
:1035D000790130917A0140917B0150917C01DC01AD
:1035E0000E948D366093790170937A0180937B01FC
:1035F00090937C01609371017093720180937301C9
:103600009093740187EF8093830182DD8090710134
:1036100090907201A0907301B090740185E090E0E9
:103620000E94F037A8EEB3E0A81BB10987FDB3955F
:10363000A50194010E94973624E630E040E050E076
:103640000E943A36209371013093720140937301C6
:1036500050937401CE2DD02F80911901882329F029
:1036600080911B01853009F004CE88E080931B0116
:1036700080918301909184019817C4F08913F9CD4A
:103680008090710190907201A0907301B0907401CC
:1036900040917501509176016091770170917801A8
:1036A000481559056A057B0508F0E3CD4091710185
:1036B0005091720160917301709174014093750192
:1036C0005093760160937701709378018093840121
:1036D000D0938001C0937F01F09281011093820109
:1036E000C8CD0F9221E08C32920710F48CE291E069
:1036F0008C52914069E170E00E94133699E16B327F
:1037000010F0982F6BE2981BECEEF5E0E60FF11D40
:10371000E60FF11D4591559125913591692F421B79
:10372000530B649FC001659F900D11240C9669E1B5
:1037300070E00E941336620F731FCB010F90089543
:10374000B0E0A0E0E6EAFBE10C94633788E893E19F
:103750009093200180931F01909331018093300159
:103760008EEB80932C01C8E0C8B988E187B90E942C
:103770008806C7B984E00E949306AC018B5C984030
:10378000833F9140A0F481E080933B012091300180
:1037900030913101AFEBB9E00E9478369A0150E0E8
:1037A00040E00E943A363093200120931F0180911F
:1037B0001F019091200190933101809330018EE0A0
:1037C0000E9494068EE00E949306909335018093A8
:1037D00034010E945E070DDC88E0F82EF8B8C9E0DD
:1037E000C7B985E185B9D1E0D4B980E00E949306DC
:1037F0008C019AE0D92ED7B824E0B22EB4B881E07B
:103800000E949306080F191F3CE0E32EE7B840E141
:10381000C42EC4B882E00E949306080F191F15B881
:10382000C8B9C7B9D4B980E00E9493060E94F606D1
:10383000EC01D8B8D7B8B4B881E00E9493060E94D2
:10384000F606C80FD91FE8B8E7B8C4B882E00E94EE
:1038500093060E94F606C80FD91FF7B8F8B814B837
:1038600080913001909131016C01CC0CDD1CC80EAF
:10387000D91EC01AD10ACC1ADD0AF12CE12C98010C
:10388000A0E9BAE10E947836A70196010E943A3673
:1038900049015A0130933A01209339019E01A0E970
:1038A000BAE10E947836A70196010E943A36309319
:1038B0003301209332012057354E30931D01209360
:1038C0001C0180E7881A85EE980A90921601809272
:1038D000150189E180932C01CDB7DEB7ECE00C94A3
:1038E0007F37CF92DF92EF92FF920F93CF93DF93C8
:1038F000F82ED62FC42F0E94C00388EB92E00E94BE
:103900001C04CFD16D2F8F2D0E94592EC090B40171
:10391000D090B501E090B601F090B701809102011E
:1039200087FD05C0C114D104E104F10421F084EB4A
:1039300092E00E941C048D2F0E94C003C114D10488
:10394000E104F10409F474C00E94C303809155019D
:103950000E94DD04CC2309F467C080913C018532CC
:1039600030F48650990B8A5B994F0E941C0480E0CA
:103970000E945C04CD28CE28CF2809F45EC0609157
:10398000B4017091B5018091B6019091B70103E047
:1039900028E447EF0E94650587EC92E00E941C0432
:1039A0008CE290E00E94F83723E046E464EF0E9446
:1039B00045068091AC019091AD01A091AE01B0910E
:1039C000AF01892B8A2B8B2B01F180E00E945C04D4
:1039D0006091AC017091AD018091AE019091AF0109
:1039E00004E028E440E00E94650582EC92E00E9439
:1039F0001C0423E040E26FEF8091B2019091B3018B
:103A00000E9445060E943E0407C080E00E944404D4
:103A100080913F018823B1F3DF91CF910F91FF9007
:103A2000EF90DF90CF90089580E00E945C04A7CFD4
:103A3000C11193CF80E00E945C04809155010E94E7
:103A4000DD04809102018E3F0CF0B3CF80EF93E054
:103A50000E941C0460910A0170910B0180910C017D
:103A600090910D0103E028E4409102010E94650558
:103A7000A0CF84E192E00E94C0280E94000860E08C
:103A800082E09DD862E080E09AD80E94D7038091BE
:103A90006E01882369F041E062E080E022DF88EE79
:103AA00093E00E940407882341F30C9410040895C6
:103AB00084E192E00E941C048AE496E00E941C04C7
:103AC0000E94DD038FE30E948A0380E00E94440489
:103AD0000E943E04E4CFEF92FF920F931F93CF9387
:103AE000DF93182F0E94D703809181010E94C003A9
:103AF0008CE094E00E941C04BAD460918101809112
:103B000082010ED3EC0190937E0180937D01E090C1
:103B10007F01F0908001CA3F8FEFD80720F489EB36
:103B200092E00E941C04809182010E94C003112334
:103B300009F445C090913C0185E2891B0E94C603AF
:103B400089E092E00E941C040E94DD0360917501EF
:103B500070917601809177019091780104E026E4DC
:103B6000409184010E946505CA3FDF4F68F48BEFE6
:103B700093E00E941C0422E044EF6EEF80917D01EF
:103B800090917E010E9445060E943E040E94E4033B
:103B9000E114F10469F084EF93E00E941C0422E038
:103BA00045E26FEF80917F01909180010E94450670
:103BB0000E943E04CDB7DEB7E6E00C9485370E9444
:103BC0003E04C2CF1F93CF93DF93C8E0D2EF15E23C
:103BD0000E94000860E082E0DBDAC0931B01809164
:103BE0008301843FE1F48091710190917201A09171
:103BF0007301B091740184369105A105B10578F483
:103C000040E060E082E00E940B2C609371017093B1
:103C100072018093730190937401D093830180911A
:103C20008301823F0CF18093840180917101909116
:103C30007201A0917301B09174018093750190930A
:103C40007601A0937701B093780181E044DF88EE9C
:103C500093E00E940407882309F4BACF0E9410045D
:103C6000DF91CF911F9108950E94D7038DE092E0DC
:103C70000E941C0480913C01912F981B892F0E9467
:103C8000C60389E092E00E941C040E94DD038FE3DA
:103C90000E948A030E943E040E94E4030E943E04A4
:103CA000D6CFA6E1B0E0E7E5FEE10C945D3782E017
:103CB0008093020180911B01813009F0F1C1809154
:103CC0006E01813009F0ECC14090550124E0429E24
:103CD000F0011124E056FE4F80819181A281B381D1
:103CE000893032E59307A105B10508F0D9C11C015F
:103CF000712C81E0871508F4D7C1842D0E94D3046C
:103D0000982E892EE82DF0E0EF52FE4F5490892D29
:103D100090E0FC01E253FE4FE49115B828E028B989
:103D2000372D3170632E20EF2216310408F0C1C107
:103D30003111BFC1009115011091160100591A41AE
:103D400021E030E0092C02C0220F331F0A94E2F771
:103D5000C9018860852987B934E1398B892D0E9492
:103D600092065C01882D0E94940624E0A216B104FC
:103D700010F4049728F039893150398B3111EECF86
:103D800080E480937B0094E590BF892D80648093CC
:103D90007C0027E120937A00F12CE12C1092800026
:103DA000109285001092840087E286BB0E948306F1
:103DB000872D90E09A8B898B611084C181E8809374
:103DC000810058B886B385FD0CC080FFFBCF21E091
:103DD00026BBA89597012F5F3F4F7901203A310507
:103DE00089F738E038B91092810090E296BB2091B3
:103DF00086003091870069014091840050918500D0
:103E00002417350738F480FF05C021E026BB3FEFBB
:103E1000E31AF30A87E980937A00B4E15B2E892DD7
:103E20000E9492065C01882D0E94940624E0A2164E
:103E3000B10410F4049718F05A945110F0CF809008
:103E4000390190903A01820C931C800E911E2091B2
:103E500017013091180100398AE1180708F03BC1B9
:103E600069E191EEC916D104E104F10430F4C60110
:103E700065E070E00E941336645128523109261B18
:103E8000310967FD339566E0862F90E0B0E0A0E051
:103E90008C159D05AE05BF0508F026C1C81AD90AC4
:103EA000EA0AFB0A662029F08AE3C80ED11CE11C4D
:103EB000F11C90EAE916F10418F0C12CD12C76011E
:103EC0008BE0C816D104E104F10428F091E0C91A8E
:103ED000D108E108F108B12CA12CA8EEB3E00E94B2
:103EE00078366B8B7C8B8D8B9E8BA0913001B09143
:103EF000310198010E947836A50194010E943A365A
:103F0000442755276B897C898D899E890E943A3682
:103F1000C9010E94B607FC01A5019401C701B601C1
:103F20000E94F8354B015C01BF0190E080E0E4E0C5
:103F3000660F771F881F991FEA95D1F76B5F7F4F38
:103F40008F4F9F4F2AE030E040E050E00E943A3629
:103F500044275527C501B4010E943A36E989FA89F8
:103F6000EE0FFF1FEE0FFF1F81E090E08C0F9D1FF3
:103F7000E80FF91F2083318342835383611018C0F7
:103F800094E1C916D104E104F10490F07394E98935
:103F9000FA893196EE0FFF1FEE0FFF1F81E090E0D0
:103FA0008C0F9D1FE80FF91F2083318342835383B9
:103FB000A895739493E0971508F09BCE88E088B994
:103FC0000E94780691E00D811E812F8138854981FC
:103FD0005A816B817C81401751076207730708F093
:103FE00090E00D851E852F85388949855A856B851A
:103FF0007C8582E0401751076207730708F483E06D
:1040000024E0829FD001112421E030E02C0F3D1FDD
:10401000A20FB31FE92FF0E0EE0FFF1FEE0FFF1FFF
:10402000E20FF31F0D911D912D913C914081518123
:1040300062817381041715072607370708F0892F57
:1040400034E0839FF001112421E030E02C0F3D1F6C
:10405000E20FF31F408151816281738140930A0115
:1040600050930B0160930C0170930D0180FD40C0D3
:1040700030EF23163104E0F58BEF8093020180913D
:104080000A0190910B01A0910C01B0910D01892BB7
:104090008A2B8B2B11F41092020188E087B914B897
:1040A0006696E2E10C947937842D0E94D3044C018A
:1040B00029CEE4B9852D886087B90091150110914A
:1040C00016014ACE58B80E948C0690E296BB81E851
:1040D0008093810077CEC40168E57BE10E941336AE
:1040E000695F285D3F4FD0CEC12CD12C7601DACE4E
:1040F0008CEF80930201CB01BA016B5F7F4F8F4F32
:104100009F4F2AE030E040E050E00E943A36209392
:104110000A0130930B0140930C0150930D01AFCF76
:10412000AEE1B0E0E6E9F0E20C945D37662EB82E21
:10413000860F898320911B01283059F52091750144
:1041400030917601409177015091780157FD15C06B
:104150001091840109C0CA01B9012AE0312D412D15
:10416000512D0E943A361F5F173FACF391F4243172
:1041700060E036074105510518F48FEF9FEF44C109
:10418000173F39F480E028178DE7380741054105CE
:1041900010F020E03DE72C8B3D8B27EDA22EE1EDCA
:1041A000F1E0E60DF11D859188608E87E1EDF1E08B
:1041B000EB0DF11D859188608F87EEECF1E0E60D47
:1041C000F11D7590EEECF1E0EB0DF11DC59090EC5A
:1041D000692AB92A81E0E82EF12C012D112D8E8358
:1041E0001F82188619861A861B861C861D86188EC5
:1041F000198E1B8E1A8E0E94F91788E088B960927A
:104200007C000E9479063F8537B975B874B855E0CF
:104210005A95F1F7000014B815B8DD243E8537B97A
:1042200075B874B860927C00A895A0927A008091CD
:104230007A0086FDFCCF2090780030907900B09213
:104240007C004C2DE5D02091780030917900288BAE
:10425000398B3F8537B9C5B8C4B8A895B0927C00F2
:10426000A0927A0080917A0086FDFCCF6091780060
:104270007091790060927C00472DCAD040917800FF
:104280005091790014B8CB01820D931DE80EF91EF0
:10429000011D111DEA82FB820C831D838889998987
:1042A000840F951F2E813F8168857985280F391FDE
:1042B000611D711D2E833F836887798722E3241750
:1042C000150650F075B874B80E948E0614B815B86B
:1042D000888D8395888F07C0483E73E0570718F094
:1042E0008A8D83958A8F888999892817190660F0A5
:1042F0003E8537B9C5B8C4B80E948E0614B815B843
:10430000898D8395898F07C0883E73E0970718F0E1
:104310008B8D83958B8FD3945D2D5F3F49F05F37F5
:1043200031F45C2D550FC50E572D550F750E76CFF8
:104330004090390150903A01440C551C9201E4E040
:10434000240D351DEA95E1F72901570168016E80BA
:104350007F808884998420911B012830C1F46C8966
:104360007D89812D912D65507040804090409B014A
:10437000AC010E94F8359B01AC0160E779E786E16A
:1043800090E00E943A36621A730A840A950AA614CB
:10439000B704C804D90428F46A187B088C089D085F
:1043A00003C0662477244301B20180E090E09301CA
:1043B000A4010E94F8359501A6010E943A3680E0DA
:1043C00090E07981870F911D0E94F037682EC90116
:1043D00060E170E00E941336260F371FC90168168E
:1043E000190618F4861991090FC08C5E9F4F861527
:1043F000910540F48C899D89843981E1980710F0FA
:104400000E94040C812D912D6E96E2E10C94793777
:10441000109281001092800010926F0010928B0019
:1044200010928A0057E056BB5FEF5093850050937F
:10443000840055E050937B0057EB50937A0051E095
:10444000509381005FE45A95F1F70000000045B9F0
:1044500044B95BE05A95F1F714B815B81092810091
:1044600080917A0084FFFCCF80937A000895B0E0B9
:10447000A0E0EDE3F2E20C945F3700917F01109130
:1044800080010115110509F091C0E0918101F0E072
:10449000EF52FE4FD491D860E0918201F0E0E253F8
:1044A000FE4FC4910E94F91788E088B915B8D7B9B2
:1044B000C4B9809182010E9494067C01D09184014C
:1044C0008CE08D0F843008F071C08091750190915F
:1044D0007601A0917701B0917801D15F2AE0422E58
:1044E000512C612C712CBC01CD016B5F7F4F8F4F24
:1044F0009F4FA30192010E943A3649015A01DA0105
:10450000C901DF5FD73079F7893823E19207A10528
:10451000B10508F04BC0059708F448C0C5B9C4B947
:10452000D0E0C0E0C815D90508F445C014B815B8E6
:10453000A89585E080932C01809182010E949406C9
:10454000EC01CE19DF09E816F90610F0D0E0C0E062
:10455000D12CC12CC814D90490F1809182010E9401
:10456000940629E120932C01A895E816F90618F481
:104570008C010E191F090C171D0788F49E01201BC2
:10458000310B69F0A4EFB1E00E9478369E0150E053
:1045900040E00E943A363093800120937F010E94D0
:1045A000F91788E087B988B914B815B8CDB7DEB760
:1045B000E0E10C947B370E948A062296B3CF0E94DA
:1045C0008A068FEFC81AD80AC5CFA8E0B0E0EBEE94
:1045D000F2E20C945D378BE694E0D2D584E090E073
:1045E0000E94F03721E030E002C0220F331F8A958D
:1045F000E2F73D832C832130310559F06FE080E0F4
:104600000E94F2038FE20E948A038C819D810E94A6
:104610009F0430EF3B8354980E947F0614BC16BC65
:1046200010920F01109210011092110110921201BC
:1046300061E065BB60936E001092800085E294EFAC
:1046400090938B0080938A00E1E0F0E0F093890082
:10465000E0938800109285001092840083B58160F9
:1046600083BDF6E0F6BBF0936F00789424E02093CE
:10467000810032E339831A820E947806A8954F9907
:1046800002C061E06A8385B5882329F08981815061
:1046900089838111F1CF15BC86B580930F010E94EB
:1046A000E4030E943E040E94EB030E943E040E9429
:1046B000630486E60E948A030E94CF0384E090E0B0
:1046C0000E94F037E1E0F0E002C0EE0FFF1F8A9594
:1046D000E2F7FF83EE8320910F01309110014091AA
:1046E000110150911201DF010E948D3647E00E94B6
:1046F0005A06549880918100882319F08FE30E9414
:104700008A031092810010926F0020910F01309166
:1047100010014091110150911201DA01C901019774
:10472000A109B1098336934CA105B10508F09BC0DE
:10473000AAE0B0E00E948D36605F7F4F8F4F9F4FA1
:1047400024E096958795779567952A95D1F7660F1A
:10475000771F709369016093680154980E947F06E7
:1047600016BC10920F0110921001109211011092BC
:10477000120121E025BB20936E0010926B01109274
:104780006A0134E03BBB80916800846080936800DC
:10479000789480916D00806180936D0019820E94F1
:1047A0007806A8954F9902C061E06A8380916D00F8
:1047B00084FF05C089818F5F89838A3F81F715BC9B
:1047C00080916D008F7E80936D00809168008B7F5B
:1047D0008093680086B580930F010E94E40384E50E
:1047E0000E948A030E94CF03E0916801F091690161
:1047F000FD83EC8360910F01709110018091110194
:104800009091120124ED30E340E050E00E949D368B
:10481000EC81FD815F01C12CD12CE12CF12C00E059
:1048200010E00E94F136EE81FF81612C712C430172
:104830005F010E94F136490148875E831B012C010C
:104840002C813D812038310500F107E023E745EF59
:10485000B4018885952F0E94650539813A3F69F535
:104860008FE30E948A0310926E0080ED97E00E9411
:1048700004072A81820F29F43B8131503B83311197
:10488000CACE2896E2E10C94793784E6A82EB12CA2
:10489000C12CD12CE12CF12C00E010E094014885D2
:1048A0005E81C2010E94F136F22FE42F07E023E778
:1048B00047EF6F2F732F8E2FCDCF940148855E81E8
:1048C000B101C201263E354B410551056105710517
:1048D0008105910541F238F20E94EB0386E60E94C1
:1048E0008A030E94CF03940148855E81B101C20111
:1048F00054012115FAEC3F07FAE94F07FBE35F0784
:104900006105710581059105F1F0E8F06A01710119
:10491000820120E030E04AE85DE568E775E483E67F
:1049200091E00E94F136F22FE42F07E028E44AEFED
:104930006F2F732F8E2F952F0E9465058AE70E9497
:104940008A03549890CFC884DE807101820120E0F0
:1049500030E44AE750E163EF7AE580E090E00E94BE
:10496000F136F22FE42F07E028E44DEFE1CF1F925C
:104970000F920FB60F9211248F939F93AF93BF9313
:10498000789480910F0190911001A0911101B09144
:1049900012019F5FAF4FBF4F80930F0190931001A3
:1049A000A0931101B0931201BF91AF919F918F918C
:1049B0000F900FBE0F901F9018951F920F920FB679
:1049C0000F9211248F9386E085BD8F910F900FBEBB
:1049D0000F901F9018951F920F920FB60F921124EF
:1049E000A8951092810015BC0F900FBE0F901F90DC
:1049F00018951F920F920FB60F9211242F933F9389
:104A00008F939F9380916A0190916B01892B11F490
:104A100081E085BD20916A0130916B018091680130
:104A2000909169012817390730F015BC80916D000D
:104A30008F7E80936D0080916A0190916B01019649
:104A400090936B0180936A019F918F913F912F9179
:104A50000F900FBE0F901F9018958B3008F08B5061
:104A6000811109C087ED94E00E941C040E943E045D
:104A70000C94D2030895823019F48BE694E0F4CFBD
:104A8000813019F482E694E0EFCF833019F48EEA96
:104A900094E0EACF843019F483EA94E0E5CF8530DE
:104AA00019F48FE292E0E0CF863019F484E192E0CD
:104AB000DBCF873019F48DE092E0D6CF883019F43F
:104AC00082E994E0D1CF893019F483E894E0CCCF27
:104AD0008A3019F485EC94E0C7CF823439F68AEB3A
:104AE00094E0C2CF0F938FE292E04AD310921B0161
:104AF00060E082E059D380911B01883009F042C008
:104B00000E94DD0383E40E948A030E94CF03609128
:104B1000750170917601809177019091780103E0A1
:104B200026E4409184010E9465050E943E04609144
:104B3000810180918201F4DA90937E0180937D015E
:104B40000E94E4038CEF93E00E941C0480917D019D
:104B500090917E018A3F2FEF920780F422E044EF8C
:104B60006EEF0E9445060E943E0488EE93E00E948C
:104B70000407882309F4BACF0F9108958FE30E94A8
:104B80008A03F1CF0E9463040E94E403ECCF0895EE
:104B9000A4E0B0E0EEECF5E20C945D378EEA94E030
:104BA000EFD280E18093800010926F0081E090E06E
:104BB000909389008093880010928B0010928A0055
:104BC00083E086BB1092820088E08093810015B854
:104BD00091E194B988B989E087B9229A80938100DC
:104BE000BAE03B2E21E02C83812C912C540183943C
:104BF00031E13B838C81632D0E940736A92FB0E001
:104C0000A50194010E948D366B017C015B815231BC
:104C100058F0652D762D872D912FA5010E943A36EB
:104C2000C60ED71EE81EF91E0E94DD038C8183117B
:104C300004C011E09B81923108F410E0212E8CE336
:104C4000111105C02B818EE3263108F082E50E9408
:104C50008A030E94C3034B81C701B6010E945A0612
:104C6000C701B6017C5D8B409F4FA7019601220FC3
:104C7000331F441F551F0E943A36CA014F3F51054A
:104C800009F008F497C08DE08093810080E094E003
:104C90002C01712C612CCA01B901A30192010E945F
:104CA0003A36215031093093890020938800809151
:104CB000880090918900892B31F441E050E05093B5
:104CC0008900409388000E943E040E94E40386E627
:104CD0000E948A030E94C3038091880090918900FA
:104CE0009A83898360E072E18AE790E0A3019201F0
:104CF0000E943A36A4E6B0E00E948D3629813A81BE
:104D00002F5F3F4F50E040E00E943A3629013A01C0
:104D1000A4E6B0E0A70196010E948D36A30192019E
:104D2000261B370B480B590BCA01B90105E228E4D1
:104D30004EEF0E9465058AE70E948A030E943E04A6
:104D400080ED97E00E940407883C08F075C081352B
:104D500008F462C0112309F44DC03B8131503B83FC
:104D6000C501B4012AE030E040E050E00E943A364C
:104D700049015A01C701B6010E943A36CA01B90178
:104D80002AE030E040E050E00E943A36262E9AE0D9
:104D9000392E0AC0FAE03F2E22242394812C912C34
:104DA0005401839441E14B832C825C2C6D2C7E2C2E
:104DB0001F2D20CF4034510530F08CE080938100CE
:104DC00080E091E065CF4830510530F08BE0809372
:104DD000810080E490E05CCF892B31F08AE0809301
:104DE000810088E090E054CF89E08093810081E0E9
:104DF00090E04ECF4B81463168F64F5F4B83463192
:104E000011F485E1382EAAE0B0E0A50194010E94DA
:104E10008D364B015C01C8CF8B3018F05C815F5F31
:104E20005C832C81822F90E0632D70E06F5F7F4F59
:104E30000E942736282EB8CF109281001092800051
:104E400088E087B914B822982496E2E10C94793767
:104E50004F925F926F927F928F929F92AF92BF928A
:104E6000CF92DF92EF92FF92CF93DF9383EA94E0A9
:104E700087D183E28093800010926F008FEF90E0E3
:104E800090938B0080938A0083E086BB109282000F
:104E900015B881E184B988E088B989E087B9229A98
:104EA00021E030E0309389002093880080938100D6
:104EB00090E0C2E3D0E084E6C82ED12CE12CF12CA6
:104EC00088248A9423E0922EA12CB12CC91799F141
:104ED000C43608F0C4562C2F30E0AFEFB3E00E9488
:104EE00078366E5C7F4F8F4F9F4FA70196010E94CF
:104EF0003A3629013A0130938B0020938A000E94B0
:104F0000DD03A8EEB3E0A30192010E948D3661504B
:104F10007E4F8F4F9F4FA50194010E943A36C901E1
:104F200025E045E26FEF0E9445060E943E04D9321B
:104F300010F00E94720680E496E00E940407D82FC9
:104F4000833858F48AE0D33320F48C2FDD2311F01A
:104F500081E08C0F9C2FC82FB9CF88E087B91092C1
:104F600081001092800014B82298DF91CF91FF90B9
:104F7000EF90DF90CF90BF90AF909F908F907F90F9
:104F80006F905F904F9008950F931F93CF9382E996
:104F900094E0F6D085E090E00E94F037C82F0E94A0
:104FA000DD030C2F0C2E000C110BC7FF1DC08DE272
:104FB0000E948A0323E045E26FEF88279927801B30
:104FC000910B0E9445060E943E0480E496E00E94F8
:104FD00004078238A0F4882319F0893250F0CF5F9B
:104FE000C1354CF0C556DBCF23E045E26FEFC80179
:104FF000E8CFC150F5CFCC3E94F6CB59D0CF6C2F33
:1050000085E090E00E94FD37CF911F910F910895A8
:105010000F931F93CF9382E694E0B2D084E090E0A8
:105020000E94F037C82F01E010E00E94DD0323E06A
:1050300040E260E0C8010C2E02C0880F991F0A945C
:10504000E2F70E9445060E943E0480E496E00E943A
:105050000407823878F4882319F0893248F0CF5F4A
:10506000C13820F4CA3008F3C0E0DFCFC9E0DDCF9B
:10507000C150F6CF6C2F84E090E00E94FD37CF91B5
:105080001F910F910895813011F4C2CF089582309D
:1050900019F480E09ACA0895833011F479CD089507
:1050A000843011F4D5CE0895853011F41BCD0895C8
:1050B000863019F40C94391D0895873029F40E9424
:1050C00010040C94E21D0895883011F45DCF08950A
:1050D000893021F481E10C947D0808958A3011F41F
:1050E00072C10895823411F40C94230808950F932B
:1050F0001F93CF93DF9382EE94E042D0C0E00E94F2
:10510000D203D8E28DE30E946406D150D9F782EE33
:1051100094E036D0D9E0DC0F10E001E0010F60E050
:10512000802F0E94F2031230F1F48EE30E948A0372
:1051300085EF8D0FDB3008F48D2F8FDCDF5F102FB4
:10514000053059F790E080E00E940407823370F048
:10515000CC2381F08C2F97DF82EE94E011D0CB30FE
:1051600070F2CB50CCCF0E94C303E2CF8823B9F3B7
:10517000CF5FF5CF80E0DF91CF911F910F91089520
:10518000CF93DF93EC010E941004CE010E941C0417
:10519000C4E60E9479064F9902C0C150D1F70E941F
:1051A000DD03DF91CF910895B0E0A0E0EAEDF8E2F1
:1051B0000C946437182F062F862F90E0FC01EF52D5
:1051C000FE4FD491D860E12FF0E0E253FE4FB4904F
:1051D000FC01E253FE4FC49110927E0110927D01BA
:1051E0001092710110927201109273011092740169
:1051F00087EF809383010E94F91788E088B9D7B9B7
:10520000C4B9C5B9812F0E9494067C01802F0E94E9
:105210009406E81AF90A14B8D0E0C0E030E020E0C3
:105220009CE2C92EDD24D3944AE0A42E54E6952EA8
:10523000B5B8209771F0F601E21BF30BA29EC001F6
:10524000A39E900D1124BE010E941336E617F707A6
:1052500040F5B4B80E94830614B8219615B80E9490
:105260008506A895812F0E9494069C012E193F095E
:10527000CB3186E0D80718F02532310544F02D32C5
:1052800081E038074CF5C43D80E3D80788F288E018
:1052900087B988B914B815B8CDB7DEB7EBE00C9470
:1052A0008037CB30D10590F0929EC001939E900D37
:1052B0001124BE010E9413366E177F0738F4B4B86C
:1052C0000E94780614B8CC59DF4FC8CFB4B80E94FA
:1052D0007E0614B82A96C2CFC130D10521F42531FB
:1052E00085E03807A4F6CC0FDD1FCE01B0E0A0E0CA
:1052F0008093790190937A01A0937B01B0937C0114
:10530000C90168E270E00E942736CB01820F931F2B
:105310000E94711B2091790130917A0140917B01AB
:1053200050917C01DC010E948D366093790170936D
:105330007A0180937B0190937C016093710170935B
:10534000720180937301909374010E948818C09039
:105350007101D0907201E0907301F090740185E0CA
:1053600090E00E94F037A8EEB3E0A81BB10987FDDA
:10537000B395A70196010E94973620E137E240E0FD
:1053800050E00E943A3620937101309372014093AD
:1053900073015093740188E080931B012093750181
:1053A0003093760140937701509378018091830187
:1053B000809384011092800110927F0100938101FB
:1053C0001093820164CFCF92DF92FF920F931F93CD
:1053D000CF93DF930E94100485EA92E00E941C04A0
:1053E0000E94DD0381E692E00E941C0482E090E0CE
:1053F0000E94F03723E040E26EEF90E00E94450605
:1054000083E090E00E94F03723E040E26EEF90E00E
:105410000E94450681E090E00E94F03723E044EFCF
:105420006EEF90E00E9445060E94E4038AE592E058
:105430000E941C0423E044EF6FEF809132019091B1
:1054400033010E9445060E94EB0383E592E00E942F
:105450001C0423E044EF6FEF8091390190913A01F1
:105460000E94450688E99AE30E9404070E941004FE
:105470008FE492E00E941C0487E290E00E94F037E3
:105480008251990B0E94A90488E290E00E94F037B3
:105490008251990B0E94A90484E290E00E94F037A7
:1054A00023E046E464EF8251990B0E9445060E9476
:1054B000DD0383E00E94C60383E290E00E94F037A0
:1054C0008251990B0E94A90486E290E00E94F03775
:1054D0008251990B0E94A90482E290E00E94F03769
:1054E00023E046E464EF8251990B0E9445060E9436
:1054F000E40387EB91E00E941C0489E290E00E94A3
:10550000F8370E9494040E94EB0380EB91E00E9424
:105510001C048BE290E00E94F037082E000C990BDF
:105520000E94940460E08FE00E94F203C0E0FC2E31
:10553000FF0CFC0ED0E0FA94CD17B9F10F2D0D0F32
:1055400010E0000F111FC8018C5E9F4F0E94F837BA
:105550006C01C8018A5F9F4F0E94F8378C018091CF
:105560009F018F30A8F188E99AE30E9404070E9406
:10557000100487E492E00E941C048C2F0E94C00358
:105580008AE30E948A038D2F0E94C00380E00E945C
:10559000440423E040E26EEFC6010E94450623E08A
:1055A00046E462EFC8010E944506DF5FD33021F672
:1055B000CF5FC33009F0BBCF88E99AE30E940407AC
:1055C000DF91CF911F910F91FF90DF90CF900895C1
:1055D00080E00E944404CDCFA0E8B0E0E2EFFAE220
:1055E0000C945E3750908701D0908D01F0908E0121
:1055F000852D90E09C0122533E4F4901452C689433
:1056000046F878E0372EAF2CB12CF501E253FE4F6F
:105610008491F401C490C82A1491110F182B409260
:105620007C006D2C712CF301EF52FE4FE491E86089
:10563000E7B938B815B814B80E947906E12E012FE1
:10564000212F40E4BE016F5F7F4F80E090E10E9418
:105650003400FE01759610E08AE021913191369573
:10566000279536952795121720F48F5F122F8034D7
:10567000A1F7912F969596959695F12FF91B9F2F4F
:10568000E82FF0E0EE0FFF1F21E030E02C0F3D1F70
:10569000E20FF31F803439F48F2DF0908D01FD104F
:1056A0004CC0D82EB0CF21913191369527953695A3
:1056B0002795291708F046C082E080931B01D092FD
:1056C0004E0150924C01F0924D01F501E60DF71D8F
:1056D000EF5AFE4F10826D2D8F2D0E94DF15E09145
:1056E0004E0180914D01E80FFF27FF1FEE0FFF1FB6
:1056F000EE0FFF1FE456FE4F80809180A280B380A2
:105700001352212F30E0A4E6B0E00E9478362B013E
:105710003C019A2D892D782D6627A50194012057EB
:10572000354E4F4F5F4F0E943A36C301B2010E947F
:105730003A3630934B0120934A01C058DF4FE1E1E4
:105740000C947A378F5FA6CF08954F925F926F9235
:105750007F928F929F92AF92BF92CF92DF92EF9201
:10576000FF92AC016C01F12CE12C560199248824A4
:10577000E52FFF279A01DA010E9478362C01662472
:105780007724920165E0369527956A95E1F7E29FC7
:10579000C001E39F900DF29F900D11249A0174E0D7
:1057A000369527957A95E1F7E20FF31FE40FF51F81
:1057B00092013695279536952795B4E056944794EF
:1057C000BA95E1F72419350950E040E02E0F3F1F4C
:1057D000411D511DBC01E3E076956795EA95E1F71F
:1057E000861B970B280F391F411D511DC701B6019C
:1057F0000E94F835680D791D8A1D9B1DFF90EF9062
:10580000DF90CF90BF90AF909F908F907F906F90E0
:105810005F904F900895A1E0B2E0E1E1FCE20C94CA
:105820005D37782E162F642E0E94F917E72DF0E0D1
:10583000E253FE4FF490BF2CBB0CE12FF0E0EF528F
:10584000FE4FE491E860E7B915B8F4B8872D80649D
:1058500080937C000E947906262D2170CF5FDD4F5A
:105860002883C150D240AF2C60FEAB2CF0E2DF2E7B
:1058700090E080E0CF2CEA2C0B2D2A2D47EEBE01C4
:105880006F5F7F4F0E943400DA9480E490E0D11083
:10589000F1CF14B8C12CD12C7601212C312C21014F
:1058A00006E4812CE0E89E2E063B09F401ECA02ED4
:1058B000B12CF501EE0FFF1F81E090E08C0F9D1FD2
:1058C000E80FF91F80819181CF5FDD4F2881C150A2
:1058D000D240222321F09401281B390BC90135DF66
:1058E000280E391E411C511C9501DC010E9478369E
:1058F000C60ED71EE81EF91E0F5F073EA9F6C201AD
:10590000B10126E930E040E050E00E943A36ADE4D3
:10591000B6E50E948D36C61AD70AE80AF90AA70129
:10592000960166E056954795379527956A95D1F784
:105930006CEA77E485E896E80E943A3669017A01D4
:1059400061FC17C0872D880F870D1150810F90E0E3
:10595000880F991FCF5FDD4F3881C150D24033236C
:1059600079F08A5F9F4F0E94F837C81AD90AE10878
:10597000F108C701B601CF5FDD4FE2E10C94793742
:105980008C5E9F4FF0CF4F925F926F927F928F927B
:105990009F92AF92BF92FF920F931F93CF93DF938B
:1059A000C0E0FC2EFF0CFC0ED0E0FA94CD1709F4F9
:1059B0003EC042E06D2F8C2F2EDF2B0143E06D2F78
:1059C0008C2F29DF4B010E94100487E492E00E9493
:1059D0001C040E94C3038C2F0E94C0038AE30E9410
:1059E0008A038D2F0E94C0030E94C3030E94DD031F
:1059F00024E040E26EEFC2010E94450624E046E446
:105A000062EFC4010E9445060F2D0D0F10E0000F3C
:105A1000111FB201C8018C5E9F4F0E940B38B40168
:105A2000C8018A5F9F4F0E940B380E943E04DF5FCF
:105A3000D33009F0BBCFCF5FC33009F0B2CF0E94A3
:105A4000D70389E594E00E941C040E943E040E9452
:105A50007306DF91CF911F910F91FF90BF90AF9090
:105A60009F908F907F906F905F904F900895A2E1EC
:105A7000B0E0EDE3FDE20C945D372C017C836B8399
:105A8000DD24D3942D2C312C33E0D39E90011124AE
:105A90003E872D87F101EE0FFF1FEE0FFF1FFC87E2
:105AA000EB87812C30E4932E50E0712C612C18860A
:105AB0001F82B12CA12C1A8219821E821D8240E005
:105AC000C12CF0E0E0E030E020E061E070E08FEF3A
:105AD00090E082199309988B8F870C2D10E08F85A9
:105AE00098890817190774F1AB81BC81AB2B29F198
:105AF00070E060E04230E8F09501ED81FE812E1B00
:105B00003F0BA8EEB3E00E947836E981FA81AE1A25
:105B1000BF0A950150E040E00E943A3688EE93E0DB
:105B2000821B930B0E94B607BC0188EB9AE70E9488
:105B30001336AB81BC816D937C93C4016296E2E124
:105B40000C947937D801A20DB31DAA0FBB1FA40D69
:105B5000B51D8D919C91E80FF91FD801AA0FBB1FAD
:105B6000A40DB51D8D919C91280F391FCD1408F4FB
:105B70008AC0D801A219B309AA0FBB1FA40DB51D75
:105B80000D90BC91A02D2A1B3B0BE81BF90B790152
:105B9000EE0EFF1EC9018E1B9F0B89879A87D701C6
:105BA000B695A795B695A795A80FB91FB7FD76C06E
:105BB000E217F30708F069C0513009F066C0D80158
:105BC00056E0AA0FBB1F5A95E1F7BA8BA98BDC01EF
:105BD000A61BB70BBD01A817B90770F0A6E0880F88
:105BE000991FAA95E1F780960E94133689899A89B0
:105BF000861B970B9A8B898BAD85BE85EA16FB06B3
:105C000008F472CF8B859C8508171907BCF14423D3
:105C1000B1F069897A8966197709433050F0D40167
:105C20009096C401969587958A0F9B1F86179707B4
:105C3000D0F1D71650F4DD24D394D70E23CFA98901
:105C4000BA89B887AF83FE82ED82AE0CBF1C4F5F6E
:105C50004130F9F0842F8150990BBC0195958795BF
:105C6000A989BA898A0F9B1FAF81B8858A1B9B0BB4
:105C7000DAD74B0169887A88FA82E982453108F0DF
:105C800033CF50E002C069877A87C39469857A85EB
:105C900024CF69887A88FA82E982F3CF51E0E2174B
:105CA000F30798F78CCFEB81FC81EF2B09F024CF21
:105CB00044CFA6E2B2E0EFE5FEE20C946137F82EA5
:105CC000B62E8CE290E00E94F8374C01EB2DF0E00C
:105CD000E253FE4F1491EF2DF0E0EF52FE4FE491AE
:105CE0001092AC011092AD011092AE011092AF0172
:105CF0001092B3011092B2011092B4011092B5014A
:105D00001092B6011092B70180911B01813009F009
:105D1000CFC08091020118160CF4CAC088E088B97F
:105D2000E860E7B90E9484062B2D206CB22E2093E8
:105D30007C000E947906C12EE12C00E0212F4FEF5C
:105D4000BE016F5F7F4F80E191E00E9434003F2DE4
:105D5000306CF32E30937C00212F44E1BE01615062
:105D60007E4F80E191E00E943400FE013196BE0139
:105D700061507E4F6B01AE01475D5F4F8191919104
:105D8000D6016D917D916D019F01225031098617D9
:105D9000970708F492C0861B970BD9018D939C93AB
:105DA000E417F50759F7B0927C0070E060E0CE018F
:105DB00001965DDE9F5FE0E1AE2EBB24B394712CB3
:105DC000612C913178F0F0E1AF2EF4E0BF2EA2E02B
:105DD0006A2E712C903430F060E1A62EBA2C74E05B
:105DE000672E712C58E0D52EA895C12EE12C00E02D
:105DF000212F4FEFBE016F5F7F4FC5010E9434001E
:105E00006114710409F45FC062EB71E0CE01019688
:105E10002EDE5C01813C9F4308F0AFC06501F12C90
:105E2000E12C9501D50164D723E330E040E050E058
:105E300021D7A8E6B2E071D796948794940150E0F8
:105E400040E018D7C301880F991F04C0220F331FE9
:105E5000441F551F8A95D2F72093B4013093B501A2
:105E60004093B6015093B70180910A0190910B01C4
:105E7000A0910C01B0910D010397A105B10540F06F
:105E80001092B4011092B5011092B6011092B701B0
:105E9000A114B10409F074C01092B3011092B201C0
:105EA0001092B4011092B5011092B6011092B70190
:105EB000CA5DDD4FEEE00C947D37D9011D921C9236
:105EC0006FCF5C0191CFC5018064DA94D110F9CF16
:105ED00081159440C8F08EEF8F3F09F495CFE82FDD
:105EE000F0E0EE0FFF1F21E030E02C0F3D1FE20F2E
:105EF000F31F2081318193E0369527959A95E1F73C
:105F0000318320838150E8CFF0927C00E894A6F89A
:105F100048E0F42EC12EE12C00E0212F44E1BE0127
:105F200061507E4FC5010E9434006894A6F8FA942F
:105F3000F110F0CF24E1215070F2822F90E0880F11
:105F4000991FE1E0F0E0EC0FFD1FE80FF91F408121
:105F500051816FEF71E06C0F7D1F860F971FDC0181
:105F60008D919C914817590728F0481B590B518374
:105F70004083E1CF11821082DECFB12CA12C4ECF15
:105F800027E030E02619370960E074E284EF90E002
:105F900004C0660F771F881F991F2A95D2F7A701A3
:105FA0009601220F331F441F551F64D62093AC0166
:105FB0003093AD014093AE015093AF018091020147
:105FC00087FD76CF8FEF8093020172CFCF93DF935F
:105FD000D82F0E94D70380EA91E00E941C040E94FF
:105FE0003E04C0E01092B1011092B0010E9474060C
:105FF00062E080E00E94C8180E94DD0324E046E4CD
:1060000064EF8091B0019091B1010E9445066091CA
:10601000B0017091B101CB018C539F4085399547F8
:1060200098F4CF5FC53088F08CE290E0F4D70E94FE
:10603000C30389E594E00E941C040E9470060E943C
:10604000D703DF91CF910895C0E00E943E04DF5F47
:1060500049F6F5CFB0E0A0E0EFE2F0E32EC780E430
:106060008AB98BB987E880937A001092C1000E94A8
:106070007006C4B7C87084B7877F84BF0FB6F89422
:10608000A895809160008861809360001092600004
:106090000FBE78940E940104C1119AC580E185BFAA
:1060A00053DB10922D010E94A01B48E0642E50E1AA
:1060B000452E68E1562E78E5C72E71E0D72EE3E332
:1060C0002E2EF1E23F2E0E94100467B80E940008B5
:1060D0000E94A01B0E94D70385EA92E00E941C0444
:1060E00080913B01882379F00E94DD0381E094E0F8
:1060F0000E941C0463E080913001909131010E9464
:1061000050060E946F060E94F91780911B0189308A
:1061100059F50E94100486E094E00E941C040E943D
:10612000DD0363E080910401909105010E94500617
:106130000E94C30363E080910601909107010E94D1
:1061400050060E94C30363E0809108019091090109
:106150000E9450060E946E0681E10E947D08809197
:1061600013019091140104C28CE00E94000485E2A6
:1061700090E036D7C82F82E290E032D7C81BC09398
:106180003801CC2319F08EE00E94000480E00E94C8
:106190007D080E9463048BE695E00E941C0483E066
:1061A0000E9464060E94D20342E061E080E00E9407
:1061B0008B0C42E060E081E00E948B0C41E062E0E9
:1061C00080E00E948B0C41E060E082E00E948B0C3A
:1061D00040E062E081E00E948B0C40E061E082E000
:1061E0000E948B0C80911B0181111AC083E40E94D4
:1061F0008A030E94F91760E082E00E94C8188BE4CD
:106200000E948A0361E082E00E94C8188BE40E9429
:106210008A0360E081E00E94C8188BE40E948A0330
:1062200080911B01833059F480911901823039F437
:106230009091870180918801981301C0CDD90E9467
:106240005F0420E431E030933E0120933D018091D2
:106250001B018630D9F482E495E00E941C0441E4DD
:1062600067E483E40E94AC040E94DD038AE194E0C9
:106270000E941C04E0913D01F0913E0162E08481A6
:1062800095810E9450060E94D20369CF873041F465
:106290008BE495E00E941C0442E367E481E3E2CFD3
:1062A0008A3061F48CE991E00E941C04D0923E0196
:1062B000C0923D0143E467E481E4D4CF823009F029
:1062C00040C088E991E00E941C0442E365E481E358
:1062D0000E94AC0480E00E94440460914E018091D1
:1062E0004D01E62FF0E0EE5AFE4FE80FF11D319719
:1062F00010820E94DF15E0914E0180914D01E80F60
:10630000FF27FF1FEE0FFF1FEE0FFF1FE456FE4F8C
:10631000608171818281938102E024EF4FEF0E94BE
:10632000650582E991E00E941C0460914A01709128
:106330004B0190E080E003E025E240E00E9465052B
:106340000ECF8830D9F48091810190918201890F1C
:106350009927991F029771F40E94E21D8CE00E9418
:10636000000480913801882309F4ADCED0E110E01B
:1063700000E008C480E00E946B1DF1CE833009F07C
:1063800004C180911901813009F069C080E00E9448
:1063900039056091870180918D010E94160C80E77C
:1063A0000E94110540E06091870180918D0133DAF0
:1063B00060937101709372018093730190937401E3
:1063C00080E00E945C046091710170917201809183
:1063D00073019091740102E026E442EF0E9465058A
:1063E0008DE20E948A0341E06091870180918D01D6
:1063F00012DA60937101709372018093730190932C
:10640000740126E442EF0E9465058CEC92E00E9444
:106410001C040E94D2030E94D20380916E01882343
:1064200009F49DCE57B867B880E00E945C043091B3
:106430006E01332309F46AC380915501313009F0AC
:1064400001C30E94D30420915501213009F0F5C207
:10645000209119012111F1C20E94391D7FCF823094
:1064600079F582E30E948A038DEB92E00E941C047E
:106470009091870130918801931308C080E00E94B9
:10648000550581E00E944C0581E08ACF20918D0165
:1064900080918E01281307C080E00E94450581E0AD
:1064A0000E945C05F1CF321306C081E080930E019B
:1064B0000E942705B0CF98133DC040920E01F8CF3F
:1064C0008330C1F520920E0180918D019091880159
:1064D000891303C021E020930E0140918701309180
:1064E0008E01431302C040920E0120918901821354
:1064F00003C082E080930E0180918F01481303C096
:1065000040E240930E0132130DC022E120930E01B0
:10651000981751F083E30E948A038DEB92E00E946A
:106520001C04C6CF981302C030920E0180910E0158
:10653000823280F381E595E00E941C0489E395E0B6
:106540000E941C040E94DD0380911901805D0E945D
:106550008A038AE20E948A0387ED92E00E941C046B
:106560008FE195E00E941C040E94D20380E49FE129
:1065700057B84F9BFECF0E940407823308F4D3C262
:106580000E9477288111FCCF9ECD843009F04EC146
:1065900080916701882309F45DC080914F018823B1
:1065A00009F458C060914C0180914E010E94C818B6
:1065B0008090710190907201A0907301B09074016D
:1065C000C091830160916601809164010E94C818A6
:1065D0008091400190914101A0914201B09143010D
:1065E000409158015091590160915A0170915B019D
:1065F000843F31E09307A105B10538F4443F21E021
:1066000052076105710508F0C0EF443F5140610534
:10661000710540F4843F9140A105B10518F030EFB9
:1066200030938301809183018C130FC0809171019D
:1066300090917201A0917301B0917401881699062E
:10664000AA06BB0620F08CE003C0C817E4F78DE073
:1066500080931A0180916701882361F080914F0136
:10666000882341F04F9906C080911A0191E0892753
:1066700080931A0180911A018C30F9F48DE294E034
:106680000E941C0480916701882319F080E70E9412
:106690008A030E94C3030E94DB07C82F853048F598
:1066A00080911A018C30B9F481E020914D019091D4
:1066B0004E019217B8F080E015C0D0923E01C09212
:1066C0003D0189E294E00E941C0480914F018823DF
:1066D00001F38EE6DCCF81E02091650190916601A7
:1066E000291748F7882309F49AC087ED92E00E94A1
:1066F0001C0443E462E485E40E94AC040E94DD03D0
:1067000088E394E00E941C04E0913D01F0913E0179
:10671000608171818281938103E020E04EEF0E94CD
:1067200065050E94C30389E40E948A03E0913D014C
:10673000F0913E01868197818031974208F472C0C2
:1067400085E60E948A03E0913D01F0913E01868139
:10675000978180519742978386830E94CF03E0916F
:106760003D01F0913E0122E041E46AEF868197818C
:106770000E94450680E00E945C048EE194E00E9445
:106780001C04E0913D01F0913E0163E0848195811C
:106790000E945006E0913D01F0913E018085918577
:1067A000892B91F080E00E945C048FE992E00E94C6
:1067B0001C04E0913D01F0913E0123E041E46AEFC9
:1067C000808591850E944506E0913D01F0913E0152
:1067D00082859385892B91F080E00E945C0489E991
:1067E00092E00E941C04E0913D01F0913E0123E003
:1067F00041E46AEF828593850E944506C53008F022
:10680000AECC80E00E945C048C2F0E9439058AE1A6
:1068100094E00E941C048C2F0E94030534CD83ED6C
:1068200092E065CF83E60E948A0397CF853009F016
:10683000FECD80911A0184FF51C080E50E948A0339
:10684000D0923E01C0923D018DE20E948A03809168
:106850001A01C82FCF70C43009F044C083E494E01B
:106860000E941C044FE367E48FE30E94AC04809114
:106870001A0185FD50C00E94DD03E0913D01F091B9
:106880003E01668584850E94C8180E94680485E1DF
:1068900094E00E941C04E0913D01F0913E0162E011
:1068A000828593850E94500680E00E9480040E94A9
:1068B000EB038EE30E948A038CE70E948A030E9406
:1068C000C3038091190123E040E260E090E00E9460
:1068D0004506C43009F443CCC0E0AAC08EE40E944F
:1068E0008A03B2CF85FF0DC084E40E948A03C330BF
:1068F00051F48DE394E00E941C0443E467E485E4D2
:10690000B4CF85E4F2CF88E494E00E941C0444E410
:1069100067E483E5AACF8F70843009F458C080E023
:106920000E944404E0913D01F0913E01668584851A
:106930000E94C8180E94680480E00E945C0489E4F8
:106940000E948A0384E60E948A030E94CF03E0919A
:106950003D01F0913E0122E041E46AEF868197819A
:106960000E94450680E194E00E941C04E0913D01F4
:10697000F0913E0162E0828593850E945006E0918D
:106980003D01F0913E0180859185803C924108F067
:106990008BCF80E00E945C0489E40E948A0384E635
:1069A0000E948A030E94CF0322E041E46BEF90E053
:1069B00080E00E94450680E194E00E941C04E09182
:1069C0003D01F0913E0162E0808591856BCFE091C1
:1069D0003D01F0913E0184819581892B09F4ACCF72
:1069E00080E00E9444048CE891E00E941C04E09145
:1069F0003D01F0913E0122E041E46AEF84819581FE
:106A00000E94450699CFC11103C080E00E94440452
:106A100080E00E945C048C2F0E9439058AE194E09A
:106A20000E941C048C2F0E9403050E94D203CF5F9A
:106A300080911901C81738F392CB40E0692F0E946A
:106A4000711C8DCB9091560124E0929FD0011124AE
:106A5000A056BE4F24E0829FF0011124E056FE4F65
:106A6000ED90FD900D911C91408151816281738167
:106A7000282F4E155F056007710708F4292F980F1E
:106A8000C3E0C91B3230E1F0C091570134E0C39F2D
:106A9000D0011124A056BE4F84E0289FF00111249C
:106AA000E056FE4F4D915D916D917C918081918179
:106AB000A281B38184179507A607B70708F0C22FF4
:106AC0001C2F1695D2E0DC1B02E0C11101C001E0D1
:106AD000812F0E94C00388EB92E00E941C048D2F3E
:106AE0000E94C00388EB92E00E941C04802F0E9449
:106AF000C00380E00E94440481E0C11180E00E9454
:106B0000DD0482E0811B0E94DD0429CB89E295E04F
:106B10000E941C040E94DD0386E595E00E941C048F
:106B200081E595E01FCD8111CECA18CCF501E80FA3
:106B3000F91FC491C03209F4782E0196893291056B
:106B4000A9F7DD2341F19D2F9F70F92E11F40E94CA
:106B5000100460E08F2D0E94F2030E94D203A895DA
:106B6000DF5FDF70F12CE12CE71400F1CC23C9F0DA
:106B7000070D111DF801E552FD4FE491E03211F4CB
:106B80000F5F1F4F90E080E028E2722E980125529F
:106B90003D4F5901CBCF80E197E20E940407882343
:106BA00091F280E197E20E9404078DCAF501EE0D93
:106BB000FF1DC491CC23A9F3CF3F31F40E94C3033E
:106BC0002FEFE21AF20AD0CF8C2F0E948A03F8CF5F
:106BD0000E94D70386E195E00E941C040E946D0686
:106BE0000E94230890E080E0CDB7DEB7E2E181C1EA
:106BF000DB018F939F9391D0BF91AF91A29F800DA6
:106C0000911DA39F900DB29F900D11240895991B83
:106C100079E004C0991F961708F0961B881F7A9593
:106C2000C9F780950895AA1BBB1B51E107C0AA1F95
:106C3000BB1FA617B70710F0A61BB70B881F991F1D
:106C40005A95A9F780959095BC01CD01089597FBC1
:106C5000072E16F4009406D077FD08D0E4DF07FC79
:106C600005D03EF4909581959F4F0895709561955C
:106C70007F4F0895A1E21A2EAA1BBB1BFD010DC078
:106C8000AA1FBB1FEE1FFF1FA217B307E407F507DC
:106C900020F0A21BB30BE40BF50B661F771F881FB8
:106CA000991F1A9469F760957095809590959B014E
:106CB000AC01BD01CF010895052E97FB16F4009499
:106CC0000FD057FD05D0D6DF07FC02D046F408C030
:106CD00050954095309521953F4F4F4F5F4F089508
:106CE00090958095709561957F4F8F4F9F4F089538
:106CF000A29FB001B39FC001A39F700D811D1124FD
:106D0000911DB29F700D811D1124911D0895F0DF1A
:106D1000B7FF0895821B930B0895EADFA59F900D9E
:106D2000B49F900DA49F800D911D11240895B7FF6D
:106D3000F4CFF3DF821B930B0895E894DF93CF9396
:106D4000FC01DB01D5DF7F936F93E9019A01AC0170
:106D5000BF93AF933F932F93DF01CADF26F46C1BE1
:106D60007D0B820B930B9E01EB01FC01DDD0AF91FB
:106D7000BF912F913F91D8D0BE01CF01F9012F9142
:106D80003F91CF91DF910895689401C0E894F92F65
:106D9000F12B0AF027C0A0E0B0E0E0EDF6E393C0ED
:106DA000092E05941AF479D0112392F4F0E80F26F5
:106DB000FFEFE094F09400951095B094C094D094B7
:106DC000A194BF0ACF0ADF0AEF0AFF0A0F0B1F0BBD
:106DD00013D007FC62D0CDB7DEB7ECE090C068946A
:106DE00001C0E8948F929F92CF93DF9305D0DF91FB
:106DF000CF919F908F90089588249924F401E40105
:106E0000B0E49F93AA279A158B049C04ED05FE0518
:106E1000CF05D007A10798F4AD2FDC2FCF2FFE2F81
:106E2000E92D982C892E982F872F762F652F542F98
:106E3000432F322F2227B85031F7BF9127C01B2E86
:106E4000BF91BB27220F331F441F551F661F771F9B
:106E5000881F991F881C991CEE1FFF1FCC1FDD1F68
:106E6000AA1FBB1F8A149B04EC05FD05CE05DF0598
:106E7000A007B10748F08A189B08EC09FD09CE0964
:106E8000DF09A00BB10B21601A94E1F62EF49401F6
:106E9000AF01BE01CD01000C0895609570958095FD
:106EA000909530954095509521953F4F4F4F5F4FAE
:106EB0006F4F7F4F8F4F9F4F08952F923F924F926A
:106EC0005F926F927F928F929F92AF92BF92CF927A
:106ED000DF92EF92FF920F931F93CF93DF93CDB783
:106EE000DEB7CA1BDB0B0FB6F894DEBF0FBECDBFFB
:106EF00009942A88398848885F846E847D848C84CC
:106F00009B84AA84B984C884DF80EE80FD800C81D4
:106F10001B81AA81B981CE0FD11D0FB6F894DEBFB7
:106F20000FBECDBFED010895E3DE460F571FC81F0A
:106F3000D91F08F431960895BB27FA01A62F6217CE
:106F4000710581059105330B30FB66F0AA27660FAA
:106F5000771F881F991FAA1FA21710F0A21B639505
:106F60003850A9F7A05DAA3308F0A95DA19336F7C0
:106F7000B111B1931082CA0123C04532510518F4F2
:106F8000423008F004C0FB011082CB010895BB27FA
:106F9000FB015527AA27880F991FAA1FA41710F0D5
:106FA000A41B83955051B9F7A05DAA3308F0A95DE1
:106FB000A193009779F7B111B1931192CB0100C061
:106FC000DC01FC01672F71917723E1F7329704C050
:106FD0007C916D9370836291AE17BF07C8F30895DB
:106FE000F999FECF92BD81BDF89A992780B5089591
:106FF000A8E1B0E042E050E013C0262FF999FECF9F
:107000001FBA92BD81BD20BD0FB6F894FA9AF99AC5
:107010000FBE01960895F1DF272FF0CFDC01CB01E1
:10702000FC01F999FECF06C0F2BDE1BDF89A319698
:1070300000B40D9241505040B8F70895F894FFCF36
:00000001FF
