:10000000ADC0BCC0BBC0BAC0B9C0B8C0B7C0B6C034
:10001000B5C0B4C0B3C0B2C0B1C0B0C0AFC0AEC054
:10002000ADC0ACC0ABC054657374206CE175667430
:100030002E2E2E0042617474657269652000736310
:100040006877616368006C65657221004B65696E55
:100050002C756E62656B2E206F6465720064656638
:10006000656B74657320004261757465696C00206E
:10007000756E62656B2E0044696F64653A200044BA
:100080006F7070656C64696F64652000322044692C
:100090006F64656E00616E7469706172616C6C652D
:1000A0006C00696E20536572696520413D003B4BD1
:1000B000313D003B4B323D0047414B3D003B4B3D0A
:1000C000004B3D0054726961630054687972697332
:1000D000746F72006F64657220646566656B74206E
:1000E0000057696465727374616E643A20004B6FE7
:1000F0006E64656E7361746F723A20002D4D4F53BC
:10010000002D45002D44002D4A464554003B413109
:100110003D003B41323D00302C0020433D0068460D
:10012000453D004E504E00504E500020423D003B99
:10013000433D003B453D004744533D0055663D006F
:1001400056743D006D5600413D00473D004341005F
:1001500043430054696D656F7574210011241FBEFF
:10016000CFE5D4E0DEBFCDBF10E0A0E6B0E001C037
:100170001D92A63BB107E1F73AD8B9CD41CF959A88
:1001800083E08A95F1F7000095980895DF93CF9367
:100190000F92CDB7DEB722B3982F92959F70207F34
:1001A000922B92BB00C000C000008983E8DF92B3AD
:1001B00089818F70907F892B82BB00C000C00000B6
:1001C000DEDF84E18A95F1F782B3807F82BB0F90F6
:1001D000CF91DF9108951F93182F949AD7DF113E86
:1001E00061F0123E18F4112331F00BC0143E39F0C7
:1001F000143F39F408C083E205C084EE03C085EBE8
:1002000001C0812F91DC1F9108958DE08DDC8AE083
:100210008BDC08951F93182F9498B8DF103811F0D5
:10022000103C09F4F2DF1F91089581E0F3DF81EEC5
:1002300094E00197F1F700C00000E7DF089581B373
:100240008F6381BB8BE49DE10197F1F700C0000053
:1002500082B3807E836082BB92DF81EE94E001975F
:10026000F1F700C000008BDF89EF90E00197F1F714
:1002700000C0000084DF89EF90E00197F1F700C033
:10028000000082B3807E826082BB89EF90E001979C
:10029000F1F700C0000073DF89EF90E00197F1F7FC
:1002A00000C0000088E2B6DF8CE0B4DF86E0B2DF99
:1002B000BCDF0895EF92FF92CF93DF93E82EE70122
:1002C0007E01F92EE70101C086DF89918823E1F7DD
:1002D000DF91CF91FF90EF900895CF93DF93EC01E2
:1002E000FE018491882329F0803819F074DF21966B
:1002F000F7CFDF91CF9108950F931F93CF93DF93A3
:100300008C01C0E0D0E0C8018C0F9D1FD8DC63DFFA
:100310002196C830D105B9F7DF91CF911F910F9188
:100320000895806487B944E180E090E0369A369978
:10033000FECF24B135B1820F931F4150B9F764E16C
:1003400070E031DCCB010895880F662359F098B333
:1003500021E030E0082E02C0220F331F0A94E2F79A
:10036000922B98BB97B321E030E002C0220F331FDD
:100370008A95E2F7922B97BB83EC99E00197F1F70E
:1003800000C0000087B32095822387BB662319F045
:1003900088B3822388BB08958F929F92BF92CF9299
:1003A000DF92EF92FF920F931F93DF93CF930F9201
:1003B000CDB7DEB7182F062F80916400873009F47F
:1003C000B7C1212F30E0220F331F82E090E0022ED0
:1003D00002C0880F991F0A94E2F78093740041E0ED
:1003E00050E0BA0102C0660F771F2A95E2F7B62ED9
:1003F0006093660028E025BB18BA17BA002E02C029
:10040000440F551F0A94E2F7E8E0FE2EF42AF4BAEE
:1004100087BB81EE94E00197F1F700C00000812FC7
:1004200080DF9093810080938000812F61E08CDFDA
:10043000812F77DF9093850080938400E1EEF4E0D4
:100440003197F1F700C00000812F6BDF909383009C
:1004500080938200A89520918000309181002F5FC9
:100460003F4F2817390740F0809184009091850014
:100470002817390708F05CC18091660087BB20E02F
:10048000882499240AC0A8950894811C911C811481
:10049000910419F42F5F2E3159F0812F298341DF08
:1004A0006C01802F3EDF0A9629818C159D0558F33B
:1004B0008091660088BB81EE94E00197F1F700C05F
:1004C0000000812F2EDF9093850080938400EFE160
:1004D000FEE43197F1F700C00000812F22DF9093F6
:1004E00087008093860020918400309185002D5FE5
:1004F0003F4F8217930728F4F3E082359F0708F4F3
:1005000017C120916200222349F023E0873B920724
:1005100028F080916400833009F00AC118BA20E005
:10052000882499240AC0A8950894811C911C8114E0
:10053000910419F42F5F2E3159F0812F2983F1DEB8
:100540006C01802FEEDE0A9629818C159D0558F3EB
:100550008FE084BB8091660088BB81E090E0012E33
:1005600002C0880F991F0A94E2F780936600E3EFB8
:10057000F1E03197F1F700C00000F4BA60E020E04C
:1005800030E008C0A8952F5F3F4F21F46F5F6E31B8
:1005900009F454C093B39823A9F3E62E662309F017
:1005A0004DC02F3F310511F008F048C0F4BA18BA19
:1005B00020E0882499240AC0A8950894811C911CE5
:1005C0008114910419F42F5F2E3159F0812F298362
:1005D000A8DE6C01802FA5DE0A9629818C159D0569
:1005E00058F38FE084BB88E085BB8091740087BBA3
:1005F00088BB83EF91E00197F1F700C00000809184
:100600006400833059F4809166008095877088601B
:1006100084BB9091660020E030E00AC0F4BAF9CFC4
:10062000A8952F5F3F4F21F4E394EE2DEE31E9F0D2
:1006300083B38923A9F3EE20A1F017C088EE93E0DD
:10064000A0E0B0E08093670090936800A0936900F9
:10065000B0936A007BE1C72E71E0D72EE12CF12C1C
:1006600017C02530310508F463C081E090E0A0E0B8
:10067000B0E08093670090936800A0936900B09306
:100680006A006E2D5AE8C52E51E0D52EE12CF12CD2
:1006900070E080E090E0CB017727662740E050E0F3
:1006A000620F731F841F951FA70196015DDA24E670
:1006B00030E040E050E08BDA6091670070916800B4
:1006C0008091690090916A004FDA6093670070939F
:1006D00068008093690090936A0087E080936400CB
:1006E0001093960000936500B7BA18BA20E0EE2484
:1006F000FF240AC0A8950894E11CF11CE114F10440
:1007000019F42F5F2E3159F0812F29830ADE6C01F5
:10071000802F07DE0A9629818C159D0558F38FE0FE
:1007200084BB85BB83EC99E00197F1F700C0000022
:1007300088E084BB85BB17BA18BA0F90CF91DF91C0
:100740001F910F91FF90EF90DF90CF90BF909F90FF
:100750008F9008952F923F924F925F926F927F9267
:100760008F929F92BF92CF92DF92EF92FF920F9360
:100770001F93DF93CF9300D000D000D0CDB7DEB76A
:10078000182F062F842EA895262F220F81E090E0A7
:10079000AC0102C0440F551F2A95E2F7C42E47BB97
:1007A00018BA612F70E07A836983FC01012E02C0C0
:1007B000EE0FFF1F0A94E2F7FC83EB83BB80F8E0A7
:1007C000BF2AB4BAB5BA81EE94E00197F1F700C040
:1007D0000000882D60E0B8DD802FA3DD9E838D832F
:1007E000883C910538F0882D61E0AEDD802F99DDE1
:1007F0009E838D83ED81FE81E431F10508F4AEC066
:1008000027B3382D330F82E090E002C0880F991F84
:100810003A95E2F7682E282B27BB87E893E10197EA
:10082000F1F700C00000802F7CDD7C0188B38629B1
:1008300088BBE7E8F3E13197F1F700C00000802FB3
:1008400070DD97012C593F4F28173907B0F588E024
:1008500085BB81E090E09C01002E02C0220F331F77
:100860000A94E2F7286024BB27B3312F330F02C06C
:10087000880F991F3A95E2F7282B27BB98B3982B3E
:1008800098BB87E893E10197F1F700C00000882D3D
:1008900048DDE3E081329E0720F083E0809364002E
:1008A00004C083E08093640085E0809363008092BD
:1008B000600010937F0000939B0088E085BB81E07F
:1008C00090E09C01002E02C0220F331F0A94E2F731
:1008D000286024BB27B3E12EEE0CAC0102C0440F0C
:1008E000551FEA94E2F77A01242B27BB88B3842BA7
:1008F00088BB87E893E10197F1F700C00000812FE2
:1009000010DD3C01E8BAE7E8F3E13197F1F700C008
:100910000000812F06DD8C599F4F86159705F0F456
:10092000B5BAB4BA87E893E10197F1F700C00000C7
:10093000882DF7DC883C910528F483E080936400DF
:1009400084E004C083E08093640086E080936300C9
:100950008092600000937F0010939B00C7BA18BA82
:10096000B4BAB5BAE1EEF4E03197F1F700C0000097
:100970002D813E81283C310508F0EFC1682C660CC2
:1009800087B361E0E62EF12C2701062C02C0440C4F
:10099000551C0A94E2F7842987BB83EF91E0019705
:1009A000F1F700C00000802FBCDCE2E08D3B9E0729
:1009B00008F490C0C7BA87B3962D9F5F02C0EE0CB3
:1009C000FF1C9A95E2F78E2987BB83EC99E001978B
:1009D000F1F700C00000802FA4DC7C01882DA1DC91
:1009E00040916400242F2250223018F421E02093FB
:1009F00061002091610030E0220F331FF901E956B8
:100A0000FF4FF182E08228573F4FF90191838083A5
:100A1000453009F45FC0893C910530F082E0809355
:100A200064008093630050C02D813E8124313105E4
:100A300008F04AC083E08093640082E08093630002
:100A400081E090E0002E02C0880F991F0A94E2F71F
:100A5000C82EE7B2882D806487B910929500109255
:100A60009400109260001FC0A895882D61E06CDC96
:100A700083B38C21E9F317BA369A3699FECF24B1A5
:100A800035B1809194009091950081509C4F821BCC
:100A9000930B9093950080939400E7BA8091600047
:100AA0008F5F80936000809160008D30E8F220912C
:100AB000940030919500C901880F991F820F931FF0
:100AC00090939500809394008092600000937F0043
:100AD00010939B0088E085BBE12EEE0C81E090E056
:100AE000AC0102C0440F551FEA94E2F77A01242DAD
:100AF000242B27BB28BB002E02C0880F991F0A9405
:100B0000E2F7A8E02A2E282A24BA83EC99E001977C
:100B1000F1F700C00000812F04DCE1E0843F9E0774
:100B200008F017C180916100813009F408C3E8BA68
:100B300083EC99E00197F1F700C00000E7BAE1EE1D
:100B4000F4E03197F1F700C00000812FEADB6C017F
:100B500018BA81EE94E00197F1F700C00000E8BAFE
:100B6000E1EEF4E03197F1F700C00000812FD9DB0E
:100B7000F4EFCF16F1E0DF0608F05BC023E0853824
:100B8000920708F456C085E08093640017BA18BA3B
:100B900025BA81EE94E00197F1F700C00000E7BAB2
:100BA000E1EEF4E03197F1F700C00000812FB9DBEE
:100BB0008333910508F0C7C087B3842987BB81EED2
:100BC00094E00197F1F700C00000882DAADB883C73
:100BD000910508F4B8C0812FA4DB8639910508F48B
:100BE000B2C0E7BAE1EEF4E03197F1F700C00000DF
:100BF000812F97DB8639910508F4A5C0E8BA81EE0C
:100C000094E00197F1F700C0000018BAE1EEF4E0BB
:100C10003197F1F700C00000812F83DB833391050A
:100C200008F091C084E08093640081E080936100CB
:100C30008AC027B3639481E090E002C0880F991FB7
:100C40006A94E2F7282B27BB98B3982B98BB83EDC7
:100C500090E30197F1F700C00000812F62DB7C0177
:100C6000882D5FDB209164002250223018F421E0AF
:100C7000209361002091610030E0220F331FF901C1
:100C8000E956FF4F4FEF53E0BA016E197F097183A8
:100C9000608328573F4F481B590BF901518340830C
:100CA000F1E0843F9F0738F482E08093640081E0A4
:100CB0008093630048C02D813E812431310508F0C6
:100CC00042C083E08093640081E080936300E7B2D8
:100CD000CB80882D806487B9109295001092940083
:100CE000109260001FC0A895882D60E02DDB83B3B3
:100CF0008C21E9F717BA18BA369A3699FECF24B183
:100D000035B18091940090919500820F931F90933C
:100D1000950080939400E7BAE8BA809160008F5FF5
:100D200080936000809160008D30E8F22091940003
:100D300030919500C901880F991F820F931F9093DE
:100D40009500809394008092600010937F00009340
:100D50009B0088E084BB85BBD9C0E980FA80EE0C9B
:100D6000FF1C62E0C62ED12C0E2C02C0CC0CDD1C68
:100D70000A94E2F781E090E0AC0102C0440F551FF5
:100D8000EA94E2F77A0128E025BB002E02C0880F22
:100D9000991F0A94E2F7886084BB882D61E0D4DA59
:100DA00081EE94E00197F1F700C00000812FB9DADD
:100DB0001C01802FB6DA281A390AC7BAC8BAE1EE80
:100DC000F4E03197F1F700C00000812FAADA3C016E
:100DD000802FA7DA2C01E7BAE8BA882D60E0B4DAF0
:100DE00081EE94E00197F1F700C00000812F99DABD
:100DF0007C01802F96DAE81AF90AC7BAC8BAE1EE80
:100E0000F4E03197F1F700C00000812F8ADA6C011D
:100E1000802F87DAE214F30420F4930124193509B2
:100E200004C09601281B390B1701C1014F97F3E04D
:100E300087399F0708F06AC080916400882311F009
:100E4000863019F481E08093640040916200E42FC1
:100E5000F0E0EE0FFF1FEE0FFF1FE456FF4F108371
:100E6000018366E370E0269EC001279E900D369EAA
:100E7000900D11246BE070E096D6738362834F5F10
:100E800096E0220F331F9A95E1F7C10165E070E00B
:100E90008AD650E037C0E52FF0E0EE0FFF1FEE0FCF
:100EA000FF1FE456FF4F8081801759F5818181171C
:100EB00041F52617370728F5E52E842F90E0019796
:100EC0001AC0FD01EE0FFF1FEE0FFF1FE456FF4F8C
:100ED000AA0FBB1FAA0FBB1FA056BF4FCC90C0824A
:100EE0001196CC901197C18212960D90BC91A02DB5
:100EF000B383A283E394AE2DB0E0A817B9070CF337
:100F000042505F5F541738F24093620089819A81A2
:100F1000880F991FE2E08E2E912C7401082E02C0DA
:100F2000EE0CFF1C0A94E2F771E0C72ED12C96015B
:100F300002C0220F331F8A95E2F7C90128E025BBC2
:100F4000202E33249601002E02C0220F331F0A9454
:100F5000E2F7286024BB87BB88BB802FE2D93C0125
:100F6000812FDFD9AC01461957095A834983E7BA63
:100F7000E8BA802FD6D92C01812FD3D97C01E4186F
:100F8000F508C101880F991F082E02C0880C991C12
:100F90000A94E2F702C0CC0CDD1C8A95E2F7B4BAE1
:100FA000B5BA18BAC7BA812FBCD96FEF73E0660E15
:100FB000771E681A790A87BA812FB3D99201215016
:100FC0003C4F281B390B89819A818619970973E058
:100FD0008438970738F4C701821B930B853191053C
:100FE00008F0ADC0C70155E0880F991F5A95E1F789
:100FF0006FE170E0D8D589819A816817790708F088
:101000009EC080916400823018F0863009F097C04D
:10101000E091B400E63009F072C08091B50080170D
:1010200009F06DC080916B00811709F068C0609174
:1010300090007091910089819A81880F991F498150
:101040005A81840F951F880F991F885A9D4FAB01B5
:10105000440F551F440F551F460F571F4C505E4FEE
:101060008417950708F446C0CB01880F991F860F97
:10107000971F880F991F885A9D4F49815A81440FA5
:10108000551F440F551F69817A81460F571F4C50D9
:101090005E4F8417950770F16091920070919300F4
:1010A000C701880F991F8E0D9F1D880F991F885AA1
:1010B0009D4FAB01440F551F440F551F460F571F3F
:1010C0004C505E4F84179507A8F0CB01880F991FED
:1010D000860F971F880F991F885A9D4FA701440FAD
:1010E000551F440F551F4E0D5F1D4C505E4F84170A
:1010F000950718F41092B40022C0E093640089812F
:101100009A819093910080939000F0929300E092E6
:1011100092008FEF93E0AC014619570950937C0081
:1011200040937B00821B930B90937E0080937D0005
:101130001093B50000936B0086E08093B40088E0C4
:1011400084BB85BB17BA18BA26960FB6F894DEBFD3
:101150000FBECDBFCF91DF911F910F91FF90EF9008
:10116000DF90CF90BF909F908F907F906F905F9017
:101170004F903F902F900895FF920F931F93CF931E
:10118000DF93EC01F62E633080F480E324D88EE206
:1011900022D88F2D813021F480E31DD8888103C0AF
:1011A000888119D8898117D81CC010926100042F3A
:1011B00010E013C090E002968017910711F48EE2C0
:1011C0000AD880916100FE01E80FF11D808103D8EB
:1011D000809161008F5F80936100809161008F1525
:1011E00048F3DF91CF911F910F91FF900895CF9217
:1011F000DF92EF92FF920F931F93CF93DF9380E4E0
:1012000081BB80EC82BB83E886B919D888E10FB630
:10121000F89481BD11BC0FBE04B603FE0BC083E57C
:1012200091E05BD88FEB97E2A9E081509040A0401D
:10123000E1F749C080E4EED780E090E05DD880E837
:10124000E9D7CCE6D0E005E7C02E00E0D02E2FE0B5
:1012500088E190E00FB6F894A89581BD0FBE21BD3E
:10126000109264001092B40010926200109261001B
:10127000109263001092960010926500D6D788E015
:1012800084BBC3D785E84DD885E84BD890939800A8
:1012900080939700A2E08A389A0740F584E390E0B3
:1012A0001CD88091970090919800B2E088359B07F8
:1012B000C0F486E490E011D88FE39DE0A3E0815074
:1012C0009040A040E1F700C0000012BA80E090E03A
:1012D000DF91CF911F910F91FF90EF90DF90CF9012
:1012E00008958EE390E0F9D780EC94D786E290E001
:1012F000F4D780E061E042E02DDA80E062E041E096
:1013000029DA81E060E042E025DA81E062E040E055
:1013100021DA82E061E040E01DDA82E060E041E055
:1013200019DA80916400882321F0863011F0813031
:10133000E1F418BA85E187BBA3ECB9E01197F1F7A6
:1013400000C0000017BA82E060E026D882E061E0C9
:1013500023D881E062E020D881E060E01DD880E001
:1013600062E01AD880E061E017D85FD7809164000E
:10137000813009F0C0C080916200813019F587E7A3
:1013800090E0ABD787E491E0A8D780919C008F5C78
:1013900022D78DEB90E0A1D780919D008F5C1BD769
:1013A00080EC38D78CE391E098D780919E009091A3
:1013B0009F006CE670E04AE050E02BD47BD784E4D9
:1013C00091E072C3823009F052C080919C0020915C
:1013D000A0008217E1F48FE790E07FD78DE491E0E1
:1013E0007CD780EC17D787E491E077D780919C0079
:1013F0008F5CF1D68EEA90E070D780919D008F5C73
:10140000EAD683EB90E069D78091A1001CC23091AD
:101410009D009091A1003917E1F48FE790E05DD72E
:1014200080E591E05AD780ECF5D681EC90E055D775
:1014300080919D008F5CCFD68DE091E04ED780915A
:101440009C008F5CC8D682E191E047D78091A000D4
:10145000FAC1321709F01AC3981709F017C38CE8BC
:1014600090E03BD780ECD6D685E990E01DC3833071
:1014700009F00CC38093600080937F0090919C00E2
:101480008091A000981721F02091A400921711F4E8
:10149000909360009091A400891711F480936000EC
:1014A00090919D008091A100981721F02091A500B6
:1014B000921711F490937F009091A500891711F471
:1014C00080937F0080916000833008F0DFC28091BC
:1014D0007F00833008F0DAC28CE890E0FED680EC22
:1014E00099D682EA90E0F9D6809160008F5C73D63D
:1014F0008DEB90E0A5C1823009F0DBC080916100E6
:10150000882381F4809197009091980090939A009D
:1015100080939900809188009091890090938B002E
:1015200080938A0080919700909198002091990073
:1015300030919A0028173907A0F490939A0080936D
:101540009900809188009091890090938B008093FE
:101550008A0080917F0090919B0090937F00809300
:101560009B0080916300813019F483E291E002C016
:1015700087E291E0B2D68BE291E0AFD68091600035
:101580008F5C29D68FE291E0A8D680917F008F5C96
:1015900022D683E391E0A1D680919B008F5C1BD67D
:1015A00080EC38D66091990070919A0080E090E0CC
:1015B00023EB32E040E050E0D7D220918A00309116
:1015C0008B002B30310530F42BE030E030938B0072
:1015D00020938A0020918A0030918B0040E050E0F7
:1015E000F6D220938C0030938D0040938E00509360
:1015F0008F002093990030939A008EE191E06DD690
:101600008091990090919A006CE670E04AE050E079
:1016100042D350D687ECFED580916200833010F023
:1016200080E001C080E2D7D57091620050919B00AC
:10163000409160003091630020E036C0822F90E03E
:10164000FC01EE0FFF1FEE0FFF1FE456FF4F6181FD
:10165000651729F4E081E41711F4313071F0FC01D1
:10166000EE0FFF1FEE0FFF1FE456FF4F808185171F
:10167000D1F46417C1F43230B1F420937F008CE3CD
:1016800091E02BD6E0917F00F0E0EE0FFF1FEE0F10
:10169000FF1FE456FF4F828193816CE670E04AE0C1
:1016A00050E0B7D29EC02F5F271740F220937F00F3
:1016B0000EC2833009F098C08091630080FF02C0A1
:1016C0008EE401C080E587D580916300982F935008
:1016D000923018F484E091E008C08550823018F40C
:1016E00087E091E005C081E091E0F7D58CEF90E0D4
:1016F000F4D5809163008330C8F58AE191E0EDD59F
:101700008091600060919B0047D680916700909126
:10171000680090939800809397008330910528F09B
:1017200003979093980080939700809197009091F1
:10173000980065E770E04AE050E0ADD2F601019014
:101740000020E9F73197E557F0404E2FE09366000F
:10175000E0937400E53018F084E08093660085E73C
:1017600090E06091660008DD8EE635D580EC52D5BC
:1017700087E391E0B2D5809160008F5C2CD5809199
:101780007F008F5C28D580919B008F5C24D5809151
:101790006200882331F080916300833010F480E090
:1017A00001C080E218D580916300833008F08FC1BA
:1017B000809194009091950073E0969587957A9525
:1017C000E1F7909395008093940080E491E085D5B3
:1017D00080919400909195006CE670E04AE050E0B2
:1017E0005AD268D58DE672C1853099F48AEC90E0C2
:1017F00074D580EC0FD588EB90E06FD580916000B8
:101800008F5CE9D480917F008F5CE5D480919B0050
:101810001AC08430D1F484EC90E05FD580ECFAD427
:101820008AE491E05AD5809160008F5CD4D48DE039
:1018300091E053D580919B008F5CCDD482E191E003
:101840004CD580917F008F5C41C1863009F0C8C0C3
:1018500081EE90E042D58091B5008F5CBCD48DE2E2
:10186000BAD480916B008F5CB6D480ECD3D4209135
:10187000900030919100B2E021303B0738F02050C9
:101880003240309398002093970008C080E092E0A7
:10189000821B930B90939800809397008091920005
:1018A00090919300E2E081309E0720F09C0120504F
:1018B000324004C020E032E0281B390B30939A00FC
:1018C00020939900409197005091980020919900A1
:1018D00030919A002417350778F420917D003091DB
:1018E0007E0030937C0020937B0090939100809346
:1018F00090008CE592E102C088EA92E09093930018
:10190000809392008091900090919100009731F423
:1019100081E090E09093910080939000E09090009F
:10192000F090910000E010E020919200309193003F
:1019300040E050E0C801B70117D120917B00309101
:101940007C0040E050E02E193F09400B510B3FD185
:10195000F90120938C00F0938D0040938E005093FA
:101960008F00B901CA014CE650E02AE030E070D1A6
:101970008091920090919300F2E18C359F0759F588
:10198000FE0101900020E9F73197EC56F040E0931A
:10199000B50010926B0016C0F0E0E459FF4F808153
:1019A0001AD420916B0030E08091B50090E002974E
:1019B0002817390711F48EE20ED480916B008F5FE7
:1019C00080936B00E0916B008091B500E81720F3E5
:1019D0008BE601D403C08CE690E06CD484EF76C033
:1019E000873009F053C08EEE90E077D48091960056
:1019F0008F5CF1D38DE2EFD3809165008F5CEBD3E8
:101A000080EC08D48EE6809374006091670070913A
:101A100068008091690090916A00603A26E8720738
:101A200021E0820720E0920780F028EE33E040E0DA
:101A300050E0CDD020936700309368004093690058
:101A400050936A0084EE80937400609167007091F7
:101A500068008091690090916A004CE650E02AE0AD
:101A600030E0F6D0DE010D900020E9F7AD014150E5
:101A700050404C565040409366008CE690E0642FF6
:101A80007BDB80917400A7D386E420C08091620044
:101A9000882361F48CE490E020D480ECBBD38DE506
:101AA00090E01BD487E690E018D411C087E690E060
:101AB00014D48FE690E011D480ECACD384ED90E0A8
:101AC0000CD480916200805D86D380E084D3879BB4
:101AD000FECFEFE4F3EC3197F1F700C00000109275
:101AE0009800109297000EC0879BB1CBA895A9EFE4
:101AF000B0E01197F1F700C00000019690939800B4
:101B0000809397008091970090919800B7E2803180
:101B10009B0750F3969888E10FB6F89481BD11BCED
:101B20000FBE8799FECF93CB2F935FB72F932AE0F9
:101B30008095089410F4AB9802C0AB9A000008D0CE
:101B400007D086952A95B1F72F915FBF2F91089501
:101B50005F935FB75F9300005EE35A95F1F7000073
:101B60005F915FBF5F910895629FD001739FF00105
:101B7000829FE00DF11D649FE00DF11D929FF00D1D
:101B8000839FF00D749FF00D659FF00D9927729F54
:101B9000B00DE11DF91F639FB00DE11DF91FBD01DF
:101BA000CF0111240895AA1BBB1B51E107C0AA1F36
:101BB000BB1FA617B70710F0A61BB70B881F991FEE
:101BC0005A95A9F780959095BC01CD010895A1E2A1
:101BD0001A2EAA1BBB1BFD010DC0AA1FBB1FEE1FA7
:101BE000FF1FA217B307E407F50720F0A21BB30BF2
:101BF000E40BF50B661F771F881F991F1A9469F76E
:101C000060957095809590959B01AC01BD01CF01C9
:101C10000895FB019F01E8944230BCF04532ACF4DA
:101C20004A3029F497FB1EF4909581959F4F642FBD
:101C30007727B9DF805D8A330CF0895D8193CB0112
:101C40000097A9F716F45DE251931082C9013FC0D5
:101C5000FA01CF93FF93EF932230C4F02532B4F40E
:101C6000C22F2C2F332744275527FF93EF93AFDF45
:101C7000EF91FF91605D6A330CF0695D6193B9018A
:101C8000CA01605070408040904059F710828F9197
:101C90009F91CF911CC0FB019F0142306CF04532F7
:101CA0005CF4642F77277FDF805D8A330CF0895DD9
:101CB0008193CB010097A9F71082C90108C0E1996F
:101CC000FECF9FBB8EBBE09A99278DB30895DC01B0
:101CD000FC01672F71917723E1F7329704C07C9163
:101CE0006D9370836291AE17BF07C8F30895F8949F
:021CF000FFCF24
:00000001FF
