:1000000015C024C023C022C021C020C01FC01EC0F4
:100010001DC01CC01BC01AC019C018C017C016C014
:1000200015C014C013C001041001020411241FBE26
:10003000CFE5D4E0DEBFCDBF20E0A0E6B0E001C058
:100040001D92AF3EB207E1F7FADBA9CFD9CF80FD11
:10005000949A80FF94988C9A0000959A8D9A909823
:1000600091989298939864FD909A889A65FD919AD8
:10007000899A66FD929A8A9A67FD939A8B9A0000F4
:10008000959870D287FD10C0959A90989198929803
:10009000939860FD909A61FD919A62FD929A63FD3A
:1000A000939A000095985EC20895909188009F5F92
:1000B00090938800682F81E0CADF4BD2A8950895FD
:1000C0008F5CF3CF089580E2F0CF0895CF93C82FCF
:1000D0001C1614F0CF910895F6DFC150F9CF8DE3CF
:1000E000E4CF0895682F80E0B2DF33C20895109204
:1000F000E20080E8F7DF10928800089581E08093A5
:10010000E20080ECEFDF10928800089582E0809397
:10011000E20080E9E7DF10928800089583E0809391
:10012000E20080EDDFDF1092880008956093880080
:10013000813021F480EC860FD5CF089580E8FBCF85
:1001400081E0D0DFFAD1D3CF0895CF93DF93EC01D4
:100150008991811103C0DF91CF910895A6DFF8CF77
:10016000CF93DF93EC01FE018491982F9F7719F0D4
:100170009CDF2196F8CFDF91CF910895CF93DF9345
:10018000EC01CE0104DF982F9F7719F08EDF2196C6
:10019000F8CFDF91CF9108950F931F93CF93DF9303
:1001A000EC0128968C010F5F1F4FF1DE7EDFC80146
:1001B0000C171D07B9F7DF91CF911F910F9108958B
:1001C000B7D183E38FDF82E38DDFB7D180E28ADFAF
:1001D00080E288DF8AE286DF88E084DF86E082DFF3
:1001E00082E080DFADDFAAD18CE07CDF88E47ADFBB
:1001F00080E290E0D1DF80E575DF88E190E0CCDF40
:1002000088E570DF88E290E0C7DF88E76BDF80E198
:1002100090E0C2DF80E766DF88E090E0BDCF089520
:100220009091880080E1891B51CF0895CF93C82F0A
:10023000F7DF8091E2008F5F8093E200823058F018
:1002400081E08093E20080938B006C2F8091E2002C
:100250006DDFCF91089510928B00F7CF08950F9323
:1002600083E890E08BDFE8EBF0E0608171818281D0
:10027000938103E026E44685A7D00F91089564E7B3
:1002800070E04AE050E050DE60CF0895EF92FF92B8
:100290000F931F93182F062FF42E82E790E06EDF46
:1002A000EE24E0918900F0918A008685E81611F429
:1002B000812F09C08485E81611F4802F04C085853C
:1002C000E81611F48F2DF1DEE3948E2D833049F77B
:1002D0001F910F91FF90EF900895682F80E092E0BA
:1002E000662309F491E0623009F481E008950F93E8
:1002F000082FE3EEF0E0880F880FE80FF11D608112
:100300007181828193814FEF04E024EF5DD0DBDEC9
:100310000F910895863058F4E6EDF0E0E80FF11DF6
:10032000E80FF11D8081918163E0EED0CCCE08957D
:100330001F93182F8091B500882319F0C4DE82E541
:10034000B4DEDCDE89E690E019DF812F82958F70C4
:10035000E1DF812F8F70DEDF1F91089580916800AB
:1003600082958F7011D080916800837014D0809135
:100370006800DECF0895EAECF0E0E80FF11D089583
:1003800003D0A1DECF910895F6DF8F93808198DEB0
:100390008F9101C008958F938CE490E0EFDE8F91F0
:1003A000EADF86818DCE0895E6DF8F93868188DE31
:1003B0008F9101C008958F9388E490E0DFDE8F91E4
:1003C000DADF80817DCE0895AFE0B0E0E9EEF1E0C4
:1003D00074CD142F2F87602E6B017C010F7080E38A
:1003E00089838A838B838C838D838E8388EE93E0CD
:1003F000033031F084E690E0043011F480E197E2BC
:100400001C01512C412C2AE0822E912CA12CB12CC4
:100410000CC0C701B6016B5F7F4F8F4F9F4FA50187
:10042000940113DD69017A011F5FC214D304E4044F
:10043000F50478F786E0811B93E0A92E6A2DE5DCB0
:10044000792E4E0187E0880E911C4AE0B401C60166
:1004500075DDF40101900020E9F731977F01E8187C
:10046000F90881E1810F6A2DD0DC90E08050904046
:100470008EDDA82E64FE29C0E01638F50E19CE2CAC
:10048000C718C00E1C1424F08EE20FDE072D0E19C3
:10049000711002C088EFC82E912C10E0E00EF12EF2
:1004A000F11C0C2C000CDD08E92DF0E0EE15FF0529
:1004B00074F0AA2011F08A2DF8DD9F85992311F0A0
:1004C000892FF3DD2F96E2E114CD00E0D8CF3696E8
:1004D000E01BF10B81E090E08C0F9D1FE80FF91FEE
:1004E0008081E3DD93949C141D04F1F68EE2DDDD42
:1004F000DBCF0F93362FBC0190E080E0022F242F3A
:10050000432F62DF0F9108950F93062FBC0190E0F7
:1005100080E026E54DEF58DF0F910895089503D050
:1005200002D001D000D000D003D002D001D000D042
:1005300000D003D002D001D000D000D0A89503D0C5
:1005400002D001D000D000D003D002D001D000D022
:1005500000D003D002D001D000D000D003D002D010
:1005600001D000D000000895E8DFE8DFE7DF1F9347
:10057000182F106417B920E030E0A901E0E010C0A6
:1005800086ED809326008091260086FDFCCF609149
:10059000240070912500260F371F411D511DEF5F6C
:1005A00080917E00E81760F3609182007091830073
:1005B00080E090E01BDC2FEF33E040E050E045DCD2
:1005C000B901CA0120917E0030E040E050E03DDCFE
:1005D000C9011F9108959B01281B390B50F0C901D7
:1005E0000895BC018091820090918300681779077B
:1005F00018F4861B970B089580E090E00895EF9221
:10060000FF920F931F93CF93DF937C01C5E68799E9
:1006100003C094DFC150D9F7E70105E510E0D7FD2D
:100620001BC08BDF000F879B0F5F0F730F3341F4ED
:10063000111102C0E70114E01F5F163928F00CC049
:10064000011102C0111108C0A895209741F32A9703
:1006500031F7CFEFDFEFE3CF812FDF91CF911F9104
:100660000F91FF90EF9008952091840030918500C4
:100670002C5F311D20936B0030936C0064EE72E0B0
:100680006093B6007093B70060E070E080918400E2
:1006900090918500860F971F909381008093800032
:1006A0009093B4008093B300089540916D00A091A1
:1006B0008900B0918A00EAECF0E030E020E0822F7F
:1006C0002417B0F451911C969C911C97591719F05E
:1006D0005581951303C02F5F3F4FF1CF220F331F7A
:1006E000F901EA52FF4F20813181293E334008F061
:1006F00084E1089510926F0010926D001092B20084
:1007000010929B0010926E00109287001092B5001C
:10071000EDE9F0E0108211821282E8EBF0E014863D
:1007200082E08587148215821682178281EF87877F
:1007300008959698F7DE90E080E061CF0895AEE0EE
:10074000B0E0E4EAF3E0B9CB8D876E87142FA8956B
:100750002E85E22FF0E0EA5DFF4FB490339684904F
:10076000E42FF0E0EA5DFF4F0491E82FF0E0EA5D4E
:10077000FF4F9490339634913D8318BAB7BA34BB87
:1007800035BB4B2D402B4B8347BB8E85EFDE6C0179
:10079000B7BA8E85EBDE9A83898317BACFDE08BBA2
:1007A0008B8187BB8E85E2DE7C01B7BA18BA8C15C7
:1007B0009D0508F085C08E85D9DE9A838983C7019F
:1007C000805E9E4FC816D90608F4E2C220919B00B5
:1007D0008091B200820F9927991F02974CF0213027
:1007E00009F0D6C2909198008091AF009813D0C2C2
:1007F000902F990F9F83A92EAB2899299E8324E7D8
:10080000E216F10408F4BCC03AE0E30EF11CEE0C71
:10081000FF1C89819A818E159F0508F0B1C0A7BA87
:100820008E85A3DE7C01812FA2DE6C019F8198BBA7
:100830008E859BDE9701295A3D4F15BA84BA281739
:10084000390708F04BC02E8127BB28BB812F8DDED6
:1008500088349F40F0F185E080936F0082E28093BE
:100860006E00F0929100E0929000B601C701BEDEEA
:1008700090939700809396009701A0E1B7E207DB81
:1008800024E53BE140E050E0E0DA30939300209330
:10089000920080919B008F5F80939B0081E09091FC
:1008A0009B009F5F90939B00882309F402C31093E1
:1008B00098002D85209399003E8530939A00F9C2C7
:1008C000C601805E9E4FE816F90608F461C2760103
:1008D0007DCF85E080936F0084E2C1CF4E8147BB1E
:1008E00048BB8D8542DE7C01812F41DE6C0198BAC8
:1008F0008D853BDE895A9D4F8E159F0508F048C2B5
:100900008D8185BB84BB812F30DE813D934098F57E
:1009100085E080936F0082E380936E00B701C6018B
:1009200065DE9093AE008093AD00C7015ADE9C0156
:10093000A0E1B7E2ACDA20E83BE140E050E085DA44
:100940003093AA002093A9008091B2008F5F80931A
:10095000B20081E09091B2009F5F9093B200882333
:1009600009F4A7C21093AF008E858093B0009D85D7
:100970009093B1009EC285E080936F0084E3CCCF5A
:1009800015BA84BA98BA3E8137BB8D85EFDD1C015C
:1009900028DE7C01812FEBDD6C0189819A818C59E5
:1009A0009F4F9A87898769817A818E159F0508F004
:1009B00053C0C7011BDEDC0129EC34E041E050E00C
:1009C00072DA960150E040E040DA29013A0117BAA4
:1009D00018BA9D8195BB94BBB1DD2B8127BB8E8559
:1009E000C5DD8F359D4008F498C0A7BA8E85BDDD62
:1009F0007C01812FBCDD9C878B878D85B8DD2B85A5
:100A00003C85213D3740E8F184E080936F008DE024
:100A100080936E008091B200882371F08091A300D2
:100A20009091A400A091A500B091A6008415950511
:100A3000A605B70508F051C24092A3005092A40049
:100A40006092A5007092A600B601C101CFDD90931F
:100A5000A8008093A7007DCFC701C8DD7C01802F4F
:100A6000892987BB8D8582DD1C01BBDD812F7FDD60
:100A70006C01BC01C701BADD9C01A4E6B0E007DA55
:100A8000A0CF29813A812136310508F046C031EDE9
:100A9000E31637E0F30608F440C025E020936F002A
:100AA0004AEFE40EF11CE816F906A8F182E1809302
:100AB0006E00882D8770882E812F806487B9BBE0F7
:100AC0009B2ECC24C394D12CEE24EA9493E0F92EEF
:100AD000A89561E0802F52D3A7BA83B38821E9F3A8
:100AE000B7BA369A3699FECF84B195B19701281BD3
:100AF000390BC20ED31E9A949110EACFC601880F0B
:100B0000991F880F991F69E070E08BD97093AE0030
:100B10006093AD0019CF83E1CACFA7BA3F8138BB3C
:100B20008E8524DD1C01812F22DD6C015ADD7C01C4
:100B300089859A858215930508F08DC069817A812F
:100B4000C10154DDDC012DE636E041E050E0ABD9D7
:100B5000970150E040E079D929013A0184BA15BAE9
:100B6000302F39293B8337BB38BB8D85FFDC5C01D7
:100B7000812FFDDC98878F838E85F9DC7C0140E333
:100B8000A41641E1B40608F001C198BA8D85EEDCE7
:100B90009A87898797BA8D85E9DC9C878B8718BAF5
:100BA000CDDC98BA8D85E2DC2B853C85203436403F
:100BB00008F06BC08133914108F467C0C5018A56C3
:100BC0009F4F29853A852817390708F05EC086E0CF
:100BD00080936F0080919B008F5F80939B00B70193
:100BE0008F81988503DD9093910080939000B701E9
:100BF000C501FCDC909397008093960017BA18BA51
:100C000085BA9CDC97BA8D85B1DC853F910508F0EB
:100C100045CE3B8137BB812FA9DC813D934008F451
:100C20003DCE8D85A4DC8D3D924008F437CE97BA39
:100C30008D859CDC8D3D924008F430CE98BA7EDCE8
:100C400018BA8D8593DC853F910508F027CE87E0A3
:100C500080936F0023CE9B8197BB08BB8E8586DC7B
:100C60001C01812F84DC6C01BCDC7C0129813A8170
:100C7000C1012215330510F4821B930BB701B6DCBA
:100C80009C01A4E6B0E003D963CF84BA4E8148BB8F
:100C90008D856ADC7C01A5DC9C838B83812F67DCDE
:100CA000A0DC5C018E8563DC2EEFA21629E0B20683
:100CB00040F184E080936F008CE080936E0080911F
:100CC0009B00882371F080918C0090918D00A09101
:100CD0008E00B0918F0084159505A605B70508F024
:100CE000FEC040928C0050928D0060928E007092F7
:100CF0008F00B101C6017ADC90939100809390003F
:100D0000CDCD29813A812136310508F03FC02B81B4
:100D10003C8129343D40D0F125E020936F0086507E
:100D20009F4F8E159F0580F182E080936E008D812C
:100D30008770C82E812F806487B9EBE0DE2EEE2409
:100D4000E394F12CA89560E0802F18D29E8197BB88
:100D500098BB83B38C21E9F797BA369A3699FECFC0
:100D600084B195B1E80EF91EDA94D110EBCFC7012A
:100D7000880F991F880F991F69E070E052D870930F
:100D800097006093960085CD83E0CFCF14BA15BA53
:100D900017BA18BA14BA29813A81273C314008F4AD
:100DA00098C0B92CBB0C15BAB7BA68ECF62E1D81E9
:100DB000182914BBC3DB84BA8D85D9DB429718F0A0
:100DC000FA94F110F6CFB7BAB8BA61E0802FD6D155
:100DD0008D85CCDB6C0160E0802FD0D18D85C6DBAA
:100DE000A82E192F97BA98BA8E85C1DB7C018D8504
:100DF000BDDBB701FBDB4C0161E0802FBFD18E85ED
:100E0000B6DB7C018D85B2DBB701F0DB7C01B7BAC4
:100E1000B8BA8816990630F060E0802FAFD1CA2C9E
:100E2000D12E74018D85A2DB9C0188EEE81683E04B
:100E3000F80608F047C0C70164E670E0F2D7C701C2
:100E4000875991098938914108F043C02E153F0513
:100E500008F03FC0C60143E0969587954A95E1F7B3
:100E6000893C910510F088EC90E08C0D9D1D8E154D
:100E70009F0578F56C157D0560F580916F008330D6
:100E800018F483E080936F0020916D00822F90E032
:100E9000FC01E653FF4F3D8530834E854683880F26
:100EA000991FFC01EA52FF4FF182E0822F5F2093ED
:100EB0006D0014BA15BA17BA18BA8EE2F6D82E9683
:100EC000E2E117C8B70154E0769567955A95E1F7C6
:100ED000B6CF6E858D8505D0ECCF80E03BCD80E030
:100EE000DECCB0E0A0E0E6E7F7E0EAC7C82F162FB7
:100EF000A895E62FF0E0EA5DFF4F049133968491C8
:100F0000EC2FF0E0EA5DFF4F94913396D49120915D
:100F1000B20030919B00230F3327331F232B09F09E
:100F2000F0C0F92EFF0CA89520917100309172004D
:100F3000220F331F220F331F309383002093820030
:100F40002091B3003091B400220F331F220F331FC2
:100F500030938100209380002EEB20937E0015BA01
:100F600084BB97BB98BB862F01DB582E692E8C2F34
:100F7000FEDA6C0118BAF7BA8C2FF8DA81359105D0
:100F800008F0ACC0F8BA8C2FF1DA5C01D4BBD5BB49
:100F900018BA07BB8C2FEADA782ED92F812FE7DA1F
:100FA0007C01000F07BB812FE1DA4C0120ECC21657
:100FB00024E4D20608F08CC085E8A81681E0B806C3
:100FC00008F08CC0F4EAEF16F2E0FF0608F09DC0CE
:100FD00028E98216910408F481C0C50102DBAC0146
:100FE0009501A8E9B7EB53D79A0150E040E02DD71F
:100FF00069017A01C401F5DA9C01A8E9B7EB47D78A
:10100000940150E040E021D72C0D3D1D4E1D5F1D89
:101010005695479537952795A4E6B0E044D76B01E0
:101020007C01ECEACE0EEDE0DE1EE11CF11CD0915D
:101030006F00D43008F052C0C150C10F4C2F50E0A7
:101040008A0103561F4FF8018081440F551F440F3A
:10105000551F4D515F4FFA01882309F487C08080E6
:101060009180A280B380A7019601281939094A0905
:101070005B0957FF07C050954095309521953F4F2C
:101080004F4F5F4FAAE0B0E00ED7F4E68F0E911CF1
:10109000A11CB11CA50194012C0D3D1D4E1D5F1D11
:1010A000D4D6232B242B252BC9F4D33019F081E07F
:1010B00080936F0082E0F80180838091B500E82F73
:1010C000F0E0E056FF4FC0838F5F8093B50006C00D
:1010D000E0EBAE16EDE4BE0608F474CF809171002B
:1010E0009091720090938300809382008091B3006E
:1010F0009091B40090938100809380008CE2809363
:101100007E00CDB7DEB7EFE0F7C6652D762DC616AB
:10111000D70608F4B601C60169DA5C01C60161DAD6
:10112000AC019501A0E8BBE1B2D69A0150E040E0E5
:101130008CD649015A01872D9D2F8E159F0508F4E5
:10114000C701B70153DA9C01A4E5BBE1A0D6970122
:1011500050E040E07AD669017A01C80CD91CEA1C3B
:10116000FB1CF694E794D794C79461CFC082D182D8
:10117000E282F38281E0F8018083B0CFCF93C82F61
:10118000C09598B360FF0EC0982B98BB97B3892B7E
:1011900087BBD3D987B38C2387BB88B38C2388BB09
:1011A000CF9108959C23F1CFB0E0A0E0E9EDF8E005
:1011B0008DC61AE08FE3B82E09E014BA15BA18BA32
:1011C000B7BA80E0D3D97C0181E0D1D9EC0182E0CB
:1011D000CED99C0180916F00893061F084E0E816DF
:1011E000F10470F4C430D10508F050C0243031054A
:1011F00008F04EC014BA17BACDB7DEB7E9E082C620
:1012000091E088EEE81683E0F80608F090E0C83E2A
:10121000D34008F49260283E334008F4946094BBB5
:10122000D0E0C0E0A89580E09FD96C0181E09FD913
:101230007C0182E09CD924E1C21625E0D20608F4A4
:10124000A09A24E1E21625E0F20608F4A19A84317E
:1012500025E0920708F4A29A26E0C216D10430F4E1
:1012600026E0E216F10410F4069738F02196C43F08
:1012700081E0D807B9F600936F00F12CE12CEC1651
:10128000FD0641F4115009F098CFB6CF91E0BFCFE1
:1012900091E0C0CF58D92FEFE21AF20AF0CFCF92E7
:1012A000DF92EF92FF92CF932091B8003091B90076
:1012B0004091BA005091BB00C091C6008AE0C82E90
:1012C000D12CE12CF12C8C2FCF5F213A96E83907F5
:1012D00091E049075105D0F48093C600A0918200A7
:1012E000B0918300E0D528E833E140E050E0ADD58F
:1012F0002093B8003093B9004093BA005093BB00DC
:10130000CF91FF90EF90DF90CF900895CA01B9017F
:10131000A70196019AD5D7CF8F929F92AF92BF9295
:10132000DF92EF92FF920F931F93CF93DF93182FCB
:10133000D62EE82FF0E0EA5DFF4F0491862F90E073
:10134000FC01EA5DFF4FC491FC01E75DFF4FE490B3
:1013500080916F00813009F445C020916D00AAECA6
:10136000B0E090E080E0821708F448C081EF8093FD
:10137000C6001092B8001092B9001092BA001092F4
:10138000BB0012DF15BAE4BAC7BBC8BB812FEFD8C8
:101390005C018D2DECD8A81AB90A17BAD0E0C0E0CC
:1013A00008BB07BBCAD817BA18BACED8A895812FE0
:1013B000DED84C018A189B08CE37D10520F08BE48B
:1013C000881691045CF02DE2821621E092060CF062
:1013D0001BC12196C43F31E0D30711F714BA15BAE7
:1013E00017BA18BADF91CF911F910F91FF90EF902C
:1013F000DF90BF90AF909F908F90089516963C918C
:1014000016973D110DC03C9131130AC0FC01EE0F3F
:10141000FF1FE653FF4F448555854C3D554010F363
:1014200001961196A0CFC0DE18BA87E084BB15BA2A
:10143000F02EFF0CF7BA88E080BF84E588B9812FD1
:10144000806487B986E186B982D81FBC1DBC1CBCEC
:101450008CE388BFF8BA80916F00853009F0C7C06F
:1014600081E08EBD81E090E0012E01C0880F0A94DA
:10147000EAF78095877084BB94E088B785FD09C042
:1014800082FFFBCF98BFA8952196C03436E0D307E2
:10149000A1F71EBC90E298BFE6B4F7B42CB53DB5F9
:1014A000E216F30628F482FF03C084E088BF219689
:1014B00086E986B917BA18BA812F59D820918400C5
:1014C00030918500821B930B04969093C900809302
:1014D000C800C03283E0D80708F080CFD093C300A3
:1014E000C093C200F092C100E092C00084EF8093EC
:1014F000C600C234D105C0F06091C0007091C10037
:101500008091C2009091C30024E630E040E050E0BA
:101510009CD42093C0003093C1004093C2005093EC
:10152000C30086EF8093C600A091B600B091B700CB
:101530002091C0003091C1004091C2005091C30081
:10154000B2D420E233E040E050E07FD42093C000EA
:101550003093C1004093C2005093C3002093B80061
:101560003093B9004093BA005093BB0098DE80914D
:10157000C600843F69F5113099F48091B8009091CC
:10158000B900A091BA00B091BB000296A11DB11D97
:101590008093B8009093B900A093BA00B093BB00B9
:1015A0008091B8009091B900A091BA00B091BB00B1
:1015B0008F319105A105B105F0F04E97A109B10950
:1015C0008093B8009093B900A093BA00B093BB0089
:1015D00007BB8091B8009091B900A091BA00B0917A
:1015E000BB004997A105B10508F4F8CE70C081E0B1
:1015F0008EBDE4BA41CF1092B8001092B90010929B
:10160000BA001092BB00E4CF209731F485E1881630
:1016100085E098060CF007CFF12CE12C8FD7812FB5
:10162000A6D7A8952FEFE21AF20ACE15DF05B0F77C
:101630008A199B099401281B390BC901293C3105E2
:101640000CF0CCCE2196AE0170E060E04093C0007B
:101650005093C1006093C2007093C300880D991D20
:1016600077D02091C0003091C1004091C2005091CC
:10167000C300DC0118D46093C0007093C100809354
:10168000C2009093C3006093B8007093B900809338
:10169000BA009093BB0087EF8093C60000DE2091D4
:1016A000B8003091B9004091BA005091BB00A3EE50
:1016B000B3E0F9D324E630E040E050E0C6D3209315
:1016C000B8003093B9004093BA005093BB008091AA
:1016D0006D00882329F080916F00853009F07ECE5F
:1016E00088E080936F008091C6009091C7009817A2
:1016F000C4F0891373CE8090B8009090B900A09088
:10170000BA00B090BB004091BC005091BD00609108
:10171000BE007091BF00481559056A057B0508F0A9
:101720005DCE4091B8005091B9006091BA007091BF
:10173000BB004093BC005093BD006093BE0070930B
:10174000BF008093C700D092C4001093C50046CE5E
:101750000F9221E08C32920710F48CE291E08C52CF
:10176000914069E170E05DD399E16B3210F0982F00
:101770006BE2981BE0E0F1E0E60FF11DE60FF11DD2
:101780009F93CF0104D4482F3196CF0100D4582F16
:101790003196CF01FCD3282F3196CF01F8D3382FC3
:1017A0006F91421B530B649FC001659F900D1124E4
:1017B0000C9669E170E035D3620F731FCB010F9077
:1017C0000895CF93DF9388E893E19093720080931C
:1017D0007100CEE7D0E09D838C838EEB888382E11D
:1017E00095E090938500809384003ED7DDDC8CE209
:1017F0008883DF91CF9108950F93CF93DF9377D4B0
:10180000C8EBD0E08C855CD48BE590E0B7D48D85B7
:1018100057D406D573D46C817D818E819F8104E07D
:1018200026E44F85D1D5FCD4DF91CF910F91089557
:101830008F3011F08F5F089580E008950895B0E033
:10184000A0E0E4E2FCE03BC380E481BB82BB86E82D
:1018500086B96AD6C4B7C87084B7877F84BF0FB60D
:10186000F894A89581B5886181BD11BC0FBE7894AC
:10187000A7D4C111AFC284E080BF879904C05DD6F0
:10188000CF5FCC33D1F78FE59DE690936A008093CC
:101890006900CF3130F080E69DE690936A00809336
:1018A000690010927F008DDF88E19FE00FB6F89409
:1018B000A89581BD0FBE91BD53E0C52E10E16CE827
:1018C000E62E60E0F62EC3EAD0E070E1D72E93E377
:1018D000B92E21E2A22E32E1932E40E2842E30D4A2
:1018E00014BA08D76EDF03D480E390E047D406D45F
:1018F0005BDC80916F00893049F422D485E590E06B
:101900003DD48091690090916A0018C1F7D387EFA8
:1019100090E034D442E061E080E011D742E060E042
:1019200081E00DD741E062E080E009D741E060E06E
:1019300082E005D740E062E081E001D740E061E06D
:1019400082E0FDD680916F0081110AC02DDC60E03D
:1019500082E0E2DC61E082E0DFDC60E081E0DCDCB0
:10196000EFD3F0928A00E092890080916F00863078
:1019700091F48EEC90E002D441E467E483E486D4F1
:10198000BDD389E690E0FAD362E080919000909117
:101990009100BAD5B6CF873039F487ED90E0EED319
:1019A00042E367E481E3EBCF883011F425DFA9CF70
:1019B000833009F0CBC080916D00813009F048C0C0
:1019C00080E0DED480E7B4D46091CA008091D0007A
:1019D000A3DC8091C6008D3F84F480E890E0CED3F4
:1019E0006091B8007091B9008091BA009091BB00ED
:1019F00002E026E44091C600E7D48091B500882338
:101A000009F47FCF14BB8091690090916A00F7D5EB
:101A100014BA96D380916D00805D47D383E490E043
:101A2000ADD33091B500332309F4CAC18091A00031
:101A3000313009F067C151D4092F42D38EE390E0D1
:101A40009DD3802F3DD35AD38091A00050D459CF3D
:101A5000823049F582E329D383E490E08FD39091DB
:101A6000CA003091CB00931307C080E09DD481E081
:101A700092D481E05DD4C1CF2091D0008091D1007B
:101A8000281305C080E080D481E095D4F2CF3213D2
:101A900005C081E08093680061D4AFCF981339C04E
:101AA000D0926800F9CF8330A1F5B09268008091A0
:101AB000D0009091CB00891303C021E020936800EF
:101AC0004091CA003091D100431302C0D092680007
:101AD0002091CC00821303C082E080936800809143
:101AE000D200481302C08092680032130AC090925C
:101AF0006800981741F083E3D8D283E490E03ED3A6
:101B0000CBCF981302C0A092680080916800823207
:101B100090F38DED90E032D385EC90E02FD3EED2B0
:101B200080916D00805DC1D28AE2BFD28CE490E0EA
:101B300025D38BEA90E022D380E49FE114BB879BFE
:101B4000FECF5DD58111CBCEF4D5C1CE843009F066
:101B50005FC08091B200882361F080919B00882350
:101B600041F0879906C080916E0091E089278093AB
:101B70006E0080916E008C30D1F48CE790E0FED244
:101B80008091B200882311F080E78FD29CD28DD54E
:101B9000853030F580916E008C30B1F481E0209179
:101BA000990090919A009217B0F080E014C0D09301
:101BB0008A00C093890088E790E0E0D280919B0082
:101BC000882321F38EE6E1CF81E02091B00090914F
:101BD000B100291750F78823C1F08CE490E0CED2F1
:101BE00043E462E485E452D389D286E890E0C6D229
:101BF000E0918900F0918A006081718182819381F6
:101C000003E020E04EEFE0D37CCE88E490E0E7CF25
:101C1000853009F006CF80916E0084FF25C080E5F5
:101C200044D2D0938A00C09389008DE23ED2809145
:101C30006E00082F0F700430D1F48FE890E09ED230
:101C40004FE367E48FE322D330D5853088F5809168
:101C50006E0084FF22C081E02091B0009091B1001D
:101C6000291710F180E020C08EE41FD2DECF85FF5F
:101C70000BC084E41AD2033049F489E890E07ED2A4
:101C800043E467E485E4DFCF85E4F4CF84E990E0C2
:101C900075D244E467E483E5D6CF81E020919900D2
:101CA00090919A009217F0F68823D1F081E0FDD14F
:101CB00080916E0085FD16C021D2E0918900F091DF
:101CC0008A006685848528DBCAD284E690E056D2F5
:101CD000E0918900F0918A0062E08285938559CE77
:101CE00082E0E5CF89E4E1D1FAD1E0918900F09179
:101CF0008A0022E041E46AEF86819781FAD38FE57A
:101D000090E0E5CF9091A10024E0929FD0011124B2
:101D1000AD51BF4F24E0829FF0011124ED51FF4FE0
:101D20004D905D906D907C90408151816281738176
:101D3000282F441555056605770508F4292F980FB7
:101D40000C2D091B3230E1F00091A20084E0089FC5
:101D5000D0011124AD51BF4F84E0289FF001112420
:101D6000ED51FF4F4D915D916D917C9180819181FD
:101D7000A281B38184179507A607B70708F0022F41
:101D8000602E669482E0782E701A82E0582E01113F
:101D900002C055245394862D93D18EE390E0EED16A
:101DA000872D8ED18EE390E0E9D1852D89D180E019
:101DB0003DD281E0011180E09AD282E0861946CEC0
:101DC00085EB90E0DBD19AD182EE90E0D7D18DED1A
:101DD00090E0B1CE8CD182EA90E0D0D1A2D3A9D448
:101DE00090E080E0CDB7DEB7E0E185C0DB018F9306
:101DF0009F9359D0BF91AF91A29F800D911DA39F3A
:101E0000900DB29F900D11240895991B79E004C0A4
:101E1000991F961708F0961B881F7A95C9F7809529
:101E20000895AA1BBB1B51E107C0AA1FBB1FA61721
:101E3000B70710F0A61BB70B881F991F5A95A9F773
:101E400080959095BC01CD010895A1E21A2EAA1BA0
:101E5000BB1BFD010DC0AA1FBB1FEE1FFF1FA2175A
:101E6000B307E407F50720F0A21BB30BE40BF50B57
:101E7000661F771F881F991F1A9469F760957095E0
:101E8000809590959B01AC01BD01CF010895A29F63
:101E9000B001B39FC001A39F01D0B29F700D811DFF
:101EA0001124911D0895F3DFA59F900DB49F900D0F
:101EB000A49F800D911D112408952F923F924F925F
:101EC0005F926F927F928F929F92AF92BF92CF92CA
:101ED000DF92EF92FF920F931F93CF93DF93CDB7D3
:101EE000DEB7CA1BDB0B0FB6F894DEBF0FBECDBF4B
:101EF00009942A88398848885F846E847D848C841C
:101F00009B84AA84B984C884DF80EE80FD800C8124
:101F10001B81AA81B981CE0FD11D0FB6F894DEBF07
:101F20000FBECDBFED0108954532510518F4423082
:101F300008F004C0FB011082CB010895BB27FB0110
:101F40005527AA27880F991FAA1FA41710F0A41BB2
:101F500083955051B9F7A05DAA3308F0A95DA1930C
:101F6000009779F7B111B1931192CB0100C0DC0158
:101F7000FC01672F71917723E1F7329704C07C91C0
:101F80006D9370836291AE17BF07C8F30895E1990E
:101F9000FECF9FBB8EBBE09A99278DB30895F8942E
:021FA000FFCF71
:00000001FF
