:10000000C2C40000D2C40000D0C40000CEC40000AE
:10001000CCC400000C94EF27C8C400000C94520C10
:10002000C4C40000C2C400000C943C1E0C94D3272E
:100030000C94E1270C94161EB8C40000B6C400004E
:100040000C94AD27B2C40000B0C40000AEC40000E0
:10005000ACC400000C94530CA8C40000A6C400005B
:10006000A4C40000A2C40000E62FF72F903009F4CA
:100070009395E5B8C4B8B6EFB0937A00A5E0A09325
:100080007B00A8E0A093810010928000AFEFA093C6
:100090008500A0938400A6E0A093360010928B0008
:1000A00010928A00B3E0AFE3A91B51E0392F33303F
:1000B0002AF0A05CBC4F53953350F9CFB093890020
:1000C000A0938800A0917A00A4FFFCCFB6EBB09378
:1000D0007A00A2E0A0936F00A9E0A093810062E003
:1000E000A0E0A0937B00A1E0A09353008895E5B821
:1000F000C4B884FF1AC0A8E10000AA95F1F7EF93F5
:10010000FF93E7B1F8B1A4E0C2FCA2E0C0FCA1E01B
:10011000BF2FBA2BAE2BB8B904B9A7B9E7B9F8B954
:10012000FF91EF910BC00C947300ACE10000000054
:10013000AA95F1F725B9E5B8000004B9A0918400AB
:10014000A0918500B0918900A395AB1760F7A091AD
:100150007A00A4FFF3CFB6EBB0937A006A9571F7FB
:100160006091780070917900308186FD630F619312
:10017000308186FD731F80FF7193652F4A9579F753
:1001800010926F0010928100B6E0B0937A0008954B
:10019000D601CF01C8011008407E01013E01013E99
:1001A00001013E01017E404018000720080808F8C0
:1001B0000000002060A03FA06020020202FF0202B7
:1001C000021010101F000000050842818989760581
:1001D00008C2A19189860508000402FF00101005DD
:1001E00008F878385888091003081C3E7F0D080766
:1001F00010FF818181F1E1C1FF4040404743410D43
:10020000080110FFFF11080310F1E1C14743410E3F
:100210000008202121122060E0E0E0FEFE0402013F
:100220000001037F7F21C2C4C4C04094840007033F
:100230000102040E080210FEFE7F7F000000001184
:100240000005202060E0E0E00201000103C2C4C418
:10025000C0400703010204010410090A0C4E6F7428
:100260002063616C696272617465642120466F72FB
:10027000FF63616C6962726174696F6E20636C61A7
:100280006D70207468652033FF70696E7320746F21
:1002900067657468657220616E642073746172743E
:1002A000207769746820746865FF6B65792E20413A
:1002B000636B6E6F776C6564676520746865207327
:1002C000656C662D74657374207769746820746832
:1002D00065206B65792077697468696EFF32732ECB
:1002E00020446973636F6E6E6563742070696E730A
:1002F00020616674657220746865FF6D6573736153
:100300006765202269736F6C617465FF50726F625C
:100310006521222069732073686F776E2E20536FDA
:1003200066747761726520616E6420646F63756DB9
:10033000656E746174696F6E2069732061742073D7
:10034000766E3A2F2F206D696B726F636F6E7472C9
:100350006F6C6C65722E206E65742F7472616E7393
:100360006973746F72207465737465722000B903C9
:10037000870358032E030703E402C302A402880282
:100380000000140029003E0053006900800097001F
:10039000AE00C600DF00F80012012D014901650121
:1003A0008201A001BE01DE01FF01210244026802B8
:1003B0008E02B502DE020903350364039403C80309
:1003C000FE0337047304B404F90443059305EA05F6
:1003D0004906B3062907AE074808FF08DE09FD0AEB
:1003E000930C480F991B0000000000000000000063
:1003F0000000000000001E2121211200807F00006B
:10040000007E4A4A4A34000000000000FC402010F0
:1004100008040201000000010101010101010101C4
:10042000010101017F0488D0E0F0F8000000000025
:1004300000000000000000000000000000FC949498
:100440008400000102FC0000000000000000000029
:1004500000001E21212112E0C0804020100F00006A
:1004600000C020202040000000FC00009E9E0403ED
:10047000030303020000002020232425252320203D
:10048000203F00007B7B2142840480C000000000EC
:1004900000000000000000000000FC9494840004B0
:1004A0000607070708F00000000000000000000039
:1004B000000000803F2121120C00000000FF00001E
:1004C00000F0084848C80000FE0000E7818181C1B3
:1004D000E1F18181810100202020212121202020A3
:1004E0003F0000F340404041434740407FC0000090
:1004F00000000000000000000000000048949494F8
:100500006400000000FF0000000000000000000088
:100510000000000000003F2121120C0000FF00003D
:1005200000F0084848D0000000000000FEFE04046F
:100530000404040404070008080809090908087FDE
:100540003E1C08087F7F20202020202020E0000083
:1005500000000000000000000000000000004894BF
:100560009494640000FF0000000000000000000000
:1005700000FF003C0A090A3C00223129292600001C
:1005800082868E9EBEFEFEBEDEEFF6FAFEFEFAF21A
:10059000E2C28200000008080804027984A4A4686A
:1005A00000FF00000000000000000000000000004C
:1005B000000000000000000000FF0000F0282428D8
:1005C000F0001008FC000000000000000000000027
:1005D000003C0A090A3C00FF000000000000000087
:1005E00000000000000000000000040C1C3C7CFF28
:1005F0007C3C1C0C040000000000009EA1A9A99AEC
:10060000804323130B0703FF0303030303030000CB
:10061000000000000000000000788484844800FF8F
:10062000000000000000000000F00804E2110909C9
:10063000090909090909091121C2040810E000008B
:100640000001020404070000000000804020108820
:100650004423100804030000000000000000000014
:1006600000FE0100FC02010000000000000000008C
:1006700000000000000000000079494979000000F6
:10068000000000000000083E22223E08087F2214DD
:10069000087F7F0814227F087F7F00007F7F00583B
:1006A0006404645800807C20201C22222222223EE6
:1006B0003E2222222222080808080808384040303A
:1006C0004040304040304038007E1515150A000685
:1006D0002979290600000000000000607E0A353FED
:1006E000002A1C361C2A00E0514F41FF007F404089
:1006F00040FF007F407F40FF00E0544C44FC001866
:10070000247E2418007C404040FC007C407C40FC5F
:100710000014B6FFB6140004067F06040010307FF4
:1007200030100008083E1C0800081C3E080800782D
:100730004040404000083E083E0800303C3F3C300E
:1007400000030F3F0F030000000000000000005FE7
:10075000000000000300030000147F147F14002435
:100760002A7F2A120023130864620036495522505A
:1007700000000503000000001C224100000041228F
:100780001C000014083E08140008083E0808000079
:10079000A060000008080808080000006060000071
:1007A000002010080402003E5149453E0000427FEF
:1007B0004000004261514946002141454B3100183B
:1007C00014127F10002745454539003C4A494930FD
:1007D00000017109050300364949493600064949B7
:1007E000291E0000363600000000563600000008C2
:1007F000142241000014141414140000412214089F
:1008000000020151090600324979413E007E111172
:10081000117E007F49494936003E41414122007F17
:100820004141221C007F49494941007F09090901D2
:10083000003E4149497A007F0808087F0000417F57
:100840004100002040413F01007F08142241007F09
:1008500040404040007F020C027F007F0408107F70
:10086000003E4141413E007F09090906003E4151D9
:10087000215E007F09192946004649494931000196
:10088000017F0101003F4040403F001F2040201FEA
:10089000003F4038403F00631408146300070870AD
:1008A000080700615149454300007F41410000189D
:1008B000247E2410000041417F0000040201020454
:1008C00000808080808000000102000000205454DD
:1008D0005438007F484444380038444444200038A9
:1008E0004444487F00385454541800087E090102DB
:1008F00000085454543C007F080404780000447DF0
:100900004000002040443D00007F102844000000CB
:10091000417F4000007C04180478007C08040478BF
:10092000003844444438007C14141408000814149B
:10093000147C007C0804040800485454542000042B
:100940003F444020003C4040207C001C2040201CB4
:10095000003C4030403C004428102844000C5050DB
:10096000503C004464544C440000083641000000F0
:10097000003F00000000413608000008082A1C085B
:10098000003C2623263C11241FBECFEFD8E0DEBF5B
:10099000CDBF21E0A0E0B1E001C01D92AE3BB207A7
:1009A000E1F70E94F0320C94DC3A2ACB5A98529A22
:1009B0005D98559A80FF03C053985B9A02C05B987C
:1009C000539A5998519AEAD552985A9AE7D5661F80
:1009D0001AD0661F18D0661F16D0661F14D0661F67
:1009E00012D0661F10D0661F0ED0661F0CD0D6D551
:1009F0005A98529A5198599A55985D9A5A98529A7B
:100A00005B98539A08955A98529A18F453985B9A9F
:100A100002C05B98539A52985A9AC0C50895609341
:100A20003F01809304018093A501862F880F680FF2
:100A3000660F60930F01089580913F01809301013B
:100A40008091A50180930301089560910101809137
:100A50000301E5CF0895CF93C82F692F81E0A6DF6A
:100A60006C2F81E0A3DFCF910895682F80E09ECFA7
:100A700008958DE05DD58AE05BC508951092A501CB
:100A800060E080E0CCDFF5CF0895CF93DF93C0E046
:100A900080E1EBDF80E0E9DF8C2F806BE6DFD0E6E2
:100AA00060E081E083DFD150D9F7CF5FC93081F7B3
:100AB000E5DFDF91CF910895CF9358985A985B98CE
:100AC0005D98509A529A539A559A63D555985D9A63
:100AD0005198599A84E164D55098589A84E160D528
:100AE00087E293E00E94AE3AC82F82958695877080
:100AF0008062BBDF8C2F8F718068B7DF80E4B5DF49
:100B000084EAB3DF8CE2B1DF88ECAFDF80ECADDFED
:100B100081EAABDF8AEAA9DF8CEAA7DF88E0A5DFFC
:100B2000B4DF8FEAA2DF60E080E079DFCF91089543
:100B300081E08093A50160E072DF9BCF089582E0A1
:100B40008093A50160E06BDF94CF089583E08093EC
:100B5000A50160E064DF8DCF08950895582F28E047
:100B600030E090E841E080E0652F642309F0892BB4
:100B7000440F969521503109B9F70895B0E0A0E0EF
:100B8000E4ECF5E00C941D3A6C0110E0C801860F0E
:100B9000911D81369105ECF5E42FEE0DFF27FF1F27
:100BA000CF01E234F105ACF5D42FD695D695D69584
:100BB000019733E0959587953A95E1F7F22FF2701A
:100BC0004F2E21FF0DC0482F4D1B550BFA01E09F02
:100BD000A001E19F500DF09F500D1124C40ED51EB1
:100BE000C82F893008F0C8E0862F82958F70582E64
:100BF000689454F86F70762E2170622E780151E05F
:100C0000E51AF108CD1750F4809104018F70806BC4
:100C10002CDFCDB7DEB7E0E10C94393A8D2F806B35
:100C200024DF852D22DF872D20DF912C812C56019A
:100C3000AE0CBF1C0815190531F44420B1F0C01AE0
:100C4000D10ADF5FDFCFF501E819F909611003C0B0
:100C5000F601E80DF91D8491411080DF682F81E0D5
:100C6000A5DE8FEF881A980AE5CFC00ED11EE9CF16
:100C7000EF920F93482F8F7320E6829FC0011124BB
:100C80008A519C4F28E046FF28E3209310011092E0
:100C9000000147FD08C02091100130E230930001AF
:100CA0002D5F2093100120E2E22E08E120E0409128
:100CB00000016091100162DF0F91EF900895EF92B3
:100CC0000F93262FFC013491319644913196049173
:100CD0003196E490E09100014E0F60911001630F96
:100CE00004964CDF0F91EF90089560E0E8CF0895EF
:100CF000EF920F93CF93C82F80913F018F5F809326
:100D00003F0140910401440F440F440F26E0C29F6D
:100D1000C001112428E0E22E06E020E060910F01DE
:100D20008A57994F2BDF80910F018A5F80930F01C3
:100D3000EFEFEC0F8C2FEA30B0F4F0E0EE55F94F06
:100D40000C943039AC06B006B906C106BF06BB0626
:100D5000BB06BD06C706C7068EE3EAD38CE703C011
:100D60008CE7E6D38CE3E4D3A895CF910F91EF9075
:100D700008958CE7F2CF82E5F6CF8DE2F4CF85E7D8
:100D8000F2CF8FE4D5D388E6D3D38DE6ECCF8CE4D5
:100D9000EACF8F5CADCF089580E2AACF0895CF93BC
:100DA000C82F1C1614F0CF910895F6DFC150F9CF6B
:100DB00090913F0180E1891BF2CF0895CF93C82F16
:100DC000F7DF8091A5018F5F8093A501883068F0DF
:100DD00087E08093A50181E0809342016C2F809190
:100DE000A5011DDE46DECF91089510924201F6CF97
:100DF000E5DFB9D48091A501833008F03ACE08959B
:100E00003DDED6DF3BCE089593DED2DF91CE08954E
:100E10008DE36ECF0895CF93DF93EC01899181111B
:100E200003C0DF91CF91089563DFF8CFCF93DF93B5
:100E3000EC01FE018491982F9F7719F059DF2196DC
:100E4000F8CFDF91CF910895CF93DF93EC01CE01DE
:100E50000E94AE3A982F9F7719F04ADF2196F7CF7C
:100E6000DF91CF910895EF920F93FC010491319699
:100E7000E490029683DE0F91EF9008950F9380E93E
:100E800091E0E2DF409189014D3F6CF46091770180
:100E9000709178018091790190917A0103E026E4C4
:100EA00017D10F9108958FE323DFFBCF90911D01A0
:100EB0009F70923071F49CDF84E790E0C5DFE09191
:100EC0004001F091410122E044E06FEF848195817F
:100ED000E1C1089597FF09C08F939F938DE208DFCA
:100EE0009F918F91909581959F4F65E271E04AE0C7
:100EF00050E00E947B3A8FCF0895ECDF01C0EADF1B
:100F00004BCF0895EF92FF920F931F93182F062F48
:100F1000F42E82E791E098DFEE24E0914001F09119
:100F200041018685E81611F4812F09C08485E816F1
:100F300011F4802F04C08585E81611F48F2DD8DEBA
:100F4000E3948E2D833049F71F910F91FF90EF901E
:100F50000895EF92FF920F931F93182F062FF42EF0
:100F600080E046DF88E791E06FDFEE248E2D11DF11
:100F70004FDFE0914001F09141018685E81611F4C0
:100F8000812F09C08485E81611F4802F04C085855F
:100F9000E81611F48F2DACDEFFDEE3948E2D833046
:100FA00029F71F910F91FF90EF900895682F80E02F
:100FB00092E0662309F491E0623009F481E008953B
:100FC0000F93082FE6EAF1E0880F880FE80FF11D74
:100FD00060817181828193816436710581059105FB
:100FE00070F42091020127FD0AC0802FDFDF692FF6
:100FF0000E94B4236EEF23E044E04CD104C04FEFD5
:1010000004E024E065D0C8DE0F910895863058F4DE
:10101000E9E9F1E0E80FF11DE80FF11D8081918110
:1010200063E043D1B9CE08951F93182F80917301C7
:10103000882319F0B1DE80E05BDE7ADD89E691E09D
:1010400003DF812F82958F70E1DF812F8F70DEDFCC
:101050001F9108958091110182958F7019D0809110
:10106000110183701CD080911101DECF0895EDE84D
:10107000F1E0E80FF11D0895CF93F9DF9081C6816B
:10108000C91710F405D001C013D086DECF910895A2
:10109000EEDF8F9380817DDE8F9101C008958F9365
:1010A00087E391E0D1DE8F91E2DF868172CE0895F1
:1010B000DEDF8F9386816DDE8F9101C008958F935F
:1010C00083E391E0C1DE8F91D2DF808162CE08950B
:1010D000AEE0B0E0EEE6F8E00C941B3A142F622E7E
:1010E000702E6B017C010F7080E389838A838B8370
:1010F0008C838D838E83F7FE40C08DE2F9DDF09402
:10110000E094D094C094C11CD11CE11CF11C68EE89
:10111000862E63E0962EA12CB12C033041F150E1D4
:10112000852E57E2952EA12CB12C043001F140EA16
:10113000842E46E8942EAA24A394B12C0530B9F04D
:1011400030E4832E32E4932E3FE0A32EB12C063000
:1011500071F074E6872E912CA12CB12C073039F454
:1011600020E8822E26E9922E28E9A22EB12C9AE0C0
:10117000292E312C412C512C12C075FEC8CF8BE288
:10118000B7DDC5CFC701B6016B5F7F4F8F4F9F4F54
:10119000A20191010E94F23869017A011F5FC8140F
:1011A000D904EA04FB0470F781E1810F9BEA899F6F
:1011B000812D1124A82EA69486E0811B899F112DD4
:1011C00011241695912F990F190F811B182F4E017D
:1011D00087E0880E911C2AE0A401C701B6010E9495
:1011E0005A3AF40101900020E9F731977F01E8189D
:1011F000F9089E2C6701DD24812F90E004968C1560
:101200009D0514F4A3941D5F8A2D90E0845D9F4F8B
:101210000E94AE3AA82E74FE29C0901638F50E1919
:101220008E2C811A800E181424F08EE261DD012FBD
:101230000E19111102C088EF882E912C10E0C00EFB
:10124000D11EE82C082C000CFF08E92DF0E0EC156D
:10125000FD0574F0AA2011F08A2D4ADD662011F0F8
:10126000862D46DD2E96E2E10C94373A00E0D8CF89
:101270003696E01BF10B81E090E08C0F9D1FE80F8C
:10128000F91F808135DD93949E141F04F1F68EE2E0
:101290002FDDDBCF0F93362FBC0190E080E0022FD3
:1012A000242F432F15DF0F9108950F93062FBC01B4
:1012B00090E080E026E54DEF0BDF0F9108950F934E
:1012C000042F28E440E004DF8AE712DD65DD0F919A
:1012D0000895E82FF0E0EE0FFF1FE057FE4F8591D5
:1012E000949120910001420F20911001620F20E0A3
:1012F000BACD0895CF93DF93C82FD62FE091400148
:10130000F091410148E16EE18685E3DFE091400123
:10131000F09141014D2F6C2F8485DBDFE09140017E
:10132000F091410140E06EE18585D3DFDF91CF91FF
:101330000895CF93DF93A9DB80EC9ADC62E088EA22
:1013400091E0BDDC80E894DC8DED91E0CEDC60E0E6
:1013500085E065DB85E891E077DD68E085E05FDBCF
:101360008DE791E071DD88E99AE3C4D18EDB83E4F7
:101370007FDC83E07DDC86EE91E0B7DC61E082E03B
:101380004EDB8EE4B5DC8DE2B3DC8CE991E05CDD14
:1013900069E082E044DB80E5ABDC8DE2A9DC8CE92E
:1013A00091E052DD88E99AE3A5D16FDB81EC60DC46
:1013B00081E85EDC8FE392E098DC60E085E02FDB83
:1013C0008EE496DC8DE294DC85E492DC86E991E0A3
:1013D0003BDD68E086E023DB80E58ADC8DE288DCAB
:1013E00085E486DC86E991E02FDD88E99AE382D105
:1013F0004CDB81E43DDC83E392E077DC81E038DCA8
:101400008FE092E072DC60E081E009DB8EE470DC6A
:101410008DE26EDC84E46CDC86E991E015DD68E049
:1014200082E0FDDA80E564DC8DE262DC84E460DC8D
:1014300086E991E009DD88E99AE35CD126DB82EC5C
:1014400017DC82E815DC85E092E04FDC60E085E0A7
:10145000E6DA8EE44DDC8DE24BDC85E449DC81EAA2
:1014600091E0F2DC68E086E0DADA80E541DC8DE2EA
:101470003FDC85E43DDC81EA91E0E6DC88E99AE343
:1014800039D103DB82E4F4DB8FEF91E02EDC82E0E4
:10149000EFDB8DEE91E029DC61E081E0C0DA8EE4E3
:1014A00027DC8DE225DC84E423DC81EA91E0CCDCDE
:1014B00069E082E0B4DA80E51BDC8DE219DC84E4CB
:1014C00017DC81EA91E0C0DC88E99AE313D1DDDA28
:1014D000D5DA88E191E0B8DC2BDB83E191E0B4DC84
:1014E0002EDB8BE591E0B0DC31DB87E391E0ACDC17
:1014F00053DC83E391E0A8DCC0E08C2F8F7059F4BB
:10150000DC2FD295DF7021F488E99AE3F3D0BDDABD
:1015100060E08D2F84DA80E28C0FEADBCF5FCF357D
:1015200061F788E99AE3E6D0B0DADF91CF910895C8
:101530008F932F932AE080953B9A089410F4439858
:1015400002C0439A000020D027D086952A95B1F793
:101550002F918F91089503D002D001D000D000D0F8
:1015600003D002D001D000D000D003D002D001D0EF
:1015700000D000D0A89503D002D001D000D000D078
:1015800003D002D001D000D000D003D002D001D0CF
:1015900000D000D003D002D001D000D000000895C8
:1015A00090E0893C28F0885C48EC849FC0011124BD
:1015B000009709F4089520918100277019F0DADF6F
:1015C0000197F6CF8130910519F002973EE303C0F1
:1015D00037E180E090E02091B200230F2093B30028
:1015E00042E04093700027E023BF889526E023BFA8
:1015F00010927000A895DCCF8F9384E0D1DF07C0F4
:101600008F9382E0CDDF03C08F9381E0C9DF8F919C
:101610001F93182F106410937C00E12FE0788091C5
:101620003001E81759F0E0933001AEDF8EE9809386
:101630007A0083E083BF889582E083BF20E030E0BA
:10164000A901E0E01FC08EE980937A0083E083BFA8
:10165000889582E083BF6091780070917900260FB1
:10166000371F411D511DE43061F4809132018030FB
:1016700041F084E02030380720F417FD02C01068E4
:10168000CACFEF5F80912F01E817E8F26091330134
:101690007091340117FF04C06091310170913201E3
:1016A00080E090E00E94B0382FEF33E040E050E05F
:1016B0000E94F238B901CA0120912F0130E040E0C8
:1016C00050E00E94F238C9011F9108959B01281B28
:1016D000390B50F0C9010895BC01809133019091FC
:1016E00034016817790718F4861B970B089580E07A
:1016F00090E00895EF92FF920F931F93CF93DF93A3
:10170000F82EE92EC5E64F9B1CC0CF2DDE2D15E52A
:1017100000E0D7FD10C082E043DF110F4F9B1F5F39
:101720001F731F3399F4011103C0CF2DDE2D04E088
:101730000F5F083C78F0802FCDB7DEB7E6E00C9461
:10174000433A81E02DDFC150F1F6DFCF111102C025
:101750000111F1CFA8951C161D06DCF62A97C9F6D3
:10176000CFEFDFEFD6CFCF9367D9C82F809142015B
:101770008823D1F0813051F4C73041F46FE087E025
:101780004ED98BE2B5DA6FE087E049D980E49FE17A
:10179000B1DFC73041F480914201813021F460E033
:1017A00087E03DD905DB51D9CF91089580E593E0DD
:1017B0000E94AE3A382F81E593E00E94AE3A209124
:1017C0003701230F30913801381F20931A013093CD
:1017D0001B0183E0283E380720F0C901885E934052
:1017E00002C080E090E062E370E00E94CB38683095
:1017F00008F067E0EEE6F3E0E60FF11DE60FF11DFD
:10180000459155912591359162E3681B421B530B1D
:10181000649FC001659F900D1124499662E370E0BA
:101820000E94CB38620F731F70937601609375012D
:1018300082E593E00E94AE3A992787FD90956091EA
:10184000370170913801860F971F90933201809372
:10185000310190937201809371010895CF93DF93CA
:1018600024E130E0B9010E94CB38DC01E0E8F3E08C
:10187000E60FF71FE60FF71FC591D59145915591DA
:101880004C1B5D0B4A9FC0014B9F900D5A9F900DC2
:101890001124B9010E94CB386C0F7D1FCB01DF9161
:1018A000CF9108951895189540911C01A091400181
:1018B000B0914101EDE8F1E030E020E0822F241703
:1018C000B0F451911C969C911C97591719F05581B1
:1018D000951303C02F5F3F4FF1CF220F331FF90144
:1018E000E756FE4F20813181293E334008F084E1E4
:1018F000089510921E0110921C0110926C0110921A
:10190000520110921D0110923E0110927301E7E501
:10191000F1E0108211821282E7E7F1E0108A82E0A2
:10192000818B109202011786168614821582168208
:10193000178281EF838B08958FE4FADD86E4F8DD6A
:1019400086E4F6DD96D85E9809DE90E080E0D2CE9F
:1019500008951F93CF93DF93162F98E097B998B906
:10196000E82FF0E0E95AFD4F949195B9262F281BF6
:10197000E20FF11D27FDFA95E491E92BE4B948DE69
:10198000EC01812F45DEAC0120913301309134010F
:1019900036952795C9010397BE01625E7F4F861772
:1019A000970778F4255E3F4FC217D30750F4BA016A
:1019B000625E7F4F8617970720F481E04217530736
:1019C00008F080E014B8DF91CF911F910895CF9374
:1019D00061E080E0BEDFC82F62E080E0BADFC80FC0
:1019E00062E081E0B6DF8C0FCF910895AFE0B0E008
:1019F000ECEFFCE00C941B3AB82E10921E01807F95
:101A0000B9F4E5DF833081F440D88FE592E01CDA49
:101A10008FD88FE36DD980ED97E06CDE8B30B0F41A
:101A200034D885E091E010DA2F96E2E10C94373A51
:101A300006E910E02AD88EEC91E006DAC8DF8330A0
:101A400009F068C01F5F143008F465C071D80E94A7
:101A50009D1E81EC90E0F8D960E08AE293E00E945C
:101A6000BB3A60E08BE293E00E94BB3A60E089E21F
:101A700093E00E94BB3A60E082E00E94B4236C01D4
:101A80009A83898361E082E00E94B4237C019C8375
:101A90008B8360E081E00E94B4238C019E838D8360
:101AA00023E040E26EEFC601F5DB23E040E26EEF9B
:101AB000C701F0DB23E044E06EEFC801EBDB2AE571
:101AC000C216D10424F084E190E09A83898369816D
:101AD0008AE293E00E94BB3A8AE5E816F10424F01A
:101AE00084E190E09C838B836B818BE293E00E9486
:101AF000BB3A0A35110524F084E190E09E838D8382
:101B00006D8189E293E00E94BB3A82E080934201BA
:101B10002ADE06C010E088E243DD015009F08ACFDA
:101B2000EB2DEF70EF87E13009F04DC0EE24E39428
:101B3000F12C78EB872E72ED972E77E4A72EB12C3F
:101B4000E2E0DE2E08E0F0E23F2EC12C1E2D50E335
:101B5000252E5AD955D984E5CBD8C701C6D91CD969
:101B6000113009F0CEC184EF90E06ED964E080912D
:101B700037019091380199DB0E9498058FEE90E033
:101B800063D98091750190917601AFD98EEB8093E6
:101B90002F0107B908B914B815B888EE93E0AADD8B
:101BA000143011F08B3020F4C39484E0C812D1CFEC
:101BB00088EE93E09FDDEFEFEE1AFE0AF8E0EF16F5
:101BC000F10409F0C2CF18E702DF882341F01CD9E5
:101BD0008FE492E039D984E6E3DC1150A9F70E9442
:101BE00045058AEB90E030D923E044E06FEF809127
:101BF0003501909136014EDB0E94980583EB90E011
:101C000023D923E044E06FEF80913C0190913D01A6
:101C100041DB82E080934201A6DD10921E010E940A
:101C200045058FEA90E010D960E082E00E94501BE9
:101C300080907F0190908001A0908101B0908201FE
:101C40009C868B8661E082E00E94501BC0907F01E1
:101C5000D0908001E0908101F0908201DE86CD86F7
:101C600060E081E00E94501B00917F011091800193
:101C70001E830D8362E080E00E94501B80917F01F3
:101C8000909180019C838B8362E081E00E94501BD5
:101C900080917F01909180019A87898761E080E03F
:101CA0000E94501B80917F01909180019A838983CB
:101CB0002F85213029F020913B01223009F00AC202
:101CC000029698878F83C4011AD9C60118D9B80122
:101CD000110F880B990B03E026E444EFF9D98E012C
:101CE0000F5F1F4F9E01215F3F4F7801F7018191E8
:101CF00091917F010A97853B9105D0F42E173F07FC
:101D0000A9F749E4C42E43E0D42EF80160810E5FA8
:101D10001F4F6E5EC6010E94BB3AFFEFCF1ADF0A6B
:101D20000E151F0591F70E94980582EB91E08CD863
:101D300082E08093420117DD0E949C2F2F85213085
:101D400029F080913B01823009F0C2C00E94450514
:101D500080E01FD88BE591E077D882E01AD884E242
:101D600090E072D820E4F22E10E03AE0832E912C1D
:101D7000A12CB12CBEDD10921E0160E082E00E9419
:101D8000501B009189012091770130917801409199
:101D9000790150917A01073F0CF4A1C100938901A8
:101DA00020937701309378014093790150937A0121
:101DB000073F09F09CC120563109410951092039DA
:101DC00035454105510508F092C160918B01709134
:101DD0008C01CB018B569F4F8B32914008F087C10D
:101DE0001F5F153008F484C180E593E00E94C93A72
:101DF0000E9445058DE190E027D880918B0190915C
:101E00008C0168D8D3DC88E088B989E087B980E2A2
:101E100084B982E0FDDB853D9340DCF714B8109275
:101E200032011092310182E0F3DB7C01809171017B
:101E300090917201909332018093310182E0E8DB4E
:101E40006C01CC0CDD1C109232011092310182E049
:101E5000DFDB4C01A0907101B0907201B0923201B1
:101E6000A09231010E94980586E190E00E9424072B
:101E700082E593E00E94AE3A182FD701A80DB91D54
:101E8000AC19BD0995010E94453996010D2C000C35
:101E9000440B550B0E9414391D5F120F612F82E510
:101EA00093E00E94BB3A812F012E000C990B12D8AF
:101EB0007DDC82E08093420156DC10923B0189E494
:101EC00093E00E94AE3A682F8CE493E00E94BB3A04
:101ED00089E180932F0180E00E94AA320E9445058B
:101EE00085E091E00E9424070E94980586E492E034
:101EF0000E94240710921E0182E08093420133DC8D
:101F000093CD123089F52091330130913401A8E549
:101F1000BBE10E94363924EC36E340E050E00E94F9
:101F2000143929013A0181E085B9F5E0F4B980E07E
:101F300063DB841995099A83898381E184B980E000
:101F40005BDB841995099C838B8384E085B984E1EC
:101F500084B981E051DB841995099E838D8389EDD5
:101F600090E00E94240734C0133049F5D5B82AE028
:101F700024B980E041DB2091330130913401369562
:101F8000279538872F83821B930B9A83898382E25C
:101F900084B980E031DB2F813885821B930B9C83D1
:101FA0008B8305B9E8E2E4B981E026DB2F8138852F
:101FB000821B930B9E838D838BEC90E0D2CF1430E9
:101FC000D1F48FE492E00E94240701DD8111A8C0C2
:101FD0000E94980589819A810E946A070E94CC0616
:101FE0008B819C810E946A070E94CC068D819E8114
:101FF0000E946A07CECD153099F415B8D4B880E0A8
:10200000FBDA9A83898304B981E0F6DA9C838B83B7
:1020100034B882E0F1DA9E838D838BEE90E0A1CF1D
:10202000163039F5D4B8D5B880E0E6DA209133011E
:1020300030913401821B930B9A83898304B905B9CB
:1020400081E0DADA2091330130913401821B930B65
:102050009C838B8334B835B882E0CEDA209133018B
:1020600030913401821B930B9E838D8387EE90E029
:1020700078CF173059F52091330130913401A8E51C
:10208000BBE10E943639A50194010E94F238290172
:102090003A01D5B8F3E0F4B980E0AEDA84199509D5
:1020A0009A83898305B92CE024B981E0A5DA8419E3
:1020B00095099C838B8335B824B882E09DDA841916
:1020C00095099E838D8385EC90E04BCF113009F00C
:1020D0007FCF5FCD98878F8310923B01F4CD0F5F48
:1020E000CA01B901A50194010E94F23854CE10E052
:1020F0000E94980560917701709178018091790133
:1021000090917A0104E026E4409189010E946808D8
:102110000E94D80688E244DAFA94F1102BCED8CE89
:1021200082E0C82E55CF80913B0181110DC089E41A
:1021300093E00E94AE3A61E0680F8CE493E00E9465
:10214000BB3A81E080933B010895EF92FF920F9399
:102150001F93CF93DF93D62FE82FF0E0E65AFD4F81
:10216000E491E8B9E860E7B915B8E62FF0E0E95A7C
:10217000FD4FE491E4B9CE2FCC0F88E8E82E83E13F
:10218000F82E8D2F39DA8C01C4B98E159F0518F100
:10219000892BE1F00E94A6058BE391E00E942407C1
:1021A000D80120EA36E841E050E00E944B3928E9A6
:1021B00037EB40E050E00E94F238C90122E041E4F0
:1021C00067EF68D888E087B988B914B8CDB7DEB7AB
:1021D000E6E00C94433A7801D4CF0F931F93CF934A
:1021E000DF9385E015DA85E00FDA8C01EC01CC0F86
:1021F000DD1FCC0FDD1FCA56DF4F10923901C438E6
:1022000083E0D80770F486EA91E00E9424070E94D8
:10221000D80681E080933901DF91CF911F910F9112
:10222000089585EB91E00E94240762E0CE013DD83D
:102230000E94CC060A3F86E01807A0F4033316403C
:1022400050F488EB92E00E9424070E94D8068DEC9F
:10225000A7D972DBE1CF8FEB92E00E9424070E94A6
:10226000D806DACF82EB91E0F8CFFC019C01261B67
:10227000370BCA0170E060E0A901460F511D452FE0
:102280005527620F240F351FAC01470F511D452FF5
:102290005527780FDA01AA0FBB1F8A0F9B1F4B3EF1
:1022A00020F4E217F30740F7089590E080E00895E6
:1022B000A9E1B0E0EEE5F1E10C941B3A582E462E70
:1022C000342EA895E62FF0E0E95AFD4F24912E8791
:1022D000220F2F8B339634913A8BE42FF0E0E95A9A
:1022E000FD4F44914983339684918F83E52DF0E02F
:1022F000E95AFD4F2490922D990F9F873396249190
:102300002B8328602C8338603A8345B9EE84E42A15
:10231000E4B827B93B8138B9862F76D98C014E8530
:1023200044B9842D71D9B82E998714B822D915B81B
:10233000E4B8842D69D9B801C9D96C018A8187B9FB
:1023400088E088B9998192299D8395B994B9852DA2
:102350005BD9C2D94C0115B80CD925B8852D54D9F3
:10236000BBD99D878C8724B8852D4ED9B5D93C0122
:102370006C857D85C401AAD98032E1E09E0730F4E6
:10238000F0E2CF16F1E0DF0608F480C62C853D852B
:10239000C20ED31E800F911FC816D90620F01D87CC
:1023A0000C876B2C79842091520180916C01820FF3
:1023B0009927991F02974CF0213009F095C590910B
:1023C0004F018091690198138FC5D980DD0CFE847F
:1023D000FD283D2D32293B878C859D8584379105CD
:1023E00008F48FC10A96880F991F6816790608F0BD
:1023F00088C19C8197B9EB81E8B9F4B8842D00D9E4
:102400008C01832D05D97C01D5B8842DF9D898018C
:10241000295A3D4F2817390708F0ADC088E088B920
:10242000FA81F7B92B8524B925B9832DE9D88834E9
:102430009F4008F49BC085E080931E0182E2809358
:102440001D011093480100934701B701C80149D904
:1024500090934E0180934D019801A0E1B7E20E9454
:102460003639209118013091190150E040E00E9466
:10247000F23830934A01209349018F898D2984B91C
:1024800015B84C8147B98B8188B9832DC1D88C018F
:10249000842DB6D8B80125D99C0190934C01809326
:1024A0004B0190911D019F70943071F5409149014D
:1024B00050914A0160914D0170914E01C901D5DEE4
:1024C0000097F1F0D4B8EA899C81E92BE7B9842D13
:1024D00097D88C0188E087B99801A0E1B7E20E9403
:1024E000363920913C0130913D0150E040E00E949E
:1024F000F238A901B80180914B0190914C01B5DEF1
:10250000909348018093470180911D018F70843022
:1025100039F188E088B9EF81FA81EF2BE7B924B867
:102520002D8125B9852D70D88C01D6D89E838D83B9
:10253000842D6ED8E0901F01F0902001BC01C801ED
:10254000D0D89701DC010E943639ED81FE819F01D0
:1025500050E040E00E94F238309348012093470158
:10256000809152018F5F8093520146C385E0809332
:102570001E0184E264CF88E088B9FA81F7B92B851F
:1025800024B925B9852D3CD88C01832D41D87C01F7
:1025900025B8852D35D8895A9D4F8017910708F0A9
:1025A000A3C43B8138B94C8147B9832D29D8813DDB
:1025B000934008F0A1C085E080931E0182E38093E0
:1025C0001D01B801C7018DD8909368018093670100
:1025D000C80182D89C01A0E1B7E20E94363920915F
:1025E0001F013091200150E040E00E94F23830930A
:1025F000640120936301F8E0F8B92A8127B98F8537
:102600008D2984B985B9852D03D88C01832D0E942D
:10261000000BB80166D89C01909366018093650118
:1026200090911D019F70943099F5409163015091F4
:1026300064016091670170916801C90116DE00971D
:1026400019F1D5B8D4B83B8138B9EC814A81E42B73
:10265000E7B9852D0E94000B3FD88C0188E087B92F
:102660009801A0E1B7E20E943639209135013091FE
:10267000360150E040E00E94F238A901B801809193
:10268000650190916601F1DD909362018093610193
:1026900080911D018F70843049F1EB819F81E92B7E
:1026A000E8B9EC819E2B97B915B8FD81F4B9852D59
:1026B0000E94040B7C01842D0E94080B9E838D8355
:1026C0000091180110911901BC01C7010AD89801A5
:1026D000DC010E943639ED81FE819F0150E040E02F
:1026E0000E94F238309362012093610180916C0165
:1026F0008F5F80936C0118C185E080931E0184E395
:102700005ECF88E088B9FA81F7B925B82B8524B95E
:10271000852D0E94040B998B888B0E946C0B9887E7
:102720008F83832D0E94080B9A87898783010C5918
:102730001F4F8F819885B3010817190708F0F6C05D
:102740000E94710B9C8B8B8B20911F01309120017B
:1027500050E040E060E871EA83E09CE10E94F238DA
:10276000AB89BC890E944B39E985FA859F0150E00D
:1027700040E00E94F23849015A0114B815B8FB81B3
:10278000F8B92C8127B981E00E94D00AE4B8842DE1
:102790000E94040B8F359D4008F474C1F4B8842D59
:1027A0000E94000B998F888F832D0E94080B9C8BB1
:1027B0008B8B852D0E94080B9E8B8D8B8B899C8922
:1027C000813D974008F4E6C084E080931E018DE0CF
:1027D00080931D01288D398D89010619170962160C
:1027E000730610F0088D198DC0901801D090190152
:1027F000F12CE12C60E871EA83E09CE1A7019601ED
:102800000E94F238D8010E944B39EB89FC899F0164
:1028100050E040E00E94F23880916C01882371F012
:1028200080915D0190915E01A0915F01B091600186
:1028300082179307A407B50708F099C020935D019C
:1028400030935E0140935F0150936001288D398D74
:10285000A0E1B7E20E943639A70196010E94F23842
:1028600030936401209363016B897C898D899E89F3
:102870000E94710B909362018093610181E040910D
:102880005D0150915E0160915F017091600148159A
:1028900059056A057B0508F06CC080925D01909235
:1028A0005E01A0925F01B092600169857A85888996
:1028B00099890E94710B90936201809361012F812D
:1028C0003885A0E1B7E20E94363920911F0130918E
:1028D000200150E040E00E94F238205F384D3093F4
:1028E000640120936301C0901801D0901901F12C6C
:1028F000E12C9301A0E1B7E20E943639A7019601CD
:102900000E94F23830936601209365012C853D8545
:10291000A0E1B7E20E943639A70196010E94F23881
:10292000309368012093670181E025C08F819885ED
:102930000E94710B9C8B8B8BFD81F4B9852D0E94BD
:10294000040B998B888B0E946C0B98878F83832D47
:102950000E94080B9A878987BC018B899C890E94F9
:10296000710B9C01A4E6B0E00E943639FDCE80E0F8
:1029700086CF8111B8CF90916C019F5F90936C01CD
:10298000882309F477C33092690140926A0150921A
:102990006B0170C3F1E66F16710408F073C0288DE7
:1029A000398D213D47E0340708F46CC085E0809301
:1029B0001E0182E180931D01C90186509F4FED8960
:1029C000FE898E179F0708F043C083E180931D01A5
:1029D000FA89F770DF2E832D806480937C00EBE012
:1029E000EE2E21E030E03E832D830FEF13E0A8951B
:1029F00061E089816ED5F4B886B18D21E9F33E8519
:102A000034B980917A00806480937A0080917A0052
:102A100086FDFCCF8091780090917900F801E81B49
:102A2000F90B2D813E812E0F3F1F3E832D83EA94AB
:102A3000E110DDCFC901880F991F880F991F69E048
:102A400070E00E94CB3870936801609367014ECEAE
:102A50000091180110911901688D798D8D899E89D9
:102A60000E94710B9801DC010E943639E88DF98DC6
:102A70009F0150E040E00E94F238309362012093C1
:102A80006101A6CFF4B8D5B8842D0E94040B6C0167
:102A9000832D0E94080B98878F830E946C0B9A8766
:102AA00089870C151D0508F0A9C0B301C6010E9455
:102AB000710B8C01209118013091190150E040E018
:102AC00060E871EA83E09CE10E94F238D8010E943C
:102AD0004B39E985FA859F0150E040E00E94F238C9
:102AE00049015A01FA81F7B988E088B92D8124B9E2
:102AF00025B9852D0E94040B8C01832D0E94080BA3
:102B00009A878987842D0E94080B7C01003331E16C
:102B1000130708F0E6C125B8852D0E94040B998B98
:102B2000888B24B8852D0E94040B9C8B8B8B15B849
:102B300081E00E94D00A25B8852D0E94040BEB8904
:102B4000FC89E034F64008F079C08133914108F403
:102B500075C0C8018A569F4FE889F989E817F907B7
:102B600008F06CC086E080931E01809152018F5F57
:102B700080935201B70189859A850E94710B9093C9
:102B8000480180934701B701C8010E94710B9093DF
:102B90004E0180934D0114B815B8FA89F8B981E057
:102BA0000E94D00A24B8852D0E94040B853F910510
:102BB00018F52D8124B9832D0E94040B813D93408B
:102BC000D8F0852D0E94080B8D3D9240A8F024B8C6
:102BD000852D0E94040B8D3D924070F025B881E058
:102BE0000E94D00A15B8852D0E94040B853F9105DF
:102BF00018F487E080931E0181E0F8C0E4B8F98101
:102C0000F5B9842D0E94040B6C01832D0E94080BE2
:102C100098878F830E946C0B9A878987C6016C14F2
:102C20007D0410F48619970969857A850E94710BD5
:102C30009C01A4E6B0E00E9436394BCFFA81F7B987
:102C4000298124B925B981E00E94D00A3B8534B995
:102C500035B9852D0E94040B8C010E946C0B998B59
:102C6000888B832D0E94080B9E838D830E946C0BA2
:102C70009A878987842D0E94080B7C0189859A8513
:102C80008E3F994008F4C1C084E080931E018CE01F
:102C900080931D01B301888999890E94710B8C0171
:102CA00020911F013091200150E040E060E871EA7E
:102CB00083E09CE10E94F238D8010E944B39E985FB
:102CC000FA859F0150E040E00E94F2388091520165
:102CD000882371F08091430190914401A0914501B6
:102CE000B091460182179307A407B50708F07AC090
:102CF0002093430130934401409345015093460192
:102D0000B7018D819E810E94710B90934801809341
:102D1000470128893989A0E1B7E20E94363920911C
:102D20001F013091200150E040E00E94F2383093C2
:102D30004A012093490181E04091430150914401AF
:102D40006091450170914601481559056A057B055A
:102D500008F04AC08092430190924401A09245013C
:102D6000B0924601B6018F8198850E94710B9093B5
:102D70004801809347019601A0E1B7E20E943639ED
:102D8000209118013091190150E040E00E94F23882
:102D9000205F384D30934A01209349019301A0E10F
:102DA000B7E20E943639209118013091190150E0A4
:102DB00040E00E94F23830934C0120934B012C8567
:102DC0003D85A0E1B7E20E94363920911F01309184
:102DD000200150E040E00E94F23830934E012093F1
:102DE0004D010ACF80E0A8CF8111D8CF9091520138
:102DF0009F5F90935201882309F43CC130924F01A8
:102E0000509250014092510135C1F1E66F167104A4
:102E100008F067C02889398929343D4008F461C029
:102E200085E080931E0182E080931D01C7018650DA
:102E30009F4F8017910708F03CC083E080931D01ED
:102E40000B810770832D806480937C001BE021E060
:102E500030E03E832D83A89560E089813AD33B859D
:102E600034B935B986B18023E9F724B880917A0066
:102E7000806480937A0080917A0086FDFCCF8091F7
:102E8000780090917900ED81FE81E80FF91FFE83B3
:102E9000ED83115001F7CF01880F991F880F991FFB
:102EA00069E070E00E94CB3870934E0160934D0151
:102EB00057CBC0901F01D0902001B701C8010E94DC
:102EC000710B9601DC010E943639E889F9899F016E
:102ED00050E040E00E94F2383093480120934701CF
:102EE000AFCF88E087B988B914B815B888E087B93A
:102EF000F7EC6F16F1E07F0608F4E4C088B92F857F
:102F000024B938EC3D834C818A81482B4F839F81C3
:102F100097B981E00E94D00AEA81E7B9852D0E9425
:102F2000080B429728F0FD81F150FD83F111EFCF9E
:102F30002F8524B925B961E08981CBD2852D0E94E6
:102F4000040B6C013F8934B915B84C8147B98B81AA
:102F500088B960E08981BDD2842D0E94040B0E9453
:102F60006C0B9E838D839E8594B9842D0E94080BE3
:102F70008C01852D0E94040BB8010E94710B8C01FD
:102F8000842D0E94080B7C01852D0E94040BB70143
:102F90000E94710B98012C5E3F4F2817390708F4E7
:102FA00069C088E088B9EA81E7B924B825B861E04A
:102FB00089818FD2842D0E94080B7C01852D0E946F
:102FC000040BB7010E94710B7C010817190708F068
:102FD00060C0FF85F4B9F5B9852D0E94040B9C01F2
:102FE000CD82DE8288EEE81683E0F80608F063C042
:102FF000C70164E670E00E94CB38C7018759910988
:103000008938914108F05EC02E153F0508F05AC07E
:103010008D819E8143E0969587954A95E1F7893C9D
:10302000910510F088EC90E02D813E81820F931F76
:103030008E159F0508F046C06217730708F042C05E
:1030400080911E01833018F483E080931E0120914B
:103050001C01822F90E0FC01E357FE4F5082468214
:10306000880F991FFC01E756FE4FF182E0822F5F27
:1030700020931C0188E087B988B914B815B88EE28E
:103080000E9478066996E2E10C94373A6B2C7984B9
:103090002BCF2F8924B915B83C8137B94B8148B95A
:1030A00060E0898116D2842D0E94040B0E946C0B73
:1030B0009C01780197CFB70154E0769567955A95B2
:1030C000E1F79BCF642D852D01D0D4CFB0E0A0E0F7
:1030D000ECE6F8E10C941D3AC82FD62FA895862F60
:1030E00090E0FC01E95AFD4F5490339624914C2F07
:1030F00050E0FA01E95AFD4F149133960491609122
:103100006C0130915201630F7727771F672B09F00D
:103110005AC0A8956091220170912301660F771F14
:10312000660F771F709334016093330160917101D2
:1031300070917201660F771F660F771F70933201CF
:10314000609331013EEB30932F0160911C01EDE85B
:10315000F1E030E0840F951F63133AC088E088B92E
:10316000286027B914B915B9B8E1BB2ED12CC12CF0
:103170008D2F0E94040B782E692E8C2F0E94080B35
:103180007C018C199D0997FF03C091958195910948
:1031900003970CF45AC1A895BA946701B110E8CF0F
:1031A0008091220190912301909334018093330107
:1031B000809171019091720190933201809331015D
:1031C00089E180932F01CDB7DEB7E0E10C94393A65
:1031D00051914581450F5527551F4817590701F350
:1031E0003F5FBACF25E8C21621E0D206C8F6043AFE
:1031F000E2E01E0708F0B5C0F8E9AF16B10480F2AE
:10320000C6010E946C0BAC019601A8E9B7EB0E94C5
:1032100036399A0150E040E00E94F23829013A0123
:10322000C5010E946C0B9C01A8E9B7EB0E943639DE
:10323000950150E040E00E94F23888E7C8168FE020
:10324000D80608F072C0F2E0440C551C661C771CCE
:10325000FA95D1F7C301B201620F731F841F951F46
:1032600025E030E040E050E00E94F238A4E6B0E013
:103270000E944B396B017C01FCEACF0EFDE0DF1EA2
:10328000E11CF11C10911E01143008F089CFC150CF
:103290000C2F0D0F802F90E0EC01C95ADE4F2881D2
:1032A000880F991F880F991F8A559E4FFC01222372
:1032B00009F4C4C080809180A280B380A7019601E8
:1032C000281939094A095B0957FF07C050954095ED
:1032D000309521953F4F4F4F5F4FAAE0B0E00E94DD
:1032E0004B39F4E68F0E911CA11CB11CA501940171
:1032F0002C0D3D1D4E1D5F1D0E94F238232B242BEB
:10330000252B09F04DCF133019F081E080931E0179
:1033100082E0888380917301E82FF0E0E65AFE4F47
:1033200000838F5F809373013BCFE8E7AE16EFE039
:10333000BE0670F4E2E0220F331F441F551FEA95CA
:10334000D1F7CA01B901640D751D861D971D88CF7F
:10335000240D351D461D571D5695479537952795C4
:1033600085CFC0901F01D0902001672D762DE616E5
:10337000F70608F4B701C7010E94710B9601DC0142
:103380000E9436392B013C01C7010E946C0B9C0145
:1033900050E040E0C301B2010E94F23829013A0135
:1033A000A0901801B0901901892D982D80179107D0
:1033B00008F4C801B8010E94710B9501DC010E945C
:1033C0003639980150E040E00E94F23888E7E8166C
:1033D0008FE0F806B0F462E0440C551C661C771CC4
:1033E0006A95D1F7C301B201620F731F841F951F45
:1033F00025E030E040E050E00E94F23869017A01B7
:1034000041CF0837EFE01E0770F4CA01B90152E05E
:10341000660F771F881F991F5A95D1F7640D751D88
:10342000861D971DE5CF73016201C20ED31EE41EF7
:10343000F51EF694E794D794C79424CFC082D18226
:10344000E282F38281E08883ABCE110F15B814B904
:103450008C2F0E94040B8135910508F0A1CE15B97F
:103460008C2F0E94040B6C01802F886087B908B9EB
:1034700015B854B8A8E14A2EB12CA12C8C2F0E946B
:10348000040B982E892E8D2F0E94080B8C018A190F
:103490009B0997FF03C0919581959109039734F09B
:1034A000A8954A9458014110E9CF7ACE550C54B8EA
:1034B0008D2F0E94040B5C01F0ECEF16F4E4FF0684
:1034C00008F490CE80EBC8168DE4D80608F068CEDC
:1034D0008ECECF93C82FC09595B160FF10C0982BAA
:1034E00095B994B1892B84B982E00E94D00A84B145
:1034F0008C2384B985B18C2385B9CF9108959C2301
:10350000EFCFB0E0A0E0E7E8FAE10C94233A1AE04C
:1035100008E08FE3C82E99E0D92E07B908B915B88D
:10352000C4B880E00E94040B7C0181E00E94080B7B
:10353000EC0182E00E94080B9C0180911E01893001
:10354000A1F488E087B914B8F0920601E092050171
:10355000D0930801C093070130930A012093090119
:10356000CDB7DEB7EAE00C943F3A84E0E816F10408
:1035700048F4C430D10560F42430310510F399E0EB
:1035800092600AC098E088EEE81683E0F80608F436
:1035900099E0C83ED340A0F3283E334008F494603D
:1035A00097B9D0E0C0E0A89580E00E94FC0A5C01D9
:1035B00081E00E94080B7C0182E00E94080B24E15C
:1035C000A21625E0B20608F4389A24E1E21625E0B6
:1035D000F20608F4399A843125E0920708F43A9A01
:1035E00026E0A216B10430F426E0E216F10410F44D
:1035F000069738F02196C43F81E0D807A1F6D09213
:103600001E01F12CE12CEC16FD0621F4115009F0FD
:1036100084CFA6CF0E94BF0A2FEFE21AF20AF3CF9F
:10362000CF92DF92EF92FF92CF932091770130916A
:1036300078014091790150917A01C09189018AE025
:10364000C82ED12CE12CF12C8C2FCF5F213A96E89B
:10365000390791E049075105E0F480938901A09171
:103660003301B09134010E944B3928E833E140E046
:1036700050E00E94F2382093770130937801409314
:10368000790150937A01CF91FF90EF90DF90CF9026
:103690000895CA01B901A70196010E94F238D4CF5A
:1036A000B0E0A0E0E6E5FBE10C94213AC82F062F3C
:1036B000880F8C0F9FEF960F890F80935401EC2F8A
:1036C000F0E0E95AFD4F1491862F90E0FC01E95A91
:1036D000FD4FF490FC01E65AFD4FD49180911E01FC
:1036E0008130C1F120911C01EDE8F1E090E080E033
:1036F0008217A8F1D860109284011092830181EFA3
:1037000080938901109277011092780110927901CB
:1037100010927A01F6DE88E088B9D7B9F4B8F5B826
:103720008C2F0E94080B5C01802F0E94080BA81AA6
:10373000B90A14B8109256011092550180915501A2
:1037400090915601843F9140F0F088E087B988B9A4
:1037500014B815B8CDB7DEB7ECE00C943D3A36811D
:1037600030130EC030813C130BC0DC01AA0FBB1F0D
:10377000A357BE4F1C964D915C914C3D554050F364
:1037800001963196B5CF15B914B90E94B90A14B88B
:1037900015B80E94C00AA8958C2F0E94080B7C01C6
:1037A000EA18FB0880915501909156018E379105DA
:1037B00020F08BE4E816F10444F2809155019091D9
:1037C00056012DE2E21621E0F2060CF023C201962A
:1037D0009093560180935501B1CF0E94BA0A8C2F65
:1037E0000E94080B8A199B09A8952FEFC21AD20ACA
:1037F00020915501309156012C153D0570F7570168
:10380000A81AB90A1A141B040CF0ADC039ECA3169F
:10381000B1040CF09ACF28EE33E0D5010E9445396F
:1038200097010F2C000C440B550B0E94F2386901D4
:1038300080915501909156010196B0E0A0E08093EF
:103840007F0190938001A0938101B0938201C70111
:103850008A0D9B1D33D220917F01309180014091D0
:10386000810150918201DC010E944B3960937F01FC
:10387000709380018093810190938201609377011E
:10388000709378018093790190937A0187EF809308
:103890008901C6DE8090770190907801A09079012F
:1038A000B0907A018CE293E00E94AE3AA8EEB3E0C9
:1038B000A81BB10987FDB395A50194010E94553954
:1038C00024E630E040E050E00E94F2382093770197
:1038D000309378014093790150937A0180911C01D3
:1038E000882329F080911E01853009F02ECF88E0D1
:1038F00080931E018091890190918A019817C4F0EC
:10390000891323CF8090770190907801A09079015E
:10391000B0907A0140917B0150917C0160917D01D2
:1039200070917E01481559056A057B0508F00DCF99
:1039300040917701509178016091790170917A01FD
:1039400040937B0150937C0160937D0170937E01D5
:1039500080938A01D0928601C092850100938701ED
:10396000C0938801F2CED12CC12C62CFCADD15B82C
:103970008FE087B988E088B9F12EFF0CF4B880E4B5
:1039800080937B0084E580BF8C2F806480937C00D3
:1039900086E180937A000E94C30A10925601109229
:1039A000550110928000109285001092840087E2E9
:1039B00086BB81E280936F0081E080937401F5B84B
:1039C00090911E0180938100953009F005C181E03E
:1039D00090E00C2E01C0880F0A94EAF780958F7052
:1039E00087B9F89483B7817F83BF8091740188235E
:1039F00089F083B7816083BF7894889583B78E7F81
:103A000083BFF894A8958091550190915601803418
:103A1000964059F7789410928100E0908600F090DB
:103A2000870010926F0086E980937A0014B815B869
:103A30008C2F0E94080B2091370130913801821B96
:103A4000930B0C9690938C0180938B018091550180
:103A5000909156018032934008F077CE80915501C5
:103A6000909156019093820180938101F0928001A0
:103A7000E0927F0184EF80938901809155019091BC
:103A8000560182349105C8F060917F0170918001E8
:103A9000809181019091820124E630E040E050E085
:103AA0000E94F23820937F0130938001409381017E
:103AB0005093820186EF80938901A0917501B091A6
:103AC000760120917F0130918001409181015091D8
:103AD00082010E944B3920E233E040E050E00E9436
:103AE000F23820937F0130938001409381015093FD
:103AF00082012093770130937801409379015093AC
:103B00007A018EDD80918901843F09F054C0C09014
:103B10007701D0907801E0907901F0907A0180EA05
:103B2000C8168FE0D806E104F104C0F4A70196019D
:103B30002C543F4F4F4F5F4F60EA7FE080E090E0B2
:103B40000E94F238C20ED31EE41EF51EC092770109
:103B5000D0927801E0927901F0927A01C0907701D9
:103B6000D0907801E0907901F0907A01C114D104ED
:103B700021E0E206F10490F5D092B701C092B601BF
:103B80008091540190E0875B9C4F0E94AE3A90E098
:103B9000B0E0A0E08C159D05AE05BF0530F5C81A54
:103BA000D90AEA0AFB0AC0927701D0927801E09222
:103BB0007901F0927A0114B980917701909178019E
:103BC000A0917901B0917A014997A105B10508F456
:103BD000BCCDD12CC12C82CED7B903CF81E090E0EF
:103BE0009093B7018093B601CBCF34E1C30ED11CC3
:103BF000E11CF11CC816D906EA06FB0610F40E9467
:103C0000931010927701109278011092790110921E
:103C10007A01D1CF892B31F485E1E81685E0F806E9
:103C20000CF0A4CEC701D12CC12CE2CD1F920F9273
:103C30000FB60F9211248F939F93B59904C0809172
:103C40007401811109C0B59B10C0809186009091CC
:103C500087008A3F910548F4809155019091560163
:103C6000019690935601809355019F918F910F90EB
:103C70000FBE0F901F9018951F920F920FB60F92C4
:103C800011248F939F9310927401B09B10C0809168
:103C90008600909187008A3F910548F480915501F4
:103CA00090915601019690935601809355019F91F2
:103CB0008F910F900FBE0F901F9018950F9221E0DB
:103CC0008C32920710F48CE291E08C52914069E1C1
:103CD00070E00E94CB3899E16B3210F0982F6BE2C4
:103CE000981BEDECF2E0E60FF11DE60FF11D9F933E
:103CF000CF010E94AE3A482F3196CF010E94AE3AD2
:103D0000582F3196CF010E94AE3A282F3196CF011D
:103D10000E94AE3A382F6F91421B530B649FC00133
:103D2000659F900D11240C9669E170E00E94CB38DC
:103D3000620F731FCB010F900895B0E0A0E0E3EA9B
:103D4000FEE10C94213A88E893E19093230180935B
:103D5000220190933401809333018EEB80932F01E5
:103D6000C8E0C8B988E187B90E94C80AC7B984E029
:103D70000E94040BAC018B5C9840833F9140A0F4FF
:103D800081E080933E012091330130913401AFEB0B
:103D9000B9E00E9436399A0150E040E00E94F238C2
:103DA00030932301209322018091220190912301DD
:103DB00090933401809333018EE00E94080B8EE0D3
:103DC0000E94040B90933801809337010E94D60B18
:103DD00098DB88E0F82EF8B8D9E0D7B9C1E0C5B9CA
:103DE000C4B980E00E94040B8C019AE0B92EB7B8E8
:103DF00024E0C22EC5B8C4B881E00E94040B080FAD
:103E0000191F3CE0D32ED7B840E1E42EE5B8E4B862
:103E100082E00E94040B080F191F15B8D8B9D7B952
:103E2000C4B980E00E94040B0E946C0BEC01B8B88E
:103E3000B7B8C4B881E00E94040B0E946C0BC80F95
:103E4000D91FD8B8D7B8E4B882E00E94040B0E940A
:103E50006C0BC80FD91FF7B8F8B814B880913301AC
:103E6000909134016C01CC0CDD1CC80ED91EC01A17
:103E7000D10ACC1ADD0AF12CE12C9801A0E9BAE1B3
:103E80000E943639A70196010E94F23849015A0171
:103E900030933D0120933C019E01A0E9BAE10E94CC
:103EA0003639A70196010E94F238309336012093EB
:103EB00035012057354E3093200120931F0180E7B4
:103EC000881A85EE980A909219018092180189E16A
:103ED00080932F01CDB7DEB7ECE00C943D3ACF9242
:103EE000DF92EF92FF920F93CF93DF93F82ED62FAE
:103EF000C42F0E94C90688E191E00E942407F6D1F0
:103F00006D2F8F2D0E941E31C090BA01D090BB0141
:103F1000E090BC01F090BD018091020187FD05C0D9
:103F2000C114D104E104F10421F084E191E00E9484
:103F300024078D2F0E94C906C114D104E104F104A5
:103F400009F474C00E94CC0680915A010E94E007D7
:103F5000CC2309F467C080913F018D3030F4865046
:103F6000990B8D5A9C4F0E94240780E00E94F8060E
:103F7000CD28CE28CF2809F45EC06091BA01709197
:103F8000BB018091BC019091BD0103E028E447EFA3
:103F90000E94680887E291E00E9424078EE593E082
:103FA0000E94B63A23E046E464EF0E944A098091F9
:103FB000B2019091B301A091B401B091B501892BE8
:103FC0008A2B8B2B01F180E00E94F8066091B201F0
:103FD0007091B3018091B4019091B50104E028E49F
:103FE00040E00E94680882E291E00E94240723E0FA
:103FF00040E26FEF8091B8019091B9010E944A09A7
:104000000E94D80607C080E00E94DE06809142012F
:104010008823B1F3DF91CF910F91FF90EF90DF9064
:10402000CF90089580E00E94F806A7CFC11193CFEA
:1040300080E00E94F80680915A010E94E00780917A
:1040400002018E3F0CF0B3CF8FE391E00E94240772
:1040500060910B0170910C0180910D0190910E0106
:1040600003E028E4409102010E946808A0CFEF928B
:10407000FF920F931F93CF93DF93182F0E943E055B
:10408000809187010E94C9068BE591E00E94240778
:1040900013D5609187018091880166D3EC019093DC
:1040A000840180938301E0908501F0908601CA3FEE
:1040B0008FEFD80720F489E191E00E9424078091D6
:1040C00088010E94C906112309F445C090913F015F
:1040D0008DE0891B0E94CF0689E790E00E942407AB
:1040E0000E94980560917B0170917C0180917D0117
:1040F00090917E0104E026E440918A010E946808C4
:10410000CA3FDF4F68F48AE491E00E94240722E06E
:1041100044E06EEF80918301909184010E944A09EE
:104120000E94D8060E949F05E114F10469F083E41F
:1041300091E00E94240722E045E26FEF8091850123
:10414000909186010E944A090E94D806CDB7DEB739
:10415000E6E00C94433A0E94D806C2CF8F7021F457
:104160000E94A6050C94ED1008958F3021F49091D3
:104170003901913011F08F5F089580E00895CF9359
:1041800084E890E00E94F52BC0E00E94790C60E08A
:1041900082E00E94661862E080E00E9466180E9439
:1041A0003E05809173018823A9F041E062E080E040
:1041B00096DE8C2FD3DF88EE93E00E947A0B81117C
:1041C00005C08C2FD2DFC82F8A3FF8F20E94450528
:1041D000CF91089584E890E00E94240787E593E05A
:1041E0000E9424070E9498058FE30E94780680E0D1
:1041F0000E94DE060E94D806DCCF0F931F93CF9358
:10420000DF93C0E0D8E012EF0DE00E94790C60E08F
:1042100082E046DAD0931E0180918901843FE1F467
:104220008091770190917801A0917901B0917A0104
:1042300084369105A105B10578F440E060E082E0A4
:104240000E94BB2E6093770170937801809379016F
:1042500090937A011093890180918901823F4CF1FA
:1042600080938A018091770190917801A0917901E2
:10427000B0917A0180937B0190937C01A0937D01A2
:10428000B0937E0181E0F3DE8C2F68DF88EE93E04F
:104290000E947A0B811106C08C2F67DFC82F8A3FDE
:1042A00008F4B3CF0E944505DF91CF911F910F9184
:1042B00008950E943E058DE790E00E9424078091BA
:1042C0003F01902F981B892F0E94CF0689E790E02D
:1042D0000E9424070E9498058FE30E9478060E949E
:1042E000D8060E949F050E94D806CECFA6E1B0E076
:1042F000ECE7F1E20C941B3A82E08093020180919A
:104300001E01813009F0F0C180917301813009F004
:10431000EBC140905A0124E0429EF0011124EA557D
:10432000FE4F80819181A281B381893032E593076C
:10433000A105B10508F0D8C11C01712C81E08715D9
:1043400008F4D6C1842D0E94D607982E892EE82D18
:10435000F0E0E65AFD4F5490892D90E0FC01E95AB7
:10436000FD4FE49115B828E028B9372D3170632E40
:1043700020EF2216310408F0C0C13111BEC10091F6
:1043800018011091190100591A4121E030E0092C5F
:1043900002C0220F331F0A94E2F7C9018860852901
:1043A00087B934E1398B892D0E94000B5C01882D7F
:1043B0000E94080B24E0A216B10410F4049728F020
:1043C00039893150398B3111EECF80E480937B00F5
:1043D00094E590BF892D806480937C0026E1209332
:1043E0007A00F12CE12C109280001092850010923E
:1043F000840087E286BB0E94C30A872D90E09A8BD7
:10440000898B611083C181E88093810058B886B39D
:1044100085FD0CC080FFFBCF21E026BBA89597014E
:104420002F5F3F4F79012035310589F738E038B9E2
:104430001092810090E296BB209186003091870017
:10444000690140918400509185002417350738F4A4
:1044500080FF05C021E026BB3FEFE31AF30A86E99F
:1044600080937A00B4E15B2E892D0E94000B5C01E1
:10447000882D0E94080B24E0A216B10410F40497C2
:1044800018F05A945110F0CF80903C0190903D016B
:10449000820C931C800E911E20911A0130911B01F9
:1044A00000398AE1180708F03AC169E191EEC916AE
:1044B000D104E104F10430F4C60165E070E00E942B
:1044C000CB38645128523109261B310967FD3395D9
:1044D00066E0862F90E0B0E0A0E08C159D05AE056B
:1044E000BF0508F025C1C81AD90AEA0AFB0A6620E6
:1044F00029F082E2C80ED11CE11CF11C90E5E916FE
:10450000F10418F0C12CD12C76018BE0C816D1042F
:10451000E104F10428F091E0C91AD108E108F1089A
:10452000B12CA12CA8EEB3E00E9436396B8B7C8BAA
:104530008D8B9E8BA0913301B091340198010E9424
:104540003639A50194010E94F238442755276B891A
:104550007C898D899E890E94F238C9010E942E0CA7
:10456000FC01A5019401C701B6010E94B0384B01BE
:104570005C01BF0190E080E0E3E0660F771F881FD9
:10458000991FEA95D1F76B5F7F4F8F4F9F4F2AE0BE
:1045900030E040E050E00E94F238C501B4010E94D2
:1045A000F238E989FA89EE0FFF1FEE0FFF1F81E055
:1045B00090E08C0F9D1FE80FF91F20833183428309
:1045C0005383611018C09CE0C916D104E104F104C2
:1045D00090F07394E989FA893196EE0FFF1FEE0F80
:1045E000FF1F81E090E08C0F9D1FE80FF91F2083D3
:1045F000318342835383A895739493E0971508F011
:104600009DCE88E088B984E00E94D00A91E00D81B7
:104610001E812F81388549815A816B817C814017A9
:1046200051076207730708F090E00D851E852F85FE
:10463000388949855A856B857C8582E0401751070A
:104640006207730708F483E024E0829FD0011124FD
:1046500021E030E02C0F3D1FA20FB31FE92FF0E047
:10466000EE0FFF1FEE0FFF1FE20FF31F0D911D91C5
:104670002D913C914081518162817381041715070E
:104680002607370708F0892F34E0839FF0011124B3
:1046900021E030E02C0F3D1FE20FF31F40815181DC
:1046A0006281738140930B0150930C0160930D0163
:1046B00070930E0180FD40C030EF23163104E0F509
:1046C0008BEF8093020180910B0190910C01A091DE
:1046D0000D01B0910E01892B8A2B8B2B11F41092B6
:1046E000020188E087B914B86696E2E10C94373A83
:1046F000842D0E94D6074C012ACEE4B9852D88600E
:1047000087B900911801109119014BCE58B80E9439
:10471000CC0A90E296BB81E88093810078CEC401F8
:1047200060EB76E30E94CB38695F285D3F4FD1CEC6
:10473000C12CD12C7601DBCE8CEF80930201CB0112
:10474000BA016B5F7F4F8F4F9F4F2AE030E040E010
:1047500050E00E94F23820930B0130930C014093FB
:104760000D0150930E01AFCFAEE1B0E0EAEBF3E202
:104770000C941B3A662EB82E860F898320911E0159
:10478000283059F520917B0130917C0140917D01C9
:1047900050917E0157FD15C010918A0109C0CA01D0
:1047A000B9012AE0312D412D512D0E94F2381F5FB1
:1047B000173FACF391F4243160E036074105510511
:1047C00018F48FEF9FEF45C1173F39F480E02817A9
:1047D0008DE738074105410510F020E03DE72C8BBF
:1047E0003D8B26EDA22EEAE5F2E0E60DF11D859166
:1047F00088608E87EAE5F2E0EB0DF11D8591886017
:104800008F87E7E5F2E0E60DF11D7590E7E5F2E050
:10481000EB0DF11DC59090EC692AB92A81E0E82ED4
:10482000F12C012D112D8E831F82188619861A8670
:104830001B861C861D86188E198E1B8E1A8E0E9452
:10484000811A88E088B960927C000E94C40A3F8582
:1048500037B975B874B852E05A95F1F70000000006
:1048600014B815B8DD243E8537B975B874B86092B0
:104870007C00A895A0927A0080917A0086FDFCCFFA
:104880002090780030907900B0927C004C2DE5D0DB
:104890002091780030917900288B398B3F8537B98A
:1048A000C5B8C4B8A895B0927C00A0927A00809157
:1048B0007A0086FDFCCF609178007091790060925B
:1048C0007C00472DCAD0409178005091790014B8EF
:1048D000CB01820D931DE80EF91E011D111DEA8208
:1048E000FB820C831D8388899989840F951F2E81F3
:1048F0003F8168857985280F391F611D711D2E83C1
:104900003F836887798722E32417150650F075B82E
:1049100074B80E94CE0A14B815B8888D8395888F14
:1049200007C0483E73E0570718F08A8D83958A8F39
:10493000888999892817190660F03E8537B9C5B866
:10494000C4B80E94CE0A14B815B8898D8395898F92
:1049500007C0883E73E0970718F08B8D83958B8F87
:10496000D3945D2D5F3F49F05F3731F45C2D550FD7
:10497000C50E572D550F750E76CF40903C015090C7
:104980003D01440C551C9201E4E0240D351DEA95CF
:10499000E1F72901570168016E807F80888499843E
:1049A00020911E012830C1F46C897D89812D912DC3
:1049B00065507040804090409B01AC010E94B0382F
:1049C0009B01AC0160E779E786E190E00E94F23854
:1049D000621A730A840A950AA614B704C804D90493
:1049E00028F46A187B088C089D0803C06624772485
:1049F0004301B20180E090E09301A4010E94B0382D
:104A00009501A6010E94F23888E293E07981870F30
:104A1000911D0E94AE3A682EC90160E170E00E94CB
:104A2000CB38260F371FC9016816190618F48619E6
:104A300091090FC08C5E9F4F8615910540F48C89BB
:104A40009D89843981E1980710F00E949310812D8F
:104A5000912D6E96E2E10C94373A109281001092FB
:104A6000800010926F0010928B0010928A0057E025
:104A700056BB5FEF509385005093840055E05093F0
:104A80007B0056EB50937A0051E05093810058E23E
:104A90005A95F1F7000045B944B955E05A95F1F738
:104AA000000014B815B81092810080917A0084FF3C
:104AB000FCCF80937A000895B0E0A0E0E2E6F5E252
:104AC0000C941D3A00918501109186010115110584
:104AD00009F091C0E0918701F0E0E65AFD4FD491D2
:104AE000D860E0918801F0E0E95AFD4FC4910E943E
:104AF000811A88E088B915B8D7B9C4B980918801FE
:104B00000E94080B7C01D0918A018CE08D0F8430CB
:104B100008F071C080917B0190917C01A0917D0192
:104B2000B0917E01D15F2AE0422E512C612C712C74
:104B3000BC01CD016B5F7F4F8F4F9F4FA30192014F
:104B40000E94F23849015A01DA01C901DF5FD7300A
:104B500079F7893823E19207A105B10508F04BC028
:104B6000059708F448C0C5B9C4B9D0E0C0E0C8157D
:104B7000D90508F445C014B815B8A89585E0809308
:104B80002F01809188010E94080BEC01CE19DF09EA
:104B9000E816F90610F0D0E0C0E0D12CC12CC81402
:104BA000D90490F1809188010E94080B29E120939B
:104BB0002F01A895E816F90618F48C010E191F09A3
:104BC0000C171D0788F49E01201B310B69F0A4EF20
:104BD000B1E00E9436399E0150E040E00E94F23878
:104BE00030938601209385010E94811A88E087B95D
:104BF00088B914B815B8CDB7DEB7E0E10C94393AEE
:104C00000E94CA0A2296B3CF0E94CA0A8FEFC81A1E
:104C1000D80AC5CFA7E0B0E0E0E1F6E20C941B3A79
:104C200084EC91E0E2D560EF6B8354980E94BF0A58
:104C300014BC16BC109212011092130110921401B0
:104C40001092150181E085BB80936E001092800068
:104C5000E3E1FAE7F0938B00E0938A0081E090E0D3
:104C600090938900809388001092850010928400B0
:104C700083B5816083BD96E096BB90936F00789476
:104C8000E4E0E0938100F2E3F9831A820E94B80A1B
:104C9000A8954F9902C061E06A8385B5882329F001
:104CA0008981815089838111F1CF15BC86B58093AC
:104CB00012010E949F050E94D8060E94A6050E942C
:104CC000D8060E94040786E60E9478060E9408071C
:104CD000609112017091130180911401909115015E
:104CE00047E00E945F09549880918100882319F061
:104CF0008FE30E9478061092810010926F0020913D
:104D00001201309113014091140150911501DA0103
:104D1000C9010197A109B109813F9048A105B105D9
:104D200008F096C0AAE0B0E00E944B39685F7F4F60
:104D30008F4F9F4F23E096958795779567952A9596
:104D4000D1F7660F771F70936E0160936D015498D1
:104D50000E94BF0A16BC1092120110921301109209
:104D6000140110921501F1E0F5BBF0936E00109262
:104D7000700110926F0164E06BBB809168008460E9
:104D800080936800789480916D00806180936D00BD
:104D900019820E94B80AA8954F9902C081E08A83BF
:104DA00080916D0084FF05C099819F5F99839A3F30
:104DB00081F715BC80916D008F7E80936D0080918E
:104DC00068008B7F8093680086B5809312010E94F3
:104DD0009F0584E50E9478060E940807E0916D0116
:104DE000F0916E01FD83EC836091120170911301CB
:104DF000809114019091150128EA31E640E050E0DD
:104E00000E945B39EC81FD81612C712C43015F01B3
:104E1000C12CD12CE12CF12C00E010E00E94AF3924
:104E200049014F835E831B012C018C819D81803859
:104E3000910500F107E023E745EFB4018F81952F3D
:104E40000E94680899819A3F71F58FE30E94780665
:104E500010926E0080ED97E00E947A0B6A81860FB7
:104E600029F48B8181508B838111DFCE2796E2E17B
:104E70000C94373A84E6A82EB12CC12CD12CE12C0D
:104E8000F12C00E010E094014F815E81B101C2017C
:104E90000E94AF39F22FE42F07E023E747EF6F2F8F
:104EA000732F8E2FCCCF94014F815E81B101C2014F
:104EB000263E354B4105510561057105810591057A
:104EC00039F230F20E94A60586E60E9478060E941A
:104ED000080794014F815E81B101C201540121157F
:104EE000FAEC3F07FAE94F07FBE35F07610571053D
:104EF00081059105F1F0E8F06A017101820120E07D
:104F000030E04AE85DE568E775E483E691E00E94F9
:104F1000AF39F22FE42F07E028E44AEF6F2F732F09
:104F20008E2F952F0E9468088AE70E947806549871
:104F30008FCFCF80DE807101820120E030E44AE72C
:104F400050E163EF7AE580E090E00E94AF39F22F04
:104F5000E42F07E028E44DEFE1CF1F920F920FB648
:104F60000F9211248F939F93AF93BF937894809166
:104F7000120190911301A0911401B09115019F5F4E
:104F8000AF4FBF4F8093120190931301A093140170
:104F9000B0931501BF91AF919F918F910F900FBE6C
:104FA0000F901F9018951F920F920FB60F92112419
:104FB0008F9386E085BD8F910F900FBE0F901F904D
:104FC00018951F920F920FB60F921124A895109268
:104FD000810015BC0F900FBE0F901F9018951F9267
:104FE0000F920FB60F9211242F933F938F939F939D
:104FF00080916F0190917001892B11F481E085BD42
:1050000020916F013091700180916D0190916E013E
:105010002817390730F015BC80916D008F7E809382
:105020006D0080916F0190917001019690937001D5
:1050300080936F019F918F913F912F910F900FBEA1
:105040000F901F9018958C3008F08C50811109C07A
:1050500080E392E00E9424070E94D8060C94390550
:105060000895813019F484EC91E0F4CF823019F482
:1050700087E092E0EFCF833019F48CEF91E0EACF34
:10508000843019F48FE890E0E5CF853019F484E896
:1050900090E0E0CF863019F48DE790E0DBCF8730E9
:1050A00019F48BEE91E0D6CF883019F48CED91E0B5
:1050B000D1CF893019F48BEB91E0CCCF8A3019F441
:1050C0008EE192E0C7CF8B3039F683E192E0C2CF18
:1050D0000F93CF938FE890E088D3C0E010921E0129
:1050E00060E082E097D380911E01883009F04CC0C7
:1050F0000E94980583E40E9478060E940807609148
:105100007B0170917C0180917D0190917E0103E093
:1051100026E440918A010E9468080E94D8066091A6
:1051200087018091880120DB909384018093830123
:105130000E949F058BE491E00E94240780918301E7
:10514000909184018A3F2FEF9207D0F422E044E04F
:105150006EEF0E944A090E94D8068C2F0E94AE2052
:1051600088EE93E00E947A0B811107C08C2F0E9479
:10517000B520C82F8A3F08F4B1CFCF910F91089581
:105180008FE30E947806E7CF0E9404070E949F05E4
:10519000E2CF0895A5E0B0E0E0EDF8E20C941B3A10
:1051A00087E092E022D380E18093800010926F002C
:1051B00081E090E0909389008093880010928B00AA
:1051C00010928A0083E086BB1092820088E0809370
:1051D000810015B891E194B988B989E087B9229A1C
:1051E00080938100312C20E03AE0398341E04C8308
:1051F000812C912C5401839451E15D83832D90E0A7
:105200000A966EE170E00E94DF386B83F62E62171B
:1052100061F00E943E0587E092E00E94240710E0C2
:105220001F1508F4DCC00E94D8068C8169810E9499
:10523000BF38A92FB0E0A50194010E944B396B0142
:105240007C018D81823150F0652D762D872D902F38
:105250000E94F238C60ED71EE81EF91E0E9498055D
:105260009C812981212C921306C081E03D8132313D
:1052700008F480E0282E2A828CE3211005C04D819D
:105280008EE3463108F082E50E9478060E94CC0643
:105290004D81C701B6010E945F09C701B6017E5E5C
:1052A00085489F4FA7019601220F331F441F551FAA
:1052B0000E94F238CA014F3F510509F008F494C02A
:1052C0008DE08093810080E094E02C01712C612CB2
:1052D000CA01B901A30192010E94F238215031099B
:1052E00030938900209388008091880090918900F4
:1052F000892B31F481E090E09093890080938800BD
:105300000E94D8060E949F0586E60E9478060E94A9
:10531000CC06009188001091890060E079E08DE36F
:1053200090E0A30192010E94F238A4E6B0E00E944E
:105330004B390F5F1F4F980150E040E00E94F23858
:1053400029013A01A4E6B0E0A70196010E944B3979
:10535000A3019201261B370B480B590BCA01B90157
:1053600005E228E44EEF0E9468088AE70E9478066A
:105370000E94D80680ED97E00E947A0B882309F4FA
:105380006BC0883C08F07BC0813508F45FC02220E8
:1053900009F44AC03D8131503D83C501B4012AE082
:1053A00030E040E050E00E94F23849015A01C70164
:1053B000B6010E94F238CA01B9012AE030E040E0AB
:1053C00050E00E94F2386A834AE049832A812C83A4
:1053D000312C2B815C2C6D2C7E2C0F2D0FCF8EE26F
:1053E0000E9478061F5F1CCF4034510530F08CE0DE
:1053F0008093810080E091E068CF4830510530F023
:105400008BE08093810080E490E05FCF892B31F0C6
:105410008AE08093810088E090E057CF89E0809314
:10542000810081E090E051CF5D815631A0F55F5F52
:105430005D83563111F485E18983AAE0B0E0A501CE
:1054400094010E944B394B015C01C0CF8B3018F0A6
:105450009C819F5F9C83312C2C81822F90E039812D
:10546000632F70E06F5F7F4F0E94DF388C83832D46
:105470000E94B520382E4FEE481708F0AACF1092A0
:1054800081001092800088E087B914B82298259690
:10549000E2E10C94373A5AE0598381E08A83812C07
:1054A000912C5401839491E19D8390CFB0E0A0E0D2
:1054B000ECE5FAE20C941D3A8CEF91E096D183E290
:1054C0008093800010926F008FEF90E090938B009C
:1054D00080938A0083E086BB1092820015B881E138
:1054E00084B988E088B989E087B9229A21E030E060
:1054F000309389002093880080938100D0E080E081
:10550000C2E310E094E6C92ED12CE12CF12C8824C2
:105510008A9423E0922EA12CB12CC817A1F1C43695
:1055200008F0C4562C2F30E0AFEFB3E00E943639BC
:105530006E5C7F4F8F4F9F4FA70196010E94F238FC
:1055400029013A0130938B0020938A000E9498052C
:10555000A8EEB3E0A30192010E944B3961507E4F47
:105560008F4F9F4FA50194010E94F238C90125E099
:1055700045E26FEF0E944A090E94D806193218F0DE
:105580008CE30E94D00A80E496E00E947A0B182FE8
:10559000833880F40AE0833320F40C2F882319F039
:1055A00001E00C0FD0E08D2F0E94B520D82F8C2F5A
:1055B000D03F68F088E087B9109281001092800097
:1055C00014B82298CDB7DEB7E0E10C94393AC02F79
:1055D000A4CFCF93DF938BEB91E007D187E293E0E9
:1055E0000E94AE3AC82FD0E08C2F829586958770A6
:1055F00080620E9435058C2F8F7180680E9435056E
:105600000E94980524E040E260E08C2F90E00E9428
:105610004A090E94D80680E496E00E947A0B811124
:1056200010C08D2F0E94B520D82F803FE8F26C2F3C
:1056300087E293E00E94BB3ADF91CF910895C15079
:1056400005C08238A0F78932D0F3CF5FD0E0E9CF30
:105650000F931F93CF93DF938BEE91E0C6D08CE234
:1056600093E00E94AE3AC82FD0E00E9498050C2F1C
:105670000C2E000C110BC7FF27C08DE20E9478068C
:1056800023E045E26FEF88279927801B910B0E944A
:105690004A090E94D80680E496E00E947A0B8111A4
:1056A0001EC0C135C4F0C5568D2F0E94B520D82F1D
:1056B000803FD8F26C2F8CE293E00E94BB3ADF91DE
:1056C000CF911F910F91089523E045E26FEFC8013C
:1056D000DECFC15009C0CC3E3CF7CB59E5CF823874
:1056E00048F78932B0F3CF5FD0E0DBCF813019F4D7
:1056F00080E090CA0895823011F44CCD0895833033
:1057000011F4D4CE0895843011F4E2CC089585309C
:1057100019F40C94BF200895863029F40E944505A1
:105720000C94FD200895873011F492CF08958830AD
:1057300021F481E10C94F60C0895893011F449CFDD
:1057400008958A3011F4A5C108958B3011F40C949A
:105750009C0C0895FF920F931F93CF93DF938BE3DD
:1057600092E043D0D0E0C0E01AE01C0F00E0FF243C
:10577000F394F00E60E08F2D0E940F05023071F55A
:105780008EE30E94780684EF810F1C3008F4812F8D
:105790005ADC1F5F0F2D053051F780E49FE10E9416
:1057A0007A0B8111D0E090913901913009F4D0E069
:1057B0008233B8F0CC2341F08C2F98DF8BE392E05A
:1057C00014D0DF5FD83731F480E0CDB7DEB7E5E045
:1057D0000C94443ACC3040F2CC50C6CF0E94CC0658
:1057E000D2CF882371F3CF5FECCFCF93DF93EC015F
:1057F0000E944505CE010E942407C4E682E00E9473
:10580000D00A4F9902C0C150C9F70E949805DF9194
:10581000CF910895B0E0A0E0E0E1FCE20C94243ADE
:10582000182F062F862F90E0FC01E65AFD4FE491D9
:10583000FE2E6894F3F8E12FF0E0E95AFD4FC49191
:10584000FC01E95AFD4FD49110928401109283011A
:1058500010927701109278011092790110927A01DA
:1058600087EF809389010E94811A88E088B9F7B890
:10587000D4B9D5B9812F0E94080B7C01802F0E94DA
:10588000080BE81AF90A14B8109256011092550143
:1058900030E020E05CE2C52EDD24D394DAE064E65B
:1058A000B62E8091550190915601843D904350F061
:1058B00088E087B988B914B815B8CDB7DEB7E9E084
:1058C0000C94403AC5B98091550190915601892BAD
:1058D00091F0F601E21BF30B6091550170915601B6
:1058E000D29FC001D39F900D11240E94CB38E617A0
:1058F000F70708F0A5C0C4B90E94C30A14B8809184
:10590000550190915601019690935601809355014F
:1059100015B80E94C50AA895812F0E94080B9C010A
:105920002E193F0980915501909156018B31964077
:1059300020F0253231050CF4BBCF2D3281E0380741
:105940000CF4AFCF8091550190915601019729F445
:10595000253185E038070CF0ABCF8091550190914F
:105960005601880F991FB0E0A0E080937F019093CB
:105970008001A0938101B0938201C90168E270E0C7
:105980000E94DF38CB01820F931F0E945E1E209180
:105990007F01309180014091810150918201DC01B1
:1059A0000E944B3960937F01709380018093810145
:1059B00090938201609377017093780180937901CD
:1059C00090937A010E94101BC0907701D0907801CB
:1059D000E0907901F0907A018CE293E00E94AE3A77
:1059E000A8EEB3E0A81BB10987FDB395A701960106
:1059F0000E94553920E137E240E050E00E94F23841
:105A000020937701309378014093790150937A0184
:105A100088E080931E0120937B0130937C014093AA
:105A20007D0150937E018091890180938A011092BB
:105A3000860110928501009387011093880138CF69
:105A400080915501909156010B97C8F060915501D6
:105A500070915601B29EC001B39E900D11240E9418
:105A6000CB386E177F0758F4C4B90E94B80A14B82F
:105A700080915501909156018C599F4F45CFC4B9E3
:105A80000E94BE0A14B880915501909156010A9661
:105A90003BCFCF92DF92FF920F931F93CF93DF9371
:105AA0000E94450585E091E00E9424070E94980528
:105AB00081EC90E00E9424078AE293E00E94AE3AD3
:105AC00023E040E26EEF90E00E944A098BE293E00F
:105AD0000E94AE3A23E040E26EEF90E00E944A0955
:105AE00089E293E00E94AE3A23E044E06EEF90E05A
:105AF0000E944A090E949F058AEB90E00E942407B9
:105B000023E044E06FEF80913501909136010E94CF
:105B10004A090E94A60583EB90E00E94240723E037
:105B200044E06FEF80913C0190913D010E944A0951
:105B300088E99AE30E947A0B0E9445058FEA90E07B
:105B40000E9424078EE493E00E94AE3A8251990BA2
:105B50000E947F078FE493E00E94AE3A8251990B36
:105B60000E947F078BE493E00E94AE3A23E046E474
:105B700064EF8251990B0E944A090E94980583E0C4
:105B80000E94CF068AE493E00E94AE3A8251990BBC
:105B90000E947F078DE493E00E94AE3A8251990BF8
:105BA0000E947F0789E493E00E94AE3A23E046E436
:105BB00064EF8251990B0E944A090E949F058DE172
:105BC00090E00E94240780E593E00E94B63A0E948C
:105BD0006A070E94A60586E190E00E94240782E5FC
:105BE00093E00E94AE3A082E000C990B0E946A07BF
:105BF00060E087E00E940F05C0E0FC2EFF0CFC0E69
:105C0000D0E0FA94CD17B9F10F2D0D0F10E0000F71
:105C1000111FC801855C9C4F0E94B63A6C01C801F7
:105C2000835D9C4F0E94B63A8C018091A50187301C
:105C3000B8F188E99AE30E947A0B0E94450587EA49
:105C400090E00E9424078C2F0E94C9068AE30E94DC
:105C500078068D2F0E94C90680E00E94DE0623E0B0
:105C600040E26EEFC6010E944A0923E046E462EF7B
:105C7000C8010E944A09DF5FD33021F6CF5FC330ED
:105C800009F0BBCF88E99AE30E947A0B0E94990938
:105C9000DF91CF911F910F91FF90DF90CF900895EA
:105CA00080E00E94DE06CBCF08954F925F926F9204
:105CB0007F928F929F92AF92BF92CF92DF92EF929C
:105CC000FF92AC016C01F12CE12C5601992488243F
:105CD000E52FFF279A01DA010E9436392C0166244C
:105CE0007724920165E0369527956A95E1F7E29F62
:105CF000C001E39F900DF29F900D11249A0174E072
:105D0000369527957A95E1F7E20FF31FE40FF51F1B
:105D100092013695279536952795B4E05694479489
:105D2000BA95E1F72419350950E040E02E0F3F1FE6
:105D3000411D511DBC01E3E076956795EA95E1F7B9
:105D4000861B970B280F391F411D511DC701B60136
:105D50000E94B038680D791D8A1D9B1DFF90EF9041
:105D6000DF90CF90BF90AF909F908F907F906F907B
:105D70005F904F900895A3E0B2E0E1ECFEE20C9456
:105D80001B3ACF5FDD4F8883C150D240162FCE5FC4
:105D9000DD4F4883C250D2400E94811ACF5FDD4F51
:105DA0002881C150D240E22FF0E0E95AFD4FF49033
:105DB0009F2C990CE12FF0E0E65AFD4FE491E8604A
:105DC000E7B915B8F4B8822F806480937C000E94F4
:105DD000C40ACE5FDD4F3881C250D2403170CD5FF2
:105DE000DD4F3883C350D240CE5FDD4F8881C25033
:105DF000D2408F2C80FF892CE0E2DE2E90E080E004
:105E0000CF2CE82C092D282D44E7BE016F5F7F4F72
:105E10000E943400DA9480E490E0D110F1CF14B8FD
:105E20001E0197E4290E311C73E2472E512C612C80
:105E3000712CC12CD12C7601812C912C5401F101B3
:105E4000819191911F01CD5FDD4FF881C350D24008
:105E5000FF2329F020E030E8281B390BC90125DF9A
:105E60009C0150E040E0820E931EA41EB51EC301AB
:105E7000B2010E94B038C60ED71EE81EF91E3FEFD1
:105E8000431A530A630A730A84E7481651046104EB
:105E90007104A9F6C501B40121E530E040E050E00D
:105EA0000E94F238ABEBB7E10E944B39C61AD70A11
:105EB000E80AF90AA701960164E0569547953795D7
:105EC00027956A95D1F760EE7DEC81EC9FE80E9402
:105ED000F23869017A01CE5FDD4F9881C250D2401D
:105EE00091FD20C0CF5FDD4F8881C150D240880F27
:105EF000CF5FDD4FE881C150D2408E0F1150810F2E
:105F000090E0880F991FCD5FDD4FF881C350D240DC
:105F1000FF2379F0835D9C4F0E94B63AC81AD90AD4
:105F2000E108F108C701B601CD5FDD4FE2E10C9455
:105F3000373A855C9C4FF0CF8F929F92AF92BF9281
:105F4000FF920F931F93CF93DF93C0E0FC2EFF0CC3
:105F5000FC0ED0E0FA94CD1799F142E06D2F8C2F12
:105F60000ADF4B010E94450587EA90E00E94240762
:105F70000E94CC068C2F0E94C9068AE30E947806F4
:105F80008D2F0E94C9060E94CC060E94980524E02D
:105F900040E262EFC4010E944A090F2D0D0F10E08C
:105FA000000F111FB401C801855C9C4F0E94C93AC3
:105FB000B401C801835D9C4F0E94C93A0E94D80673
:105FC000DF5FD33041F6CF5FC33009F0BFCF0E940F
:105FD0003E0582EB91E00E9424070E94D80688E2E9
:105FE0000E94D00ADF91CF911F910F91FF90BF9037
:105FF000AF909F908F900895A2E1B0E0E2E0F0E3CF
:106000000C941B3A2C017C836B83DD24D3942D2CC0
:10601000312C33E0D39E900111243E872D87F1016E
:10602000EE0FFF1FEE0FFF1FFC87EB87812C30E484
:10603000932E50E0712C612C18861F82B12CA12C5C
:106040001A8219821E821D8240E0C12CF0E0E0E03D
:1060500030E020E061E070E08FEF90E0821993097A
:10606000988B8F870C2D10E08F859889081719075A
:1060700074F1AB81BC81AB2B29F170E060E0423060
:10608000E8F09501ED81FE812E1B3F0BA8EEB3E0F9
:106090000E943639E981FA81AE1ABF0A950150E0B3
:1060A00040E00E94F23888EE93E0821B930B0E943E
:1060B0002E0CBC0188EB9AE70E94CB38AB81BC81E7
:1060C0006D937C93C4016296E2E10C94373AD80157
:1060D000A20DB31DAA0FBB1FA40DB51D8D919C91E0
:1060E000E80FF91FD801AA0FBB1FA40DB51D8D9194
:1060F0009C91280F391FCD1408F48AC0D801A21929
:10610000B309AA0FBB1FA40DB51D0D90BC91A02D06
:106110002A1B3B0BE81BF90B7901EE0EFF1EC90190
:106120008E1B9F0B89879A87D701B695A795B69541
:10613000A795A80FB91FB7FD76C0E217F30708F0BF
:1061400069C0513009F066C0D80156E0AA0FBB1FE4
:106150005A95E1F7BA8BA98BDC01A61BB70BBD01E1
:10616000A817B90770F0A6E0880F991FAA95E1F764
:1061700080960E94CB3889899A89861B970B9A8BC7
:10618000898BAD85BE85EA16FB0608F472CF8B8538
:106190009C8508171907BCF14423B1F069897A89F5
:1061A00066197709433050F0D4019096C401969552
:1061B00087958A0F9B1F86179707D0F1D71650F443
:1061C000DD24D394D70E23CFA989BA89B887AF83AA
:1061D000FE82ED82AE0CBF1C4F5F4130F9F0842F80
:1061E0008150990BBC0195958795A989BA898A0F29
:1061F0009B1FAF81B8858A1B9B0BCDD74B0169884C
:106200007A88FA82E982453108F033CF50E002C043
:1062100069877A87C39469857A8524CF69887A8863
:10622000FA82E982F3CF51E0E217F30798F78CCFB7
:10623000EB81FC81EF2B09F024CF44CFA6E2B2E042
:10624000E4E2F1E30C941F3AF82ED62E8EE593E0AB
:106250000E94B63A3C01ED2DF0E0E95AFD4F149151
:10626000EF2DF0E0E65AFD4FE4911092B20110924A
:10627000B3011092B4011092B5011092B9011092BD
:10628000B8011092BA011092BB011092BC01109299
:10629000BD0180911E01813009F0D2C080910201C0
:1062A00018160CF4CDC088E088B9E860E7B90E9400
:1062B000C40A2D2D206CD22E20937C000E94C40A8B
:1062C000C12EE12C00E0212F4FEFBE016F5F7F4F09
:1062D00080E191E00E9434003F2D306CF32E30932A
:1062E0007C00212F44E1BE0161507E4F80E191E0AE
:1062F0000E943400FE013196BE0161507E4F5B0169
:10630000AE01475D5F4F81919191D5016D917D9176
:106310005D019F01225031098617970708F495C047
:10632000861B970BD9018D939C93E417F50759F7BA
:10633000D0927C0070E060E0CE0101965DDE9F5F50
:1063400030E1A32EBB24B394912C812C913178F0B1
:1063500040E1A42E44E0B42E52E0852E912C9034DE
:1063600030F090E1A92EBA2C24E0822E912C88E006
:10637000D82EA895C12EE12C00E0212F4FEFBE01B1
:106380006F5F7F4FC5010E9434008114910409F4AE
:1063900062C068EB71E0CE0101962EDE5C01813CAB
:1063A0009F4308F0B2C06501F12CE12C9501D501A5
:1063B0005DD723E330E040E050E014D7A8E6B2E038
:1063C0006AD73FEF831A930A76946794930150E05B
:1063D00040E008D7C401880F991F04C0220F331F63
:1063E000441F551F8A95D2F72093BA013093BB0101
:1063F0004093BC015093BD0180910B0190910C0121
:10640000A0910D01B0910E010397A105B10540F0D7
:106410001092BA011092BB011092BC011092BD0102
:10642000A114B10409F074C01092B9011092B8011E
:106430001092BA011092BB011092BC011092BD01E2
:10644000CA5DDD4FEEE00C943B3AD9011D921C92DF
:106450006CCF5C018ECFC5018064DA94D110F9CF86
:1064600081159440C8F08EEF8F3F09F492CFE82F4A
:10647000F0E0EE0FFF1F21E030E02C0F3D1FE20F98
:10648000F31F20813181A3E036952795AA95E1F786
:10649000318320838150E8CFF0927C00E894A6F805
:1064A00008E0F02EC12EE12C00E0212F44E1BE01D6
:1064B00061507E4FC5010E9434006894A6F8FA949A
:1064C000F110F0CF24E1215070F2822F90E0880F7C
:1064D000991FE1E0F0E0EC0FFD1FE80FF91F40818C
:1064E00051816FEF71E06C0F7D1F860F971FDC01EC
:1064F0008D919C914817590728F0481B590B5183DF
:106500004083E1CF11821082DECFB12CA12C4BCF82
:1065100027E030E02819390960E072E18AE790E06D
:1065200004C0660F771F881F991F2A95D2F7A7010D
:10653000960158D62093B2013093B3014093B40131
:106540005093B5018091020187FD7ACF8FEF809340
:10655000020176CFCF93DF93D82F0E943E0586E0CD
:1065600090E00E9424070E94D806C0E01092B70174
:106570001092B60184E10E94D00A62E080E00E949D
:10658000501B0E94980524E046E464EF8091B60118
:106590009091B7010E944A096091B6017091B701CC
:1065A000CB018C539F4085399547A0F4CF5FC53010
:1065B00090F08EE593E0EDD70E94CC0682EB91E05F
:1065C0000E94240784E60E94D00A0E943E05DF91C3
:1065D000CF910895C0E00E94D806DF5F39F6F5CF6D
:1065E000B0E0A0E0E5EFF2E326C780E48AB98BB91A
:1065F0005F9AD6E8D0937A001092C1000E94B00A48
:10660000C4B7C87084B7877F84BF0FB6F894A895C5
:1066100080916000886180936000109260000FBEDE
:10662000D093640088E380937E001092B00087E0EE
:106630008093B10078940E945C05C11180C54F9988
:1066400006C082E00E94D00ACF5FCC33C1F78FE54D
:106650009DE69093170180931601CF3130F080E6CC
:106660009DE69093170180931601109230010E94CD
:106670009D1E88E19FE00FB6F894A8958093600076
:106680000FBE90936000CC3309F461C038E0632EF4
:1066900040E1542E58E1452E6DE5C62E61E0D62E20
:1066A00071E2272EE2E13E2E0E94450567B80E9466
:1066B000790C0E949D1E0E943E050E94ED10809163
:1066C0003E01882381F00E94980580E591E00E94B8
:1066D000240763E080913301909134010E945509B1
:1066E00088EC0E94D00A0E9498050E94811A80912D
:1066F0001E01893081F50E94450585E591E00E94E3
:1067000024070E94980563E080910501909106019D
:106710000E9455090E94CC0663E080910701909188
:1067200008010E9455090E94CC0663E0809109018E
:1067300090910A010E9455098AEC0E94D00A81E1D9
:106740000E94F60C809116019091170185C102D824
:106750008111FDCF9BCF8CE493E000D7C82F89E453
:1067600093E0FCD6C81BC0933B0180E00E94F60C6E
:106770000E94040784EC92E00E94240783E00E94B8
:10678000980A0E94390542E061E080E00E945811B9
:1067900042E060E081E00E94581141E062E080E068
:1067A0000E94581141E060E082E00E94581140E0F0
:1067B00062E081E00E94581140E061E082E00E94C6
:1067C000581180911E0181110EC00E94811A60E053
:1067D00082E00E94501B61E082E00E94501B60E05A
:1067E00081E00E94501B0E94450523E431E0309374
:1067F00041012093400180911E01863009F585EC0E
:106800000E94380660E188EF0E947A0968E080E023
:106810000E940F058BE992E00E94240768E081E066
:106820000E940F0589E691E00E94240762E08091B2
:106830004701909148010E9455090E94390582CF75
:10684000873071F484EC0E94380660E188EF0E9482
:106850007A0968E080E00E940F0584EA92E0DCCFCC
:106860008830C1F48091870190918801890F992720
:10687000991F029759F40E94FD2080913B018823C3
:1068800009F448C4D8E010E000E031C480E00E9480
:10689000372058CF833009F0ECC080911C01813043
:1068A00009F04EC080E00E943C0860918D0180910B
:1068B00093010E94A51080E70E94140840E06091B7
:1068C0008D018091930157DA60937701709378017D
:1068D0008093790190937A0180E00E94F80660919C
:1068E0007701709178018091790190917A0102E0AD
:1068F00026E442EF0E9468080E94390580917301E6
:10690000882309F41FCF47B867B880E00E94F806D3
:1069100030917301332309F4AEC380915A013130B1
:1069200009F045C30E94D60720915A01213009F091
:1069300039C320911C01211135C30E94BF209DCF76
:10694000823079F582E30E9478068DE191E00E9421
:10695000240790918D0130918E01931308C080E03F
:106960000E94580881E00E944F0881E0A5CF209145
:10697000930180919401281307C080E00E94480889
:1069800081E00E945F08F1CF321306C081E080935E
:1069900011010E942A08B0CF98133DC050921101F6
:1069A000F8CF8330C1F533E3309311018091930127
:1069B00090918E01891303C021E020931101409131
:1069C0008D0130919401431302C050921101209126
:1069D0008F01821303C082E08093110180919501A1
:1069E000481303C040E24093110132130CC03092AF
:1069F0001101981751F083E30E9478068DE191E030
:106A00000E942407C6CF981302C0209211018091E2
:106A10001101823280F38AEA92E00E94240782E91F
:106A200092E00E9424070E94980580911C01805DDD
:106A30000E9478068AE20E94780687E391E00E942D
:106A4000240788E792E00E9424070E94390586E027
:106A50000E94380680E49FE147B84F9BFECF0E941A
:106A60007A0B823308F414C30E94AA2B8111FCCF45
:106A70001BCE843009F059C180916C01882309F440
:106A80005FC080915201882309F45AC060914F0180
:106A9000809151010E94501B809077019090780165
:106AA000A0907901B0907A01C091890160916B0149
:106AB000809169010E94501B809143019091440193
:106AC000A0914501B091460140915D0150915E0158
:106AD00060915F0170916001843F21E09207A10500
:106AE000B10538F4443F31E053076105710508F002
:106AF000C0EF443F51406105710540F4843F91402F
:106B0000A105B10518F080EF80938901809189017A
:106B10008C1311C08091770190917801A091790137
:106B2000B0917A0188169906AA06BB0630F02CE0CF
:106B300020931D0105C0C817D4F79DE090931D0157
:106B400080916C01882361F080915201882341F08B
:106B50004F9906C080911D0191E0892780931D0106
:106B600068E080E00E940F0580EC0E94380680916A
:106B70001D018C3009F0C2C085E891E00E94240715
:106B800080916C01882319F080E70E9478060E94AA
:106B9000540CC82F853090F4A0914001B091410170
:106BA000E82FF0E0E357FE4F1D969C91808160E056
:106BB000981362E088EA91E00E945F0660E189EF45
:106BC0000E947A0988E00E94DE0683E991E00E9433
:106BD0002407E0914001F09141016081718182813F
:106BE000938103E020E04EEF0E94680888E00E9455
:106BF000DE0689E40E947806E0914001F0914101AF
:106C0000868197818031974208F48BC085E60E9487
:106C10007806E0914001F091410186819781805191
:106C20009742978386830E940807E0914001F09184
:106C3000410122E041E46AEF868197810E944A097E
:106C400088E00E94DE068DE691E00E942407E09134
:106C50004001F091410162E0848195810E945509D3
:106C600081E080934201E0914001F09141018085F3
:106C70009185892B91F086E00E94F8068FEF90E0D5
:106C80000E942407E0914001F091410122E041E49B
:106C90006AEF808591850E944A09E0914001F09158
:106CA000410182859385892B91F086E00E94F80648
:106CB00089EF90E00E942407E0914001F0914101AA
:106CC00022E041E46AEF828593850E944A09C5303B
:106CD00078F480E00E94F8068C2F0E943C0889E638
:106CE00091E00E9424078C2F0E9406080E9439051B
:106CF00043E462E485E40E94A9079FCDD09241015C
:106D0000C09240018DED91E00E9475068DE791E003
:106D10000E94240780915201882309F438CF8EE61F
:106D200034CF83E60E9478067ECF853009F0F0CD1F
:106D300068E080E00E940F0580911D01D82FD0717E
:106D400084FF65C080E50E947806D0924101C09220
:106D50004001D2E08DE20E94780680911D01C82F8B
:106D6000CF70C43009F057C08CE991E00E9424072D
:106D700083EC0E94380686EE91E0D11168C00E9433
:106D8000540C853090F4A0914001B0914101E82F5E
:106D9000F0E0E357FE4F1D969C91808160E09813D0
:106DA00062E088EA91E00E945F0660E189EF0E945C
:106DB0007A0988E00E94DE0688E00E94DE06809163
:106DC0001D0185FD60C085E691E00E942407E091E9
:106DD0004001F091410162E0828593850E9455094E
:106DE000E0914001F0914101668584850E94501B2D
:106DF00088E00E94DE060E943E0787E00E94560758
:106E0000C43009F0CDC04FE367E48FE374CF8EE464
:106E10000E9478069FCF85FF1DC084E40E947806FB
:106E2000DF5FC330D9F486E991E00E94240781EC4A
:106E30000E94380683E392E0D13049F08FE392E07C
:106E4000D23029F08FE092E0D33009F098CF0E9441
:106E5000750695CF85E40E947806E3CF81EA91E03C
:106E60000E94240782EC0E9438068FEF91E0D13017
:106E700071F385E092E0D23051F3D33009F07FCF47
:106E80008DEE91E0E4CFE0914001F09141018F70EF
:106E9000843009F44EC0668584850E94501B0E9490
:106EA0003E0760E085E00E940F0589E40E947806B5
:106EB0000E940807E0914001F091410122E041E485
:106EC0006AEF868197810E944A098FE591E00E94CE
:106ED0002407E0914001F091410162E082859385B1
:106EE0000E945509E0914001F09141018085918512
:106EF000803C9241E0F480E00E94F80689E40E9420
:106F000078060E94080722E041E46BEF90E080E001
:106F10000E944A098FE591E00E942407E091400118
:106F2000F091410162E0808591850E94550980E0E1
:106F300065CF84819581892B09F4B3CF80E090E0FF
:106F40000E942407E0914001F091410122E041E4D8
:106F50006AEF848195810E944A09A3CFD11103C0B1
:106F600080E00E94DE0680E00E94F8068D2F0E94DD
:106F70003C0889E691E00E9424078D2F0E940608B4
:106F80000E943905DF5F80911C01D81738F344E473
:106F900067E483E5C33009F0AECE43E467E4AACEEC
:106FA000D0E0F1CF40E0692F0E946F1FCBCB9091D2
:106FB0005B0124E0929FD0011124AA55BE4F24E02A
:106FC000829FF0011124EA55FE4FED90FD900D9146
:106FD0001C914081518162817381282F4E155F057C
:106FE0006007710708F4292F980FC3E0C91B3230DE
:106FF000E1F0C0915C0134E0C39FD0011124AA5597
:10700000BE4F84E0289FF0011124EA55FE4F4D91B8
:107010005D916D917C9180819181A281B381841772
:107020009507A607B70708F0C22F1C2F1695D2E0C8
:10703000DC1B02E0C11101C001E0812F0E94C906E2
:1070400088E191E00E9424078D2F0E94C90688E103
:1070500091E00E942407802F0E94C90680E00E94D0
:10706000DE0681E0C11180E00E94E00782E0811B22
:107070000E94E00767CB82E892E00E9424070E940A
:1070800098058FEA92E00E9424078AEA92E0DBCC1E
:1070900081110ACBF2CBF501E80FF91FC491C03280
:1070A00009F4782E019681319105A9F7DD2341F18C
:1070B0009D2F9770F92E11F40E94450560E08F2DE9
:1070C0000E940F050E943905A895DF5FD770F12C4B
:1070D000E12CE71410F1CC23C9F0070D111DF801C4
:1070E000E35AFD4FE491E03211F40F5F1F4F90E03F
:1070F00080E020E1722E9801235A3D4F5901CBCFF9
:1071000080E197E20E947A0B882391F280E197E276
:107110000E947A0B0E949C0CC7CAF501EE0DFF1D60
:10712000C491CC2399F3CF3F31F40E94CC062FEFCA
:10713000E21AF20ACECF8C2F0E947806F8CF0E9476
:107140003E058FE692E00E9424078BEC0E94D00A55
:107150000E949C0C90E080E0CDB7DEB7E2E187C1F1
:10716000DB018F939F9397D0BF91AF91A29F800D2A
:10717000911DA39F900DB29F900D11240895991B0E
:1071800079E004C0991F961708F0961B881F7A951E
:10719000C9F780950895AA1BBB1B51E107C0AA1F20
:1071A000BB1FA617B70710F0A61BB70B881F991FA8
:1071B0005A95A9F780959095BC01CD01089597FB4C
:1071C000072E16F4009406D077FD08D0E4DF07FC04
:1071D00005D03EF4909581959F4F089570956195E7
:1071E0007F4F0895A1E21A2EAA1BBB1BFD010DC003
:1071F000AA1FBB1FEE1FFF1FA217B307E407F50767
:1072000020F0A21BB30BE40BF50B661F771F881F42
:10721000991F1A9469F760957095809590959B01D8
:10722000AC01BD01CF010895052E97FB16F4009423
:107230000FD057FD05D0D6DF07FC02D046F408C0BA
:1072400050954095309521953F4F4F4F5F4F089592
:1072500090958095709561957F4F8F4F9F4F0895C2
:10726000EE0FFF1F0590F491E02D0994A29FB0014D
:10727000B39FC001A39F700D811D1124911DB29F6A
:10728000700D811D1124911D0895F0DFB7FF089541
:10729000821B930B0895EADFA59F900DB49F900D7C
:1072A000A49F800D911D11240895B7FFF4CFF3DF43
:1072B000821B930B0895E894DF93CF93FC01DB01CD
:1072C000D5DF7F936F93E9019A01AC01BF93AF9330
:1072D0003F932F93DF01CADF26F46C1B7D0B820BDB
:1072E000930B9E01EB01FC01DDD0AF91BF912F917B
:1072F0003F91D8D0BE01CF01F9012F913F91CF919D
:10730000DF910895689401C0E894F92FF12B0AF0F9
:1073100027C0A0E0B0E0EEE8F9E393C0092E0594A1
:107320001AF479D0112392F4F0E80F26FFEFE094DD
:10733000F09400951095B094C094D094A194BF0A95
:10734000CF0ADF0AEF0AFF0A0F0B1F0B13D007FC4F
:1073500062D0CDB7DEB7ECE090C0689401C0E8948D
:107360008F929F92CF93DF9305D0DF91CF919F9023
:107370008F90089588249924F401E401B0E49F9348
:10738000AA279A158B049C04ED05FE05CF05D007AE
:10739000A10798F4AD2FDC2FCF2FFE2FE92D982CCD
:1073A000892E982F872F762F652F542F432F322F1A
:1073B0002227B85031F7BF9127C01B2EBF91BB27A2
:1073C000220F331F441F551F661F771F881F991FE9
:1073D000881C991CEE1FFF1FCC1FDD1FAA1FBB1F9F
:1073E0008A149B04EC05FD05CE05DF05A007B10757
:1073F00048F08A189B08EC09FD09CE09DF09A00BAB
:10740000B10B21601A94E1F62EF49401AF01BE0194
:10741000CD01000C089560957095809590953095FC
:107420004095509521953F4F4F4F5F4F6F4F7F4F86
:107430008F4F9F4F08952F923F924F925F926F927E
:107440007F928F929F92AF92BF92CF92DF92EF92F4
:10745000FF920F931F93CF93DF93CDB7DEB7CA1B75
:10746000DB0B0FB6F894DEBF0FBECDBF09942A88A0
:10747000398848885F846E847D848C849B84AA8448
:10748000B984C884DF80EE80FD800C811B81AA81D5
:10749000B981CE0FD11D0FB6F894DEBF0FBECDBFA0
:1074A000ED010895E3DE460F571FC81FD91F08F4EA
:1074B00031960895BB27FA01A62F62177105810541
:1074C0009105330B30FB66F0AA27660F771F881FE4
:1074D000991FAA1FA21710F0A21B63953850A9F795
:1074E000A05DAA3308F0A95DA19336F7B111B1935D
:1074F0001082CA0123C04532510518F4423008F009
:1075000004C0FB011082CB010895BB27FB01552766
:10751000AA27880F991FAA1FA41710F0A41B8395F0
:107520005051B9F7A05DAA3308F0A95DA193009767
:1075300079F7B111B1931192CB0100C0DC01FC01CC
:10754000672F71917723E1F7329704C07C916D9397
:1075500070836291AE17BF07C8F30895F999FECF03
:1075600092BD81BDF89A992780B50895A8E1B0E051
:1075700042E050E013C0262FF999FECF1FBA92BD0A
:1075800081BD20BD0FB6F894FA9AF99A0FBE019604
:107590000895F1DF272FF0CFDC01CB01FC01F99931
:1075A000FECF06C0F2BDE1BDF89A319600B40D924F
:0C75B00041505040B8F70895F894FFCF08
:00000001FF
