:101E0000F894112484E08EBF8FE58DBF24B614BEF4
:101E100023BC8DE0822129F040E0C7D0EE27FF27C8
:101E20000994BD9A4EE0C1D020E630E082E08BB943
:101E300096E890BD90E199B988E18AB953E0C59AD6
:101E4000B8D0C598B6D05150D1F78DD0813461F457
:101E50008AD0582F7DD083E0523821F083E051386A
:101E600009F484E77AD05CC044E1823419F045E09B
:101E7000853411F46AD054C0853541F474D0482EAD
:101E800072D0582EF201440C551C5DC0863521F4E9
:101E900044E05BD080E0E6CF843609F02EC070D0FD
:101EA00021F088E1581608F478D0E9015CD08993D4
:101EB0001197E1F7D801E9014BD0611009C0A8954D
:101EC000899158D08DBBE29AE19A1197C1F728C049
:101ED00088E1581608F061D05CD0F20109901990A1
:101EE00041E05DD0112432961297C1F7F20145E02E
:101EF00056D04FD041E153D013C08437A1F440D025
:101F000027D0662039F4119750F034D0E09A8DB381
:101F100024D0F9CFF201859120D01197E1F72F015C
:101F200080E11BD092CF853741F449F411D08EE186
:101F300014D083E912D087E095CF803299F38135B0
:101F400011F448E032D004D0EBCF0DD04150E9F786
:101F50000AD0803209F026D084E19BB195FFFDCFF5
:101F60008CB9A89508958BB187FFFDCF84FFA89504
:101F70008CB10895E199FECFFFBBEEBB3196089579
:101F8000F2DF182FF0DF082FD801EDDF8554682E1F
:101F9000089507B600FCFDCF0895F20143E047BF66
:101FA000E895089548E001D0FFCF58E151BD41BD0B
:101FB00008958CEF8DBD82EF8CBD85E08EBD88B716
:0A1FC00082FFFDCF88BFA8950895A9
:021FFE0003746A
:0400000300001E00DB
:00000001FF
