:100000000C9497080C94A9080C94A9080C94A908BE
:100010000C94A9080C94BF2C0C94A9080C94A90862
:100020000C94A9080C94AD100C94A9080C94A90880
:100030000C949F220C94A32C0C94B12C0C94792238
:100040000C94A9080C94A9080C947D2C0C94A90874
:100050000C94A9080C94A9080C94A9080C94A9085C
:100060000C94AE100C94A9080C94A9080C94A9083F
:100070000C94A9080C94A9080C94A908890A8B0A65
:100080008F0A990A970A930A930A950A9F0A9F0A68
:10009000E62FF72F903009F49395EBB8CAB8B6EF76
:1000A000B0937A00A5E0A0937B00A8E0A093810024
:1000B00010928000AFEFA0938500A0938400A6E08B
:1000C000A093360010928B0010928A00B3E0AFE349
:1000D000A91B51E0392F33302AF0A05CBC4F539557
:1000E0003350F9CFB0938900A0938800A0917A0093
:1000F000A4FFFCCFB6EBB0937A00A2E0A0936F0010
:10010000A9E0A093810062E0A0E0A0937B00A1E0C1
:10011000A09353008895EBB8CAB884FF1AC0A8E131
:100120000000AA95F1F7EF93FF93E1B1F2B1A4E0DB
:10013000C4FCA2E0C2FCA1E0BF2FBA2BAE2BB2B927
:100140000AB9A1B9E1B9F2B9FF91EF910BC00C94D2
:100150008700ACE100000000AA95F1F72BB9EBB8DD
:1001600000000AB9A0918400A0918500B091890097
:10017000A395AB1760F7A0917A00A4FFF3CFB6EB7D
:10018000B0937A006A9571F7609178007091790068
:10019000308186FD630F6193308186FD731F80FF80
:1001A0007193652F4A9579F710926F001092810034
:1001B000B6E0B0937A00089512020B02040249647B
:1001C00073733D00206574613D00554A54005055DD
:1001D00054001008407E01013E01013E01013E0134
:1001E000017E404018000720080808F800000020A1
:1001F00060A03FA06020020202FF02020210101065
:100200001F000000050842818989760508C2A19176
:1002100089860508000402FF0010100508F87838E8
:100220005888091003081C3E7F0D080710FF8181C4
:1002300081F1E1C1FF4040404743410D080110FFFB
:10024000FF11080310F1E1C14743410E00082021CE
:1002500021122060E0E0E0FEFE0402010001037FC5
:100260007F21C2C4C4C04094840007030102040E6D
:10027000080210FEFE7F7F00000000110005202014
:1002800060E0E0E00201000103C2C4C4C040070313
:10029000010204310803083320342D33306E462820
:1002A0004C29005245465F523D005245465F433D52
:1002B00000203E3130306E460066706E056D006B7A
:1002C0004D04104001020400111111131D10100003
:1002D000000E11110A1B00041F111111111F04003F
:1002E0001E0203021E0000000F0818080F00001174
:1002F00013171F1713110011191D1F1D1911001BB2
:100300001B1B1B1B1B1B005244533D005B435D002A
:10031000310803083320003108070608090A0833AA
:100320002000432B455352405450313A330066402D
:1003300054503200203530487A00433073616D707C
:1003400020004330200052695F4C6F3D0052695FCE
:1003500048693D0052303D0052482F524C002B520C
:10036000482D203132203133203233002B524C2D96
:100370002031322031332032330052482B00524892
:100380002D005248663D005265663D004943457365
:100390003D00494345303D0056657273696F6E20DC
:1003A000312E31336B0008090A08000807060800DF
:1003B0002A012020007A20513D002069662000207B
:1003C00040302D35560008020800080108004E6F25
:1003D000742063616C696272617465642120466F88
:1003E00072FF63616C6962726174696F6E20636C25
:1003F000616D70207468652033FF70696E732074BE
:100400006F67657468657220616E642073746172D1
:1004100074207769746820746865FF6B65792E2095
:1004200041636B6E6F776C656467652074686520E7
:1004300073656C662D7465737420776974682074B5
:100440006865206B65792077697468696EFF32731F
:100450002E20446973636F6E6E6563742070696EDD
:100460007320616674657220746865FF6D657373CF
:10047000616765202269736F6C617465FF50726FEC
:10048000626521222069732073686F776E2E205376
:100490006F66747761726520616E6420646F637546
:1004A0006D656E746174696F6E206973206174206C
:1004B00073766E3A2F2F206D696B726F636F6E7457
:1004C000726F6C6C65722E206E65742F7472616E23
:1004D000736973746F72207465737465722000564B
:1004E0006578743D0049723D004C3D0020566C6FAC
:1004F00073733D00204553523D005643433D004336
:10050000656C6C2100080308004056673D002056CA
:10051000743D0055663D005562653D002031323323
:100520003D0050696E2000424A542D504E5000420A
:100530004A542D4E504E00433D0043673D006846EF
:10054000453D002D49474254004A464554002D4D33
:100550004F5300444320507772204D6F6465004F25
:100560004B004261742E2000436F6E74726173748D
:10057000004C462071756172747A0048462071758E
:100580006172747A004672657175656E6379203E9A
:1005900020324D487A004672657175656E63790048
:1005A00073686F72742050726F62657321005365B7
:1005B0006C6674657374007475726E21004328054F
:1005C00046292D636F7272656374696F6E00726F76
:1005D0007461727920656E636F6465720031302DCD
:1005E0006269742050574D00662D47656E657261D3
:1005F000746F7200537769746368206F6666005386
:10060000686F77206461746100566F6C7461676510
:10061000005472616E736973746F720053656C6518
:100620006374696F6E3A005465737420456E64009C
:1006300069736F6C6174652050726F62657321001D
:1006400053656C6674657374206D6F64652E2E003F
:1006500054696D656F7574210020646574656374F9
:100660006564004E6F2C20756E6B6E6F776E2C205C
:100670006F720020756E6B6E6F776E0054687972C2
:100680006973742E00547269616300706172740042
:1006900064616D616765642000656D707479210027
:1006A0007765616B0054657374696E672E00B903DA
:1006B000870358032E030703E402C302A40288023F
:1006C0000000140029003E005300690080009700DC
:1006D000AE00C600DF00F80012012D0149016501DE
:1006E0008201A001BE01DE01FF0121024402680275
:1006F0008E02B502DE020903350364039403C803C6
:10070000FE0337047304B404F90443059305EA05B2
:100710004906B3062907AE074808FF08DE09FD0AA7
:10072000930C480F991B705780508D4A6645E340E3
:10073000E83C5E3933365A33C6306D2E492C532A85
:100740008428DA264E25DF2389224A212020081F0B
:10075000011E091D201C431B731AAD19F1183F1807
:100760009517F4165A16C6153A15B3143214B71362
:100770004013CE126112F81193113111D310781079
:100780000000000000000000000000000000000069
:100790001E2121211200807F0000007E4A4A4A3437
:1007A000000000000000FC402010080402010000CE
:1007B00000010101010101010101010101017F04A9
:1007C00088D0E0F0F8000000000000000000000009
:1007D00000000000000000FC94948400000102FC72
:1007E0000000000000000000000000001E21212188
:1007F00012E0C0804020100F000000C020202040E8
:10080000000000FC00009E9E04030303030200009E
:1008100000202023242525232020203F00007B7B4F
:100820002142840480C0000000000000000000009D
:1008300000000000FC94948400040607070708F0F9
:1008400000000000000000000000000000803F21C8
:1008500021120C00000000FF000000F0084848C80A
:100860000000FE0000E7818181C1E1F18181810109
:10087000002020202121212020203F0000F34040A3
:100880004041434740407FC000000000000000009E
:10089000000000000000489494946400000000FFF1
:1008A0000000000000000000000000000000000048
:1008B0003F2121120C0000FF000000F0084848D042
:1008C000000000000000FEFE040404040404040709
:1008D0000008080809090908087F3E1C08087F7FEE
:1008E00020202020202020E0000000000000000048
:1008F000000000000000000048949494640000FF91
:100900000000000000000000000000FF003C0A0999
:100910000A3C002231292926000082868E9EBEFED6
:10092000FEBEDEEFF6FAFEFEFAF2E2C28200000040
:1009300008080804027984A4A46800FF00000000ED
:1009400000000000000000000000000000000000A7
:10095000000000FF0000F0282428F0001008FC0030
:1009600000000000000000000000003C0A090A3CF2
:1009700000FF000000000000000000000000000078
:1009800000000000040C1C3C7CFF7C3C1C0C0400A0
:1009900000000000009EA1A9A99A804323130B0721
:1009A00003FF030303030303000000000000000033
:1009B000000000788484844800FF000000000000EC
:1009C000000000F00804E2110909090909090909F0
:1009D000091121C2040810E000000001020404070C
:1009E0000000000000804020108844231008040309
:1009F0000000000000000000000000FE0100FC02FA
:100A000001000000000000000000000000000000E5
:100A10000000007949497900000000000000000052
:100A200040F0101010F0400001010101010040F8F9
:100A3000F0E040F8400003010000030040F840E00F
:100A4000F0F8400003000001030040FCFC00FCFC47
:100A50004000070700070700E0101010E000000446
:100A600007000704000000F80000F000000E01027B
:100A7000010302000808080808F840020202020206
:100A8000030040F8080808080800030202020202F6
:100A90004040404040404000000000000000404016
:100AA000C00000800000000102020102008000007E
:100AB000C040400201020201000000FC021212ECE0
:100AC000000E030001010000000000000000000013
:100AD0000000000000000000000000000000000016
:100AE0000000000000000000000000000000000006
:100AF00000000000000000000000000000000000F6
:100B000000F80402FE02000C070404070C00FE00BB
:100B10000000FE000007040404070C00FE00FE00B5
:100B2000FE000007040704070C0000E01008F808A6
:100B3000000C070404070C00E014FC14E0000001A2
:100B40000A0F0A010000F8000000F8000007040482
:100B500004070C00F800F800F80000070407040779
:100B60000C00000000000000000000000000000079
:100B70000000000000000000000000000000000075
:100B80000000000000000000000000000000000065
:100B90000000000000000000000000000000000055
:100BA0000000000000000000000000000000000045
:100BB0000000000000000000000000000000000035
:100BC0000000000000000000000000000000000025
:100BD0000000000000000000000000000000000015
:100BE0000000000000000000000000000000000005
:100BF0003CFE3C00000000001B00000000160E0040
:100C0000160E000000000000000008FE0808FE08A4
:100C1000000107010107010038FE4484FE080004BA
:100C20001F08081F07001C149C4020180006010024
:100C30000E0A0E008854225488C0000304040201E6
:100C400006000000160E000000000000000000007A
:100C5000F008040202000003040810100000000263
:100C6000020408F000001010080403004850E0E0FF
:100C700050480002010000010200004040F04040E6
:100C80000000000001000000000000000000000063
:100C900000160E00000040404040404000000000B0
:100CA0000000000000000000000000000006060038
:100CB0000000000080402010000201000000000041
:100CC000F804020204F80001020404020100000812
:100CD00004FE020000000004070400000804824231
:100CE00024180006050404040600060212122AC68F
:100CF0000001020404020100E0988680F8800000F0
:100D00000000040704003E22121222C60001020461
:100D100004020100F824121222C00001020404029D
:100D200001000602C262321E00000007000000003F
:100D3000885422225488000102040402010038442D
:100D4000828244F8000004040402010000003030F4
:100D50000000000000060600000000003030000027
:100D60000000000A060000000040A0100804000077
:100D700000000102040020202020202000010101A9
:100D80000101010000040810A0400000040201005D
:100D900000001804824224180000000D000000002A
:100DA000F804629294F8000102040404020000F8BE
:100DB000848284F8000007000000070002FE22225F
:100DC00022DC0004070404040300F8040202040EF9
:100DD000000102040404030002FE020204F80004FD
:100DE00007040402010002FE227202060004070446
:100DF0000404060002FE227202060004070400003A
:100E00000000F8040282848E00010204040207003C
:100E100000FE202020FE0000070000000700000068
:100E200002FE0200000000040704000000000002AF
:100E3000FE02000002040403000002FE22F09C06F1
:100E4000000407040007040002FE02000000000482
:100E500007040404060000FE1C701CFE00000700CE
:100E600000000700FE1C70C0FE0000070000010724
:100E70000000F804020204F8000102040402010068
:100E800002FE4242423C0004070400000000F80455
:100E9000020204F8000102040502050002FE42C23B
:100EA000423C00040700000704000C122222448E7A
:100EB0000001020404020100000E02FE020E000006
:100EC00000040704000000FE000000FE0000030410
:100ED00004040300007EC000C07E00000001070182
:100EE000000000FE80F880FE0000010701070100FD
:100EF0008ED87070D88E00070000000007003E609A
:100F0000C0603E0000000407040000000682422288
:100F1000120E000704040404060000FE0202020090
:100F200000000F08080800000810204080000000A2
:100F300000000000010200020202FE00000008089A
:100F4000080F000000080402040800000000000070
:100F50000000000000000000000808080808080859
:100F600000000E1600000000000000000000C02875
:100F70002848F000000304040403040002FE1208E1
:100F800008F00004070404040300E0100808103807
:100F90000001020404040200F0080810FE0200032D
:100FA000040404070400E090888890E00001020433
:100FB000040400000010FC121204000004070400E6
:100FC0000000F0080808F00800010A0A09070000FC
:100FD00002FE100808F000040704000007000000EB
:100FE00016F60000000000040704000000000016D0
:100FF000F600000004080807000002FE40F0980810
:101000000004070400070400000002FE00000000C6
:1010100000040704000008F808F008F000040700C6
:101020000700070008F8100808F000040700000097
:101030000700E010080810E00001020404020100AB
:1010400008F0080808F000080F0902020100F00883
:101050000808F00800010202090F080008F8201033
:101060000830000407040000000030484848903869
:1010700000020404040403000010FE10100000002D
:10108000000304040200F8000000F8080003040450
:101090000207040078C000C07800000001070100CA
:1010A0000000F880F080F80000010701070100004F
:1010B00018B0C0C0B018000603000003060008F80E
:1010C0000000F8080000090A0A070000180888480C
:1010D000281800060504040406000040A01C0202B3
:1010E00000000000070808000000003E00000000AB
:1010F00000001F0000000002021CA04000000808C1
:1011000007000000040602060406000000000000BC
:1011100000000000000000000000000000000000CF
:1011200020202020202020205B524C5D0000112434
:101130001FBECFEFD0E1DEBFCDBF21E0A0E0B1E028
:1011400001C01D92A63CB207E1F70E94933C0C94AB
:101150001B450C9400002B98239A80FD2D9A80FF4C
:101160002D98259A279A2E9867FD2F9A67FF2F981A
:101170002E9A2E9866FD2F9A66FF2F982E9A2E98FB
:1011800065FD2F9A65FF2F982E9A2E9864FD2F9A51
:1011900064FF2F982E9A2E9863FD2F9A63FF2F9845
:1011A0002E9A2E9862FD2F9A62FF2F982E9A2E98D3
:1011B00061FD2F9A61FF2F982E9A2E9860FD2F9A2D
:1011C00060FF2F982E9A2B9A2E982F98089560934F
:1011D00046018093040186958093AD0187E0689F66
:1011E000602D112460930F01089580914601809332
:1011F00001018091AD018093030108958091030165
:1012000060910101880FE3CF0895CF93C82F692F14
:1012100081E0A1DF6C2F81E09EDFCF910895682FE0
:1012200080E099CF08958EEAFADF85EAF8CF089535
:101230008DE05CD58AE05AC508951092AD0160E05A
:1012400080E0C5DFF5CF0895CF93DF93C0E080E164
:10125000E6DF80E0E4DF8C2F806BE1DFD4E860E044
:1012600081E079DFD150D9F7CF5FC83081F7E5DF72
:10127000DF91CF9108952C982E982F982B98249A2F
:10128000269A279A239A63D52B9A239A2D98259AE2
:1012900084E164D52C9A84E161D58EEAC0DF82EEC8
:1012A000BEDF82EABCDF80EABADF80ECB8DF8FE223
:1012B000B6DF84E2B4DF81E8B2DF80E090E00E9434
:1012C000ED448F73ACDF80E4AADF84EAA8DF86EA0E
:1012D000A6DFBADF8FEAA3DF60E080E078CF089571
:1012E00081E08093AD0160E082E071DFA1CF0895DD
:1012F00082E08093AD0160E084E069DF99CF0895DA
:1013000083E08093AD0160E086E061DF91CF0895D6
:101310000895582F28E030E090E841E080E0652F04
:10132000642309F0892B440F969521503109B9F7B0
:101330000895A0E0B0E0EFE9F9E00C943D44EC0141
:1013400010E0C801860F911D813891050CF06CC02A
:10135000F12CE40EF11C31E4E316F1040CF064C04E
:10136000742E76947694769481E0E81AF10893E0EE
:10137000F594E7949A95E1F7E22FE2704E2E21FF63
:101380000DC0C701992787199109809FA001819FEE
:10139000500D909F500D1124C40FD51FF7E0FE157E
:1013A00010F487E0E82E862F82958F708061382EAA
:1013B00087E0F82EF7186F70662E2170522EE71412
:1013C00068F18F2D806B2BDF832D29DF862D27DFA2
:1013D0005E01A00EB11EC5014E01C817D907A9F0C4
:1013E0009C01215031096901552011F0F90101C01A
:1013F000F4018491411001C08CDF682F81E0ABDEE5
:10140000C601FFEF8F1A9F0AE8CF442019F05E0152
:10141000A01AB10A7394FA94E501D1CF9091040116
:1014200087E0891B806BFBDECDB7DEB7E1E10C9472
:101430005944EF920F93482F282F2F7380E6289F4F
:1014400090011124C9018058984F46FF02C028E03E
:1014500001C028E42093100147FF03C0109200014F
:1014600008C020E220930001209110012D5E2093FE
:10147000100120E2E22E08E120E04091000160919D
:10148000100157DF0F91EF900895EF920F93262FE1
:10149000FC01649131964491319604913196E49027
:1014A00030910001430F30911001630F049641DF2A
:1014B0000F91EF90089560E0E8CF0895EF920F93B9
:1014C000CF93C82F809146018F5F80934601409152
:1014D0000401440F440F440F2EE0C29FC0011124A9
:1014E00020E1E22E07E020E060910F01805E954F41
:1014F00020DF80910F01895F80930F018C2F90E096
:10150000FC013197EA30F105E0F4E25CFF4F0C9406
:101510008C438EE305C08CE7E9D38CE313C08CE7E2
:10152000E5D38CE70FC082E50DC08DE20BC085E7E7
:1015300009C08FE4DBD388E6D9D38DE603C08CE401
:1015400001C08C2FD3D3A895CF910F91EF90089520
:101550008F5CB4CF089580E2B1CF0895CF93C82FA8
:101560001C161CF4F8DFC150FBCFCF910895909169
:10157000460182E1891BF2CF0895CF93C82FF7DF90
:101580008091AD018F5F8093AD01843038F083E0AE
:101590008093AD0181E08093490102C0109249011E
:1015A0008091AD016C2F880F12DE42DECF9108953D
:1015B000E4DF2ED58091AD01833008F039CE089557
:1015C0003CDED5DF3ACE08958BDED1DF89CE08959B
:1015D0008DE374CF0895CF93DF93EC018991882335
:1015E00011F06CDFFBCFDF91CF910895CF93DF93A4
:1015F000EC01FE018491982F9F7719F05FDF21960F
:10160000F8CFDF91CF910895EF920F93FC010491F1
:101610003196E49002968DDE0F91EF9008950F932E
:101620008AE395E0E3DF409191014D3F64F46091DE
:101630007F0170918001809181019091820103E08E
:1016400026E417D102C08FE339DF0F9108959091FE
:1016500024019F70923071F4ABDF87E093E0C6DF26
:10166000E0914701F091480122E044E06FEF84816E
:101670009581E7C1089597FF09C08F939F938DE2ED
:101680001DDF9F918F91909581959F4F6CE271E046
:101690004AE050E00E94BA449ECF0895ECDF01C0BA
:1016A000EADF59CF0895EF92FF920F931F93182FFF
:1016B000062FF42E8CE195E099DFEE24E0914701AE
:1016C000F09148018685E81611F4812F09C08485C0
:1016D000E81611F4802F04C08585E81611F48F2DCB
:1016E000EDDEE3948E2D833049F71F910F91FF902B
:1016F000EF900895EF92FF920F931F93182F062FEC
:10170000F42E80E055DF82E295E070DFEE248E2D2E
:101710001FDF5EDFE0914701F09148018685E81602
:1017200011F4812F09C08485E81611F4802F04C0BC
:101730008585E81611F48F2DC1DE0DDFE3948E2D23
:10174000833029F71F910F91FF90EF900895682F34
:1017500080E092E0662309F491E0623009F481E0D0
:1017600008950F93082FEEEAF1E0880F880FE80F35
:10177000F11D6081718182819381643671058105DB
:10178000910570F42091020127FD0AC0802FDFDF50
:10179000692F0E94F9276EEF23E044E052D104C084
:1017A0004FEF04E024E065D0D6DE0F910895863037
:1017B00058F4E1EAF1E0E80FF11DE80FF11D808136
:1017C000918163E049D1C7CE08951F93182F80916E
:1017D0007A01882319F0BFDE80E070DE81DD83E1CD
:1017E00095E004DF812F82958F70E1DF812F8F706C
:1017F000DEDF1F9108958091110182958F7019D0BD
:101800008091110183701CD080911101DECF089569
:10181000E5E9F1E0E80FF11D0895CF93F9DF90813C
:10182000C681C91710F405D001C013D094DECF9142
:101830000895EEDF8F9380818BDE8F9101C0089534
:101840008F938AEC93E0D2DE8F91E2DF868180CEA7
:101850000895DEDF8F9386817BDE8F9101C008952E
:101860008F9386EC93E0C2DE8F91D2DF808170CEC1
:101870000895AEE0B0E0EFE3FCE00C943C44142F9C
:10188000322E202E6B017C010F7080E389838A83C6
:101890008B838C838D838E83F7FE0BC08DE20EDEEF
:1018A000F094E094D094C094C11CD11CE11CF11CB4
:1018B00004C025FE02C08BE201DE033071F004306B
:1018C00099F00530C1F00630F1F0073021F174E6EF
:1018D000472E512C612C712C25C068EE462E63E0FA
:1018E000562E612C712C1EC050E1452E57E2552E0C
:1018F000612C712C17C040EA442E46E8542E662411
:101900006394712C0FC030E4432E32E4532E3FE039
:10191000632E712C07C020E8422E26E9522E28E9BA
:10192000622E712C9AE0892E912CA12CB12CC4141A
:10193000D504E604F70470F0C701B6016B5F7F4F72
:101940008F4F9F4FA50194010E944E4369017A0178
:101950001F5FEDCFE1E1E10F9BEAE99FE12D11244B
:101960007E2E769486E0811B899F112D1124169579
:10197000912F990F190F811B182F5E0187E0A80E78
:10198000B11C2AE0A501C701B6010E949944F501E6
:1019900001900020E9F731976F01CA18DB082C2D60
:1019A0005601BB24812F90E004968A159B0514F400
:1019B00073941D5FE72DF0E0E754FD4FF49024FE93
:1019C00004C0201710F40C1901C000E08C2C811AFF
:1019D000800E181424F08EE271DD012F0C19111104
:1019E00002C088EF882EE12C10E0A00EB11EC82C9A
:1019F000082C000CDD088E2D90E08A159B05ACF4B8
:101A0000FC013696E01BF10B81E090E08C0F9D1FEE
:101A1000E80FF91F808152DDE3948E2D90E08C1544
:101A20009D0549F78EE24ADDE6CFFF2011F08F2DAC
:101A300045DD332011F0832D41DD2E96E2E10C943B
:101A400058440F93362FBC0180E090E0022F242FE2
:101A5000432F0FDF0F9108950F93062FBC0180E0F5
:101A600090E026E54DEF05DF0F9108950F93042FC9
:101A700028E440E0FEDE8AE721DD6DDD0F91089568
:101A8000E82FF0E0EE0FFF1FE854FE4FA591B49150
:101A900090910001490F90911001690F20E0CD0154
:101AA000B3CD0895CF93DF93C82FD62FE091470190
:101AB000F091480148E16EE18685E2DFE09147015F
:101AC000F09148014D2F6C2F8485DADFE0914701BA
:101AD000F091480140E06EE18585D2DFDF91CF9142
:101AE00008951F93CF93DF93AFDB80ECA2DC62E01D
:101AF00084EE91E0CADC80E89CDC89E192E0DBDCEA
:101B000060E085E064DB8FE295E070DD69E085E010
:101B10005EDB87E295E06ADD88E99AE313D294DB25
:101B200083E487DC83E085DC82E292E0C4DC61E070
:101B300082E04DDB8EE4C2DC8DE2C0DC89E495E01E
:101B400055DD6AE082E043DB80E5B8DC8DE2B6DC9F
:101B500089E495E04BDD88E99AE3F4D175DB81EC0B
:101B600068DC81E866DC8BE792E0A5DC60E085E07C
:101B70002EDB8EE4A3DC8DE2A1DC85E49FDC83E434
:101B800095E034DD69E086E022DB80E597DC8DE2DC
:101B900095DC85E493DC83E495E028DD88E99AE32D
:101BA000D1D152DB81E445DC8FE692E084DC81E038
:101BB00040DC8BE492E07FDC60E081E008DB8EE4D7
:101BC0007DDC8DE27BDC84E479DC83E495E00EDD72
:101BD00069E082E0FCDA80E571DC8DE26FDC84E4B0
:101BE0006DDC83E495E002DD88E99AE3ABD12CDB80
:101BF00082EC1FDC82E81DDC81E492E05CDC60E0CA
:101C000085E0E5DA8EE45ADC8DE258DC85E456DCCA
:101C10008EE495E0EBDC69E086E0D9DA80E54EDC25
:101C20008DE24CDC85E44ADC8EE495E0DFDC88E97B
:101C30009AE388D109DB82E4FCDB8BE392E03BDCB6
:101C400082E0F7DB89E292E036DC61E081E0BFDA36
:101C50008EE434DC8DE232DC84E430DC8EE495E02A
:101C6000C5DC6AE082E0B3DA80E528DC8DE226DCC0
:101C700084E424DC8EE495E0B9DC88E99AE362D15F
:101C8000E3DADBDA8BEA93E0B1DC2ADB86EA93E085
:101C9000ADDC2EDB85E095E0A9DC32DB8AEC93E05D
:101CA000A5DC59DC86EC93E0A1DCC0E012E18C2FCE
:101CB000612F0E941B4391110BC0D82FD37021F4C8
:101CC00088E99AE33FD1C0DA60E08D2F880F7FDA90
:101CD00080E28C0FF3DBCF5FCF3549F788E99AE3D9
:101CE00031D1B2DADF91CF911F9108958F932F9365
:101CF0002AE08095519A089410F4599802C0599A94
:101D0000000020D027D086952A95B1F72F918F918A
:101D1000089503D002D001D000D000D003D002D06B
:101D200001D000D000D003D002D001D000D000D02C
:101D3000A89503D002D001D000D000D003D002D0AB
:101D400001D000D000D003D002D001D000D000D00C
:101D500003D002D001D000D00000089590E0893C6B
:101D600028F0885C48EC849FC0011124009709F496
:101D7000089520918100277019F0DADF0197F6CFDE
:101D80008130910519F002973EE303C037E180E00E
:101D900090E02091B200230F2093B30042E04093E3
:101DA000700027E023BF889526E023BF10927000C3
:101DB000A895DCCF8F9384E0D1DF07C08F9382E0BA
:101DC000CDDF03C08F9381E0C9DF8F911F93182F60
:101DD000106410937C00E12FE07880913701E817C0
:101DE00059F0E0933701AEDF8EE980937A0083E00B
:101DF00083BF889582E083BF20E030E0A901E0E066
:101E000020C08EE980937A0083E083BF889582E0CA
:101E100083BF6091780070917900260F371F411DB4
:101E2000511DE43069F480913901803049F084E03B
:101E30002030380728F417FD03C010681F7BC9CF76
:101E4000EF5F80913601E817E0F260913A017091FE
:101E50003B0117FF04C0609138017091390180E0A7
:101E600090E00E940C432FEF33E040E050E00E94EE
:101E70004E43B901CA012091360130E040E050E004
:101E80000E944E43C9011F9108959B01281B390BE5
:101E900050F0C9010895BC0180913A0190913B0135
:101EA0006817790718F4861B970B089580E090E077
:101EB000089593B1991F9927991F1D999260809158
:101EC0001C01843050F08EE080931801909319012A
:101ED00010921D0181E080931C0180911C01E82F6C
:101EE000F0E0E85EFE4F3081931729F191111AC09E
:101EF000E3E0E80FE37020911D01323041F4F0E09F
:101F0000E85EFE4F3081333069F42F5F09C0313015
:101F100049F4F0E0E85EFE4F3081333019F421508F
:101F200020931D01E1E0E80FE370E0931C01F0E075
:101F3000E85EFE4F908380911D0187FD819580931F
:101F40001E010895A0E0B0E0E8EAFFE00C944544EB
:101F5000E82ED92E27982598F0DE10921D01E091E9
:101F60001C01F0E03196E370FF27E85EFE4F80EF42
:101F70008083C5E6D9E19DDF379905C0E2DED15007
:101F8000D1F7C150B9F7CE2DDD2DF12C15E500E0CC
:101F9000BB24B394D7FD36C082E3C82E8ADFD1DEDE
:101FA000CA94C110FBCF110F379B1F5F1F731F33E4
:101FB00049F4011103C0CE2DDD2D04E00F5F083C74
:101FC00028F020C0111102C001111CC0A8951C16D8
:101FD0001D0624F42A9711F4CFEFDFEF80911E0144
:101FE000882339F0F39480917B01811102C0B09273
:101FF0007B0184E18F1570F680911D01811102C073
:10200000F12CC8CF802FCDB7DEB7E9E00C94614446
:10201000CF93EBD8C82F80914901882301F18130FB
:1020200051F4C33041F461E186E0D1D88BE246DA65
:1020300061E186E0CCD880E49FE184DF811104C0B7
:1020400080911E018111F7CFC33041F48091490185
:10205000813021F460E086E0BAD889DACFD8CF9118
:10206000089589E290E00E94ED44382F8AE290E0E2
:102070000E94ED4420913E01230F30913F01381F13
:10208000209321013093220183E0283E380720F07D
:10209000C901885E934002C080E090E062E370E096
:1020A0000E942743683008F067E0EEEAF6E0E60FAA
:1020B000F11DE60FF11D459155912591359162E392
:1020C000681B421B530B649FC001659F900D112438
:1020D000499662E370E00E942743620F731F70937A
:1020E0007E0160937D018BE290E00E94ED44992790
:1020F00087FD909560913E0170913F01860F971F7B
:1021000090933901809338019093790180937801FD
:102110000895CF93DF9324E130E0B9010E94274373
:10212000DC01E0ECF6E0E60FF71FE60FF71FC591C4
:10213000D591459155914C1B5D0B4A9FC0014B9F1A
:10214000900D5A9F900D1124B9010E9427436C0FE6
:102150007D1FCB01DF91CF9108951895189530918F
:102160002301A0914701B0914801E5E9F1E080E049
:1021700090E08317B0F441911C962C911C97421764
:1021800019F04581241302C00196F3CFFC01EE0F34
:10219000FF1FEF55FE4F20813181293E334008F467
:1021A000089584E108951092250110922301109260
:1021B000730110925901109224011092450110925E
:1021C0007A01EEE5F1E0108211821282EFE7F1E090
:1021D000108A82E0818B1092020117861686148283
:1021E00015821682178281EF838B08958FE47EDD3E
:1021F00086E47CDD86E47ADD1BD815D829988CDD51
:1022000080E090E09FCE08951F93CF93DF93162F29
:1022100011B812B8E82FF0E0EF53FD4F94919BB93D
:10222000262F281BE20FF11D27FDFA95E491E92BDB
:10223000EAB9CCDDEC01812FC9DDAC0120913A0176
:1022400030913B0136952795C9010397BE01625E27
:102250007F4F8617970778F4255E3F4FC217D30745
:1022600050F4BA01625E7F4F8617970720F481E031
:102270004217530708F080E01AB8DF91CF911F9101
:102280000895CF9361E080E0BFDFC82F62E080E077
:10229000BBDFC80F62E081E0B7DF8C0FCF910895FC
:1022A000AFE0B0E0E6E5F1E10C943C44B82E1092CA
:1022B0002501807FB9F4E5DF833009F07FC30E94F8
:1022C000240980E496E092D90BD88FE3F7D880ED0B
:1022D00097E038DE8B30D0F40E94240988E993E03F
:1022E00085D96CC306E910E00E94240980EA95E0D4
:1022F0007DD9C7DF833021F41F5F143010F006C092
:1023000010E088E22BDD015079F764C00E9470096B
:102310000E94F02284E593E069D960E083E090E0D8
:102320000E94FA4460E084E090E00E94FA4460E099
:1023300082E090E00E94FA4460E082E00E94F92787
:102340006C019A83898361E082E00E94F9277C0115
:102350009C838B8360E081E00E94F9278C019E833F
:102360008D8323E040E26EEFC6016BDB23E040E2A9
:102370006EEFC70166DB23E044E06EEFC80161DB6E
:102380002AE5C216D10424F084E190E09A8389837F
:10239000698183E090E00E94FA448AE5E816F1043E
:1023A00024F084E190E09C838B836B8184E090E057
:1023B0000E94FA440A35110524F084E190E09E83DE
:1023C0008D836D8182E090E00E94FA4482E08093E8
:1023D00049011EDEEB2DEF70EF87E13011F018E7B9
:1023E0003AC1EE24E394F12C78EB872E72ED972E10
:1023F00077E4A72EB12C08E0E0E2DE2EF0E83F2ED5
:10240000C12C1E2D58E8252EDFD8DAD884E556D801
:10241000C7013CD9A0D81130B9F487E893E0E6D8D9
:1024200064E080913E0190913F0116DB0E947009AB
:1024300082E893E0DBD880917D0190917E0126D9DE
:102440008EEB80933601E2C0123079F520913A018B
:1024500030913B01A8E5BBE10E94924324EC36E3B6
:1024600040E050E00E94704329013A01F4E0FBB9DA
:1024700084E18AB980E09EDC841995099A83898376
:1024800084E48AB980E096DC841995099C838B8367
:1024900080E18BB980E58AB981E08CDC84199509EB
:1024A0009E838D838CE693E09EC0133041F50BB97B
:1024B00028E22AB980E07EDC20913A0130913B018C
:1024C0003695279538872F83821B930B9A838983B0
:1024D0002AB880E06FDC2F813885821B930B9C83A8
:1024E0008B83DBB880EA8AB981E064DC2F81388590
:1024F000821B930B9E838D838EE593E074C0143012
:1025000039F480E396E072D8BCDE811154C26FC00A
:10251000153099F41BB80AB980E04CDC9A838983A2
:10252000DAB881E047DC9C838B833AB882E042DCF6
:102530009E838D838EE793E056C0163039F50AB935
:102540000BB980E037DC20913A0130913B01821BCE
:10255000930B9A838983DAB8DBB881E02BDC209176
:102560003A0130913B01821B930B9C838B833AB8D9
:102570003BB882E01FDC20913A0130913B01821B85
:10258000930B9E838D838AE793E02DC0173069F506
:1025900020913A0130913B01A8E5BBE10E949243B2
:1025A000A50194010E944E4329013A010BB9ECE0C8
:1025B000EAB980E0FFDB841995099A838983DBB847
:1025C000F0E3FAB981E0F6DB841995099C838B83EB
:1025D0003BB820EC2AB982E0EDDB841995099E8393
:1025E0008D8388E593E002D802C0113079F00E9413
:1025F000700989819A813FD80E94AB0A8B819C81A6
:102600003AD80E94AB0A8D819E8135D811B812B894
:102610001AB81BB888EE93E095DC143011F08B30BB
:1026200020F4C39484E0C812EFCE88EE93E08ADCF5
:10263000EFEFEE1AFE0AF8E0EF16F10409F0E0CE33
:10264000CECE0E94E40A80E396E00E94F60A84E679
:1026500085DB115019F015DE8111F3CF0E9424099A
:102660008DE493E00E94F60A23E044E06FEF80914E
:102670003C0190913D01E5D90E94700986E493E008
:102680000E94F60A23E044E06FEF809143019091AD
:102690004401D7D982E080934901BADC1092250128
:1026A0000E94240982E493E00E94F60A60E082E03E
:1026B0000E94AA1F8090870190908801A0908901B4
:1026C000B0908A019C868B8661E082E00E94AA1FFE
:1026D000C0908701D0908801E0908901F0908A0134
:1026E000DE86CD8660E081E00E94AA1F009187010E
:1026F000109188011E830D8362E080E00E94AA1F72
:1027000080918701909188019C838B8362E081E0B6
:102710000E94AA1F80918701909188019A878987DA
:1027200061E080E00E94AA1F80918701909188015A
:102730009A8389832F85213021F020914201223014
:1027400021F4029698878F8304C098878F83109214
:102750004201C4010E94500BC6010E94500BB801F7
:10276000110F880B990B03E026E444EF82D88E0109
:102770000F5F1F4F6E018FE0C80ED11CF8018191D1
:1027800091910A97853B9105D8F4CE16DF06B9F7EB
:1027900042E2E42E40E0F42EF80160810E5F1F4F0C
:1027A0006E5EC7010E94FA44FFEFEF1AFF0AC016DF
:1027B000D10691F70E9470098FE595E00E94F60A14
:1027C00082E08093490124DC0E942D392F8521303D
:1027D00029F080914201823009F0D4C020E4F22E29
:1027E00010E03AE0832E912CA12CB12CDCDC0E946D
:1027F0002F340091910120917F013091800140910F
:10280000810150918201073F44F40F5FCA01B90171
:10281000A50194010E944E43F6CF009391012093AD
:102820007F01309380014093810150938201073FE3
:1028300009F090C0DA01C90180569109A109B109D6
:1028400080399545A105B10508F084C060919301D8
:1028500070919401CB018B569F4F8B32914008F0C1
:1028600079C01F5F153008F476C089E290E00E94BD
:1028700008450E9424098AEA92E00E94F60A8091A3
:102880009301909194010E943B0BEBDB46983E9A9A
:1028900087E09CDA853D9340DCF73E981092390141
:1028A0001092380187E092DA8C0180917801909142
:1028B0007901909339018093380187E087DA7C01B0
:1028C000EE0CFF1C109239011092380187E07EDA7D
:1028D000A0907801B0907901B0923901A0923801AE
:1028E000800F911F8C010E191F090E94700983EA45
:1028F00092E00E94F60A8BE290E00E94ED44D82E0E
:102900009501D8010E94A14397010F2C000C440BA4
:10291000550B0E94704313E01D0D120F612F8BE2C7
:1029200090E00E94FA44812F012E000C990B0E9426
:102930003B0B97DB82E0809349016ADB10924201F6
:1029400082E290E00E94ED44682F85E290E00E94D0
:10295000FA4418C010E00E94700960917F017091E4
:102960008001809181019091820104E026E44091F0
:1029700091010E94390C0E94B70A88E2EFD9FA94BB
:10298000F11034CF89E18093360180E00E944C3C05
:102990000E94240988E993E00E94F60A0E947009C7
:1029A00087E296E00E94F60A1092250182E0809369
:1029B00049012EDB03C082E0C82E19CE2F96E2E13A
:1029C0000C9458448091420181110DC082E290E044
:1029D0000E94ED4461E0680F85E290E00E94FA44B5
:1029E00081E0809342010895EF92FF920F931F932D
:1029F000CF93DF93D62FE82FF0E0EC53FD4FE49117
:102A0000E2B9E1B91BB8E62FF0E0EF53FD4FE491D6
:102A1000EAB988E8E82E83E1F82ECE2FCC0F8D2F6F
:102A2000C9D98C01CAB98E159F0510F47801F7CF6A
:102A3000892BE9F00E94800985EE94E00E94F60A55
:102A4000D80120EA36E841E050E00E94A74328E997
:102A500037EB40E050E00E944E43DA01C90122E02A
:102A600041E467EF0E94210D11B812B81AB8CDB732
:102A7000DEB7E6E00C9464440F931F93CF93DF938B
:102A800085E0A4D985E09ED9EC018C01000F111FCF
:102A9000000F111F10924001C8018E5E92408138D4
:102AA000954250F083E595E00E94F60A0E94B70A2D
:102AB00081E08093400126C082E695E00E94F60AFC
:102AC00062E0C8018A569F4F0E942C0D0E94AB0AFB
:102AD000CA3F86E0D80780F4C333D64050F489E972
:102AE00096E00E94F60A0E94B70A8DEC37D97EDB89
:102AF00009C080EA96E002C08FE595E00E94F60AE0
:102B00000E94B70ADF91CF911F910F910895CF9343
:102B1000DF93DC019C01261B370BE0E090E0B9015C
:102B2000690F711D672F7727920F260F371FBA0184
:102B30006E0F711D672F7727E40FEB01CC0FDD1FA0
:102B40004C0F5D1F6B3E28F4A217B30740F7CA0174
:102B500002C080E090E0DF91CF910895A7E1B0E05E
:102B6000E4EBF5E10C943C448E8B162F042FA895D2
:102B7000E62FF0E0EF53FD4F24912D87220F2D8B90
:102B8000339634913A83E42FF0E0EF53FD4F4491B4
:102B90004B83E42EEE0C3396F490E82FF0E0EF53E5
:102BA000FD4F84918983880F8E87339694919F8BF4
:102BB0004BB94D84442A4AB891B992B9862F02D9AB
:102BC0009C878B878B818E298BB95D845E285AB850
:102BD000812FF8D8ED85EAB9812FF4D81C011AB8F5
:102BE000A6D81BB84AB8812FEDD86B857C854DD906
:102BF0004C01FA81F1B912B82B813981232B2C8336
:102C00002BB92AB98E89DED846D95C011BB88FD87A
:102C100049814BB98E89D6D83ED96C0189818AB950
:102C20008E89D0D838D93C01B601C5012ED9803261
:102C3000E1E09E0730F4F0E28F16F1E09F0608F421
:102C40008FC58C0C9D1C2B853C85820F931F88168D
:102C5000990618F4DC86CB86130120915901309136
:102C60007301822F90E0830F911D02974CF0213069
:102C700009F076C59091560180917001981370C546
:102C800039813E293A878B859C858437910508F4E4
:102C90007CC1880F991F44962816390608F075C123
:102CA0009F8991B992B95AB8812F88D86C01802F29
:102CB0008DD85C01EBB8812F81D89601295A3D4F00
:102CC00012B82817390708F0A2C0EA81E1B9FA85DD
:102CD000FAB9FBB9802F72D888349F4028F085E07C
:102CE0008093250182E204C085E08093250184E27F
:102CF00080932401D0924F01C0924E01B501C601CC
:102D0000CFD890935501809354019601A0E1B7E28A
:102D10000E94924320911F013091200140E050E039
:102D20000E944E4330935101209350018D898E298A
:102D30008AB91BB83F8931B932B9802F47D86C01A5
:102D4000812F3CD8B601ACD89C019093530180935D
:102D50005201909124019F70943069F54091500187
:102D6000509151016091540170915501C901CFDE1C
:102D70000097E9F0EAB84F898A81482B41B9812F41
:102D80001DD86C0111B89C01A0E1B7E20E949243EA
:102D9000209143013091440140E050E00E944E43B5
:102DA000A901B6018091520190915301B0DE909338
:102DB0004F0180934E01809124018F70843009F47B
:102DC000C7C412B89A81F92AF1B8E981EAB9FC813D
:102DD000FBB98E890E94E20E6C015DD87C01812FC7
:102DE0000E94E60EA0902601B0902701BC01C6010A
:102DF00057D89501DC010E949243970140E050E0D2
:102E00000E944E4330934F0120934E01A1C42A816A
:102E100021B93A853AB93BB98E890E94DE0E6C0120
:102E2000802F0E94E60E5C0149814BB98E890E9479
:102E3000DE0E895A9D4F8C159D0508F091C48F892F
:102E400082B981B9802F0E94DE0E813D934028F423
:102E500085E08093250182E304C085E0809325010D
:102E600084E380932401B601C5011AD890936F01C1
:102E700080936E01C6010FD89C01A0E1B7E20E94C9
:102E80009243209126013091270140E050E00E94BA
:102E90004E4330936B0120936A0112B8FA81F1B965
:102EA0008E858E298AB98BB98E890E94E60E6C01B7
:102EB000802F0E94DE0EB6010E94500F9C0190935D
:102EC0006D0180936C01909124019F70943091F575
:102ED00040916A0150916B0160916E0170916F0198
:102EE000C90115DE009711F1EBB8EAB82F8922B9B4
:102EF000EA81E22BE1B98E890E94DE0E0E944B0F1F
:102F00006C0111B89C01A0E1B7E20E9492432091AC
:102F10003C0130913D0140E050E00E944E43A90148
:102F2000B60180916C0190916D01F1DD9093690182
:102F300080936801809124018F70843009F4E6C188
:102F40003F893F2932B931B91BB84C814AB98E89C2
:102F50000E94E20E5C01812F0E94E60E7C01C0906F
:102F60001F01D0902001BC01C5010E94500F9601A5
:102F7000DC010E949243970140E050E00E944E43E2
:102F80003093690120936801C1C112B88A8181B967
:102F900099819BB9EA85EAB98E890E94E20E988BE5
:102FA0008F870E944B0F9F838E83802F0E94E60E97
:102FB000998788873101F4E66F0E711C2E813F815D
:102FC000B10162167306D8F4C9010E94500F6C015A
:102FD000209126013091270140E050E060E871EA3D
:102FE00083E09CE10E944E43D6010E94A743E885FE
:102FF000F9854F01A12CB12CA501940123C08E812C
:103000009F810E94500F6C01FC81FAB98E890E9449
:10301000E20E988B8F870E944B0F9F838E83802FA9
:103020000E94E60E99878887BC01C6010E94500F56
:103030009C01A4E6B0E00E949243E885F9859F01D7
:1030400040E050E00E944E4349015A011AB81BB8B3
:10305000FF89F2B9F1B981E00E94AE0E4AB8812F22
:103060000E94E20E8F359D4008F456C15AB8812F58
:103070000E94DE0E6C01802F0E94E60E9A8B898BD7
:103080008E890E94E60E9C8B8B8B89899A89813D63
:10309000974008F4CAC0EBB8812F0E94DE0E81155C
:1030A000944098F080912501843078F48AE08093F0
:1030B000250169897A898B899C890E94500F909398
:1030C00069018093680181E026C484E08093250132
:1030D0008DE08093240176012C143D0410F4E21855
:1030E000F30840901F0150902001612C712C60E882
:1030F00071EA83E09CE1A30192010E944E43D70153
:103100000E94A743E989FA899F0140E050E00E94AC
:103110004E4380917301882369F0809164019091FE
:103120006501A0916601B091670182179307A4071A
:10313000B50708F52093640130936501409366015B
:10314000509367019601A0E1B7E20E949243A30168
:1031500092010E944E4330936B0120936A0169896A
:103160007A898B899C890E94500F90936901809382
:10317000680181E001C080E04091640150916501E7
:103180006091660170916701481559056A057B05D4
:1031900038F58092640190926501A0926601B09228
:1031A0006701688579858F8598890E94500F909373
:1031B0006901809368012E813F81A0E1B7E20E94FE
:1031C0009243209126013091270140E050E00E9477
:1031D0004E43205F384D30936B0120936A0103C04A
:1031E000882309F498C3C0901F01D0902001E12CDE
:1031F000F12C9101A0E1B7E20E949243A701960150
:103200000E944E4330936D0120936C012B853C85C9
:10321000A0E1B7E20E949243A70196010E944E43AB
:1032200030936F0120936E014ECFF1E62F163104DB
:1032300008F072C021EDC21627E0D20608F46CC077
:1032400085E08093250182E180932401C6018650A8
:103250009F4FEB89FC898E179F0720F483E18093B1
:10326000240116C0E0901F01F0902001B6018B8967
:103270009C890E94500F9701DC010E9492439601A5
:1032800040E050E00E944E43309369012093680172
:10329000FA81F770BF2E802F806480937C002BE032
:1032A0002983CC24C394D12CEE24EA94A3E0FA2EF3
:1032B000A89561E08B8160D55AB880B18B21E9F384
:1032C0003D853AB980917A00806480937A0080913C
:1032D0007A0086FDFCCF8091780090917900F7010B
:1032E000E81BF90BCE0EDF1EF981F150F983F111C5
:1032F000DFCFC601880F991F880F991F69E070E022
:103300000E94274370936F0160936E018091730157
:103310008F5F80937301D7CE5AB8EBB8812F0E948C
:10332000E20E5C01802F0E94E60E9F838E830E9436
:103330004B0F7C016A147B04A8F4B101C5010E9403
:10334000500F6C0120911F013091200140E050E0AE
:1033500060E871EA83E09CE10E944E43D6010E943E
:10336000A7431DC04AB82B812BB9812F0E94E20EC2
:103370005C01802F0E94E60E9F838E830E944B0F7C
:103380007C01C5012A143B0410F482199309B7018A
:103390000E94500F9C01A4E6B0E00E949243970166
:1033A00040E050E00E944E4329013A013A8131B990
:1033B00012B84C814AB94BB98E890E94E20E6C0159
:1033C000802F0E94E60E4C01812F0E94E60E7C01A8
:1033D00080E3C81681E1D80608F0C0C199819BB985
:1033E0008E890E94E20E99878887E981EAB98E89E1
:1033F0000E94E20E988B8F871BB881E00E94AE0E70
:10340000F981FBB98E890E94E20E2F85388920341C
:10341000364008F05FC08133914108F45BC0C601BB
:103420008A569F4F288539852817390708F052C0DA
:1034300086E080932501809159018F5F8093590127
:10344000B701C4010E94500F90934F0180934E0129
:10345000B701C6010E94500F90935501809354010B
:103460001AB81BB83A8132B981E00E94AE0E498188
:103470004AB98E890E94E20E853F910508F05AC232
:103480008C818AB9802F0E94E20E813D934008F41E
:1034900051C28E890E94E60E8D3D924008F44AC2C8
:1034A00029812AB98E890E94E20E8D3D924008F44E
:1034B00041C249814BB981E00E94AE0E1BB88E8992
:1034C0000E94E20E853F910508F034C287E08093A8
:1034D000250130C28A8181B99B819AB99BB981E06B
:1034E0000E94AE0EEA85EAB9EBB98E890E94E20E1F
:1034F0006C010E944B0F7C01802F0E94E60E9D8381
:103500008C830E944B0F99878887812F0E94E60E3B
:103510004C01288539852E3F394008F4B0C084E03D
:10352000809325018CE080932401B101C7010E94A2
:10353000500F6C01209126013091270140E050E0AE
:1035400060E871EA83E09CE10E944E43D6010E944C
:10355000A743E885F9859F0140E050E00E944E4373
:1035600080915901882369F080914A0190914B0123
:10357000A0914C01B0914D0182179307A407B507A4
:1035800020F520934A0130934B0140934C01509316
:103590004D01B4018C819D810E94500F90934F0189
:1035A00080934E019701A0E1B7E20E9492432091DF
:1035B00026013091270140E050E00E944E433093B5
:1035C00051012093500181E001C080E040914A0107
:1035D00050914B0160914C0170914D01441555057E
:1035E0006605770528F540924A0150924B0160929A
:1035F0004C0170924D01B5018E819F810E94500F48
:1036000090934F0180934E019501A0E1B7E20E9493
:10361000924320911F013091200140E050E00E9430
:103620004E43205F384D309351012093500103C029
:10363000882309F480C19101A0E1B7E20E9492437E
:1036400020911F013091200140E050E00E944E4344
:1036500030935301209352012B853C85A0E1B7E2C2
:103660000E949243209126013091270140E050E0D2
:103670000E944E4330935501209354015BC1F1E603
:103680002F16310408F06AC029E4E2162DE0F20694
:1036900008F464C085E08093250182E080932401D2
:1036A000C40186509F4F8C159D0520F483E08093C4
:1036B000240115C0A0902601B0902701B401C601D5
:1036C0000E94500F9501DC010E949243970140E057
:1036D00050E00E944E4330934F0120934E013F89AA
:1036E0003770D32E802F806480937C004BE04A8318
:1036F000EE24E394F12CA89560E08B813DD38A857C
:103700008AB98BB980B18D21E9F799819AB98091F5
:103710007A00806480937A0080917A0086FDFCCFE5
:103720008091780090917900E80EF91EEA81E150CD
:10373000EA83E111E0CFC701880F991F880F991F15
:1037400069E070E00E942743709355016093540133
:10375000809159018F5F80935901ECC011B812B864
:103760001AB81BB811B8F7EC2F16F1E03F0608F4B1
:10377000C4C012B82E852AB908ECEA803F89E32A32
:10378000E1B881E00E94AE0E4A8141B98E890E9463
:10379000E60E429710F0015099F78E858AB98BB9E1
:1037A00061E08B81E9D28E890E94E20E4C019D89F5
:1037B0009AB91BB8EF89E1B9E2B960E08B81DCD23C
:1037C000812F0E94E20E0E944B0F6C01FD85FAB919
:1037D000812F0E94E60E7C018E890E94E20EB701C5
:1037E0000E94500F7C01812F0E94E60E5C018E89A1
:1037F0000E94E20EB5010E94500F97012C5E3F4FD0
:103800002817390708F47CC012B82A8121B93981F8
:103810003AB93BB961E08B81AFD2812F0E94E60EAD
:103820005C018E890E94E20EB5010E94500F5C017E
:10383000E816F90650F44E854AB94BB98E890E94B4
:10384000E20E9C01640175010FC08D898AB91BB815
:103850009F8991B992B960E08B818ED2812F0E94AD
:10386000E20E0E944B0F9C01E8EEEE16E3E0FE062E
:1038700030F4C70164E670E00E94274306C0B70138
:1038800054E0769567955A95E1F7C70187599109F4
:103890008938914190F52E153F0578F5C60143E032
:1038A000969587954A95E1F7893C910510F088EC4B
:1038B00090E08C0D9D1D8E159F05F8F46C157D050F
:1038C000E0F480912501833018F483E08093250192
:1038D00020912301822F90E0FC01EB56FE4F3E89A0
:1038E00030831683880F991FFC01EF55FE4FF1823C
:1038F000E0822F5F2093230103C0612F8E892AD09D
:1039000011B812B81AB81BB88EE20E945E0A679608
:10391000E2E10C945844909173019F5F909373017E
:10392000882371F300937001109371014E894093C5
:103930007201E6CF81E0909159019F5F9093590108
:103940008823F1F2009356018E89809357011093DA
:103950005801D6CFA0E0B0E0E0EBFCE10C943E448F
:10396000A895462F50E0FA01EF53FD4F94903396FF
:103970009491A82FB0E0FD01EF53FD4FE4903396F2
:10398000F490709173012091590130E0270F311D9F
:10399000232B09F0ECC1A8952091290130912A012F
:1039A000220F331F220F331F30933B0120933A0124
:1039B0002091780130917901220F331F220F331F9C
:1039C00030933901209338012EEB20933601C091BA
:1039D0002301E5E9F1E070E04A0F5B1F7C1759F025
:1039E0002191A58130E02A0F311D2417350709F4F4
:1039F00051C07F5FF3CFD62FC82F12B891B9EAB864
:103A0000EBB8B8E1BB2EC12CD12C8D2F0E94E20E59
:103A1000782E692E8C2F0E94E60E8C018C199D0940
:103A200097FF03C0919581959109039734F0A8956C
:103A3000BA946801B110E9CF2DC0EE0C1BB8EAB8FA
:103A40008C2F0E94E20E8135910520F5EBB88C2F6A
:103A50000E94E20E6C01F1B8F2B81BB89AB8A8E166
:103A60008A2EA12CB12C8C2F0E94E20E582E492EAA
:103A70008D2F0E94E60E7C018A199B0997FF03C0D7
:103A80009195819591090397CCF0A8958A94570157
:103A90008110E9CF8091290190912A0190933B01F7
:103AA00080933A0180917801909179019093390146
:103AB0008093380189E18093360159C1990C9AB8F5
:103AC0008D2F0E94E20E5C01003C84E4180730F464
:103AD00025E8C21621E0D206E8F605C080EBC8163C
:103AE0008DE4D806B8F624EAE21622E0F20608F0E1
:103AF0006CC088E9A816B10468F2C6010E944B0F99
:103B0000AC019601A8E9B7EB0E9492439A0140E00C
:103B100050E00E944E4329013A01C5010E944B0F1B
:103B20009C01A8E9B7EB0E949243850120E030E0B8
:103B3000A90198010E944E4388E7C8168FE0D80675
:103B400080F4D301C201F2E0880F991FAA1FBB1FA6
:103B5000FA95D1F7BC01CD01620F731F841F951F29
:103B600014C088E7A8168FE0B806B0F4DA01C901DE
:103B7000E2E0880F991FAA1FBB1FEA95D1F7BC018D
:103B8000CD01640D751D861D971D25E030E040E0D8
:103B900050E00E944E430CC0D301C201820F931F1C
:103BA000A41FB51F9C01AD015695479537952795E4
:103BB000A4E6B0E00E94A7432B013C012CEA420E90
:103BC0002DE0521E611C711C79C0672D762D0617E1
:103BD000170708F4B801C52CD42CCE14DF0408F460
:103BE00067010617170708F48B01A0902601B09013
:103BF0002701C8010E94500F9501DC010E949243E9
:103C00002B013C01C8010E944B0F9C0140E050E099
:103C1000C301B2010E944E4329013A01CE14DF04D0
:103C200008F47601A0901F01B0902001B701C601F1
:103C30000E94500F9501DC010E9492434701A12C84
:103C4000B12CA50194010E944E4308378FE018075C
:103C500080F4D301C20162E0880F991FAA1FBB1F25
:103C60006A95D1F7BC01CD01620F731F841F951FA8
:103C700014C088E7E8168FE0F806C0F4DA01C9013D
:103C800032E0880F991FAA1FBB1F3A95D1F7BC01DC
:103C9000CD01640D751D861D971D25E030E040E0C7
:103CA00050E00E944E4329013A0108C0420E531EC3
:103CB000641E751E7694679457944794109125015D
:103CC000143008F0E7CEC1500C2F0D0F202F30E03C
:103CD000E901C25ADE4F8881220F331F220F331FA2
:103CE000F901E255FE4F8823D9F1C080D180E280EE
:103CF000F380A30192012C193D094E095F0957FF7A
:103D000007C050954095309521953F4F4F4F5F4FDD
:103D1000AAE0B0E00E94A74324E6C20ED11CE11C39
:103D2000F11CA7019601240D351D461D571D0E944B
:103D30004E43232B242B252B09F0ACCE133019F046
:103D400081E08093250182E0888380917A01E82FC9
:103D5000F0E0EF59FE4F00838F5F80937A019ACE97
:103D6000408251826282738281E0888393CECDB794
:103D7000DEB7E0E10C945A44CF93C82FC0959BB1B5
:103D800060FF02C0982B01C09C239BB99AB1892B7C
:103D90008AB982E00E94AE0E8AB18C238AB98BB1B7
:103DA000C823CBB9CF910895AF92BF92DF92EF9223
:103DB000FF920F931F93CF93DF931AE08CEFD82ECF
:103DC00009E011B812B81BB8DAB880E00E94E20E20
:103DD0007C0181E00E94E60EEC0182E00E94E60E8A
:103DE0009C0180912501893079F411B81AB8F092BC
:103DF0000601E0920501D0930801C09307013093BA
:103E00000A01209309015CC084E0E816F10440F443
:103E1000C430D10568F42430310538F391E00CC08A
:103E200091E088EEE81683E0F80618F090E001C013
:103E300091E0C83ED34008F49260283E334008F435
:103E4000946091B9C0E0D0E0A89580E00E94DA0EBD
:103E50005C0181E00E94E60E7C0182E00E94E60E99
:103E600024E1A21625E0B20608F4089A24E1E2163D
:103E700025E0F20608F4099A843125E0920708F457
:103E80000A9A26E0A216B10430F426E0E216F10404
:103E900010F4069738F02196C43F81E0D807A1F6C8
:103EA00000932501E12CF12CEC16FD0631F00E9467
:103EB0009D0E2FEFE21AF20AF7CF115009F081CFD1
:103EC000DF91CF911F910F91FF90EF90DF90BF9006
:103ED000AF900895CF92DF92EF92FF92CF9320910F
:103EE0007F01309180014091810150918201C09108
:103EF00091018AE0C82ED12CE12CF12C8C2FCF5FC0
:103F0000213A96E8390791E04907510538F0CA018E
:103F1000B901A70196010E944E43F0CF8093910111
:103F2000A0913A01B0913B010E94A74328E833E1F8
:103F300040E050E00E944E4320937F013093800187
:103F40004093810150938201CF91FF90EF90DF90D9
:103F5000CF9008958F929F92AF92BF92CF92DF92AF
:103F6000EF92FF921F93CF93DF93982F990F980FA3
:103F70002FEF260F920F90935B01E82FF0E0EF53A5
:103F8000FD4FD491262F30E0F901EF53FD4FF4900F
:103F9000F901EC53FD4FD49090912501913009F433
:103FA0009CC220912301E5E9F1E0DF0190E0921746
:103FB00091F016963C911697631309C03C918313B8
:103FC00006C0448555854C3D554008F486C29F5F28
:103FD00011963296ECCF162FC82F10928C011092AA
:103FE0008B0181EF8093910110927F0110928001EB
:103FF0001092810110928201D7DE12B8D1B8FAB8BE
:10400000FBB88C2F0E94E60E5C01812F0E94E60E09
:10401000A81AB90A1AB810925D0110925C01809139
:104020005C0190915D01843F914008F0A9C0DBB92B
:10403000DAB90E94970E1AB81BB80E949E0EA89576
:104040008C2F0E94E60E7C01EA18FB0880915C012F
:1040500090915D018E37910528F08BE4E816F1040C
:104060000CF48EC080915C0190915D012DE2E2160E
:1040700021E0F20634F4019690935D0180935C0197
:10408000CECF892B09F0A1C185E1E81685E0F806BD
:104090000CF49BC189DE1BB887E081B912B8FD2EF4
:1040A000FF0CFAB880E480937B0084E580BF8C2FFE
:1040B000806480937C0086E180937A000E94A10E48
:1040C00010925D0110925C011092800010928500A8
:1040D0001092840087E286BB81E280936F0081E0CA
:1040E00080937C01FBB890912501809381009530ED
:1040F00009F04BC081E090E00C2E01C0880F0A94BB
:10410000EAF78095877081B9F89483B7817F83BF80
:1041100080917C01882389F083B7816083BF789484
:10412000889583B78E7F83BFF894A89580915C01B2
:1041300090915D018034964059F7789410928100F7
:10414000E0908600F090870010926F0086E98093DF
:104150007A001AB81BB88C2F0E94E60E20913E01FF
:1041600030913F01821B930B0C96909394018093A6
:10417000930180915C0190915D018032934038F011
:1041800011B812B81AB81BB8A8C1D1B8BDCF809168
:104190005C0190915D0190938A0180938901F09276
:1041A0008801E092870184EF8093910180915C0106
:1041B00090915D0182349105C8F060918701709102
:1041C00088018091890190918A0124E630E040E0E5
:1041D00050E00E944E432093870130938801409322
:1041E000890150938A0186EF80939101A0917D010E
:1041F000B0917E0120918701309188014091890121
:1042000050918A010E94A74320E233E040E050E051
:104210000E944E4320938701309388014093890187
:1042200050938A0120937F01309380014093810154
:10423000509382014FDE80919101843F09F070C05C
:10424000C0907F01D0908001E0908101F0908201C8
:1042500080EAC8168FE0D806E104F104C0F4A70193
:1042600096012C543F4F4F4F5F4F60EA7FE080E054
:1042700090E00E944E43C20ED31EE41EF51EC09273
:104280007F01D0928001E0928101F0928201C09082
:104290007F01D0908001E0908101F0908201C114F3
:1042A000D10421E0E206F10428F4D092BF01C092CB
:1042B000BE0106C081E090E09093BF018093BE01F3
:1042C00080915B0190E08E5D9F4F0E94ED4490E0F5
:1042D000A0E0B0E08C159D05AE05BF0568F4C81AD6
:1042E000D90AEA0AFB0AC0927F01D0928001E092CB
:1042F0008101F092820114C034E1C30ED11CE11C93
:10430000F11CC816D906EA06FB0610F40E94E21456
:1043100010927F011092800110928101109282010F
:10432000DAB980917F0190918001A0918101B091D3
:1043300082014997A105B10508F422CFC12CD12CE7
:1043400080912301882329F080912501853009F08F
:1043500017CF88E08093250180919101909192017F
:104360009817C4F089130CCF80907F019090800142
:10437000A0908101B090820140918301509184010D
:104380006091850170918601481559056A057B0584
:1043900008F0F6CE40917F0150918001609181013B
:1043A0007091820140938301509384016093850151
:1043B0007093860180939201D0928E01C0928D01FC
:1043C00010938F01C0939001DBCEC701C12CD12C7B
:1043D00020915C0130915D012C153D0560F00E943B
:1043E000980E8C2F0E94E60E8A199B09A8952FEF34
:1043F000C21AD20AEDCF5701A81AB90A1A141B041F
:104400009CF439ECA316B1040CF0BACE28EE33E0DC
:10441000D5010E94A14397010F2C000C440B550BB2
:104420000E944E43690102C0C12CD12C80915C01D5
:1044300090915D010196A0E0B0E080938701909398
:104440008801A0938901B0938A01C7018A0D9B1D41
:1044500098D0209187013091880140918901509135
:104460008A01DC010E94A743609387017093880151
:104470008093890190938A0160937F0170938001FA
:10448000809381019093820187EF8093910122DDD7
:1044900080907F0190908001A0908101B090820176
:1044A00085E090E00E94ED44A8EEB3E0A81BB109BE
:1044B00087FDB395A50194010E94B14324E630E045
:1044C00040E050E00E944E4320937F0130938001F2
:1044D000409381015093820133CFDF91CF911F919F
:1044E000FF90EF90DF90CF90BF90AF909F908F9014
:1044F00008951F920F920FB60F9211248F939F93DE
:10450000B59904C080917C01811109C0B59B10C090
:1045100080918600909187008A3F910548F48091B0
:104520005C0190915D01019690935D0180935C0127
:104530009F918F910F900FBE0F901F9018951F9213
:104540000F920FB60F9211248F939F9310927C01BC
:10455000B09B10C080918600909187008A3F9105A2
:1045600048F480915C0190915D01019690935D010A
:1045700080935C019F918F910F900FBE0F901F90C1
:1045800018950F9221E08C32920710F48CE291E0A2
:104590008C52914069E170E00E94274399E16B32AF
:1045A00010F0982F6BE2981BE6E2F7E0E60FF11DA2
:1045B000E60FF11D4591559125913591692F421BCB
:1045C000530B649FC001659F900D11240C9669E107
:1045D00070E00E942743620F731FCB010F90089574
:1045E000A0E0B0E0E6EFF2E20C94424488E893E108
:1045F00090932A018093290190933B0180933A0183
:104600008EEB8093360112B880E181B90E94A60E2C
:1046100011B884E00E94E20EAC018B5C9840833FAD
:104620009140A0F481E08093450120913A013091BE
:104630003B01AFEBB9E00E9492439A0140E050E0A9
:104640000E944E4330932A01209329018091290131
:1046500090912A0190933B0180933A018EE10E9450
:10466000E60E8EE10E94E20E90933F0180933E01A0
:104670000E94311099DB12B8FF24F394F1B884E55D
:104680008BB9D4E0DAB980E00E94E20E8C01C2E07E
:10469000C1B980E1C82ECAB881E00E94E20E080FBD
:1046A000191FD1B990E4D92EDAB882E00E94E20E47
:1046B000080F191F1BB8F2B8F1B8DAB980E00E94F0
:1046C000E20E0E944B0F7C01C2B9C1B9CAB881E0A9
:1046D0000E94E20E0E944B0FE80EF91ED2B9D1B92A
:1046E000DAB882E00E94E20E0E944B0FE701C80F89
:1046F000D91F11B812B81AB820913A0130913B0174
:104700006901CC0CDD1CC20ED31EC01AD10ACC1A12
:10471000DD0AE12CF12C9801A0E9BAE10E94924354
:10472000A70196010E944E4349015A01309344016A
:10473000209343019E01A0E9BAE10E949243A701A0
:1047400096010E944E4330933D0120933C01205737
:10475000354E309327012093260180E7881A85EE95
:10476000980A9092200180921F0189E1809336017E
:10477000CDB7DEB7ECE00C945E44CF92DF92EF92BF
:10478000FF920F93CF93DF93F82ED62FC42F0E9462
:10479000A80A8BEA93E00E94F60AFAD16D2F8F2DBA
:1047A0000E94C93AC090C201D090C301E090C401F8
:1047B000F090C5018091020187FD05C0C114D104AC
:1047C000E104F10421F087EA93E00E94F60A8D2FBC
:1047D0000E94A80AC114D104E104F104A1F10E94CD
:1047E000AB0A809161010E94B10BCC2309F47EC019
:1047F000809146018F3028F490E0865E9E4E0E94A4
:10480000F60A80E00E94D80ACD28CE28CF2801F1F0
:104810006091C2017091C3018091C4019091C50162
:1048200003E028E447EF0E94390C8AEB93E00E94F2
:10483000F60A8CE290E00E94F54423E046E464EF3F
:104840000E94210D1FC0C111D3CF80E00E94D80A61
:10485000809161010E94B10B809102018E3F94F41E
:1048600089EE94E00E94F60A60910B0170910C01B0
:1048700080910D0190910E0103E028E44091020126
:104880000E94390C8091BA019091BB01A091BC01AA
:10489000B091BD01892B8A2B8B2BF1F080E00E9417
:1048A000D80A6091BA017091BB018091BC019091CE
:1048B000BD0104E028E440E00E94390C85EB93E060
:1048C0000E94F60A23E040E26FEF8091C0019091D0
:1048D000C1010E94210D07C080E00E94BD0A8091A5
:1048E0004901811107C00E94B70A04C080E00E94FC
:1048F000D80A8ECFDF91CF910F91FF90EF90DF908C
:10490000CF900895EF92FF920F931F93CF93DF9371
:10491000182F0E941D0980918F010E94A80A85E02E
:1049200095E00E94F60A0DD560918F01809190016B
:1049300060D3EC0190938C0180938B01E0908D010A
:10494000F0908E01CA3F8FEFD80720F48CEA93E0F5
:104950000E94F60A809190010E94A80A112359F042
:10496000909146018FE0891B0E94AE0A8CE093E093
:104970000E94F60A02C00E94B70A0E947009609164
:10498000830170918401809185019091860104E0FA
:1049900026E4409192010E94390CCA3FDF4F68F42F
:1049A00084EF94E00E94F60A22E044E06EEF8091EA
:1049B0008B0190918C010E94210D0E94B70A0E94E8
:1049C0007809E114F10469F08DEE94E00E94F60A92
:1049D00022E045E26FEF80918D0190918E010E945F
:1049E000210D0E94B70ACDB7DEB7E6E00C9464440F
:1049F0008F7021F40E9480090C943C1508958F302B
:104A000021F490914001913011F08F5F089580E082
:104A10000895CF9387E193E00E949331C0E00E9414
:104A2000D31060E082E00E94AA1C62E080E00E9455
:104A3000AA1C0E941D0980917A01882329F041E077
:104A400062E080E09ADE12C087E193E00E94F60AFD
:104A500084E291E10E94F60A0E9470098FE30E94AD
:104A60005E0A80E00E94BD0A0E94B70A8C2FC0DF58
:104A700088EE93E00E94A20F811109C080911E016F
:104A8000843028F48C2FBBDFC82F8A3F40F20E946D
:104A90002409CF9108950F931F93CF93DF93C0E024
:104AA000D8E012EF0FE00E94D31060E082E052DA0B
:104AB000D093250180919101843FE1F480917F01A1
:104AC00090918001A0918101B0918201843691057D
:104AD000A105B10578F440E060E082E00E94493829
:104AE00060937F0170938001809381019093820194
:104AF0001093910180919101823FACF080939201DB
:104B000080917F0190918001A0918101B0918201FB
:104B10008093830190938401A0938501B0938601D3
:104B200081E0F0DE1CC00E941D0980E193E00E943C
:104B3000F60A80914601902F981B892F0E94AE0A99
:104B40008CE093E00E94F60A0E9470098FE30E94B5
:104B50005E0A0E94B70A0E9478090E94B70A8C2F49
:104B600047DF88EE93E00E94A20F81110AC0809176
:104B70001E01843030F48C2F42DFC82F8A3F08F4A6
:104B800092CF0E942409DF91CF911F910F91089538
:104B9000A4E1B0E0EEECF5E20C943C4482E08093BA
:104BA000020180912501813009F01FC280917A01B4
:104BB000813009F01AC20091610124E0029FF001E6
:104BC0001124E255FE4F80819181A281B381893009
:104BD00032E59307A105B10508F007C24C0110E0CA
:104BE000802F123028F40E94A70B582E492E03C0A4
:104BF0000E94A70B2C01E42DF0E0EC53FD4F249014
:104C0000852D90E0FC01EF53FD4FE4911BB812B8E5
:104C100020EF82169104B0F410FD14C0A0901F0183
:104C2000B090200130E9A31A3AE1B30A21E030E064
:104C3000052C02C0220F331F0A94E2F7C901822912
:104C400081B906C0EAB921B8A0901F01B090200137
:104C5000F4E13F2E852D0E94DE0E3C01842D0E9442
:104C6000E60E34E06316710410F4049718F03A94D9
:104C70003110F0CF80E480937B0094E590BF852DC8
:104C8000806480937C0026E120937A00E12CF12C53
:104C900010928000109285001092840037E236BB9B
:104CA0000E94A10E812F8170382E10FD05C081E871
:104CB0008093810022B808C022B80E94AA0E90E218
:104CC00096BB81E88093810086B385FF12C012B83D
:104CD0001092810020E226BB20918600309187004F
:104CE000690140918400509185002417350770F0C8
:104CF00014C080FFE9CF31E036BBA89597012F5F44
:104D00003F4F790120353105F9F6E1CF80FF05C02D
:104D100081E086BB9FEFE91AF90A86E980937A0061
:104D2000E4E12E2E852D0E94DE0E3C01842D0E9492
:104D3000E60E24E06216710410F4049718F02A9429
:104D40002110F0CF4090430150904401480C591C71
:104D50004A0C5B1C209121013091220180E9A816A8
:104D60008AE1B806B0F491EEC916D104E104F10469
:104D700038F4C60165E070E00E942743645101C029
:104D800069E128523109261B310967FD339586E018
:104D900009C0C20160EB76E30E94274387E0860FDB
:104DA000285D3F4F90E0A0E0B0E08C159D05AE057A
:104DB000BF0528F4C81AD90AEA0AFB0A03C0C12CA5
:104DC000D12C7601332029F082E2C80ED11CE11CDF
:104DD000F11C90E5E916F10418F0C12CD12C7601F4
:104DE0008BE0C816D104E104F10428F091E0C91A5F
:104DF000D108E108F10840913A0150913B01612C42
:104E0000712CA8EEB3E00E949243698B7A8B8B8B56
:104E10009C8B9501DA010E949243A30192010E94AA
:104E20004E434427552769897A898B899C890E943A
:104E30004E43C9010E948910FC01A3019201C701E0
:104E4000B6010E940C432B013C01CF01A0E0B0E071
:104E500073E0880F991FAA1FBB1F7A95D1F7BC0179
:104E6000CD016B5F7F4F8F4F9F4F2AE030E040E0D6
:104E700050E00E944E43C301B2010E944E43E12F15
:104E8000F0E0A1E0B0E0AC0FBD1F84E0189FA00DE2
:104E9000B11D11242D933D934D935C9313973110C5
:104EA00016C09CE0C916D104E104F10480F03196EB
:104EB000EE0FFF1FEE0FFF1F81E090E08C0F9D1F94
:104EC000E80FF91F20833183428353831F5FA89526
:104ED0001F5F143008F484CE12B884E00E94AE0E36
:104EE00091E00D811E812F81388549815A816B8126
:104EF0007C81401751076207730708F090E00D8529
:104F00001E852F85388949855A856B857C85401794
:104F100051076207730710F483E001C082E0E92FB4
:104F2000F0E0EE0FFF1FEE0FFF1F21E030E02C0F2F
:104F30003D1FE20FF31FD90134E0839FA00DB11D87
:104F400011240D911D912D913C91408151816281DF
:104F50007381041715072607370708F0892FE1E04A
:104F6000F0E0EC0FFD1F94E0899FE00DF11D11248E
:104F7000408151816281738140930B0150930C01F8
:104F800060930D0170930E0180FD08C020EF821622
:104F9000910420F48BEF8093020117C08CEF809373
:104FA0000201CB01BA016B5F7F4F8F4F9F4F2AE009
:104FB00030E040E050E00E944E4320930B013093DC
:104FC0000C0140930D0150930E0180910B019091C3
:104FD0000C01A0910D01B0910E01892B8A2B8B2B16
:104FE00011F41092020111B81AB86496E2E10C941F
:104FF0005844AEE1B0E0EFEFF7E20C943C44662E8B
:10500000B82E860F898320912501283059F52091EB
:10501000830130918401409185015091860157FDB3
:1050200015C01091920109C0CA01B9012AE0312DC1
:10503000412D512D0E944E431F5F173FACF391F459
:10504000243160E036074105510518F48FEF9FEFDA
:1050500045C1173F39F480E028178DE7380741052F
:10506000410510F020E03DE72C8B3D8B26EDA22E74
:10507000E4ECF2E0E60DF11D859180608E87E4ECB2
:10508000F2E0EB0DF11D859180608F87E1ECF2E09D
:10509000E60DF11D7590E1ECF2E0EB0DF11DC59010
:1050A00090E8692AB92A81E0E82EF12C012D112D12
:1050B0008E831F82188619861A861B861C861D867B
:1050C000188E198E1B8E1A8E0E94D41E80E082B913
:1050D00060927C000E94A20E3F8531B97BB87AB8FD
:1050E00052E05A95F1F7000000001AB81BB8DD2411
:1050F0003E8531B97BB87AB860927C00A895A092C1
:105100007A0080917A0086FDFCCF20907800309064
:105110007900B0927C004C2DE5D020917800309140
:105120007900288B398B3F8531B9CBB8CAB8A8959F
:10513000B0927C00A0927A0080917A0086FDFCCF2C
:10514000609178007091790060927C00472DCAD000
:1051500040917800509179001AB8CB01820D931DCF
:10516000E80EF91E011D111DEA82FB820C831D83CE
:1051700088899989840F951F2E813F81688579855B
:10518000280F391F611D711D2E833F836887798722
:1051900022E32417150650F07BB87AB80E94AC0EB3
:1051A0001AB81BB8888D8395888F07C0483E73E076
:1051B000570718F08A8D83958A8F888999892817CF
:1051C000190660F03E8531B9CBB8CAB80E94AC0E62
:1051D0001AB81BB8898D8395898F07C0883E73E004
:1051E000970718F08B8D83958B8FD3945D2D5F3F40
:1051F00049F05F3731F45C2D550FC50E572D550F13
:10520000750E76CF4090430150904401440C551CDC
:105210009201E4E0240D351DEA95E1F729015701DB
:1052200068016E807F8088849984209125012830D0
:10523000C1F46C897D89812D912D6550704080402D
:1052400090409B01AC010E940C439B01AC0160E7C4
:1052500079E786E190E00E944E43621A730A840A5D
:10526000950AA614B704C804D90428F46A187B0860
:105270008C089D0803C0662477244301B20180E0B6
:1052800090E09301A4010E940C439501A6010E94A5
:105290004E4381E090E07981870F911D0E94ED449B
:1052A000682EC90160E170E00E942743260F371F76
:1052B000C9016816190618F4861991090FC08C5E89
:1052C0009F4F8615910540F48C899D89843981E131
:1052D000980710F00E94E214812D912D6E96E2E164
:1052E0000C945844109281001092800010926F002C
:1052F00010928B0010928A0057E056BB5FEF5093DC
:1053000085005093840055E050937B0056EB5093FA
:105310007A0051E05093810058E25A95F1F700006D
:105320004BB94AB955E05A95F1F700001AB81BB8C5
:105330001092810080917A0084FFFCCF80937A00E4
:105340000895A0E0B0E0E7EAF9E20C9442448091CD
:105350008D0190918E01892B09F09BC0E0918F0106
:10536000F0E0EC53FD4FD491E0919001F0E0EF5369
:10537000FD4FC4910E94D41E12B81BB8D1B9CAB94E
:10538000809190010E94E60E8C01D09192018CE0F8
:105390008D0F843008F07DC080918301909184014D
:1053A000A0918501B0918601D15F2AE0822E912CD7
:1053B000A12CB12CBC01CD016B5F7F4F8F4F9F4F54
:1053C000A50194010E944E4369017A01DA01C901E5
:1053D000DF5FD73079F729E8C21623E1D206E1046E
:1053E000F10408F056C0059708F453C0CBB9CAB908
:1053F000C0E0D0E0CC15DD0520F40E94A80E229676
:10540000F9CF1AB81BB8A89585E080933601809132
:1054100090010E94E60E0817190720F4EC01C01B4A
:10542000D10B02C0C0E0D0E0A12CB12CAC14BD0463
:1054300030F40E94A80E8FEFA81AB80AF7CF809117
:1054400090010E94E60E29E120933601A8950817E5
:10545000190718F4801B910B02C080E090E08C17B4
:105460009D0788F49E01281B390B69F0A4EFB1E079
:105470000E9492439E0140E050E00E944E433093D0
:105480008E0120938D010E94D41E11B812B81AB853
:105490001BB8CDB7DEB7ECE00C945E44ACE0B0E0F6
:1054A000E4E5FAE20C943C44389A282F21702A87CC
:1054B00080FD02C0409801C0409A97B1966097B9AC
:1054C00041984298811106C086E995E02CD730EFCB
:1054D0003F8342C1813019F485E895E0F7CF8430ED
:1054E00018F4419A4298F3CF863028F44198429AB2
:1054F0008BE795E0EBCF419A429A81E795E0E6CFC2
:10550000998191509983992351F00E94960EA89504
:10551000379902C021E02A8385B58111F1CF15BCEE
:1055200086B5809312018091120190911301A09190
:105530001401B09115018B839C83AD83BE830E94BF
:1055400078090E94B70A0E9480090E94B70A0E9447
:10555000E40A86E60E945E0A0E94E80A609112014F
:10556000709113018091140190911501409926C109
:1055700047E00E94360D0E94AB0A0E94AB0A2098B9
:1055800080918100882319F08FE30E945E0A1092B7
:10559000810010926F00209112013091130140910F
:1055A000140150911501DA01C9010197A109B1094E
:1055B000813F9048A105B10508F09FC0AAE0B0E086
:1055C0000E94A743DC01CB010896A11DB11D23E079
:1055D000B695A795979587952A95D1F7BC01660F43
:1055E000771F709375016093740120980E949D0E3F
:1055F00016BC109212011092130110921401109215
:105600001501F1E0F5BBF0936E0010927701109256
:10561000760122E02BBB8091680082608093680055
:10562000789480916C00816080936C0019820E9454
:10563000960EA895379902C031E03A8380916C00AC
:1056400080FDCAC015BC80916C008E7F80936C0079
:10565000809168008D7F8093680086B580931201E9
:105660000E94780984E50E945E0A0E94E80A60911F
:105670001201709113018091140190911501A09174
:105680007401B0917501B987A88728EA31E640E036
:1056900050E00E94B743E885F985612C712C4301E5
:1056A0005F01C12CD12CE12CF12C00E010E00E9414
:1056B000E04349014C875B872B011C01409B08C0DC
:1056C00004E00E94754449014C875B872B011C0153
:1056D000288539852038310508F485C007E023E79F
:1056E00045EFB4018C859B850E94390C39813A3F86
:1056F00009F093C08FE30E945E0A4099EBC08B8152
:105700009C81AD81BE81825F9048A109B1098E3232
:105710009E48A740B10508F4DBC08B819C81AD8118
:10572000BE8181329449AE41B10508F0D1C01092DA
:105730006E0080ED97E00E94A20F2A81820F09F08F
:10574000D8C080911E01833008F0D3C03F81315012
:105750003F83332309F4CDC020980E949D0E14BCD2
:1057600016BC1092120110921301109214011092A3
:10577000150161E065BB60936E001092800083E1CB
:105780009AE790938B0080938A00A1E0B0E0B093F9
:105790008900A0938800109285001092840083B540
:1057A000816083BDB6E0B6BBB0936F007894E4E04F
:1057B000E0938100F2E3F9831A82A7CE44E0660FFA
:1057C000771F881F991F4A95D1F747E00E94360D31
:1057D0008FE20E945E0AD1CE69816F5F69836A3F62
:1057E00009F025CF2FCF84E6A82EB12CC12CD12CC7
:1057F000E12CF12C00E010E094014C855B85B201B6
:10580000C1010E94E043F22FE42F07E023E747EFB6
:105810006F2F732F8E2F952F67CF94014C855B854B
:10582000B201C101263E354B4105510561057105A7
:105830008105910509F008F460CF0E94800986E691
:105840000E945E0A0E94E80A94014C855B85B201C1
:10585000C10154012115BAEC3B07BAE94B07BBE380
:105860005B076105710581059105A1F098F06A015A
:105870007201810120E030E04AE85DE568E775E407
:1058800083E691E00E94E043F22FE42F07E028E452
:105890004AEF13C0CC84DB847201810120E030E444
:1058A0004AE750E163EF7AE580E090E00E94E04350
:1058B000F22FE42F07E028E44DEF6F2F732F8E2F88
:1058C000952F0E94390C8AE70E945E0A209815CF16
:1058D000409A2DCF8B819C81AD81BE818F309840C5
:1058E000A105B10508F023CFFA85F11120CF40982A
:1058F0001ECF2C96E2E10C9458441F920F920FB6E3
:105900000F9211248F939F93AF93BF9378948091BC
:10591000120190911301A0911401B09115019F5FA4
:10592000AF4FBF4F8093120190931301A0931401C6
:10593000B0931501BF91AF919F918F910F900FBEC2
:105940000F901F9018951F920F920FB60F9211246F
:105950008F9386E085BD8F910F900FBE0F901F90A3
:1059600018951F920F920FB60F921124A8951092BE
:10597000810015BC0F900FBE0F901F9018951F92BD
:105980000F920FB60F9211242F933F938F939F93F3
:105990008091760190917701892B11F481E085BD8A
:1059A0002091760130917701809174019091750179
:1059B0002817390730F015BC80916C008E7F8093DA
:1059C0006C00809176019091770101969093770118
:1059D000809376019F918F913F912F910F900FBEF1
:1059E0000F901F901895813108F08151811103C0EB
:1059F00081E196E04FC0813019F486E995E04AC014
:105A0000823019F485E895E045C08A3019F48BE7B7
:105A100095E040C08B3019F481E795E03BC08330BE
:105A200019F488EE95E036C0843019F48DED95E0D8
:105A300031C0853019F482E293E02CC0863019F42D
:105A400087E193E027C0873019F480E193E022C01A
:105A5000883019F48EEC95E01DC0893019F48DEB77
:105A600095E018C08C3019F48EEA95E013C08D30A3
:105A700019F489E096E00EC08E3019F488E695E0BE
:105A800009C08F3019F48FEF95E004C0803121F404
:105A900084EF95E00E94F60A0E94B70A0C94180958
:105AA00008950F93CF9382E293E03DD4C0E010922B
:105AB000250160E082E04CD4809125018830C1F559
:105AC0000E94700983E40E945E0A0E94E80A6091C5
:105AD000830170918401809185019091860103E09A
:105AE00026E4409192010E94390C0E94B70A60910D
:105AF0008F01809190017DDA90938C0180938B01CE
:105B00000E94780985EF94E00E94F60A80918B014B
:105B100090918C018A3F2FEF920730F422E044E00D
:105B20006EEF0E94210D08C08FE30E945E0A04C040
:105B30000E94E40A0E9478090E94B70A8C2F0E94F2
:105B4000F82488EE93E00E94A20F81110BC080918F
:105B50001E01843038F48C2F0E94FF24C82F8A3F06
:105B600008F4A5CFCF910F9108951F93CF93DF93A2
:105B700089E096E0D8D3C0E0D0E01AE00E94700936
:105B80000E9418090E9418098FED94E00E94F60AFD
:105B900083E00E94E20E63E09C01129FC001139F0C
:105BA000900D11240E942C0D0E94B70A8C2F0E9488
:105BB000F82488EE93E00E94A20F90911E018111BB
:105BC00002C0992361F0C0E0963080F48F3510F068
:105BD000DF5F02C0882319F0D53010F007C0D0E095
:105BE0008C2F0E94FF24C82F803F40F2DF91CF917D
:105BF0001F910895A4E0B0E0E0E0FEE20C943C4484
:105C000088EE95E090D380E18093800010926F0041
:105C100081E090E0909389008093880010928B003F
:105C200010928A0083E086BB1092820088E0809305
:105C300081001BB884E58AB912B881E081B9229A43
:105C400089E080938100312C20E0FAE02F2E31E0B2
:105C50003B83812C912C5401839441E14C83832D0F
:105C600090E00A966EE170E00E943B436A83062F43
:105C7000621781F00E941D0988EE95E00E94F60AE5
:105C800010E0101728F48EE20E945E0A1F5FF9CF21
:105C90000E94B70A5C815231B8F0C701B601A50174
:105CA00094010E944E436B017C018B81622D0E9406
:105CB0001B43A92FB0E0A50194010E94A743C60E83
:105CC000D71EE81EF91E0CC08B81622D0E941B435B
:105CD000A92FB0E0A50194010E94A7436B017C01AC
:105CE0000E9470098B81281209C081E09C81923149
:105CF00008F480E08983811107C001C019822C81DA
:105D0000263120F082E503C08CE301C08EE30E94BF
:105D10005E0A0E94AB0A4C81C701B6010E94360D93
:105D2000C701B6017E5E85489F4FA7019601220FED
:105D3000331F441F551F0E944E43CA014F3F510558
:105D400039F030F08DE08093810080E094E01FC056
:105D50004034510530F08CE08093810080E091E088
:105D600016C04830510530F08BE08093810080E40C
:105D700090E00DC0892B31F09AE09093810088E08B
:105D800090E005C089E08093810081E090E02C01E3
:105D9000612C712CCA01B901A30192010E944E43EA
:105DA0002150310930938900209388008091880028
:105DB00090918900892B31F421E030E03093890003
:105DC000209388000E94B70A0E94780986E60E9404
:105DD0005E0A0E94AB0A009188001091890060E081
:105DE00079E08DE390E0A30192010E944E43A4E686
:105DF000B0E00E94A74398012F5F3F4F40E050E082
:105E00000E944E4329013A01A4E6B0E0A7019601A1
:105E10000E94A743A3019201261B370B480B590B85
:105E2000CA01B90105E228E44EEF0E94390C8AE765
:105E30000E945E0A0E94B70A80ED97E00E94A20FBE
:105E4000811105C080911E01811148C048C0883C65
:105E500058F0109281001092800011B81AB8229860
:105E60002496E2E10C945844813598F1398133232A
:105E7000E9F04C8141504C83C501B4012AE030E087
:105E800040E050E00E944E4349015A01C701B6016B
:105E90000E944E43CA01B9012AE030E040E050E0E0
:105EA0000E944E436B833AE0232E45C05C815631FD
:105EB000C0F55F5F5C83563111F425E1222EAAE024
:105EC000B0E0A50194010E94A7434B015C011B8235
:105ED00032C08B3018F08B818F5F8B83312C809197
:105EE0001E018B3008F0B5CF80911D0187FD03C0E6
:105EF0009B81890F04C08F5F820D2B81820F90E000
:105F0000622D70E06F5F7F4F0E943B438B83832D38
:105F10000E94FF24382E3FEE381708F49ACF2A81CA
:105F20009ECE8AE0282E41E04B83812C912C540197
:105F3000839451E15C83312CF2CFA0E0B0E0E3EA3E
:105F4000FFE20C943E448DED95E0EDD183E2809329
:105F5000800010926F008FEF90E090938B00809301
:105F60008A0083E086BB109282001BB884E58AB960
:105F700012B881E081B9229A81E090E09093890083
:105F80008093880089E08093810000E080E0D2E384
:105F900010E094E6C92ED12CE12CF12C88248A94AF
:105FA00023E0922EA12CB12C8D17A9F1D43608F044
:105FB000D4562D2F30E0AFEFB3E00E9492436E5CD9
:105FC0007F4F8F4F9F4FA70196010E944E4329019B
:105FD0003A0130938B0020938A000E947009A8EE4A
:105FE000B3E0A30192010E94A74361507E4F8F4FFF
:105FF0009F4FA50194010E944E43DA01C90125E09B
:1060000045E26FEF0E94210D0E94B70A193218F085
:106010008CE30E94AE0E80E496E00E94A20F182F3F
:10602000833860F011B810928100109280001AB885
:106030002298CDB7DEB7E0E10C945A4480911E015E
:106040008B3080F7C0911D01C7FDCC59CD0F1333A4
:1060500010F0C65F03C0112359F0CF5F00E0802F1E
:106060000E94FF24082F803FE8F68D2FDC2F9CCF65
:106070008111F4CFF4CFCF93DF9388E695E053D12D
:1060800080E090E00E94ED44C82FD0E081E80E94BB
:106090000F098C2F0E940F090E94700924E040E232
:1060A00060E08C2F90E00E94210D0E94B70A80E4EE
:1060B00096E00E94A20F811105C090911E019111DE
:1060C00003C003C08238C0F4D0E090911E019B3021
:1060D00098F490911D0197FD9058C90F882329F0DD
:1060E000893210F0CF5F01C0C158CF778D2F0E9449
:1060F000FF24D82F803F50F26C2F80E090E00E9468
:10610000FA44DF91CF9108950F931F93CF93DF93BC
:106110008DEB95E008D185E090E00E94ED44C82F1A
:10612000D0E00E9470090C2F0C2E000C110BC7FF41
:106130000BC08DE20E945E0A23E045E26FEF8827E4
:106140009927801B910B04C023E045E26FEFC80143
:106150000E94210D0E94B70A80E496E00E94A20FDF
:10616000811105C090911E01911103C003C08238B6
:10617000E8F4D0E090911E019B30C0F490911D0195
:10618000C90F882329F0893210F0CF5F01C0C150B8
:10619000C13514F0C55603C0CC3E0CF4CB598D2F3D
:1061A0000E94FF24D82F803F08F4BBCF6C2F85E0DE
:1061B00090E00E94FA44DF91CF911F910F910895D2
:1061C000813011F480E00BC0823011F481E007C00F
:1061D0008A3011F485E003C08B3019F486E05EC983
:1061E0000895833011F406CD0895843011F4A5CEBE
:1061F0000895853011F455CC0895863019F40C9427
:1062000009250895873029F40E9424090C944B2510
:106210000895883011F4D4C10895893011F474CFF1
:1062200008958C3021F481E10C94501108958D3043
:1062300011F49BCC08958E3011F41DCF08958F304A
:1062400011F478C40895803111F40C94F610089577
:10625000FF920F931F93CF93DF938CE196E063D06F
:10626000D0E0C0E010E11C0F00E0FF24F394F00E3A
:1062700060E08F2D880F0E94E708013021F48EE343
:106280000E945E0A02C00E94AB0A113118F08FEE24
:10629000810F01C0812FA7DB0F2D1F5F033029F76E
:1062A00080E49FE10E94A20F8111D0E09091400113
:1062B000913009F4D0E0823330F490917B0199233E
:1062C00071F0882361F0CC2341F18C2F79DF10929B
:1062D0001E0110921D018CE196E025D080E0909186
:1062E0001E019A30D0F490911D01992319F097FD69
:1062F00005C0D0E0C90F81110CC00CC09F5EC90F52
:10630000811106C0D1E0C13108F4ACCFC151AACF90
:10631000D0E0CF5FDF5FDA3AB0F380E0CDB7DEB731
:10632000E5E00C946544CF93DF93EC010E942409CF
:10633000CE010E94F60AC4E682E00E94AE0E3799B2
:1063400002C0C150C9F70E947009DF91CF91089532
:10635000A0E0B0E0EEEAF1E30C944544182F062FDC
:10636000862F90E0FC01EC53FD4FF490E12FF0E01C
:10637000EF53FD4FC491FC01EF53FD4FD4911092A8
:106380008C0110928B0110927F011092800110926B
:1063900081011092820187EF809391010E94D41EA7
:1063A00012B8F1B8DAB9DBB9812F0E94E60E7C0190
:1063B000802F0E94E60EE81AF90A1AB810925D01C1
:1063C00010925C0120E030E05CE2C52EDD24D39425
:1063D000DAE064E6B62E80915C0190915D01843D27
:1063E000904308F071C0CBB980915C0190915D0140
:1063F000892B89F0F601E21BF30B60915C0170912F
:106400005D01D29FC001D39F900D11240E942743AC
:10641000E617F70750F4CAB90E94A10E1AB8809186
:106420005C0190915D01019628C080915C01909182
:106430005D010B97C8F060915C0170915D01B29EA7
:10644000C001B39E900D11240E9427436E177F0751
:1064500058F4CAB90E94960E1AB880915C019091C6
:106460005D018C599F4F09C0CAB90E949C0E1AB891
:1064700080915C0190915D010A9690935D018093FB
:106480005C011BB80E94A30EA895812F0E94E60E06
:106490009C012E193F0980915C0190915D018B3127
:1064A000964018F0253231057CF02D3281E0380716
:1064B0000CF491CF80915C0190915D01019769F49A
:1064C000253185E038074CF011B812B81AB81BB85E
:1064D000CDB7DEB7E9E00C94614480915C01909106
:1064E0005D01880F991FA0E0B0E080938701909331
:1064F0008801A0938901B0938A01C90168E270E024
:106500000E943B43CB01820F931F0E94C122209126
:106510008701309188014091890150918A01DC0105
:106520000E94A7436093870170938801809389013B
:1065300090938A0160937F01709380018093810121
:10654000909382010E946A1FC0907F01D0908001C9
:10655000E0908101F090820185E090E00E94ED449E
:10656000A8EEB3E0A81BB10987FDB395A70196017A
:106570000E94B14320E137E240E050E00E944E43E8
:1065800020937F01309380014093810150938201D9
:1065900088E0809325012093830130938401409308
:1065A0008501509386018091910180939201109210
:1065B0008E0110928D0100938F011093900184CF72
:1065C000A8E1B0E0E6EEF2E30C9444448EEC95E0F2
:1065D000AADE0E94700987EB95E00E94F60ADE01B0
:1065E0005196CE010996AE014F5F5F4F9E01275E27
:1065F0003F4F042FD52E1D921D92FC011192119236
:10660000CF01FA0111921192AF012A173B0799F7B6
:1066100084E58BB98AB9E12CF12C10E0CC24C39429
:1066200034E0B32E42E0A42E12B8C1B80E94AB0EE3
:1066300090B191FB882780F992FD8E5FE114F104FF
:1066400071F0811771F0E02FFD2DE80FF11DE80FBB
:10665000F11D8085918501969187808703C0182F51
:1066600001C014E0A1B80E94AB0E90B1892F8170D7
:1066700092FD8E5F143059F4E02FFD2DE80FF11DCF
:10668000E80FF11D808991890196918B808BB1B8BB
:106690000E94AB0E90B1892F817091FD8E5F1430F6
:1066A00059F4E02FFD2DE80FF11DE80FF11D808159
:1066B0009181019691838083A8950E949D0E3799C0
:1066C00004C01BB81AB811B8C6C049895A894531E7
:1066D000510508F16B897C8965317105E0F08D8980
:1066E0009E8985319105B8F02F89388D2531310586
:1066F00090F0860F971F01E08417950708F000E0DF
:10670000FF24F3948217930708F0F12CCC24C39450
:1067100022E0E22E4CC049855A854531510510F1E1
:106720006B857C8565317105E8F08D859E858531A9
:106730009105C0F02F8538892531310598F0860FF5
:10674000971F01E08417950708F000E0FF24F394F9
:106750008217930708F0F12CC12C92E0E92EDD247A
:10676000D39431C049815A814531510510F16B8173
:106770007C8165317105E8F08D819E8185319105BF
:10678000C0F02F8138852531310598F0860F971F8D
:1067900001E08417950708F000E0FF24F3948217C6
:1067A000930708F0F12C82E0C82EEE24E394D12C5C
:1067B0000AC0FFEFEF1AFF0A89E1E81686EFF80634
:1067C00009F032CF48C00E94E40A10E00E9470092C
:1067D0008D2D0E94A80A8DE20E945E0A10FD02C063
:1067E0008DE201C08FE20E945E0A8DE20E945E0A85
:1067F0008C2D0E94A80A8DE20E945E0A11FD02C043
:106800008DE201C08FE20E945E0A8DE20E945E0A64
:106810008E2D0E94A80A0E94AB0A812F837021F45A
:10682000002361F083E405C0833041F4FF2031F0A0
:106830008FE60E945E0A80ED97E004C00E94AB0ADA
:1068400080E991E00E94A20F81113BCF1F5F1837B2
:1068500009F0BCCF36CF6896EAE00C946044CF9242
:10686000DF92EF92FF92CF93DF93C4E1D0E812B8AA
:10687000D1B984E00E94AE0E11B887E00E94E60E06
:10688000049710F0C15099F7C1E0C0935B011BB8A9
:1068900080E881B912B846983E9A80E480937B00E4
:1068A00084E580BF87E480937C0086E180937A0052
:1068B0000E94A10E10925D0110925C011092800066
:1068C000109285001092840087E286BB81E280935B
:1068D0006F00C0937C01469AC09381000F98F89492
:1068E00083B7817F83BF80917C01882389F083B740
:1068F000816083BF7894889583B78E7F83BFF89437
:10690000A89580915C0190915D018034964059F783
:10691000789410928100E0908600F09087001092A9
:106920006F0086E980937A003E98469887E00E943F
:10693000E60E20913E0130913F01821B930B0C9695
:10694000909394018093930180915C0190915D01FB
:106950008032934008F0E3C080915C0190915D012A
:1069600090938A0180938901F0928801E0928701D7
:1069700084EF8093910180915C0190915D0182345C
:106980009105C8F06091870170918801809189011B
:1069900090918A0124E630E040E050E00E944E43AE
:1069A00020938701309388014093890150938A0195
:1069B00086EF80939101A0917D01B0917E0120919D
:1069C0008701309188014091890150918A010E948C
:1069D000A74320E233E040E050E00E944E43209382
:1069E0008701309388014093890150938A01209355
:1069F0007F013093800140938101509382010E9476
:106A00006A1FC0919101C43F09F053C0C0907F013B
:106A1000D0908001E0908101F090820180EAC81658
:106A20008FE0D806E104F104C0F4A70196012C54CC
:106A30003F4F4F4F5F4F60EA7FE080E090E00E9461
:106A40004E43C20ED31EE41EF51EC0927F01D092AB
:106A50008001E0928101F092820180915B0190E0DF
:106A60008E5D9F4F0E94ED4440917F0150918001C7
:106A7000609181017091820190E0A0E0B0E0841704
:106A80009507A607B70768F4481B590B6A0B7B0BE1
:106A900040937F0150938001609381017093820144
:106AA00008C010927F011092800110928101109213
:106AB000820180917F0190918001A0918101B0912C
:106AC000820189319105A105B10548F128E02093A3
:106AD0002501209192012C177CF0C21320C0409117
:106AE000830150918401609185017091860148175E
:106AF00059076A077B0798F4809383019093840178
:106B0000A0938501B0938601C093920110928E01EB
:106B100010928D0110928F0187E08093900111B83F
:106B200012B81AB81BB8DF91CF91FF90EF90DF90A9
:106B3000CF900895CF92DF92FF920F931F93CF9340
:106B4000DF930E94240988E993E00E94F60A0E94DC
:106B5000700984E593E00E94F60A83E090E00E94C9
:106B6000ED4423E040E26EEF90E00E94210D84E0CE
:106B700090E00E94ED4423E040E26EEF90E00E943E
:106B8000210D82E090E00E94ED4423E044E06EEFAE
:106B900090E00E94210D0E9478098DE493E00E940C
:106BA000F60A23E044E06FEF80913C0190913D01B3
:106BB0000E94210D0E94800986E493E00E94F60A5B
:106BC00023E044E06FEF80914301909144010E94E3
:106BD000210D88E99AE30E94A20F80911E018B305B
:106BE00008F0C4C080911D0187FDABCF0E9424092D
:106BF00082E493E00E94F60A87E290E00E94ED446E
:106C000090E042970E94500B88E290E00E94ED4491
:106C100090E042970E94500B84E290E00E94ED4485
:106C200090E023E046E464EF42970E94210D0E9429
:106C3000700983E00E94AE0A83E290E00E94ED4476
:106C400090E042970E94500B86E290E00E94ED4453
:106C500090E042970E94500B82E290E00E94ED4447
:106C600090E023E046E464EF42970E94210D0E94E9
:106C700078098AEA92E00E94F60A89E290E00E948E
:106C8000F5440E943B0B0E94800983EA92E00E9437
:106C9000F60A8BE290E00E94ED44082E000C990B5E
:106CA0000E943B0B60E086E00E94E708C0E0FC2EFB
:106CB000FF0CFC0ED0E0FA94CD1709F449C00F2D5B
:106CC0000D0F10E0000F111FC8018C5E9F4F0E9436
:106CD000F5446C01C8018A5F9F4F0E94F5448C0106
:106CE0008091AD018330A8F088E99AE30E94A20F59
:106CF00080911E018B30D0F580911D018E3F0CF4E8
:106D000020CF8E3F09F472CF8F3F61F20E94240999
:106D100003C080E00E94BD0A8AE393E00E94F60A65
:106D20008C2F0E94A80A8AE30E945E0A8D2F0E947F
:106D3000A80A80E00E94BD0A23E040E26EEFC6018F
:106D40000E94210D23E046E462EFC8010E94210D5C
:106D5000DF5FD33009F0B0CFCF5FC33009F0A7CFEA
:106D600088E99AE30E94A20F0E94710DDF91CF91F2
:106D70001F910F91FF90DF90CF900895A0E8B0E0B1
:106D8000E4ECF6E30C943E4450909501D0909B01C6
:106D9000F0909C01852D90E09C012F533D4F4901BF
:106DA000352D3064432E6F2C712CF301EF53FD4FC2
:106DB0008491F401C490C82A1491110F182B4092A9
:106DC0007C00AD2CB12CF501EC53FD4FE491E1B901
:106DD00012B81BB81AB80E94A20EE12E012F212F63
:106DE00040E4BE016F5F7F4F80E090E10E94480069
:106DF000FE01759690E08AE02191319136952795B4
:106E000036952795122F921728F48F5F922F803492
:106E100099F701C0192F912F969596959695F12F78
:106E2000F91B9F2F803409F453C0FE013196E80FFF
:106E3000F11DE80FF11D208131813695279536959A
:106E40002795291708F042C082E080932501D0924F
:106E5000580150925601F0925701F301EA0DFB1DC3
:106E6000E35AFE4F10826D2D8F2D0E94AA1C809137
:106E70005801E0915701F0E0E80FF11DEE0FFF1F00
:106E8000EE0FFF1FE655FE4F80809180A280B380F9
:106E90001352212F30E0A4E6B0E00E9492432B0170
:106EA0003C019A2D892D782D6627A5019401205744
:106EB000354E4F4F5F4F0E944E43C301B2010E94B7
:106EC0004E4330935501209354010AC08F5FAACFDF
:106ED0009F2DFD2C80919B01D81202C0D92E63CF2B
:106EE000C058DF4FE0E10C945A440F931F93CF93A7
:106EF000DF9381E090E00E94ED44D82F843131F59A
:106F000002E210E0C0E0C8010E94ED44CC23A1F0F1
:106F1000C33099F48D1789F0482F50E02D2F30E0C1
:106F2000B9016F5F7F4F4617570739F02E5F3F4F0C
:106F30004217530711F00AC0D82F8A50853B30F40E
:106F4000CF5F0F5F1F4FC730F1F642C00E941D098F
:106F500085E40E945E0A85E40E945E0A63E08BE29B
:106F600090E00E94FA446CE070E089E290E00E94B8
:106F7000084569E379E382E290E00E9408456BE30B
:106F800084E290E00E94FA446BE385E290E00E9484
:106F9000FA446BE386E290E00E94FA4469E379E305
:106FA00087E290E00E94084564E174E181E090E0AE
:106FB0000E94084564E174E183E090E00E94084586
:106FC00068E280E090E00E94FA4488EC0E94AE0EF5
:106FD000DF91CF911F910F9108958F929F92AF9261
:106FE000BF92CF92DF92EF92FF92FC014C01A12C55
:106FF000B12C7401DD24CC244F2F55279F01DF01D4
:107000000E9492439C013695279536952795C90194
:107010009695879596958795BC0176956795649F1B
:10702000D001659FB00D749FB00D1124BF01729502
:1070300062956F7067277F706727460F571FE40FB1
:10704000F51F281B390BA90160E070E04E0F5F1F90
:10705000611D711DCD0123E0969587952A95E1F775
:10706000A81BB90B9A01AB012A0F3B1F411D511DF3
:10707000C501B4010E940C436C0D7D1D8E1D9F1D2A
:10708000FF90EF90DF90CF90BF90AF909F908F9048
:107090000895A3E0B2E0EFE4F8E30C943C44182F29
:1070A000CD5FDD4F6883C350D240CF5FDD4F488353
:1070B000C150D2400E94D41EE12FF0E0EF53FD4FAB
:1070C000B490AB2CAA0CCD5FDD4F2881C350D240C9
:1070D000E22FF0E0EC53FD4FE491E1B91BB8BAB8F0
:1070E000812F806480937C000E94A20ECF5FDD4FD1
:1070F0003881C150D2403170CE5FDD4F3883C250ED
:10710000D240CF5FDD4F4881C150D24040FD02C028
:10711000DA2C01C0DB2CE0E2FE2E80E090E0CB2CEC
:10712000ED2C0A2D2D2D44E7BE016F5F7F4F0E948D
:107130004800FA9480E490E0F110F1CF1AB81E01F3
:1071400057E4250E311C73E2472E512C612C712C13
:10715000C12CD12C7601812C912C5401CE5FDD4FB6
:107160008881C250D240F101882341F08081918111
:1071700020E030E8281B390BC90102C080819181D1
:107180002CDF9C0140E050E0820E931EA41EB51E31
:10719000C301B2010E940C43C60ED71EE81EF91EA1
:1071A000FFEF4F1A5F0A6F0A7F0A22E0220E311C9E
:1071B00034E7431651046104710481F6C501B4013A
:1071C00021E530E040E050E00E944E43ABEBB7E1F8
:1071D0000E94A743A7019601261B370B480B590BAA
:1071E00064E056954795379527956A95D1F760EEF7
:1071F0007DEC81EC9FE80E944E4369017A01CF5FEC
:10720000DD4F3881C150D24031FD20C0812F880F21
:10721000180FCD5FDD4F8880C350D2408A94180D7F
:10722000812F90E0CE5FDD4F4881C250D240880F61
:10723000991F442319F08A5F9F4F02C08C5E9F4FB5
:107240000E94F544C81AD90AE108F108C701B6013D
:10725000CD5FDD4FE2E10C9458444F925F926F9204
:107260007F928F929F92AF92BF92FF920F931F9344
:10727000CF93DF93C0E0FC2EFF0CFC0ED0E0FA941D
:10728000CD1709F440C042E06D2F8C2F02DF2B0197
:107290003C0143E06D2F8C2FFCDE4B015C010E9412
:1072A00024098AE393E00E94F60A0E94AB0A8C2F1D
:1072B0000E94A80A8AE30E945E0A8D2F0E94A80AF3
:1072C0000E94AB0A0E94700924E040E26EEFC20106
:1072D0000E94210D24E046E462EFC4010E94210DCA
:1072E0000F2D0D0F10E0000F111FB201C8018C5EB1
:1072F0009F4F0E940845B401C8018A5F9F4F0E94BA
:1073000008450E94B70ADF5FD33009F0B9CFCF5FDD
:10731000C33009F0B0CF0E941D098FE595E00E94AF
:10732000F60A0E94B70A88E20E94AE0EDF91CF9162
:107330001F910F91FF90BF90AF909F908F907F9083
:107340006F905F904F900895A2E1B0E0EAEAF9E310
:107350000C943C442C017C836B83DD24D3942D2C32
:10736000312C83E0D89EA00111245C874B87F1016A
:10737000EE0FFF1FEE0FFF1FFE87ED87812C30E41D
:10738000932E50E0612C712C18861F82A12CB12CF9
:107390001A8219821E821D8240E0C12CE0E0F0E0DA
:1073A00020E030E061E070E08FEF90E08219930917
:1073B000988B8F870C2D10E08F85988908171907F7
:1073C0000CF05FC0D801A20DB31DAA0FBB1FA40D06
:1073D000B51D8D919C91E80FF91FD801AA0FBB1F15
:1073E000A40DB51D8D919C91280F391FCD1408F463
:1073F0008EC0D801A219B309AA0FBB1FA40DB51DD9
:107400000D90BC91A02D2A1B3B0BE81BF90B7901B9
:10741000EE0EFF1EC9018E1B9F0B89879A87D7012D
:10742000B695A795B695A795A80FB91FB7FDA2C0A9
:10743000E217F30708F073C0513009F070C0D801AB
:1074400056E0AA0FBB1F5A95E1F7BA8BA98BDC0156
:10745000A61BB70BBD01A817B90770F0A6E0880FEF
:10746000991FAA95E1F780960E94274389899A89F6
:10747000861B970B9A8B898BAB85BC85EA16FB061E
:1074800030F4EB81FC81EF2B09F04DC07DC08D8580
:107490009E8508171907C4F1A989BA894423A9F060
:1074A000A619B709433058F0C4018096B401769507
:1074B0006795860F971F8A179B0708F461C0DB1634
:1074C00040F4DD24D394DB0E4ACFB887AF83FE822D
:1074D000ED82AE0CBF1C4F5F4130E1F0642F70E0D5
:1074E00061507109CB0195958795A989BA898A0F51
:1074F0009B1FAF81B8858A1B9B0B0E9427434B01C2
:1075000069887A88FA82E982453140F039C0698712
:107510007A8705C069887A88FA82E98250E0C39444
:1075200069857A8547CF4230F0F09501ED81FE8183
:107530002E1B3F0BA8EEB3E00E94924395014981B8
:107540005A81241B350B40E050E00E944E4388EEE8
:1075500093E0821B930B0E948910BC0188EB9AE791
:107560000E94274302C060E070E0AB81BC816D9354
:107570007C930AC0E217F30708F461CF51E0CFCF44
:10758000EB81FC81EF2B89F6C4016296E2E10C9459
:107590005844A6E2B2E0EFECFAE30C943E44F82E35
:1075A000062F8CE290E00E94F5443C01E02FF0E0D1
:1075B000EF53FD4F1491EF2DF0E0EC53FD4FE491AC
:1075C0001092BA011092BB011092BC011092BD0141
:1075D0001092C1011092C0011092C2011092C30119
:1075E0001092C4011092C50180912501813009F0EB
:1075F0004EC18091020118160CF449C112B8E1B9CC
:107600000E94A20E0068D02E00937C000E94A20E61
:10761000C12EE12C00E0212F4FEFBE016F5F7F4FA5
:1076200080E191E00E9448002F2D2068F22E2093E7
:107630007C00212F44E1BE0161507E4F80E191E04A
:107640000E944800FE013196DE01A150BE4FAE01FE
:10765000475D5F4F808191812D913D918217930706
:1076600028F0821B930B9183808302C011821082C9
:1076700032964E175F0771F7D0927C0060E070E0A1
:10768000CE01019661DE9F5F913148F0903470F039
:1076900090E1A92EBA2C24E0822E912C0EC080E11C
:1076A000A82EBB24B394812C912C07C0B0E1AB2E43
:1076B000B4E0BB2E02E0802E912CA8E0DA2EA89533
:1076C000C12EE12C00E0212F4FEFBE016F5F7F4FF5
:1076D000C5010E9448008114910479F060EC71E0CA
:1076E000CE01019631DE5C0181ECA8168FE3B8066D
:1076F00008F45BC0A12CB12C58C0C5018064DA9499
:10770000DD2011F05C01DBCF8115944010F08EEF8D
:1077100038C0F0927C00E894A6F8F8E0FF2EC12E65
:10772000E12C00E0212F44E1BE0161507E4FC501F4
:107730000E9448006894A6F8FA94F110F0CF24E172
:10774000215028F3822F90E0880F991FE1E0F0E0AC
:10775000EC0FFD1FE80FF91F40815181AFEFB1E041
:10776000AC0FBD1FA80FB91F8D919C9148175907E9
:1077700028F0481B590B51834083E2CF11821082BD
:10778000DFCF8F3F09F4AACFFE013196E80FF11D3C
:10779000E80FF11D2081318173E0369527957A95A8
:1077A000E1F7318320838150ECCF6501E12CF12C8E
:1077B0009501D501B7D723E330E040E050E06ED724
:1077C000A8E6B2E0C4D72FEF821A920A9301369549
:1077D000279540E050E062D7C401880F991F290126
:1077E0003A0104C0440C551C661C771C8A95D2F7DC
:1077F0004092C2015092C3016092C4017092C501CF
:1078000080910B0190910C01A0910D01B0910E019E
:107810000397A105B10540F01092C2011092C30177
:107820001092C4011092C501A114B10469F4109220
:10783000C1011092C0011092C2011092C3011092B6
:10784000C4011092C50123C027E030E0281939098E
:1078500080E092E1AAE7B0E0BC01CD0104C0660F70
:10786000771F881F991F2A95D2F7A701960116D76F
:107870002093BA013093BB014093BC015093BD01EA
:107880008091020187FD03C08FEF80930201CA5DE2
:10789000DD4FE0E10C945A44CF93DF93D82F0E9440
:1078A0001D0983E992E00E94F60A0E94B70AC0E02F
:1078B0001092BF011092BE0184E10E94AE0E62E000
:1078C00080E00E94AA1F0E94700924E046E464EF51
:1078D0008091BE019091BF010E94210D6091BE0177
:1078E0007091BF01CB018C539F408539954788F437
:1078F000CF5FC53078F08CE290E00E9408450E948E
:10790000AB0A8FE595E00E94F60A84E60E94AE0E6F
:1079100005C0C0E00E94B70ADF5F51F60E941D0952
:10792000DF91CF910895A0E0B0E0E8E9FCE3A4C7BF
:1079300082E084B985B986E880937A001092C1000C
:107940000E948E0E599A519AC4B784B7877F84BF1C
:107950000FB6F894A89580916000886180936000CC
:10796000109260000FBE84E98093640088E38093E6
:107970007E001092B00087E08093B10078940E945E
:107980003B09C3FD38C680E185BFAFDA84E0809350
:107990001C01C0E0379906C082E00E94AE0ECF5FA6
:1079A000CC33C1F78FE59DE69093170180931601C4
:1079B000CF3130F080E69DE6909317018093160159
:1079C000109237010E94F0229FE088E10FB6F894F0
:1079D000A895809360000FBE90936000CC3389F02F
:1079E0004AE0242E52E1352E60E1F62E7AE4872E0D
:1079F00071E0972EE4E6AE2EE1E0BE2EFCE0EF2E25
:107A000039C00E9428318111FCCFEACF823009F4BD
:107A1000D3C1833009F4FDC18BE896E00E94F60AD9
:107A200083E796E00E94F60A0E9470098091230184
:107A3000805D0E945E0A8AE20E945E0A8AEC93E000
:107A40000E94F60A89E596E00E94F60A0E9418094B
:107A500086E00E94190AC0E4DFE1F1B8379BFECF4F
:107A6000CE010E94A20F823308F454C50E9428312F
:107A70008111FCCF8FEA0E940F0984EA0E940F094E
:107A80000E94240911B80E94D3100E94F0220E9483
:107A90001D090E943C1580914501882381F00E94B8
:107AA00070098AEF94E00E94F60A63E080913A013F
:107AB00090913B010E942C0D88EC0E94AE0E3799EC
:107AC00017C00E94E40A8FED94E00E94F60A11B8F4
:107AD00083E00E94E20EEC010E94180963E02C9EF4
:107AE000C0012D9E900D11240E942C0D8CE3E5CF3A
:107AF0000E9470090E94D41E80912501893041F5B1
:107B00000E9424098FEF94E00E94F60A0E947009F7
:107B100063E080910501909106010E942C0D0E9466
:107B2000AB0A63E080910701909108010E942C0D3F
:107B30000E94AB0A63E08091090190910A010E94C2
:107B40002C0D8AEC0E94AE0E81E10E945011DDC422
:107B500085E290E042D7C82F82E290E03ED7C81B72
:107B6000C093420180E00E9450110E94E40A85EA1D
:107B700096E00E94F60A83E00E94760E0E941809A1
:107B800042E061E080E00E94AE1542E060E081E00A
:107B90000E94AE1541E062E080E00E94AE1541E037
:107BA00060E082E00E94AE1540E062E081E00E9469
:107BB000AE1540E061E082E00E94AE1580912501A3
:107BC00081110EC00E94D41E60E082E00E94AA1FB4
:107BD00061E082E00E94AA1F60E081E00E94AA1F8B
:107BE00080912501833059F480912301823039F44A
:107BF0009091950180919601981301C0BFD80E9481
:107C00002409909248018092470180912501863095
:107C100071F485EC0E94190A60E188EF0E94520D10
:107C200067E080E00E94E7088CE796E00FC08730AD
:107C300081F484EC0E94190A60E188EF0E94520DE1
:107C400067E080E00E94E70885E896E00E94F60A77
:107C500049C48A3071F48EEC91E00E94F60AB09229
:107C60004801A092470143E467E481E40E94530B7A
:107C700039C4823009F040C08AEC91E00E94F60AD3
:107C800042E365E481E30E94530B80E00E94BD0A59
:107C90006091580180915701E62FF0E0E25AFE4FC3
:107CA000E80FF11D319710820E94AA1C80915801A3
:107CB000E0915701F0E0E80FF11DEE0FFF1FEE0F0E
:107CC000FF1FE655FE4F608171818281938102E042
:107CD00024E04FEF0E94390C84EC91E00E94F60AF8
:107CE000609154017091550180E090E003E025E23D
:107CF00040E00E94390C09C4883081F420918F0142
:107D00008091900190E0820F911D029719F40E94DA
:107D10004B2509C480E00E948224F7C3833009F018
:107D2000B5C080912301813009F070CE80E00E94BF
:107D30000D0C6091950180919B010E94F41480E7E5
:107D40000E94E50B40E06091950180919B01A1D9D3
:107D500060937F01709380018093810190938201F1
:107D600080E00E94D80A60917F017091800180912B
:107D700081019091820102E026E442EF0E94390CD9
:107D80008DE20E945E0A41E06091950180919B0125
:107D900080D960937F0170938001809381019093DB
:107DA000820126E442EF0E94390C8FEB93E00E949F
:107DB000F60A0E941809F9C282E30E945E0A80EB6B
:107DC00093E00E94F60A90919501309196019313E9
:107DD00007C080E00E94290C81E00E94200C0CC0AA
:107DE00020919B0180919C01281308C080E00E9493
:107DF000190C81E00E94300C81E0A2CF321304C044
:107E000081E08093110134C0981306CEF0921101E5
:107E10002FC023E32093110180919B019091960143
:107E2000891303C021E02093110140919501309105
:107E30009C01431302C0F09211012091970182131B
:107E400003C082E08093110180919D01481303C01B
:107E500040E24093110132130EC030921101981785
:107E600061F083E30E945E0A80EB93E00E94F60AD1
:107E70000E94FB0B9AC2981303C081E28093110108
:107E800080911101823208F0C7CDEBCF843009F028
:107E900055C180917301882309F45FC08091590115
:107EA000882309F45AC060915601809158010E94BC
:107EB000AA1F40907F0150908001609081017090D6
:107EC0008201C091910160917201809170010E94C4
:107ED000AA1F80914A0190914B01A0914C01B09151
:107EE0004D0140916401509165016091660170916E
:107EF0006701843F31E09307A105B10538F4443FA1
:107F000021E052076105710508F0C0EF443F514080
:107F10006105710540F4843F9140A105B10518F059
:107F200030EF3093910180919101C8130EC0809180
:107F30007F0190918001A0918101B091820148164A
:107F400059066A067B0618F006C0C81724F48DE0AF
:107F50008093240102C0E092240180917301882360
:107F600061F080915901882341F0379906C09091C2
:107F7000240181E089278093240167E080E00E944A
:107F8000E70880EC0E94190A809124018C3051F49A
:107F90008FE295E00E94F60A809173018823A9F090
:107FA00080E711C0B0924801A092470189E192E0B8
:107FB0000E945B0A87E295E00E94F60A80915901CF
:107FC000882319F08EE60E945E0A0E94AF10C82F27
:107FD0008530A0F4A0914701B0914801E82FF0E06E
:107FE000EB56FE4F1D969C918081981711F062E030
:107FF00001C060E084EE91E00E94450A60E189EFF3
:108000000E94520D87E00E94BD0A8EE395E00E9417
:10801000F60AE0914701F091480160817181828107
:10802000938103E020E04EEF0E94390C88E00E942B
:10803000BD0A89E40E945E0AE0914701F09148017F
:10804000868197818031974270F085E60E945E0AB2
:10805000E0914701F09148018681978180519742D4
:108060009783868303C083E60E945E0A0E94E80A23
:10807000E0914701F091480122E041E46AEF8681F6
:1080800097810E94210D87E00E94BD0A87E195E05B
:108090000E94F60AE0914701F091480163E0848173
:1080A00095810E942C0D81E080934901E091470168
:1080B000F091480180859185892B91F086E00E949E
:1080C000D80A82E993E00E94F60AE0914701F09114
:1080D000480122E041E46AEF808591850E94210DEC
:1080E000E0914701F091480182859385892B91F0B9
:1080F00086E00E94D80A8CE893E00E94F60AE0919C
:108100004701F091480122E041E46AEF82859385BE
:108110000E94210DC53078F480E00E94D80A8C2F8F
:108120000E940D0C83E195E00E94F60A8C2F0E94BC
:10813000D70B0E94180943E462E433C1853009F08B
:1081400040C167E080E00E94E7088091240184FF3D
:1081500009C080E50E945E0AB0924801A0924701E2
:10816000C2E004C08EE40E945E0AC0E08DE20E947C
:108170005E0A80912401D82FDF70D43061F489E445
:1081800095E00E94F60A83EC0E94190ACC23E1F1E3
:1081900082E292E037C085FF05C084E40E945E0A57
:1081A000CF5F03C085E40E945E0AD330B1F483E45C
:1081B00095E00E94F60A81EC0E94190AC13019F478
:1081C0008FE692E01FC0C23019F48BE792E01AC02C
:1081D000C330D1F48BE492E015C08EE495E00E94A8
:1081E000F60A82EC0E94190AC13019F48BE392E07E
:1081F00009C0C23019F481E492E004C0C33021F414
:1082000089E292E00E945B0A0E94AF108530A0F4E0
:10821000A0914701B0914801E82FF0E0EB56FE4FE6
:108220001D969C918081981711F062E001C060E07A
:1082300084EE91E00E94450A60E189EF0E94520DB0
:1082400087E00E94BD0A8091240185FD1CC08FE05B
:1082500095E00E94F60AE0914701F091480162E042
:10826000828593850E942C0DE0914701F091480191
:10827000668584850E94AA1F87E00E94BD0A0E942D
:108280000F0B86E06EC08F70E0914701F0914801BE
:10829000843039F0668584850E94AA1F0E940F0BE6
:1082A00013C084819581892B79F08EEB91E00E9437
:1082B000F60AE0914701F091480122E041E46AEFBB
:1082C000848195810E94210D60E084E00E94E7088E
:1082D00089E40E945E0A84E60E945E0A0E94E80A1F
:1082E000E0914701F091480122E041E46AEF868184
:1082F00097810E94210D89E095E00E94F60AE091A5
:108300004701F091480162E0828593850E942C0D1F
:10831000E0914701F091480180859185803C924130
:10832000F8F480E00E94D80A89E40E945E0A84E69C
:108330000E945E0A0E94E80A22E041E46BEF80E0BE
:1083400090E00E94210D89E095E00E94F60AE091FC
:108350004701F091480162E0808591850E942C0DD3
:1083600080E00E94270BD43009F441C1C0E0809125
:108370002301C81788F480E00E94D80A8C2F0E943D
:108380000D0C83E195E00E94F60A8C2F0E94D70B1A
:108390000E941809CF5FEBCFD33009F024C143E42A
:1083A00067E485E40E947A0BAEC00E9418098091B0
:1083B0007A01882309F4A9C0F1B811B880E00E94BD
:1083C000D80A20917A01222309F47FC02130A1F438
:1083D000809161010E94A70B20916101213039F445
:1083E00020912301211103C00E9409259CC040E077
:1083F000692F0E94BD2389C0909161018091620123
:1084000034E0839FD0011124A255BE4F34E0939FE6
:10841000F0011124E255FE4F4D905D906D907C90DF
:108420004081518162817381441555056605770548
:1084300010F4C82F01C0C92F223021F4890FC3E0E6
:10844000C81B1CC08091630194E0899FD001112456
:10845000A255BE4F24E0C29FF0011124E255FE4F09
:108460000D911D912D913C914081518162817381CB
:10847000401751076207730708F4C82F1C2F169581
:10848000D2E0DC1BC11102C001E001C002E0812F7B
:108490000E94A80A8BEA93E00E94F60A8D2F0E94A0
:1084A000A80A8BEA93E00E94F60A802F0E94A80A8D
:1084B00080E00E94BD0A81E0C11180E00E94B10B02
:1084C00082E0811B0E94B10B20C083E696E00E94EF
:1084D000F60A0E94700980E996E00E94F60A8BE88D
:1084E00096E0B2CA67E082E00E94E70883E195E087
:1084F0000E94F60AE0914701F091480162E0848110
:1085000095810E942C0D0E941809C0911601D091EE
:108510001701A3CA90911E01933008F0A7CA8111D8
:10852000A9CA91119DCA80914201882309F458C0BB
:10853000D4E000E010E080E090E022E1422EFC0177
:10854000E00FF11FE253FC4FC491C03209F4482EF2
:1085500001968331910599F7DD2339F03D2F337072
:10856000D32E51F40E94240907C080E197E20E94B3
:10857000A20F882399F330C060E08D2D880F0E94F0
:10858000E7080E941809A895DF5FD370C12CD12C91
:10859000C414A0F4F801EC0DFD1DE253FC4FC4918E
:1085A000CC23D1F0CF3F19F40E94AB0A03C08C2F2B
:1085B0000E945E0A8FEFC81AD80AEACFCC2361F076
:1085C000040D111DF801E253FC4FE491E03209F073
:1085D000B2CF0F5F1F4FAFCF80E197E20E94A20F93
:1085E0000E94F61047CA44E467E483E5DBCE4FE31C
:1085F00067E48FE3D7CE0E941D0980E596E00E94D4
:10860000F60A8BEC0E94AE0E0E94F61080E090E01D
:10861000CDB7DEB7E2E14CC1DB018F939F9397D0DA
:10862000BF91AF91A29F800D911DA39F900DB29F0E
:10863000900D11240895991B79E004C0991F961795
:1086400008F0961B881F7A95C9F780950895AA1B94
:10865000BB1B51E107C0AA1FBB1FA617B70710F02D
:10866000A61BB70B881F991F5A95A9F7809590955F
:10867000BC01CD01089597FB072E16F4009406D097
:1086800077FD08D0E4DF07FC05D03EF49095819596
:108690009F4F0895709561957F4F0895A1E21A2E1E
:1086A000AA1BBB1BFD010DC0AA1FBB1FEE1FFF1F96
:1086B000A217B307E407F50720F0A21BB30BE40BE6
:1086C000F50B661F771F881F991F1A9469F760952D
:1086D0007095809590959B01AC01BD01CF010895E7
:1086E000052E97FB16F400940FD057FD05D0D6DF6A
:1086F00007FC02D046F408C050954095309521956E
:108700003F4F4F4F5F4F08959095809570956195BD
:108710007F4F8F4F9F4F0895EE0FFF1F0590F491ED
:10872000E02D0994A29FB001B39FC001A39F700DDB
:10873000811D1124911DB29F700D811D1124911D69
:108740000895F0DFB7FF0895821B930B0895EADFC9
:10875000A59F900DB49F900DA49F800D911D112495
:108760000895B7FFF4CFF3DF821B930B0895E894CD
:10877000DF93CF93FC01DB01D5DF7F936F93E9019A
:108780009A01AC01BF93AF933F932F93DF01CADFF0
:1087900026F46C1B7D0B820B930B9E01EB01FC01FD
:1087A000C0D0AF91BF912F913F91BBD0BE01CF01FF
:1087B000F9012F913F91CF91DF910895689401C005
:1087C000E8948F929F92CF93DF9305D0DF91CF9162
:1087D0009F908F90089588249924F401E401B0E4D7
:1087E0009F93AA279A158B049C04ED05FE05CF05DF
:1087F000D007A10798F4AD2FDC2FCF2FFE2FE92D46
:10880000982C892E982F872F762F652F542F432F42
:10881000322F2227B85031F7BF9127C01B2EBF91AE
:10882000BB27220F331F441F551F661F771F881F4A
:10883000991F881C991CEE1FFF1FCC1FDD1FAA1F4C
:10884000BB1F8A149B04EC05FD05CE05DF05A007C0
:10885000B10748F08A189B08EC09FD09CE09DF0929
:10886000A00BB10B21601A94E1F62EF49401AF0134
:10887000BE01CD01000C08952F923F924F925F925E
:108880006F927F928F929F92AF92BF92CF92DF9220
:10889000EF92FF920F931F93CF93DF93CDB7DEB785
:1088A000CA1BDB0B0FB6F894DEBF0FBECDBF099419
:1088B0002A88398848885F846E847D848C849B8470
:1088C000AA84B984C884DF80EE80FD800C811B817E
:1088D000AA81B981CE0FD11D0FB6F894DEBF0FBEAD
:1088E000CDBFED01089597FB10F8169400080F9383
:1088F000083098F00850232F342F452F562F672F1C
:10890000782F892F902DF4CF05949795879577959B
:10891000679557954795379527950A95AAF70F912B
:10892000089500DF460F571FC81FD91F08F431965E
:108930000895BB27FA01A62F6217710581059105DD
:10894000330B30FB66F0AA27660F771F881F991F2D
:10895000AA1FA21710F0A21B63953850A9F7A05DBB
:10896000AA3308F0A95DA19336F7B111B193108233
:10897000CA0123C04532510518F4423008F004C042
:10898000FB011082CB010895BB27FB015527AA27C5
:10899000880F991FAA1FA41710F0A41B839550518C
:1089A000B9F7A05DAA3308F0A95DA193009779F704
:1089B000B111B1931192CB0100C0DC01FC01672F12
:1089C00071917723E1F7329704C07C916D937083A6
:1089D0006291AE17BF07C8F30895F999FECF92BD13
:1089E00081BDF89A992780B50895A8E1B0E042E0EA
:1089F00050E013C0262FF999FECF1FBA92BD81BD5A
:108A000020BD0FB6F894FA9AF99A0FBE0196089510
:108A1000F1DF272FF0CFDC01CB01FC01F999FECF6C
:108A200006C0F2BDE1BDF89A319600B40D924150F6
:0A8A30005040B8F70895F894FFCF06
:00000001FF
