:1000000040C7000050C700004EC700004CC70000AA
:100010004AC700000C946D2A46C700000C94C00E1D
:1000200042C7000040C700000C94AE200C94512A37
:100030000C945F2A0C94882036C7000034C7000057
:100040000C942B2A30C700002EC700002CC70000DC
:100050002AC700000C94C10E26C7000024C7000068
:1000600022C7000020C70000E62FF72F903009F4C8
:100070009395E5B8C4B8B7EFB0937A00A5E0A09324
:100080007B00A8E0A093810010928000AFEFA093C6
:100090008500A0938400A6E0A093360010928B0008
:1000A00010928A00B6E0AFE7A91B51E0392F363035
:1000B0002AF0A058B94F53953650F9CFB093890024
:1000C000A0938800A0917A00A4FFFCCFB7EBB09377
:1000D0007A00A2E0A0936F00A9E0A093810062E003
:1000E000A0E0A0937B00A1E0A09353008895E5B821
:1000F000C4B884FF19C0A3E4AA95F1F7EF93FF9366
:10010000E7B1F8B1A4E0C2FCA2E0C0FCA1E0BF2FBF
:10011000BA2BAE2BB8B904B9A7B9E7B9F8B9FF91B2
:10012000EF910AC00C947300A7E40000AA95F1F7C0
:1001300025B9E5B8000004B9A0918400A09185001C
:10014000B0918900A395AB1768F7A0917A00A4FF3E
:10015000F3CFB7EBB0937A006A9571F760917800AE
:1001600070917900308186FD630F6193308186FD47
:10017000731F80FF7193652F4A9579F710926F0076
:1001800010928100B7E0B0937A000895D201CB01BC
:10019000C4011008407E01013E01013E01013E0103
:1001A000017E404018000720080808F800000020E1
:1001B00060A03FA06020020202FF020202101010A5
:1001C0001F000000050842818989760508C2A191B7
:1001D00089860508000402FF0010100508F8783829
:1001E0005888091003081C3E7F0D080710FF818105
:1001F00081F1E1C1FF4040404743410D080110FF3C
:10020000FF11080310F1E1C14743410E000820210E
:1002100021122060E0E0E0FEFE0402010001037F05
:100220007F21C2C4C4C04094840007030102040EAD
:10023000080210FEFE7F7F00000000110005202054
:1002400060E0E0E00201000103C2C4C4C040070353
:10025000010204010410090A0C4E6F742063616CE2
:10026000696272617465642120466F72FF63616C1C
:100270006962726174696F6E20636C616D70207465
:1002800068652033FF70696E7320746F67657468EA
:10029000657220616E642073746172742077697472
:1002A0006820746865FF6B65792E2041636B6E6F03
:1002B000776C65646765207468652073656C662D6E
:1002C00074657374207769746820746865206B6541
:1002D000792077697468696EFF32732E20446973E0
:1002E000636F6E6E6563742070696E7320616674EF
:1002F000657220746865FF6D6573736167652022A0
:1003000069736F6C617465FF50726F6265212220A2
:1003100069732073686F776E2E20536F66747761F0
:10032000726520616E6420646F63756D656E7461C3
:1003300074696F6E2069732061742073766E3A2F32
:100340002F206D696B726F636F6E74726F6C6C656A
:10035000722E206E65742F7472616E736973746F80
:1003600072207465737465722000B90387035803A3
:100370002E030703E402C302A40288020000140053
:1003800029003E005300690080009700AE00C600BF
:10039000DF00F80012012D01490165018201A00171
:1003A000BE01DE01FF012102440268028E02B50295
:1003B000DE020903350364039403C803FE03370414
:1003C0007304B404F90443059305EA054906B3062A
:1003D0002907AE074808FF08DE09FD0A930C480FFD
:1003E000991B000000000000000000000000000059
:1003F00000001E2121211200807F0000007E4A4A59
:100400004A34000000000000FC40201008040201F3
:1004100000000001010101010101010101010101CF
:100420007F0488D0E0F0F800000000000000000029
:10043000000000000000000000FC94948400000113
:1004400002FC0000000000000000000000001E216F
:10045000212112E0C0804020100F000000C02020A9
:100460002040000000FC00009E9E040303030302E2
:10047000000000202023242525232020203F0000E9
:100480007B7B2142840480C000000000000000004B
:10049000000000000000FC94948400040607070795
:1004A00008F00000000000000000000000000080D4
:1004B0003F2121120C00000000FF000000F008485E
:1004C00048C80000FE0000E7818181C1E1F181811F
:1004D0008101002020202121212020203F0000F345
:1004E00040404041434740407FC0000000000000C2
:1004F0000000000000000000489494946400000094
:1005000000FF0000000000000000000000000000EC
:1005100000003F2121120C0000FF000000F00848FD
:1005200048D0000000000000FEFE0404040404049F
:1005300004070008080809090908087F3E1C080884
:100540007F7F20202020202020E0000000000000ED
:100550000000000000000000000048949494640033
:1005600000FF0000000000000000000000FF003C51
:100570000A090A3C002231292926000082868E9E23
:10058000BEFEFEBEDEEFF6FAFEFEFAF2E2C2820028
:10059000000008080804027984A4A46800FF000091
:1005A000000000000000000000000000000000004B
:1005B0000000000000FF0000F0282428F0001008D0
:1005C000FC0000000000000000000000003C0A09E0
:1005D0000A3C00FF000000000000000000000000D6
:1005E000000000000000040C1C3C7CFF7C3C1C0C48
:1005F000040000000000009EA1A9A99A80432313D3
:100600000B0703FF030303030303000000000000C4
:100610000000000000788484844800FF000000008F
:100620000000000000F00804E211090909090909A5
:100630000909091121C2040810E0000000010204A8
:1006400004070000000000804020108844231008A8
:1006500004030000000000000000000000FE010094
:10066000FC0201000000000000000000000000008B
:1006700000000000007949497900000000000000F6
:10068000000040F010101010F040000101010101C5
:10069000010040FCF8F0E040FC40000703010000CE
:1006A000070040FC40E0F0F8FC40000700000103B8
:1006B000070040FCFC0000FCFC40000707000007AE
:1006C0000700788482028284780006040700070409
:1006D000060000FC000000F01000100F02040207EA
:1006E0000400080808080808F84002020202020292
:1006F000030040F808080808080800030202020284
:1007000002024040404040404040000000000000E5
:100710000000C0000080000080000102020102020F
:10072000010200800000800000C0020102020102FC
:10073000020100F8040222548800101F1002020176
:1007400000000000000000000000000000000000A9
:100750000000000000000000000000000000000099
:100760000000000000000000000000000000000089
:100770000000000000000000000000000000000079
:1007800000000000F80402FE02000C060504040745
:100790000C0002FE020002FE02000407040404171B
:1007A0000C0002FE02F002FE020004070407041718
:1007B0000C000000E01008F808000C06050404070F
:1007C0000C00804028F8284080000102141F140209
:1007D000010008F8080008F80800040704040417DA
:1007E0000C0008F808C008F80800040704070417FC
:1007F0000C00001018FCFC181000000101010101A0
:100800000100001018FC181000000000000100009A
:100810000000000000FC00000000000101010101D7
:1008200000004040404050E0400000000000010057
:1008300000002070A8202020200000000000000000
:100840000000E000000000000000010101010101C2
:1008500001002070A82020A87020000000000000E7
:10086000000000C0F0FCF0C000000000000000002C
:1008700000000C3CFCFCFC3C0C00000000000000F4
:100880000000000000000000000000000000000068
:100890000000000000FE000000000000000D00004D
:1008A000000000160E0000160E0000000000000000
:1008B00000000010FC1010FC1000000107010107EF
:1008C0000100001824FE448800000003040F040304
:1008D00000000C12924C20100800020100060909C9
:1008E00006008C5222528C40C00001020404040114
:1008F0000200000000160E000000000000000000D2
:1009000000000000F00804020000000001020408DA
:1009100000000000020408F00000000008040201CA
:1009200000004850E0FCE0504800020100070001D0
:100930000200404040F8404040000000000300003A
:1009400000000000000000000000000000160E0083
:1009500000004040404040404000000000000000D7
:10096000000000000000000000000000000606007B
:10097000000000008040201008000201000000007C
:100980000000F80402020204F80001020404040258
:100990000100000804FE0200000000040407040433
:1009A000000008040282422418000406050404041E
:1009B000060006020202122AC60001020404040212
:1009C0000100C0A09E8080FC8000000000000407A1
:1009D00004003E120A0A0A12E6000102040404029C
:1009E0000100F84422121224C0000102040404028F
:1009F00001000E02C262321A0E0000000700000061
:100A000000008854222222548800010204040402B7
:100A10000100384482824224F800000204040402E7
:100A20000100000000181800000000000006060089
:100A300000000000001818000000000000160E0062
:100A400000000040A01008040200000000010204A1
:100A500008000020202020202000000101010101C9
:100A600001000002040810A0400000080402010078
:100A7000000018040282422418000000000D00004B
:100A80000000F804D252E204F80001020505040552
:100A9000040200F0080402FE020004070501050735
:100AA000040002FE222222548800040704040402E7
:100AB0000100F804020202048E0001020404040290
:100AC000010002FE02020204F8000407040404020A
:100AD000010002FE222272020E0004070404040434
:100AE000070002FE222272020E0004070404000026
:100AF0000000F80402C24244DE00010204040201C4
:100B0000070002FE222022FE020004070400040760
:100B10000400000202FE02020000000404070404B4
:100B200000000000000202FE0200000304040403AF
:100B3000000002FE6290080402000407040001069F
:100B4000040002FE02000000000004070404040484
:100B5000070002FE38E038FE020004070400040724
:100B6000040002FE1A6082FE02000407040005076A
:100B70000400F80402020204F80001020404040262
:100B8000010002FE42424224180004070400000053
:100B90000000F80402028204F800010204040405C3
:100BA000020402FE42C242241800040704000106A7
:100BB00004008814222222448E000102040404024C
:100BC00001000E0202FE02020E00000404070404EB
:100BD000000002FE020002FE0200000304040403FF
:100BE000000002FE820082FE0200000003060300F5
:100BF000000002FE02F002FE0200000107030701EE
:100C0000000002DE722072DE020004070400040706
:100C10000400027EC280C27E0200000004070400BD
:100C200000000E824222120A060007040404040493
:100C3000070000FE02020200000000070404040096
:100C400000000810204080000000000000000001AB
:100C500002000000020202FE00000000040404077B
:100C6000000010080402040810000000000000004A
:100C70000000000000000000000008080808080844
:100C800008000000000E1600000000000000000038
:100C90000000904828284890E00001020404040263
:100CA000070002FE10080810E00004070204040216
:100CB0000100E010080808103800010204040402D2
:100CC0000100E010080810FE0200010204040207FF
:100CD0000400E05048484850600001020404040247
:100CE000010020F82422020C000004070404000084
:100CF0000000E010080810F80800000912120907A7
:100D0000000002FE100808F00000040704000407B9
:100D10000400001016F6000000000004040704049C
:100D200000000000101616F00000000C1010100F4C
:100D3000000002FEC020100818000407040102048D
:100D4000040000000202FE0000000000040407048A
:100D5000040008F808F008F0000004070007000786
:100D6000040008F8201008F000000407040004073D
:100D70000400E01008080810E00001020404040266
:100D8000010008F810080810E000101F1204040207
:100D90000100E010080810F8080001020404121F06
:100DA000100008F8201008083000040704000000B4
:100DB000000010284848489038000102040404024A
:100DC00001000808FE0808000000000003040404F5
:100DD000020008F8080008F80800000304040207ED
:100DE000040008F8880088F80800000003060300E3
:100DF000000008F808C008F808000003060306030E
:100E0000000008B8E040E0B8080004070000000750
:100E1000040008F8080008F8080000091212110F71
:100E2000000018088848281808000605040404046F
:100E3000060040B01C020200000000010708080084
:100E40000000000000FE000000000000001F000085
:100E50000000000002021CB040000000080807016A
:100E600000000C0202040808040200000000000058
:100E70000000C02010081020C00001010101010184
:100E8000010011241FBECFEFD8E0DEBFCDBF21E0AF
:100E9000A0E0B1E001C01D92AA3CB207E1F70E94B8
:100EA0007D360C94923EACC85D98559A80FD599A57
:100EB00080FF5998519A539A5A9867FD5B9A67FF39
:100EC0005B985A9A5A9866FD5B9A66FF5B985A9AA5
:100ED0005A9865FD5B9A65FF5B985A9A5A9864FD2B
:100EE0005B9A64FF5B985A9A5A9863FD5B9A63FF1A
:100EF0005B985A9A5A9862FD5B9A62FF5B985A9A7D
:100F00005A9861FD5B9A61FF5B985A9A5A9860FD06
:100F10005B9A60FF5B985A9A5D9A5A985B9808951D
:100F2000609348018093040186958093B101660F18
:100F3000660F660F60930F010895809148018093BA
:100F400001018091B1018093030108958091030113
:100F500060910101880FE4CF0895CF93C82F692FC6
:100F600081E0A2DF6C2F81E09FDFCF910895682F91
:100F700080E09ACF08958DE0CAD48AE0C8C408956D
:100F80001092B10160E080E0CBDFF5CF0895CF9300
:100F9000DF938AE2ECDF90E080E0DFDF80E890E042
:100FA000DCDF8BE2E4DF90E080E0D7DF80EA90E0F6
:100FB000D4DF8CE2DCDFC0EAA895D0E08091260186
:100FC00090912701CADFDF5FD038C1F7C150A1F788
:100FD000D7DFDF91CF910895CF93DF9358985A9838
:100FE0005B985D98509A529A539A559AC1D45D9ADB
:100FF000559A5998519A84E1C3D4589A84E1C0D43F
:101000008AE0BED481E1B3DF84E0BAD486E2AFDF08
:1010100064E081E049DF81EBAADF61E181E044DF48
:1010200064E181E041DF80ECA2DF80E09EE095DFBB
:1010300081EC9DDF65E081E037DF85EC98DF80E4BF
:1010400098E38BDF8AE393DF65E081E02DDF86E3C1
:101050008EDF89E393E00E94643EC6E2D1E088839C
:1010600088E393E00E94643E898387E393E00E94D3
:10107000643EC0E6D1E0888386E393E00E94643E4C
:1010800089836CE181E010DF84EB71DF60E081E057
:101090000BDF7DDF89E26BDF8AE072D4DF91CF91D5
:1010A000089581E08093B10160E082E039DF63CF91
:1010B000089582E08093B10160E084E031DF5BCF8E
:1010C000089583E08093B10160E086E029DF53CF8B
:1010D00008950895582F28E030E090E841E080E03E
:1010E000652F642309F0892B440F9695215031090F
:1010F000B9F70895A6E0B0E0E0E8F8E00C94D13D3F
:101100009E838D83542EC02ED12CC601860F911D37
:1011100081389105B4F58E2D90E0AC01450D511D3F
:101120004138510574F5EA944E2C450C47FE02C037
:101130005FE7452E322F3270398321FF13C00197AC
:1011400043E0959587954A95E1F78C9DA0018D9D8B
:10115000500D9C9D500D11248D819E81840F951FF3
:101160009E838D8380E8801B861B482F50E05B8325
:101170004A8321702C83160151E0251A3108451449
:1011800020F42696E2E10C94ED3D10E000E0852D80
:1011900090E027E9622E712C681A790A3EE9A32EA5
:1011A000B12CA81AB90A8D809E80820C931CC0169F
:1011B000D10669F43981332309F440C04D815E8141
:1011C0004C195D095E834D8398E0590ED8CF8BE2B0
:1011D000CEDEC301C2DEC501C0DE8AE2C8DEEA801F
:1011E000FB80E00EF11EC701B8DEC701B6DE8CE25F
:1011F000BEDE8C81F401E01BF10B882321F0ED8130
:10120000FE81E00FF11FF4909981992319F08F2D41
:1012100061DFF82E88E0E82E8091600190916101F5
:10122000F7FC04C0809126019091270196DEFF0C07
:10123000EA94E110F1CF0F5F1F4FB9CF8D819E81EE
:101240008C0D9D1D9E838D83BFCFEF920F93482FF2
:101250008F7320E6829FC00111248E519C4F28E09D
:1012600046FF28E4209310011092000147FD08C0BA
:101270002091100130E2309300012D5E2093100187
:1012800020E2E22E08E120E040910001609110018F
:1012900031DF0F91EF900895EF920F93262FFC010D
:1012A000349131964491319604913196E490E091D5
:1012B00000014E0F60911001630F04961BDF0F9128
:1012C000EF90089560E0E8CF0895EF920F93CF93E9
:1012D000C82F809148018F5F80934801409104019D
:1012E000440F440F440F20E1C29FC001112420E1AC
:1012F000E22E08E020E060910F018E57994FFADE50
:1013000080910F01885F80930F01EFEFEC0F8C2F1E
:10131000EA30B0F4F0E0E157F64F0C94E63C99095E
:101320009D09A609AE09AC09A809A809AA09B4092A
:10133000B4098EE3ECD28CE703C08CE7E8D28CE3EF
:10134000E6D2A895CF910F91EF9008958CE7F2CF58
:1013500082E5F6CF8DE2F4CF85E7F2CF8FE4D7D2E6
:1013600088E6D5D28DE6ECCF8CE4EACF8F5CADCFAA
:10137000089580E2AACF0895CF93C82F1C1614F0C9
:10138000CF910895F6DFC150F9CF9091480180E1E7
:10139000891BF2CF0895CF93C82FF7DF8091B10159
:1013A0008F5F8093B101883070F087E08093B10146
:1013B00081E080934B018091B1016C2F880FB0DDEB
:1013C000DADDCF91089510924B01F5CFE4DF33D4ED
:1013D0008091B101833008F0CECD0895D1DDD5DF05
:1013E000CFCD08955EDED1DF5CCE08958DE36DCF65
:1013F0000895CF93DF93EC018991811103C0DF91B0
:10140000CF91089562DFF8CFCF93DF93EC01FE0117
:101410008491982F9F7719F058DF2196F8CFDF91AC
:10142000CF910895CF93DF93EC01CE010E94643EEB
:10143000982F9F7719F049DF2196F7CFDF91CF9151
:101440000895EF920F93FC0104913196E490029677
:1014500051DE0F91EF9008950F9385EA91E0E2DF5E
:10146000409195014D3F6CF460918301709184012E
:10147000809185019091860103E026E417D10F91B8
:1014800008958FE322DFFBCF909124019F7092306B
:1014900071F49CDF84E790E0C5DFE0914901F091B1
:1014A0004A0122E044E06FEF84819581E1C1089513
:1014B00097FF09C08F939F938DE207DF9F918F91D4
:1014C000909581959F4F6EE271E04AE050E00E9456
:1014D000313E8FCF0895ECDF01C0EADF4ACF089597
:1014E000EF92FF920F931F93182F062FF42E87E889
:1014F00091E098DFEE24E0914901F0914A01868560
:10150000E81611F4812F09C08485E81611F4802FA4
:1015100004C08585E81611F48F2DD7DEE3948E2D57
:10152000833049F71F910F91FF90EF900895EF924C
:10153000FF920F931F93182F062FF42E80E046DFA3
:101540008DE891E06FDFEE248E2D10DF4FDFE0910C
:101550004901F0914A018685E81611F4812F09C0EE
:101560008485E81611F4802F04C08585E81611F4EF
:101570008F2DABDEFEDEE3948E2D833029F71F9195
:101580000F91FF90EF900895682F80E092E066231E
:1015900009F491E0623009F481E008950F93082F77
:1015A000E2EBF1E0880F880FE80FF11D6081718197
:1015B00082819381643671058105910570F42091D3
:1015C000020127FD0AC0802FDFDF692F0E942F262E
:1015D0006EEF23E044E04CD104C04FEF04E024E080
:1015E00065D0C7DE0F910895863058F4E5EAF1E042
:1015F000E80FF11DE80FF11D8081918163E043D177
:10160000B8CE08951F93182F80917E01882319F07A
:10161000B0DE80E05ADE45DD8EE791E003DF812F0A
:1016200082958F70E1DF812F8F70DEDF1F9108952B
:101630008091110182958F7019D080911101837072
:101640001CD080911101DECF0895E9E9F1E0E80FA7
:10165000F11D0895CF93F9DF9081C681C91710F469
:1016600005D001C013D085DECF910895EEDF8F93B2
:1016700080817CDE8F9101C008958F938CE491E08E
:10168000D1DE8F91E2DF868171CE0895DEDF8F9308
:1016900086816CDE8F9101C008958F9388E491E07C
:1016A000C1DE8F91D2DF808161CE0895AEE0B0E0DF
:1016B000ECE5FBE00C94D13D142F622E702E6B01F3
:1016C0007C010F7080E389838A838B838C838D8375
:1016D0008E83F7FE40C08DE2F8DDF094E094D09464
:1016E000C094C11CD11CE11CF11C68EE862E63E085
:1016F000962EA12CB12C033041F150E1852E57E2FA
:10170000952EA12CB12C043001F140EA842E46E83C
:10171000942EAA24A394B12C0530B9F030E4832E82
:1017200032E4932E3FE0A32EB12C063071F074E624
:10173000872E912CA12CB12C073039F420E8822E71
:1017400026E9922E28E9A22EB12C9AE0292E312CDE
:10175000412C512C12C075FEC8CF8BE2B6DDC5CF2F
:10176000C701B6016B5F7F4F8F4F9F4FA201910161
:101770000E94A83C69017A011F5FC814D904EA04D9
:10178000FB0470F781E1810F9BEA899F812D112471
:10179000A82EA69486E0811B899F112D11241695F1
:1017A000912F990F190F811B182F4E0187E0880E7A
:1017B000911C2AE0A401C701B6010E94103EF40169
:1017C00001900020E9F731977F01E818F9089E2C75
:1017D0006701DD24812F90E004968C159D0514F49B
:1017E000A3941D5F8A2D90E0845D9F4F0E94643E0C
:1017F000A82E74FE29C0901638F50E198E2C811A69
:10180000800E181424F08EE260DD012F0E191111E4
:1018100002C088EF882E912C10E0C00ED11EE82C5B
:10182000082C000CFF08E92DF0E0EC15FD0574F024
:10183000AA2011F08A2D49DD662011F0862D45DDA4
:101840002E96E2E10C94ED3D00E0D8CF3696E01BF9
:10185000F10B81E090E08C0F9D1FE80FF91F808154
:1018600034DD93949E141F04F1F68EE22EDDDBCF5F
:101870000F93362FBC0190E080E0022F242F432FDE
:1018800015DF0F9108950F93062FBC0190E080E0C3
:1018900026E54DEF0BDF0F9108950F93042F28E4F9
:1018A00040E004DF8AE711DD64DD0F910895E82F41
:1018B000F0E0EE0FFF1FE457FE4F859194912091C9
:1018C0000001420F20911001620F20E0BACD08956F
:1018D000CF93DF93C82FD62FE0914901F0914A01B1
:1018E00048E16EE18685E3DFE0914901F0914A012C
:1018F0004D2F6C2F8485DBDFE0914901F0914A0187
:1019000040E06EE18585D3DFDF91CF9108958F931D
:101910002F932AE080953B9A089410F4439802C0D4
:10192000439A000020D027D086952A95B1F72F91B1
:101930008F91089503D002D001D000D000D003D001
:1019400002D001D000D000D003D002D001D000D00E
:1019500000D0A89503D002D001D000D000D003D091
:1019600002D001D000D000D003D002D001D000D0EE
:1019700000D003D002D001D000D000D000000895E4
:1019800090E0893C28F0885C48EC849FC0011124D9
:10199000009709F4089520918100277019F0D9DF8C
:1019A0000197F6CF8130910519F002973CE803C00A
:1019B0003EE380E090E02091B200230F2093B3003B
:1019C00042E04093700027E023BF889526E023BFC4
:1019D00010927000A895DCCF8F9384E0D1DF07C010
:1019E0008F9382E0CDDF03C08F9381E0C9DF8F91B9
:1019F0001F93182F106410937C00E12FE0788091E2
:101A00003901E81759F0E0933901ADDF8FE9809390
:101A10007A0083E083BF889582E083BF20E030E0D6
:101A2000A901E0E01FC08FE980937A0083E083BFC3
:101A3000889582E083BF6091780070917900260FCD
:101A4000371F411D511DE43061F480913B0180300E
:101A500041F084E02030380720F417FD02C0106800
:101A6000CACFEF5F80913801E817E8F260913C013E
:101A700070913D0117FF04C060913A0170913B01E4
:101A800080E090E00E94663C2FEF33E040E050E0C1
:101A90000E94A83CB901CA012091380130E040E021
:101AA00050E00E94A83CC9011F9108959B01281B8A
:101AB000390B50F0C9010895BC0180913C0190910F
:101AC0003D016817790718F4861B970B089580E08D
:101AD00090E0089589B183FB882780F94999826055
:101AE00090911C01943050F09EE0909318018093E7
:101AF000190110921D0191E090931C01E0911C01CD
:101B0000AE2FB0E0A85EBE4F2C912817C1F0811116
:101B10000EC090911D01A3E0AE0FA3702230B1F46E
:101B2000B0E0A85EBE4F2C919F5F2330C1F0EF5F05
:101B3000E370E0931C01F0E0E85EFE4F808380914B
:101B40001D0187FD0FC080931E010895213079F794
:101B5000B0E0A85EBE4F2C91233049F7915090938E
:101B60001D01E5CF8195EFCFB0E0A0E0EAEBFDE00D
:101B70000C94DA3DE82ED92E53985198EFDE10924E
:101B80001D01E0911C01F0E03196E370FF27E85E53
:101B9000FE4F80EF8083C5E6D9E19CDF4F9B24C0D8
:101BA000CE2DDD2DF12C15E500E0BB24B394D7FD3F
:101BB00015C082E3C82E8EDFD5DECA94C110FBCFDC
:101BC000110F4F9B1F5F1F731F33A1F4011103C03F
:101BD000CE2DDD2D04E00F5F083C80F0802FCDB7C7
:101BE000DEB7E9E00C94F63DBDDED150B1F6C15050
:101BF00099F6D6CF111102C00111F0CFA8951C168D
:101C00001D0624F42A9711F4CFEFDFEF80911E0117
:101C1000882339F0F39480917F01811102C0B09242
:101C20007F0184E18F1508F0C2CF80911D018111E1
:101C3000D5CFF12CBCCFCF9380D9C82F80914B0149
:101C4000882301F1813051F4C73041F46FE08EE018
:101C500067D98BE23ADB6FE08EE062D980E49FE1E6
:101C600083DF811104C080911E018111F7CFC7303D
:101C700041F480914B01813021F460E08EE050D935
:101C800084DB64D9CF91089582E693E00E94643E9C
:101C9000382F83E693E00E94643E20914001230F99
:101CA00030914101381F209321013093220183E0BC
:101CB000283E380720F0C901885E934002C080E0CA
:101CC00090E062E370E00E94813C683008F067E0D9
:101CD000EAE6F3E0E60FF11DE60FF11D459155919F
:101CE0002591359162E3681B421B530B649FC00131
:101CF000659F900D1124499662E370E00E94813C3B
:101D0000620F731F709382016093810184E693E0F8
:101D10000E94643E992787FD9095609140017091E3
:101D20004101860F971F90933B0180933A01909356
:101D30007D0180937C010895CF93DF9324E130E00F
:101D4000B9010E94813CDC01ECE7F3E0E60FF71FEC
:101D5000E60FF71FC591D591459155914C1B5D0B31
:101D60004A9FC0014B9F900D5A9F900D1124B901BD
:101D70000E94813C6C0F7D1FCB01DF91CF910895B4
:101D80001895189540912301A0914901B0914A01FD
:101D9000E9E9F1E030E020E0822F2417B0F451911E
:101DA0001C969C911C97591719F05581951303C0E7
:101DB0002F5F3F4FF1CF220F331FF901EB55FE4F3D
:101DC00020813181293E334008F084E1089510924A
:101DD0002501109223011092770110925B0110925D
:101DE00024011092470110927E01E2E6F1E0108298
:101DF00011821282E3E8F1E0108A82E0818B109276
:101E0000020117861686148215821682178281EFC8
:101E1000838B08958FE47BDD86E479DD86E477DDCE
:101E2000AAD85E988ADD90E080E09ECE08951F9348
:101E3000CF93DF93162F98E097B998B9E82FF0E089
:101E4000ED5AFD4F949195B9262F281BE20FF11DF5
:101E500027FDFA95E491E92BE4B9CADDEC01812F65
:101E6000C7DDAC0120913C0130913D0136952795AD
:101E7000C9010397BE01625E7F4F8617970778F40A
:101E8000255E3F4FC217D30750F4BA01625E7F4F01
:101E90008617970720F481E04217530708F080E087
:101EA00014B8DF91CF911F910895CF9361E080E046
:101EB000BEDFC82F62E080E0BADFC80F62E081E0D9
:101EC000B6DF8C0FCF910895AFE0B0E0EAE6FFE017
:101ED0000C94D13DB82E10922501807FB9F4E5DF36
:101EE000833081F454D88EE692E09CDADAD88FE31E
:101EF000ECD980ED97E038DE8B30B0F448D88AE139
:101F000091E090DA2F96E2E10C94ED3D06E910E0C5
:101F10003ED88DED91E086DAC8DF833009F068C0E5
:101F20001F5F143008F465C0BCD80E940F2181ECFB
:101F300090E078DA60E08CE393E00E94713E60E02C
:101F40008DE393E00E94713E60E08BE393E00E949A
:101F5000713E60E082E00E942F266C019A838983A3
:101F600061E082E00E942F267C019C838B8360E0ED
:101F700081E00E942F268C019E838D8323E040E226
:101F80006EEFC60175DC23E040E26EEFC70170DC46
:101F900023E044E06EEFC8016BDC2AE5C216D104F1
:101FA00024F084E190E09A83898369818CE393E053
:101FB0000E94713E8AE5E816F10424F084E190E085
:101FC0009C838B836B818DE393E00E94713E0A3585
:101FD000110524F084E190E09E838D836D818BE375
:101FE00093E00E94713E82E080934B0124DE06C0A4
:101FF00010E088E2C5DC015009F08ACFEB2DEF70CC
:10200000EF87E13009F04CC0EE24E394F12C78EB3B
:10201000872E72ED972E77E4A72EB12CE2E0DE2E0C
:1020200008E0F0E23F2EC12C1E2D50E3252EDAD918
:10203000D5D984E54AD9C70146DA9BD9113009F0D0
:10204000CAC184EF90E0EED964E0809140019091A4
:10205000410119DC26D88FEE90E0E4D9809181010E
:102060009091820130DA8EEB8093380107B908B97C
:1020700014B815B888EE93E077DD143011F08B308A
:1020800020F4C39484E0C812D2CF88EE93E06CDDD4
:10209000EFEFEE1AFE0AF8E0EF16F10409F0C3CFF5
:1020A00018E703DF882341F09DD98EE592E0BAD985
:1020B00084E666DC1150A9F70E94C7078AEB90E01E
:1020C000B1D923E044E06FEF80913E0190913F0150
:1020D000CFDB0E94510883EB90E0A4D923E044E0D9
:1020E0006FEF8091450190914601C2DB82E08093C1
:1020F0004B01A1DD109225010E94C7078FEA90E0F5
:1021000091D960E082E00E94C21D80908B01909086
:102110008C01A0908D01B0908E019C868B8661E031
:1021200082E00E94C21DC0908B01D0908C01E09093
:102130008D01F0908E01DE86CD8660E081E00E9408
:10214000C21D00918B0110918C011E830D8362E0F2
:1021500080E00E94C21D80918B0190918C019C8334
:102160008B8362E081E00E94C21D80918B0190917F
:102170008C019A87898761E080E00E94C21D80916E
:102180008B0190918C019A8389832F85213029F0CE
:1021900020914401223009F006C2029698878F836D
:1021A000C4019BD9C60199D9B801110F880B990BAD
:1021B00003E026E444EF7ADA8E010F5F1F4F9E01A1
:1021C000215F3F4F7801F701819191917F010A973B
:1021D000853B9105D0F42E173F07A9F74BE5C42E98
:1021E00043E0D42EF80160810E5F1F4F6E5EC60182
:1021F0000E94713EFFEFCF1ADF0A0E151F0591F7FF
:102200000E9451088AEC91E00DD982E080934B0145
:1022100012DD0E9412332F85213029F08091440174
:10222000823009F0C1C00E94C70780E09FD880E7D4
:1022300091E0F8D882E09AD884E290E0F3D820E4E4
:10224000F22E10E03AE0832E912CA12CB12CBFDDB0
:102250001092250160E082E00E94C21D009195016C
:102260002091830130918401409185015091860134
:10227000073F0CF49DC10093950120938301309397
:1022800084014093850150938601073F09F098C16E
:10229000205631094109510920393545410551057B
:1022A00008F08EC16091970170919801CB018B5617
:1022B0009F4F8B32914008F083C11F5F153008F4A7
:1022C00080C182E693E00E947F3E0E94C7078DE1B5
:1022D00090E0A8D88091970190919801E9D8D4DC3A
:1022E00088E088B989E087B980E284B982E080DB40
:1022F000853D9340DCF714B810923B0110923A01EF
:1023000082E076DB7C0180917C0190917D0190934D
:102310003B0180933A0182E06BDB6C01CC0CDD1C4D
:1023200010923B0110923A0182E062DB4C01A090D6
:102330007C01B0907D01B0923B01A0923A010E94D5
:10234000510886E190E06ED884E693E00E94643EF6
:10235000182FD701A80DB91DAC19BD0995010E9410
:10236000FB3C96010D2C000C440B550B0E94CA3C03
:102370001D5F120F612F84E693E00E94713E812F52
:10238000012E000C990B94D87FDC82E080934B01E6
:1023900052DC109244018BE593E00E94643E682F6A
:1023A0008EE593E00E94713E89E18093380180E0E0
:1023B0000E9436360E94C7078AE191E033D80E9416
:1023C000510885E592E02ED81092250182E0809395
:1023D0004B0131DC97CD123089F520913C013091D1
:1023E0003D01A8E5BBE10E94EC3C24EC36E340E073
:1023F00050E00E94CA3C29013A0181E085B9F5E02C
:10240000F4B980E0E9DA841995099A83898381E136
:1024100084B980E0E1DA841995099C838B8384E098
:1024200085B984E184B981E0D7DA841995099E835E
:102430008D8389ED90E00E94120A34C0133049F573
:10244000D5B82AE024B980E0C7DA20913C01309168
:102450003D013695279538872F83821B930B9A83EE
:10246000898382E284B980E0B7DA2F813885821BC4
:10247000930B9C838B8305B9E8E2E4B981E0ACDA85
:102480002F813885821B930B9E838D838BEC90E08C
:10249000D2CF1430C9F48EE592E00E94120A05DD15
:1024A0008111A6C00E94510889819A8101D80E9499
:1024B000B9098B819C810E94580A0E94B9098D81BB
:1024C0009E810E94580AD2CD153099F415B8D4B81F
:1024D00080E082DA9A83898304B981E07DDA9C8383
:1024E0008B8334B882E078DA9E838D838BEE90E024
:1024F000A2CF163039F5D4B8D5B880E06DDA209186
:102500003C0130913D01821B930B9A83898304B96E
:1025100005B981E061DA20913C0130913D01821BD7
:10252000930B9C838B8334B835B882E055DA2091C5
:102530003C0130913D01821B930B9E838D8387EE7E
:1025400090E079CF173059F520913C0130913D0151
:10255000A8E5BBE10E94EC3CA50194010E94A83CC7
:1025600029013A01D5B8F3E0F4B980E035DA8419ED
:1025700095099A83898305B92CE024B981E02CDA86
:10258000841995099C838B8335B824B882E024DABA
:10259000841995099E838D8385EC90E04CCF113092
:1025A00009F080CF63CD98878F8310924401F8CDD6
:1025B0000F5FCA01B901A50194010E94A83C58CE41
:1025C00010E00E9451086091830170918401809114
:1025D00085019091860104E026E44091950166D83A
:1025E0000E94C50988E2CCD9FA94F11030CEDCCE35
:1025F00082E0C82E57CF8091440181110DC08BE538
:1026000093E00E94643E61E0680F8EE593E00E94D3
:10261000713E81E0809344010895EF92FF920F9301
:102620001F93CF93DF93D62FE82FF0E0EA5AFD4FA8
:10263000E491E8B9E860E7B915B8E62FF0E0ED5AA3
:10264000FD4FE491E4B9CE2FCC0F88E8E82E83E16A
:10265000F82E8D2FC1D98C01C4B98E159F0518F1A4
:10266000892BE1F00E94610880E591E00E94120A46
:10267000D80120EA36E841E050E00E94013D28E917
:1026800037EB40E050E00E94A83CC90122E041E461
:1026900067EFEED888E087B988B914B8CDB7DEB750
:1026A000E6E00C94F93D7801D4CF0F931F93CF93BC
:1026B000DF9385E09DD985E097D98C01EC01CC0FA3
:1026C000DD1FCC0FDD1FCA56DF4F10924201C43808
:1026D00083E0D80770F48EEB91E00E94120A0E940A
:1026E000C50981E080934201DF91CF911F910F9145
:1026F00008958DEC91E00E94120A62E0CE01C3D8E9
:102700000E94B9090A3F86E01807A0F40333164077
:1027100050F487EC92E00E94120A0E94C5098DECE9
:102720002FD978DBE1CF8EEC92E00E94120A0E9452
:10273000C509DACF8AEC91E0F8CFFC019C01261B99
:10274000370BCA0170E060E0A901460F511D452F0B
:102750005527620F240F351FAC01470F511D452F20
:102760005527780FDA01AA0FBB1F8A0F9B1F4B3E1C
:1027700020F4E217F30740F7089590E080E0089511
:10278000A9E1B0E0E6ECF3E10C94D13D582E462EE1
:10279000342EA895E62FF0E0ED5AFD4F24912E87B8
:1027A000220F2F8B339634913A8BE42FF0E0ED5AC1
:1027B000FD4F44914983339684918F83E52DF0E05A
:1027C000ED5AFD4F2490922D990F9F8733962491B7
:1027D0002B8328602C8338603A8345B9EE84E42A41
:1027E000E4B827B93B8138B9862FFED88C014E85D5
:1027F00044B9842DF9D8B82E998714B8A9D815B83A
:10280000E4B8842DF1D8B80151D96C018A8187B917
:1028100088E088B9998192299D8395B994B9852DCD
:10282000E3D84AD94C0115B893D825B8852DDCD802
:1028300043D99D878C8724B8852DD6D83DD93C01B6
:102840006C857D85C40132D98032E1E09E0730F489
:10285000F0E2CF16F1E0DF0608F48AC62C853D854C
:10286000C20ED31E800F911FC816D90620F01D87F7
:102870000C876B2C798420915B0180917701820F0A
:102880009927991F02974CF0213009F09FC590912C
:10289000580180917401981399C5D980DD0CFE848C
:1028A000FD283D2D32293B878C859D8584379105F8
:1028B00008F499C10A96880F991F6816790608F0DE
:1028C00092C19C8197B9EB81E8B9F4B8842D88D87E
:1028D0008C01832D8DD87C01D5B8842D81D89801A9
:1028E000295A3D4F2817390708F0AFC088E088B94A
:1028F000FA81F7B92B8524B925B9832D71D888348D
:102900009F4008F49DC085E08093250182E280937A
:1029100024011093510100935001B701C801D1D88F
:1029200090935701809356019801A0E1B7E20E946D
:10293000EC3C20911F013091200150E040E00E94CA
:10294000A83C30935301209352018F898D2984B97B
:1029500015B84C8147B98B8188B9832D49D88C0132
:10296000842D3ED8B801ADD89C0190935501809339
:102970005401909124019F70943071F5409152015F
:10298000509153016091560170915701C901D5DEF4
:102990000097F1F0D4B8EA899C81E92BE7B9842D3E
:1029A0001FD88C0188E087B99801A0E1B7E20E94A6
:1029B000EC3C209145013091460150E040E00E94FE
:1029C000A83CA901B8018091540190915501B5DE50
:1029D0009093510180935001809124018F70843035
:1029E00049F188E088B9EF81FA81EF2BE7B924B883
:1029F0002D8125B9852D0E94F40C8C015DD89E8314
:102A00008D83842D0E94F80CE0902801F09029011C
:102A1000BC01C80156D89701DC010E94EC3CED8155
:102A2000FE819F0150E040E00E94A83C309351019C
:102A30002093500180915B018F5F80935B014EC3B7
:102A400085E08093250184E262CF88E088B9FA812D
:102A5000F7B92B8524B925B9852D0E94F00C8C017E
:102A6000832D0E94F80C7C0125B8852D0E94F00C66
:102A7000895A9D4F8017910708F0A8C43B8138B947
:102A80004C8147B9832D0E94F00C813D934008F0A2
:102A9000A5C085E08093250182E380932401B801DD
:102AA000C7010FD89093730180937201C80104D8B5
:102AB0009C01A0E1B7E20E94EC3C209128013091FA
:102AC000290150E040E00E94A83C30936F01209320
:102AD0006E01F8E0F8B92A8127B98F858D2984B96C
:102AE00085B9852D0E94F80C8C01832D0E94F00C75
:102AF000B8010E94610D9C01909371018093700157
:102B0000909124019F709430A1F540916E015091F5
:102B10006F016091720170917301C9010EDE00971F
:102B200021F1D5B8D4B83B8138B9EC814A81E42B86
:102B3000E7B9852D0E94F00C0E945C0D8C0188E0A5
:102B400087B99801A0E1B7E20E94EC3C20913E01D8
:102B500030913F0150E040E00E94A83CA901B8013B
:102B60008091700190917101E8DD90936D018093E7
:102B70006C01809124018F70843051F1EB819F8131
:102B8000E92BE8B9EC819E2B97B915B8FD81F4B912
:102B9000852D0E94F40C7C01842D0E94F80C9E83EC
:102BA0008D8300911F0110912001BC01C7010E947B
:102BB000610D9801DC010E94EC3CED81FE819F01DA
:102BC00050E040E00E94A83C30936D0120936C01DE
:102BD000809177018F5F8093770118C185E08093A2
:102BE000250184E35ACF88E088B9FA81F7B925B87E
:102BF0002B8524B9852D0E94F40C998B888B0E941B
:102C00005C0D98878F83832D0E94F80C9A878987A3
:102C100083010C591F4F8F819885B301081719073D
:102C200008F0F6C00E94610D9C8B8B8B20912801CF
:102C30003091290150E040E060E871EA83E09CE1D6
:102C40000E94A83CAB89BC890E94013DE985FA85B8
:102C50009F0150E040E00E94A83C49015A0114B88D
:102C600015B8FB81F8B92C8127B981E00E94C00C0E
:102C7000E4B8842D0E94F40C8F359D4008F474C193
:102C8000F4B8842D0E94F00C998F888F832D0E94B8
:102C9000F80C9C8B8B8B852D0E94F80C9E8B8D8B5A
:102CA0008B899C89813D974008F4E6C084E080933D
:102CB00025018DE080932401288D398D8901061925
:102CC00017096216730610F0088D198DC0901F0148
:102CD000D0902001F12CE12C60E871EA83E09CE1C6
:102CE000A70196010E94A83CD8010E94013DEB89F2
:102CF000FC899F0150E040E00E94A83C8091770150
:102D0000882371F08091680190916901A0916A0116
:102D1000B0916B0182179307A407B50708F099C01B
:102D2000209368013093690140936A0150936B01CD
:102D3000288D398DA0E1B7E20E94EC3CA7019601F5
:102D40000E94A83C30936F0120936E016B897C89AF
:102D50008D899E890E94610D90936D0180936C0115
:102D600081E0409168015091690160916A01709120
:102D70006B01481559056A057B0508F06CC0809207
:102D8000680190926901A0926A01B0926B01698515
:102D90007A85888999890E94610D90936D0180934D
:102DA0006C012F813885A0E1B7E20E94EC3C2091B4
:102DB00028013091290150E040E00E94A83C205FAA
:102DC000384D30936F0120936E01C0901F01D09059
:102DD0002001F12CE12C9301A0E1B7E20E94EC3C30
:102DE000A70196010E94A83C3093710120937001C5
:102DF0002C853D85A0E1B7E20E94EC3CA70196013D
:102E00000E94A83C309373012093720181E025C099
:102E10008F8198850E94610D9C8B8B8BFD81F4B90D
:102E2000852D0E94F40C998B888B0E945C0D9887ED
:102E30008F83832D0E94F80C9A878987BC018B8928
:102E40009C890E94610D9C01A4E6B0E00E94EC3CCC
:102E5000FDCE80E086CF8111B8CF909177019F5F42
:102E600090937701882309F477C3309274014092DC
:102E700075015092760170C3F1E66F16710408F087
:102E800073C0288D398D213D47E0340708F46CC0AC
:102E900085E08093250182E180932401C901865059
:102EA0009F4FED89FE898E179F0708F043C083E18D
:102EB00080932401FA89F770DF2E832D806480933C
:102EC0007C00EBE0EE2E21E030E03E832D830FEF1F
:102ED00013E0A89561E089816ED5F4B886B18D21A3
:102EE000E9F33E8534B980917A00806480937A005A
:102EF00080917A0086FDFCCF8091780090917900D6
:102F0000F801E81BF90B2D813E812E0F3F1F3E83F8
:102F10002D83EA94E110DDCFC901880F991F880F36
:102F2000991F69E070E00E94813C70937301609387
:102F300072014ECE00911F0110912001688D798D94
:102F40008D899E890E94610D9801DC010E94EC3CF4
:102F5000E88DF98D9F0150E040E00E94A83C30933D
:102F60006D0120936C01A6CFF4B8D5B8842D0E94D2
:102F7000F40C6C01832D0E94F80C98878F830E94BB
:102F80005C0D9A8789870C151D0508F0A9C0B3014F
:102F9000C6010E94610D8C0120911F01309120011A
:102FA00050E040E060E871EA83E09CE10E94A83CC8
:102FB000D8010E94013DE985FA859F0150E040E07B
:102FC0000E94A83C49015A01FA81F7B988E088B902
:102FD0002D8124B925B9852D0E94F40C8C01832DF7
:102FE0000E94F80C9A878987842D0E94F80C7C0136
:102FF000003331E1130708F0E6C125B8852D0E94A2
:10300000F40C998B888B24B8852D0E94F40C9C8B32
:103010008B8B15B881E00E94C00C25B8852D0E94CD
:10302000F40CEB89FC89E034F64008F079C0813378
:10303000914108F475C0C8018A569F4FE889F98903
:10304000E817F90708F06CC086E0809325018091AD
:103050005B018F5F80935B01B70189859A850E9430
:10306000610D9093510180935001B701C8010E94F6
:10307000610D909357018093560114B815B8FA89E1
:10308000F8B981E00E94C00C24B8852D0E94F40C90
:10309000853F910518F52D8124B9832D0E94F40CEC
:1030A000813D9340D8F0852D0E94F80C8D3D9240D3
:1030B000A8F024B8852D0E94F40C8D3D924070F04C
:1030C00025B881E00E94C00C15B8852D0E94F40C33
:1030D000853F910518F487E08093250181E0F8C0D1
:1030E000E4B8F981F5B9842D0E94F40C6C01832DAC
:1030F0000E94F80C98878F830E945C0D9A878987BD
:10310000C6016C147D0410F48619970969857A85C7
:103110000E94610D9C01A4E6B0E00E94EC3C4BCF04
:10312000FA81F7B9298124B925B981E00E94C00C40
:103130003B8534B935B9852D0E94F40C8C010E9471
:103140005C0D998B888B832D0E94F80C9E838D8358
:103150000E945C0D9A878987842D0E94F80C7C015F
:1031600089859A858E3F994008F4C1C084E0809398
:1031700025018CE080932401B301888999890E94FC
:10318000610D8C01209128013091290150E040E02F
:1031900060E871EA83E09CE10E94A83CD8010E94AB
:1031A000013DE985FA859F0150E040E00E94A83C7E
:1031B00080915B01882371F080914C0190914D01C9
:1031C000A0914E01B0914F0182179307A407B50754
:1031D00008F07AC020934C0130934D0140934E018A
:1031E00050934F01B7018D819E810E94610D909394
:1031F00051018093500128893989A0E1B7E20E94EA
:10320000EC3C209128013091290150E040E00E94DF
:10321000A83C309353012093520181E040914C012E
:1032200050914D0160914E0170914F014815590523
:103230006A057B0508F04AC080924C0190924D01CE
:10324000A0924E01B0924F01B6018F8198850E94E5
:10325000610D90935101809350019601A0E1B7E276
:103260000E94EC3C20911F013091200150E040E091
:103270000E94A83C205F384D3093530120935201A7
:103280009301A0E1B7E20E94EC3C20911F01309134
:10329000200150E040E00E94A83C3093550120936B
:1032A00054012C853D85A0E1B7E20E94EC3C2091C1
:1032B00028013091290150E040E00E94A83C309361
:1032C0005701209356010ACF80E0A8CF8111D8CFB3
:1032D00090915B019F5F90935B01882309F43CC14F
:1032E000309258015092590140925A0135C1F1E68D
:1032F0006F16710408F067C02889398929343D4068
:1033000008F461C085E08093250182E08093240168
:10331000C70186509F4F8017910708F03CC083E09B
:10332000809324010B810770832D806480937C003F
:103330001BE021E030E03E832D83A89560E0898189
:103340003AD33B8534B935B986B18023E9F724B83F
:1033500080917A00806480937A0080917A0086FD63
:10336000FCCF8091780090917900ED81FE81E80F8B
:10337000F91FFE83ED83115001F7CF01880F991FCC
:10338000880F991F69E070E00E94813C709357019B
:10339000609356014FCBC0902801D0902901B7010E
:1033A000C8010E94610D9601DC010E94EC3CE88995
:1033B000F9899F0150E040E00E94A83C3093510100
:1033C00020935001AFCF88E087B988B914B815B8F9
:1033D00088E087B9F7EC6F16F1E07F0608F4E4C0E7
:1033E00088B92F8524B938EC3D834C818A81482BDC
:1033F0004F839F8197B981E00E94C00CEA81E7B9B1
:10340000852D0E94F80C429728F0FD81F150FD8334
:10341000F111EFCF2F8524B925B961E08981CBD295
:10342000852D0E94F40C6C013F8934B915B84C818C
:1034300047B98B8188B960E08981BDD2842D0E9413
:10344000F40C0E945C0D9E838D839E8594B9842D1F
:103450000E94F80C8C01852D0E94F40CB8010E948A
:10346000610D8C01842D0E94F80C7C01852D0E9439
:10347000F40CB7010E94610D98012C5E3F4F281794
:10348000390708F469C088E088B9EA81E7B924B847
:1034900025B861E089818FD2842D0E94F80C7C01CF
:1034A000852D0E94F40CB7010E94610D7C01081764
:1034B000190708F060C0FF85F4B9F5B9852D0E94A1
:1034C000F40C9C01CD82DE8288EEE81683E0F806DB
:1034D00008F063C0C70164E670E00E94813CC70148
:1034E000875991098938914108F05EC02E153F0532
:1034F00008F05AC08D819E8143E0969587954A9544
:10350000E1F7893C910510F088EC90E02D813E8137
:10351000820F931F8E159F0508F046C06217730730
:1035200008F042C080912501833018F483E0809335
:10353000250120912301822F90E0FC01E756FE4FE8
:1035400050824682880F991FFC01EB55FE4FF18295
:10355000E0822F5F2093230188E087B988B914B8EF
:1035600015B88EE20E9465096996E2E10C94ED3D82
:103570006B2C79842BCF2F8924B915B83C8137B9AE
:103580004B8148B960E0898116D2842D0E94F40CE9
:103590000E945C0D9C01780197CFB70154E07695AD
:1035A00067955A95E1F79BCF642D852D01D0D4CF37
:1035B000B0E0A0E0EEEDFAE10C94D33DC82FD62F99
:1035C000A895862F90E0FC01ED5AFD4F549033965C
:1035D00024914C2F50E0FA01ED5AFD4F149133968F
:1035E00004916091770130915B01630F7727771F1A
:1035F000672B09F05AC0A89560912B0170912C019E
:10360000660F771F660F771F70933D0160933C0133
:1036100060917C0170917D01660F771F660F771FA7
:1036200070933B0160933A013EEB30933801609117
:103630002301E9E9F1E030E0840F951F63133AC0FC
:1036400088E088B9286027B914B915B9B8E1BB2E4C
:10365000D12CC12C8D2F0E94F40C782E692E8C2F2A
:103660000E94F80C7C018C199D0997FF03C091956D
:103670008195910903970CF45AC1A895BA946701F2
:10368000B110E8CF80912B0190912C0190933D01D6
:1036900080933C0180917C0190917D0190933B014E
:1036A00080933A0189E180933801CDB7DEB7E0E13C
:1036B0000C94EF3D51914581450F5527551F4817F3
:1036C000590701F33F5FBACF25E8C21621E0D206C1
:1036D000C8F6043AE2E01E0708F0B5C0F8E9AF16F4
:1036E000B10480F2C6010E945C0DAC019601A8E90C
:1036F000B7EB0E94EC3C9A0150E040E00E94A83CED
:1037000029013A01C5010E945C0D9C01A8E9B7EBB3
:103710000E94EC3C950150E040E00E94A83C88E704
:10372000C8168FE0D80608F072C0F2E0440C551CB1
:10373000661C771CFA95D1F7C301B201620F731FA3
:10374000841F951F25E030E040E050E00E94A83C37
:10375000A4E6B0E00E94013D6B017C01FCEACF0EC3
:10376000FDE0DF1EE11CF11C10912501143008F072
:1037700089CFC1500C2F0D0F802F90E0EC01CE5956
:10378000DE4F2881880F991F880F991F8E549E4FF6
:10379000FC01222309F4C4C080809180A280B38000
:1037A000A7019601281939094A095B0957FF07C083
:1037B00050954095309521953F4F4F4F5F4FAAE070
:1037C000B0E00E94013DF4E68F0E911CA11CB11CDB
:1037D000A50194012C0D3D1D4E1D5F1D0E94A83CAE
:1037E000232B242B252B09F04DCF133019F081E02A
:1037F0008093250182E0888380917E01E82FF0E0AC
:10380000EB59FE4F00838F5F80937E013BCFE8E74B
:10381000AE16EFE0BE0670F4E2E0220F331F441F45
:10382000551FEA95D1F7CA01B901640D751D861DB2
:10383000971D88CF240D351D461D571D569547955C
:103840003795279585CFC0902801D0902901672D05
:10385000762DE616F70608F4B701C7010E94610D40
:103860009601DC010E94EC3C2B013C01C7010E9447
:103870005C0D9C0150E040E0C301B2010E94A83CF5
:1038800029013A01A0901F01B0902001892D982DA7
:103890008017910708F4C801B8010E94610D9501D5
:1038A000DC010E94EC3C980150E040E00E94A83C02
:1038B00088E7E8168FE0F806B0F462E0440C551C87
:1038C000661C771C6A95D1F7C301B201620F731FA2
:1038D000841F951F25E030E040E050E00E94A83CA6
:1038E00069017A0141CF0837EFE01E0770F4CA0181
:1038F000B90152E0660F771F881F991F5A95D1F7BB
:10390000640D751D861D971DE5CF73016201C20E02
:10391000D31EE41EF51EF694E794D794C79424CFE3
:10392000C082D182E282F38281E08883ABCE110F24
:1039300015B814B98C2F0E94F40C8135910508F04C
:10394000A1CE15B98C2F0E94F40C6C01802F8860D9
:1039500087B908B915B854B8A8E14A2EB12CA12CE2
:103960008C2F0E94F40C982E892E8D2F0E94F80C1B
:103970008C018A199B0997FF03C091958195910944
:10398000039734F0A8954A9458014110E9CF7ACEB4
:10399000550C54B88D2F0E94F40C5C01F0ECEF161E
:1039A000F4E4FF0608F490CE80EBC8168DE4D80648
:1039B00008F068CE8ECECF93C82FC09595B160FF2A
:1039C00010C0982B95B994B1892B84B982E00E94DC
:1039D000C00C84B18C2384B985B18C2385B9CF9177
:1039E00008959C23EFCFB0E0A0E0E9EFFCE10C9458
:1039F000D93D1AE008E08FE3C82E99E0D92E07B927
:103A000008B915B8C4B880E00E94F40C7C0181E0CC
:103A10000E94F80CEC0182E00E94F80C9C0180915D
:103A200025018930A1F488E087B914B8F092060125
:103A3000E0920501D0930801C093070130930A0179
:103A400020930901CDB7DEB7EAE00C94F53D84E0A0
:103A5000E816F10448F4C430D10560F4243031058F
:103A600010F399E092600AC098E088EEE81683E0CF
:103A7000F80608F499E0C83ED340A0F3283E33404E
:103A800008F4946097B9D0E0C0E0A89580E00E9467
:103A9000EC0C5C0181E00E94F80C7C0182E00E9449
:103AA000F80C24E1A21625E0B20608F4389A24E1C5
:103AB000E21625E0F20608F4399A843125E09207EF
:103AC00008F43A9A26E0A216B10430F426E0E21691
:103AD000F10410F4069738F02196C43F81E0D8072E
:103AE000A1F6D0922501F12CE12CEC16FD0621F473
:103AF000115009F084CFA6CF0E94AE0C2FEFE21A2E
:103B0000F20AF3CFCF92DF92EF92FF92CF93209100
:103B10008301309184014091850150918601C091CB
:103B200095018AE0C82ED12CE12CF12C8C2FCF5F8F
:103B3000213A96E8390791E049075105E0F480936E
:103B40009501A0913C01B0913D010E94013D28E802
:103B500033E140E050E00E94A83C20938301309381
:103B600084014093850150938601CF91FF90EF909F
:103B7000DF90CF900895CA01B901A70196010E9474
:103B8000A83CD4CFB0E0A0E0E8ECFDE10C94D73D38
:103B9000C82F062F880F8C0F9FEF960F890F8093E9
:103BA0005D01EC2FF0E0ED5AFD4F1491862F90E06F
:103BB000FC01ED5AFD4FF490FC01EA5AFD4FD491FF
:103BC000809125018130C1F120912301E9E9F1E0E3
:103BD00090E080E08217A8F1D860109290011092D6
:103BE0008F0181EF809395011092830110928401DF
:103BF0001092850110928601F6DE88E088B9D7B967
:103C0000F4B8F5B88C2F0E94F80C5C01802F0E944C
:103C1000F80CA81AB90A14B810925F0110925E014C
:103C200080915E0190915F01843F9140F0F088E0C7
:103C300087B988B914B815B8CDB7DEB7ECE00C94E5
:103C4000F33D368130130EC030813C130BC0DC01D4
:103C5000AA0FBB1FA756BE4F1C964D915C914C3DC1
:103C6000554050F301963196B5CF15B914B90E945D
:103C7000A80C14B815B80E94AF0CA8958C2F0E9400
:103C8000F80C7C01EA18FB0880915E0190915F01BD
:103C90008E37910520F08BE4E816F10444F2809110
:103CA0005E0190915F012DE2E21621E0F2060CF038
:103CB00023C2019690935F0180935E01B1CF0E9471
:103CC000A90C8C2F0E94F80C8A199B09A8952FEF3C
:103CD000C21AD20A20915E0130915F012C153D0578
:103CE00070F75701A81AB90A1A141B040CF0ADC0DA
:103CF00039ECA316B1040CF09ACF28EE33E0D501CD
:103D00000E94FB3C97010F2C000C440B550B0E94AA
:103D1000A83C690180915E0190915F010196B0E03D
:103D2000A0E080938B0190938C01A0938D01B093C0
:103D30008E01C7018A0D9B1D33D220918B013091DA
:103D40008C0140918D0150918E01DC010E94013D5A
:103D500060938B0170938C0180938D0190938E0101
:103D60006093830170938401809385019093860111
:103D700087EF80939501C6DE809083019090840147
:103D8000A0908501B09086018EE393E00E94643E8E
:103D9000A8EEB3E0A81BB10987FDB395A501940176
:103DA0000E940B3D24E630E040E050E00E94A83C39
:103DB00020938301309384014093850150938601C1
:103DC00080912301882329F080912501853009F015
:103DD0002ECF88E0809325018091950190919601E6
:103DE0009817C4F0891323CF8090830190908401A9
:103DF000A0908501B0908601409187015091880183
:103E00006091890170918A01481559056A057B0501
:103E100008F00DCF4091830150918401609185019C
:103E200070918601409387015093880160938901C6
:103E300070938A0180939601D0929201C092910171
:103E400000939301C0939401F2CED12CC12C62CF88
:103E5000CADD15B88FE087B988E088B9F12EFF0C6C
:103E6000F4B880E480937B0084E580BF8C2F80646D
:103E700080937C0087E180937A000E94B20C1092BC
:103E80005F0110925E0110928000109285001092E6
:103E9000840087E286BB81E280936F0081E080939B
:103EA0008001F5B89091250180938100953009F04B
:103EB00005C181E090E00C2E01C0880F0A94EAF75A
:103EC00080958F7087B9F89483B7817F83BF809185
:103ED0008001882389F083B7816083BF78948895B7
:103EE00083B78E7F83BFF894A89580915E019091EF
:103EF0005F0180389C4059F7789410928100E090DF
:103F00008600F090870010926F0087E980937A0016
:103F100014B815B88C2F0E94F80C209140013091F4
:103F20004101821B930B0C9690939801809397010B
:103F300080915E0190915F018034964008F077CEC9
:103F400080915E0190915F0190938E0180938D012D
:103F5000F0928C01E0928B0184EF80939501809127
:103F60005E0190915F0182349105C8F060918B01F0
:103F700070918C0180918D0190918E0124E630E04A
:103F800040E050E00E94A83C20938B0130938C01CC
:103F900040938D0150938E0186EF80939501A091FF
:103FA0008101B091820120918B0130918C0140916F
:103FB0008D0150918E010E94013D20E436E040E0E9
:103FC00050E00E94A83C20938B0130938C014093D9
:103FD0008D0150938E01209383013093840140938F
:103FE0008501509386018EDD80919501843F09F013
:103FF00054C0C0908301D0908401E0908501F0907E
:10400000860180EAC8168FE0D806E104F104C0F406
:10401000A70196012C543F4F4F4F5F4F60EA7FE05E
:1040200080E090E00E94A83CC20ED31EE41EF51E64
:10403000C0928301D0928401E0928501F0928601C2
:10404000C0908301D0908401E0908501F0908601BA
:10405000C114D10421E0E206F10490F5D092C3012D
:10406000C092C20180915D0190E0855A9C4F0E94F0
:10407000643E90E0B0E0A0E08C159D05AE05BF0564
:1040800030F5C81AD90AEA0AFB0AC0928301D09215
:104090008401E0928501F092860114B98091830138
:1040A00090918401A0918501B09186014997A10565
:1040B000B10508F4BCCDD12CC12C82CED7B903CF29
:1040C00081E090E09093C3018093C201CBCF34E1B3
:1040D000C30ED11CE11CF11CC816D906EA06FB066A
:1040E00010F40E94FB12109283011092840110922E
:1040F000850110928601D1CF892B31F485E1E81634
:1041000085E0F8060CF0A4CEC701D12CC12CE2CD7D
:104110001F920F920FB60F9211248F939F93B59910
:1041200004C080918001811109C0B59B10C08091AD
:104130008600909187008A3F910548F480915E0146
:1041400090915F01019690935F0180935E019F9132
:104150008F910F900FBE0F901F9018951F920F9286
:104160000FB60F9211248F939F9310928001B09BF2
:1041700010C080918600909187008A3F910548F495
:1041800080915E0190915F01019690935F01809311
:104190005E019F918F910F900FBE0F901F90189509
:1041A0000F9221E08C32920710F48CE291E08C5255
:1041B000914069E170E00E94813C99E16B3210F01E
:1041C000982F6BE2981BECEDF2E0E60FF11DE60F85
:1041D000F11D9F93CF010E94643E482F3196CF017D
:1041E0000E94643E582F3196CF010E94643E282FD2
:1041F0003196CF010E94643E382F6F91421B530BC2
:10420000649FC001659F900D11240C9669E170E0D8
:104210000E94813C620F731FCB010F900895B0E0A4
:10422000A0E0E5E1F1E20C94D73D88E893E19093BA
:104230002C0180932B0190933D0180933C018EEBE8
:1042400080933801C8E0C8B988E187B90E94B70CEB
:10425000C7B984E00E94F40CAC018B5C9840833FAA
:104260009140A0F481E08093470120913C0130917E
:104270003D01AFEBB9E00E94EC3C9A0150E040E018
:104280000E94A83C30932C0120932B0180912B019C
:1042900090912C0190933D0180933C018EE00E940F
:1042A000F80C8EE00E94F40C909341018093400141
:1042B0000E94440E98DB88E0F82EF8B8C9E0C7B930
:1042C00085E185B9D1E0D4B980E00E94F40C8C017D
:1042D0009AE0D92ED7B824E0B22EB4B881E00E947B
:1042E000F40C080F191F3CE0E32EE7B840E1C42EA0
:1042F000C4B882E00E94F40C080F191F15B8C8B9A1
:10430000C7B9D4B980E00E94F40C0E945C0DEC01A6
:10431000D8B8D7B8B4B881E00E94F40C0E945C0D04
:10432000C80FD91FE8B8E7B8C4B882E00E94F40CFF
:104330000E945C0DC80FD91FF7B8F8B814B8809167
:104340003C0190913D016C01CC0CDD1CC80ED91EC6
:10435000C01AD10ACC1ADD0AF12CE12C9801A0E98F
:10436000BAE10E94EC3CA70196010E94A83C4901D9
:104370005A0130934601209345019E01A0E9BAE11C
:104380000E94EC3CA70196010E94A83C30933F019B
:1043900020933E012057354E309329012093280168
:1043A00080E7881A85EE980A9092200180921F017A
:1043B00089E180933801CDB7DEB7ECE00C94F33D92
:1043C000CF92DF92EF92FF920F93CF93DF93F82E6D
:1043D000D62FC42F0E94B6098DE291E00E94120AE6
:1043E000FED16D2F8F2D0E94A934C090C601D090B0
:1043F000C701E090C801F090C9018091020187FDDA
:1044000005C0C114D104E104F10421F089E291E076
:104410000E94120A8D2F0E94B609C114D104E10432
:10442000F10409F474C00E94B909809165010E94E9
:10443000CE0ACC2309F467C0809148018D3030F456
:104440008650990B8B599C4F0E94120A80E00E9463
:10445000E609CD28CE28CF2809F45EC06091C601B8
:104460007091C7018091C8019091C90103E028E4CF
:1044700047EF0E94560B8CE391E00E94120A80E7FE
:1044800093E00E946C3E23E046E464EF0E94380C07
:104490008091BE019091BF01A091C001B091C10176
:1044A000892B8A2B8B2B01F180E00E94E609609119
:1044B000BE017091BF018091C0019091C10104E0E3
:1044C00028E440E00E94560B87E391E00E94120A24
:1044D00023E040E26FEF8091C4019091C5010E94FA
:1044E000380C0E94C50907C080E00E94CB0980916A
:1044F0004B018823B1F3DF91CF910F91FF90EF90A3
:10450000DF90CF90089580E00E94E609A7CFC11107
:1045100093CF80E00E94E609809165010E94CE0A57
:10452000809102018E3F0CF0B3CF84E591E00E94B0
:10453000120A60910B0170910C0180910D01909114
:104540000E0103E028E4409102010E94560BA0CF27
:10455000EF92FF920F931F93CF93DF93182F0E9438
:10456000C007809193010E94B60980E791E00E9404
:10457000120A1CD5609193018091940170D3EC01D3
:104580009093900180938F01E0909101F0909201BF
:10459000CA3F8FEFD80720F48EE291E00E94120A02
:1045A000809194010E94B609112309F445C09091AD
:1045B00048018DE0891B0E94BC0989E790E00E94B8
:1045C000120A0E94510860918701709188018091C0
:1045D000890190918A0104E026E4409196010E94AD
:1045E000560BCA3FDF4F68F48FE591E00E94120A34
:1045F00022E044E06EEF80918F01909190010E9443
:10460000380C0E94C5090E945908E114F10469F0B0
:1046100088E591E00E94120A22E045E26FEF809166
:104620009101909192010E94380C0E94C509CDB76A
:10463000DEB7E6E00C94F93D0E94C509C2CF8F7049
:1046400021F40E9461080C94551308958F3021F4D1
:1046500090914201913011F08F5F089580E00895AC
:10466000CF9384E890E00E947C2FC0E00E94E70E88
:1046700060E082E00E94D81A62E080E00E94D81ACE
:104680000E94C00780917E018823C9F041E062E06A
:1046900080E096DE8C2FD3DF88EE93E00E94B40D8D
:1046A000811109C080911E01843028F48C2FCEDF47
:1046B000C82F8A3FD8F20E94C707CF91089584E897
:1046C00090E00E94120A89E693E00E94120A0E947A
:1046D00051088FE30E94650980E00E94CB090E9487
:1046E000C509D8CF0F931F93CF93DF93C0E0D8E0D5
:1046F00012EF0DE00E94E70E60E082E043DAD09313
:10470000250180919501843FE1F48091830190918E
:104710008401A0918501B091860184369105A1059F
:10472000B10578F440E060E082E00E945A32609384
:104730008301709384018093850190938601109387
:10474000950180919501823F6CF180939601809153
:10475000830190918401A0918501B091860180939D
:10476000870190938801A0938901B0938A0181E029
:10477000EFDE8C2F64DF88EE93E00E94B40D811190
:104780000AC080911E01843030F48C2F5FDFC82F67
:104790008A3F08F4AFCF0E94C707DF91CF911F91E6
:1047A0000F9108950E94C0078DE790E00E94120AC1
:1047B00080914801902F981B892F0E94BC0989E79E
:1047C00090E00E94120A0E9451088FE30E9465093E
:1047D0000E94C5090E9459080E94C509CACFA6E1D6
:1047E000B0E0E5EFF3E20C94D13D82E0809302016A
:1047F00080912501813009F0F2C180917E018130E4
:1048000009F0EDC14090650124E0429EF0011124C1
:10481000EE54FE4F80819181A281B381893032E5CF
:104820009307A105B10508F0DAC11C01712C81E0E4
:10483000871508F4D8C1842D0E94C40A982E892EA9
:10484000E82DF0E0EA5AFD4F5490892D90E0FC01EC
:10485000ED5AFD4FE49115B828E028B9372D317095
:10486000632E20EF2216310408F0C2C13111C0C1FD
:1048700000911F011091200100591A4121E030E000
:10488000092C02C0220F331F0A94E2F7C901886085
:10489000852987B934E1398B892D0E94F00C5C01A0
:1048A000882D0E94F80C24E0A216B10410F404979D
:1048B00028F039893150398B3111EECF80E4809363
:1048C0007B0094E590BF892D806480937C0027E174
:1048D00020937A00F12CE12C109280001092850038
:1048E0001092840087E286BB0E94B20C872D90E074
:1048F0009A8B898B611085C181E88093810058B8BB
:1049000086B385FD0CC080FFFBCF21E026BBA895B8
:1049100097012F5F3F4F7901203A310589F738E041
:1049200038B91092810090E296BB209186003091B8
:104930008700690140918400509185002417350754
:1049400038F480FF05C021E026BB3FEFE31AF30AED
:1049500087E980937A00B4E15B2E892D0E94F00CE8
:104960005C01882D0E94F80C24E0A216B10410F41A
:10497000049718F05A945110F0CF80904501909010
:104980004601820C931C800E911E209121013091D2
:10499000220100398AE1180708F03CC169E191EE73
:1049A000C916D104E104F10430F4C60165E070E0F9
:1049B0000E94813C645128523109261B310967FD50
:1049C000339566E0862F90E0B0E0A0E08C159D0561
:1049D000AE05BF0508F027C1C81AD90AEA0AFB0AC2
:1049E000662029F08AE3C80ED11CE11CF11C90EA74
:1049F000E916F10418F0C12CD12C76018BE0C81611
:104A0000D104E104F10428F091E0C91AD108E108C9
:104A1000F108B12CA12CA8EEB3E00E94EC3C6B8B0A
:104A20007C8B8D8B9E8BA0913C01B0913D019801B8
:104A30000E94EC3CA50194010E94A83C4427552704
:104A40006B897C898D899E890E94A83CC9010E943E
:104A50009C0EFC01A5019401C701B6010E94663CB1
:104A60004B015C01BF0190E080E0E4E0660F771F3E
:104A7000881F991FEA95D1F76B5F7F4F8F4F9F4F2C
:104A80002AE030E040E050E00E94A83C442755274F
:104A9000C501B4010E94A83CE989FA89EE0FFF1F05
:104AA000EE0FFF1F81E090E08C0F9D1FE80FF91FB4
:104AB0002083318342835383611018C094E1C91667
:104AC000D104E104F10490F07394E989FA893196F4
:104AD000EE0FFF1FEE0FFF1F81E090E08C0F9D1F78
:104AE000E80FF91F2083318342835383A895739481
:104AF00093E0971508F09BCE88E088B984E00E9487
:104B0000C00C91E00D811E812F81388549815A8129
:104B10006B817C81401751076207730708F090E0B2
:104B20000D851E852F85388949855A856B857C853D
:104B300082E0401751076207730708F483E024E01E
:104B4000829FD001112421E030E02C0F3D1FA20FE5
:104B5000B31FE92FF0E0EE0FFF1FEE0FFF1FE20F74
:104B6000F31F0D911D912D913C91408151816281E6
:104B70007381041715072607370708F0892F34E0DB
:104B8000839FF001112421E030E02C0F3D1FE20F44
:104B9000F31F408151816281738140930B015093D7
:104BA0000C0160930D0170930E0180FD40C030EF49
:104BB00023163104E0F58BEF8093020180910B0105
:104BC00090910C01A0910D01B0910E01892B8A2BBF
:104BD0008B2B11F41092020188E087B914B8669605
:104BE000E2E10C94ED3D842D0E94C40A4C0128CED4
:104BF000E4B9852D886087B900911F0110912001CB
:104C000049CE58B80E94BB0C90E296BB81E88093D5
:104C1000810076CEC40168E57BE10E94813C695F3A
:104C2000285D3F4FCFCEC12CD12C7601D9CE8CEF51
:104C300080930201CB01BA016B5F7F4F8F4F9F4F73
:104C40002AE030E040E050E00E94A83C20930B01B5
:104C500030930C0140930D0150930E01AFCFAEE1A4
:104C6000B0E0E5E3F6E20C94D13D662EB82E860F57
:104C7000898320912501283059F5209187013091B1
:104C800088014091890150918A0157FD15C010910A
:104C9000960109C0CA01B9012AE0312D412D512DDB
:104CA0000E94A83C1F5F173FACF391F4243160E0F1
:104CB00036074105510518F48FEF9FEF44C1173FA8
:104CC00039F480E028178DE738074105410510F0D9
:104CD00020E03DE72C8B3D8B27EDA22EE6E5F2E0B0
:104CE000E60DF11D859188608E87E6E5F2E0EB0D1B
:104CF000F11D859188608F87E3E5F2E0E60DF11DF7
:104D00007590E3E5F2E0EB0DF11DC59090EC692A9A
:104D1000B92A81E0E82EF12C012D112D8E831F82FE
:104D2000188619861A861B861C861D86188E198E73
:104D30001B8E1A8E0E94F31C88E088B960927C005A
:104D40000E94B30C3F8537B975B874B855E05A95D1
:104D5000F1F7000014B815B8DD243E8537B975B8F1
:104D600074B860927C00A895A0927A0080917A0035
:104D700086FDFCCF2090780030907900B0927C00C6
:104D80004C2DE5D02091780030917900288B398B1B
:104D90003F8537B9C5B8C4B8A895B0927C00A09239
:104DA0007A0080917A0086FDFCCF60917800709146
:104DB000790060927C00472DCAD0409178005091D4
:104DC000790014B8CB01820D931DE80EF91E011D68
:104DD000111DEA82FB820C831D8388899989840FC7
:104DE000951F2E813F8168857985280F391F611DA8
:104DF000711D2E833F836887798722E32417150668
:104E000050F075B874B80E94BD0C14B815B8888DF0
:104E10008395888F07C0483E73E0570718F08A8D46
:104E200083958A8F888999892817190660F03E85AD
:104E300037B9C5B8C4B80E94BD0C14B815B8898D6F
:104E40008395898F07C0883E73E0970718F08B8D94
:104E500083958B8FD3945D2D5F3F49F05F3731F49D
:104E60005C2D550FC50E572D550F750E76CF409002
:104E7000450150904601440C551C9201E4E0240D7C
:104E8000351DEA95E1F72901570168016E807F80A1
:104E900088849984209125012830C1F46C897D890A
:104EA000812D912D65507040804090409B01AC0158
:104EB0000E94663C9B01AC0160E779E786E190E0E7
:104EC0000E94A83C621A730A840A950AA614B704C1
:104ED000C804D90428F46A187B088C089D0803C00C
:104EE000662477244301B20180E090E09301A4019D
:104EF0000E94663C9501A6010E94A83C8AE393E0CB
:104F00007981870F911D0E94643E682EC90160E17E
:104F100070E00E94813C260F371FC90168161906F0
:104F200018F4861991090FC08C5E9F4F8615910564
:104F300040F48C899D89843981E1980710F00E94A2
:104F4000FB12812D912D6E96E2E10C94ED3D1092B5
:104F500081001092800010926F0010928B001092CE
:104F60008A0057E056BB5FEF509385005093840052
:104F700055E050937B0057EB50937A0051E05093EB
:104F800081005FE45A95F1F70000000045B944B98B
:104F90005BE05A95F1F714B815B810928100809132
:104FA0007A0084FFFCCF80937A000895B0E0A0E0FF
:104FB000ECEDF7E20C94D33D009191011091920138
:104FC0000115110509F091C0E0919301F0E0EA5A52
:104FD000FD4FD491D860E0919401F0E0ED5AFD4F7F
:104FE000C4910E94F31C88E088B915B8D7B9C4B938
:104FF000809194010E94F80C7C01D09196018CE084
:105000008D0F843008F071C08091870190918801E4
:10501000A0918901B0918A01D15F2AE0422E512CE2
:10502000612C712CBC01CD016B5F7F4F8F4F9F4F67
:10503000A30192010E94A83C49015A01DA01C90169
:10504000DF5FD73079F7893823E19207A105B105F1
:1050500008F04BC0059708F448C0C5B9C4B9D0E002
:10506000C0E0C815D90508F445C014B815B8A8950E
:1050700085E080933801809194010E94F80CEC0146
:10508000CE19DF09E816F90610F0D0E0C0E0D12C07
:10509000C12CC814D90490F1809194010E94F80C9D
:1050A00029E120933801A895E816F90618F48C0137
:1050B0000E191F090C171D0788F49E01201B310BC8
:1050C00069F0A4EFB1E00E94EC3C9E0150E040E0AA
:1050D0000E94A83C30939201209391010E94F31CFE
:1050E00088E087B988B914B815B8CDB7DEB7E0E164
:1050F0000C94EF3D0E94B90C2296B3CF0E94B90CDC
:105100008FEFC81AD80AC5CFA7E0B0E0EAE8F8E206
:105110000C94D13D83ED91E0EFD660EF6B83549812
:105120000E94AE0C14BC16BC109212011092130116
:10513000109214011092150181E085BB80936E00DE
:1051400010928000E5E2F4EFF0938B00E0938A0088
:1051500081E090E090938900809388001092850010
:105160001092840083B5816083BD96E096BB9093D6
:105170006F007894E4E0E0938100F2E3F9831A820F
:105180000E94A70CA8954F9902C061E06A8385B57B
:10519000882329F08981815089838111F1CF15BC41
:1051A00086B5809312010E9459080E94C5090E9489
:1051B00061080E94C5090E94F20986E60E946509FD
:1051C0000E94F609609112017091130180911401FF
:1051D0009091150147E00E944D0C549880918100F8
:1051E000882319F08FE30E946509109281001092C4
:1051F0006F002091120130911301409114015091E0
:105200001501DA01C9010197A109B1098336934C4F
:10521000A105B10508F096C0AAE0B0E00E94013DEA
:10522000605F7F4F8F4F9F4F24E0969587957795CE
:1052300067952A95D1F7660F771F70937901609370
:10524000780154980E94AE0C16BC10921201109274
:1052500013011092140110921501F1E0F5BBF093C7
:105260006E0010927B0110927A0164E06BBB80911A
:105270006800846080936800789480916D008061FC
:1052800080936D0019820E94A70CA8954F9902C0C7
:1052900081E08A8380916D0084FF05C099819F5FC2
:1052A00099839A3F81F715BC80916D008F7E809322
:1052B0006D00809168008B7F8093680086B5809335
:1052C00012010E94590884E50E9465090E94F609AE
:1052D000E0917801F0917901FD83EC8360911201F6
:1052E00070911301809114019091150124ED30E328
:1052F00040E050E00E94113DEC81FD81612C712C59
:1053000043015F01C12CD12CE12CF12C00E010E015
:105310000E94653D49014F835E831B012C018C81F6
:105320009D818038910520F107E023E745EFB40126
:105330008F81952F0E94560B99819A3F91F58FE3AB
:105340000E94650910926E0080ED97E00E94B40DF6
:105350006A81860F49F480911E01833028F48B8185
:1053600081508B838111DBCE2796E2E10C94ED3DD9
:1053700084E6A82EB12CC12CD12CE12CF12C00E01C
:1053800010E094014F815E81B101C2010E94653D30
:10539000F22FE42F07E023E747EF6F2F732F8E2FB5
:1053A000C8CF94014F815E81B101C201263E354BC9
:1053B00041055105610571058105910519F210F24C
:1053C0000E94610886E60E9465090E94F609940120
:1053D0004F815E81B101C20154012115FAEC3F07F2
:1053E000FAE94F07FBE35F07610571058105910548
:1053F000F1F0E8F06A017101820120E030E04AE852
:105400005DE568E775E483E691E00E94653DF22F73
:10541000E42F07E028E44AEF6F2F732F8E2F952F8C
:105420000E94560B8AE70E94650954988BCFCF8063
:10543000DE807101820120E030E44AE750E163EF51
:105440007AE580E090E00E94653DF22FE42F07E0CE
:1054500028E44DEFE1CF1F920F920FB60F92112467
:105460008F939F93AF93BF93789480911201909103
:105470001301A0911401B09115019F5FAF4FBF4F71
:105480008093120190931301A0931401B09315011E
:10549000BF91AF919F918F910F900FBE0F901F9072
:1054A00018951F920F920FB60F9211248F9386E0DA
:1054B00085BD8F910F900FBE0F901F9018951F9272
:1054C0000F920FB60F921124A8951092810015BC6F
:1054D0000F900FBE0F901F9018951F920F920FB64E
:1054E0000F9211242F933F938F939F9380917A0172
:1054F00090917B01892B11F481E085BD20917A0187
:1055000030917B01809178019091790128173907BA
:1055100030F015BC80916D008F7E80936D0080917E
:105520007A0190917B01019690937B0180937A019F
:105530009F918F913F912F910F900FBE0F901F90D1
:1055400018958D3008F08D50811109C08FE392E0DD
:105550000E94120A0E94C5090C94BB07089581306D
:1055600019F483ED91E0F4CF823019F486E192E0F2
:10557000EFCF833019F48BE092E0EACF843019F456
:105580008FE890E0E5CF853019F484E890E0E0CF33
:10559000863019F48DE790E0DBCF873019F48AEF7D
:1055A00091E0D6CF883019F48BEE91E0D1CF8930DD
:1055B00019F483E091E0CCCF8A3019F489EF90E0C0
:1055C000C7CF8B3019F48DE292E0C2CF8C3011F648
:1055D00082E292E0BDCF0F93CF938FE890E08CD41E
:1055E000C0E01092250160E082E09BD4809125010B
:1055F000883009F050C00E94510883E40E94650978
:105600000E94F6096091870170918801809189015B
:1056100090918A0103E026E4409196010E94560B86
:105620000E94C509609193018091940118DB9093C9
:10563000900180938F010E94590880E691E00E94BA
:10564000120A80918F01909190018A3F2FEF92076B
:10565000F0F422E044E06EEF0E94380C0E94C5098D
:105660008C2F0E941F2388EE93E00E94B40D8111BD
:105670000BC080911E01843038F48C2F0E942623A9
:10568000C82F8A3F08F4ADCFCF910F9108958FE3D3
:105690000E946509E3CF0E94F2090E945908DECFFB
:1056A0000895A5E0B0E0E7E5FBE20C94D13D86E18A
:1056B00092E022D480E18093800010926F0081E01C
:1056C00090E0909389008093880010928B00109254
:1056D0008A0083E086BB1092820088E0809381007C
:1056E00015B891E194B988B989E087B9229A809375
:1056F0008100312C20E03AE0398341E04D83812C58
:10570000912C5401839451E15C83832D90E00A969F
:105710006EE170E00E94953C6B83F62E621761F09B
:105720000E94C00786E192E00E94120A10E01F1555
:1057300008F4DAC00E94C5098D8169810E94753C18
:10574000A92FB0E0A50194010E94013D6B017C01ED
:105750008C81823150F0652D762D872D902F0E94FF
:10576000A83CC60ED71EE81EF91E0E9451089D8156
:105770002981212C921306C081E03C81323108F44A
:1057800080E0282E2A828CE3211005C04C818EE314
:10579000463108F082E50E9465090E94B9094C81F2
:1057A000C701B6010E944D0CC701B6017C5D8B405C
:1057B0009F4FA7019601220F331F441F551F0E94C0
:1057C000A83CCA014F3F510509F008F492C08DE092
:1057D0008093810080E094E02C01712C612CCA013F
:1057E000B901A30192010E94A83C215031093093D4
:1057F0008900209388008091880090918900892BEE
:1058000031F481E090E090938900809388000E94B9
:10581000C5090E94590886E60E9465090E94B909D7
:10582000009188001091890060E072E18AE790E0C1
:10583000A30192010E94A83CA4E6B0E00E94013DB1
:105840000F5F1F4F980150E040E00E94A83C2901E3
:105850003A01A4E6B0E0A70196010E94013DA30130
:105860009201261B370B480B590BCA01B90105E2FF
:1058700028E44EEF0E94560B8AE70E9465090E94B9
:10588000C50980ED97E00E94B40D282F811151C009
:1058900080911E01811101C0232D80911E018B304A
:1058A000B8F480911D0187FD88C03D81830F90E091
:1058B0003981632F70E06F5F7F4F0E94953C8D832D
:1058C000822F0E942623382E4FEE481708F056C02C
:1058D000109281001092800088E087B914B8229855
:1058E0002596E2E10C94ED3D8EE20E9465091F5F72
:1058F0001ECF4034510530F08CE08093810080E071
:1059000091E06ACF4830510530F08BE08093810000
:1059100080E490E061CF892B31F08AE080938100B0
:1059200088E090E059CF89E08093810081E090E0A9
:1059300053CF883C68F68135C8F1222029F13C819B
:1059400031503C83C501B4012AE030E040E050E032
:105950000E94A83C49015A01C701B6010E94A83C17
:10596000CA01B9012AE030E040E050E00E94A83CC2
:105970006A834AE049832A812D83312C2B815C2C58
:105980006D2C7E2C0F2DC1CE5C815631E0F45F5F13
:105990005C83563111F485E18983AAE0B0E0A5016A
:1059A00094010E94013D4B015C01E5CF8B3018F062
:1059B0009D819F5F9D8320E070CF8F5F4981840F21
:1059C0005D81850F74CF5AE0598381E08A83812CF1
:1059D000912C5401839491E19C83CDCFB0E0A0E061
:1059E000E4EFFCE20C94D33D8BE092E085D283E2BD
:1059F0008093800010926F008FEF90E090938B0067
:105A000080938A0083E086BB1092820015B881E102
:105A100084B988E088B989E087B9229A21E030E02A
:105A200030938900209388008093810010E080E00B
:105A3000D2E300E094E6C92ED12CE12CF12C88248D
:105A40008A9423E0922EA12CB12CD817A1F1D43640
:105A500008F0D4562D2F30E0AFEFB3E00E94EC3CBD
:105A60006E5C7F4F8F4F9F4FA70196010E94A83C0D
:105A700029013A0130938B0020938A000E9451083B
:105A8000A8EEB3E0A30192010E94013D61507E4F58
:105A90008F4F9F4FA50194010E94A83CC90125E0AA
:105AA00045E26FEF0E94380C0E94C509093218F0D8
:105AB0008CE30E94C00C80E496E00E94B40D082F95
:105AC0008338A0F480911E018B3080F4C0911D01B9
:105AD000C7FD1BC0CD0F0333D0F0C65F10E0812F90
:105AE0000E942623182F8D2F103F68F088E087B979
:105AF000109281001092800014B82298CDB7DEB7C2
:105B0000E0E10C94EF3DDC2FA0CFCC59E3CF002394
:105B100011F0CF5FE3CF8111E1CFE1CFA3E0B0E09F
:105B2000E4E9FDE20C94D83D082F81115CC083E0CC
:105B300091E0E2D187E393E00E94643E182F86E370
:105B400093E00E94643E982F96959695969599833A
:105B5000912F9F719B8328E0829FC001112488733D
:105B6000129516951770812B8A83D12C10E0CE01E7
:105B700001965C01C12C7C01992493949C0C60E0FB
:105B8000892D880F0E949007C11238C08EE30E94B1
:105B9000650982E4CC2021F031E087E4C31282E57C
:105BA0000E9465098DE30E946509F50181915F01FD
:105BB00024E040E260E090E00E94380C0E94C509B9
:105BC000C92CF3E09F12D8CF80E496E00E94B40D78
:105BD000811117C090911E01911116C02FE3113051
:105BE000E1F02FE11AC089EF90E086D189E393E0DC
:105BF0000E94643E182F88E393E0A3CF0E94B90966
:105C0000C8CF823808F042C02FE3113009F02FE1ED
:105C100090911E019B30D0F5D12C90911D01E12F68
:105C2000F0E0D701AE0FBF1F3C9197FD41C0930F2D
:105C30009C93EE0DFF1D9081292320832A814981A9
:105C40009B81011139C038E0439FA0011124322FFC
:105C5000369536953695432B409361019F7140E20E
:105C6000249F90011124922B90936001882331F09E
:105C70008932B0F11E5F133008F013508D2D0E9451
:105C80002623D82E2FEE281708F071CF01112AC035
:105C90006091600187E393E00E94713E6091610131
:105CA00086E393E00E94713E2396EBE00C94F43D72
:105CB0009F5F930F920FBCCFE8E04E9FA00111248D
:105CC000322F369536953695432B409327019F7199
:105CD000F0E22F9F90011124922B90932601C6CFC2
:105CE0001F5FC9CF6091260189E393E00E94713E56
:105CF0006091270188E393E0D5CF0F931F93CF9353
:105D0000DF938AEF91E0F8D08EE393E00E94643E47
:105D1000C82FD0E00E9451080C2F0C2E000C110B44
:105D2000C7FF37C08DE20E94650923E045E26FEFAF
:105D300088279927801B910B0E94380C0E94C50967
:105D400080E496E00E94B40D811128C090911E015C
:105D5000911126C090911E019B3088F490911D01F5
:105D6000C90F882319F08932E8F0CF5FC135E4F01C
:105D7000C5568D2F0E942623D82F803F58F26C2FB6
:105D80008EE393E00E94713EDF91CF911F910F91BE
:105D9000089523E045E26FEFC801CECF823878F74F
:105DA000D0E0D8CFC150E2CFCC3E1CF7CB59E1CFE9
:105DB000813019F480E0A8C90895823011F471CCC3
:105DC0000895833011F40ACE0895843011F403CC81
:105DD0000895853019F40C9430230895863029F401
:105DE0000E94C7070C9472230895873011F485CF61
:105DF0000895883021F481E10C94640F089589306E
:105E000019F480E08BCE08958A3011F481E0FACF46
:105E10008B3011F4C5C108958C3011F40C940A0F25
:105E20000895FF920F931F93CF93DF938AE492E03C
:105E300063D0D0E0C0E01BE01C0F00E0FF24F3942F
:105E4000F00E60E08F2D880F0E949007023009F05D
:105E500049C08EE30E94650983EF810F1D3008F46D
:105E6000812F6FDB1F5F0F2D053041F780E49FE12D
:105E70000E94B40D8111D0E090914201913009F45B
:105E8000D0E0823330F490917F01992371F0882320
:105E900061F0CC23D9F08C2F8BDF10921E01109271
:105EA0001D018AE492E028D080E090911E019A3092
:105EB00068F490911D01992319F097FD16C0D0E068
:105EC000C90F811117C0DF5FD23839F480E0CDB738
:105ED000DEB7E5E00C94FA3DD1E0CD3008F4ABCF6D
:105EE000CD50A9CF0E94B909B7CF935FC90F8823BE
:105EF00099F3D0E0CF5FE7CFCF93DF93EC010E941F
:105F0000C707CE010E94120AC4E682E00E94C00CBC
:105F10004F9902C0C150C9F70E945108DF91CF913B
:105F20000895B0E0A0E0E7E9FFE20C94DA3D182F15
:105F3000062F862F90E0FC01EA5AFD4FE491FE2ED9
:105F40006894F3F8E12FF0E0ED5AFD4FC491FC01A5
:105F5000ED5AFD4FD4911092900110928F01109242
:105F6000830110928401109285011092860187EFBF
:105F7000809395010E94F31C88E088B9F7B8D4B9E2
:105F8000D5B9812F0E94F80C7C01802F0E94F80C5B
:105F9000E81AF90A14B810925F0110925E0130E01D
:105FA00020E05CE2C52EDD24D394DAE064E6B62E70
:105FB00080915E0190915F01843D904350F088E0B4
:105FC00087B988B914B815B8CDB7DEB7E9E00C9435
:105FD000F63DC5B980915E0190915F01892B91F0EA
:105FE000F601E21BF30B60915E0170915F01D29F9D
:105FF000C001D39F900D11240E94813CE617F70742
:1060000008F0A5C0C4B90E94B20C14B880915E011A
:1060100090915F01019690935F0180935E0115B8A6
:106020000E94B40CA895812F0E94F80C9C012E1997
:106030003F0980915E0190915F018B31964020F085
:10604000253231050CF4BBCF2D3281E038070CF43A
:10605000AFCF80915E0190915F01019729F42531C6
:1060600085E038070CF0ABCF80915E0190915F0125
:10607000880F991FB0E0A0E080938B0190938C0172
:10608000A0938D01B0938E01C90168E270E00E9477
:10609000953CCB01820F931F0E94D02020918B0151
:1060A00030918C0140918D0150918E01DC010E9454
:1060B000013D60938B0170938C0180938D019093CF
:1060C0008E01609383017093840180938501909386
:1060D00086010E94821DC0908301D0908401E090CF
:1060E0008501F09086018EE393E00E94643EA8EE65
:1060F000B3E0A81BB10987FDB395A70196010E94E3
:106100000B3D20E137E240E050E00E94A83C2093A4
:10611000830130938401409385015093860188E088
:106120008093250120938701309388014093890152
:1061300050938A018091950180939601109292016B
:1061400010929101009393011093940138CF8091A4
:106150005E0190915F010B97C8F060915E017091B4
:106160005F01B29EC001B39E900D11240E94813C3C
:106170006E177F0758F4C4B90E94A70C14B8809119
:106180005E0190915F018C599F4F45CFC4B90E9429
:10619000AD0C14B880915E0190915F010A963BCFDF
:1061A000CF92DF92FF920F931F93CF93DF930E94C2
:1061B000C7078AE191E00E94120A0E94510881EC0F
:1061C00090E00E94120A8CE393E00E94643E23E078
:1061D00040E26EEF90E00E94380C8DE393E00E9465
:1061E000643E23E040E26EEF90E00E94380C8BE3C7
:1061F00093E00E94643E23E044E06EEF90E00E9452
:10620000380C0E9459088AEB90E00E94120A23E0A1
:1062100044E06FEF80913E0190913F010E94380C65
:106220000E94610883EB90E00E94120A23E044E0A0
:106230006FEF80914501909146010E94380C88E9EA
:106240009AE30E94B40D80911E018B3008F0BFC00C
:1062500080911D0187FDABCF0E94C7078FEA90E0B8
:106260000E94120A80E693E00E94643E8251990BDC
:106270000E946D0A81E693E00E94643E8251990B70
:106280000E946D0A8DE593E00E94643E23E046E49F
:1062900064EF8251990B0E94380C0E94510883E0F0
:1062A0000E94BC098CE593E00E94643E8251990BE8
:1062B0000E946D0A8FE593E00E94643E8251990B23
:1062C0000E946D0A8BE593E00E94643E23E046E461
:1062D00064EF8251990B0E94380C0E9459088DE19D
:1062E00090E00E94120A82E693E00E946C3E0E94B7
:1062F000580A0E94610886E190E00E94120A84E632
:1063000093E00E94643E082E000C990B0E94580AEC
:1063100060E08EE00E949007C0E0FC2EFF0CFC0EB7
:10632000D0E0FA94CD1709F446C00F2D0D0F10E000
:10633000000F111FC801835B9C4F0E946C3E6C01D3
:10634000C801815C9C4F0E946C3E8C018091B10120
:10635000873008F444C088E99AE30E94B40D809124
:106360001E018B30A0F580911D018E3F0CF41FCFD4
:106370008E3F09F471CF8F3F59F20E94C70787EA19
:1063800090E00E94120A8C2F0E94B6098AE30E94B4
:1063900065098D2F0E94B60980E00E94CB0923E099
:1063A00040E26EEFC6010E94380C23E046E462EF43
:1063B000C8010E94380CDF5FD33009F0B3CFCF5F44
:1063C000C33009F0AACF88E99AE30E94B40DDF91A7
:1063D000CF911F910F91FF90DF90CF90089580E0B3
:1063E0000E94CB09CCCF08954F925F926F927F921B
:1063F0008F929F92AF92BF92CF92DF92EF92FF92D5
:10640000AC016C01F12CE12C560199248824E52F74
:10641000FF279A01DA010E94EC3C2C0166247724C4
:10642000920165E0369527956A95E1F7E29FC001F4
:10643000E39F900DF29F900D11249A0174E0369520
:1064400027957A95E1F7E20FF31FE40FF51F92010C
:106450003695279536952795B4E056944794BA9586
:10646000E1F72419350950E040E02E0F3F1F411D90
:10647000511DBC01E3E076956795EA95E1F7861B2F
:10648000970B280F391F411D511DC701B6010E94EE
:10649000663C680D791D8A1D9B1DFF90EF90DF9073
:1064A000CF90BF90AF909F908F907F906F905F90B4
:1064B0004F900895A1E0B2E0E0E6F2E30C94D13D04
:1064C000782E162F642E0E94F31CE72DF0E0ED5A73
:1064D000FD4FF490BF2CBB0CE12FF0E0EA5AFD4FCA
:1064E000E491E860E7B915B8F4B8872D806480932B
:1064F0007C000E94B30C262D2170CF5FDD4F2883D6
:10650000C150D240AF2C60FEAB2CF0E2DF2E90E009
:1065100080E0CF2CEA2C0B2D2A2D47EEBE016F5FB9
:106520007F4F0E943400DA9480E490E0D110F1CFE4
:1065300014B8C12CD12C7601212C312C210106E478
:10654000812CE0E89E2E063B09F401ECA02EB12C34
:10655000F501EE0FFF1F81E090E08C0F9D1FE80F0B
:10656000F91F80819181CF5FDD4F2881C150D240DA
:10657000222321F09401281B390BC90135DF280E95
:10658000391E411C511C9501DC010E94EC3CC60ED9
:10659000D71EE81EF91E0F5F073EA9F6C201B10122
:1065A00026E930E040E050E00E94A83CADE4B6E5CA
:1065B0000E94013DC61AD70AE80AF90AA701960106
:1065C00066E056954795379527956A95D1F76CEA19
:1065D00077E485E896E80E94A83C69017A0161FCAD
:1065E00017C0872D880F870D1150810F90E0880FFD
:1065F000991FCF5FDD4F3881C150D240332379F0EE
:10660000815C9C4F0E946C3EC81AD90AE108F108CF
:10661000C701B601CF5FDD4FE2E10C94ED3D835B36
:106620009C4FF0CF4F925F926F927F928F929F928A
:10663000AF92BF92FF920F931F93CF93DF93C0E06F
:10664000FC2EFF0CFC0ED0E0FA94CD1709F43EC0EE
:1066500042E06D2F8C2F2EDF2B0143E06D2F8C2F0E
:1066600029DF4B010E94C70787EA90E00E94120AC7
:106670000E94B9098C2F0E94B6098AE30E9465091D
:106680008D2F0E94B6090E94B9090E94510824E08A
:1066900040E26EEFC2010E94380C24E046E462EF53
:1066A000C4010E94380C0F2D0D0F10E0000F111FB8
:1066B000B201C801835B9C4F0E947F3EB401C801B8
:1066C000815C9C4F0E947F3E0E94C509DF5FD330F2
:1066D00009F0BBCFCF5FC33009F0B2CF0E94C00733
:1066E0008AEC91E00E94120A0E94C50988E20E9489
:1066F000C00CDF91CF911F910F91FF90BF90AF9091
:106700009F908F907F906F905F904F900895A2E13F
:10671000B0E0EDE8F3E30C94D13D2C017C836B8376
:10672000DD24D3942D2C312C33E0D39E9001112401
:106730003E872D87F101EE0FFF1FEE0FFF1FFC8735
:10674000EB87812C30E4932E50E0712C612C18865D
:106750001F82B12CA12C1A8219821E821D8240E058
:10676000C12CF0E0E0E030E020E061E070E08FEF8D
:1067700090E082199309988B8F870C2D10E08F85FC
:1067800098890817190774F1AB81BC81AB2B29F1EB
:1067900070E060E04230E8F09501ED81FE812E1B53
:1067A0003F0BA8EEB3E00E94EC3CE981FA81AE1AFF
:1067B000BF0A950150E040E00E94A83C88EE93E0BB
:1067C000821B930B0E949C0EBC0188EB9AE70E94EF
:1067D000813CAB81BC816D937C93C4016296E2E104
:1067E0000C94ED3DD801A20DB31DAA0FBB1FA40D43
:1067F000B51D8D919C91E80FF91FD801AA0FBB1F01
:10680000A40DB51D8D919C91280F391FCD1408F44E
:106810008AC0D801A219B309AA0FBB1FA40DB51DC8
:106820000D90BC91A02D2A1B3B0BE81BF90B7901A5
:10683000EE0EFF1EC9018E1B9F0B89879A87D70119
:10684000B695A795B695A795A80FB91FB7FD76C0C1
:10685000E217F30708F069C0513009F066C0D801AB
:1068600056E0AA0FBB1F5A95E1F7BA8BA98BDC0142
:10687000A61BB70BBD01A817B90770F0A6E0880FDB
:10688000991FAA95E1F780960E94813C89899A898F
:10689000861B970B9A8B898BAD85BE85EA16FB0606
:1068A00008F472CF8B859C8508171907BCF1442327
:1068B000B1F069897A8966197709433050F0D401BB
:1068C0009096C401969587958A0F9B1F8617970708
:1068D000D0F1D71650F4DD24D394D70E23CFA98955
:1068E000BA89B887AF83FE82ED82AE0CBF1C4F5FC2
:1068F0004130F9F0842F8150990BBC019595879513
:10690000A989BA898A0F9B1FAF81B8858A1B9B0B07
:10691000F8D74B0169887A88FA82E982453108F014
:1069200033CF50E002C069877A87C39469857A853E
:1069300024CF69887A88FA82E982F3CF51E0E2179E
:10694000F30798F78CCFEB81FC81EF2B09F024CF74
:1069500044CFA6E2B2E0EFEAF4E30C94D53DF82E82
:10696000B62E80E793E00E946C3E4C01EB2DF0E0E8
:10697000ED5AFD4F1491EF2DF0E0EA5AFD4FE491EE
:106980001092BE011092BF011092C0011092C1017D
:106990001092C5011092C4011092C6011092C70155
:1069A0001092C8011092C90180912501813009F02F
:1069B000CFC08091020118160CF4CAC088E088B9D3
:1069C000E860E7B90E94B30C2B2D206CB22E209307
:1069D0007C000E94B30CC12EE12C00E0212F4FEF70
:1069E000BE016F5F7F4F80E191E00E9434003F2D38
:1069F000306CF32E30937C00212F44E1BE016150B6
:106A00007E4F80E191E00E943400FE013196BE018C
:106A100061507E4F6B01AE01475D5F4F8191919157
:106A2000D6016D917D916D019F012250310986172C
:106A3000970708F492C0861B970BD9018D939C93FE
:106A4000E417F50759F7B0927C0070E060E0CE01E2
:106A500001965DDE9F5FE0E1AE2EBB24B394712C06
:106A6000612C913178F0F0E1AF2EF4E0BF2EA2E07E
:106A70006A2E712C903430F060E1A62EBA2C74E0AE
:106A8000672E712C58E0D52EA895C12EE12C00E080
:106A9000212F4FEFBE016F5F7F4FC5010E94340071
:106AA0006114710409F45FC064EC71E0CE010196D9
:106AB0002EDE5C01813C9F4308F0AFC06501F12CE4
:106AC000E12C9501D50188D723E330E040E050E088
:106AD0003FD7A8E6B2E095D796948794940150E00A
:106AE00040E036D7C301880F991F04C0220F331F1F
:106AF000441F551F8A95D2F72093C6013093C701D2
:106B00004093C8015093C90180910B0190910C01F1
:106B1000A0910D01B0910E010397A105B10540F0C0
:106B20001092C6011092C7011092C8011092C901BB
:106B3000A114B10409F074C01092C5011092C401EF
:106B40001092C6011092C7011092C8011092C9019B
:106B5000CA5DDD4FEEE00C94F13DD9011D921C920F
:106B60006FCF5C0191CFC5018064DA94D110F9CF69
:106B700081159440C8F08EEF8F3F09F495CFE82F30
:106B8000F0E0EE0FFF1F21E030E02C0F3D1FE20F81
:106B9000F31F2081318193E0369527959A95E1F78F
:106BA000318320838150E8CFF0927C00E894A6F8EE
:106BB00048E0F42EC12EE12C00E0212F44E1BE017B
:106BC00061507E4FC5010E9434006894A6F8FA9483
:106BD000F110F0CF24E1215070F2822F90E0880F65
:106BE000991FE1E0F0E0EC0FFD1FE80FF91F408175
:106BF00051816FEF71E06C0F7D1F860F971FDC01D5
:106C00008D919C914817590728F0481B590B5183C7
:106C10004083E1CF11821082DECFB12CA12C4ECF68
:106C200027E030E02619370960E074E284EF90E055
:106C300004C0660F771F881F991F2A95D2F7A701F6
:106C40009601220F331F441F551F82D62093BE0189
:106C50003093BF014093C0015093C1018091020164
:106C600087FD76CF8FEF8093020172CFCF93DF93B2
:106C7000D82F0E94C00786E090E00E94120A0E946E
:106C8000C509C0E01092C3011092C20184E10E94C4
:106C9000C00C62E080E00E94C21D0E94510824E006
:106CA00046E464EF8091C2019091C3010E94380CC8
:106CB0006091C2017091C301CB018C539F40853913
:106CC0009547A8F4CF5FC53098F080E793E00E9425
:106CD0007F3E0E94B9098AEC91E00E94120A84E684
:106CE0000E94C00C0E94C007DF91CF910895C0E0C0
:106CF0000E94C509DF5F31F6F5CFB0E0A0E0E2E821
:106D0000F6E34FC780E48AB98BB987E880937A00AD
:106D10001092C1000E949F0CC4B7C87084B7877FCF
:106D200084BF0FB6F894A895809160008861809325
:106D30006000109260000FBE86E88093640088E3D4
:106D400080937E001092B00087E08093B100789429
:106D50000E94EC07C111A9C580E185BF84E0809342
:106D60001C014F9906C082E00E94C00CCF5FCC335B
:106D7000C1F78FE59DE69093170180931601CF31FF
:106D800030F080E69DE690931701809316011092F3
:106D900039010E940F2188E19FE00FB6F894A89571
:106DA000809360000FBE90936000CC3309F461C003
:106DB00038E0632E40E1542E58E1452E68E6C62E99
:106DC00061E0D62E71E2272EE2E13E2E0E94C70737
:106DD00067B80E94E70E0E940F210E94C0070E9420
:106DE000551380914701882381F00E94510885E660
:106DF00091E00E94120A63E080913C0190913D0174
:106E00000E94430C88EC0E94C00C0E9451080E9412
:106E1000F31C80912501893089F50E94C7078AE615
:106E200091E00E94120A0E94510863E080910501DE
:106E3000909106010E94430C0E94B90963E0809181
:106E40000701909108010E94430C0E94B90963E078
:106E50008091090190910A010E94430C8AEC0E94E2
:106E6000C00C81E10E94640FC0911601D0911701FE
:106E7000A1C10E94112F8111FCCF9ACF8EE593E022
:106E800023D7C82F8BE593E01FD7C81BC0934401BD
:106E900080E00E94640F0E94F20983ED92E00E945C
:106EA000120A83E00E94870C0E94BB0742E061E067
:106EB00080E00E94C01342E060E081E00E94C013C5
:106EC00041E062E080E00E94C01341E060E082E0C7
:106ED0000E94C01340E062E081E00E94C01340E0E5
:106EE00061E082E00E94C0138091250181110EC0F3
:106EF0000E94F31C60E082E00E94C21D61E082E01B
:106F00000E94C21D60E081E00E94C21D0E94C7076E
:106F10002CE431E030934A0120934901809125010E
:106F2000863009F585EC0E94250960E188EF0E9412
:106F3000680C66E080E00E9490078AEA92E00E9476
:106F4000120A66E082E00E9490078EE791E00E94BC
:106F5000120A62E080915001909151010E94430C0D
:106F60000E94BB0781CF873071F484EC0E94250911
:106F700060E188EF0E94680C66E080E00E94900764
:106F800083EB92E0DCCF8830C1F480919301909143
:106F90009401890F9927991F029759F40E9472232F
:106FA00080914401882309F46BC4D8E010E000E02C
:106FB00054C480E00E94A82257CF833009F00CC14E
:106FC00080912301813009F069C080E00E942A0B82
:106FD0006091990180919F010E940D1380E70E94AA
:106FE000020B40E06091990180919F0163DA609308
:106FF000830170938401809385019093860180E0E2
:107000000E94E6096091830170918401809185015D
:107010009091860102E026E442EF0E94560B8DE239
:107020000E94650941E06091990180919F0142DAD7
:10703000609383017093840180938501909386010E
:1070400026E442EF0E94560B82E491E00E94120A6D
:107050000E94BB070E94BB0780917E01882309F430
:1070600003CF47B867B880E00E94E60930917E01FF
:10707000332309F4B3C380916501313009F04AC369
:107080000E94C40A20916501213009F03EC320917D
:10709000230121113AC30E94302382CF823079F537
:1070A00082E30E94650982E391E00E94120A9091B6
:1070B000990130919A01931308C080E00E94460B19
:1070C00081E00E943D0B81E08ACF20919F01809159
:1070D000A001281307C080E00E94360B81E00E94C7
:1070E0004D0BF1CF321306C081E0809311010E9455
:1070F000180BB0CF98133DC050921101F8CF8330D8
:10710000C1F533E33093110180919F0190919A0171
:10711000891303C021E0209311014091990130911E
:10712000A001431302C05092110120919B018213D0
:1071300003C082E0809311018091A101481303C034
:1071400040E24093110132130CC0309211019817A4
:1071500051F083E30E94650982E391E00E94120AE4
:10716000C6CF981302C02092110180911101823282
:1071700080F389EB92E00E94120A81EA92E00E9479
:10718000120A0E94510880912301805D0E946509C6
:107190008AE20E9465098CE491E00E94120A87E865
:1071A00092E00E94120A0E94BB0786E00E94250915
:1071B000C0E4DFE147B84F9BFECFCE010E94B40D83
:1071C000823328F490911E01933008F414C30E9476
:1071D000112F8111FCCFFACD843009F059C1809173
:1071E0007701882309F45FC080915B01882309F44B
:1071F0005AC06091580180915A010E94C21D80902E
:10720000830190908401A0908501B0908601C09187
:10721000950160917601809174010E94C21D809158
:107220004C0190914D01A0914E01B0914F014091C0
:1072300068015091690160916A0170916B01843F0E
:1072400021E09207A105B10538F4443F31E053072E
:107250006105710508F0C0EF443F514061057105BB
:1072600040F4843F9140A105B10518F080EF809370
:107270009501809195018C1311C0809183019091AB
:107280008401A0918501B091860188169906AA060D
:10729000BB0630F02CE02093240105C0C817D4F7BA
:1072A0009DE09093240180917701882361F0809183
:1072B0005B01882341F04F9906C08091240191E041
:1072C00089278093240166E080E00E94900780EC8B
:1072D0000E942509809124018C3009F0C2C08AE9FE
:1072E00091E00E94120A80917701882319F080E7CB
:1072F0000E9465090E94C20EC82F853090F4A091AB
:107300004901B0914A01E82FF0E0E756FE4F1D9683
:107310009C91808160E0981362E084EA91E00E9491
:107320004C0960E189EF0E94680C86E00E94CB095D
:1073300089EA91E00E94120AE0914901F0914A0124
:10734000608171818281938103E020E04EEF0E9491
:10735000560B87E00E94CB0989E40E946509E09101
:107360004901F0914A01868197818031974208F462
:107370008BC085E60E946509E0914901F0914A01C0
:107380008681978180519742978386830E94F60970
:10739000E0914901F0914A0122E041E46AEF8681DF
:1073A00097810E94380C86E00E94CB0982E891E028
:1073B0000E94120AE0914901F0914A0163E0848140
:1073C00095810E94430C81E080934B01E09149013B
:1073D000F0914A0180859185892B91F085E00E948A
:1073E000E60984E191E00E94120AE0914901F091DE
:1073F0004A0122E041E46AEF808591850E94380CC1
:10740000E0914901F0914A0182859385892B91F0A1
:1074100085E00E94E6098EE091E00E94120AE09168
:107420004901F0914A0122E041E46AEF82859385A7
:107430000E94380CC53078F480E00E94E6098C2F59
:107440000E942A0B8EE791E00E94120A8C2F0E9464
:10745000F40A0E94BB0743E462E485E40E94970AB1
:107460007FCDD0924A01C092490189ED91E00E94FE
:10747000620982E991E00E94120A80915B018823EF
:1074800009F438CF8EE634CF83E60E9465097ECFBB
:10749000853009F0EBCD66E080E00E949007809196
:1074A0002401D82FD07184FF65C080E50E94650952
:1074B000D0924A01C0924901D2E08DE20E94650952
:1074C00080912401C82FCF70C43009F057C084EBDD
:1074D00091E00E94120A83EC0E94250982EE91E05D
:1074E000D11168C00E94C20E853090F4A09149016C
:1074F000B0914A01E82FF0E0E756FE4F1D969C91AF
:10750000808160E0981362E084EA91E00E944C0977
:1075100060E189EF0E94680C86E00E94CB0986E05A
:107520000E94CB098091240185FD60C08AE791E02B
:107530000E94120AE0914901F0914A0162E08285BD
:1075400093850E94430CE0914901F0914A016685C0
:1075500084850E94C21D86E00E94CB090E942C0AED
:1075600085E00E94440AC43009F0CDC04FE367E4CF
:107570008FE374CF8EE40E9465099FCF85FF1DC005
:1075800084E40E946509DF5FC330D9F48EEA91E09C
:107590000E94120A81EC0E9425098FE292E0D1300C
:1075A00049F08BE392E0D23029F08BE092E0D330C7
:1075B00009F098CF0E94620995CF85E40E94650981
:1075C000E3CF89EB91E00E94120A82EC0E94250928
:1075D0008BEF91E0D13071F381E092E0D23051F342
:1075E000D33009F07FCF89EE91E0E4CFE0914901FB
:1075F000F0914A018F70843009F44EC0668584850D
:107600000E94C21D0E942C0A60E086E00E94900742
:1076100089E40E9465090E94F609E0914901F09110
:107620004A0122E041E46AEF868197810E94380C8A
:1076300084E791E00E94120AE0914901F0914A0129
:1076400062E0828593850E94430CE0914901F091AC
:107650004A0180859185803C9241E0F480E00E945F
:10766000E60989E40E9465090E94F60922E041E4E6
:107670006BEF90E080E00E94380C84E791E00E947C
:10768000120AE0914901F0914A0162E080859185FA
:107690000E94430C80E065CF84819581892B09F499
:1076A000B3CF80E090E00E94120AE0914901F0918E
:1076B0004A0122E041E46AEF848195810E94380CFE
:1076C000A3CFD11103C080E00E94CB0980E00E94CB
:1076D000E6098D2F0E942A0B8EE791E00E94120A84
:1076E0008D2F0E94F40A0E94BB07DF5F8091230167
:1076F000D81738F344E467E483E5C33009F0AECE2D
:1077000043E467E4AACED0E0F1CF40E0692F0E94C5
:10771000E021AACB9091660124E0929FD001112430
:10772000AE54BE4F24E0829FF0011124EE54FE4F70
:10773000ED90FD900D911C9140815181628173818A
:10774000282F4E155F056007710708F4292F980F41
:10775000C3E0C91B3230E1F0C091670134E0C39F40
:10776000D0011124AE54BE4F84E0289FF0011124B3
:10777000EE54FE4F4D915D916D917C918081918190
:10778000A281B38184179507A607B70708F0C22F17
:107790001C2F1695D2E0DC1B02E0C11101C001E0F4
:1077A000812F0E94B6098DE291E00E94120A8D2F6E
:1077B0000E94B6098DE291E00E94120A802F0E9479
:1077C000B60980E00E94CB0981E0C11180E00E94EF
:1077D000CE0A82E0811B0E94CE0A46CB81E992E06C
:1077E0000E94120A0E9451088EEB92E00E94120A37
:1077F00089EB92E0D6CC8111E9CA9111DECCD0CBD5
:10780000FC01EA0DFB1DC491C03209F4782E0196EB
:1078100081319105A9F7DD2349F19D2F9770F92E4C
:1078200011F40E94C70760E08F2D880F0E94900717
:107830000E94BB07A895DF5FD770F12CE12CE714FD
:1078400010F1CC23C9F0070D111DF801E75AFD4FC7
:10785000E491E03211F40F5F1F4F90E080E020E1EF
:10786000722E9801275A3D4F5901CACF80E197E205
:107870000E94B40D882389F280E197E20E94B40D42
:107880000E940A0FA3CAF501EE0DFF1DC491CC237F
:1078900099F3CF3F31F40E94B9092FEFE21AF20AAF
:1078A000CECF8C2F0E946509F8CF0E94C0078EE7CB
:1078B00092E00E94120A8BEC0E94C00C0E940A0FF8
:1078C00090E080E0CDB7DEB7E2E187C1DB018F93C6
:1078D0009F9397D0BF91AF91A29F800D911DA39FC1
:1078E000900DB29F900D11240895991B79E004C06A
:1078F000991F961708F0961B881F7A95C9F78095EF
:107900000895AA1BBB1B51E107C0AA1FBB1FA617E6
:10791000B70710F0A61BB70B881F991F5A95A9F738
:1079200080959095BC01CD01089597FB072E16F424
:10793000009406D077FD08D0E4DF07FC05D03EF4C4
:10794000909581959F4F0895709561957F4F08950B
:10795000A1E21A2EAA1BBB1BFD010DC0AA1FBB1F53
:10796000EE1FFF1FA217B307E407F50720F0A21BC5
:10797000B30BE40BF50B661F771F881F991F1A9432
:1079800069F760957095809590959B01AC01BD015C
:10799000CF010895052E97FB16F400940FD057FDE4
:1079A00005D0D6DF07FC02D046F408C050954095BC
:1079B000309521953F4F4F4F5F4F0895909580959B
:1079C000709561957F4F8F4F9F4F0895EE0FFF1F6A
:1079D0000590F491E02D0994A29FB001B39FC001DE
:1079E000A39F700D811D1124911DB29F700D811DEB
:1079F0001124911D0895F0DFB7FF0895821B930BAA
:107A00000895EADFA59F900DB49F900DA49F800D6F
:107A1000911D11240895B7FFF4CFF3DF821B930B60
:107A20000895E894DF93CF93FC01DB01D5DF7F93CA
:107A30006F93E9019A01AC01BF93AF933F932F93EA
:107A4000DF01CADF26F46C1B7D0B820B930B9E01BA
:107A5000EB01FC01DDD0AF91BF912F913F91D8D0C8
:107A6000BE01CF01F9012F913F91CF91DF91089590
:107A7000689401C0E894F92FF12B0AF027C0A0E028
:107A8000B0E0E4E4FDE393C0092E05941AF479D044
:107A9000112392F4F0E80F26FFEFE094F0940095A4
:107AA0001095B094C094D094A194BF0ACF0ADF0A75
:107AB000EF0AFF0A0F0B1F0B13D007FC62D0CDB7E4
:107AC000DEB7ECE090C0689401C0E8948F929F927A
:107AD000CF93DF9305D0DF91CF919F908F90089542
:107AE00088249924F401E401B0E49F93AA279A150D
:107AF0008B049C04ED05FE05CF05D007A10798F483
:107B0000AD2FDC2FCF2FFE2FE92D982C892E982F0B
:107B1000872F762F652F542F432F322F2227B850CF
:107B200031F7BF9127C01B2EBF91BB27220F331FF8
:107B3000441F551F661F771F881F991F881C991C9B
:107B4000EE1FFF1FCC1FDD1FAA1FBB1F8A149B0443
:107B5000EC05FD05CE05DF05A007B10748F08A1842
:107B60009B08EC09FD09CE09DF09A00BB10B2160D0
:107B70001A94E1F62EF49401AF01BE01CD01000C80
:107B800008956095709580959095309540955095A5
:107B900021953F4F4F4F5F4F6F4F7F4F8F4F9F4FFD
:107BA00008952F923F924F925F926F927F928F92A1
:107BB0009F92AF92BF92CF92DF92EF92FF920F937C
:107BC0001F93CF93DF93CDB7DEB7CA1BDB0B0FB686
:107BD000F894DEBF0FBECDBF09942A883988488843
:107BE0005F846E847D848C849B84AA84B984C884D9
:107BF000DF80EE80FD800C811B81AA81B981CE0FD0
:107C0000D11D0FB6F894DEBF0FBECDBFED010895B4
:107C1000E3DE460F571FC81FD91F08F43196089599
:107C2000BB27FA01A62F6217710581059105330B59
:107C300030FB66F0AA27660F771F881F991FAA1FBF
:107C4000A21710F0A21B63953850A9F7A05DAA33C4
:107C500008F0A95DA19336F7B111B1931082CA0162
:107C600023C04532510518F4423008F004C0FB012E
:107C70001082CB010895BB27FB015527AA27880F47
:107C8000991FAA1FA41710F0A41B83955051B9F790
:107C9000A05DAA3308F0A95DA193009779F7B1110F
:107CA000B1931192CB0100C0DC01FC01672F7191EF
:107CB0007723E1F7329704C07C916D9370836291D2
:107CC000AE17BF07C8F30895F999FECF92BD81BDE5
:107CD000F89A992780B50895A8E1B0E042E050E015
:107CE00013C0262FF999FECF1FBA92BD81BD20BDCA
:107CF0000FB6F894FA9AF99A0FBE01960895F1DF3B
:107D0000272FF0CFDC01CB01FC01F999FECF06C093
:107D1000F2BDE1BDF89A319600B40D924150504049
:087D2000B8F70895F894FFCFB5
:00000001FF
