:100000004AC700005AC7000058C7000056C7000082
:1000100054C700000C94282950C700000C94D50D3B
:100020004CC700004AC700000C94841F0C940C2994
:100030000C941A290C945E1F40C700003EC70000B4
:100040000C94E6283AC7000038C7000036C7000005
:1000500034C700000C94D60D30C700002EC7000036
:100060002CC700002AC70000E62FF72F903009F4B4
:100070009395E5B8C4B8B6EFB0937A00A5E0A09325
:100080007B00A8E0A093810010928000AFEFA093C6
:100090008500A0938400A6E0A093360010928B0008
:1000A00010928A00B3E0AFE3A91B51E0392F33303F
:1000B0002AF0A05CBC4F53953350F9CFB093890020
:1000C000A0938800A0917A00A4FFFCCFB6EBB09378
:1000D0007A00A2E0A0936F00A9E0A093810062E003
:1000E000A0E0A0937B00A1E0A09353008895E5B821
:1000F000C4B884FF1AC0A8E10000AA95F1F7EF93F5
:10010000FF93E7B1F8B1A4E0C2FCA2E0C0FCA1E01B
:10011000BF2FBA2BAE2BB8B904B9A7B9E7B9F8B954
:10012000FF91EF910BC00C947300ACE10000000054
:10013000AA95F1F725B9E5B8000004B9A0918400AB
:10014000A0918500B0918900A395AB1760F7A091AD
:100150007A00A4FFF3CFB6EBB0937A006A9571F7FB
:100160006091780070917900308186FD630F619312
:10017000308186FD731F80FF7193652F4A9579F753
:1001800010926F0010928100B6E0B0937A0008954B
:10019000E601DF01D801FEFDFBF7EFDFBF7F0102C3
:1001A0000408102040801008407E01013E01013EFD
:1001B00001013E01017E404018000720080808F8B0
:1001C0000000002060A03FA06020020202FF0202A7
:1001D000021010101F000000050842818989760571
:1001E00008C2A19189860508000402FF00101005CD
:1001F00008F878385888091003081C3E7F0D080756
:1002000010FF818181F1E1C1FF4040404743410D32
:10021000080110FFFF11080310F1E1C14743410E2F
:100220000008202121122060E0E0E0FEFE0402012F
:100230000001037F7F21C2C4C4C04094840007032F
:100240000102040E080210FEFE7F7F000000001174
:100250000005202060E0E0E00201000103C2C4C408
:10026000C04007030102040104100102044E6F7430
:100270002063616C696272617465642120466F72EB
:10028000FF63616C6962726174696F6E20636C6197
:100290006D70207468652033FF70696E7320746F11
:1002A00067657468657220616E642073746172742E
:1002B000207769746820746865FF6B65792E20412A
:1002C000636B6E6F776C6564676520746865207317
:1002D000656C662D74657374207769746820746822
:1002E00065206B65792077697468696EFF32732EBB
:1002F00020446973636F6E6E6563742070696E73FA
:1003000020616674657220746865FF6D6573736142
:100310006765202269736F6C617465FF50726F624C
:100320006521222069732073686F776E2E20536FCA
:1003300066747761726520616E6420646F63756DA9
:10034000656E746174696F6E2069732061742073C7
:10035000766E3A2F2F206D696B726F636F6E7472B9
:100360006F6C6C65722E206E65742F7472616E7383
:100370006973746F72207465737465722000B903B9
:10038000870358032E030703E402C302A402880272
:100390000000140029003E0053006900800097000F
:1003A000AE00C600DF00F80012012D014901650111
:1003B0008201A001BE01DE01FF01210244026802A8
:1003C0008E02B502DE020903350364039403C803F9
:1003D000FE0337047304B404F90443059305EA05E6
:1003E0004906B3062907AE074808FF08DE09FD0ADB
:1003F000930C480F991B0000000000000000000053
:100400000000000000001E2121211200807F00005A
:10041000007E4A4A4A34000000000000FC402010E0
:1004200008040201000000010101010101010101B4
:10043000010101017F0488D0E0F0F8000000000015
:1004400000000000000000000000000000FC949488
:100450008400000102FC0000000000000000000019
:1004600000001E21212112E0C0804020100F00005A
:1004700000C020202040000000FC00009E9E0403DD
:10048000030303020000002020232425252320202D
:10049000203F00007B7B2142840480C000000000DC
:1004A00000000000000000000000FC9494840004A0
:1004B0000607070708F00000000000000000000029
:1004C000000000803F2121120C00000000FF00000E
:1004D00000F0084848C80000FE0000E7818181C1A3
:1004E000E1F1818181010020202021212120202093
:1004F0003F0000F340404041434740407FC0000080
:1005000000000000000000000000000048949494E7
:100510006400000000FF0000000000000000000078
:100520000000000000003F2121120C0000FF00002D
:1005300000F0084848D0000000000000FEFE04045F
:100540000404040404070008080809090908087FCE
:100550003E1C08087F7F20202020202020E0000073
:1005600000000000000000000000000000004894AF
:100570009494640000FF00000000000000000000F0
:1005800000FF003C0A090A3C00223129292600000C
:1005900082868E9EBEFEFEBEDEEFF6FAFEFEFAF20A
:1005A000E2C28200000008080804027984A4A4685A
:1005B00000FF00000000000000000000000000003C
:1005C000000000000000000000FF0000F0282428C8
:1005D000F0001008FC000000000000000000000017
:1005E000003C0A090A3C00FF000000000000000077
:1005F00000000000000000000000040C1C3C7CFF18
:100600007C3C1C0C040000000000009EA1A9A99ADB
:10061000804323130B0703FF0303030303030000BB
:10062000000000000000000000788484844800FF7F
:10063000000000000000000000F00804E2110909B9
:10064000090909090909091121C2040810E000007B
:100650000001020404070000000000804020108810
:100660004423100804030000000000000000000004
:1006700000FE0100FC02010000000000000000007C
:1006800000000000000000000079494979000000E6
:1006900000000000000040F010101010F0400001B9
:1006A00001010101010040FCF8F0E040FC400007BE
:1006B00003010000070040FC40E0F0F8FC400007A8
:1006C00000000103070040FCFC0000FCFC400007A8
:1006D00007000007070078848202828478000604FD
:1006E00007000704060000FC000000F01000100FD7
:1006F000020402070400080808080808F84002027B
:1007000002020202030040F8080808080808000373
:1007100002020202020240404040404040400000CD
:10072000000000000000C000008000008000010206
:1007300002010202010200800000800000C00201EC
:1007400002020102020100F8040222548800101F74
:100750001002020100000000000000000000000084
:100760000000000000000000000000000000000089
:100770000000000000000000000000000000000079
:100780000000000000000000000000000000000069
:100790000000000000000000F80402FE02000C0649
:1007A000050404070C0002FE020002FE020004071A
:1007B000040404170C0002FE02F002FE020004070B
:1007C000040704170C000000E01008F808000C06ED
:1007D000050404070C00804028F82840800001022E
:1007E000141F1402010008F8080008F808000407A4
:1007F000040404170C0008F808C008F808000407EF
:10080000040704170C00001018FCFC18100000016D
:10081000010101010100001018FC18100000000087
:10082000000100000000000000FC000000000001CA
:100830000101010100004040404050E04000000044
:100840000000010000002070A820202020000000EF
:10085000000000000000E0000000000000000101B6
:100860000101010101002070A82020A870200000D3
:1008700000000000000000C0F0FCF0C0000000001C
:100880000000000000000C3CFCFCFC3C0C000000E4
:100890000000000000000000000000000000000058
:1008A000000000000000000000FE0000000000004A
:1008B000000D0000000000160E0000160E000000E3
:1008C0000000000000000010FC1010FC10000001EF
:1008D000070101070100001824FE448800000003FE
:1008E000040F040300000C12924C201008000201B7
:1008F0000006090906008C5222528C40C0000102F9
:10090000040404010200000000160E0000000000B4
:100910000000000000000000F008040200000000D9
:100920000102040800000000020408F000000000BA
:100930000804020100004850E0FCE05048000201B9
:10094000000700010200404040F840404000000025
:100950000003000000000000000000000000000094
:1009600000160E00000040404040404040000000A3
:100970000000000000000000000000000000000077
:100980000006060000000000804020100800020160
:10099000000000000000F80402020204F800010256
:1009A000040404020100000804FE02000000000428
:1009B000040704040000080402824224180004060C
:1009C00005040404060006020202122AC6000102FF
:1009D000040404020100C0A09E8080FC800000008E
:1009E0000000040704003E120A0A0A12E60001028F
:1009F000040404020100F84422121224C00001027F
:100A00000404040201000E02C262321A0E00000049
:100A100007000000000088542222225488000102AE
:100A2000040404020100384482824224F8000002D7
:100A30000404040201000000001818000000000077
:100A4000000606000000000000181800000000006A
:100A500000160E0000000040A01008040200000074
:100A600000010204080000202020202020000001B6
:100A70000101010101000002040810A0400000086B
:100A80000402010000001804028242241800000041
:100A9000000D00000000F804D252E204F800010248
:100AA00005050405040200F0080402FE0200040724
:100AB00005010507040002FE2222225488000407D3
:100AC000040404020100F804020202048E00010280
:100AD00004040402010002FE02020204F8000407FA
:100AE00004040402010002FE222272020E00040726
:100AF00004040404070002FE222272020E0004070E
:100B0000040400000000F80402C24244DE000102B6
:100B100004040201070002FE222022FE0200040754
:100B2000040004070400000202FE020200000004A8
:100B30000407040400000000000202FE020000039B
:100B400004040403000002FE62900804020004078B
:100B500004000106040002FE020000000000040779
:100B600004040404070002FE38E038FE0200040713
:100B700004000407040002FE1A6082FE020004075B
:100B8000040005070400F80402020204F800010250
:100B900004040402010002FE424242241800040739
:100BA000040000000000F80402028204F8000102C0
:100BB00004040405020402FE42C242241800040791
:100BC0000400010604008814222222448E0001023F
:100BD0000404040201000E0202FE02020E000004E0
:100BE00004070404000002FE020002FE02000003EB
:100BF00004040403000002FE820082FE02000000E2
:100C000003060300000002FE02F002FE02000001E3
:100C100007030701000002DE722072DE02000407F3
:100C2000040004070400027EC280C27E02000000AD
:100C30000407040000000E824222120A0600070484
:100C400004040404070000FE020202000000000782
:100C50000404040000000810204080000000000090
:100C60000000000102000000020202FE000000007D
:100C70000404040700001008040204081000000027
:100C80000000000000000000000000000000080854
:100C90000808080808000000000E16000000000008
:100CA000000000000000904828284890E000010261
:100CB00004040402070002FE10080810E000040704
:100CC000020404020100E0100808081038000102C4
:100CD000040404020100E010080810FE02000102F2
:100CE000040402070400E050484848506000010234
:100CF00004040402010020F82422020C000004076E
:100D0000040400000000E010080810F808000009C2
:100D100012120907000002FE100808F00000040784
:100D2000040004070400001016F600000000000490
:100D30000407040400000000101616F00000000C68
:100D40001010100F000002FEC02010081800040749
:100D500004010204040000000202FE000000000082
:100D600004040704040008F808F008F00000040771
:100D700000070007040008F8201008F0000004072E
:100D8000040004070400E01008080810E000010255
:100D900004040402010008F810080810E000101F05
:100DA000120404020100E010080810F80800010213
:100DB0000404121F100008F820100808300004076F
:100DC0000400000000001028484848903800010244
:100DD0000404040201000808FE08080000000000E6
:100DE00003040404020008F8080008F808000003DF
:100DF00004040207040008F8880088F808000000CE
:100E000003060300000008F808C008F80800000303
:100E100006030603000008B8E040E0B80800040735
:100E200000000007040008F8080008F8080000099E
:100E30001212110F0000180888482818080006052B
:100E400004040404060040B01C020200000000017B
:100E5000070808000000000000FE0000000000007D
:100E6000001F00000000000002021CB04000000053
:100E70000808070100000C02020408080402000030
:100E8000000000000000C02010081020C000010178
:100E900001010101010011241FBECFEFD8E0DEBF28
:100EA000CDBF25E0A0E0B1E001C01D92AE3BB2078E
:100EB000E1F70E94F1330C94E23BA2C85A9A529A8D
:100EC0005D98559A35D02FD05A9832D080FD5A9AD5
:100ED00080FF5A982DD05A982BD067FD5A9A28D067
:100EE0005A9866FD5A9A24D05A9865FD5A9A20D08D
:100EF0005A9864FD5A9A1CD05A9815D05A9863FD96
:100F00005A9A16D05A9862FD5A9A12D05A9861FD90
:100F10005A9A0ED05A9860FD5A9A0AD05A9803D01D
:100F2000B6D4B7C4089504D003D002D001C0089548
:100F30005D9A5D9A5D98089560933F0580930401E2
:100F400086958093A505660F660F660F60930F0167
:100F500008951092A50560E080E0EECF089581E04D
:100F60008093A50560E082E0E7CF089582E080935A
:100F7000A50560E084E0E0CF089583E08093A505B7
:100F800060E086E0D9CF089580913F05809301010C
:100F90008091A505809303010895809103016091DC
:100FA0000101880FC9CF0895CF93C82F692F81E021
:100FB00085DF6C2F81E082DFCF910895682F80E07C
:100FC0007DCF08954AE351E020E490E080E0FA010B
:100FD000E80FF91F1082019680319105C1F7215069
:100FE000405F5F4F2111F1CFB4CF08950895582F7E
:100FF00028E030E090E841E080E0652F642309F0CC
:10100000892B440F969521503109B9F70895A7E02F
:10101000B0E0EDE0F8E00C94213B4C01F62EA62E5A
:10102000B12C802F90E0B501680F791F61387105F0
:10103000ECF42E2C312CF101E40FF11DE134F1051B
:10104000ACF41FE3141BD12CC12C322F32703D8322
:1010500041E0241A3108E8E04E2E512C217001970E
:101060003C016A0C7B1CEC2DCE1420F02796E2E1AB
:101070000C943D3B3D81332371F1C1018C199D09D5
:10108000AC0197FF02C0495F5F4F73E055954795EC
:101090007A95E1F7B2010E94EB39FC01E256FE4F6E
:1010A00034911F821E82B401049F600D711D1124B2
:1010B0007A83698370E1179FC0011124AC01465CFB
:1010C0005E4F5C834B83EE81E01760F05FEFC51AE3
:1010D000D50A1150C8CF4E2F469546954695E770D4
:1010E000F0E0DCCF222399F1C3014E815F81841BA4
:1010F000950BAC0197FF02C0495F5F4F63E05595C8
:1011000047956A95E1F7B2010E94EB39E981FA81CE
:101110006E817F81E60FF71F5491E82FF0E0AFE07A
:10112000B0E0A41BB1098B819C81A80FB91F9C91D1
:10113000832F8523C9F4EA56FE4FE491E923EC930B
:101140004E815F814F5F5F4F5F834E83BCCF4E8187
:101150005F814A0D5B1D83E0559547958A95E1F7C0
:10116000EF0D8E2F8770D2CFE256FE4FE491E92B20
:10117000E6CFEF920F93482F8F7320E6829FC00136
:1011800011248A509C4F28E046FF28E42093100148
:101190001092000147FD08C02091100130E2309309
:1011A00000012D5E2093100120E2E22E08E120E0F4
:1011B00040910001609110012ADF0F91EF90089596
:1011C000EF920F93262FFC01349131964491319682
:1011D00004913196E490E09100014E0F609110016E
:1011E000630F049614DF0F91EF90089560E0E8CF4D
:1011F0000895EF920F9390913F059F5F90933F0565
:1012000040910401440F440F440F20E1829FC0012C
:10121000112420E1E22E08E020E060910F018A56BF
:10122000994FF5DE80910F01885F80930F01A8959B
:101230000F91EF9008958F5CDCCF089580E2D9CFB5
:101240000895CF93C82F1C1614F0CF910895F6DFA0
:10125000C150F9CF90913F0580E1891BF2CF0895ED
:10126000CF93C82FF7DF8091A5058F5F8093A505E9
:10127000843068F083E08093A50581E08093420587
:101280008091A5056C2F880F57DECF91089510929D
:101290004205F6CFE5DFEAC308955BDEDBDF59CE1A
:1012A00008955DDED7DF5BCE08958DE3A2CF08956C
:1012B000CF93DF93EC018991811103C0DF91CF912E
:1012C000089597DFF8CFCF93DF93EC01FE0184916F
:1012D000982F9F7719F08DDF2196F8CFDF91CF916E
:1012E0000895CF93DF93EC01CE010E94B43B982F79
:1012F0009F7719F07EDF2196F7CFDF91CF91089588
:10130000EF920F93FC0104913196E49002967FDEF8
:101310000F91EF9008950F9380E991E0E2DF409103
:1013200089054D3F6CF46091770570917805809147
:10133000790590917A0503E026E45DD10F91089537
:101340008FE357DFFBCF90911D019F70923071F4B6
:10135000A1DF84E790E0C5DFE0914005F091410511
:1013600022E044E06FEF8481958127C20895EF92D7
:10137000FF920F931F93CF938AE3E82E81E0F82E1C
:10138000C0E0C032F8F48C2F806818DE80E816DEEA
:1013900010E000E0F701E00FF11F608181E08EDDD9
:1013A0000F5F1F4F00311105A9F7CF5F80E1E80EF5
:1013B000F11CC03431F7A895CF911F910F91FF9088
:1013C000EF90089580EE8C0F8068F8DD88E8DFCF1D
:1013D0005A98529A5D98559A49D281E0EFDD4BD2E6
:1013E0008CE0ECDD86E0EADD84E2E8DDEBDD86E240
:1013F000E5DDBDDFAECD089597FF09C08F939F93C4
:101400008DE2F7DE9F918F91909581959F4F65E2D8
:1014100071E04AE050E00E94813B4ACF0895ECDF42
:1014200001C0EADF0BCF0895EF92FF920F931F9355
:10143000182F062FF42E82E791E053DFEE24E0917F
:101440004005F09141058685E81611F4812F09C009
:101450008485E81611F4802F04C08585E81611F400
:101460008F2DC7DEE3948E2D833049F71F910F91A6
:10147000FF90EF900895EF92FF920F931F93182F14
:10148000062FF42E80E006DF88E791E02ADFEE24C5
:101490008E2DD1DE0ADFE0914005F0914105868571
:1014A000E81611F4812F09C08485E81611F4802F05
:1014B00004C08585E81611F48F2D9BDEBFDEE39412
:1014C0008E2D833029F71F910F91FF90EF90089593
:1014D000682F80E092E0662309F491E0623009F41D
:1014E00081E008950F93282F84E0289FF0011124B4
:1014F000EA55FA4F6081718182819381643671056A
:101500008105910588F43091020137FD0DC0822FCD
:10151000DFDF682F892F0E94F02423E044E06EEF84
:101520004CD18CDE0F91089504E024E04FEF63D09E
:10153000F8CF863058F4E9E9F5E0E80FF11DE80F3F
:10154000F11D8081918163E043D178CE08951F938E
:10155000182F80917305882319F070DE80E049DE32
:10156000FEDC89E691E0BDDE812F82958F70E1DFA0
:10157000812F8F70DEDF1F91089580911101829578
:101580008F7019D08091110183701CD0809111014E
:10159000DECF0895EDE8F5E0E80FF11D0895CF9353
:1015A000F9DF9081C681C91710F405D001C013D0AE
:1015B00045DECF910895EEDF8F9380813CDE8F91E1
:1015C00001C008958F9387E391E08BDE8F91E2DF76
:1015D000868131CE0895DEDF8F9386812CDE8F9158
:1015E00001C008958F9383E391E07BDE8F91D2DF7A
:1015F000808121CE0895AEE0B0E0E1E0FBE00C9404
:10160000213B142F622E702E6B017C010F7080E342
:1016100089838A838B838C838D838E83F7FE40C07E
:101620008DE2E7DDF094E094D094C094C11CD11C0D
:10163000E11CF11C68EE862E63E0962EA12CB12CE5
:10164000033041F150E1852E57E2952EA12CB12CAB
:10165000043001F140EA842E46E8942EAA24A39493
:10166000B12C0530B9F030E4832E32E4932E3FE004
:10167000A32EB12C063071F074E6872E912CA12C8C
:10168000B12C073039F420E8822E26E9922E28E981
:10169000A22EB12C9AE0292E312C412C512C12C0B3
:1016A00075FEC8CF8BE2A5DDC5CFC701B6016B5F64
:1016B0007F4F8F4F9F4FA20191010E94FE39690118
:1016C0007A011F5FC814D904EA04FB0470F781E1B2
:1016D000810F9BEA899F812D1124A82EA69486E074
:1016E000811B899F112D11241695912F990F190F88
:1016F000811B182F4E0187E0880E911C2AE0A4015F
:10170000C701B6010E94603BF40101900020E9F797
:1017100031977F01E818F9089E2C6701DD24812F9D
:1017200090E004968C159D0514F4A3941D5F8A2DFA
:1017300090E0845D9F4F0E94B43BA82E74FE29C0A8
:10174000901638F50E198E2C811A800E181424F07C
:101750008EE24FDD012F0E19111102C088EF882E85
:10176000912C10E0C00ED11EE82C082C000CFF08B4
:10177000E92DF0E0EC15FD0574F0AA2011F08A2D9A
:1017800038DD662011F0862D34DD2E96E2E10C94D2
:101790003D3B00E0D8CF3696E01BF10B81E090E0B6
:1017A0008C0F9D1FE80FF91F808123DD93949E14F9
:1017B0001F04F1F68EE21DDDDBCF0F93362FBC0147
:1017C00090E080E0022F242F432F15DF0F91089522
:1017D0000F93062FBC0190E080E026E54DEF0BDF74
:1017E0000F9108950F93042F28E440E004DF8AE767
:1017F00000DD24DD0F910895E82FF0E0EE0FFF1FCC
:10180000E057FE4F8591949120910001420F209165
:101810001001620F20E074CD0895CF93DF93C82F9D
:10182000D62FE0914005F091410548E16EE18685B3
:10183000E3DFE0914005F09141054D2F6C2F848549
:10184000DBDFE0914005F091410540E06EE18585E8
:10185000D3DFDF91CF910895089503D002D001D056
:1018600000D000D003D002D001D000D000D003D0EF
:1018700002D001D000D000D0A89503D002D001D072
:1018800000D000D003D002D001D000D000D003D0CF
:1018900002D001D000D000D003D002D001D000D0BF
:1018A0000000089590E0893C28F0885C48EC849F13
:1018B000C0011124009709F4089520918100277038
:1018C00019F0DADF0197F6CF8130910519F0029710
:1018D0003EE303C037E180E090E02091B200230FA7
:1018E0002093B30042E04093700027E023BF889527
:1018F00026E023BF10927000A895DCCF8F9384E080
:10190000D1DF07C08F9382E0CDDF03C08F9381E0EA
:10191000C9DF8F911F93182F106410937C00E12F63
:10192000E07880913001E81759F0E0933001AEDFA4
:101930008EE980937A0083E083BF889582E083BF3D
:1019400020E030E0A901E0E01FC08EE980937A003A
:1019500083E083BF889582E083BF609178007091B7
:101960007900260F371F411D511DE43061F480912D
:101970003201803041F084E02030380720F417FD38
:1019800002C01068CACFEF5F80912F01E817E8F21C
:10199000609133017091340117FF04C060913101EF
:1019A0007091320180E090E00E94BC392FEF33E06B
:1019B00040E050E00E94FE39B901CA0120912F0198
:1019C00030E040E050E00E94FE39C9011F910895C7
:1019D0009B01281B390B50F0C9010895BC0180916F
:1019E0003301909134016817790718F4861B970B1F
:1019F000089580E090E00895EF92FF920F931F9377
:101A0000CF93DF93F82EE92EB2DCC5E64F9B1CC0C6
:101A1000CF2DDE2D15E500E0D7FD10C082E042DFBE
:101A2000110F4F9B1F5F1F731F3399F4011103C0E8
:101A3000CF2DDE2D04E00F5F083C78F0802FCDB76E
:101A4000DEB7E6E00C94493B81E02CDFC150F1F6B3
:101A5000DFCF111102C00111F1CFA8951C161D0690
:101A6000DCF62A97C9F6CFEFDFEFD6CFCF938CDA2B
:101A7000C82F809142058823D1F0813051F4C330C2
:101A800041F46FE086E058DA8BE2B3DB6FE086E08A
:101A900053DA80E49FE1B0DFC33041F48091420526
:101AA000813021F460E086E047DAD4DB76DACF914A
:101AB000089589E493E00E94B43B382F8AE493E0D0
:101AC0000E94B43B20913701230F30913801381F19
:101AD00020931A0130931B0183E0283E380720F041
:101AE000C901885E934002C080E090E062E370E04C
:101AF0000E94D739683008F067E0EEE7F3E0E60FC0
:101B0000F11DE60FF11D459155912591359162E347
:101B1000681B421B530B649FC001659F900D1124ED
:101B2000499662E370E00E94D739620F731F709389
:101B30007605609375058BE493E00E94B43B99278A
:101B400087FD90956091370170913801860F971F3E
:101B500090933201809331019093720580937105C7
:101B60000895CF93DF9324E130E0B9010E94D73983
:101B7000DC01E0E9F3E0E60FF71FE60FF71FC59180
:101B8000D591459155914C1B5D0B4A9FC0014B9FD0
:101B9000900D5A9F900D1124B9010E94D7396C0FF6
:101BA0007D1FCB01DF91CF91089518951895409135
:101BB0001C01A0914005B0914105EDE8F5E030E051
:101BC00020E0822F2417B0F451911C969C911C9711
:101BD000591719F05581951303C02F5F3F4FF1CF6F
:101BE000220F331FF901E756FA4F20813181293E38
:101BF000334008F084E1089510921E0110921C01F8
:101C000010926C051092520510921D0110923E0523
:101C100010927305E7E5F5E0108211821282E7E782
:101C2000F5E0108A82E0818B1092020117861686F9
:101C3000148215821682178281EF838B08955E9835
:101C40000FDE90E080E0D8CE08951F93CF93DF930E
:101C5000162F17B818B8E82FF0E0E959FD4F949106
:101C600095B9262F281BE20FF11D27FDFA95E49167
:101C7000E92BE4B94FDEEC01812F4CDEAC01209161
:101C800033013091340136952795C9010397BE0180
:101C9000625E7F4F8617970778F4255E3F4FC21725
:101CA000D30750F4BA01625E7F4F8617970720F47E
:101CB00081E04217530708F080E014B8DF91CF911C
:101CC0001F910895CF9361E080E0BFDFC82F62E0ED
:101CD00080E0BBDFC80F62E081E0B7DF8C0FCF91FF
:101CE0000895AFE0B0E0E7E7FEE00C94213BB82EAA
:101CF00010921E01807FB9F4E5DF833081F462D950
:101D000089E592E0EEDA2BD98FE373DA80ED97E084
:101D100073DE8B30B0F456D985E091E0E2DA2F968D
:101D2000E2E10C943D3B06E910E04CD988EC91E0EF
:101D3000D8DAC8DF833009F068C01F5F143008F4B8
:101D400065C00DD90E94E51F81EC90E0CADA60E021
:101D500083E293E00E94C13B60E084E293E00E9452
:101D6000C13B60E082E293E00E94C13B60E082E020
:101D70000E94F0246C019A83898361E082E00E94D2
:101D8000F0247C019C838B8360E081E00E94F0243E
:101D90008C019E838D8323E040E26EEFC6010DDD52
:101DA00023E040E26EEFC70108DD23E044E06EEF80
:101DB000C80103DD2AE5C216D10424F084E190E0D5
:101DC0009A838983698183E293E00E94C13B8AE51B
:101DD000E816F10424F084E190E09C838B836B810E
:101DE00084E293E00E94C13B0A35110524F084E1AE
:101DF00090E09E838D836D8182E293E00E94C13BDF
:101E000082E08093420532DE07C010E0B0DA88E25B
:101E100049DD015009F089CFEB2DEF70EF87E130FC
:101E200009F04CC0EE24E394F12C78EB872E72ED90
:101E3000972E77E4A72EB12C02E0E8E0DE2EF0E248
:101E40003F2EC12C1E2D50E3252E2BDA26DA84E5F9
:101E5000D0D9C701DCDAF2D9113009F0C7C184EF5B
:101E600090E03FDA64E08091370190913801B0DC76
:101E700076D88FEE90E035DA8091750590917605F1
:101E8000C6DA8EEB80932F0117B818B814B815B8BE
:101E900088EE93E0B1DD143011F08B3020F4C39460
:101EA00084E0C812D2CF88EE93E0A6DDEFEFEE1A01
:101EB000FE0AF8E0EF16F10409F0C3CF18E702DFDD
:101EC000882349F0EED989E492E00BDA50DA84E60F
:101ED000E9DC1150A1F776D88AEB90E002DA23E032
:101EE00044E06FEF809135019091360166DC37D880
:101EF00083EB90E0F6D923E044E06FEF80913C055E
:101F000090913D055ADC82E080934205AFDD10924E
:101F10001E0158D88FEA90E0E4D960E082E00E9488
:101F20008E1C80907F0590908005A0908105B090D8
:101F300082059C868B8661E082E00E948E1CC090A8
:101F40007F05D0908005E0908105F0908205DE86C7
:101F5000CD8660E081E00E948E1C00917F0510918B
:101F600080051E830D8362E080E00E948E1C8091BC
:101F70007F05909180059C838B8362E081E00E94C5
:101F80008E1C80917F05909180059A87898761E0FA
:101F900080E00E948E1C80917F05909180059A833D
:101FA00089832F85213029F020913B05223009F0CB
:101FB00001C2029698878F83C40133DAC60131DAF1
:101FC000B801110F880B990B03E026E444EF13DBF3
:101FD0008E010F5F1F4F9E01215F3F4F7801F70178
:101FE000819191917F010A97853B9105D0F42E173D
:101FF0003F07A9F742E4C42E43E0D42EF8016081E4
:102000000E5F1F4F6E5EC6010E94C13BFFEFCF1AED
:10201000DF0A0E151F0591F70E94AF0785EB91E0CF
:1020200060D982E08093420521DD0E9482302F85B5
:10203000213029F080913B05823009F0C0C00E9418
:10204000E20780E0F8D88BE591E04BD982E0F3D845
:1020500084E290E046D920E4F22E10E03AE0832EAC
:10206000912CA12CB12CC8DD10921E0160E082E001
:102070000E948E1C0091890520917705309178058A
:102080004091790550917A05073F0CF498C100936F
:10209000890520937705309378054093790550930F
:1020A0007A05073F09F093C12056310941095109CA
:1020B000203935454105510508F089C160918B05EE
:1020C00070918C05CB018B569F4F8B32914008F05D
:1020D0007EC11F5F153008F47BC189E493E00E9444
:1020E000CF3B0E94E2078DE190E0FBD880918B0509
:1020F00090918C0581D9DDDC18B881E087B980E248
:1021000084B982E007DC853D9340DCF714B8109277
:1021100032011092310182E0FDDB7C01809171057A
:1021200090917205909332018093310182E0F2DB4D
:102130006C01CC0CDD1C109232011092310182E056
:10214000E9DB4C01A0907105B0907205B0923201AC
:10215000A09231010E94AF0786E190E0C2D88BE4E3
:1021600093E00E94B43B182FD701A80DB91DAC19FC
:10217000BD0995010E944B3A96010D2C000C440BB1
:10218000550B0E94203A1D5F120F612F8BE493E0E4
:102190000E94C13B812F012E000C990B2DD989DCA7
:1021A00082E08093420562DC10923B0582E493E07A
:1021B0000E94B43B682F85E493E00E94C13B89E113
:1021C00080932F0180E00E94A7330E94E20785E000
:1021D00091E087D80E94AF0780E492E082D8109205
:1021E0001E0182E08093420541DC99CD123081F5D9
:1021F0002091330130913401A8E5BBE10E943C3AC3
:1022000024EC36E340E050E00E94203A29013A01F4
:1022100081E085B9F5E0F4B980E070DB84199509B7
:102220009A83898381E184B980E068DB8419950908
:102230009C838B8384E085B984E184B981E05EDB93
:10224000841995099E838D8389ED90E04AD833C027
:10225000133049F505B92AE024B980E04FDB20911D
:102260003301309134013695279538872F83821BAF
:10227000930B9A83898382E284B980E03FDB2F81CC
:102280003885821B930B9C838B83D5B8E8E2E4B935
:1022900081E034DB2F813885821B930B9E838D83F5
:1022A0008BEC90E0D3CF1430B1F489E492E019D8EC
:1022B00009DD8111A6C00E94AF0789819A819CD84F
:1022C0000E941E098B819C8197D80E941E098D81D6
:1022D0009E8192D8D9CD153099F415B804B980E013
:1022E0000DDB9A838983D4B881E008DB9C838B83E0
:1022F00034B882E003DB9E838D838BEE90E0A6CF23
:10230000163039F504B905B980E0F8DA20913301C7
:1023100030913401821B930B9A838983D4B8D5B84A
:1023200081E0ECDA2091330130913401821B930B70
:102330009C838B8334B835B882E0E0DA2091330196
:1023400030913401821B930B9E838D8387EE90E046
:102350007DCF173059F52091330130913401A8E534
:10236000BBE10E943C3AA50194010E94FE3929017B
:102370003A0105B9F3E0F4B980E0C0DA84199509AF
:102380009A838983D5B82CE024B981E0B7DA84191F
:1023900095099C838B8335B824B882E0AFDA841921
:1023A00095099E838D8385EC90E050CF113009F024
:1023B00082CF6ACD98878F8310923B05FDCD0F5F4A
:1023C000CA01B901A50194010E94FE395DCE10E059
:1023D0000E94AF076091770570917805809179052B
:1023E00090917A0504E026E44091890504D90E9481
:1023F0002A090E94B70988E255DAFA94F11033CE1F
:10240000DECE82E0C82E57CF80913B0581110DC0F2
:1024100082E493E00E94B43B61E0680F85E493E0BE
:102420000E94C13B81E080933B050895EF92FF92AB
:102430000F931F93CF93DF93D62FE82FF0E0E65949
:10244000FD4FE491E8B9E7B915B8E62FF0E0E95996
:10245000FD4FE491E4B9CE2FCC0F88E8E82E83E15C
:10246000F82E8D2F4BDA8C01C4B98E159F0510F113
:10247000892BD9F00E94BD078BE391E00E9471097E
:10248000D80120EA36E841E050E00E94513A28E9BC
:1024900037EB40E050E00E94FE39C90122E041E400
:1024A00067EF8BD917B818B814B8CDB7DEB7E6E028
:1024B0000C94493B7801D5CF0F931F93CF93DF93B3
:1024C00085E028DA85E022DA8C01EC01CC0FDD1FF3
:1024D000CC0FDD1FCA56DF4F10923901C43883E09C
:1024E000D80770F489EA91E00E9471090E942A09D4
:1024F00081E080933901DF91CF911F910F91089571
:1025000088EB91E00E94710962E0CE0161D90E94DE
:102510001E090A3F86E01807B0F40333164060F442
:1025200082EB92E00E9471090E942A090E94B70979
:102530008DECB8D984DBDFCF89EB92E00E94710982
:102540000E942A09D8CF85EB91E0F8CFFC019C01CD
:10255000261B370BCA0170E060E0A901460F511D30
:10256000452F5527620F240F351FAC01470F511D12
:10257000452F5527780FDA01AA0FBB1F8A0F9B1F23
:102580004B3E20F4E217F30740F7089590E080E017
:102590000895A7E1B0E0EFECF2E10C94213B8E8BC3
:1025A000162F042FA895E62FF0E0E959FD4F24914E
:1025B0002D87220F2D8B339634913A83E42FF0E050
:1025C000E959FD4F44914B833396F490E82FF0E0A6
:1025D000E959FD4F84918983880F8E8733969491B2
:1025E0009F8B45B96D84642A64B897B998B9862FD2
:1025F0008DD96C01ED85E4B9812F88D9782EE92E2B
:1026000014B839D915B864B8812F80D9B601E0D98A
:102610004C01FA81F7B918B82B813981232B2C830F
:1026200025B924B98E8972D9D9D95C0115B823D9B5
:10263000498145B98E896AD9D1D99C878B8789818F
:1026400084B98E8963D9CAD91C016B857C85C50183
:10265000BFD98032E1E09E0730F4F0E28F16F1E05E
:102660009F0608F44EC62B853C85820E931E8C0D6A
:102670009D1D8816990620F0DC86CB86272C3E2CE3
:102680002091520580916C05820F9927991F02971E
:102690004CF0213009F06EC590914F05809169058D
:1026A000981368C5EB80EE0C7D847E2839813E2925
:1026B0003A878B859C858437910508F47BC10A96FF
:1026C000880F991F2816390608F074C19F8997B999
:1026D00098B974B8812F16D96C01802F1BD95C0171
:1026E000E5B8812F0FD99601295A3D4F18B8281700
:1026F000390708F0A5C0EA81E7B9FA85F4B9F5B958
:10270000802F00D988349F4008F495C085E08093DD
:102710001E0182E280931D01D0924805C0924705B8
:10272000B501C60160D990934E0580934D05960181
:10273000A0E1B7E20E943C3A2091180130911901C2
:1027400050E040E00E94FE3930934A05209349054D
:102750008D898E2984B915B83F8937B938B9802F4A
:10276000D9D86C01812FCED8B6013DD99C01909368
:102770004C0580934B0590911D019F70943069F535
:102780004091490550914A0560914D0570914E0563
:10279000C901DCDE0097E9F0E4B84F898A81482B53
:1027A00047B9812FAFD86C0117B89C01A0E1B7E2FF
:1027B0000E943C3A20913C0530913D0550E040E0BC
:1027C0000E94FE39A901B60180914B0590914C05FC
:1027D000BDDE909348058093470580911D018F7061
:1027E000843019F118B89A81F92AF7B8E981E4B967
:1027F000FC81F5B98E898AD86C01F0D87C01812FD3
:1028000089D8A0901F01B0902001BC01C601EBD86F
:102810009501DC010E943C3A970150E040E00E94A3
:10282000FE393093480520934705809152058F5F0C
:10283000809352052DC385E080931E0184E26ACF08
:102840002A8127B93A8534B935B98E895BD86C01AC
:10285000802F60D85C01498145B98E8953D8895A47
:102860009D4F8C159D0508F085C48F8988B987B95F
:10287000802F48D8813D934008F097C085E0809331
:102880001E0182E380931D01B601C501ACD890936F
:10289000680580936705C601A1D89C01A0E1B7E255
:1028A0000E943C3A20911F013091200150E040E00D
:1028B0000E94FE39309364052093630518B8FA81AD
:1028C000F7B98E858E2984B985B98E8923D86C0194
:1028D000802F18D8B60187D89C0190936605809305
:1028E000650590911D019F70943089F540916305B5
:1028F000509164056091670570916805C90126DEF5
:10290000009709F1E5B8E4B82F8928B9EA81E22BEC
:10291000E7B98E890E94820C61D86C0117B89C01BE
:10292000A0E1B7E20E943C3A209135013091360196
:1029300050E040E00E94FE39A901B6018091650592
:102940009091660503DE9093620580936105809106
:102950001D018F70843019F13F893F2938B937B98B
:1029600015B84C8144B98E890E94860C5C01812F78
:102970000E948A0C7C01C0901801D0901901BC0102
:10298000C50131D89601DC010E943C3A970150E024
:1029900040E00E94FE3930936205209361058091EA
:1029A0006C058F5F80936C0510C185E080931E01DC
:1029B00084E368CF18B88A8187B9998195B9EA8587
:1029C000E4B98E890E94860C988B8F8707D89F83E5
:1029D0008E83802F0E948A0C998788872101F4E6D4
:1029E0004F0E511C2E813F81B1014216530608F053
:1029F000EEC0C9010E94F30C6C0120911F013091BF
:102A0000200150E040E060E871EA83E09CE10E9430
:102A1000FE39D6010E94513AE885F9859F0150E0C0
:102A200040E00E94FE3949015A0114B815B8FF89E7
:102A3000F8B9F7B981E00E94520C64B8812F0E9466
:102A4000860C8F359D4008F468C174B8812F0E94B0
:102A5000820C6C01802F0E948A0C9A8B898B8E8944
:102A60000E948A0C9C8B8B8B89899A89813D974027
:102A700008F4E0C084E080931E018DE080931D0186
:102A800076012C143D0410F4E218F308409018016C
:102A900050901901712C612C60E871EA83E09CE18F
:102AA000A30192010E94FE39D7010E94513AE9899F
:102AB000FA899F0150E040E00E94FE3980916C0548
:102AC000882371F080915D0590915E05A0915F056E
:102AD000B091600582179307A407B50708F096C068
:102AE00020935D0530935E0540935F05509360052C
:102AF0009601A0E1B7E20E943C3AA30192010E9434
:102B0000FE39309364052093630569897A898B893E
:102B10009C890E94F30C909362058093610581E08B
:102B200040915D0550915E0560915F057091600573
:102B3000481559056A057B0508F06AC080925D0555
:102B400090925E05A0925F05B092600568857985D8
:102B50008F8598890E94F30C90936205809361059C
:102B60002E813F81A0E1B7E20E943C3A20911F01F3
:102B70003091200150E040E00E94FE39205F384D46
:102B80003093640520936305C0901801D09019011B
:102B9000F12CE12C9101A0E1B7E20E943C3AA7019F
:102BA00096010E94FE3930936605209365052B85BA
:102BB0003C85A0E1B7E20E943C3AA70196010E9441
:102BC000FE39309368052093670581E023C08E812C
:102BD0009F810E94F30C6C01FC81F4B98E890E94E4
:102BE000860C988B8F870E94EE0C9F838E83802F9C
:102BF0000E948A0C99878887BC01C6010E94F30C49
:102C00009C01A4E6B0E00E943C3A06CF80E088CF69
:102C10008111BACF90916C059F5F90936C058823CA
:102C200009F462C30093690510936A054E894093C5
:102C30006B055AC3F1E62F16310408F06EC021ED82
:102C4000C21627E0D20608F468C085E080931E0112
:102C500082E180931D01C60186509F4FEB89FC895C
:102C60008E179F0708F042C083E180931D01FA810F
:102C7000F770BF2E802F806480937C002BE0298327
:102C8000CC24C394D12CEE24EA94A3E0FA2EA89588
:102C900061E08B8154D574B886B18B21E9F33D8511
:102CA00034B980917A00806480937A0080917A00B0
:102CB00086FDFCCF8091780090917900F701E81BA8
:102CC000F90BCE0EDF1EF981F150F983F111DFCF40
:102CD000C601880F991F880F991F69E070E00E9454
:102CE000D739709368056093670559CEE090180155
:102CF000F0901901B6018B899C890E94F30C970111
:102D0000DC010E943C3A960150E040E00E94FE390E
:102D10003093620520936105AACF74B8E5B8812F7E
:102D20000E94860C5C01802F0E948A0C9F838E83F8
:102D30000E94EE0C7C014A145B0408F0ABC0B101A8
:102D4000C5010E94F30C6C0120911801309119010A
:102D500050E040E060E871EA83E09CE10E94FE39C7
:102D6000D6010E94513A970150E040E00E94FE399E
:102D700029013A013A8137B918B84C8144B945B9AB
:102D80008E890E94860C6C01802F0E948A0C4C0157
:102D9000812F0E948A0C7C0180E3C81681E1D8064D
:102DA00008F0E6C1998195B98E890E94860C9987B1
:102DB0008887E981E4B98E890E94860C988B8F8779
:102DC00015B881E00E94520CF981F5B98E890E94F4
:102DD000860C2F8538892034364008F079C081333D
:102DE000914108F475C0C6018A569F4F28853985E0
:102DF0002817390708F06CC086E080931E01809187
:102E000052058F5F80935205B701C4010E94F30CF5
:102E10009093480580934705B701C6010E94F30CC3
:102E200090934E0580934D0514B815B83A8138B982
:102E300081E00E94520C498144B98E890E94860C1F
:102E4000853F910528F58C8184B9802F0E94860CDE
:102E5000813D9340E8F08E890E948A0C8D3D92401E
:102E6000B8F0298124B98E890E94860C8D3D92404C
:102E700078F0498145B981E00E94520C15B88E89DD
:102E80000E94860C853F910518F487E080931E010F
:102E900081E0F3C064B82B8125B9812F0E94860C94
:102EA0005C01802F0E948A0C9F838E830E94EE0C0F
:102EB0007C01C5012A143B0410F482199309B7015F
:102EC0000E94F30C9C01A4E6B0E00E943C3A4BCF78
:102ED0008A8187B99B8194B995B981E00E94520C8F
:102EE000EA85E4B9E5B98E890E94860C6C010E94DE
:102EF000EE0C7C01802F0E948A0C9D838C830E94A3
:102F0000EE0C99878887812F0E948A0C4C012885B6
:102F100039852E3F394008F4C0C084E080931E01FB
:102F20008CE080931D01B101C7010E94F30C6C017C
:102F300020911F013091200150E040E060E871EAEB
:102F400083E09CE10E94FE39D6010E94513AE88557
:102F5000F9859F0150E040E00E94FE3980915205C2
:102F6000882371F08091430590914405A091450517
:102F7000B091460582179307A407B50708F079C0FA
:102F800020934305309344054093450550934605EF
:102F9000B4018C819D810E94F30C9093480580932D
:102FA00047059701A0E1B7E20E943C3A20911F013A
:102FB0003091200150E040E00E94FE3930934A05F4
:102FC0002093490581E0409143055091440560916B
:102FD000450570914605441555056605770508F0C9
:102FE0004AC0409243055092440560924505709254
:102FF0004605B5018E819F810E94F30C9093480590
:10300000809347059501A0E1B7E20E943C3A2091E8
:1030100018013091190150E040E00E94FE39205F14
:10302000384D30934A05209349059101A0E1B7E25C
:103030000E943C3A209118013091190150E040E083
:103040000E94FE3930934C0520934B052B853C851F
:10305000A0E1B7E20E943C3A20911F01309120018B
:1030600050E040E00E94FE3930934E0520934D051C
:103070000FCF80E0A8CF8111D8CF909152059F5FEC
:1030800090935205882309F42FC100934F058E8930
:10309000809350051093510527C1F1E62F16310496
:1030A00008F066C029E4E2162DE0F20608F460C0DC
:1030B00085E080931E0182E080931D01C40186504B
:1030C0009F4F8C159D0508F03DC083E080931D0146
:1030D0003F893770D32E802F806480937C004BE033
:1030E0004A83EE24E394F12CA89560E08B8127D3EA
:1030F0008A8584B985B986B18D21E9F7998194B91A
:1031000080917A00806480937A0080917A0086FDB5
:10311000FCCF8091780090917900E80EF91EEA8149
:10312000E150EA83E111E0CFC701880F991F880FB2
:10313000991F69E070E00E94D73970934E05609343
:103140004D0573CBA0901F01B0902001B401C601C2
:103150000E94F30C9501DC010E943C3A970150E07B
:1031600040E00E94FE393093480520934705B0CFD8
:1031700017B818B814B815B817B8F7EC2F16F1E04F
:103180003F0608F4D9C018B82E8524B908ECEA80A7
:103190003F89E32AE7B881E00E94520C4A8147B98F
:1031A0008E890E948A0C429710F0015099F78E8503
:1031B00084B985B961E08B81C2D28E890E94860C68
:1031C0004C019D8994B915B8EF89E7B9E8B960E079
:1031D0008B81B5D2812F0E94860C0E94EE0C6C016F
:1031E000FD85F4B9812F0E948A0C7C018E890E9492
:1031F000860CB7010E94F30C5C01812F0E948A0C9F
:103200007C018E890E94860CB7010E94F30C950107
:103210002C5E3F4F2817390708F466C018B82A817A
:1032200027B9398134B935B961E08B8188D2812FD2
:103230000E948A0C7C018E890E94860CB7010E9434
:10324000F30C7C01A816B90608F05EC04E8544B99F
:1032500045B98E890E94860C9C016401E8EEEE1649
:10326000E3E0FE0608F061C0C70164E670E00E947A
:10327000D739C701875991098938914108F05CC055
:103280002E153F0508F058C0C60143E09695879576
:103290004A95E1F7893C910510F088EC90E08C0D9F
:1032A0009D1D8E159F0508F047C06C157D0508F023
:1032B00043C080911E01833018F483E080931E0187
:1032C00020911C01822F90E0FC01E357FA4F3E89C8
:1032D00030831683880F991FFC01E756FA4FF1825D
:1032E000E0822F5F20931C0117B818B814B815B8E6
:1032F0008EE20E94F9080E94B7096796E2E10C94F9
:103300003D3B272C3E2C36CF8D8984B915B89F893B
:1033100097B998B960E08B8112D2812F0E94860CF8
:103320000E94EE0C9C01750199CFB70154E076958F
:1033300067955A95E1F79DCF612F8E8901D0D4CF43
:10334000B0E0A0E0E6EAF9E10C94233BC82FD62FC9
:10335000A895862F90E0FC01E959FD4F54903396D3
:1033600024914C2F50E0FA01E959FD4F1491339606
:10337000049160916C0530915205630F7727771F98
:10338000672B09F058C0A895609122017091230124
:10339000660F771F660F771F7093340160933301B8
:1033A0006091710570917205660F771F660F771F28
:1033B00070933201609331013EEB30932F016091A5
:1033C0001C01EDE8F5E030E0840F951F631338C071
:1033D00018B827B914B915B9B8E1BB2ED12CC12C36
:1033E0008D2F0E94860C782E692E8C2F0E948A0CBD
:1033F0007C018C199D0997FF03C0919581959109D6
:1034000003970CF45AC1A895BA946701B110E8CF9C
:103410008091220190912301909334018093330194
:1034200080917105909172059093320180933101E2
:1034300089E180932F01CDB7DEB7E0E10C943F3BEB
:1034400051914581450F5527551F4817590701F3DD
:103450003F5FBCCF25E8C21621E0D206C8F6043A89
:10346000E2E01E0708F0B5C0F8E9AF16B10480F23B
:10347000C6010E94EE0CAC019601A8E9B7EB0E94D0
:103480003C3A9A0150E040E00E94FE3929013A019D
:10349000C5010E94EE0C9C01A8E9B7EB0E943C3AE2
:1034A000950150E040E00E94FE3988E7C8168FE0A1
:1034B000D80608F072C0F2E0440C551C661C771C5C
:1034C000FA95D1F7C301B201620F731F841F951FD4
:1034D00025E030E040E050E00E94FE39A4E6B0E094
:1034E0000E94513A6B017C01FCEACF0EFDE0DF1E29
:1034F000E11CF11C10911E01143008F089CFC1505D
:103500000C2F0D0F802F90E0EC01C95ADA4F288163
:10351000880F991F880F991F8A559A4FFC01222303
:1035200009F4C4C080809180A280B380A701960175
:10353000281939094A095B0957FF07C0509540957A
:10354000309521953F4F4F4F5F4FAAE0B0E00E946A
:10355000513AF4E68F0E911CA11CB11CA5019401F7
:103560002C0D3D1D4E1D5F1D0E94FE39232B242B6B
:10357000252B09F04DCF133019F081E080931E0107
:1035800082E0888380917305E82FF0E0E65AFA4FD5
:1035900000838F5F809373053BCFE8E7AE16EFE0C3
:1035A000BE0670F4E2E0220F331F441F551FEA9558
:1035B000D1F7CA01B901640D751D861D971D88CF0D
:1035C000240D351D461D571D569547953795279552
:1035D00085CFC0901F01D0902001672D762DE61673
:1035E000F70608F4B701C7010E94F30C9601DC014D
:1035F0000E943C3A2B013C01C7010E94EE0C9C0149
:1036000050E040E0C301B2010E94FE3929013A01B5
:10361000A0901801B0901901892D982D801791075D
:1036200008F4C801B8010E94F30C9501DC010E9466
:103630003C3A980150E040E00E94FE3988E7E816E5
:103640008FE0F806B0F462E0440C551C661C771C51
:103650006A95D1F7C301B201620F731F841F951FD2
:1036600025E030E040E050E00E94FE3969017A0137
:1036700041CF0837EFE01E0770F4CA01B90152E0EC
:10368000660F771F881F991F5A95D1F7640D751D16
:10369000861D971DE5CF73016201C20ED31EE41E85
:1036A000F51EF694E794D794C79424CFC082D182B4
:1036B000E282F38281E08883ABCE110F15B814B992
:1036C0008C2F0E94860C8135910508F0A1CE15B98A
:1036D0008C2F0E94860C6C0107B908B915B854B834
:1036E000A8E14A2EB12CA12C8C2F0E94860C982E7A
:1036F000892E8D2F0E948A0C8C018A199B0997FFB5
:1037000003C0919581959109039734F0A8954A9447
:1037100058014110E9CF7CCE550C54B88D2F0E9432
:10372000860C5C01F0ECEF16F4E4FF0608F492CE90
:1037300080EBC8168DE4D80608F06ACE90CECF9301
:10374000C82FC09595B160FF10C0982B95B994B162
:10375000892B84B982E00E94520C84B18C2384B9F5
:1037600085B18C2385B9CF9108959C23EFCFAF927B
:10377000BF92DF92EF92FF920F931F93CF93DF934D
:103780001AE08FE3D82E09E017B818B815B8D4B8E6
:1037900080E00E94860C7C0181E00E948A0CEC0192
:1037A00082E00E948A0C9C0180911E018930C1F444
:1037B00017B814B8F0920601E0920501D093080101
:1037C000C093070130930A0120930901DF91CF9143
:1037D0001F910F91FF90EF90DF90BF90AF900895F1
:1037E00084E0E816F10450F4C430D10508F04EC06E
:1037F00024303105E8F291E092600AC091E088EE51
:10380000E81683E0F80608F090E0C83ED340A0F345
:10381000283E334008F4946097B9D0E0C0E0A89502
:1038200080E00E947E0C5C0181E00E948A0C7C0199
:1038300082E00E948A0C24E1A21625E0B20608F478
:10384000389A24E1E21625E0F20608F4399A843128
:1038500025E0920708F43A9A26E0A216B10430F463
:1038600026E0E216F10410F4069738F02196C43FE2
:1038700081E0D807A1F600931E01F12CE12CEC1693
:10388000FD0631F4115009F07FCFA0CF91E0BDCFFC
:103890000E94410C2FEFE21AF20AF1CFCF92DF9291
:1038A000EF92FF92CF932091770530917805409168
:1038B000790550917A05C09189058AE0C82ED12CEE
:1038C000E12CF12C8C2FCF5F213A96E8390791E05B
:1038D00049075105E0F480938905A0913301B09127
:1038E00034010E94513A28E833E140E050E00E9460
:1038F000FE392093770530937805409379055093EE
:103900007A05CF91FF90EF90DF90CF900895CA0194
:10391000B901A70196010E94FE39D4CF8F929F92E0
:10392000AF92BF92CF92DF92EF92FF921F93CF930D
:10393000DF93C82F162F880F8C0F9FEF960F890FDC
:1039400080935405EC2FF0E0E959FD4FD491862F78
:1039500090E0FC01E959FD4FF490FC01E659FD4F60
:10396000D49080911E018130A9F120911C01ADE815
:10397000B5E090E080E08217C8F1109284051092C3
:10398000830581EF80938905109277051092780561
:103990001092790510927A05EADE18B8D7B8F4B813
:1039A000F5B88C2F0E948A0C5C01812F0E948A0C32
:1039B000A81AB90A14B810925605109255058091AC
:1039C000550590915605843F914028F117B818B8D5
:1039D00014B815B8DF91CF911F91FF90EF90DF9051
:1039E000CF90BF90AF909F908F90089516963C9186
:1039F000169731130DC03C913C130AC0FC01EE0F29
:103A0000FF1FE357FA4F448555854C3D554010F351
:103A100001961196B0CFD5B9D4B90E943B0C14B819
:103A200015B80E94420CA8958C2F0E948A0C7C012C
:103A3000EA18FB0880915505909156058E3791053F
:103A400028F08BE4E816F1040CF4C0CF8091550502
:103A5000909156052DE2E21621E0F2060CF022C20A
:103A600001969093560580935505A9CF0E943C0C72
:103A70008C2F0E948A0C8A199B09A8952FEFC21AD5
:103A8000D20A20915505309156052C153D0570F749
:103A90005701A81AB90A1A141B040CF0ADC039EC6E
:103AA000A316B1040CF092CF28EE33E0D5010E94AA
:103AB0004B3A97010F2C000C440B550B0E94FE391A
:103AC000690180915505909156050196B0E0A0E0FE
:103AD00080937F0590938005A0938105B093820524
:103AE000C7018A0D9B1D32D220917F053091800540
:103AF0004091810550918205DC010E94513A60930A
:103B00007F05709380058093810590938205609373
:103B10007705709378058093790590937A0587EF00
:103B200080938905BBDE8090770590907805A09002
:103B30007905B0907A0585E293E00E94B43BA8EE47
:103B4000B3E0A81BB10987FDB395A50194010E94BC
:103B50005B3A24E630E040E050E00E94FE392093DA
:103B60007705309378054093790550937A058091D5
:103B70001C01882329F080911E01853009F026CF91
:103B800088E080931E018091890590918A0598179D
:103B9000C4F089131BCF8090770590907805A09092
:103BA0007905B0907A0540917B0550917C05609134
:103BB0007D0570917E05481559056A057B0508F05D
:103BC00005CF409177055091780560917905709106
:103BD0007A0540937B0550937C0560937D05709337
:103BE0007E0580938A05D0928605C0928505109344
:103BF0008705C0938805EACED12CC12C62CFB7DDF2
:103C000015B887E087B918B8FD2EFF0CF4B880E42A
:103C100080937B0084E580BF8C2F806480937C0040
:103C200086E180937A000E94450C1092560510920E
:103C3000550510928000109285001092840087E252
:103C400086BB81E280936F0081E080937405F5B8B4
:103C500090911E0180938100953009F005C181E0AB
:103C600090E00C2E01C0880F0A94EAF780958770C7
:103C700087B9F89483B7817F83BF809174058823C7
:103C800089F083B7816083BF7894889583B78E7FEE
:103C900083BFF894A895809155059091560580347E
:103CA000964059F7789410928100E0908600F09049
:103CB000870010926F0086E980937A0014B815B8D7
:103CC0008C2F0E948A0C2091370130913801821B81
:103CD000930B0C9690938C0580938B0580915505E2
:103CE000909156058032934008F070CE8091550532
:103CF000909156059093820580938105F0928005FE
:103D0000E0927F0584EF809389058091550590911D
:103D1000560582349105C8F060917F057091800549
:103D2000809181059091820524E630E040E050E0EA
:103D30000E94FE3920937F053093800540938105D2
:103D40005093820586EF80938905A0917505B09107
:103D5000760520917F053091800540918105509135
:103D600082050E94513A20E233E040E050E00E9498
:103D7000FE3920937F053093800540938105509351
:103D80008205209377053093780540937905509309
:103D90007A0584DD80918905843F09F054C0C09084
:103DA0007705D0907805E0907905F0907A0580EA63
:103DB000C8168FE0D806E104F104C0F4A70196010B
:103DC0002C543F4F4F4F5F4F60EA7FE080E090E020
:103DD0000E94FE39C20ED31EE41EF51EC092770566
:103DE000D0927805E0927905F0927A05C090770537
:103DF000D0907805E0907905F0907A05C114D1044F
:103E000021E0E206F10490F5D092B705C092B60524
:103E10008091540590E08E5B9C4F0E94B43B90E0F3
:103E2000B0E0A0E08C159D05AE05BF0530F5C81AC1
:103E3000D90AEA0AFB0AC0927705D0927805E09287
:103E40007905F0927A05D4B980917705909178053B
:103E5000A0917905B0917A054997A105B10508F4BB
:103E6000B5CDD12CC12C83CED7B803CF81E090E063
:103E70009093B7058093B605CBCF34E1C30ED11C28
:103E8000E11CF11CC816D906EA06FB0610F40E94D4
:103E9000041210927705109278051092790510920D
:103EA0007A05D1CF892B31F485E1E81685E0F80653
:103EB0000CF0A5CEC701D12CC12CE3CD1F920F92DF
:103EC0000FB60F9211248F939F93B59904C08091E0
:103ED0007405811109C0B59B10C080918600909136
:103EE00087008A3F910548F48091550590915605C9
:103EF000019690935605809355059F918F910F9051
:103F00000FBE0F901F9018951F920F920FB60F9231
:103F100011248F939F9310927405B09B10C08091D1
:103F20008600909187008A3F910548F4809155055D
:103F300090915605019690935605809355059F9153
:103F40008F910F900FBE0F901F9018950F9221E048
:103F50008C32920710F48CE291E08C52914069E12E
:103F600070E00E94D73999E16B3210F0982F6BE224
:103F7000981BE7ECF2E0E60FF11DE60FF11D9F93B1
:103F8000CF010E94B43B482F3196CF010E94B43B31
:103F9000582F3196CF010E94B43B282F3196CF0184
:103FA0000E94B43B382F6F91421B530B649FC0019A
:103FB000659F900D11240C9669E170E00E94D7393D
:103FC000620F731FCB010F900895B0E0A0E0EBEEFD
:103FD000FFE10C94273B88E893E1909323018093C1
:103FE000220190933401809333018EEB80932F0153
:103FF00018B880E187B90E944A0C17B884E00E9483
:10400000860CAC018B5C9840833F9140A0F481E02A
:1040100080933E052091330130913401AFEBB9E03C
:104020000E943C3A9A0150E040E00E94FE393093F1
:1040300023012093220180912201909123019093EA
:104040003401809333018EE00E948A0C8EE00E943E
:10405000860C90933801809337010E94590D87DBBD
:1040600018B8C1E0C7B985E185B9C4B980E00E943C
:10407000860C8C0182E0D82ED7B8D4E0D4B981E088
:104080000E94860C080F191FD7B990E1C92EC4B839
:1040900082E00E94860C080F191F15B8C8B9C7B96D
:1040A000C4B980E00E94860C0E94EE0C7C01D8B856
:1040B000D7B8D4B981E00E94860C0E94EE0CE80EBD
:1040C000F91ED8B9D7B9C4B882E00E94860C0E9404
:1040D000EE0CE701C80FD91F17B818B814B88091B3
:1040E0003301909134016C01CC0CDD1CC80ED91E3B
:1040F000C01AD10ACC1ADD0AF12CE12C9801A0E9F2
:10410000BAE10E943C3AA70196010E94FE3949019A
:104110005A0130933D0520933C059E01A0E9BAE188
:104120000E943C3AA70196010E94FE393093360165
:10413000209335012057354E3093200120931F01E5
:1041400080E7881A85EE980A9092190180921801EA
:1041500089E180932F01CDB7DEB7ECE00C94433BAF
:10416000CF92DF92EF92FF920F93CF93DF93F82ECF
:10417000D62FC42F0E941B0988E191E00E9471098B
:104180000E94B709F6D16D2F8F2D0E941D32C0906D
:10419000BA05D090BB05E090BC05F090BD058091BC
:1041A000020187FD05C0C114D104E104F10421F02E
:1041B00084E191E00E9471098D2F0E941B09C114B6
:1041C000D104E104F10409F474C00E941E09809135
:1041D0005A050E94720ACC2309F467C080913F05FA
:1041E0008D3030F48650990B845B9C4F0E9471098E
:1041F00080E00E944A09CD28CE28CF2809F45EC06D
:104200006091BA057091BB058091BC059091BD0588
:1042100003E028E447EF0E94FB0A87E291E00E9456
:10422000710987E593E00E94BC3B23E046E464EF1C
:104230000E94DD0B8091B2059091B305A091B40569
:10424000B091B505892B8A2B8B2B01F180E00E9460
:104250004A096091B2057091B3058091B4059091BF
:10426000B50504E028E440E00E94FB0A82E291E008
:104270000E94710923E040E26FEF8091B8059091B0
:10428000B9050E94DD0B0E942A0907C080E00E9448
:104290003009809142058823B1F3DF91CF910F91CE
:1042A000FF90EF90DF90CF90089580E00E944A0940
:1042B000A7CFC11193CF80E00E944A0980915A058F
:1042C0000E94720A809102018E3F0CF0B3CF8FE3FF
:1042D00091E00E94710960910B0170910C01809135
:1042E0000D0190910E0103E028E4409102010E942B
:1042F000FB0AA0CFEF92FF920F931F93CF93DF9310
:10430000182F0E94A907809187050E941B098BE541
:1043100091E00E9471090CD5609187058091880514
:104320005FD3EC019093840580938305E09085052D
:10433000F0908605CA3F8FEFD80720F489E191E01D
:104340000E947109809188050E941B09112309F4BC
:1043500045C090913F058DE0891B0E94210989E7A6
:1043600090E00E9471090E94AF0760917B057091F7
:104370007C0580917D0590917E0504E026E44091C6
:104380008A050E94FB0ACA3FDF4F68F48AE491E085
:104390000E94710922E044E06EEF809183059091C4
:1043A00084050E94DD0B0E942A090E94B607E114D1
:1043B000F10469F083E491E00E94710922E045E292
:1043C0006FEF80918505909186050E94DD0B0E941C
:1043D0002A09CDB7DEB7E6E00C94493B0E942A09D2
:1043E000C2CF8F7021F40E94BD070C945C12089517
:1043F0008F3021F490913901913011F08F5F089541
:1044000080E00895CF9384E890E00E94E32CC0E020
:104410000E94FC0D60E082E00E94A01962E080E052
:104420000E94A0190E94A907809173058823A9F012
:1044300041E062E080E094DE8C2FD3DF88EE93E0F1
:104440000E94FC0C811105C08C2FD2DFC82F8A3F3F
:10445000F8F20E94E207CF91089584E890E00E946C
:10446000710980E593E00E9471090E94AF078FE314
:104470000E94F90880E00E9430090E942A09DCCFDE
:104480000F931F93CF93DF93C0E0D8E012EF0DE0BE
:104490000E94FC0D60E082E041DAD0931E01809121
:1044A0008905843FE1F48091770590917805A0918A
:1044B0007905B0917A0584369105A105B10578F4A6
:1044C00040E060E082E00E94A22F60937705709345
:1044D00078058093790590937A05109389058091EA
:1044E0008905823F4CF180938A05809177059091F0
:1044F0007805A0917905B0917A0580937B0590931A
:104500007C05A0937D05B0937E0581E0F3DE8C2FC2
:1045100068DF88EE93E00E94FC0C811106C08C2FAE
:1045200067DFC82F8A3F08F4B3CF0E94E207DF910C
:10453000CF911F910F9108950E94A9078DE790E0F8
:104540000E94710980913F05902F981B892F0E942E
:10455000210989E790E00E9471090E94AF078FE36B
:104560000E94F9080E942A090E94B6070E942A099F
:10457000CECFA6E1B0E0EFEBF2E20C94213B82E07B
:104580008093020180911E01813009F0EBC180917E
:104590007305813009F0E6C140905A0524E0429E3F
:1045A000F0011124EA55FA4F80819181A281B381F3
:1045B000893032E59307A105B10508F0D3C11C018C
:1045C000712C81E0871508F4D1C1842D0E94680AFE
:1045D000982E892EE82DF0E0E659FD4F5490892D54
:1045E00090E0FC01E959FD4FE49115B818B8272D6A
:1045F0002170622E30EF2316310408F0BCC1211166
:10460000BAC1009118011091190100591A4121E015
:1046100030E0092C02C0220F331F0A94E2F7C901CF
:10462000852987B934E1398B892D0E94820C5C0180
:10463000882D0E948A0C24E0A216B10410F404977D
:1046400028F039893150398B3111EECF80E48093D5
:104650007B0094E590BF892D806480937C0026E1E7
:1046600020937A00F12CE12C1092800010928500AA
:104670001092840037E236BB0E94450C872D90E0F3
:104680009A8B898B61107EC181E88093810058B834
:1046900086B385FD0CC080FFFBCF21E026BBA8952B
:1046A00097012F5F3F4F79012035310589F718B801
:1046B0001092810030E236BB209186003091870055
:1046C000690140918400509185002417350738F422
:1046D00080FF05C081E086BB9FEFE91AF90A86E9F1
:1046E00080937A00B4E15B2E892D0E94820C5C01DC
:1046F000882D0E948A0C24E0A216B10410F40497BD
:1047000018F05A945110F0CF80903C0590903D05E0
:10471000820C931C800E911E20911A0130911B0176
:1047200000398AE1180708F036C169E191EEC9162F
:10473000D104E104F10430F4C60165E070E00E94A8
:10474000D739645128523109261B310967FD339549
:1047500066E0862F90E0B0E0A0E08C159D05AE05E8
:10476000BF0508F021C1C81AD90AEA0AFB0A662067
:1047700029F082E2C80ED11CE11CF11C90E5E9167B
:10478000F10418F0C12CD12C76018BE0C816D104AD
:10479000E104F10428F091E0C91AD108E108F10818
:1047A000B12CA12CA8EEB3E00E943C3A6B8B7C8B21
:1047B0008D8B9E8BA0913301B091340198010E94A2
:1047C0003C3AA50194010E94FE39442755276B8984
:1047D0007C898D899E890E94FE39C9010E94B10D94
:1047E000FC01A5019401C701B6010E94BC394B012F
:1047F0005C01BF0190E080E0E3E0660F771F881F57
:10480000991FEA95D1F76B5F7F4F8F4F9F4F2AE03B
:1048100030E040E050E00E94FE39C501B4010E9442
:10482000FE39E989FA89EE0FFF1FEE0FFF1F81E0C5
:1048300090E08C0F9D1FE80FF91F20833183428386
:104840005383611018C09CE0C916D104E104F1043F
:1048500090F07394E989FA893196EE0FFF1FEE0FFD
:10486000FF1F81E090E08C0F9D1FE80FF91F208350
:10487000318342835383A895739493E0971508F08E
:10488000A0CE18B884E00E94520C91E00D811E81E8
:104890002F81388549815A816B817C81401751076E
:1048A0006207730708F090E00D851E852F85388913
:1048B00049855A856B857C8582E0401751076207E0
:1048C000730708F483E024E0829FD001112421E0E3
:1048D00030E02C0F3D1FA20FB31FE92FF0E0EE0FC9
:1048E000FF1FEE0FFF1FE20FF31F0D911D912D9182
:1048F0003C9140815181628173810417150726071D
:10490000370708F0892F34E0839FF001112421E05C
:1049100030E02C0F3D1FE20FF31F40815181628177
:10492000738140930B0150930C0160930D017093C0
:104930000E0180FD3DC030EF23163104C8F58BEF2A
:104940008093020180910B0190910C01A0910D01C7
:10495000B0910E01892B8A2B8B2B11F4109202013E
:1049600017B814B86696E2E10C943D3B842D0E9482
:10497000680A4C012FCEE4B957B800911801109184
:10498000190150CE58B80E944E0C90E296BB81E8B7
:10499000809381007DCEC40160EB76E30E94D7391D
:1049A000695F285D3F4FD5CEC12CD12C7601DFCE7B
:1049B0008CEF80930201CB01BA016B5F7F4F8F4F69
:1049C0009F4F2AE030E040E050E00E94FE39209303
:1049D0000B0130930C0140930D0150930E01B2CFA7
:1049E000AEE1B0E0E6EFF4E20C94213B662EB82E87
:1049F000860F898320911E01283059F520917B056F
:104A000030917C0540917D0550917E0557FD15C084
:104A100010918A0509C0CA01B9012AE0312D412D42
:104A2000512D0E94FE391F5F173FACF391F42431E2
:104A300060E036074105510518F48FEF9FEF45C13F
:104A4000173F39F480E028178DE738074105410505
:104A500010F020E03DE72C8B3D8B26EDA22EEAE600
:104A6000F2E0E60DF11D859180608E87EAE6F2E0C6
:104A7000EB0DF11D859180608F87E7E6F2E0E60D92
:104A8000F11D7590E7E6F2E0EB0DF11DC59090EC9D
:104A9000692AB92A81E0E82EF12C012D112D8E838F
:104AA0001F82188619861A861B861C861D86188EFC
:104AB000198E1B8E1A8E0E94B71B80E088B96092F7
:104AC0007C000E94460C3F8537B975B874B852E037
:104AD0005A95F1F70000000014B815B8DD243E85A2
:104AE00037B975B874B860927C00A895A0927A0026
:104AF00080917A0086FDFCCF20907800309079007C
:104B0000B0927C004C2DE5D0209178003091790056
:104B1000288B398B3F8537B9C5B8C4B8A895B092F2
:104B20007C00A0927A0080917A0086FDFCCF609193
:104B300078007091790060927C00472DCAD0409136
:104B400078005091790014B8CB01820D931DE80EC6
:104B5000F91E011D111DEA82FB820C831D838889C9
:104B60009989840F951F2E813F8168857985280F4B
:104B7000391F611D711D2E833F836887798722E36A
:104B80002417150650F075B874B80E94500C14B86C
:104B900015B8888D8395888F07C0483E73E0570706
:104BA00018F08A8D83958A8F888999892817190624
:104BB00060F03E8537B9C5B8C4B80E94500C14B82F
:104BC00015B8898D8395898F07C0883E73E0970754
:104BD00018F08B8D83958B8FD3945D2D5F3F49F0BB
:104BE0005F3731F45C2D550FC50E572D550F750EDF
:104BF00076CF40903C0550903D05440C551C9201E9
:104C0000E4E0240D351DEA95E1F72901570168011B
:104C10006E807F808884998420911E012830C1F4A1
:104C20006C897D89812D912D655070408040904028
:104C30009B01AC010E94BC399B01AC0160E779E7A4
:104C400086E190E00E94FE39621A730A840A950A8E
:104C5000A614B704C804D90428F46A187B088C0881
:104C60009D0803C0662477244301B20180E090E0F0
:104C70009301A4010E94BC399501A6010E94FE394E
:104C800081E293E07981870F911D0E94B43B682EE9
:104C9000C90160E170E00E94D739260F371FC901B2
:104CA0006816190618F4861991090FC08C5E9F4F7B
:104CB0008615910540F48C899D89843981E1980796
:104CC00010F00E940412812D912D6E96E2E10C9459
:104CD0003D3B109281001092800010926F00109264
:104CE0008B0010928A0057E056BB5FEF509385000F
:104CF0005093840055E050937B0056EB50937A001C
:104D000051E05093810058E25A95F1F7000045B9FF
:104D100044B955E05A95F1F7000014B815B810924F
:104D2000810080917A0084FFFCCF80937A000895FF
:104D3000B0E0A0E0EEE9F6E20C94233B009185059B
:104D4000109186050115110509F08EC0E0918705C7
:104D5000F0E0E659FD4FD491E0918805F0E0E95983
:104D6000FD4FC4910E94B71B18B815B8D7B9C4B984
:104D7000809188050E948A0C7C01D0918A058CE084
:104D80008D0F843008F070C080917B0590917C0578
:104D9000A0917D05B0917E05D15F2AE0422E512C75
:104DA000612C712CBC01CD016B5F7F4F8F4F9F4FEA
:104DB000A30192010E94FE3949015A01DA01C90199
:104DC000DF5FD73079F7893823E19207A105B10574
:104DD00008F04AC0059708F447C0C5B9C4B9D0E087
:104DE000C0E0C815D90508F444C014B815B8A89592
:104DF00085E080932F01809188050E948A0CEC0148
:104E0000CE19DF09E816F90610F0D0E0C0E0D12C89
:104E1000C12CC814D90488F1809188050E948A0C9D
:104E200029E120932F01A895E816F90618F48C01C2
:104E30000E191F090C171D0788F49E01201B310B4A
:104E400069F0A4EFB1E00E943C3A9E0150E040E0DE
:104E50000E94FE3930938605209385050E94B71B7A
:104E600017B818B814B815B8CDB7DEB7E0E10C9490
:104E70003F3B0E944C0C2296B4CF0E944C0C8FEF0B
:104E8000C81AD80AC6CFA7E0B0E0E9E4F7E20C946C
:104E9000213B8EEB91E097D560EF6B8354980E9495
:104EA000410C14BC16BC1092120110921301109206
:104EB00014011092150181E085BB80936E00109261
:104EC0008000E3E1FAE7F0938B00E0938A0081E051
:104ED00090E0909389008093880010928500109252
:104EE000840083B5816083BD96E096BB90936F008C
:104EF0007894E4E0E0938100F2E3F9831A820E945F
:104F00003A0CA8954F9902C061E06A8385B5882361
:104F100029F08981815089838111F1CF15BC86B533
:104F2000809312010E94B6070E942A090E94BD07C1
:104F30000E942A090E94510986E60E94F9080E94EF
:104F400055096091120170911301809114019091A3
:104F5000150147E00E94F20B54988091810088234C
:104F600019F08FE30E94F9081092810010926F00EF
:104F700020911201309113014091140150911501BB
:104F8000DA01C9010197A109B109813F9048A10542
:104F9000B10508F096C0AAE0B0E00E94513A685FFF
:104FA0007F4F8F4F9F4F23E0969587957795679515
:104FB0002A95D1F7660F771F70936E0560936D0584
:104FC00054980E94410C16BC1092120110921301C9
:104FD0001092140110921501F1E0F5BBF0936E00F0
:104FE0001092700510926F0564E06BBB80916800B1
:104FF000846080936800789480916D0080618093D4
:105000006D0019820E943A0CA8954F9902C081E068
:105010008A8380916D0084FF05C099819F5F998389
:105020009A3F81F715BC80916D008F7E80936D0053
:10503000809168008B7F8093680086B58093120111
:105040000E94B60784E50E94F9080E945509E09184
:105050006D05F0916E05FD83EC83609112017091F6
:105060001301809114019091150128EA31E640E086
:1050700050E00E94613AEC81FD81612C712C43016A
:105080005F01C12CD12CE12CF12C00E010E00E943A
:10509000B53A49014F835E831B012C018C819D81B0
:1050A0008038910500F107E023E745EFB4018F81D7
:1050B000952F0E94FB0A99819A3F71F58FE30E9418
:1050C000F90810926E0080ED97E00E94FC0C6A8156
:1050D000860F29F48B8181508B838111DFCE279637
:1050E000E2E10C943D3B84E6A82EB12CC12CD12CDE
:1050F000E12CF12C00E010E094014F815E81B101C0
:10510000C2010E94B53AF22FE42F07E023E747EFF0
:105110006F2F732F8E2FCCCF94014F815E81B10101
:10512000C201263E354B41055105610571058105DA
:10513000910539F230F20E94BD0786E60E94F90817
:105140000E94550994014F815E81B101C201540151
:105150002115FAEC3F07FAE94F07FBE35F0761050A
:10516000710581059105F1F0E8F06A017101820194
:1051700020E030E04AE85DE568E775E483E691E029
:105180000E94B53AF22FE42F07E028E44AEF6F2F90
:10519000732F8E2F952F0E94FB0A8AE70E94F90831
:1051A00054988FCFCF80DE807101820120E030E4FF
:1051B0004AE750E163EF7AE580E090E00E94B53A7B
:1051C000F22FE42F07E028E44DEFE1CF1F920F927A
:1051D0000FB60F9211248F939F93AF93BF93789440
:1051E0008091120190911301A0911401B0911501C9
:1051F0009F5FAF4FBF4F8093120190931301A09315
:105200001401B0931501BF91AF919F918F910F90B1
:105210000FBE0F901F9018951F920F920FB60F920E
:1052200011248F9386E085BD8F910F900FBE0F9054
:105230001F9018951F920F920FB60F921124A895E8
:105240001092810015BC0F900FBE0F901F90189503
:105250001F920F920FB60F9211242F933F938F93AB
:105260009F9380916F0590917005892B11F481E0D7
:1052700085BD20916F053091700580916D059091ED
:105280006E052817390730F015BC80916D008F7EB0
:1052900080936D0080916F059091700501969093B9
:1052A000700580936F059F918F913F912F910F9083
:1052B0000FBE0F901F9018958B3008F08B50811106
:1052C00007C08AE292E00E9471090C942A090895AD
:1052D000813019F48EEB91E0F6CF823019F481E041
:1052E00092E0F1CF833019F486EF91E0ECCF843077
:1052F00019F48FE890E0E7CF853019F484E890E066
:10530000E2CF863019F48DE790E0DDCF873019F4D5
:1053100085EE91E0D8CF883019F486ED91E0D3CFB7
:10532000893019F488E192E0CECF8A3071F68DE0B1
:1053300092E0C9CF0F93CF938FE890E044D3C0E0C1
:1053400010921E0160E082E053D380911E018830EC
:1053500009F04AC00E94AF0783E40E94F9080E9446
:10536000550960917B0570917C0580917D05909138
:105370007E0503E026E440918A050E94FB0A0E9414
:105380002A0960918705809188052ADB909384051E
:10539000809383050E94B6078BE491E00E94710917
:1053A00080918305909184058A3F2FEF9207C0F486
:1053B00022E044E06EEF0E94DD0B0E942A098C2F50
:1053C00010D888EE93E00E94FC0C811106C08C2F4F
:1053D0000FD8C82F8A3F08F4B3CFCF910F9108950B
:1053E0008FE30E94F908E9CF0E9451090E94B60795
:1053F000E4CF0895A5E0B0E0E0E0FAE20C94213BB0
:1054000081E092E0E0D280E18093800010926F0012
:1054100081E090E0909389008093880010928B0047
:1054200010928A0083E086BB1092820088E080930D
:10543000810015B881E184B918B881E087B9229A52
:1054400089E080938100312C20E03AE0398341E00B
:105450004C83812C912C5401839451E15D83832DE5
:1054600090E00A966EE170E00E94EB396B83F62EB5
:10547000621761F00E94A90781E092E00E94710921
:1054800010E01F1508F4DCC00E942A098C81698194
:105490000E94CB39A92FB0E0A50194010E94513A96
:1054A0006B017C018D81823150F0652D762D872D29
:1054B000902F0E94FE39C60ED71EE81EF91E0E94CC
:1054C000AF079C812981212C921306C081E03D8188
:1054D000323108F480E0282E2A828CE3211005C0A6
:1054E0004D818EE3463108F082E50E94F9080E9462
:1054F0001E094D81C701B6010E94F20BC701B6011A
:105500007E5E85489F4FA7019601220F331F441FDF
:10551000551F0E94FE39CA014F3F510509F008F49A
:1055200094C08DE08093810080E094E02C01712C88
:10553000612CCA01B901A30192010E94FE392150D8
:1055400031093093890020938800809188009091E0
:105550008900892B31F481E090E090938900809359
:1055600088000E942A090E94B60786E60E94F90870
:105570000E941E09009188001091890060E079E086
:105580008DE390E0A30192010E94FE39A4E6B0E011
:105590000E94513A0F5F1F4F980150E040E00E9477
:1055A000FE3929013A01A4E6B0E0A70196010E9464
:1055B000513AA3019201261B370B480B590BCA0124
:1055C000B90105E228E44EEF0E94FB0A8AE70E9437
:1055D000F9080E942A0980ED97E00E94FC0C8823BC
:1055E00009F46BC0883C08F07BC0813508F45FC0CB
:1055F000222009F44AC03D8131503D83C501B401E8
:105600002AE030E040E050E00E94FE3949015A01B2
:10561000C701B6010E94FE39CA01B9012AE030E093
:1056200040E050E00E94FE396A834AE049832A81C3
:105630002C83312C2B815C2C6D2C7E2C0F2D0FCFCD
:105640008EE20E94F9081F5F1CCF4034510530F0F4
:105650008CE08093810080E091E068CF4830510574
:1056600030F08BE08093810080E490E05FCF892B65
:1056700031F08AE08093810088E090E057CF89E0A4
:105680008093810081E090E051CF5D81563198F5A3
:105690005F5F5D83563111F485E18983AAE0B0E054
:1056A000A50194010E94513A4B015C01C0CF8B309F
:1056B00018F09C819F5F9C83312C2C81822F90E07D
:1056C0003981632F70E06F5F7F4F0E94EB398C83CD
:1056D000832D0E94F821382E4FEE481708F0AACFEC
:1056E000109281001092800017B814B82298259665
:1056F000E2E10C943D3B5AE0598381E08A83812C9E
:10570000912C5401839491E19D8391CFB0E0A0E06E
:10571000ECE8FBE20C94233B86EF91E054D183E26A
:105720008093800010926F008FEF90E090938B0039
:1057300080938A0083E086BB1092820015B881E1D5
:1057400084B918B881E087B9229A81E090E09093FB
:1057500089008093880089E080938100D0E080E018
:10576000C2E310E094E6C92ED12CE12CF12C882460
:105770008A9423E0922EA12CB12CC817A1F1C43633
:1057800008F0C4562C2F30E0AFEFB3E00E943C3A53
:105790006E5C7F4F8F4F9F4FA70196010E94FE398D
:1057A00029013A0130938B0020938A000E94AF07B1
:1057B000A8EEB3E0A30192010E94513A61507E4FDE
:1057C0008F4F9F4FA50194010E94FE39C90125E02A
:1057D00045E26FEF0E94DD0B0E942A09193218F092
:1057E0008CE30E94520C80E496E00E94FC0C182F7F
:1057F000833880F40AE0833320F40C2F882319F0D7
:1058000001E00C0FD0E08D2F0E94F821D82F8C2FB3
:10581000D03F60F017B8109281001092800014B849
:105820002298CDB7DEB7E0E10C943F3BC02FA5CF67
:105830000F931F93CF93DF9385EE91E0C4D085E261
:1058400093E00E94B43BC82FD0E00E94AF070C2F1A
:105850000C2E000C110BC7FF27C08DE20E94F90827
:1058600023E045E26FEF88279927801B910B0E9468
:10587000DD0B0E942A0980E496E00E94FC0C811155
:105880001EC0C135C4F0C5568D2F0E94F821D82FF7
:10589000803FD8F26C2F85E293E00E94C13BDF91FC
:1058A000CF911F910F91089523E045E26FEFC8015A
:1058B000DECFC15009C0CC3E3CF7CB59E5CF823892
:1058C00048F78932B0F3CF5FD0E0DBCF813019F4F5
:1058D00080E0D9CA0895823011F48CCD08958330C8
:1058E00011F414CF0895843011F424CD0895853037
:1058F00019F40C9402220895863029F40E94E207DC
:105900000C9440220895873011F492CF0895883086
:1059100021F481E10C94710E0895893011F4A2C133
:1059200008958A3011F40C941F0E0895FF920F937E
:105930001F93CF93DF9385E392E045D010E0C0E062
:10594000D0E0FF24FA94FC0E01E00D0F60E0802F00
:10595000880F0E949C07D13069F58EE30E94F908F8
:105960008C2F8D0F51F18F2D8D0FA6DCD02F033092
:1059700059F780E49FE10E94FC0C811110E09091A6
:105980003901913009F410E08233C8F0CC2341F0A2
:105990008C2F9CDF85E392E016D01F5F1E3631F41A
:1059A00080E0CDB7DEB7E5E00C944A3BCB3040F267
:1059B000CB50C6CF0E941E09D3CF8AE0D6CF882312
:1059C00061F3CF5FEACFCF93DF93EC010E94E20750
:1059D000CE010E947109C4E682E00E94520C4F99E8
:1059E00002C0C150C9F70E94AF07DF91CF9108955F
:1059F000B0E0A0E0EEEFFCE20C942A3B182F062F5B
:105A0000862F90E0FC01E659FD4FF490E12FF0E085
:105A1000E959FD4FC491FC01E959FD4FD491109211
:105A200084051092830510927705109278051092E4
:105A3000790510927A0587EF809389050E94B71B3C
:105A400018B8F7B8D4B9D5B9812F0E948A0C7C0157
:105A5000802F0E948A0CE81AF90A14B81092560591
:105A60001092550530E020E05CE2C52EDD24D39491
:105A7000DAE064E6B62E8091550590915605843D96
:105A8000904348F017B818B814B815B8CDB7DEB7BA
:105A9000E9E00C94463BC5B98091550590915605B7
:105AA000892B91F0F601E21BF30B60915505709183
:105AB0005605D29FC001D39F900D11240E94D73963
:105AC000E617F70708F0A5C0C4B90E94450C14B842
:105AD00080915505909156050196909356058093B7
:105AE000550515B80E94470CA895812F0E948A0C75
:105AF0009C012E193F0980915505909156058B31D7
:105B0000964020F0253231050CF4BCCF2D3281E0D7
:105B100038070CF4B0CF8091550590915605019748
:105B200029F4253185E038070CF0ACCF809155057C
:105B300090915605880F991FB0E0A0E080937F05F3
:105B400090938005A0938105B0938205C90168E216
:105B500070E00E94EB39CB01820F931F0E94A61FB9
:105B600020917F05309180054091810550918205FB
:105B7000DC010E94513A60937F0570938005809309
:105B800081059093820560937705709378058093E3
:105B9000790590937A050E944E1CC0907705D090AD
:105BA0007805E0907905F0907A0585E293E00E940F
:105BB000B43BA8EEB3E0A81BB10987FDB395A701DC
:105BC00096010E945B3A20E137E240E050E00E94FB
:105BD000FE392093770530937805409379055093EB
:105BE0007A0588E080931E0120937B0530937C0525
:105BF00040937D0550937E058091890580938A05A9
:105C000010928605109285050093870510938805EC
:105C100039CF80915505909156050B97C8F060914A
:105C2000550570915605B29EC001B39E900D11248A
:105C30000E94D7396E177F0758F4C4B90E943A0CF6
:105C400014B880915505909156058C599F4F45CFBA
:105C5000C4B90E94400C14B8809155059091560526
:105C60000A963BCFCF92DF92FF920F931F93CF9371
:105C7000DF930E94E20785E091E00E9471090E9493
:105C8000AF0781EC90E00E94710983E293E00E94EB
:105C9000B43B23E040E26EEF90E00E94DD0B84E233
:105CA00093E00E94B43B23E040E26EEF90E00E945C
:105CB000DD0B82E293E00E94B43B23E044E06EEF10
:105CC00090E00E94DD0B0E94B6078AEB90E00E94F4
:105CD000710923E044E06FEF809135019091360126
:105CE0000E94DD0B0E94BD0783EB90E00E947109CA
:105CF00023E044E06FEF80913C0590913D050E94C8
:105D0000DD0B88E99AE30E94FC0C0E94E2078FEA0F
:105D100090E00E94710987E493E00E94B43B8251B5
:105D2000990B0E94110A88E493E00E94B43B8251CF
:105D3000990B0E94110A84E493E00E94B43B23E093
:105D400046E464EF8251990B0E94DD0B0E94AF077D
:105D500083E00E94210983E493E00E94B43B8251D6
:105D6000990B0E94110A86E493E00E94B43B825191
:105D7000990B0E94110A82E493E00E94B43B23E055
:105D800046E464EF8251990B0E94DD0B0E94B60736
:105D90008DE190E00E94710989E493E00E94BC3B90
:105DA0000E94FC090E94BD0786E190E00E947109F3
:105DB0008BE493E00E94B43B082E000C990B0E94E8
:105DC000FC0960E086E00E949C07C0E0FC2EFF0C0E
:105DD000FC0ED0E0FA94CD17B9F10F2D0D0F10E0A5
:105DE000000F111FC8018C5C9C4F0E94BC3B6C01D2
:105DF000C8018A5D9C4F0E94BC3B8C018091A50527
:105E00008330A8F188E99AE30E94FC0C0E94E20723
:105E100087EA90E00E9471098C2F0E941B098AE397
:105E20000E94F9088D2F0E941B0980E00E94300912
:105E300023E040E26EEFC6010E94DD0B23E046E462
:105E400062EFC8010E94DD0BDF5FD33021F6CF5F28
:105E5000C33009F0BBCF88E99AE30E94FC0CDF91C4
:105E6000CF911F910F91FF90DF90CF90089580E028
:105E70000E943009CDCF08954F925F926F927F922A
:105E80008F929F92AF92BF92CF92DF92EF92FF924A
:105E9000AC016C01F12CE12C560199248824E52FEA
:105EA000FF279A01DA010E943C3A2C0166247724EC
:105EB000920165E0369527956A95E1F7E29FC0016A
:105EC000E39F900DF29F900D11249A0174E0369596
:105ED00027957A95E1F7E20FF31FE40FF51F920182
:105EE0003695279536952795B4E056944794BA95FC
:105EF000E1F72419350950E040E02E0F3F1F411D06
:105F0000511DBC01E3E076956795EA95E1F7861BA4
:105F1000970B280F391F411D511DC701B6010E9463
:105F2000BC39680D791D8A1D9B1DFF90EF90DF9095
:105F3000CF90BF90AF909F908F907F906F905F9029
:105F40004F900895A3E0B2E0E8EAFFE20C94213B11
:105F5000CF5FDD4F8883C150D240162FCE5FDD4F1B
:105F60004883C250D2400E94B71BCF5FDD4F2881CB
:105F7000C150D240E22FF0E0E959FD4F9490892CB6
:105F8000880CE12FF0E0E659FD4FE491E7B915B830
:105F900094B8822F806480937C000E94460CCE5F70
:105FA000DD4F3881C250D2403170CD5FDD4F388334
:105FB000C350D240CE5FDD4F8881C250D240D92C31
:105FC00080FFD82CE0E2FE2E90E080E0C92CED2C82
:105FD000082D2D2D44E7BE016F5F7F4F0E943400D6
:105FE000FA9480E490E0F110F1CF14B81E0197E428
:105FF000290E311C73E2472E512C612C712CC12CBF
:10600000D12C7601812C912C5401F1018191919137
:106010001F01CD5FDD4FF881C350D240FF2329F02F
:1060200020E030E8281B390BC90126DF9C0150E035
:1060300040E0820E931EA41EB51EC301B2010E9451
:10604000BC39C60ED71EE81EF91E3FEF431A530A8D
:10605000630A730A84E74816510461047104A9F6BF
:10606000C501B40121E530E040E050E00E94FE3976
:10607000ABEBB7E10E94513AC61AD70AE80AF90A0F
:10608000A701960164E056954795379527956A953F
:10609000D1F760EE7DEC81EC9FE80E94FE3969014A
:1060A0007A01CE5FDD4F9881C250D24091FD20C071
:1060B000CF5FDD4F8881C150D240880FCF5FDD4F69
:1060C000E881C150D2408E0F1150810F90E0880FAF
:1060D000991FCD5FDD4FF881C350D240FF2379F087
:1060E0008A5D9C4F0E94BC3BC81AD90AE108F1089E
:1060F000C701B601CD5FDD4FE2E10C943D3B8C5C06
:106100009C4FF0CF4F925F926F927F928F929F92AF
:10611000AF92BF92FF920F931F93CF93DF93C0E094
:10612000FC2EFF0CFC0ED0E0FA94CD1709F440C011
:1061300042E06D2F8C2F06DF2B0143E06D2F8C2F5B
:1061400001DF4B010E94E20787EA90E00E9471099B
:106150000E941E098C2F0E941B098AE30E94F908E5
:106160008D2F0E941B090E941E090E94AF0724E088
:1061700040E26EEFC2010E94DD0B24E046E462EFD4
:10618000C4010E94DD0B0F2D0D0F10E0000F111F39
:10619000B201C8018C5C9C4F0E94CF3BB401C80186
:1061A0008A5D9C4F0E94CF3B0E942A090E94B7093A
:1061B000DF5FD33009F0B9CFCF5FC33009F0B0CF84
:1061C0000E94A90785EB91E00E9471090E942A09AB
:1061D0000E94B70988E20E94520CDF91CF911F9173
:1061E0000F91FF90BF90AF909F908F907F906F9096
:1061F0005F904F900895A2E1B0E0E1E0F1E30C94EC
:10620000213B2C017C836B83DD24D3942D2C312CFA
:1062100033E0D39E900111243E872D87F101EE0FCC
:10622000FF1FEE0FFF1FFC87EB87812C30E4932EBE
:1062300050E0712C612C18861F82B12CA12C1A827F
:1062400019821E821D8240E0C12CF0E0E0E030E0C7
:1062500020E061E070E08FEF90E082199309988B65
:106260008F870C2D10E08F8598890817190774F116
:10627000AB81BC81AB2B29F170E060E04230E8F0EB
:106280009501ED81FE812E1B3F0BA8EEB3E00E942D
:106290003C3AE981FA81AE1ABF0A950150E040E02C
:1062A0000E94FE3988EE93E0821B930B0E94B10D91
:1062B000BC0188EB9AE70E94D739AB81BC816D9312
:1062C0007C93C4016296E2E10C943D3BD801A20D9F
:1062D000B31DAA0FBB1FA40DB51D8D919C91E80F96
:1062E000F91FD801AA0FBB1FA40DB51D8D919C915C
:1062F000280F391FCD1408F48AC0D801A219B30998
:10630000AA0FBB1FA40DB51D0D90BC91A02D2A1B7B
:106310003B0BE81BF90B7901EE0EFF1EC9018E1B2A
:106320009F0B89879A87D701B695A795B695A795AC
:10633000A80FB91FB7FD76C0E217F30708F069C0D0
:10634000513009F066C0D80156E0AA0FBB1F5A951C
:10635000E1F7BA8BA98BDC01A61BB70BBD01A8170F
:10636000B90770F0A6E0880F991FAA95E1F780960B
:106370000E94D73989899A89861B970B9A8B898BBA
:10638000AD85BE85EA16FB0608F472CF8B859C8529
:1063900008171907BCF14423B1F069897A89661995
:1063A0007709433050F0D4019096C40196958795B3
:1063B0008A0F9B1F86179707D0F1D71650F4DD245C
:1063C000D394D70E23CFA989BA89B887AF83FE8229
:1063D000ED82AE0CBF1C4F5F4130F9F0842F81502D
:1063E000990BBC0195958795A989BA898A0F9B1F3E
:1063F000AF81B8858A1B9B0BDAD74B0169887A88F5
:10640000FA82E982453108F033CF50E002C0698753
:106410007A87C39469857A8524CF69887A88FA82D5
:10642000E982F3CF51E0E217F30798F78CCFEB81C5
:10643000FC81EF2B09F024CF44CFA6E2B2E0E3E2E7
:10644000F2E30C94253BF82ED62E87E593E00E94CC
:10645000BC3B3C01ED2DF0E0E959FD4F1491EF2DCF
:10646000F0E0E659FD4FE4911092B2051092B305A9
:106470001092B4051092B5051092B9051092B805A6
:106480001092BA051092BB051092BC051092BD0582
:1064900080911E01813009F0D0C080910201181650
:1064A0000CF4CBC018B8E7B90E94460C2D2D206C17
:1064B000D22E20937C000E94460CC12EE12C00E0DD
:1064C000212F4FEFBE016F5F7F4F80E191E00E946F
:1064D00034003F2D306CF32E30937C00212F44E1AB
:1064E000BE0161507E4F80E191E00E943400FE01C8
:1064F0003196BE0161507E4F5B01AE01475D5F4F3B
:1065000081919191D5016D917D915D019F01225005
:1065100031098617970708F495C0861B970BD90198
:106520008D939C93E417F50759F7D0927C0070E0A7
:1065300060E0CE0101965FDE9F5F30E1A32EBB24B9
:10654000B394912C812C913178F040E1A42E44E059
:10655000B42E52E0852E912C903430F090E1A92E8B
:10656000BA2C24E0822E912C88E0D82EA895C12E3A
:10657000E12C00E0212F4FEFBE016F5F7F4FC5017F
:106580000E9434008114910409F462C068EB75E044
:10659000CE01019630DE5C01813C9F4308F0B2C021
:1065A0006501F12CE12C9501D50166D723E330E09C
:1065B00040E050E023D7A8E6B2E073D73FEF831A5C
:1065C000930A76946794930150E040E017D7C40192
:1065D000880F991F04C0220F331F441F551F8A952F
:1065E000D2F72093BA053093BB054093BC05509376
:1065F000BD0580910B0190910C01A0910D01B0910E
:106600000E010397A105B10540F01092BA05109252
:10661000BB051092BC051092BD05A114B10409F090
:1066200074C01092B9051092B8051092BA05109274
:10663000BB051092BC051092BD05CA5DDD4FEEE0B2
:106640000C94413BD9011D921C926CCF5C018ECF02
:10665000C5018064DA94D110F9CF81159440C8F057
:106660008EEF8F3F09F492CFE82FF0E0EE0FFF1F7F
:1066700021E030E02C0F3D1FE20FF31F208131811C
:10668000A3E036952795AA95E1F7318320838150C1
:10669000E8CFF0927C00E894A6F808E0F02EC12E36
:1066A000E12C00E0212F44E1BE0161507E4FC50185
:1066B0000E9434006894A6F8FA94F110F0CF24E117
:1066C000215070F2822F90E0880F991FE1E0F0E0F6
:1066D000EC0FFD1FE80FF91F408151816FEF71E052
:1066E0006C0F7D1F860F971FDC018D919C914817C1
:1066F000590728F0481B590B51834083E1CF118281
:106700001082DECFB12CA12C4BCF27E030E028192E
:10671000390960E072E18AE790E004C0660F771FF4
:10672000881F991F2A95D2F7A701960167D6209353
:10673000B2053093B3054093B4055093B5058091ED
:10674000020187FD7ACF8FEF8093020176CFCF933E
:10675000DF93D82F0E94A90786E090E00E9471097C
:106760000E942A09C0E01092B7051092B60584E194
:106770000E94520C62E080E00E948E1C0E94AF07D3
:1067800024E046E464EF8091B6059091B7050E943D
:10679000DD0B6091B6057091B705CB018C539F401E
:1067A00085399547B0F4CF5FC530A0F087E593E019
:1067B000F6D70E941E0985EB91E00E9471090E94A4
:1067C000B70984E60E94520C0E94A907DF91CF917D
:1067D0000895C0E00E942A090E94B709DF5F19F6F8
:1067E000F3CFB0E0A0E0E6EFF3E32BC780E48AB993
:1067F0008BB9D6E8D0937A001092C1000E94320C77
:10680000C4B7C87084B7877F84BF0FB6F894A895C3
:1068100080916000886180936000109260000FBEDC
:10682000D093640088E380937E001092B00087E0EC
:106830008093B10078940E94E809C1118CC580E171
:1068400085BF4F9906C082E00E94520CCF5FCC33C7
:10685000C1F78FE59DE69093170180931601CF3124
:1068600030F080E69DE69093170180931601109218
:1068700030010E94E51F88E19FE00FB6F894A895CB
:10688000809360000FBE90936000CC3309F465C024
:1068900030E1632E40E1542E5DE5C52E55E0D52E46
:1068A00061E2262E72E1472EE0E23E2E0E94E207D0
:1068B00017B80E94FC0D0E94E51F0E94A9070E94C4
:1068C0005C1280913E05882391F00E94AF0780E51D
:1068D00091E00E94710963E080913301909134014D
:1068E0000E94E80B0E94B70988EC0E94520C0E949B
:1068F000AF070E94B71B80911E01893099F50E9455
:10690000E20785E591E00E9471090E94AF0763E00C
:1069100080910501909106010E94E80B0E941E09DA
:1069200063E080910701909108010E94E80B0E94AA
:106930001E0963E08091090190910A010E94E80B11
:106940000E94B7098AEC0E94520C81E10E94710EEC
:10695000C0911601D091170195C10E94962C81110A
:10696000FCCF96CF85E493E0FFD6C82F82E493E076
:10697000FBD6C81BC0933B0580E00E94710E0E94AD
:1069800051098EEB92E00E9471090E94B70942E022
:1069900061E080E00E94C91242E060E081E00E9474
:1069A000C91241E062E080E00E94C91241E060E06B
:1069B00082E00E94C91240E062E081E00E94C912B8
:1069C00040E061E082E00E94C91280911E018111C5
:1069D0000EC00E94B71B60E082E00E948E1C61E046
:1069E00082E00E948E1C60E081E00E948E1C0E946A
:1069F000E20723E435E03093410520934005809180
:106A00001E018630F9F485EC0E94B90860E188EF38
:106A10000E940D0C66E080E00E949C0785E992E0F0
:106A20000E94710966E082E00E949C0789E691E07D
:106A30000E94710962E080914705909148050E948B
:106A4000E80B86CF873071F484EC0E94B90860E1CE
:106A500088EF0E940D0C66E080E00E949C078EE9A2
:106A600092E0DECF8830C1F480918705909188054F
:106A7000890F9927991F029759F40E94402280910B
:106A80003B05882309F452C4D4E010E000E03BC485
:106A900080E00E947A215CCF833009F003C18091AD
:106AA0001C01813009F065C080E00E94CF0A60912E
:106AB0008D05809193050E94161280E70E94A70A17
:106AC00040E060918D05809193053CDA60937705F5
:106AD000709378058093790590937A0580E00E9401
:106AE0004A096091770570917805809179059091B8
:106AF0007A0502E026E442EF0E94FB0A8DE20E9442
:106B0000F90841E060918D05809193051BDA60934F
:106B10007705709378058093790590937A0526E43C
:106B200042EF0E94FB0A8DE291E00E947109809180
:106B30007305882309F40CCF67B817B880E00E946A
:106B40004A0930917305332309F4A2C380915A0591
:106B5000313009F039C30E94680A20915A0521306A
:106B600009F02DC320911C01211129C30E9402228A
:106B700086CF823079F582E30E94F9088DE191E0B9
:106B80000E94710990918D0530918E05931308C074
:106B900080E00E94EB0A81E00E94E20A81E08ECF51
:106BA0002091930580919405281307C080E00E94EE
:106BB000DB0A81E00E94F20AF1CF321306C081E0C5
:106BC000809311010E94BD0AB2CF98133CC050922D
:106BD0001101F8CF8330B9F533E33093110180917F
:106BE000930590918E05891303C021E02093110134
:106BF00040918D0530919405431302C050921101CC
:106C000020918F05821303C082E08093110180914F
:106C10009505481302C03092110132130CC0409206
:106C20001101981751F083E30E94F9088DE191E07A
:106C30000E947109C7CF981302C020921101809160
:106C40001101823280F384EA92E00E9471098CE89B
:106C500092E00E9471090E94AF0780911C01805D43
:106C60000E94F9088AE20E94F90887E391E00E94F5
:106C7000710982E792E00E94710986E00E94B908DA
:106C8000C0E4DFE167B80E94B7094F9BFECFCE0199
:106C90000E94FC0C823308F408C30E94962C8111D8
:106CA000FCCF04CE843009F057C180916C05882355
:106CB00009F45FC080915205882309F45AC060919D
:106CC0004F05809151050E948E1C80907705909011
:106CD0007805A0907905B0907A05C09189056091FA
:106CE0006B05809169050E948E1C809143059091EF
:106CF0004405A0914505B091460540915D05509130
:106D00005E0560915F0570916005843F21E0920708
:106D1000A105B10538F4443F31E053076105710521
:106D200008F0C0EF443F51406105710540F4843FD5
:106D30009140A105B10518F080EF809389058091FD
:106D400089058C1311C08091770590917805A091E9
:106D50007905B0917A0588169906AA06BB0630F027
:106D60002CE020931D0105C0C817D4F79DE0909337
:106D70001D0180916C05882361F080915205882364
:106D800041F04F9906C080911D0191E089278093C1
:106D90001D0166E080E00E949C0780EC0E94B9081B
:106DA00080911D018C3009F0C0C085E891E00E94FF
:106DB000710980916C05882319F080E70E94F90819
:106DC0000E94D70DC82F853090F4A0914005B09156
:106DD0004105E82FF0E0E357FA4F1D969C91808122
:106DE00060E0981362E088EB91E00E94E00860E1C7
:106DF00089EF0E940D0C86E00E94300984E991E041
:106E00000E947109E0914005F09141056081718116
:106E10008281938103E020E04EEF0E94FB0A87E02D
:106E20000E94300989E40E94F908E0914005F09140
:106E30004105868197818031974208F489C085E6B3
:106E40000E94F908E0914005F09141058681978103
:106E500080519742978386830E945509E0914005AF
:106E6000F091410522E041E46AEF868197810E941A
:106E7000DD0B86E00E9430098DE691E00E947109E9
:106E8000E0914005F091410563E0848195810E9485
:106E9000E80B81E080934205E0914005F0914105C7
:106EA00080859185892B91F085E00E944A098FEFBA
:106EB00090E00E947109E0914005F091410522E0C7
:106EC00041E46AEF808591850E94DD0BE0914005E9
:106ED000F091410582859385892B91F085E00E9490
:106EE0004A0989EF90E00E947109E0914005F09114
:106EF000410522E041E46AEF828593850E94DD0B23
:106F0000C53068F480E00E944A098C2F0E94CF0AA5
:106F100089E691E00E9471098C2F0E94990A43E44E
:106F200062E485E40E943B0A13CDD0924105C092F1
:106F300040058DEE91E00E94F6088DE791E00E94F9
:106F4000710980915205882309F43ACF8EE636CF35
:106F500083E60E94F90880CF853009F0F2CD66E023
:106F600080E00E949C0780911D01D82FD07184FF82
:106F700062C080E50E94F908D0924105C0924005A8
:106F8000D2E08DE20E94F90880911D01C82FCF70D8
:106F9000C43009F054C08FE991E00E94710983EC7C
:106FA0000E94B90886EF91E0D11165C00E94D70D0B
:106FB000853090F4A0914005B0914105E82FF0E0B4
:106FC000E357FA4F1D969C91808160E0981362E030
:106FD00088EB91E00E94E00860E189EF0E940D0CCF
:106FE00086E00E94300980911D0185FD60C085E624
:106FF00091E00E947109E0914005F091410562E045
:10700000828593850E94E80BE0914005F09141054F
:10701000668584850E948E1C86E00E9430090E944D
:107020008B0985E00E94A309C43009F0C6C04FE374
:1070300067E48FE377CF8EE40E94F908A2CF85FF43
:107040001DC084E40E94F908DF5FC330D9F489E9E8
:1070500091E00E94710981EC0E94B90883E492E0FA
:10706000D13049F08FE492E0D23029F08FE192E004
:10707000D33009F09BCF0E94F60898CF85E40E9498
:10708000F908E3CF84EA91E00E94710982EC0E9442
:10709000B9088FE092E0D13071F385E192E0D2300F
:1070A00051F3D33009F082CF8DEF91E0E4CFE0913E
:1070B0004005F09141058F70843009F44EC066851B
:1070C00084850E948E1C0E948B0960E084E00E94EF
:1070D0009C0789E40E94F9080E945509E091400547
:1070E000F091410522E041E46AEF868197810E9498
:1070F000DD0B8FE591E00E947109E0914005F09170
:10710000410562E0828593850E94E80BE09140058D
:10711000F091410580859185803C9241E0F480E0CA
:107120000E944A0989E40E94F9080E94550922E058
:1071300041E46BEF90E080E00E94DD0B8FE591E091
:107140000E947109E0914005F091410562E080855F
:1071500091850E94E80B80E065CF84819581892B21
:1071600009F4B3CF80E090E00E947109E0914005FE
:10717000F091410522E041E46AEF848195810E940B
:10718000DD0BA3CF80E00E944A098D2F0E94CF0A19
:1071900089E691E00E9471098D2F0E94990ADF5FB4
:1071A00080911C01D81770F344E467E483E5C33091
:1071B00009F0B8CE43E467E4B4CED0E0F1CF40E0CC
:1071C000692F0E94B020C4CB90915B0524E0929F70
:1071D000D0011124AA55BA4F24E0829FF001112456
:1071E000EA55FA4FED90FD900D911C91408151812F
:1071F00062817381282F4E155F056007710708F4BF
:10720000292F980FC3E0C91B3230E1F0C0915C0513
:1072100034E0C39FD0011124AA55BA4F84E0289FBF
:10722000F0011124EA55FA4F4D915D916D917C91D9
:1072300080819181A281B38184179507A607B70742
:1072400008F0C22F1C2F1695D2E0DC1B02E0C11102
:1072500001C001E0812F0E941B0988E191E00E949A
:1072600071098D2F0E941B0988E191E00E9471092C
:10727000802F0E941B0980E00E94300981E0C1112B
:1072800080E00E94720A82E0811B0E94720A60CB39
:107290008CE792E00E9471090E94AF0789EA92E0B0
:1072A0000E94710984EA92E0E6CC8111FFCAE7CB23
:1072B000F501E80FF91FC491C03209F4782E019648
:1072C00081319105A9F7DD2339F19D2F9370F92EB6
:1072D00011F40E94E20760E08F2D880F0E949C0746
:1072E000A895DF5FD370F12CE12CE71410F1CC23CB
:1072F000C9F0070D111DF801E359FD4FE491E0328B
:1073000011F40F5F1F4F90E080E020E1722E980192
:1073100023593D4F5901CCCF80E197E20E94FC0CEC
:10732000882399F280E197E20E94FC0C0E941F0ED4
:10733000BDCAF501EE0DFF1DC491CC2399F3CF3FDB
:1073400031F40E941E092FEFE21AF20ACECF8C2FE1
:107350000E94F908F8CF0E94A90789E692E00E94EE
:1073600071098BEC0E94520C0E941F0E90E080E08D
:10737000CDB7DEB7E2E181C1DB018F939F9391D05E
:10738000BF91AF91A29F800D911DA39F900DB29FC1
:10739000900D11240895991B79E004C0991F961748
:1073A00008F0961B881F7A95C9F780950895AA1B47
:1073B000BB1B51E107C0AA1FBB1FA617B70710F0E0
:1073C000A61BB70B881F991F5A95A9F78095909512
:1073D000BC01CD01089597FB072E16F4009406D04A
:1073E00077FD08D0E4DF07FC05D03EF49095819549
:1073F0009F4F0895709561957F4F0895A1E21A2ED1
:10740000AA1BBB1BFD010DC0AA1FBB1FEE1FFF1F48
:10741000A217B307E407F50720F0A21BB30BE40B98
:10742000F50B661F771F881F991F1A9469F76095DF
:107430007095809590959B01AC01BD01CF01089599
:10744000052E97FB16F400940FD057FD05D0D6DF1C
:1074500007FC02D046F408C0509540953095219520
:107460003F4F4F4F5F4F0895909580957095619570
:107470007F4F8F4F9F4F0895A29FB001B39FC001D0
:10748000A39F700D811D1124911DB29F700D811D50
:107490001124911D0895F0DFB7FF0895821B930B0F
:1074A0000895EADFA59F900DB49F900DA49F800DD5
:1074B000911D11240895B7FFF4CFF3DF821B930BC6
:1074C0000895E894DF93CF93FC01DB01D5DF7F9330
:1074D0006F93E9019A01AC01BF93AF933F932F9350
:1074E000DF01CADF26F46C1B7D0B820B930B9E0120
:1074F000EB01FC01DDD0AF91BF912F913F91D8D02E
:10750000BE01CF01F9012F913F91CF91DF910895F5
:10751000689401C0E894F92FF12B0AF027C0A0E08D
:10752000B0E0E4E9FAE393C0092E05941AF479D0A7
:10753000112392F4F0E80F26FFEFE094F094009509
:107540001095B094C094D094A194BF0ACF0ADF0ADA
:10755000EF0AFF0A0F0B1F0B13D007FC62D0CDB749
:10756000DEB7ECE090C0689401C0E8948F929F92DF
:10757000CF93DF9305D0DF91CF919F908F900895A7
:1075800088249924F401E401B0E49F93AA279A1572
:107590008B049C04ED05FE05CF05D007A10798F4E8
:1075A000AD2FDC2FCF2FFE2FE92D982C892E982F71
:1075B000872F762F652F542F432F322F2227B85035
:1075C00031F7BF9127C01B2EBF91BB27220F331F5E
:1075D000441F551F661F771F881F991F881C991C01
:1075E000EE1FFF1FCC1FDD1FAA1FBB1F8A149B04A9
:1075F000EC05FD05CE05DF05A007B10748F08A18A8
:107600009B08EC09FD09CE09DF09A00BB10B216035
:107610001A94E1F62EF49401AF01BE01CD01000CE5
:10762000089560957095809590953095409550950A
:1076300021953F4F4F4F5F4F6F4F7F4F8F4F9F4F62
:1076400008952F923F924F925F926F927F928F9206
:107650009F92AF92BF92CF92DF92EF92FF920F93E1
:107660001F93CF93DF93CDB7DEB7CA1BDB0B0FB6EB
:10767000F894DEBF0FBECDBF09942A8839884888A8
:107680005F846E847D848C849B84AA84B984C8843E
:10769000DF80EE80FD800C811B81AA81B981CE0F35
:1076A000D11D0FB6F894DEBF0FBECDBFED0108951A
:1076B000E3DE460F571FC81FD91F08F431960895FF
:1076C000BB27FA01A62F6217710581059105330BBF
:1076D00030FB66F0AA27660F771F881F991FAA1F25
:1076E000A21710F0A21B63953850A9F7A05DAA332A
:1076F00008F0A95DA19336F7B111B1931082CA01C8
:1077000023C04532510518F4423008F004C0FB0193
:107710001082CB010895BB27FB015527AA27880FAC
:10772000991FAA1FA41710F0A41B83955051B9F7F5
:10773000A05DAA3308F0A95DA193009779F7B11174
:10774000B1931192CB0100C0DC01FC01672F719154
:107750007723E1F7329704C07C916D937083629137
:10776000AE17BF07C8F30895F999FECF92BD81BD4A
:10777000F89A992780B50895A8E1B0E042E050E07A
:1077800013C0262FF999FECF1FBA92BD81BD20BD2F
:107790000FB6F894FA9AF99A0FBE01960895F1DFA0
:1077A000272FF0CFDC01CB01FC01F999FECF06C0F9
:1077B000F2BDE1BDF89A319600B40D9241505040AF
:0877C000B8F70895F894FFCF1B
:00000001FF
