:100000008FC100009FC100009DC100009BC1000086
:1000100099C100000C94E62195C1000078C600004B
:1000200091C100008FC100000C9428180C94CA21C3
:100030000C94D8210C94021885C1000083C10000E3
:100040000C94A4217FC100007DC100007BC1000091
:1000500079C100005DC6000075C1000073C10000D9
:1000600071C100006FC10000E62FF72F903009F436
:100070009395E5B8C4B8B6EFB0937A00A5E0A09325
:100080007B00A8E0A093810010928000AFEFA093C6
:100090008500A0938400A6E0A093360010928B0008
:1000A00010928A00B3E0AFE3A91B51E0392F33303F
:1000B0002AF0A05CBC4F53953350F9CFB093890020
:1000C000A0938800A0917A00A4FFFCCFB6EBB09378
:1000D0007A00A2E0A0936F00A9E0A093810062E003
:1000E000A0E0A0937B00A1E0A09353008895E5B821
:1000F000C4B884FF1AC0A8E10000AA95F1F7EF93F5
:10010000FF93E7B1F8B1A4E0C2FCA2E0C0FCA1E01B
:10011000BF2FBA2BAE2BB8B904B9A7B9E7B9F8B954
:10012000FF91EF910BC00C947300ACE10000000054
:10013000AA95F1F725B9E5B8000004B9A0918400AB
:10014000A0918500B0918900A395AB1760F7A091AD
:100150007A00A4FFF3CFB6EBB0937A006A9571F7FB
:100160006091780070917900308186FD630F619312
:10017000308186FD731F80FF7193652F4A9579F753
:1001800010926F0010928100B6E0B0937A0008954B
:100190000104100102044E6F742063616C69627285
:1001A000617465642120466F72FF63616C696272DD
:1001B0006174696F6E20636C616D70207468652076
:1001C00033FF70696E7320746F67657468657220A1
:1001D000616E64207374617274207769746820742E
:1001E0006865FF6B65792E2041636B6E6F776C6578
:1001F000646765207468652073656C662D7465732B
:1002000074207769746820746865206B657920773D
:10021000697468696EFF32732E20446973636F6E70
:100220006E6563742070696E7320616674657220F8
:10023000746865FF6D657373616765202269736F0C
:100240006C617465FF50726F6265212220697320B2
:1002500073686F776E2E20536F66747761726520B6
:10026000616E6420646F63756D656E746174696F2F
:100270006E2069732061742073766E3A2F2F206D83
:10028000696B726F636F6E74726F6C6C65722E2027
:100290006E65742F7472616E736973746F722074FB
:1002A00065737465722000B903870358032E030732
:1002B00003E402C302A40288020000140029003EE5
:1002C000005300690080009700AE00C600DF00F810
:1002D0000012012D01490165018201A001BE01DE6C
:1002E00001FF012102440268028E02B502DE02090A
:1002F00003350364039403C803FE0337047304B493
:1003000004F90443059305EA054906B3062907AE37
:10031000074808FF08DE09FD0A930C480F991B00E7
:1003200011241FBECFEFD8E0DEBFCDBF21E0A0E09B
:10033000B1E001C01D92AA3BB207E1F70E94D72CA1
:100340000C9470345DCE80FD5F9A80FF5F98579A61
:1003500000005D9A559A5C985B985A98599864FD8C
:100360005C9A549A65FD5B9A539A66FD5A9A529A22
:1003700067FD599A519A00005D9847D387FD10C0D8
:100380005D9A5C985B985A98599860FD5C9A61FDFB
:100390005B9A62FD5A9A63FD599A00005D9835C3D5
:1003A000089580913B01809300018091A101809389
:1003B0000201089590913B019F5F90933B01682F4C
:1003C00081E0C1DF19D3A89508958F5CF3CF08951C
:1003D00080E2F0CF0895CF93C82F1C1614F0CF9170
:1003E0000895F6DFC150F9CF8DE3E4CF0895682F6B
:1003F00080E0A9DF01C308951092A10180E8F7DF32
:1004000010923B01089581E08093A10180ECEFDF21
:1004100010923B01089582E08093A10180E9E7DF1B
:1004200010923B01089583E08093A10180EDDFDF0E
:1004300010923B01089560933B01813021F480ECE0
:10044000860FD5CF089580E8FBCF609100018091A1
:100450000201F1CF089581E0CADF82E0D8D2CCCF8B
:100460000895CF93DF93EC018991811103C0DF914F
:10047000CF9108959FDFF8CFCF93DF93EC01FE017A
:100480008491982F9F7719F095DF2196F8CFDF910F
:10049000CF910895CF93DF93EC01CE010E944234B7
:1004A000982F9F7719F086DF2196F7CFDF91CF91B4
:1004B00008950F931F93CF93DF93EC0128968C013F
:1004C0000F5F1F4F0E94423475DFC8010C171D07D4
:1004D000B1F7DF91CF911F910F910895CF9384E1F0
:1004E00096D283E384DF82E382DF82E090D284E1EC
:1004F00093E00E944234C82F89E279DF89E277DFF6
:100500008CE175DF8C2F82958770806570DF8EE6B9
:100510006EDF8C2F8F7080676ADF88E268DF9BDF79
:100520008CE065DF86E063DF88E461DF8CE590E0E6
:10053000C0DF80E55CDF84E590E0BBDF88E557DF66
:1005400084E690E0B6DF88E752DF8CE490E0B1DF2C
:1005500080E74DDF84E490E0ACDF88E648DF84E3A9
:1005600090E0A7DF80E443DF8CE390E0A2DFCF914F
:10057000089590913B0180E1891B2DCF0895CF9381
:10058000C82FF7DF8091A1018F5F8093A101823096
:1005900058F081E08093A10180933E016C2F8091FF
:1005A000A10149DFCF91089510923E01F7CFE7DF17
:1005B00011C3089521DFDDDF1FCF089524DFD9DFC8
:1005C00022CF089508950F938DE791E063DF409166
:1005D00085014D3F6CF460917301709174018091BD
:1005E00075019091760103E026E4EAD00F91089519
:1005F0008FE3E0DEFBCF909119019F70923071F490
:10060000D6DF8CE690E046DFE0913C01F0913D01C1
:1006100022E04EE16FEF84819581B4C1089597FF88
:1006200009C08F939F938DE2C5DE9F918F91909526
:1006300081959F4F61E271E04AE050E00E940F34E3
:1006400010CF0895ECDF01C0EADFC2CE0895EF922B
:10065000FF920F931F93182F062FF42E8CE691E034
:1006600019DFEE24E0913C01F0913D018685E8160A
:1006700011F4812F09C08485E81611F4802F04C07D
:100680008585E81611F48F2D95DEE3948E2D833049
:1006900049F71F910F91FF90EF900895682F80E028
:1006A00092E0662309F491E0623009F481E0089554
:1006B0000F93082FE2EAF1E0880F880FE80FF11D91
:1006C0006081718182819381643671058105910514
:1006D00070F42091010127FD0AC0802FDFDF692F10
:1006E0000E94B61D6EEF23E04EE14CD104C04FEFE7
:1006F00004E02EE165D06CDE0F910895863058F449
:10070000E5E9F1E0E80FF11DE80FF11D808191812D
:1007100063E043D15DCE08951F93182F80916F0140
:10072000882319F055DE80E045DE6DDE83E691E03A
:10073000B1DE812F82958F70E1DF812F8F70DEDF38
:100740001F91089580910D0182958F7019D080912D
:100750000D0183701CD080910D01DECF0895E9E872
:10076000F1E0E80FF11D0895CF93F9DF9081C68184
:10077000C91710F405D001C013D02ADECF91089517
:10078000EEDF8F93808121DE8F9101C008958F93DA
:100790008FE291E07FDE8F91E2DF868116CE0895B1
:1007A000DEDF8F93868111DE8F9101C008958F93D4
:1007B0008BE291E06FDE8F91D2DF808106CE0895CB
:1007C000AEE0B0E0E6EEF3E00C94AF33142F622E0F
:1007D000702E6B017C010F7080E389838A838B8389
:1007E0008C838D838E83F7FE40C08DE2E3DDF09431
:1007F000E094D094C094C11CD11CE11CF11C68EEA3
:10080000862E63E0962EA12CB12C033041F150E1ED
:10081000852E57E2952EA12CB12C043001F140EA2F
:10082000842E46E8942EAA24A394B12C0530B9F066
:1008300030E4832E32E4932E3FE0A32EB12C063019
:1008400071F074E6872E912CA12CB12C073039F46D
:1008500020E8822E26E9922E28E9A22EB12C9AE0D9
:10086000292E312C412C512C12C075FEC8CF8BE2A1
:10087000A1DDC5CFC701B6016B5F7F4F8F4F9F4F83
:10088000A20191010E948C3269017A011F5FC81494
:10089000D904EA04FB0470F781E1810F9BEA899F88
:1008A000812D1124A82EA69486E0811B899F112DED
:1008B00011241695912F990F190F811B182F4E0196
:1008C00087E0880E911C2AE0A401C701B6010E94AE
:1008D000EE33F40101900020E9F731977F01E81829
:1008E000F9089E2C6701DD24812F90E004968C1579
:1008F0009D0514F4A3941D5F8A2D90E0845D9F4FA5
:100900000E944234A82E74FE29C0901638F50E19A4
:100910008E2C811A800E181424F08EE24BDD012FEC
:100920000E19111102C088EF882E912C10E0C00E14
:10093000D11EE82C082C000CFF08E92DF0E0EC1586
:10094000FD0574F0AA2011F08A2D34DD662011F027
:10095000862D30DD2E96E2E10C94CB3300E0D8CF2B
:100960003696E01BF10B81E090E08C0F9D1FE80FA5
:10097000F91F80811FDD93949E141F04F1F68EE20F
:1009800019DDDBCF0F93362FBC0190E080E0022F02
:10099000242F432F15DF0F9108950F93062FBC01CD
:1009A00090E080E026E54DEF0BDF0F9108950F9367
:1009B000042F28E440E004DF8AE7FCDC09DD0F9126
:1009C0000895089503D002D001D000D000D003D004
:1009D00002D001D000D000D003D002D001D000D08E
:1009E00000D0A89503D002D001D000D000D003D011
:1009F00002D001D000D000D003D002D001D000D06E
:100A000000D003D002D001D000D00000089590E0C3
:100A1000893C28F0885C48EC849FC0011124009731
:100A200009F4089520918100277019F0DADF019709
:100A3000F6CF8130910519F002973EE303C037E10C
:100A400080E090E02091B200230F2093B30042E0B9
:100A50004093700027E023BF889526E023BF1092C3
:100A60007000A895DCCF8F9384E0D1DF07C08F930F
:100A700082E0CDDF03C08F9381E0C9DF8F911F93A8
:100A8000182F106410937C00E12FE07880912C01E6
:100A9000E81759F0E0932C01AEDF8EE980937A00DD
:100AA00083E083BF889582E083BF20E030E0A90126
:100AB000E0E01FC08EE980937A0083E083BF8895D1
:100AC00082E083BF6091780070917900260F371F14
:100AD000411D511DE43061F480912E01803041F0C0
:100AE00084E02030380720F417FD02C01068CACF18
:100AF000EF5F80912B01E817E8F260912F01709170
:100B0000300117FF04C060912D0170912E0180E02B
:100B100090E00E944A322FEF33E040E050E00E9424
:100B20008C32B901CA0120912B0130E040E050E045
:100B30000E948C32C9011F9108959B01281B390B1B
:100B400050F0C9010895BC0180912F0190913001AE
:100B50006817790718F4861B970B089580E090E0DA
:100B60000895EF92FF920F931F93CF93DF93F82E88
:100B7000E92EC5E6489B1CC0CF2DDE2D15E500E013
:100B8000D7FD10C082E043DF110F489B1F5F1F732A
:100B90001F3399F4011103C0CF2DDE2D04E00F5F48
:100BA000083C78F0802FCDB7DEB7E6E00C94D73361
:100BB00081E02DDFC150F1F6DFCF111102C001112C
:100BC000F1CFA8951C161D06DCF62A97C9F6CFEFC3
:100BD000DFEFD6CFCF93E5DBC82F80913E0188238E
:100BE000C1F0813049F4C13039F46FE024DC8BE28C
:100BF000E1DB6FE081E01FDC80E49FE1B2DFC13028
:100C000039F480913E01813019F460E014DCB1DCEC
:100C10001CDCCF9108958DE393E00E944234382F7D
:100C20008EE393E00E94423420913301230F3091F0
:100C30003401381F209316013093170183E0283EBA
:100C4000380720F0C901885E934002C080E090E040
:100C500062E370E00E946532683008F067E0E7EA1E
:100C6000F2E0E60FF11DE60FF11D4591559125913A
:100C7000359162E3681B421B530B649FC001659F63
:100C8000900D1124499662E370E00E946532620F74
:100C9000731F70937201609371018FE393E00E9460
:100CA0004234992787FD909560913301709134010A
:100CB000860F971F90932E0180932D0190936E01C4
:100CC00080936D010895CF93DF9324E130E0B90163
:100CD0000E946532DC01E9EBF2E0E60FF71FE60F58
:100CE000F71FC591D591459155914C1B5D0B4A9FBE
:100CF000C0014B9F900D5A9F900D1124B9010E9485
:100D000065326C0F7D1FCB01DF91CF91089518954F
:100D1000189540911801A0913C01B0913D01E9E87E
:100D2000F1E030E020E0822F2417B0F451911C96BE
:100D30009C911C97591719F05581951303C02F5F8B
:100D40003F4FF1CF220F331FF901EB56FE4F2081A9
:100D50003181293E334008F084E1089510921A0150
:100D6000109218011092680110924E011092190110
:100D700010923A0110926F01E3E5F1E010821182C6
:100D80001282E3E7F1E0108A82E0818B1092010188
:100D900017861686148215821682178281EF838B3E
:100DA00008955E9812DE90E080E0DBCE08951F93F8
:100DB000CF93DF93162F17B818B8E82FF0E0E0575D
:100DC000FE4F949195B9262F281BE20FF11D27FDA8
:100DD000FA95E491E92BE4B952DEEC01812F4FDE64
:100DE000AC0120912F013091300136952795C90132
:100DF0000397BE01625E7F4F8617970778F4255EE2
:100E00003F4FC217D30750F4BA01625E7F4F861777
:100E1000970720F481E04217530708F080E014B8E8
:100E2000DF91CF911F910895CF9361E080E0BFDF04
:100E3000C82F62E080E0BBDFC80F62E081E0B7DF6F
:100E40008C0FCF910895AFE0B0E0E9E2F7E00C94A9
:100E5000AF33B82E10921A01807FB9F4E5DF8330EA
:100E600081F4F9DA8CE492E015DBCDDA8FE3A2DAD3
:100E700080ED97E076DE8B30B0F4EDDA8DEF90E028
:100E800009DB2F96E2E10C94CB3306E910E0E3DABC
:100E90008BEB91E0FFDAC8DF833009F068C01F5F99
:100EA000143008F465C0AFDA0E94891889EB90E02D
:100EB000F1DA60E087E193E00E944F3460E088E17E
:100EC00093E00E944F3460E086E193E00E944F344B
:100ED00060E082E00E94B61D6C019A83898361E024
:100EE00082E00E94B61D7C019C838B8360E081E0E0
:100EF0000E94B61D8C019E838D8323E040E26EEF3D
:100F0000C60140DD23E040E26EEFC7013BDD23E098
:100F10004EE16EEFC80136DD2AE5C216D10424F099
:100F200084E190E09A838983698187E193E00E945C
:100F30004F348AE5E816F10424F084E190E09C83C4
:100F40008B836B8188E193E00E944F340A35110551
:100F500024F084E190E09E838D836D8186E193E0AF
:100F60000E944F3482E080933E0134DE06C010E0E0
:100F700088E24DDD015009F08ACFEB2DEF70EF874D
:100F8000E13009F04CC0EE24E394F12C78EB872E8D
:100F900072ED972E77E4A72EB12C02E0E8E0DE2E6A
:100FA000F0E23F2EC12C1E2D50E3252E07DB02DB85
:100FB00084E500DAC7013EDB0BDA113009F0C2C16B
:100FC0008CEE90E067DA64E0809133019091340117
:100FD000E4DC19DA87EE90E05DDA8091710190919E
:100FE000720128DB8EEB80932B0117B818B814B868
:100FF00015B888EE93E0B5DD143011F08B3020F495
:10100000C39484E0C812D2CF88EE93E0AADDEFEF5C
:10101000EE1AFE0AF8E0EF16F10409F0C3CF18E764
:1010200003DF882341F0CADA8CE392E033DA84E606
:10103000EEDC1150A9F70FDA82EB90E02BDA23E017
:101040004EE16FEF80913101909132019BDCDBD951
:101050008BEA90E01FDA23E04EE16FEF80913801D8
:10106000909139018FDC82E080933E01B3DD1092D4
:101070001A01F1D987EA90E00DDA60E082E00E947F
:10108000321580907B0190907C01A0907D01B09002
:101090007E019C868B8661E082E00E943215C090C2
:1010A0007B01D0907C01E0907D01F0907E01DE8696
:1010B000CD8660E081E00E94321500917B011091A5
:1010C0007C011E830D8362E080E00E9432158091D6
:1010D0007B0190917C019C838B8362E081E00E9484
:1010E000321580917B0190917C019A87898761E01C
:1010F00080E00E94321580917B0190917C019A835F
:1011000089832F85213029F020913701223009F081
:10111000FDC1029698878F83C40196DAC60194DADE
:10112000B801110F880B990B03E026E444EF48DB6C
:101130008E010F5F1F4F9E01215F3F4F7801F70126
:10114000819191917F010A97853B9105C8F42E17F3
:101150003F07A9F746E3C42E43E0D42EF80160818F
:101160000E5F1F4F6E5EC6010E944F34FFEFCF1A15
:10117000DF0A0E151F0591F746D98FE991E08AD94C
:1011800082E080933E0126DD0E9472292F85213066
:1011900029F080913701823009F0BFC05CD980E02E
:1011A00014D985E591E076D982E00FD984E290E008
:1011B00071D920E4F22E10E03AE0832E912CA12C7C
:1011C000B12CCCDD10921A0160E082E00E94321551
:1011D0000091850120917301309174014091750156
:1011E00050917601073F0CF499C10093850120933B
:1011F0007301309374014093750150937601073F5A
:1012000009F094C120563109410951092039354569
:101210004105510508F08AC16091870170918801EC
:10122000CB018B569F4F8B32914008F07FC11F5FDF
:10123000153008F47CC18DE393E00E945D340BD936
:101240008DE190E027D98091870190918801E7D9BD
:10125000E2DC18B881E087B980E284B982E00FDC73
:10126000853D9340DCF714B810922E0110922D01A9
:1012700082E005DC7C0180916D0190916E0190937C
:101280002E0180932D0182E0FADB6C01CC0CDD1C79
:1012900010922E0110922D0182E0F1DB4C01A09002
:1012A0006D01B0906E01B0922E01A0922D01ABD8CD
:1012B00086E190E0EFD88FE393E00E944234182F4C
:1012C000D701A80DB91DAC19BD0995010E94D932ED
:1012D00096010D2C000C440B550B0E94AE321D5F85
:1012E000120F612F8FE393E00E944F34812F012E64
:1012F000000C990B94D98FDC82E080933E016ADC6C
:10130000109237018CE073D886E393E00E94423458
:10131000682F89E393E00E944F3489E180932B0189
:1013200080E00E94912C97D88DEF90E0B3D86BD8D5
:1013300083E392E0AFD810921A0182E080933E01DD
:1013400049DC9FCD123081F520912F013091300181
:10135000A8E5BBE10E94CA3224EC36E340E050E04D
:101360000E94AE3229013A0181E085B9F5E0F4B975
:1013700080E079DB841995099A83898381E184B9B6
:1013800080E071DB841995099C838B8384E085B9A7
:1013900084E184B981E067DB841995099E838D839C
:1013A00081ED90E077D833C0133049F505B92AE0D4
:1013B00024B980E058DB20912F013091300136951F
:1013C000279538872F83821B930B9A83898382E228
:1013D00084B980E048DB2F813885821B930B9C8386
:1013E0008B83D5B8E8E2E4B981E03DDB2F81388515
:1013F000821B930B9E838D8383EC90E0D3CF1430BC
:10140000B1F48CE392E046D80FDD8111A6C00E94B2
:10141000030289819A8103D90E94E8018B819C8112
:10142000FED80E94E8018D819E81F9D8DECD15306D
:1014300099F415B804B980E016DB9A838983D4B88F
:1014400081E011DB9C838B8334B882E00CDB9E83CC
:101450008D8383EE90E0A6CF163039F504B905B937
:1014600080E001DB20912F0130913001821B930B32
:101470009A838983D4B8D5B881E0F5DA20912F0119
:1014800030913001821B930B9C838B8334B835B829
:1014900082E0E9DA20912F0130913001821B930B19
:1014A0009E838D838FED90E07DCF173059F520918D
:1014B0002F0130913001A8E5BBE10E94CA32A5019D
:1014C00094010E948C3229013A0105B9F3E0F4B984
:1014D00080E0C9DA841995099A838983D5B82CE00C
:1014E00024B981E0C0DA841995099C838B8335B8CF
:1014F00024B882E0B8DA841995099E838D838DEB38
:1015000090E050CF113009F082CF6FCD98878F8354
:10151000109237018CE00E94F701FECD0F5FCA01E7
:10152000B901A50194010E948C325CCE10E00E94AA
:101530000302609173017091740180917501909123
:10154000760104E026E4409185013AD912D888E278
:101550005EDAFA94F11035CEE0CE82E0C82E57CF95
:101560008091370181110DC086E393E00E944234DF
:1015700061E0680F89E393E00E944F3481E080933B
:1015800037010895EF92FF920F931F93CF93DF934C
:10159000D62FE82FF0E0ED56FE4FE491E8B9E7B919
:1015A00015B8E62FF0E0E057FE4FE491E4B9CE2FF6
:1015B000CC0F88E8E82E83E1F82E8D2F54DA8C01C9
:1015C000C4B98E159F0500F1892BC9F083E391E022
:1015D0000E944A02D80120EA36E841E050E00E9429
:1015E000DF3228E937EB40E050E00E948C32C9013D
:1015F00022E041E467EFC6D917B818B814B8CDB7E0
:10160000DEB7E6E00C94D7337801D7CF0F931F9362
:10161000CF93DF9385E033DA85E02DDA8C01EC019E
:10162000CC0FDD1FCC0FDD1FCA56DF4F10923501E6
:10163000C43883E0D80770F483E991E00E944A023D
:101640000E94B90281E080933501DF91CF911F9113
:101650000F91089582EA91E00E944A0262E0CE0171
:101660009CD90E94E8010A3F86E01807A0F40333E2
:10167000164050F485EA92E00E944A020E94B902A4
:101680008DECC5D98EDBE1CF8CEA92E00E944A0254
:101690000E94B902DACF8FE991E0F8CFFC019C01FA
:1016A000261B370BCA0170E060E0A901460F511DEF
:1016B000452F5527620F240F351FAC01470F511DD1
:1016C000452F5527780FDA01AA0FBB1F8A0F9B1FE2
:1016D0004B3E20F4E217F30740F7089590E080E0D6
:1016E0000895A7E1B0E0E7E7FBE00C94AF338E8B01
:1016F000162F042FA895E62FF0E0E057FE4F249117
:101700002D87220F2D8B339634913A83E42FF0E00E
:10171000E057FE4F44914B833396F490E82FF0E06E
:10172000E057FE4F84918983880F8E87339694917A
:101730009F8B45B96D84642A64B897B998B9862F90
:101740009AD96C01ED85E4B9812F95D9782EE92ECF
:1017500014B846D915B864B8812F8DD9B601EDD922
:101760004C01FA81F7B918B82B813981232B2C83CE
:1017700025B924B98E897FD9E6D95C0115B830D94D
:10178000498145B98E8977D9DED99C878B87898134
:1017900084B98E8970D9D7D91C016B857C85C50128
:1017A000CCD98032E1E09E0730F4F0E28F16F1E010
:1017B0009F0608F44AC62B853C85820E931E8C0D2D
:1017C0009D1D8816990620F0DC86CB86272C3E2CA2
:1017D00020914E0180916801820F9927991F0297ED
:1017E0004CF0213009F06CC590914B01809165015E
:1017F000981366C5EB80EE0C7D847E2839813E29E6
:101800003A878B859C858437910508F47AC10A96BE
:10181000880F991F2816390608F073C19F8997B958
:1018200098B974B8812F23D96C01802F28D95C0115
:10183000E5B8812F1CD99601295A3D4F18B82817B1
:10184000390708F0A5C0EA81E7B9FA85F4B9F5B916
:10185000802F0DD988349F4008F495C085E080938F
:101860001A0182E280931901D0924401C09243018F
:10187000B501C6016DD990934A0180934901960143
:10188000A0E1B7E20E94CA32209114013091150103
:1018900050E040E00E948C32309346012093450195
:1018A0008D898E2984B915B83F8937B938B9802F09
:1018B000E6D86C01812FDBD8B6014AD99C01909300
:1018C000480180934701909119019F70943069F508
:1018D00040914501509146016091490170914A0142
:1018E000C901DCDE0097E9F0E4B84F898A81482B12
:1018F00047B9812FBCD86C0117B89C01A0E1B7E2B1
:101900000E94CA32209138013091390150E040E004
:101910000E948C32A901B601809147019091480143
:10192000BDDE9093440180934301809119018F7033
:10193000843019F118B89A81F92AF7B8E981E4B925
:10194000FC81F5B98E8997D86C01FDD87C01812F77
:1019500096D8A0901B01B0901C01BC01C601F8D81C
:101960009501DC010E94CA32970150E040E00E94DC
:101970008C32309344012093430180914E018F5F5C
:1019800080934E012BC385E080931A0184E26ACFD5
:101990002A8127B93A8534B935B98E8968D86C015E
:1019A000802F6DD85C01498145B98E8960D8895AEC
:1019B0009D4F8C159D0508F083C48F8988B987B920
:1019C000802F55D8813D934008F096C085E08093E4
:1019D0001A0182E380931901B601C501B9D8909329
:1019E000640180936301C601AED89C01A0E1B7E217
:1019F0000E94CA3220911B0130911C0150E040E04E
:101A00000E948C323093600120935F0118B8FA81F4
:101A1000F7B98E858E2984B985B98E8930D86C0145
:101A2000802F25D8B60194D89C01909362018093B1
:101A30006101909119019F70943081F540915F018F
:101A4000509160016091630170916401C90126DECB
:101A5000009701F1E5B8E4B82F8928B9EA81E22BB3
:101A6000E7B98E8904D86FD86C0117B89C01A0E142
:101A7000B7E20E94CA32209131013091320150E028
:101A800040E00E948C32A901B601809161019091E1
:101A9000620104DE90935E0180935D0180911901E3
:101AA0008F70843019F13F893F2938B937B915B89B
:101AB0004C8144B98E890E943B055C01812F0E94B4
:101AC0003F057C01C0901401D0901501BC01C501F7
:101AD0003FD89601DC010E94CA32970150E040E0F5
:101AE0000E948C3230935E0120935D0180916801E9
:101AF0008F5F809368010FC185E080931A0184E3B2
:101B000069CF18B88A8187B9998195B9EA85E4B90E
:101B10008E890E943B05988B8F8715D89F838E8373
:101B2000802F0E943F05998788872101F4E64F0E98
:101B3000511C2E813F81B1014216530608F0EDC0C1
:101B4000C90106D86C0120911B0130911C0150E0A5
:101B500040E060E871EA83E09CE10E948C32D601AB
:101B60000E94DF32E885F9859F0150E040E00E9445
:101B70008C3249015A0114B815B8FF89F8B9F7B980
:101B800081E00E94070564B8812F0E943B058F35D4
:101B90009D4008F468C174B8812F0E9437056C011C
:101BA000802F0E943F059A8B898B8E890E943F056A
:101BB0009C8B8B8B89899A89813D974008F4E0C082
:101BC00084E080931A018DE08093190176012C1432
:101BD0003D0410F4E218F3084090140150901501F0
:101BE000712C612C60E871EA83E09CE1A301920111
:101BF0000E948C32D7010E94DF32E989FA899F0165
:101C000050E040E00E948C3280916801882371F09E
:101C10008091590190915A01A0915B01B0915C01B2
:101C200082179307A407B50708F096C020935901BF
:101C300030935A0140935B0150935C019601A0E1FF
:101C4000B7E20E94CA32A30192010E948C32309303
:101C5000600120935F0169897A898B899C890E9440
:101C6000A80590935E0180935D0181E04091590148
:101C700050915A0160915B0170915C0148155905C2
:101C80006A057B0508F06AC08092590190925A015A
:101C9000A0925B01B0925C01688579858F859889F7
:101CA0000E94A80590935E0180935D012E813F8183
:101CB000A0E1B7E20E94CA3220911B0130911C01C1
:101CC00050E040E00E948C32205F384D309360013C
:101CD00020935F01C0901401D0901501F12CE12CEC
:101CE0009101A0E1B7E20E94CA32A70196010E94C9
:101CF0008C3230936201209361012B853C85A0E1F9
:101D0000B7E20E94CA32A70196010E948C3230933A
:101D100064012093630181E023C08E819F810E9432
:101D2000A8056C01FC81F4B98E890E943B05988B53
:101D30008F870E94A3059F838E83802F0E943F057B
:101D400099878887BC01C6010E94A8059C01A4E66A
:101D5000B0E00E94CA3206CF80E088CF8111BACFAE
:101D6000909168019F5F90936801882309F462C392
:101D700000936501109366014E89409367015AC331
:101D8000F1E62F16310408F06EC021EDC21627E0EF
:101D9000D20608F468C085E080931A0182E180933E
:101DA0001901C60186509F4FEB89FC898E179F074A
:101DB00008F042C083E180931901FA81F770BF2EC9
:101DC000802F806480937C002BE02983CC24C394F3
:101DD000D12CEE24EA94A3E0FA2EA89561E08B8141
:101DE00052D574B886B18B21E9F33D8534B9809121
:101DF0007A00806480937A0080917A0086FDFCCF1F
:101E00008091780090917900F701E81BF90BCE0ED4
:101E1000DF1EF981F150F983F111DFCFC601880F80
:101E2000991F880F991F69E070E00E9465327093D6
:101E30006401609363015ACEE0901401F0901501A3
:101E4000B6018B899C890E94A8059701DC010E943C
:101E5000CA32960150E040E00E948C3230935E011D
:101E600020935D01AACF74B8E5B8812F0E943B058D
:101E70005C01802F0E943F059F838E830E94A305F3
:101E80007C014A145B0408F0ABC0B101C5010E949B
:101E9000A8056C01209114013091150150E040E03B
:101EA00060E871EA83E09CE10E948C32D6010E94D6
:101EB000DF32970150E040E00E948C3229013A0164
:101EC0003A8137B918B84C8144B945B98E890E9416
:101ED0003B056C01802F0E943F054C01812F0E9421
:101EE0003F057C0180E3C81681E1D80608F0E6C111
:101EF000998195B98E890E943B0599878887E981E8
:101F0000E4B98E890E943B05988B8F8715B881E0D4
:101F10000E940705F981F5B98E890E943B052F853E
:101F200038892034364008F079C08133914108F473
:101F300075C0C6018A569F4F2885398528173907ED
:101F400008F06CC086E080931A0180914E018F5F8B
:101F500080934E01B701C4010E94A80590934401EB
:101F600080934301B701C6010E94A80590934A01DE
:101F70008093490114B815B83A8138B981E00E94BC
:101F80000705498144B98E890E943B05853F91052B
:101F900028F58C8184B9802F0E943B05813D9340B8
:101FA000E8F08E890E943F058D3D9240B8F029816E
:101FB00024B98E890E943B058D3D924078F049817D
:101FC00045B981E00E94070515B88E890E943B053E
:101FD000853F910518F487E080931A0181E0F3C0F2
:101FE00064B82B8125B9812F0E943B055C01802FAD
:101FF0000E943F059F838E830E94A3057C01C5013B
:102000002A143B0410F482199309B7010E94A80511
:102010009C01A4E6B0E00E94CA324BCF8A8187B906
:102020009B8194B995B981E00E940705EA85E4B9DE
:10203000E5B98E890E943B056C010E94A3057C01D5
:10204000802F0E943F059D838C830E94A305998762
:102050008887812F0E943F054C01288539852E3FB6
:10206000394008F4C0C084E080931A018CE080936A
:102070001901B101C7010E94A8056C0120911B0143
:1020800030911C0150E040E060E871EA83E09CE19F
:102090000E948C32D6010E94DF32E885F9859F01CB
:1020A00050E040E00E948C3280914E01882371F014
:1020B00080913F0190914001A0914101B091420176
:1020C00082179307A407B50708F079C020933F0152
:1020D000309340014093410150934201B4018C81FF
:1020E0009D810E94A805909344018093430197012C
:1020F000A0E1B7E20E94CA3220911B0130911C017D
:1021000050E040E00E948C3230934601209345011C
:1021100081E040913F0150914001609141017091F7
:102120004201441555056605770508F04AC04092FE
:102130003F01509240016092410170924201B5010D
:102140008E819F810E94A805909344018093430152
:102150009501A0E1B7E20E94CA32209114013091AA
:10216000150150E040E00E948C32205F384D3093E2
:102170004601209345019101A0E1B7E20E94CA32D5
:10218000209114013091150150E040E00E948C3202
:1021900030934801209347012B853C85A0E1B7E2AD
:1021A0000E94CA3220911B0130911C0150E040E096
:1021B0000E948C3230934A01209349010FCF80E076
:1021C000A8CF8111D8CF90914E019F5F90934E017F
:1021D000882309F42FC100934B018E8980934C0111
:1021E00010934D0127C1F1E62F16310408F066C0A7
:1021F00029E4E2162DE0F20608F460C085E0809341
:102200001A0182E080931901C40186509F4F8C15FA
:102210009D0508F03DC083E0809319013F89377028
:10222000D32E802F806480937C004BE04A83EE2481
:10223000E394F12CA89560E08B8125D38A8584B93D
:1022400085B986B18D21E9F7998194B980917A0099
:10225000806480937A0080917A0086FDFCCF809123
:10226000780090917900E80EF91EEA81E150EA8346
:10227000E111E0CFC701880F991F880F991F69E00E
:1022800070E00E94653270934A016093490175CBFA
:10229000A0901B01B0901C01B401C6010E94A805CA
:1022A0009501DC010E94CA32970150E040E00E9493
:1022B0008C323093440120934301B0CF17B818B843
:1022C00014B815B817B8F7EC2F16F1E03F0608F46C
:1022D000D7C018B82E8524B908ECEA803F89E32AD4
:1022E000E7B881E00E9407054A8147B98E890E94BC
:1022F0003F05429710F0015099F78E8584B985B952
:1023000061E08B81C0D28E890E943B054C019D8982
:1023100094B915B8EF89E7B9E8B960E08B81B3D219
:10232000812F0E943B050E94A3056C01FD85F4B935
:10233000812F0E943F057C018E890E943B05B701D9
:102340000E94A8055C01812F0E943F057C018E89B7
:102350000E943B05B7010E94A80595012C5E3F4FE6
:102360002817390708F466C018B82A8127B93981B7
:1023700034B935B961E08B8186D2812F0E943F0547
:102380007C018E890E943B05B7010E94A8057C0153
:10239000A816B90608F05CC04E8544B945B98E89C7
:1023A0000E943B059C016401E8EEEE16E3E0FE06A8
:1023B00008F05FC0C70164E670E00E946532C701A3
:1023C000875991098938914108F05AC02E153F0567
:1023D00008F056C0C60143E0969587954A95E1F707
:1023E000893C910510F088EC90E08C0D9D1D8E15B8
:1023F0009F0508F045C06C157D0508F041C080912F
:102400001A01833018F483E080931A012091180197
:10241000822F90E0FC01E757FE4F3E893083168300
:10242000880F991FFC01EB56FE4FF182E0822F5F6F
:102430002093180117B818B814B815B88EE20E9486
:10244000DA016796E2E10C94CB33272C3E2C38CF8F
:102450008D8984B915B89F8997B998B960E08B8147
:1024600012D2812F0E943B050E94A3059C01750199
:102470009BCFB70154E0769567955A95E1F79FCFCA
:10248000612F8E8901D0D6CFB0E0A0E0EAE4F2E17E
:102490000C94B133C82FD62FA895862F90E0FC015D
:1024A000E057FE4F5490339624914C2F50E0FA01A0
:1024B000E057FE4F1491339604916091680130917A
:1024C0004E01630F7727771F672B09F058C0A89537
:1024D00060911E0170911F01660F771F660F771FB5
:1024E0007093300160932F0160916D0170916E01C6
:1024F000660F771F660F771F70932E0160932D0173
:102500003EEB30932B0160911801E9E8F1E030E0F7
:10251000840F951F631338C018B827B914B915B9BB
:10252000B8E1BB2ED12CC12C8D2F0E943B05782EFB
:10253000692E8C2F0E943F057C018C199D0997FF05
:1025400003C091958195910903970CF45AC1A89500
:10255000BA946701B110E8CF80911E0190911F01DC
:102560009093300180932F0180916D0190916E01C5
:1025700090932E0180932D0189E180932B01CDB79B
:10258000DEB7E0E10C94CD3351914581450F5527DD
:10259000551F4817590701F33F5FBCCF25E8C21606
:1025A00021E0D206C8F6043AE2E01E0708F0B5C002
:1025B000F8E9AF16B10480F2C6010E94A305AC0190
:1025C0009601A8E9B7EB0E94CA329A0150E040E0B8
:1025D0000E948C3229013A01C5010E94A3059C0189
:1025E000A8E9B7EB0E94CA32950150E040E00E9492
:1025F0008C3288E7C8168FE0D80608F072C0F2E087
:10260000440C551C661C771CFA95D1F7C301B20126
:10261000620F731F841F951F25E030E040E050E0FB
:102620000E948C32A4E6B0E00E94DF326B017C0194
:10263000FCEACF0EFDE0DF1EE11CF11C10911A0137
:10264000143008F089CFC1500C2F0D0F802F90E06F
:10265000EC01CD5ADE4F2881880F991F880F991FF2
:102660008E559E4FFC01222309F4C4C080809180C6
:10267000A280B380A7019601281939094A095B098C
:1026800057FF07C050954095309521953F4F4F4FCC
:102690005F4FAAE0B0E00E94DF32F4E68F0E911C9B
:1026A000A11CB11CA50194012C0D3D1D4E1D5F1DEB
:1026B0000E948C32232B242B252B09F04DCF133075
:1026C00019F081E080931A0182E0888380916F0184
:1026D000E82FF0E0EA5AFE4F00838F5F80936F018E
:1026E0003BCFE8E7AE16EFE0BE0670F4E2E0220F63
:1026F000331F441F551FEA95D1F7CA01B901640D74
:10270000751D861D971D88CF240D351D461D571D2F
:10271000569547953795279585CFC0901B01D0904A
:102720001C01672D762DE616F70608F4B701C701E0
:102730000E94A8059601DC010E94CA322B013C01CF
:10274000C7010E94A3059C0150E040E0C301B20113
:102750000E948C3229013A01A0901401B090150119
:10276000892D982D8017910708F4C801B8010E949F
:10277000A8059501DC010E94CA32980150E040E0B2
:102780000E948C3288E7E8168FE0F806B0F462E029
:10279000440C551C661C771C6A95D1F7C301B20125
:1027A000620F731F841F951F25E030E040E050E06A
:1027B0000E948C3269017A0141CF0837EFE01E0791
:1027C00070F4CA01B90152E0660F771F881F991F84
:1027D0005A95D1F7640D751D861D971DE5CF7301C0
:1027E0006201C20ED31EE41EF51EF694E794D79440
:1027F000C79424CFC082D182E282F38281E08883B1
:10280000ABCE110F15B814B98C2F0E943B05813542
:10281000910508F0A1CE15B98C2F0E943B056C01E3
:1028200007B908B915B854B8A8E14A2EB12CA12CA3
:102830008C2F0E943B05982E892E8D2F0E943F05DC
:102840008C018A199B0997FF03C091958195910985
:10285000039734F0A8954A9458014110E9CF7CCEF3
:10286000550C54B88D2F0E943B055C01F0ECEF161F
:10287000F4E4FF0608F492CE80EBC8168DE4D80687
:1028800008F06ACE90CECF93C82FC09595B160FF67
:1028900010C0982B95B994B1892B84B982E00E941D
:1028A000070584B18C2384B985B18C2385B9CF9178
:1028B00008959C23EFCFAF92BF92DF92EF92FF92E9
:1028C0000F931F93CF93DF931AE08FE3D82E09E085
:1028D00017B818B815B8D4B880E00E943B057C0141
:1028E00081E00E943F05EC0182E00E943F059C01CF
:1028F00080911A018930C1F417B814B8F09204011C
:10290000E0920301D0930601C093050130930801C2
:1029100020930701DF91CF911F910F91FF90EF90CE
:10292000DF90BF90AF90089584E0E816F10450F472
:10293000C430D10508F04EC024303105E8F291E0F2
:1029400092600AC091E088EEE81683E0F80608F08D
:1029500090E0C83ED340A0F3283E334008F4946092
:1029600097B9D0E0C0E0A89580E00E9433055C01F3
:1029700081E00E943F057C0182E00E943F0524E146
:10298000A21625E0B20608F4389A24E1E21625E002
:10299000F20608F4399A843125E0920708F43A9A4D
:1029A00026E0A216B10430F426E0E216F10410F499
:1029B000069738F02196C43F81E0D807A1F600932E
:1029C0001A01F12CE12CEC16FD0631F4115009F03E
:1029D0007FCFA0CF91E0BDCF0E94F6042FEFE21A87
:1029E000F20AF1CFCF92DF92EF92FF92CF93209134
:1029F0007301309174014091750150917601C0913D
:102A000085018AE0C82ED12CE12CF12C8C2FCF5FD0
:102A1000213A96E8390791E049075105E0F480939F
:102A20008501A0912F01B09130010E94DF3228E88A
:102A300033E140E050E00E948C32209373013093E8
:102A400074014093750150937601CF91FF90EF9000
:102A5000DF90CF900895CA01B901A70196010E94A5
:102A60008C32D4CF8F929F92AF92BF92CF92DF924F
:102A7000EF92FF921F93CF93DF93C82F162F880FEB
:102A80008C0F9FEF960F890F80935001EC2FF0E091
:102A9000E057FE4FD491862F90E0FC01E057FE4FA7
:102AA000F490FC01ED56FE4FD49080911A018130D4
:102AB000A9F120911801A9E8B1E090E080E0821727
:102AC000C8F11092800110927F0181EF80938501FF
:102AD0001092730110927401109275011092760198
:102AE000EADE18B8D7B8F4B8F5B88C2F0E943F05C5
:102AF0005C01812F0E943F05A81AB90A14B81092F0
:102B00005201109251018091510190915201843FE4
:102B1000914028F117B818B814B815B8DF91CF91C3
:102B20001F91FF90EF90DF90CF90BF90AF909F905C
:102B30008F90089516963C91169731130DC03C91D5
:102B40003C130AC0FC01EE0FFF1FE757FE4F448500
:102B500055854C3D554010F301961196B0CFD5B92F
:102B6000D4B90E94F00414B815B80E94F704A895CF
:102B70008C2F0E943F057C01EA18FB0880915101CF
:102B8000909152018E37910528F08BE4E816F104FC
:102B90000CF4C0CF80915101909152012DE2E216C8
:102BA00021E0F2060CF022C201969093520180932C
:102BB0005101A9CF0E94F1048C2F0E943F058A1970
:102BC0009B09A8952FEFC21AD20A2091510130918A
:102BD00052012C153D0570F75701A81AB90A1A14AD
:102BE0001B040CF0ADC039ECA316B1040CF092CF6D
:102BF00028EE33E0D5010E94D93297010F2C000C4A
:102C0000440B550B0E948C326901809151019091C7
:102C100052010196B0E0A0E080937B0190937C018B
:102C2000A0937D01B0937E01C7018A0D9B1D32D216
:102C300020917B0130917C0140917D0150917E017A
:102C4000DC010E94DF3260937B0170937C018093F2
:102C50007D0190937E016093730170937401809362
:102C600075019093760187EF80938501BBDE80909C
:102C7000730190907401A0907501B090760189E184
:102C800093E00E944234A8EEB3E0A81BB10987FD8F
:102C9000B395A50194010E94E93224E630E040E0BA
:102CA00050E00E948C322093730130937401409362
:102CB00075015093760180911801882329F0809145
:102CC0001A01853009F026CF88E080931A0180919F
:102CD0008501909186019817C4F089131BCF8090CD
:102CE000730190907401A0907501B09076014091AD
:102CF0007701509178016091790170917A014815BE
:102D000059056A057B0508F005CF40917301509184
:102D10007401609175017091760140937701509331
:102D200078016093790170937A0180938601D09243
:102D30008201C092810110938301C0938401EACE85
:102D4000D12CC12C62CFB7DD15B887E087B918B890
:102D5000FD2EFF0CF4B880E480937B0084E580BFF7
:102D60008C2F806480937C0086E180937A000E949F
:102D7000FA041092520110925101109280001092A8
:102D800085001092840087E286BB81E280936F0009
:102D900081E080937001F5B890911A0180938100D1
:102DA000953009F005C181E090E00C2E01C0880F3C
:102DB0000A94EAF78095877087B9F89483B7817F82
:102DC00083BF80917001882389F083B7816083BFBE
:102DD0007894889583B78E7F83BFF894A895809167
:102DE0005101909152018034964059F77894109295
:102DF0008100E0908600F090870010926F0086E9D5
:102E000080937A0014B815B88C2F0E943F0520914A
:102E1000330130913401821B930B0C9690938801FF
:102E200080938701809151019091520180329340AB
:102E300008F070CE809151019091520190937E01E3
:102E400080937D01F0927C01E0927B0184EF80937E
:102E50008501809151019091520182349105C8F011
:102E600060917B0170917C0180917D0190917E0148
:102E700024E630E040E050E00E948C3220937B0159
:102E800030937C0140937D0150937E0186EF8093C7
:102E90008501A0917101B091720120917B01309167
:102EA0007C0140917D0150917E010E94DF3220E241
:102EB00033E040E050E00E948C3220937B0130935D
:102EC0007C0140937D0150937E01209373013093E8
:102ED0007401409375015093760184DD80918501E2
:102EE000843F09F054C0C0907301D0907401E09009
:102EF0007501F090760180EAC8168FE0D806E104EB
:102F0000F104C0F4A70196012C543F4F4F4F5F4F7F
:102F100060EA7FE080E090E00E948C32C20ED31E17
:102F2000E41EF51EC0927301D0927401E092750107
:102F3000F0927601C0907301D0907401E090750119
:102F4000F0907601C114D10421E0E206F10490F57D
:102F5000D092B301C092B2018091500190E08A5C9E
:102F60009C4F0E94423490E0B0E0A0E08C159D059B
:102F7000AE05BF0530F5C81AD90AEA0AFB0AC092A5
:102F80007301D0927401E0927501F0927601D4B988
:102F90008091730190917401A0917501B0917601B7
:102FA0004997A105B10508F4B5CDD12CC12C83CE2C
:102FB000D7B803CF81E090E09093B3018093B20142
:102FC000CBCF34E1C30ED11CE11CF11CC816D906CD
:102FD000EA06FB0610F40E94B00A109273011092E8
:102FE00074011092750110927601D1CF892B31F4C2
:102FF00085E1E81685E0F8060CF0A5CEC701D12CD6
:10300000C12CE3CD1F920F920FB60F9211248F9314
:103010009F93B59904C080917001811109C0B59B3F
:1030200010C080918600909187008A3F910548F4F6
:103030008091510190915201019690935201809399
:1030400051019F918F910F900FBE0F901F90189577
:103050001F920F920FB60F9211248F939F9310928D
:103060007001B09B10C080918600909187008A3FCC
:10307000910548F4809151019091520101969093ED
:103080005201809351019F918F910F900FBE0F902D
:103090001F9018950F9221E08C32920710F48CE269
:1030A00091E08C52914069E170E00E94653299E1B3
:1030B0006B3210F0982F6BE2981BEAEBF2E0E60F10
:1030C000F11DE60FF11D9F93CF010E944234482F5E
:1030D0003196CF010E944234582F3196CF010E9481
:1030E0004234282F3196CF010E944234382F6F91FD
:1030F000421B530B649FC001659F900D11240C96D9
:1031000069E170E00E946532620F731FCB010F907E
:103110000895B0E0A0E0EFE8F8E10C94B53388E85A
:1031200093E190931F0180931E019093300180934F
:103130002F018EEB80932B0118B880E187B90E9494
:10314000FF0417B884E00E943B05AC018B5C9840FB
:10315000833F9140A0F481E080933A0120912F01B8
:1031600030913001AFEBB9E00E94CA329A0150E0D1
:1031700040E00E948C3230931F0120931E01809109
:103180001E0190911F019093300180932F018EE0DA
:103190000E943F058EE00E943B059093340180938E
:1031A00033010E940B0687DB18B8C1E0C7B985E17F
:1031B00085B9C4B980E00E943B058C0182E0D82E1D
:1031C000D7B8D4E0D4B981E00E943B05080F191F9D
:1031D000D7B990E1C92EC4B882E00E943B05080F20
:1031E000191F15B8C8B9C7B9C4B980E00E943B051A
:1031F0000E94A3057C01D8B8D7B8D4B981E00E9459
:103200003B050E94A305E80EF91ED8B9D7B9C4B88A
:1032100082E00E943B050E94A305E701C80FD91F69
:1032200017B818B814B880912F01909130016C0133
:10323000CC0CDD1CC80ED91EC01AD10ACC1ADD0A6E
:10324000F12CE12C9801A0E9BAE10E94CA32A70151
:1032500096010E948C3249015A0130933901209322
:1032600038019E01A0E9BAE10E94CA32A701960185
:103270000E948C3230933201209331012057354E19
:1032800030931C0120931B0180E7881A85EE980A71
:10329000909215018092140189E180932B01CDB7A2
:1032A000DEB7ECE00C94D133CF92DF92EF92FF9235
:1032B0000F93CF93DF93F82ED62FC42F0E94E501F2
:1032C00080E191E00E944A021AD26D2F8F2D0E9458
:1032D000082BC090B601D090B701E090B801F090F3
:1032E000B9018091010187FD05C0C114D104E10439
:1032F000F10421F08CE091E00E944A028D2F0E949F
:10330000E501C114D104E104F10409F474C00E9480
:10331000E801809156010E945803CC2309F467C04C
:1033200080913B018D3030F48650990B805C9C4F2E
:103330000E944A0280E00E94D702CD28CE28CF28E2
:1033400009F45EC06091B6017091B7018091B80137
:103350009091B90103E028E447EF0E94E0038FE178
:1033600091E00E944A028BE493E00E944A3422E0FA
:1033700046E464EF0E94C2048091AE019091AF01D7
:10338000A091B001B091B101892B8A2B8B2B01F157
:1033900080E00E94D7026091AE017091AF018091F0
:1033A000B0019091B10104E028E440E00E94E00304
:1033B0008AE191E00E944A0223E040E26FEF8091AF
:1033C000B4019091B5010E94C2040E94B90207C0E5
:1033D00080E00E94BF0280913E018823B1F3DF911B
:1033E000CF910F91FF90EF90DF90CF90089580E004
:1033F0000E94D702A7CFC11193CF80E00E94D702CD
:10340000809156010E945803809101018E3F0CF07B
:10341000B3CF89E391E00E944A0260910901709163
:103420000A0180910B0190910C0103E028E4409186
:1034300001010E94E003A0CFCF92DF92EF92FF92B2
:103440000F93CF93C82F0E94FC01809183010E94AB
:10345000E50185E591E00E944A0230D56091830143
:103460008091840183D37C019093800180937F01BC
:10347000C0908101D09082018AEFE8168FEFF806A4
:1034800078F4C114D10441F081E090E0C11102C090
:1034900090E080E0892B21F081E191E00E944A02D6
:1034A000809184010E94E501CC2309F44BC09091E6
:1034B0003B018DE0891B0E94EB0181E790E00E94B7
:1034C0004A020E9403026091770170917801809115
:1034D000790190917A0104E026E4409186010E94EE
:1034E000E0038AEFE8168FEFF80668F484E491E0D1
:1034F0000E944A0222E04EE16EEF80917F0190919E
:1035000080010E94C2040E94B902CC2391F0CD2810
:1035100081F080E00E94D7028DE391E00E944A0290
:1035200022E045E26FEF80918101909182010E943B
:10353000C2040E94B902CF910F91FF90EF90DF90EB
:10354000CF9008958091810190918201892B69F03B
:103550008CE391E00E944A0222E045E26FEF809105
:103560008101909182010E94C2040E94B902A9CFF8
:103570008F7051F488EC0E9407050E9403020E949C
:10358000060B88EC0C94070508958F3021F4909178
:103590003501913011F08F5F089580E00895CF9349
:1035A0008CE790E00E94CB25C0E00E94AE0660E070
:1035B00082E00E94441262E080E00E9444120E9475
:1035C000FC0180916F018823A9F041E062E080E076
:1035D0006BDE8C2FCDDF88EE93E00E94B105811168
:1035E00005C08C2FD2DFC82F8A3FF8F20E942B0231
:1035F000CF9108958CE790E00E944A0284E493E022
:103600000E944A020E9403028FE30E94DA010E9494
:10361000B902DFCF0F931F93CF93DF93C0E0D8E0C1
:1036200012EF0DE00E94AE0660E082E01BDAD0935C
:103630001A0180918501843FE1F48091730190919A
:103640007401A0917501B091760184369105A105B0
:10365000B10578F440E060E082E00E949228609337
:1036600073017093740180937501909376011093A8
:10367000850180918501823F4CF180938601809184
:10368000730190917401A0917501B09176018093BE
:10369000770190937801A0937901B0937A0181E04A
:1036A000CBDE8C2F65DF80ED97E00E94B1058111A4
:1036B00006C08C2F6ADFC82F8A3F08F4B3CF0E9460
:1036C0002B02DF91CF911F910F9108950E94FC0171
:1036D00085E790E00E944A0280913B01902F981B61
:1036E000892F0E94EB0181E790E00E944A020E942C
:1036F00003028FE30E94DA010E94B902D2CFA6E151
:10370000B0E0E5E8FBE10C94AF3382E08093010187
:1037100080911A01813009F0EBC180916F018130F5
:1037200009F0E6C14090560124E0429EF0011124C8
:10373000EE55FE4F80819181A281B381893032E5BF
:103740009307A105B10508F0D3C11C01712C81E0DC
:10375000871508F4D1C1842D0E944E03982E892E1E
:10376000E82DF0E0ED56FE4F5490892D90E0FC01DD
:10377000E057FE4FE49115B818B8272D2170622E3E
:1037800030EF2316310408F0BCC12111BAC10091F9
:1037900014011091150100591A4121E030E0092C63
:1037A00002C0220F331F0A94E2F7C901852987B9A5
:1037B00034E1398B892D0E9437055C01882D0E94E8
:1037C0003F0524E0A216B10410F4049728F03989CB
:1037D0003150398B3111EECF80E480937B0094E53A
:1037E00090BF892D806480937C0026E120937A002D
:1037F000F12CE12C10928000109285001092840030
:1038000037E236BB0E94FA04872D90E09A8B898BB1
:1038100061107EC181E88093810058B886B385FD30
:103820000CC080FFFBCF21E026BBA89597012F5F3E
:103830003F4F79012035310589F718B81092810082
:1038400030E236BB209186003091870069014091BB
:103850008400509185002417350738F480FF05C097
:1038600081E086BB9FEFE91AF90A86E980937A0026
:10387000B4E15B2E892D0E9437055C01882D0E94E2
:103880003F0524E0A216B10410F4049718F05A94EE
:103890005110F0CF8090380190903901820C931C28
:1038A000800E911E209116013091170100398AE196
:1038B000180708F036C169E191EEC916D104E10498
:1038C000F10430F4C60165E070E00E946532645195
:1038D00028523109261B310967FD339566E0862F92
:1038E00090E0B0E0A0E08C159D05AE05BF0508F0A6
:1038F00021C1C81AD90AEA0AFB0A662029F082E225
:10390000C80ED11CE11CF11C90E5E916F10418F079
:10391000C12CD12C76018BE0C816D104E104F1044E
:1039200028F091E0C91AD108E108F108B12CA12CC6
:10393000A8EEB3E00E94CA326B8B7C8B8D8B9E8B82
:10394000A0912F01B091300198010E94CA32A501C7
:1039500094010E948C32442755276B897C898D897C
:103960009E890E948C32C9010E946306FC01A50158
:103970009401C701B6010E944A324B015C01BF01AC
:1039800090E080E0E3E0660F771F881F991FEA95BB
:10399000D1F76B5F7F4F8F4F9F4F2AE030E040E0C1
:1039A00050E00E948C32C501B4010E948C32E9893A
:1039B000FA89EE0FFF1FEE0FFF1F81E090E08C0FE2
:1039C0009D1FE80FF91F20833183428353836110C9
:1039D00018C09CE0C916D104E104F10490F073947E
:1039E000E989FA893196EE0FFF1FEE0FFF1F81E084
:1039F00090E08C0F9D1FE80FF91F208331834283D5
:103A00005383A895739493E0971508F0A0CE18B847
:103A100084E00E94070591E00D811E812F81388589
:103A200049815A816B817C81401751076207730776
:103A300008F090E00D851E852F85388949855A85C7
:103A40006B857C8582E0401751076207730708F495
:103A500083E024E0829FD001112421E030E02C0F8C
:103A60003D1FA20FB31FE92FF0E0EE0FFF1FEE0F77
:103A7000FF1FE20FF31F0D911D912D913C9140818D
:103A8000518162817381041715072607370708F0F3
:103A9000892F34E0839FF001112421E030E02C0FC6
:103AA0003D1FE20FF31F408151816281738140937A
:103AB000090150930A0160930B0170930C0180FD82
:103AC0003DC030EF23163104C8F58BEF8093010120
:103AD0008091090190910A01A0910B01B0910C0114
:103AE000892B8A2B8B2B11F41092010117B814B873
:103AF0006696E2E10C94CB33842D0E944E034C0178
:103B00002FCEE4B957B8009114011091150150CE91
:103B100058B80E94030590E296BB81E8809381002B
:103B20007DCEC40160EB76E30E946532695F285D5B
:103B30003F4FD5CEC12CD12C7601DFCE8CEF8093B8
:103B40000101CB01BA016B5F7F4F8F4F9F4F2AE07E
:103B500030E040E050E00E948C3220930901309325
:103B60000A0140930B0150930C01B2CFAEE1B0E0DB
:103B7000ECEBFDE10C94AF33662EB82E860F8983F3
:103B800020911A01283059F5209177013091780160
:103B90004091790150917A0157FD15C0109186012D
:103BA00009C0CA01B9012AE0312D412D512D0E94D1
:103BB0008C321F5F173FACF391F4243160E036077D
:103BC0004105510518F48FEF9FEF45C1173F39F4B8
:103BD00080E028178DE738074105410510F020E007
:103BE0003DE72C8B3D8B26EDA22EE3E9F1E0E60DBF
:103BF000F11D859180608E87E3E9F1E0EB0DF11D09
:103C0000859180608F87E0E9F1E0E60DF11D759008
:103C1000E0E9F1E0EB0DF11DC59090EC692AB92ABD
:103C200081E0E82EF12C012D112D8E831F82188644
:103C300019861A861B861C861D86188E198E1B8E69
:103C40001A8E0E945B1480E088B960927C000E940A
:103C5000FB043F8537B975B874B852E05A95F1F74F
:103C60000000000014B815B8DD243E8537B975B8DA
:103C700074B860927C00A895A0927A0080917A0036
:103C800086FDFCCF2090780030907900B0927C00C7
:103C90004C2DE5D02091780030917900288B398B1C
:103CA0003F8537B9C5B8C4B8A895B0927C00A0923A
:103CB0007A0080917A0086FDFCCF60917800709147
:103CC000790060927C00472DCAD0409178005091D5
:103CD000790014B8CB01820D931DE80EF91E011D69
:103CE000111DEA82FB820C831D8388899989840FC8
:103CF000951F2E813F8168857985280F391F611DA9
:103D0000711D2E833F836887798722E32417150668
:103D100050F075B874B80E94050514B815B8888DB0
:103D20008395888F07C0483E73E0570718F08A8D47
:103D300083958A8F888999892817190660F03E85AE
:103D400037B9C5B8C4B80E94050514B815B8898D2F
:103D50008395898F07C0883E73E0970718F08B8D95
:103D600083958B8FD3945D2D5F3F49F05F3731F49E
:103D70005C2D550FC50E572D550F750E76CF409003
:103D8000380150903901440C551C9201E4E0240D97
:103D9000351DEA95E1F72901570168016E807F80A2
:103DA0008884998420911A012830C1F46C897D8916
:103DB000812D912D65507040804090409B01AC0159
:103DC0000E944A329B01AC0160E779E786E190E00E
:103DD0000E948C32621A730A840A950AA614B704E8
:103DE000C804D90428F46A187B088C089D0803C00D
:103DF000662477244301B20180E090E09301A4019E
:103E00000E944A329501A6010E948C3285E193E01E
:103E10007981870F911D0E944234682EC90160E1AB
:103E200070E00E946532260F371FC9016816190617
:103E300018F4861991090FC08C5E9F4F8615910565
:103E400040F48C899D89843981E1980710F00E94A3
:103E5000B00A812D912D6E96E2E10C94CB33109235
:103E600081001092800010926F0010928B001092CF
:103E70008A0057E056BB5FEF509385005093840053
:103E800055E050937B0056EB50937A0051E05093ED
:103E9000810058E25A95F1F7000045B944B955E060
:103EA0005A95F1F7000014B815B81092810080916E
:103EB0007A0084FFFCCF80937A000895B0E0A0E000
:103EC000E4E6FFE10C94B13300918101109182018D
:103ED0000115110509F08EC0E0918301F0E0ED5667
:103EE000FE4FD491E0918401F0E0E057FE4FC49181
:103EF0000E945B1418B815B8D7B9C4B98091840171
:103F00000E943F057C01D09186018CE08D0F8430AA
:103F100008F070C08091770190917801A0917901AB
:103F2000B0917A01D15F2AE0422E512C612C712C84
:103F3000BC01CD016B5F7F4F8F4F9F4FA30192015B
:103F40000E948C3249015A01DA01C901DF5FD73082
:103F500079F7893823E19207A105B10508F04AC035
:103F6000059708F447C0C5B9C4B9D0E0C0E0C8158A
:103F7000D90508F444C014B815B8A89585E0809315
:103F80002B01809184010E943F05EC01CE19DF09CD
:103F9000E816F90610F0D0E0C0E0D12CC12CC8140E
:103FA000D90488F1809184010E943F0529E1209382
:103FB0002B01A895E816F90618F48C010E191F09B3
:103FC0000C171D0788F49E01201B310B69F0A4EF2C
:103FD000B1E00E94CA329E0150E040E00E948C3263
:103FE00030938201209381010E945B1417B818B8A6
:103FF00014B815B8CDB7DEB7E0E10C94CD330E940C
:1040000001052296B4CF0E9401058FEFC81AD80A85
:10401000C6CFA7E0B0E0EFE0F0E20C94AF3381EB65
:1040200091E0B9D560EF6B8354980E94F60414BCFC
:1040300016BC10920E0110920F01109210011092F6
:10404000110181E085BB80936E0010928000E3E156
:10405000FAE7F0938B00E0938A0081E090E0909380
:10406000890080938800109285001092840083B5A7
:10407000816083BD96E096BB90936F007894E4E0F6
:10408000E0938100F2E3F9831A820E94EF04A8957D
:10409000489902C061E06A8385B5882329F0898147
:1040A000815089838111F1CF15BC86B580930E01B3
:1040B0000E942B0286E60E94DA010E94F4016091C0
:1040C0000E0170910F01809110019091110147E054
:1040D0000E94D704549880918100882319F08FE3BF
:1040E0000E94DA011092810010926F0020910E015F
:1040F00030910F014091100150911101DA01C90175
:104100000197A109B109813F9048A105B10508F0C7
:1041100096C0AAE0B0E00E94DF32685F7F4F8F4F09
:104120009F4F23E096958795779567952A95D1F7C8
:10413000660F771F70936A016093690154980E941B
:10414000F60416BC10920E0110920F01109210018D
:1041500010921101F1E0F5BBF0936E0010926C012A
:1041600010926B0164E06BBB809168008460809367
:104170006800789480916D00806180936D00198251
:104180000E94EF04A895489902C081E08A8380913B
:104190006D0084FF05C099819F5F99839A3F81F7E5
:1041A00015BC80916D008F7E80936D0080916800BA
:1041B0008B7F8093680086B580930E010E94030276
:1041C00084E50E94DA010E94F401E0916901F09116
:1041D0006A01FD83EC8360910E0170910F01809163
:1041E00010019091110128EA31E640E050E00E9470
:1041F000EF32EC81FD81612C712C43015F01C12CF8
:10420000D12CE12CF12C00E010E00E944333490155
:104210004F835E831B012C018C819D818038910529
:1042200000F107E023E745EFB4018F81952F0E944D
:10423000E00399819A3F71F58FE30E94DA011092B1
:104240006E0080ED97E00E94B1056A81860F29F427
:104250008B8181508B838111E7CE2796E2E10C940C
:10426000CB3384E6A82EB12CC12CD12CE12CF12C1F
:1042700000E010E094014F815E81B101C2010E9413
:104280004333F22FE42F07E023E747EF6F2F732F1D
:104290008E2FCCCF94014F815E81B101C201263EA9
:1042A000354B41055105610571058105910539F2CF
:1042B00030F20E94FC0186E60E94DA010E94F401BD
:1042C00094014F815E81B101C20154012115FAECC4
:1042D0003F07FAE94F07FBE35F07610571058105B9
:1042E0009105F1F0E8F06A017101820120E030E00F
:1042F0004AE85DE568E775E483E691E00E944333B0
:10430000F22FE42F07E028E44AEF6F2F732F8E2F50
:10431000952F0E94E0038AE70E94DA0154988FCF1C
:10432000CF80DE807101820120E030E44AE750E175
:1043300063EF7AE580E090E00E944333F22FE42FB0
:1043400007E028E44DEFE1CF1F920F920FB60F92D6
:1043500011248F939F93AF93BF93789480910E0114
:1043600090910F01A0911001B09111019F5FAF4F8B
:10437000BF4F80930E0190930F01A0931001B09353
:104380001101BF91AF919F918F910F900FBE0F9030
:104390001F9018951F920F920FB60F9211248F93B2
:1043A00086E085BD8F910F900FBE0F901F901895DE
:1043B0001F920F920FB60F921124A89510928100B0
:1043C00015BC0F900FBE0F901F9018951F920F9263
:1043D0000FB60F9211242F933F938F939F93809149
:1043E0006B0190916C01892B11F481E085BD2091C6
:1043F0006B0130916C018091690190916A012817DD
:10440000390730F015BC80916D008F7E80936D0070
:1044100080916B0190916C01019690936C01809357
:104420006B019F918F913F912F910F900FBE0F9035
:104430001F9018958C3008F08C50811107C08DE1C9
:1044400092E00E944A020C94B9020895813019F456
:1044500081EB91E0F6CF823019F484EF91E0F1CF57
:10446000833019F489EE91E0ECCF843019F487E8B9
:1044700090E0E7CF853019F48CE790E0E2CF86300A
:1044800019F485E790E0DDCF873019F488ED91E0ED
:10449000D8CF883019F489EC91E0D3CF893019F462
:1044A00088EA91E0CECF8A3019F48BE092E0C9CF50
:1044B0008B3049F680E092E0C4CF0F93CF9387E82A
:1044C00090E069D3C0E010921A0160E082E078D3F6
:1044D00080911A01883009F04AC00E94FC0183E4EF
:1044E0000E94DA010E94F4016091770170917801D5
:1044F0008091790190917A0103E026E44091860150
:104500000E94E0030E94B9026091830180918401BE
:104510002DDB9093800180937F010E94030285E44C
:1045200091E00E944A0280917F01909180018A3F30
:104530002FEF9207C0F422E04EE16EEF0E94C2041A
:104540000E94B9028C2F14D888EE93E00E94B10526
:10455000811106C08C2F19D8C82F8A3F08F4B3CF19
:10456000CF910F9108958FE30E94DA01E9CF0E9465
:10457000FC0187E890E00E944A020E94B9020E9472
:10458000DE02E0CF0895A5E0B0E0E9ECF2E20C94A1
:10459000AF3384EF91E0FFD280E1809380001092EE
:1045A0006F0081E090E090938900809388001092E2
:1045B0008B0010928A0083E086BB1092820088E014
:1045C0008093810015B881E184B918B881E087B97A
:1045D000229A89E080938100312C20E03AE03983EF
:1045E00041E04C83812C912C5401839451E15D83F3
:1045F000832D90E00A966EE170E00E9479326B8321
:10460000F62E621761F00E94FC0184EF91E00E9497
:104610004A0210E01F1508F4D1C00E94B9028C8133
:1046200069810E945932A92FB0E0A50194010E942E
:10463000DF326B017C018D81823150F0652D762D4A
:10464000872D902F0E948C32C60ED71EE81EF91EB1
:104650000E9403029C812981212C921306C081E0D3
:104660003D81323108F480E0282E2A828CE321102B
:1046700005C04D818EE3463108F082E50E94DA01E3
:104680004D81C701B6010E94D704C701B6017E5E05
:1046900085489F4FA7019601220F331F441F551FC6
:1046A0000E948C32CA014F3F510509F008F48BC0BB
:1046B0008DE08093810080E094E02C01712C612CCE
:1046C000CA01B901A30192010E948C322150310923
:1046D0003093890020938800809188009091890010
:1046E000892B31F481E090E09093890080938800D9
:1046F000009188001091890060E079E08DE390E0FE
:10470000A30192010E948C32A4E6B0E00E94DF3245
:104710000F5F1F4F980150E040E00E948C3229014A
:104720003A01A4E6B0E0A70196010E94DF32A3019E
:104730009201261B370B480B590BCA01B90102E243
:1047400028E44EEF0E94E0038AE70E94DA010E940B
:10475000B90280ED97E00E94B105882309F46BC08F
:10476000883C08F07BC0813508F45FC0222009F442
:104770004AC03D8131503D83C501B4012AE030E09B
:1047800040E050E00E948C3249015A01C701B60155
:104790000E948C32CA01B9012AE030E040E050E0CA
:1047A0000E948C326A834AE049832A812C83312C0F
:1047B0002B815C2C6D2C7E2C0F2D1ACF8EE20E944B
:1047C000DA011F5F27CF4034510530F08CE0809331
:1047D000810080E091E071CF4830510530F08BE0EE
:1047E0008093810080E490E068CF892B31F08AE0EB
:1047F0008093810088E090E060CF89E08093810021
:1048000081E090E05ACF5D81563198F55F5F5D831E
:10481000563111F485E18983AAE0B0E0A501940145
:104820000E94DF324B015C01C0CF8B3018F09C81BD
:104830009F5F9C83312C2C81822F90E03981632FE4
:1048400070E06F5F7F4F0E9479328C83832D0E94CE
:10485000C51A382E4FEE481708F0AACF10928100E3
:104860001092800017B814B822982596E2E10C94B3
:10487000CB335AE0598381E08A83812C912C5401F7
:10488000839491E19D8391CFB0E0A0E0EAE4F4E26B
:104890000C94B13389EE91E07ED183E28093800065
:1048A00010926F008FEF90E090938B0080938A00BE
:1048B00083E086BB1092820015B881E184B918B8F4
:1048C00081E087B9229A81E090E0909389008093FB
:1048D000880089E080938100D0E080E0C2E310E0AE
:1048E00094E6C92ED12CE12CF12C88248A9423E063
:1048F000922EA12CB12CC817A1F1C43608F0C456D1
:104900002C2F30E0AFEFB3E00E94CA326E5C7F4FD5
:104910008F4F9F4FA70196010E948C3229013A01C7
:1049200030938B0020938A000E940302A8EEB3E02C
:10493000A30192010E94DF3261507E4F8F4F9F4F43
:10494000A50194010E948C32C90125E045E26FEF78
:104950000E94C2040E94B902193218F08CE30E942E
:10496000070580E496E00E94B105182F833880F493
:104970000AE0833320F40C2F882319F001E00C0F98
:10498000D0E08D2F0E94C51AD82F8C2FD03F60F019
:1049900017B8109281001092800014B82298CDB7F9
:1049A000DEB7E0E10C94CD33C02FA5CFCF93DF93DA
:1049B00088EA91E0F0D084E193E00E944234C82F6D
:1049C000D0E089E20E94F7018C2F82958770806584
:1049D0000E94F7018C2F8F7080670E94F70188E298
:1049E0000E94F7010E94030224E040E260E08C2F65
:1049F00090E00E94C2040E94B90280E496E00E9406
:104A0000B105811111C0CF778D2F0E94C51AD82F03
:104A1000803FB8F26C2F84E193E00E944F34DF9125
:104A2000CF910895C15805C08238A0F78932D0F3DC
:104A3000CF5FD0E0E8CF0F931F93CF93DF9388ED44
:104A400091E0A9D089E193E00E944234C82FD0E0E0
:104A50000E9403020C2F0C2E000C110BC7FF27C065
:104A60008DE20E94DA0123E045E26FEF8827992763
:104A7000801B910B0E94C2040E94B90280E496E060
:104A80000E94B10581111EC0C135C4F0C5568D2FDD
:104A90000E94C51AD82F803FD8F26C2F89E193E08D
:104AA0000E944F34DF91CF911F910F91089523E021
:104AB00045E26FEFC801DECFC15009C0CC3E3CF7E4
:104AC000CB59E5CF823848F78932B0F3CF5FD0E0D9
:104AD000DBCF813019F480E09CCA0895823011F454
:104AE00052CD0895833011F4CFCE0895843011F45F
:104AF000E4CC0895853019F40C94CF1A08958630CB
:104B000029F40E942B020C940A1B0895873011F49B
:104B100092CF0895883021F481E10C942307089501
:104B2000893011F443CF08958A3011F483C1089578
:104B30008B3011F40C94D1060895CF93DF9388E263
:104B400092E029D0D0E0C0E00E9403028C2F72DCFA
:104B500080E49FE10E94B1058111D0E09091350180
:104B6000913009F4D0E0823390F0CC2341F08C2FC7
:104B7000B0DF88E292E00FD0DF5FD83721F480E029
:104B8000DF91CF910895CC30F8F2CC50DDCF88235F
:104B900099F3CF5FF1CFCF93DF93EC010E942B020B
:104BA000CE010E944A02C4E682E00E9407054899AD
:104BB00002C0C150C9F70E940302DF91CF9108954E
:104BC000B0E0A0E0E6EEF5E20C94B833182F062F23
:104BD000862F90E0FC01ED56FE4FF490E12FF0E0BF
:104BE000E057FE4FC491FC01E057FE4FD491109264
:104BF000800110927F011092730110927401109243
:104C000075011092760187EF809385010E945B14F5
:104C100018B8F7B8D4B9D5B9812F0E943F057C01E7
:104C2000802F0E943F05E81AF90A14B81092520129
:104C30001092510130E020E05CE2C52EDD24D394D7
:104C4000DAE064E6B62E8091510190915201843DE4
:104C5000904348F017B818B814B815B8CDB7DEB7F8
:104C6000E9E00C94D433C5B980915101909152017F
:104C7000892B91F0F601E21BF30B609151017091C9
:104C80005201D29FC001D39F900D11240E94653222
:104C9000E617F70708F0A5C0C4B90E94FA0414B8D3
:104CA000809151019091520101969093520180930D
:104CB000510115B80E94FC04A895812F0E943F0560
:104CC0009C012E193F0980915101909152018B3125
:104CD000964020F0253231050CF4BCCF2D3281E016
:104CE00038070CF4B0CF8091510190915201019797
:104CF00029F4253185E038070CF0ACCF80915101C3
:104D000090915201880F991FB0E0A0E080937B0141
:104D100090937C01A0937D01B0937E01C90168E26C
:104D200070E00E947932CB01820F931F0E944A18D3
:104D300020917B0130917C0140917D0150917E0159
:104D4000DC010E94DF3260937B0170937C018093D1
:104D50007D0190937E016093730170937401809341
:104D60007501909376010E94F214C0907301D09067
:104D70007401E0907501F090760189E193E00E9462
:104D80004234A8EEB3E0A81BB10987FDB395A70193
:104D900096010E94E93220E137E240E050E00E94B3
:104DA0008C322093730130937401409375015093BA
:104DB000760188E080931A0120937701309378017F
:104DC0004093790150937A01809185018093860107
:104DD000109282011092810100938301109384014B
:104DE00039CF80915101909152010B97C8F0609199
:104DF000510170915201B29EC001B39E900D1124D9
:104E00000E9465326E177F0758F4C4B90E94EF0400
:104E100014B880915101909152018C599F4F45CF08
:104E2000C4B90E94F50414B88091510190915201C7
:104E30000A963BCFCF92DF92FF920F931F93CF93AF
:104E4000DF930E942B028DEF90E00E944A020E94A5
:104E5000030289EB90E00E944A0287E193E00E94FE
:104E6000423423E040E26EEF90E00E94C20488E109
:104E700093E00E94423423E040E26EEF90E00E9413
:104E8000C20486E193E00E94423423E04EE16EEFDB
:104E900090E00E94C20488E99AE30E94B1050E9452
:104EA0002B0282EB90E00E944A0223E04EE16FEF7A
:104EB00080913101909132010E94C2040E9403024C
:104EC0008BEA90E00E944A0223E04EE16FEF80916E
:104ED0003801909139010E94C20488E99AE30E9446
:104EE000B1050E942B0287EA90E00E944A028BE300
:104EF00093E00E9442348251990B0E9424038CE378
:104F000093E00E9442348251990B0E94240388E36B
:104F100093E00E94423423E046E464EF8251990B0F
:104F20000E94C2040E94030283E00E94EB0187E317
:104F300093E00E9442348251990B0E9424038AE339
:104F400093E00E9442348251990B0E94240386E32D
:104F500093E00E94423423E046E464EF8251990BCF
:104F60000E94C20488E99AE30E94B1050E942B02C4
:104F70008DE190E00E944A028DE393E00E944A3462
:104F80000E940F030E94030286E190E00E944A0201
:104F90008FE393E00E944234082E000C990B0E948C
:104FA0000F0360E081E00E941B02C0E0FC2EFF0CBA
:104FB000FC0ED0E0FA94CD17B9F10F2D0D0F10E0D3
:104FC000000F111FC801885D9C4F0E944A346C017C
:104FD000C801865E9C4F0E944A348C018091A101D9
:104FE0008823A9F188E99AE30E94B1050E942B0267
:104FF0008FE990E00E944A028C2F0E94E5018AE32B
:105000000E94DA018D2F0E94E50180E00E94BF021C
:1050100023E040E26EEFC6010E94C20423E046E4B2
:1050200062EFC8010E94C204DF5FD33021F6CF5F78
:10503000C33009F0BBCF88E99AE30E94B105DF9144
:10504000CF911F910F91FF90DF90CF90089580E056
:105050000E94BF02CDCF08954F925F926F927F92D0
:105060008F929F92AF92BF92CF92DF92EF92FF9278
:10507000AC016C01F12CE12C560199248824E52F18
:10508000FF279A01DA010E94CA322C016624772494
:10509000920165E0369527956A95E1F7E29FC00198
:1050A000E39F900DF29F900D11249A0174E03695C4
:1050B00027957A95E1F7E20FF31FE40FF51F9201B0
:1050C0003695279536952795B4E056944794BA952A
:1050D000E1F72419350950E040E02E0F3F1F411D34
:1050E000511DBC01E3E076956795EA95E1F7861BD3
:1050F000970B280F391F411D511DC701B6010E9492
:105100004A32680D791D8A1D9B1DFF90EF90DF903C
:10511000CF90BF90AF909F908F907F906F905F9057
:105120004F900895A3E0B2E0E8E9F8E20C94AF33C1
:10513000CF5FDD4F8883C150D240162FCE5FDD4F49
:105140004883C250D2400E945B14CF5FDD4F28815C
:10515000C150D240E22FF0E0E057FE4F9490892CEE
:10516000880CE12FF0E0ED56FE4FE491E7B915B859
:1051700094B8822F806480937C000E94FB04CE5FF1
:10518000DD4F3881C250D2403170CD5FDD4F388362
:10519000C350D240CE5FDD4F8881C250D240D92C5F
:1051A00080FFD82CE0E2FE2E90E080E0C92CED2CB0
:1051B000082D2D2D44E7BE016F5F7F4F0E94340004
:1051C000FA9480E490E0F110F1CF14B81E0197E456
:1051D000290E311C73E2472E512C612C712CC12CED
:1051E000D12C7601812C912C5401F1018191919166
:1051F0001F01CD5FDD4FF881C350D240FF2329F05E
:1052000020E030E8281B390BC90126DF9C0150E063
:1052100040E0820E931EA41EB51EC301B2010E947F
:105220004A32C60ED71EE81EF91E3FEF431A530A34
:10523000630A730A84E74816510461047104A9F6ED
:10524000C501B40121E530E040E050E00E948C321D
:10525000ABEBB7E10E94DF32C61AD70AE80AF90AB7
:10526000A701960164E056954795379527956A956D
:10527000D1F760EE7DEC81EC9FE80E948C326901F1
:105280007A01CE5FDD4F9881C250D24091FD20C09F
:10529000CF5FDD4F8881C150D240880FCF5FDD4F97
:1052A000E881C150D2408E0F1150810F90E0880FDD
:1052B000991FCD5FDD4FF881C350D240FF2379F0B5
:1052C000865E9C4F0E944A34C81AD90AE108F10848
:1052D000C701B601CD5FDD4FE2E10C94CB33885DB1
:1052E0009C4FF0CF4F925F926F927F928F929F92DE
:1052F000AF92BF92FF920F931F93CF93DF93C0E0C3
:10530000FC2EFF0CFC0ED0E0FA94CD1709F43EC041
:1053100042E06D2F8C2F06DF2B0143E06D2F8C2F89
:1053200001DF4B010E942B028FE990E00E944A02AC
:105330000E94E8018C2F0E94E5018AE30E94DA01B5
:105340008D2F0E94E5010E94E8010E94030224E0E3
:1053500040E26EEFC2010E94C20424E046E462EF24
:10536000C4010E94C2040F2D0D0F10E0000F111F89
:10537000B201C801885D9C4F0E945D34B401C80130
:10538000865E9C4F0E945D340E94B902DF5FD3307D
:1053900009F0BBCFCF5FC33009F0B2CF0E94FC0150
:1053A0008FE991E00E944A020E94B90288E20E94BD
:1053B0000705DF91CF911F910F91FF90BF90AF90A4
:1053C0009F908F907F906F905F904F900895A2E193
:1053D000B0E0EDEEF9E20C94AF332C017C836B83EB
:1053E000DD24D3942D2C312C33E0D39E9001112455
:1053F0003E872D87F101EE0FFF1FEE0FFF1FFC8789
:10540000EB87812C30E4932E50E0712C612C1886B0
:105410001F82B12CA12C1A8219821E821D8240E0AB
:10542000C12CF0E0E0E030E020E061E070E08FEFE0
:1054300090E082199309988B8F870C2D10E08F854F
:1054400098890817190774F1AB81BC81AB2B29F13E
:1054500070E060E04230E8F09501ED81FE812E1BA6
:105460003F0BA8EEB3E00E94CA32E981FA81AE1A7E
:10547000BF0A950150E040E00E948C3288EE93E034
:10548000821B930B0E946306BC0188EB9AE70E9483
:105490006532AB81BC816D937C93C4016296E2E17D
:1054A0000C94CB33D801A20DB31DAA0FBB1FA40DC2
:1054B000B51D8D919C91E80FF91FD801AA0FBB1F54
:1054C000A40DB51D8D919C91280F391FCD1408F4A2
:1054D00089C0D801A219B309AA0FBB1FA40DB51D1D
:1054E0000D90BC91A02D2A1B3B0BE81BF90B7901F9
:1054F000EE0EFF1EC9018E1B9F0B89879A87D7016D
:10550000B695A795B695A795A80FB91FB7FD75C015
:10551000E217F30708F068C0513009F065C0D80100
:1055200056E0AA0FBB1F5A95E1F7BA8BA98BDC0195
:10553000A61BB70BBD01A817B90768F0A6E0880F36
:10554000991FAA95E1F78096C0D789899A89861B09
:10555000970B9A8B898BAD85BE85EA16FB0608F4FE
:1055600073CF8B859C8508171907BCF14423B1F0D4
:1055700069897A8966197709433050F0D401909689
:10558000C401969587958A0F9B1F86179707D0F1C0
:10559000D71650F4DD24D394D70E24CFA989BA8925
:1055A000B887AF83FE82ED82AE0CBF1C4F5F4130E7
:1055B000F9F0842F8150990BBC0195958795A989A5
:1055C000BA898A0F9B1FAF81B8858A1B9B0B7DD739
:1055D0004B0169887A88FA82E982453108F034CF34
:1055E00050E002C069877A87C39469857A8525CFA0
:1055F00069887A88FA82E982F3CF51E0E217F307EB
:1056000098F78DCFEB81FC81EF2B09F025CF45CFAB
:10561000A6E2B2E0EEE0FBE20C94B333F82ED62E15
:105620008BE493E00E944A343C01ED2DF0E0E0571A
:10563000FE4F1491EF2DF0E0ED56FE4FE4911092E5
:10564000AE011092AF011092B0011092B101109210
:10565000B5011092B4011092B6011092B7011092E8
:10566000B8011092B90180911A01813009F0D0C0BF
:105670008091010118160CF4CBC018B8E7B90E944C
:10568000FB042D2D206CD22E20937C000E94FB0465
:10569000C12EE12C00E0212F4FEFBE016F5F7F4F45
:1056A00080E191E00E9434003F2D306CF32E309366
:1056B0007C00212F44E1BE0161507E4F80E191E0EA
:1056C0000E943400FE013196BE0161507E4F5B01A5
:1056D000AE01475D5F4F81919191D5016D917D91B3
:1056E0005D019F01225031098617970708F494C085
:1056F000861B970BD9018D939C93E417F50759F7F7
:10570000D0927C0070E060E0CE01019660DE9F5F89
:1057100030E1A32EBB24B394912C812C913178F0ED
:1057200040E1A42E44E0B42E52E0852E912C90341A
:1057300030F090E1A92EBA2C24E0822E912C88E042
:10574000D82EA895C12EE12C00E0212F4FEFBE01ED
:105750006F5F7F4FC5010E9434008114910409F4EA
:1057600061C064EB71E0CE01019631DE5C01813CE9
:105770009F4308F0B1C06501F12CE12C9501D501E2
:1057800009D723E330E040E050E0C6D6A8E6B2E017
:1057900016D73FEF831A930A76946794930150E0EB
:1057A00040E0BAD6C401880F991F04C0220F331FEE
:1057B000441F551F8A95D2F72093B6013093B70145
:1057C0004093B8015093B9018091090190910A0169
:1057D000A0910B01B0910C010397A105B10540F018
:1057E0001092B6011092B7011092B8011092B9014F
:1057F000A114B10409F073C01092B5011092B40164
:105800001092B6011092B7011092B8011092B9012E
:10581000CA5DDD4FEEE0C3C7D9011D921C926DCF6A
:105820005C018FCFC5018064DA94D110F9CF811566
:105830009440C8F08EEF8F3F09F493CFE82FF0E04B
:10584000EE0FFF1F21E030E02C0F3D1FE20FF31F92
:1058500020813181A3E036952795AA95E1F7318320
:1058600020838150E8CFF0927C00E894A6F808E00D
:10587000F02EC12EE12C00E0212F44E1BE01615049
:105880007E4FC5010E9434006894A6F8FA94F11086
:10589000F0CF24E1215070F2822F90E0880F991F01
:1058A000E1E0F0E0EC0FFD1FE80FF91F40815181AE
:1058B0006FEF71E06C0F7D1F860F971FDC018D91DC
:1058C0009C914817590728F0481B590B5183408376
:1058D000E1CF11821082DECFB12CA12C4CCF27E07A
:1058E00030E02819390960E072E18AE790E004C0ED
:1058F000660F771F881F991F2A95D2F7A701960177
:105900000BD62093AE013093AF014093B00150937A
:10591000B1018091010187FD7BCF8FEF8093010161
:1059200077CFCF93DF93D82F0E94FC0186E090E0E1
:105930000E944A020E94B902C0E01092B301109284
:10594000B20184E10E94070562E080E00E94321506
:105950000E94030224E046E464EF8091B20190913A
:10596000B3010E94C2046091B2017091B301CB01F6
:105970008C539F4085399547A0F4CF5FC53090F098
:105980008BE493E09AD70E94E8018FE991E00E94AE
:105990004A0284E60E9407050E94FC01DF91CF9134
:1059A0000895C0E00E94B902DF5F39F6F5CFB0E09C
:1059B000A0E0ECEDFCE2D3C680E48AB98BB9D6E86E
:1059C000D0937A001092C1000E94E704C4B7C87057
:1059D00084B7877F84BF0FB6F894A8958091600044
:1059E000886180936000109260000FBED0936400C5
:1059F00088E380937E001092B00087E08093B1002E
:105A000078940E946E02C11134C580E185BF489927
:105A100006C082E00E940705CF5FCC33C1F78FE557
:105A20009DE69093130180931201CF3130F080E610
:105A30009DE6909313018093120110922C010E9415
:105A4000891888E19FE00FB6F894A89580936000CC
:105A50000FBE90936000CC3319F46FD88111FDCF45
:105A600032E0732E40E1542E50E1452E69E5C62EFA
:105A700061E0D62E72E1272EE0E23E2E0E942B023C
:105A800017B80E94AE060E9489180E94FC010E946D
:105A9000060B80913A01882381F00E9403028AE478
:105AA00091E00E944A0263E080912F0190913001C1
:105AB0000E94CD0488EC0E9407050E9403020E9408
:105AC0005B1480911A01893061F50E942B028FE4EA
:105AD00091E00E944A020E94030263E08091030168
:105AE000909104010E94CD040E94E80163E080913E
:105AF0000501909106010E94CD040E94E80163E037
:105B000080910701909108010E94CD048AEC0E94C7
:105B1000070581E10E9423078091120190911301F2
:105B200096C18CE00E94F70189E393E0ABD6C82FC1
:105B300086E393E0A7D6C81BC0933701CC2319F0A6
:105B40008EE00E94F70180E00E9423070E94DE029F
:105B500081EB92E00E944A0242E061E080E00E9414
:105B6000710B42E060E081E00E94710B41E062E075
:105B700080E00E94710B41E060E082E00E94710BC6
:105B800040E062E081E00E94710B40E061E082E071
:105B90000E94710B80911A0181110EC00E945B144A
:105BA00060E082E00E94321561E082E00E943215DE
:105BB00060E081E00E9432150E942B022FE331E069
:105BC00030933D0120933C0180911A018630B9F455
:105BD00088E892E00E944A0241E467E483E40E947C
:105BE00027030E94030283E691E00E944A0262E0DA
:105BF00080914301909144010E94CD048DCF873064
:105C000041F481E992E00E944A0242E367E481E3C1
:105C1000E6CF8830D9F48091830190918401890F77
:105C20009927991F029771F40E940A1B8CE00E9429
:105C3000F70180913701882309F406C4D2E010E00F
:105C400000E0EFC380E00E941C1A66CF833009F0A9
:105C50000BC180911801813009F073C080E00E946F
:105C6000B4036091890180918F010E94C20A80E78C
:105C70000E948C0340E06091890180918F0152DA8B
:105C80006093730170937401809375019093760112
:105C900080E00E94D702609173017091740180913D
:105CA00075019091760102E026E442EF0E94E00344
:105CB0008DE20E94DA0141E06091890180918F01BB
:105CC00031DA60937301709374018093750190933E
:105CD000760126E442EF0E94E00385E291E00E9413
:105CE0004A0280916F01882309F416CF57B880913A
:105CF0001201909113010E94B10517B80E942B0266
:105D000080911801805D0E94DA0185E191E00E9496
:105D10004A0230916F01332309F449C3809156013F
:105D2000313009F0E0C20E944E032091560121302B
:105D300009F0D4C2209118012111D0C20E94CF1ABB
:105D400075CF823079F582E30E94DA0185E191E036
:105D50000E944A029091890130918A01931308C0F0
:105D600080E00E94D00381E00E94C70381E080CFE1
:105D700020918F0180919001281307C080E00E943C
:105D8000C00381E00E94D703F1CF321306C081E047
:105D900080930D010E94A203A4CF98133CC04092AF
:105DA0000D01F8CF8330B9F533E330930D018091C5
:105DB0008F0190918A01891303C021E020930D0186
:105DC0004091890130919001431302C040920D012E
:105DD00020918B01821302C070920D01809191017C
:105DE000481302C030920D0132130CC020920D01F5
:105DF000981751F083E30E94DA0185E191E00E9457
:105E00004A02C8CF981303C081E280930D018091AC
:105E10000D01823278F387E992E00E944A028FE70F
:105E200092E00E944A020E94030280911801805D64
:105E30000E94DA018AE20E94DA018FE291E00E9478
:105E40004A0285E692E00E944A0280E49FE157B848
:105E5000489BFECF0E94B105823308F4B5C20E9470
:105E60009D258111FCCF0ACE843009F050C180916C
:105E70006801882309F45FC080914E01882309F4EA
:105E80005AC060914B0180914D010E943215809063
:105E9000730190907401A0907501B0907601C0914B
:105EA000850160916701809165010E9432158091A2
:105EB0003F0190914001A0914101B0914201409178
:105EC000590150915A0160915B0170915C01843FCE
:105ED00021E09207A105B10538F4443F31E05307B2
:105EE0006105710508F0C0EF443F5140610571053F
:105EF00040F4843F9140A105B10518F080EF8093F4
:105F00008501809185018C1311C08091730190915E
:105F10007401A0917501B091760188169906AA06C0
:105F2000BB0630F08CE08093190105C0C817D4F788
:105F30009DE09093190180916801882361F0809120
:105F40004E01882341F0489906C08091190191E0E3
:105F5000892780931901809119018C30F9F486E723
:105F600091E00E944A0280916801882319F080E73D
:105F70000E94DA010E94E8010E948906C82F85303C
:105F800048F5809119018C30B9F481E020914C01E1
:105F900090914D019217B8F080E015C0D0923D016C
:105FA000C0923C0182E791E00E944A0280914E013A
:105FB000882301F38EE6DCCF81E020916601909189
:105FC0006701291748F7882309F49AC08FE291E006
:105FD0000E944A0243E462E485E40E9427030E948F
:105FE000030280E891E00E944A02E0913C01F091B6
:105FF0003D01608171818281938103E020E04EEF59
:106000000E94E0030E94E80189E40E94DA01E09125
:106010003C01F0913D01868197818031974208F4DF
:1060200072C085E60E94DA01E0913C01F0913D01E9
:106030008681978180519742978386830E94F401DD
:10604000E0913C01F0913D0122E041E46AEF86815C
:1060500097810E94C20480E00E94D70287E691E007
:106060000E944A02E0913C01F0913D0163E084818D
:1060700095810E94CD04E0913C01F0913D01808525
:106080009185892B91F080E00E94D70287EF90E004
:106090000E944A02E0913C01F0913D0123E041E47D
:1060A0006AEF808591850E94C204E0913C01F091E5
:1060B0003D0182859385892B91F080E00E94D70273
:1060C00081EF90E00E944A02E0913C01F0913D0195
:1060D00023E041E46AEF828593850E94C204C530C3
:1060E00008F01ACD80E00E94D7028C2F0E94B403E2
:1060F00083E691E00E944A028C2F0E947E030CCD21
:106100008BE291E065CF83E60E94DA0197CF85307C
:1061100009F0FFCD8091190184FF3EC080E50E9407
:10612000DA01D0923D01C0923C018DE20E94DA0179
:1061300080911901C82FCF70C43091F589E891E0A2
:106140000E944A024FE367E48FE30E942703809195
:10615000190185FD3EC00E940302E0913C01F091CF
:106160003D01668584850E9432150E94E3028EE51A
:1061700091E00E944A02E0913C01F0913D0162E011
:10618000828593850E94CD0480E00E94FB02C4308A
:1061900009F4C2CCC0E09DC08EE40E94DA01C5CFF4
:1061A00085FF0DC084E40E94DA01C33051F483E816
:1061B00091E00E944A0243E467E485E4C6CF85E4A7
:1061C000F2CF8EE891E00E944A0244E467E483E55E
:1061D000BCCF8F70843009F452C080E00E94BF02AF
:1061E000E0913C01F0913D01668584850E94321565
:1061F0000E94E30280E00E94D70289E40E94DA0153
:106200000E94F401E0913C01F0913D0122E041E463
:106210006AEF868197810E94C20489E591E00E941D
:106220004A02E0913C01F0913D0162E08285938554
:106230000E94CD04E0913C01F0913D018085918563
:10624000803C924108F0A0CF80E00E94D70289E410
:106250000E94DA010E94F40122E041E46BEF90E039
:1062600080E00E94C20489E591E00E944A02E09128
:106270003C01F0913D0162E08085918583CFE09102
:106280003C01F0913D0184819581892B09F4B2CFC5
:1062900080E00E94BF0280E090E00E944A02E0910C
:1062A0003C01F0913D0122E041E46AEF8481958157
:1062B0000E94C2049FCF80E00E94D7028C2F0E94D0
:1062C000B40383E691E00E944A028C2F0E947E0371
:1062D000CF5F80911801C81770F31ECC40E0692F82
:1062E0000E94541919CC9091570124E0929FD0013B
:1062F0001124AE55BE4F24E0829FF0011124EE55CB
:10630000FE4FED90FD900D911C9140815181628175
:106310007381282F4E155F056007710708F4292F38
:10632000980FC3E0C91B3230E1F0C091580134E04E
:10633000C39FD0011124AE55BE4F84E0289FF001C9
:106340001124EE55FE4F4D915D916D917C918081B0
:106350009181A281B38184179507A607B70708F03A
:10636000C22FDC2FD695072D0C1B12E0C11101C0E6
:1063700011E08D2F0E94E50180E191E00E944A0228
:10638000802F0E94E50180E191E00E944A02812F66
:106390000E94E50180E00E94BF0281E0C11180E01F
:1063A0000E945803872D8D1B0E945803B5CB8FE6A2
:1063B00092E00E944A020E9403028CE992E00E944D
:1063C0004A0287E992E03FCD811158CB2FCCF501ED
:1063D000E80FF91FC491C03209F4682E019681318B
:1063E0009105A9F7DD2331F19D2F9170F92ED0FF92
:1063F0000E942B0260E08F2D0E941B02A895DF5F98
:10640000D170F12CE12CE61410F1CC23C9F0060D6B
:10641000111DF801EA56FE4FE491E03211F40F5FCE
:106420001F4F90E080E020E1622E98012A563E4FF7
:106430005901CDCF80E197E20E94B1058823A1F2F6
:1064400080E197E20E94B1050E94D10617CBF501C9
:10645000EE0DFF1DC491CC2399F3CF3F31F40E9480
:10646000E8012FEFE21AF20ACECF8C2F0E94DA0158
:10647000F8CF0E94FC018CE592E00E944A028BEC6E
:106480000E9407050E94D10690E080E0CDB7DEB7FC
:10649000E2E181C1DB018F939F9391D0BF91AF91D6
:1064A000A29F800D911DA39F900DB29F900D11246E
:1064B0000895991B79E004C0991F961708F0961B60
:1064C000881F7A95C9F780950895AA1BBB1B51E1D7
:1064D00007C0AA1FBB1FA617B70710F0A61BB70B54
:1064E000881F991F5A95A9F780959095BC01CD01F9
:1064F000089597FB072E16F4009406D077FD08D078
:10650000E4DF07FC05D03EF4909581959F4F0895F8
:10651000709561957F4F0895A1E21A2EAA1BBB1BAF
:10652000FD010DC0AA1FBB1FEE1FFF1FA217B3075F
:10653000E407F50720F0A21BB30BE40BF50B661F75
:10654000771F881F991F1A9469F760957095809539
:1065500090959B01AC01BD01CF010895052E97FBDD
:1065600016F400940FD057FD05D0D6DF07FC02D0FB
:1065700046F408C050954095309521953F4F4F4FB8
:106580005F4F089590958095709561957F4F8F4FDF
:106590009F4F0895A29FB001B39FC001A39F700DAC
:1065A000811D1124911DB29F700D811D1124911D1B
:1065B0000895F0DFB7FF0895821B930B0895EADF7B
:1065C000A59F900DB49F900DA49F800D911D112447
:1065D0000895B7FFF4CFF3DF821B930B0895E8947F
:1065E000DF93CF93FC01DB01D5DF7F936F93E9014C
:1065F0009A01AC01BF93AF933F932F93DF01CADFA2
:1066000026F46C1B7D0B820B930B9E01EB01FC01AE
:10661000DDD0AF91BF912F913F91D8D0BE01CF0176
:10662000F9012F913F91CF91DF910895689401C0B6
:10663000E894F92FF12B0AF027C0A0E0B0E0E2E2E5
:10664000F3E393C0092E05941AF479D0112392F440
:10665000F0E80F26FFEFE094F09400951095B094C9
:10666000C094D094A194BF0ACF0ADF0AEF0AFF0AB0
:106670000F0B1F0B13D007FC62D0CDB7DEB7ECE0D9
:1066800090C0689401C0E8948F929F92CF93DF935B
:1066900005D0DF91CF919F908F9008958824992401
:1066A000F401E401B0E49F93AA279A158B049C049B
:1066B000ED05FE05CF05D007A10798F4AD2FDC2F1F
:1066C000CF2FFE2FE92D982C892E982F872F762FEC
:1066D000652F542F432F322F2227B85031F7BF9107
:1066E00027C01B2EBF91BB27220F331F441F551FEE
:1066F000661F771F881F991F881C991CEE1FFF1F9C
:10670000CC1FDD1FAA1FBB1F8A149B04EC05FD05CF
:10671000CE05DF05A007B10748F08A189B08EC09F1
:10672000FD09CE09DF09A00BB10B21601A94E1F637
:106730002EF49401AF01BE01CD01000C08956095C7
:1067400070958095909530954095509521953F4F47
:106750004F4F5F4F6F4F7F4F8F4F9F4F08952F9237
:106760003F924F925F926F927F928F929F92AF92E1
:10677000BF92CF92DF92EF92FF920F931F93CF932E
:10678000DF93CDB7DEB7CA1BDB0B0FB6F894DEBFC5
:106790000FBECDBF09942A88398848885F846E84EB
:1067A0007D848C849B84AA84B984C884DF80EE8035
:1067B000FD800C811B81AA81B981CE0FD11D0FB63E
:1067C000F894DEBF0FBECDBFED010895E3DE460FA6
:1067D000571FC81FD91F08F431960895BB27FA0127
:1067E000A62F6217710581059105330B30FB66F00A
:1067F000AA27660F771F881F991FAA1FA21710F0DC
:10680000A21B63953850A9F7A05DAA3308F0A95DD3
:10681000A19336F7B111B1931082CA0123C045325A
:10682000510518F4423008F004C0FB011082CB017E
:106830000895BB27FB015527AA27880F991FAA1F78
:10684000A41710F0A41B83955051B9F7A05DAA338B
:1068500008F0A95DA193009779F7B111B193119256
:10686000CB0100C0DC01FC01672F71917723E1F7B8
:10687000329704C07C916D9370836291AE17BF070D
:10688000C8F30895F999FECF92BD81BDF89A992772
:1068900080B50895A8E1B0E042E050E013C0262F93
:1068A000F999FECF1FBA92BD81BD20BD0FB6F894F5
:1068B000FA9AF99A0FBE01960895F1DF272FF0CFCB
:1068C000DC01CB01FC01F999FECF06C0F2BDE1BDB0
:1068D000F89A319600B40D9241505040B8F708959F
:0468E000F894FFCF5A
:00000001FF
