:1000000042C7000052C7000050C700004EC70000A2
:100010004CC700000C94662A48C700000C94BA0E26
:1000200044C7000042C700000C94A8200C944A2A40
:100030000C94582A0C94822038C7000036C7000060
:100040000C94242A32C7000030C700002EC70000DD
:100050002CC700000C94BB0E28C7000026C7000068
:1000600024C7000022C70000E62FF72F903009F4C4
:100070009395E5B8C4B8B6EFB0937A00A5E0A09325
:100080007B00A8E0A093810010928000AFEFA093C6
:100090008500A0938400A6E0A093360010928B0008
:1000A00010928A00B3E0AFE3A91B51E0392F33303F
:1000B0002AF0A05CBC4F53953350F9CFB093890020
:1000C000A0938800A0917A00A4FFFCCFB6EBB09378
:1000D0007A00A2E0A0936F00A9E0A093810062E003
:1000E000A0E0A0937B00A1E0A09353008895E5B821
:1000F000C4B884FF1AC0A8E10000AA95F1F7EF93F5
:10010000FF93E7B1F8B1A4E0C2FCA2E0C0FCA1E01B
:10011000BF2FBA2BAE2BB8B904B9A7B9E7B9F8B954
:10012000FF91EF910BC00C947300ACE10000000054
:10013000AA95F1F725B9E5B8000004B9A0918400AB
:10014000A0918500B0918900A395AB1760F7A091AD
:100150007A00A4FFF3CFB6EBB0937A006A9571F7FB
:100160006091780070917900308186FD630F619312
:10017000308186FD731F80FF7193652F4A9579F753
:1001800010926F0010928100B6E0B0937A0008954B
:10019000D601CF01C8011008407E01013E01013E99
:1001A00001013E01017E404018000720080808F8C0
:1001B0000000002060A03FA06020020202FF0202B7
:1001C000021010101F000000050842818989760581
:1001D00008C2A19189860508000402FF00101005DD
:1001E00008F878385888091003081C3E7F0D080766
:1001F00010FF818181F1E1C1FF4040404743410D43
:10020000080110FFFF11080310F1E1C14743410E3F
:100210000008202121122060E0E0E0FEFE0402013F
:100220000001037F7F21C2C4C4C04094840007033F
:100230000102040E080210FEFE7F7F000000001184
:100240000005202060E0E0E00201000103C2C4C418
:10025000C0400703010204010410090A0C4E6F7428
:100260002063616C696272617465642120466F72FB
:10027000FF63616C6962726174696F6E20636C61A7
:100280006D70207468652033FF70696E7320746F21
:1002900067657468657220616E642073746172743E
:1002A000207769746820746865FF6B65792E20413A
:1002B000636B6E6F776C6564676520746865207327
:1002C000656C662D74657374207769746820746832
:1002D00065206B65792077697468696EFF32732ECB
:1002E00020446973636F6E6E6563742070696E730A
:1002F00020616674657220746865FF6D6573736153
:100300006765202269736F6C617465FF50726F625C
:100310006521222069732073686F776E2E20536FDA
:1003200066747761726520616E6420646F63756DB9
:10033000656E746174696F6E2069732061742073D7
:10034000766E3A2F2F206D696B726F636F6E7472C9
:100350006F6C6C65722E206E65742F7472616E7393
:100360006973746F72207465737465722000B903C9
:10037000870358032E030703E402C302A402880282
:100380000000140029003E0053006900800097001F
:10039000AE00C600DF00F80012012D014901650121
:1003A0008201A001BE01DE01FF01210244026802B8
:1003B0008E02B502DE020903350364039403C80309
:1003C000FE0337047304B404F90443059305EA05F6
:1003D0004906B3062907AE074808FF08DE09FD0AEB
:1003E000930C480F991B0000000000000000000063
:1003F0000000000000001E2121211200807F00006B
:10040000007E4A4A4A34000000000000FC402010F0
:1004100008040201000000010101010101010101C4
:10042000010101017F0488D0E0F0F8000000000025
:1004300000000000000000000000000000FC949498
:100440008400000102FC0000000000000000000029
:1004500000001E21212112E0C0804020100F00006A
:1004600000C020202040000000FC00009E9E0403ED
:10047000030303020000002020232425252320203D
:10048000203F00007B7B2142840480C000000000EC
:1004900000000000000000000000FC9494840004B0
:1004A0000607070708F00000000000000000000039
:1004B000000000803F2121120C00000000FF00001E
:1004C00000F0084848C80000FE0000E7818181C1B3
:1004D000E1F18181810100202020212121202020A3
:1004E0003F0000F340404041434740407FC0000090
:1004F00000000000000000000000000048949494F8
:100500006400000000FF0000000000000000000088
:100510000000000000003F2121120C0000FF00003D
:1005200000F0084848D0000000000000FEFE04046F
:100530000404040404070008080809090908087FDE
:100540003E1C08087F7F20202020202020E0000083
:1005500000000000000000000000000000004894BF
:100560009494640000FF0000000000000000000000
:1005700000FF003C0A090A3C00223129292600001C
:1005800082868E9EBEFEFEBEDEEFF6FAFEFEFAF21A
:10059000E2C28200000008080804027984A4A4686A
:1005A00000FF00000000000000000000000000004C
:1005B000000000000000000000FF0000F0282428D8
:1005C000F0001008FC000000000000000000000027
:1005D000003C0A090A3C00FF000000000000000087
:1005E00000000000000000000000040C1C3C7CFF28
:1005F0007C3C1C0C040000000000009EA1A9A99AEC
:10060000804323130B0703FF0303030303030000CB
:10061000000000000000000000788484844800FF8F
:10062000000000000000000000F00804E2110909C9
:10063000090909090909091121C2040810E000008B
:100640000001020404070000000000804020108820
:100650004423100804030000000000000000000014
:1006600000FE0100FC02010000000000000000008C
:1006700000000000000000000079494979000000F6
:1006800000000000000040F010101010F0400001C9
:1006900001010101010040FCF8F0E040FC400007CE
:1006A00003010000070040FC40E0F0F8FC400007B8
:1006B00000000103070040FCFC0000FCFC400007B8
:1006C000070000070700788482028284780006040D
:1006D00007000704060000FC000000F01000100FE7
:1006E000020402070400080808080808F84002028B
:1006F00002020202030040F8080808080808000384
:1007000002020202020240404040404040400000DD
:10071000000000000000C000008000008000010216
:1007200002010202010200800000800000C00201FC
:1007300002020102020100F8040222548800101F84
:100740001002020100000000000000000000000094
:100750000000000000000000000000000000000099
:100760000000000000000000000000000000000089
:100770000000000000000000000000000000000079
:100780000000000000000000F80402FE02000C0659
:10079000050404070C0002FE020002FE020004072A
:1007A000040404170C0002FE02F002FE020004071B
:1007B000040704170C000000E01008F808000C06FD
:1007C000050404070C00804028F82840800001023E
:1007D000141F1402010008F8080008F808000407B4
:1007E000040404170C0008F808C008F808000407FF
:1007F000040704170C00001018FCFC18100000017E
:10080000010101010100001018FC18100000000097
:10081000000100000000000000FC000000000001DA
:100820000101010100004040404050E04000000054
:100830000000010000002070A820202020000000FF
:10084000000000000000E0000000000000000101C6
:100850000101010101002070A82020A870200000E3
:1008600000000000000000C0F0FCF0C0000000002C
:100870000000000000000C3CFCFCFC3C0C000000F4
:100880000000000000000000000000000000000068
:10089000000000000000000000FE0000000000005A
:1008A000000D0000000000160E0000160E000000F3
:1008B0000000000000000010FC1010FC10000001FF
:1008C000070101070100001824FE4488000000030E
:1008D000040F040300000C12924C201008000201C7
:1008E0000006090906008C5222528C40C000010209
:1008F000040404010200000000160E0000000000C5
:100900000000000000000000F008040200000000E9
:100910000102040800000000020408F000000000CA
:100920000804020100004850E0FCE05048000201C9
:10093000000700010200404040F840404000000035
:1009400000030000000000000000000000000000A4
:1009500000160E00000040404040404040000000B3
:100960000000000000000000000000000000000087
:100970000006060000000000804020100800020170
:10098000000000000000F80402020204F800010266
:10099000040404020100000804FE02000000000438
:1009A000040704040000080402824224180004061C
:1009B00005040404060006020202122AC60001020F
:1009C000040404020100C0A09E8080FC800000009E
:1009D0000000040704003E120A0A0A12E60001029F
:1009E000040404020100F84422121224C00001028F
:1009F0000404040201000E02C262321A0E0000005A
:100A000007000000000088542222225488000102BE
:100A1000040404020100384482824224F8000002E7
:100A20000404040201000000001818000000000087
:100A3000000606000000000000181800000000007A
:100A400000160E0000000040A01008040200000084
:100A500000010204080000202020202020000001C6
:100A60000101010101000002040810A0400000087B
:100A70000402010000001804028242241800000051
:100A8000000D00000000F804D252E204F800010258
:100A900005050405040200F0080402FE0200040734
:100AA00005010507040002FE2222225488000407E3
:100AB000040404020100F804020202048E00010290
:100AC00004040402010002FE02020204F80004070A
:100AD00004040402010002FE222272020E00040736
:100AE00004040404070002FE222272020E0004071E
:100AF000040400000000F80402C24244DE000102C7
:100B000004040201070002FE222022FE0200040764
:100B1000040004070400000202FE020200000004B8
:100B20000407040400000000000202FE02000003AB
:100B300004040403000002FE62900804020004079B
:100B400004000106040002FE020000000000040789
:100B500004040404070002FE38E038FE0200040723
:100B600004000407040002FE1A6082FE020004076B
:100B7000040005070400F80402020204F800010260
:100B800004040402010002FE424242241800040749
:100B9000040000000000F80402028204F8000102D0
:100BA00004040405020402FE42C2422418000407A1
:100BB0000400010604008814222222448E0001024F
:100BC0000404040201000E0202FE02020E000004F0
:100BD00004070404000002FE020002FE02000003FB
:100BE00004040403000002FE820082FE02000000F2
:100BF00003060300000002FE02F002FE02000001F4
:100C000007030701000002DE722072DE0200040703
:100C1000040004070400027EC280C27E02000000BD
:100C20000407040000000E824222120A0600070494
:100C300004040404070000FE020202000000000792
:100C400004040400000008102040800000000000A0
:100C50000000000102000000020202FE000000008D
:100C60000404040700001008040204081000000037
:100C70000000000000000000000000000000080864
:100C80000808080808000000000E16000000000018
:100C9000000000000000904828284890E000010271
:100CA00004040402070002FE10080810E000040714
:100CB000020404020100E0100808081038000102D4
:100CC000040404020100E010080810FE0200010202
:100CD000040402070400E050484848506000010244
:100CE00004040402010020F82422020C000004077E
:100CF000040400000000E010080810F808000009D3
:100D000012120907000002FE100808F00000040794
:100D1000040004070400001016F6000000000004A0
:100D20000407040400000000101616F00000000C78
:100D30001010100F000002FEC02010081800040759
:100D400004010204040000000202FE000000000092
:100D500004040704040008F808F008F00000040781
:100D600000070007040008F8201008F0000004073E
:100D7000040004070400E01008080810E000010265
:100D800004040402010008F810080810E000101F15
:100D9000120404020100E010080810F80800010223
:100DA0000404121F100008F820100808300004077F
:100DB0000400000000001028484848903800010254
:100DC0000404040201000808FE08080000000000F6
:100DD00003040404020008F8080008F808000003EF
:100DE00004040207040008F8880088F808000000DE
:100DF00003060300000008F808C008F80800000314
:100E000006030603000008B8E040E0B80800040745
:100E100000000007040008F8080008F808000009AE
:100E20001212110F0000180888482818080006053B
:100E300004040404060040B01C020200000000018B
:100E4000070808000000000000FE0000000000008D
:100E5000001F00000000000002021CB04000000063
:100E60000808070100000C02020408080402000040
:100E7000000000000000C02010081020C000010188
:100E800001010101010011241FBECFEFD8E0DEBF38
:100E9000CDBF21E0A0E0B1E001C01D92AA3CB207A5
:100EA000E1F70E949F360C94BD3EAAC85D98559A02
:100EB00080FD599A80FF5998519A539A5A9867FD24
:100EC0005B9A67FF5B985A9A5A9866FD5B9A66FF31
:100ED0005B985A9A5A9865FD5B9A65FF5B985A9A97
:100EE0005A9864FD5B9A64FF5B985A9A5A9863FD1E
:100EF0005B9A63FF5B985A9A5A9862FD5B9A62FF0D
:100F00005B985A9A5A9861FD5B9A61FF5B985A9A6E
:100F10005A9860FD5B9A60FF5B985A9A5D9A5A985E
:100F20005B980895609348018093040186958093AF
:100F3000B101660F660F660F60930F0108958091EF
:100F40004801809301018091B101809303010895CC
:100F50008091030160910101880FE4CF0895CF9340
:100F6000C82F692F81E0A2DF6C2F81E09FDFCF9136
:100F70000895682F80E09ACF08958DE0C3D48AE069
:100F8000C1C408951092B10160E080E0CBDFF5CFDD
:100F90000895CF93DF938AE2ECDF90E080E0DFDF1B
:100FA00080E890E0DCDF8BE2E4DF90E080E0D7DFF8
:100FB00080EA90E0D4DF8CE2DCDFC0EAA895D0E0E4
:100FC0008091260190912701CADFDF5FD038C1F7F9
:100FD000C150A1F7D7DFDF91CF910895CF93DF9371
:100FE00058985A985B985D98509A529A539A559A85
:100FF000BAD45D9A559A5998519A84E1BBD4589ABB
:1010000084E1B8D48AE0B6D481E1B3DF84E0B2D41D
:1010100086E2AFDF64E081E049DF81EBAADF6EE0CA
:1010200081E044DF64E181E041DF80ECA2DF80E029
:101030009EE095DF81EC9DDF65E081E037DF85ECA8
:1010400098DF80E498E38BDF8AE393DF65E081E05B
:101050002DDF86E38EDF89E393E00E948F3EC6E2B8
:10106000D1E0888388E393E00E948F3E898387E301
:1010700093E00E948F3EC0E6D1E0888386E393E050
:101080000E948F3E89836CE181E010DF84EB71DF89
:1010900060E081E00BDF7DDF89E26BDF8AE06AD40C
:1010A000DF91CF91089581E08093B10160E082E00B
:1010B00039DF63CF089582E08093B10160E084E07E
:1010C00031DF5BCF089583E08093B10160E086E07B
:1010D00029DF53CF08950895582F28E030E090E895
:1010E00041E080E0652F642309F0892B440F969539
:1010F00021503109B9F70895A6E0B0E0E2E8F8E040
:101100000C94FC3D9E838D83F42E10E0A62EB12C12
:10111000C501800F911F813891050CF08DC08E2D77
:1011200090E0AC014F0D511D413A51050CF084C0C7
:10113000EA94EF0C3FE93E1510F44FE9E42E322F0C
:101140003270398321FF13C0019733E0959587955D
:101150003A95E1F7809FA001819F500D909F500D1F
:1011600011248D819E81840F951F9E838D83217014
:101170002C83180131E0231A310843C08BE2F9DED9
:10118000C401EDDEC201EBDE8AE2F3DE35016C0C58
:101190007D1CC301E4DEC301E2DE8CE2EADE9C8159
:1011A000992309F43FC0EA81FB81EC19FD09749091
:1011B0003981311103C0872D8FDF782E88E0682EAA
:1011C000809160019091610177FC04C080912601BB
:1011D00090912701C4DE770C6A946110F1CF8FEFF4
:1011E000C81AD80A0C151D0509F0C8CF9981992392
:1011F000F1F08D819E81801B910B9E838D8398E001
:10120000F90EEF14C8F0D12CC12C8F2C912C240195
:1012100087E0480E511C8D819E81820D931D9B831A
:101220008A83E0CFED81FE81EC0DFD1DC0CF8D8165
:101230009E81800F911FE1CF2696E2E10C94183E2B
:10124000EF920F93482F8F7320E6829FC0011124E5
:101250008A519C4F28E046FF28E420931001109209
:10126000000147FD08C02091100130E230930001D9
:101270002D5E2093100120E2E22E08E120E0409153
:1012800000016091100138DF0F91EF900895EF9207
:101290000F93262FFC01349131964491319604919D
:1012A0003196E490E09100014E0F60911001630FC0
:1012B000049622DF0F91EF90089560E0E8CF089543
:1012C000EF920F93CF93C82F809148018F5F809347
:1012D000480140910401440F440F440F20E1C29F94
:1012E000C001112420E1E22E08E020E060910F010E
:1012F0008A57994F01DF80910F01885F80930F011A
:10130000EFEFEC0F8C2FEA30B0F4F0E0E657F64F39
:101310000C94113D94099809A109A909A709A309E9
:10132000A309A509AF09AF098EE3ECD28CE703C08E
:101330008CE7E8D28CE3E6D2A895CF910F91EF909D
:1013400008958CE7F2CF82E5F6CF8DE2F4CF85E702
:10135000F2CF8FE4D7D288E6D5D28DE6ECCF8CE4FD
:10136000EACF8F5CADCF089580E2AACF0895CF93E6
:10137000C82F1C1614F0CF910895F6DFC150F9CF95
:101380009091480180E1891BF2CF0895CF93C82F37
:10139000F7DF8091B1018F5F8093B1018A3070F0E7
:1013A00089E08093B10181E080934B018091B1018C
:1013B0006C2F880FB7DDE1DDCF91089510924B01BE
:1013C000F5CFE4DF32D48091B101833008F0D5CD80
:1013D0000895D8DDD5DFD6CD089565DED1DF63CEA3
:1013E00008958DE36DCF0895CF93DF93EC0189913C
:1013F000811103C0DF91CF91089562DFF8CFCF93C1
:10140000DF93EC01FE018491982F9F7719F058DF4C
:101410002196F8CFDF91CF910895CF93DF93EC0120
:10142000CE010E948F3E982F9F7719F049DF2196B9
:10143000F7CFDF91CF910895EF920F93FC010491C4
:101440003196E490029658DE0F91EF9008950F9335
:1014500085EA91E0E2DF409195014D3F6CF46091A7
:10146000830170918401809185019091860103E050
:1014700026E417D10F9108958FE322DFFBCF9091DF
:1014800024019F70923071F49CDF84E790E0C5DF07
:10149000E0914901F0914A0122E044E06FEF84813C
:1014A0009581E1C1089597FF09C08F939F938DE2C5
:1014B00007DF9F918F91909581959F4F6EE271E02C
:1014C0004AE050E00E945C3E8FCF0895ECDF01C0FF
:1014D000EADF4ACF0895EF92FF920F931F93182FE0
:1014E000062FF42E87E891E098DFEE24E091490181
:1014F000F0914A018685E81611F4812F09C0848590
:10150000E81611F4802F04C08585E81611F48F2D9C
:10151000D7DEE3948E2D833049F71F910F91FF9012
:10152000EF900895EF92FF920F931F93182F062FBD
:10153000F42E80E046DF8DE891E06FDFEE248E2D03
:1015400010DF4FDFE0914901F0914A018685E816EE
:1015500011F4812F09C08485E81611F4802F04C08E
:101560008585E81611F48F2DABDEFEDEE3948E2D1B
:10157000833029F71F910F91FF90EF900895682F06
:1015800080E092E0662309F491E0623009F481E0A2
:1015900008950F93082FE2EBF1E0880F880FE80F12
:1015A000F11D6081718182819381643671058105AD
:1015B000910570F42091020127FD0AC0802FDFDF22
:1015C000692F0E9427266EEF23E044E04CD104C02F
:1015D0004FEF04E024E065D0C7DE0F910895863018
:1015E00058F4E5EAF1E0E80FF11DE80FF11D808104
:1015F000918163E043D1B8CE08951F93182F809155
:101600007E01882319F0B0DE80E05ADE4CDD8EE7E3
:1016100091E003DF812F82958F70E1DF812F8F7042
:10162000DEDF1F9108958091110182958F7019D08E
:101630008091110183701CD080911101DECF08953B
:10164000E9E9F1E0E80FF11D0895CF93F9DF90810A
:10165000C681C91710F405D001C013D085DECF9123
:101660000895EEDF8F9380817CDE8F9101C0089515
:101670008F938CE491E0D1DE8F91E2DF868171CE91
:101680000895DEDF8F9386816CDE8F9101C008950F
:101690008F9388E491E0C1DE8F91D2DF808161CEAB
:1016A0000895AEE0B0E0E7E5FBE00C94FC3D142FBC
:1016B000622E702E6B017C010F7080E389838A8318
:1016C0008B838C838D838E83F7FE40C08DE2F8DDA3
:1016D000F094E094D094C094C11CD11CE11CF11C86
:1016E00068EE862E63E0962EA12CB12C033041F1DA
:1016F00050E1852E57E2952EA12CB12C043001F13A
:1017000040EA842E46E8942EAA24A394B12C0530F6
:10171000B9F030E4832E32E4932E3FE0A32EB12CB7
:10172000063071F074E6872E912CA12CB12C073075
:1017300039F420E8822E26E9922E28E9A22EB12C37
:101740009AE0292E312C412C512C12C075FEC8CFA5
:101750008BE2B6DDC5CFC701B6016B5F7F4F8F4F00
:101760009F4FA20191010E94D33C69017A011F5F42
:10177000C814D904EA04FB0470F781E1810F9BEAE5
:10178000899F812D1124A82EA69486E0811B899F14
:10179000112D11241695912F990F190F811B182FB8
:1017A0004E0187E0880E911C2AE0A401C701B60112
:1017B0000E943B3EF40101900020E9F731977F0140
:1017C000E818F9089E2C6701DD24812F90E004962B
:1017D0008C159D0514F4A3941D5F8A2D90E0845D03
:1017E0009F4F0E948F3EA82E74FE29C0901638F598
:1017F0000E198E2C811A800E181424F08EE260DDF2
:10180000012F0E19111102C088EF882E912C10E0C3
:10181000C00ED11EE82C082C000CFF08E92DF0E0CA
:10182000EC15FD0574F0AA2011F08A2D49DD662023
:1018300011F0862D45DD2E96E2E10C94183E00E075
:10184000D8CF3696E01BF10B81E090E08C0F9D1F06
:10185000E80FF91F808134DD93949E141F04F1F684
:101860008EE22EDDDBCF0F93362FBC0190E080E0BF
:10187000022F242F432F15DF0F9108950F93062F6A
:10188000BC0190E080E026E54DEF0BDF0F9108955D
:101890000F93042F28E440E004DF8AE711DD64DDC4
:1018A0000F910895E82FF0E0EE0FFF1FE057FE4F75
:1018B0008591949120910001420F20911001620FB7
:1018C00020E0BACD0895CF93DF93C82FD62FE091B3
:1018D0004901F0914A0148E16EE18685E3DFE0913C
:1018E0004901F0914A014D2F6C2F8485DBDFE09197
:1018F0004901F0914A0140E06EE18585D3DFDF9137
:10190000CF9108958F932F932AE080953B9A089466
:1019100010F4439802C0439A000020D027D0869547
:101920002A95B1F72F918F91089503D002D001D05D
:1019300000D000D003D002D001D000D000D003D01E
:1019400002D001D000D000D0A89503D002D001D0A1
:1019500000D000D003D002D001D000D000D003D0FE
:1019600002D001D000D000D003D002D001D000D0EE
:101970000000089590E0893C28F0885C48EC849F42
:10198000C0011124009709F4089520918100277067
:1019900019F0DADF0197F6CF8130910519F002973F
:1019A0003EE303C037E180E090E02091B200230FD6
:1019B0002093B30042E04093700027E023BF889556
:1019C00026E023BF10927000A895DCCF8F9384E0AF
:1019D000D1DF07C08F9382E0CDDF03C08F9381E01A
:1019E000C9DF8F911F93182F106410937C00E12F93
:1019F000E07880913901E81759F0E0933901AEDFC2
:101A00008EE980937A0083E083BF889582E083BF6C
:101A100020E030E0A901E0E01FC08EE980937A0069
:101A200083E083BF889582E083BF609178007091E6
:101A30007900260F371F411D511DE43061F480915C
:101A40003B01803041F084E02030380720F417FD5E
:101A500002C01068CACFEF5F80913801E817E8F242
:101A600060913C0170913D0117FF04C060913A0103
:101A700070913B0180E090E00E94913C2FEF33E0B9
:101A800040E050E00E94D33CB901CA0120913801E6
:101A900030E040E050E00E94D33CC9011F9108951E
:101AA0009B01281B390B50F0C9010895BC0180919E
:101AB0003C0190913D016817790718F4861B970B3C
:101AC000089580E090E0089589B183FB882780F92C
:101AD0004999826090911C01943050F09EE090935F
:101AE00018018093190110921D0191E090931C013F
:101AF000E0911C01AE2FB0E0A85EBE4F2C912817DC
:101B0000C1F081110EC090911D01A3E0AE0FA37032
:101B10002230B1F4B0E0A85EBE4F2C919F5F23301D
:101B2000C1F0EF5FE370E0931C01F0E0E85EFE4F70
:101B3000808380911D0187FD0FC080931E01089551
:101B4000213079F7B0E0A85EBE4F2C91233049F7E1
:101B5000915090931D01E5CF8195EFCFB0E0A0E0CB
:101B6000E4EBFDE00C94053EE82ED92E53985198F5
:101B7000F0DE10921D01E0911C01F0E03196E3705F
:101B8000FF27E85EFE4F80EF8083C5E6D9E19CDF4A
:101B90004F9B24C0CE2DDD2DF12C15E500E0BB249C
:101BA000B394D7FD15C082E3C82E8EDFD6DECA946B
:101BB000C110FBCF110F4F9B1F5F1F731F33A1F489
:101BC000011103C0CE2DDD2D04E00F5F083C80F035
:101BD000802FCDB7DEB7E9E00C94213EBEDED150B8
:101BE000B1F6C15099F6D6CF111102C00111F0CF54
:101BF000A8951C161D0624F42A9711F4CFEFDFEFE9
:101C000080911E01882339F0F39480917F01811126
:101C100002C0B0927F0184E18F1508F0C2CF80919D
:101C20001D018111D5CFF12CBCCFCF9388D9C82FFE
:101C300080914B01882301F1813051F4C93041F486
:101C40006FE082E16FD98BE23BDB6FE082E16AD922
:101C500080E49FE183DF811104C080911E01811126
:101C6000F7CFC93041F480914B01813021F460E01D
:101C700082E158D985DB6CD9CF91089582E693E053
:101C80000E948F3E382F83E693E00E948F3E209182
:101C90004001230F30914101381F209321013093DF
:101CA000220183E0283E380720F0C901885E934076
:101CB00002C080E090E062E370E00E94AC3C6830DB
:101CC00008F067E0EEE6F3E0E60FF11DE60FF11D28
:101CD000459155912591359162E3681B421B530B49
:101CE000649FC001659F900D1124499662E370E0E6
:101CF0000E94AC3C620F731F70938201609381015C
:101D000084E693E00E948F3E992787FD909560912D
:101D1000400170914101860F971F90933B01809382
:101D20003A0190937D0180937C010895CF93DF93D6
:101D300024E130E0B9010E94AC3CDC01E0E8F3E0D2
:101D4000E60FF71FE60FF71FC591D5914591559105
:101D50004C1B5D0B4A9FC0014B9F900D5A9F900DED
:101D60001124B9010E94AC3C6C0F7D1FCB01DF91A7
:101D7000CF9108951895189540912301A09149019C
:101D8000B0914A01E9E9F1E030E020E0822F241728
:101D9000B0F451911C969C911C97591719F05581DC
:101DA000951303C02F5F3F4FF1CF220F331FF9016F
:101DB000EB55FE4F20813181293E334008F084E10C
:101DC000089510922501109223011092770110922C
:101DD0005B01109224011092470110927E01E2E60D
:101DE000F1E0108211821282E3E8F1E0108A82E0D1
:101DF000818B109202011786168614821582168234
:101E0000178281EF838B08958FE47CDD86E47ADD91
:101E100086E478DDB2D85E988BDD90E080E09ECEDF
:101E200008951F93CF93DF93162F98E097B998B931
:101E3000E82FF0E0E95AFD4F949195B9262F281B21
:101E4000E20FF11D27FDFA95E491E92BE4B9CADD13
:101E5000EC01812FC7DDAC0120913C0130913D01A7
:101E600036952795C9010397BE01625E7F4F86179D
:101E7000970778F4255E3F4FC217D30750F4BA0195
:101E8000625E7F4F8617970720F481E04217530761
:101E900008F080E014B8DF91CF911F910895CF939F
:101EA00061E080E0BEDFC82F62E080E0BADFC80FEB
:101EB00062E081E0B6DF8C0FCF910895AFE0B0E033
:101EC000E4E6FFE00C94FC3DB82E10922501807FE3
:101ED000B9F4E5DF833081F45CD88EE692E09DDAD8
:101EE000E2D88FE3EDD980ED97E038DE8B30B0F4A7
:101EF00050D88AE191E091DA2F96E2E10C94183EF5
:101F000006E910E046D88DED91E087DAC8DF83302E
:101F100009F068C01F5F143008F465C0C4D80E947F
:101F2000092181EC90E079DA60E08CE393E00E9493
:101F30009C3E60E08DE393E00E949C3E60E08BE37A
:101F400093E00E949C3E60E082E00E9427266C01A4
:101F50009A83898361E082E00E9427267C019C832A
:101F60008B8360E081E00E9427268C019E838D8315
:101F700023E040E26EEFC60176DC23E040E26EEF44
:101F8000C70171DC23E044E06EEFC8016CDC2AE598
:101F9000C216D10424F084E190E09A838983698198
:101FA0008CE393E00E949C3E8AE5E816F10424F05D
:101FB00084E190E09C838B836B818DE393E00E94AE
:101FC0009C3E0A35110524F084E190E09E838D83C8
:101FD0006D818BE393E00E949C3E82E080934B01F5
:101FE00024DE06C010E088E2C5DC015009F08ACF8B
:101FF000EB2DEF70EF87E13009F04CC0EE24E39455
:10200000F12C78EB872E72ED972E77E4A72EB12C6A
:10201000E2E0DE2E08E0F0E23F2EC12C1E2D50E360
:10202000252EDBD9D6D984E54BD9C70147DA9CD90F
:10203000113009F0CAC184EF90E0EFD964E08091DB
:102040004001909141011ADC2ED88FEE90E0E5D945
:10205000809181019091820131DA8EEB8093380179
:1020600007B908B914B815B888EE93E077DD1430D5
:1020700011F08B3020F4C39484E0C812D2CF88EEE4
:1020800093E06CDDEFEFEE1AFE0AF8E0EF16F104D4
:1020900009F0C3CF18E703DF882341F09ED98EE50E
:1020A00092E0BBD984E666DC1150A9F70E94C9070B
:1020B0008AEB90E0B2D923E044E06FEF80913E01DB
:1020C00090913F01D0DB0E94530883EB90E0A5D9AB
:1020D00023E044E06FEF8091450190914601C3DB1E
:1020E00082E080934B01A1DD109225010E94C90777
:1020F0008FEA90E092D960E082E00E94BC1D80905F
:102100008B0190908C01A0908D01B0908E019C86E7
:102110008B8661E082E00E94BC1DC0908B01D09054
:102120008C01E0908D01F0908E01DE86CD8660E01E
:1021300081E00E94BC1D00918B0110918C011E83D7
:102140000D8362E080E00E94BC1D80918B01909124
:102150008C019C838B8362E081E00E94BC1D809196
:102160008B0190918C019A87898761E080E00E94C1
:10217000BC1D80918B0190918C019A8389832F855E
:10218000213029F020914401223009F006C2029644
:1021900098878F83C4019CD9C6019AD9B801110FC1
:1021A000880B990B03E026E444EF7BDA8E010F5F86
:1021B0001F4F9E01215F3F4F7801F701819191915F
:1021C0007F010A97853B9105D0F42E173F07A9F7A9
:1021D0004BE5C42E43E0D42EF80160810E5F1F4F03
:1021E0006E5EC6010E949C3EFFEFCF1ADF0A0E15FD
:1021F0001F0591F70E9453088AEC91E00ED982E006
:1022000080934B0112DD0E9434332F85213029F059
:1022100080914401823009F0C1C00E94C90780E06A
:10222000A0D880E791E0F9D882E09BD884E290E0E2
:10223000F4D820E4F22E10E03AE0832E912CA12C69
:10224000B12CBFDD1092250160E082E00E94BC1D30
:102250000091950120918301309184014091850185
:1022600050918601073F0CF49DC100939501209386
:102270008301309384014093850150938601073F89
:1022800009F098C1205631094109510920393545D5
:102290004105510508F08EC1609197017091980138
:1022A000CB018B569F4F8B32914008F083C11F5F4B
:1022B000153008F480C182E693E00E94AA3E0E9495
:1022C000C9078DE190E0A9D880919701909198017C
:1022D000EAD8D4DC88E088B989E087B980E284B99B
:1022E00082E080DB853D9340DCF714B810923B011F
:1022F00010923A0182E076DB7C0180917C01909122
:102300007D0190933B0180933A0182E06BDB6C018D
:10231000CC0CDD1C10923B0110923A0182E062DB92
:102320004C01A0907C01B0907D01B0923B01A09245
:102330003A010E94530886E190E06FD884E693E06A
:102340000E948F3E182FD701A80DB91DAC19BD09E9
:1023500095010E94263D96010D2C000C440B550B57
:102360000E94F53C1D5F120F612F84E693E00E94EE
:102370009C3E812F012E000C990B95D87FDC82E0CA
:1023800080934B0152DC109244018BE593E00E9454
:102390008F3E682F8EE593E00E949C3E89E18093FA
:1023A000380180E00E9458360E94C9078AE191E016
:1023B00034D80E94530885E592E02FD81092250169
:1023C00082E080934B0131DC97CD123089F520916A
:1023D0003C0130913D01A8E5BBE10E94173D24EC92
:1023E00036E340E050E00E94F53C29013A0181E0EB
:1023F00085B9F5E0F4B980E0E9DA841995099A83A2
:10240000898381E184B980E0E1DA841995099C83AC
:102410008B8384E085B984E184B981E0D7DA8419BB
:1024200095099E838D8389ED90E00E940D0A34C04A
:10243000133049F5D5B82AE024B980E0C7DA2091F5
:102440003C0130913D013695279538872F83821BBB
:10245000930B9A83898382E284B980E0B7DA2F8173
:102460003885821B930B9C838B8305B9E8E2E4B922
:1024700081E0ACDA2F813885821B930B9E838D839C
:102480008BEC90E0D2CF1430C9F48EE592E00E943C
:102490000D0A05DD8111A6C00E94530889819A8129
:1024A00002D80E94B4098B819C810E94530A0E9429
:1024B000B4098D819E810E94530AD2CD153099F4C2
:1024C00015B8D4B880E082DA9A83898304B981E0B0
:1024D0007DDA9C838B8334B882E078DA9E838D83A7
:1024E0008BEE90E0A2CF163039F5D4B8D5B880E0A5
:1024F0006DDA20913C0130913D01821B930B9A8350
:10250000898304B905B981E061DA20913C013091F9
:102510003D01821B930B9C838B8334B835B882E0DA
:1025200055DA20913C0130913D01821B930B9E8333
:102530008D8387EE90E079CF173059F520913C01DB
:1025400030913D01A8E5BBE10E94173DA501940132
:102550000E94D33C29013A01D5B8F3E0F4B980E0F8
:1025600035DA841995099A83898305B92CE024B951
:1025700081E02CDA841995099C838B8335B824B8C3
:1025800082E024DA841995099E838D8385EC90E09E
:102590004CCF113009F080CF63CD98878F83109294
:1025A0004401F8CD0F5FCA01B901A50194010E9451
:1025B000D33C58CE10E00E94530860918301709183
:1025C0008401809185019091860104E026E4409188
:1025D000950167D80E94C00988E2CCD9FA94F1101D
:1025E00030CEDCCE82E0C82E57CF809144018111DD
:1025F0000DC08BE593E00E948F3E61E0680F8EE591
:1026000093E00E949C3E81E0809344010895EF9204
:10261000FF920F931F93CF93DF93D62FE82FF0E015
:10262000E65AFD4FE491E8B9E860E7B915B8E62F3E
:10263000F0E0E95AFD4FE491E4B9CE2FCC0F88E8E1
:10264000E82E83E1F82E8D2FC1D98C01C4B98E15E7
:102650009F0518F1892BE1F00E94630880E591E065
:102660000E940D0AD80120EA36E841E050E00E94BD
:102670002C3D28E937EB40E050E00E94D33CC901F3
:1026800022E041E467EFEFD888E087B988B914B851
:10269000CDB7DEB7E6E00C94243E7801D4CF0F939B
:1026A0001F93CF93DF9385E09DD985E097D98C0167
:1026B000EC01CC0FDD1FCC0FDD1FCA56DF4F10928F
:1026C0004201C43883E0D80770F48EEB91E00E9499
:1026D0000D0A0E94C00981E080934201DF91CF91F1
:1026E0001F910F9108958DEC91E00E940D0A62E018
:1026F000CE01C4D80E94B4090A3F86E01807A0F4AE
:102700000333164050F487EC92E00E940D0A0E94B9
:10271000C0098DEC2FD978DBE1CF8EEC92E00E94DE
:102720000D0A0E94C009DACF8AEC91E0F8CFFC01D3
:102730009C01261B370BCA0170E060E0A901460F1F
:10274000511D452F5527620F240F351FAC01470F30
:10275000511D452F5527780FDA01AA0FBB1F8A0F8D
:102760009B1F4B3E20F4E217F30740F7089590E0DB
:1027700080E00895A9E1B0E0E0ECF3E10C94FC3DC9
:10278000582E462E342EA895E62FF0E0E95AFD4F3C
:1027900024912E87220F2F8B339634913A8BE42F7E
:1027A000F0E0E95AFD4F44914983339684918F8339
:1027B000E52DF0E0E95AFD4F2490922D990F9F8767
:1027C000339624912B8328602C8338603A8345B953
:1027D000EE84E42AE4B827B93B8138B9862FFED8C5
:1027E0008C014E8544B9842DF9D8B82E998714B838
:1027F000AAD815B8E4B8842DF1D8B80151D96C0124
:102800008A8187B988E088B9998192299D8395B991
:1028100094B9852DE3D84AD94C0115B894D825B878
:10282000852DDCD843D99D878C8724B8852DD6D8B3
:102830003DD93C016C857D85C40132D98032E1E00F
:102840009E0730F4F0E2CF16F1E0DF0608F48AC606
:102850002C853D85C20ED31E800F911FC816D90648
:1028600020F01D870C876B2C798420915B0180916F
:102870007701820F9927991F02974CF0213009F0B8
:102880009FC59091580180917401981399C5D98082
:10289000DD0CFE84FD283D2D32293B878C859D85EE
:1028A0008437910508F499C10A96880F991F681614
:1028B000790608F092C19C8197B9EB81E8B9F4B828
:1028C000842D88D88C01832D8DD87C01D5B8842D9A
:1028D00081D89801295A3D4F2817390708F0AFC011
:1028E00088E088B9FA81F7B92B8524B925B9832DF9
:1028F00071D888349F4008F49DC085E080932501FD
:1029000082E2809324011093510100935001B7019A
:10291000C801D1D890935701809356019801A0E146
:10292000B7E20E94173D20911F013091200150E035
:1029300040E00E94D33C30935301209352018F8991
:102940008D2984B915B84C8147B98B8188B9832DFD
:1029500049D88C01842D3ED8B801ADD89C01909304
:10296000550180935401909124019F70943071F52A
:10297000409152015091530160915601709157015D
:10298000C901D5DE0097F1F0D4B8EA899C81E92B22
:10299000E7B9842D1FD88C0188E087B99801A0E1A0
:1029A000B7E20E94173D209145013091460150E069
:1029B00040E00E94D33CA901B8018091540190915C
:1029C0005501B5DE9093510180935001809124010F
:1029D0008F70843049F188E088B9EF81FA81EF2B5C
:1029E000E7B924B82D8125B9852D0E94EE0C8C0104
:1029F0005DD89E838D83842D0E94F20CE090280187
:102A0000F0902901BC01C80156D89701DC010E9451
:102A1000173DED81FE819F0150E040E00E94D33CD4
:102A2000309351012093500180915B018F5F80931F
:102A30005B014EC385E08093250184E262CF88E08C
:102A400088B9FA81F7B92B8524B925B9852D0E945B
:102A5000EA0C8C01832D0E94F20C7C0125B8852D97
:102A60000E94EA0C895A9D4F8017910708F0A8C46C
:102A70003B8138B94C8147B9832D0E94EA0C813DD6
:102A8000934008F0A5C085E08093250182E3809300
:102A90002401B801C7010FD890937301809372018C
:102AA000C80104D89C01A0E1B7E20E94173D209123
:102AB00028013091290150E040E00E94D33C30933E
:102AC0006F0120936E01F8E0F8B92A8127B98F854C
:102AD0008D2984B985B9852D0E94F20C8C01832D36
:102AE0000E94EA0CB8010E945B0D9C019093710159
:102AF00080937001909124019F709430A1F54091D2
:102B00006E0150916F016091720170917301C90162
:102B10000EDE009721F1D5B8D4B83B8138B9EC81ED
:102B20004A81E42BE7B9852D0E94EA0C0E94560DDC
:102B30008C0188E087B99801A0E1B7E20E94173DB7
:102B400020913E0130913F0150E040E00E94D33C93
:102B5000A901B8018091700190917101E8DD909315
:102B60006D0180936C01809124018F70843051F14C
:102B7000EB819F81E92BE8B9EC819E2B97B915B8C1
:102B8000FD81F4B9852D0E94EE0C7C01842D0E94FC
:102B9000F20C9E838D8300911F0110912001BC01D6
:102BA000C7010E945B0D9801DC010E94173DED8179
:102BB000FE819F0150E040E00E94D33C30936D01C4
:102BC00020936C01809177018F5F8093770118C10A
:102BD00085E08093250184E35ACF88E088B9FA81A3
:102BE000F7B925B82B8524B9852D0E94EE0C998B59
:102BF000888B0E94560D98878F83832D0E94F20C3C
:102C00009A87898783010C591F4F8F819885B3015B
:102C10000817190708F0F6C00E945B0D9C8B8B8B80
:102C2000209128013091290150E040E060E871EAEC
:102C300083E09CE10E94D33CAB89BC890E942C3D7F
:102C4000E985FA859F0150E040E00E94D33C4901AC
:102C50005A0114B815B8FB81F8B92C8127B981E065
:102C60000E94BA0CE4B8842D0E94EE0C8F359D4072
:102C700008F474C1F4B8842D0E94EA0C998F888FEF
:102C8000832D0E94F20C9C8B8B8B852D0E94F20C65
:102C90009E8B8D8B8B899C89813D974008F4E6C083
:102CA00084E0809325018DE080932401288D398D67
:102CB0008901061917096216730610F0088D198D1F
:102CC000C0901F01D0902001F12CE12C60E871EA46
:102CD00083E09CE1A70196010E94D33CD8010E94A9
:102CE0002C3DEB89FC899F0150E040E00E94D33CE1
:102CF00080917701882371F080916801909169013A
:102D0000A0916A01B0916B0182179307A407B507E0
:102D100008F099C0209368013093690140936A01DB
:102D200050936B01288D398DA0E1B7E20E94173DC9
:102D3000A70196010E94D33C30936F0120936E014E
:102D40006B897C898D899E890E945B0D90936D01B2
:102D500080936C0181E0409168015091690160911C
:102D60006A0170916B01481559056A057B0508F0E9
:102D70006CC08092680190926901A0926A01B09241
:102D80006B0169857A85888999890E945B0D90938A
:102D90006D0180936C012F813885A0E1B7E20E941C
:102DA000173D209128013091290150E040E00E9418
:102DB000D33C205F384D30936F0120936E01C0905B
:102DC0001F01D0902001F12CE12C9301A0E1B7E28A
:102DD0000E94173DA70196010E94D33C30937101D8
:102DE000209370012C853D85A0E1B7E20E94173D3C
:102DF000A70196010E94D33C309373012093720186
:102E000081E025C08F8198850E945B0D9C8B8B8B08
:102E1000FD81F4B9852D0E94EE0C998B888B0E9460
:102E2000560D98878F83832D0E94F20C9A8789878D
:102E3000BC018B899C890E945B0D9C01A4E6B0E0DB
:102E40000E94173DFDCE80E086CF8111B8CF9091D2
:102E500077019F5F90937701882309F477C33092BD
:102E60007401409275015092760170C3F1E66F16BD
:102E7000710408F073C0288D398D213D47E0340777
:102E800008F46CC085E08093250182E180932401E1
:102E9000C90186509F4FED89FE898E179F0708F064
:102EA00043C083E180932401FA89F770DF2E832DDC
:102EB000806480937C00EBE0EE2E21E030E03E83E6
:102EC0002D830FEF13E0A89561E089816ED5F4B8EA
:102ED00086B18D21E9F33E8534B980917A00806412
:102EE00080937A0080917A0086FDFCCF80917800F3
:102EF00090917900F801E81BF90B2D813E812E0F8E
:102F00003F1F3E832D83EA94E110DDCFC901880F76
:102F1000991F880F991F69E070E00E94AC3C709384
:102F20007301609372014ECE00911F011091200138
:102F3000688D798D8D899E890E945B0D9801DC01D9
:102F40000E94173DE88DF98D9F0150E040E00E94FE
:102F5000D33C30936D0120936C01A6CFF4B8D5B863
:102F6000842D0E94EE0C6C01832D0E94F20C988738
:102F70008F830E94560D9A8789870C151D0508F0CE
:102F8000A9C0B301C6010E945B0D8C0120911F01F5
:102F90003091200150E040E060E871EA83E09CE17C
:102FA0000E94D33CD8010E942C3DE985FA859F01FF
:102FB00050E040E00E94D33C49015A01FA81F7B940
:102FC00088E088B92D8124B925B9852D0E94EE0CA1
:102FD0008C01832D0E94F20C9A878987842D0E9490
:102FE000F20C7C01003331E1130708F0E6C125B88B
:102FF000852D0E94EE0C998B888B24B8852D0E941C
:10300000EE0C9C8B8B8B15B881E00E94BA0C25B816
:10301000852D0E94EE0CEB89FC89E034F64008F027
:1030200079C08133914108F475C0C8018A569F4F19
:10303000E889F989E817F90708F06CC086E0809301
:10304000250180915B018F5F80935B01B7018985CA
:103050009A850E945B0D9093510180935001B701B6
:10306000C8010E945B0D909357018093560114B8DC
:1030700015B8FA89F8B981E00E94BA0C24B8852DF8
:103080000E94EE0C853F910518F52D8124B9832D02
:103090000E94EE0C813D9340D8F0852D0E94F20CE9
:1030A0008D3D9240A8F024B8852D0E94EE0C8D3DF8
:1030B000924070F025B881E00E94BA0C15B8852DB9
:1030C0000E94EE0C853F910518F487E0809325015E
:1030D00081E0F8C0E4B8F981F5B9842D0E94EE0CC6
:1030E0006C01832D0E94F20C98878F830E94560DED
:1030F0009A878987C6016C147D0410F48619970994
:1031000069857A850E945B0D9C01A4E6B0E00E946F
:10311000173D4BCFFA81F7B9298124B925B981E050
:103120000E94BA0C3B8534B935B9852D0E94EE0C4E
:103130008C010E94560D998B888B832D0E94F20C76
:103140009E838D830E94560D9A878987842D0E94C5
:10315000F20C7C0189859A858E3F994008F4C1C0A4
:1031600084E0809325018CE080932401B301888959
:1031700099890E945B0D8C012091280130912901D1
:1031800050E040E060E871EA83E09CE10E94D33CBB
:10319000D8010E942C3DE985FA859F0150E040E06E
:1031A0000E94D33C80915B01882371F080914C0197
:1031B00090914D01A0914E01B0914F01821793075C
:1031C000A407B50708F07AC020934C0130934D0155
:1031D00040934E0150934F01B7018D819E810E9413
:1031E0005B0D909351018093500128893989A0E1AA
:1031F000B7E20E94173D209128013091290150E04B
:1032000040E00E94D33C309353012093520181E06F
:1032100040914C0150914D0160914E0170914F01D0
:10322000481559056A057B0508F04AC080924C0193
:1032300090924D01A0924E01B0924F01B6018F8144
:1032400098850E945B0D90935101809350019601E7
:10325000A0E1B7E20E94173D20911F0130912001AB
:1032600050E040E00E94D33C205F384D3093530142
:10327000209352019301A0E1B7E20E94173D2091F3
:103280001F013091200150E040E00E94D33C309378
:103290005501209354012C853D85A0E1B7E20E94A1
:1032A000173D209128013091290150E040E00E9413
:1032B000D33C30935701209356010ACF80E0A8CF2A
:1032C0008111D8CF90915B019F5F90935B01882320
:1032D00009F43CC1309258015092590140925A0170
:1032E00035C1F1E66F16710408F067C02889398985
:1032F00029343D4008F461C085E08093250182E0D7
:1033000080932401C70186509F4F8017910708F0D2
:103310003CC083E0809324010B810770832D80647F
:1033200080937C001BE021E030E03E832D83A89554
:1033300060E089813AD33B8534B935B986B18023C1
:10334000E9F724B880917A00806480937A008091B4
:103350007A0086FDFCCF8091780090917900ED8114
:10336000FE81E80FF91FFE83ED83115001F7CF01B5
:10337000880F991F880F991F69E070E00E94AC3C8C
:1033800070935701609356014FCBC0902801D090A5
:103390002901B701C8010E945B0D9601DC010E9462
:1033A000173DE889F9899F0150E040E00E94D33C35
:1033B0003093510120935001AFCF88E087B988B98D
:1033C00014B815B888E087B9F7EC6F16F1E07F06FE
:1033D00008F4E4C088B92F8524B938EC3D834C81CA
:1033E0008A81482B4F839F8197B981E00E94BA0C54
:1033F000EA81E7B9852D0E94F20C429728F0FD8101
:10340000F150FD83F111EFCF2F8524B925B961E08B
:103410008981CBD2852D0E94EE0C6C013F8934B995
:1034200015B84C8147B98B8188B960E08981BDD2DC
:10343000842D0E94EE0C0E94560D9E838D839E85E6
:1034400094B9842D0E94F20C8C01852D0E94EE0C03
:10345000B8010E945B0D8C01842D0E94F20C7C014E
:10346000852D0E94EE0CB7010E945B0D98012C5E29
:103470003F4F2817390708F469C088E088B9EA8106
:10348000E7B924B825B861E089818FD2842D0E94E4
:10349000F20C7C01852D0E94EE0CB7010E945B0DA1
:1034A0007C010817190708F060C0FF85F4B9F5B969
:1034B000852D0E94EE0C9C01CD82DE8288EEE816FE
:1034C00083E0F80608F063C0C70164E670E00E947C
:1034D000AC3CC701875991098938914108F05EC019
:1034E0002E153F0508F05AC08D819E8143E09695C8
:1034F00087954A95E1F7893C910510F088EC90E0BA
:103500002D813E81820F931F8E159F0508F046C0C6
:103510006217730708F042C080912501833018F4C8
:1035200083E08093250120912301822F90E0FC010C
:10353000E756FE4F50824682880F991FFC01EB55DB
:10354000FE4FF182E0822F5F2093230188E087B94C
:1035500088B914B815B88EE20E9460096996E2E154
:103560000C94183E6B2C79842BCF2F8924B915B875
:103570003C8137B94B8148B960E0898116D2842DEE
:103580000E94EE0C0E94560D9C01780197CFB70166
:1035900054E0769567955A95E1F79BCF642D852D7C
:1035A00001D0D4CFB0E0A0E0E8EDFAE10C94FE3D0C
:1035B000C82FD62FA895862F90E0FC01E95AFD4F21
:1035C0005490339624914C2F50E0FA01E95AFD4F64
:1035D0001491339604916091770130915B01630FF0
:1035E0007727771F672B09F05AC0A89560912B01A8
:1035F00070912C01660F771F660F771F70933D0146
:1036000060933C0160917C0170917D01660F771F92
:10361000660F771F70933B0160933A013EEB309346
:10362000380160912301E9E9F1E030E0840F951F52
:1036300063133AC088E088B9286027B914B915B96E
:10364000B8E1BB2ED12CC12C8D2F0E94EE0C782E10
:10365000692E8C2F0E94F20C7C018C199D0997FF1A
:1036600003C091958195910903970CF45AC1A895CF
:10367000BA946701B110E8CF80912B0190912C0191
:1036800090933D0180933C0180917C0190917D015C
:1036900090933B0180933A0189E180933801CDB743
:1036A000DEB7E0E10C941A3E51914581450F552754
:1036B000551F4817590701F33F5FBACF25E8C216D7
:1036C00021E0D206C8F6043AE2E01E0708F0B5C0D1
:1036D000F8E9AF16B10480F2C6010E94560DAC01A4
:1036E0009601A8E9B7EB0E94173D9A0150E040E02F
:1036F0000E94D33C29013A01C5010E94560D9C014C
:10370000A8E9B7EB0E94173D950150E040E00E9408
:10371000D33C88E7C8168FE0D80608F072C0F2E004
:10372000440C551C661C771CFA95D1F7C301B201F5
:10373000620F731F841F951F25E030E040E050E0CA
:103740000E94D33CA4E6B0E00E942C3D6B017C01BA
:10375000FCEACF0EFDE0DF1EE11CF11C10912501FB
:10376000143008F089CFC1500C2F0D0F802F90E03E
:10377000EC01CE59DE4F2881880F991F880F991FC1
:103780008E549E4FFC01222309F4C4C08080918096
:10379000A280B380A7019601281939094A095B095B
:1037A00057FF07C050954095309521953F4F4F4F9B
:1037B0005F4FAAE0B0E00E942C3DF4E68F0E911C12
:1037C000A11CB11CA50194012C0D3D1D4E1D5F1DBA
:1037D0000E94D33C232B242B252B09F04DCF1330F3
:1037E00019F081E08093250182E0888380917E0139
:1037F000E82FF0E0EB59FE4F00838F5F80937E014E
:103800003BCFE8E7AE16EFE0BE0670F4E2E0220F31
:10381000331F441F551FEA95D1F7CA01B901640D42
:10382000751D861D971D88CF240D351D461D571DFE
:10383000569547953795279585CFC0902801D0900C
:103840002901672D762DE616F70608F4B701C701A2
:103850000E945B0D9601DC010E94173D2B013C018B
:10386000C7010E94560D9C0150E040E0C301B20127
:103870000E94D33C29013A01A0901F01B090200181
:10388000892D982D8017910708F4C801B8010E946E
:103890005B0D9501DC010E94173D980150E040E06E
:1038A0000E94D33C88E7E8168FE0F806B0F462E0A7
:1038B000440C551C661C771C6A95D1F7C301B201F4
:1038C000620F731F841F951F25E030E040E050E039
:1038D0000E94D33C69017A0141CF0837EFE01E070F
:1038E00070F4CA01B90152E0660F771F881F991F53
:1038F0005A95D1F7640D751D861D971DE5CF73018F
:103900006201C20ED31EE41EF51EF694E794D7940E
:10391000C79424CFC082D182E282F38281E088837F
:10392000ABCE110F15B814B98C2F0E94EE0C813557
:10393000910508F0A1CE15B98C2F0E94EE0C6C01F8
:10394000802F886087B908B915B854B8A8E14A2E05
:10395000B12CA12C8C2F0E94EE0C982E892E8D2F2D
:103960000E94F20C8C018A199B0997FF03C0919564
:1039700081959109039734F0A8954A945801411014
:10398000E9CF7ACE550C54B88D2F0E94EE0C5C0115
:10399000F0ECEF16F4E4FF0608F490CE80EBC816C6
:1039A0008DE4D80608F068CE8ECECF93C82FC09590
:1039B00095B160FF10C0982B95B994B1892B84B94B
:1039C00082E00E94BA0C84B18C2384B985B18C2327
:1039D00085B9CF9108959C23EFCFB0E0A0E0E3EF4D
:1039E000FCE10C94043E1AE008E08FE3C82E99E055
:1039F000D92E07B908B915B8C4B880E00E94EE0CFA
:103A00007C0181E00E94F20CEC0182E00E94F20C49
:103A10009C01809125018930A1F488E087B914B810
:103A2000F0920601E0920501D0930801C0930701CE
:103A300030930A0120930901CDB7DEB7EAE00C9478
:103A4000203E84E0E816F10448F4C430D10560F467
:103A50002430310510F399E092600AC098E088EEB6
:103A6000E81683E0F80608F499E0C83ED340A0F3D6
:103A7000283E334008F4946097B9D0E0C0E0A895A0
:103A800080E00E94E60C5C0181E00E94F20C7C0167
:103A900082E00E94F20C24E1A21625E0B20608F4AE
:103AA000389A24E1E21625E0F20608F4399A8431C6
:103AB00025E0920708F43A9A26E0A216B10430F401
:103AC00026E0E216F10410F4069738F02196C43F80
:103AD00081E0D807A1F6D0922501F12CE12CEC165B
:103AE000FD0621F4115009F084CFA6CF0E94A90C45
:103AF0002FEFE21AF20AF3CFCF92DF92EF92FF920A
:103B0000CF932091830130918401409185015091A0
:103B10008601C09195018AE0C82ED12CE12CF12CB0
:103B20008C2FCF5F213A96E8390791E0490751057C
:103B3000E0F480939501A0913C01B0913D010E9479
:103B40002C3D28E833E140E050E00E94D33C209334
:103B50008301309384014093850150938601CF9176
:103B6000FF90EF90DF90CF900895CA01B901A701AF
:103B700096010E94D33CD4CFB0E0A0E0E2ECFDE19E
:103B80000C94023EC82F062F880F8C0F9FEF960FC4
:103B9000890F80935D01EC2FF0E0E95AFD4F1491FD
:103BA000862F90E0FC01E95AFD4FF490FC01E65AA3
:103BB000FD4FD491809125018130C1F120912301E5
:103BC000E9E9F1E090E080E08217A8F1D860109276
:103BD000900110928F0181EF8093950110928301E3
:103BE000109284011092850110928601F6DE88E021
:103BF00088B9D7B9F4B8F5B88C2F0E94F20C5C01E3
:103C0000802F0E94F20CA81AB90A14B810925F0112
:103C100010925E0180915E0190915F01843F91401E
:103C2000F0F088E087B988B914B815B8CDB7DEB719
:103C3000ECE00C941E3E368130130EC030813C13F4
:103C40000BC0DC01AA0FBB1FA756BE4F1C964D919F
:103C50005C914C3D554050F301963196B5CF15B966
:103C600014B90E94A30C14B815B80E94AA0CA89508
:103C70008C2F0E94F20C7C01EA18FB0880915E01F7
:103C800090915F018E37910520F08BE4E816F104E6
:103C900044F280915E0190915F012DE2E21621E0F5
:103CA000F2060CF023C2019690935F0180935E01AF
:103CB000B1CF0E94A40C8C2F0E94F20C8A199B0990
:103CC000A8952FEFC21AD20A20915E0130915F01B0
:103CD0002C153D0570F75701A81AB90A1A141B04D0
:103CE0000CF0ADC039ECA316B1040CF09ACF28EE5D
:103CF00033E0D5010E94263D97010F2C000C440BA8
:103D0000550B0E94D33C690180915E0190915F0147
:103D10000196B0E0A0E080938B0190938C01A0937A
:103D20008D01B0938E01C7018A0D9B1D33D2209166
:103D30008B0130918C0140918D0150918E01DC01FD
:103D40000E942C3D60938B0170938C0180938D01B8
:103D500090938E0160938301709384018093850119
:103D60009093860187EF80939501C6DE8090830152
:103D700090908401A0908501B09086018EE393E03D
:103D80000E948F3EA8EEB3E0A81BB10987FDB39552
:103D9000A50194010E94363D24E630E040E050E069
:103DA0000E94D33C2093830130938401409385018A
:103DB0005093860180912301882329F08091250169
:103DC000853009F02ECF88E0809325018091950100
:103DD000909196019817C4F0891323CF80908301A6
:103DE00090908401A0908501B09086014091870158
:103DF000509188016091890170918A014815590597
:103E00006A057B0508F00DCF409183015091840134
:103E100060918501709186014093870150938801DC
:103E20006093890170938A0180939601D0929201E8
:103E3000C092910100939301C0939401F2CED12CD2
:103E4000C12C62CFCADD15B88FE087B988E088B988
:103E5000F12EFF0CF4B880E480937B0084E580BFF2
:103E60008C2F806480937C0086E180937A000E948E
:103E7000AD0C10925F0110925E01109280001092C2
:103E800085001092840087E286BB81E280936F00F8
:103E900081E080938001F5B89091250180938100A5
:103EA000953009F005C181E090E00C2E01C0880F2B
:103EB0000A94EAF780958F7087B9F89483B7817F69
:103EC00083BF80918001882389F083B7816083BF9D
:103ED0007894889583B78E7F83BFF894A895809156
:103EE0005E0190915F018034964059F7789410926A
:103EF0008100E0908600F090870010926F0086E9C4
:103F000080937A0014B815B88C2F0E94F20C20917F
:103F1000400130914101821B930B0C9690939801C4
:103F20008093970180915E0190915F018032934070
:103F300008F077CE80915E0190915F0190938E01A1
:103F400080938D01F0928C01E0928B0184EF80933D
:103F5000950180915E0190915F0182349105C8F0D6
:103F600060918B0170918C0180918D0190918E01F7
:103F700024E630E040E050E00E94D33C20938B01E7
:103F800030938C0140938D0150938E0186EF809386
:103F90009501A0918101B091820120918B01309116
:103FA0008C0140918D0150918E010E942C3D20E2A8
:103FB00033E040E050E00E94D33C20938B013093EB
:103FC0008C0140938D0150938E0120938301309397
:103FD000840140938501509386018EDD8091950187
:103FE000843F09F054C0C0908301D0908401E090D8
:103FF0008501F090860180EAC8168FE0D806E104BA
:10400000F104C0F4A70196012C543F4F4F4F5F4F6E
:1040100060EA7FE080E090E00E94D33CC20ED31EB5
:10402000E41EF51EC0928301D0928401E0928501C6
:10403000F0928601C0908301D0908401E0908501C8
:10404000F0908601C114D10421E0E206F10490F55C
:10405000D092C301C092C20180915D0190E0855A67
:104060009C4F0E948F3E90E0B0E0A0E08C159D0533
:10407000AE05BF0530F5C81AD90AEA0AFB0AC09294
:104080008301D0928401E0928501F092860114B9F7
:104090008091830190918401A0918501B091860166
:1040A0004997A105B10508F4BCCDD12CC12C82CE15
:1040B000D7B903CF81E090E09093C3018093C20110
:1040C000CBCF34E1C30ED11CE11CF11CC816D906BC
:1040D000EA06FB0610F40E94F5121092830110927A
:1040E00084011092850110928601D1CF892B31F481
:1040F00085E1E81685E0F8060CF0A4CEC701D12CC6
:10410000C12CE2CD1F920F920FB60F9211248F9304
:104110009F93B59904C080918001811109C0B59B1E
:1041200010C080918600909187008A3F910548F4E5
:1041300080915E0190915F01019690935F01809361
:104140005E019F918F910F900FBE0F901F90189559
:104150001F920F920FB60F9211248F939F9310927C
:104160008001B09B10C080918600909187008A3FAB
:10417000910548F480915E0190915F0101969093C2
:104180005F0180935E019F918F910F900FBE0F9002
:104190001F9018950F9221E08C32920710F48CE258
:1041A00091E08C52914069E170E00E94AC3C99E151
:1041B0006B3210F0982F6BE2981BECEDF2E0E60FFB
:1041C000F11DE60FF11D9F93CF010E948F3E482FF6
:1041D0003196CF010E948F3E582F3196CF010E9419
:1041E0008F3E282F3196CF010E948F3E382F6F913E
:1041F000421B530B649FC001659F900D11240C96C8
:1042000069E170E00E94AC3C620F731FCB010F901C
:104210000895B0E0A0E0EFE0F1E20C94023E88E8FF
:1042200093E190932C0180932B0190933D01809317
:104230003C018EEB80933801C8E0C8B988E187B9AA
:104240000E94B20CC7B984E00E94EE0CAC018B5CFA
:104250009840833F9140A0F481E0809347012091F2
:104260003C0130913D01AFEBB9E00E94173D9A014E
:1042700050E040E00E94D33C30932C0120932B016E
:1042800080912B0190912C0190933D0180933C01F2
:104290008EE00E94F20C8EE00E94EE0C90934101A1
:1042A000809340010E943E0E98DB88E0F82EF8B81B
:1042B000C9E0C7B985E185B9D1E0D4B980E00E94F1
:1042C000EE0C8C019AE0D92ED7B824E0B22EB4B807
:1042D00081E00E94EE0C080F191F3CE0E32EE7B8C6
:1042E00040E1C42EC4B882E00E94EE0C080F191FF2
:1042F00015B8C8B9C7B9D4B980E00E94EE0C0E94C5
:10430000560DEC01D8B8D7B8B4B881E00E94EE0CD5
:104310000E94560DC80FD91FE8B8E7B8C4B882E0AC
:104320000E94EE0C0E94560DC80FD91FF7B8F8B8BE
:1043300014B880913C0190913D016C01CC0CDD1CC6
:10434000C80ED91EC01AD10ACC1ADD0AF12CE12CF4
:104350009801A0E9BAE10E94173DA70196010E94C9
:10436000D33C49015A0130934601209345019E01F7
:10437000A0E9BAE10E94173DA70196010E94D33C33
:1043800030933F0120933E012057354E3093290151
:104390002093280180E7881A85EE980A90922001E0
:1043A00080921F0189E180933801CDB7DEB7ECE040
:1043B0000C941E3ECF92DF92EF92FF920F93CF9319
:1043C000DF93F82ED62FC42F0E94B1098DE291E021
:1043D0000E940D0AFED16D2F8F2D0E94CC34C0900B
:1043E000C601D090C701E090C801F090C90180914A
:1043F000020187FD05C0C114D104E104F10421F0DC
:1044000089E291E00E940D0A8D2F0E94B109C1142A
:10441000D104E104F10409F474C00E94B40980914C
:1044200065010E94C90ACC2309F467C08091480144
:104430008D3030F48650990B8B599C4F0E940D0A99
:1044400080E00E94E109CD28CE28CF2809F45EC083
:104450006091C6017091C7018091C8019091C90116
:1044600003E028E447EF0E94510B8CE391E00E94A7
:104470000D0A80E793E00E94973E23E046E464EF54
:104480000E94330C8091BE019091BF01A091C001A8
:10449000B091C101892B8A2B8B2B01F180E00E9406
:1044A000E1096091BE017091BF018091C0019091BE
:1044B000C10104E028E440E00E94510B87E391E051
:1044C0000E940D0A23E040E26FEF8091C4019091B9
:1044D000C5010E94330C0E94C00907C080E00E9401
:1044E000C60980914B018823B1F3DF91CF910F91E1
:1044F000FF90EF90DF90CF90089580E00E94E10957
:10450000A7CFC11193CF80E00E94E109809165019E
:104510000E94C90A809102018E3F0CF0B3CF84E55E
:1045200091E00E940D0A60910B0170910C01809145
:104530000D0190910E0103E028E4409102010E94D8
:10454000510BA0CFEF92FF920F931F93CF93DF9366
:10455000182F0E94C207809193010E94B10980E741
:1045600091E00E940D0A1BD5609193018091940106
:104570006ED3EC019093900180938F01E0909101B4
:10458000F0909201CA3F8FEFD80720F48EE291E0BD
:104590000E940D0A809194010E94B109112309F42F
:1045A00045C0909148018DE0891B0E94B70989E7B9
:1045B00090E00E940D0A0E9453086091870170915B
:1045C00088018091890190918A0104E026E440915C
:1045D00096010E94510BCA3FDF4F68F48FE591E0CE
:1045E0000E940D0A22E044E06EEF80918F019091CD
:1045F00090010E94330C0E94C0090E945B08E114E4
:10460000F10469F088E591E00E940D0A22E045E29C
:104610006FEF80919101909192010E94330C0E9462
:10462000C009CDB7DEB7E6E00C94243E0E94C00975
:10463000C2CF8F7021F40E9463080C944F13089529
:104640008F3021F490914201913011F08F5F0895E5
:1046500080E00895CF9384E890E00E94752FC0E039
:104660000E94E10E60E082E00E94D21A62E080E0E7
:104670000E94D21A0E94C20780917E018823C9F04D
:1046800041E062E080E096DE8C2FD3DF88EE93E09D
:104690000E94AE0D811109C080911E01843028F462
:1046A0008C2FCEDFC82F8A3FD8F20E94C907CF9146
:1046B000089584E890E00E940D0A89E693E00E9444
:1046C0000D0A0E9453088FE30E94600980E00E9457
:1046D000C6090E94C009D8CF0F931F93CF93DF93D1
:1046E000C0E0D8E012EF0DE00E94E10E60E082E051
:1046F00043DAD093250180919501843FE1F48091C4
:10470000830190918401A0918501B0918601843646
:104710009105A105B10578F440E060E082E00E94D7
:104720005332609383017093840180938501909349
:1047300086011093950180919501823F6CF18093E1
:1047400096018091830190918401A0918501B0919F
:1047500086018093870190938801A0938901B0938B
:104760008A0181E0EFDE8C2F64DF88EE93E00E9407
:10477000AE0D81110AC080911E01843030F48C2F5F
:104780005FDFC82F8A3F08F4AFCF0E94C907DF91CF
:10479000CF911F910F9108950E94C2078DE790E07D
:1047A0000E940D0A80914801902F981B892F0E942A
:1047B000B70989E790E00E940D0A0E9453088FE331
:1047C0000E9460090E94C0090E945B080E94C00903
:1047D000CACFA6E1B0E0EFEEF3E20C94FC3D82E03C
:1047E0008093020180912501813009F0F0C1809110
:1047F0007E01813009F0EBC14090650124E0429ECA
:10480000F0011124EE54FE4F80819181A281B38189
:10481000893032E59307A105B10508F0D8C11C0124
:10482000712C81E0871508F4D6C1842D0E94BF0A3F
:10483000982E892EE82DF0E0E65AFD4F5490892DF0
:1048400090E0FC01E95AFD4FE49115B828E028B941
:10485000372D3170632E20EF2216310408F0C0C1CD
:104860003111BEC100911F011091200100591A4160
:1048700021E030E0092C02C0220F331F0A94E2F736
:10488000C9018860852987B934E1398B892D0E9457
:10489000EA0C5C01882D0E94F20C24E0A216B104FF
:1048A00010F4049728F039893150398B3111EECF4B
:1048B00080E480937B0094E590BF892D8064809391
:1048C0007C0026E120937A00F12CE12C10928000EC
:1048D000109285001092840087E286BB0E94AD0C86
:1048E000872D90E09A8B898B611083C181E880933A
:1048F000810058B886B385FD0CC080FFFBCF21E056
:1049000026BBA89597012F5F3F4F790120353105D0
:1049100089F738E038B91092810090E296BB209177
:104920008600309187006901409184005091850094
:104930002417350738F480FF05C021E026BB3FEF80
:10494000E31AF30A86E980937A00B4E15B2E892D9D
:104950000E94EA0C5C01882D0E94F20C24E0A21651
:10496000B10410F4049718F05A945110F0CF8090CD
:10497000450190904601820C931C800E911E20915F
:1049800021013091220100398AE1180708F03AC16B
:1049900069E191EEC916D104E104F10430F4C601D5
:1049A00065E070E00E94AC3C645128523109261B3E
:1049B000310967FD339566E0862F90E0B0E0A0E016
:1049C0008C159D05AE05BF0508F025C1C81AD90A8A
:1049D000EA0AFB0A662029F082E2C80ED11CE11C1B
:1049E000F11C90E5E916F10418F0C12CD12C7601E8
:1049F0008BE0C816D104E104F10428F091E0C91A53
:104A0000D108E108F108B12CA12CA8EEB3E00E9476
:104A1000173D6B8B7C8B8D8B9E8BA0913C01B09155
:104A20003D0198010E94173DA50194010E94D33CCD
:104A3000442755276B897C898D899E890E94D33CA8
:104A4000C9010E94960EFC01A5019401C701B6019F
:104A50000E94913C4B015C01BF0190E080E0E3E0EB
:104A6000660F771F881F991FEA95D1F76B5F7F4FFD
:104A70008F4F9F4F2AE030E040E050E00E94D33C4F
:104A8000C501B4010E94D33CE989FA89EE0FFF1FEA
:104A9000EE0FFF1F81E090E08C0F9D1FE80FF91FC4
:104AA0002083318342835383611018C09CE0C91670
:104AB000D104E104F10490F07394E989FA89319604
:104AC000EE0FFF1FEE0FFF1F81E090E08C0F9D1F88
:104AD000E80FF91F2083318342835383A895739491
:104AE00093E0971508F09DCE88E088B984E00E9495
:104AF000BA0C91E00D811E812F81388549815A8140
:104B00006B817C81401751076207730708F090E0C2
:104B10000D851E852F85388949855A856B857C854D
:104B200082E0401751076207730708F483E024E02E
:104B3000829FD001112421E030E02C0F3D1FA20FF5
:104B4000B31FE92FF0E0EE0FFF1FEE0FFF1FE20F84
:104B5000F31F0D911D912D913C91408151816281F6
:104B60007381041715072607370708F0892F34E0EB
:104B7000839FF001112421E030E02C0F3D1FE20F54
:104B8000F31F408151816281738140930B015093E7
:104B90000C0160930D0170930E0180FD40C030EF59
:104BA00023163104E0F58BEF8093020180910B0115
:104BB00090910C01A0910D01B0910E01892B8A2BCF
:104BC0008B2B11F41092020188E087B914B8669615
:104BD000E2E10C94183E842D0E94BF0A4C012ACEBB
:104BE000E4B9852D886087B900911F0110912001DB
:104BF0004BCE58B80E94B60C90E296BB81E88093E9
:104C0000810078CEC40160EB76E30E94AC3C695F22
:104C1000285D3F4FD1CEC12CD12C7601DBCE8CEF5D
:104C200080930201CB01BA016B5F7F4F8F4F9F4F83
:104C30002AE030E040E050E00E94D33C20930B019A
:104C400030930C0140930D0150930E01AFCFAEE1B4
:104C5000B0E0EDE2F6E20C94FC3D662EB82E860F35
:104C6000898320912501283059F5209187013091C1
:104C700088014091890150918A0157FD15C010911A
:104C8000960109C0CA01B9012AE0312D412D512DEB
:104C90000E94D33C1F5F173FACF391F4243160E0D6
:104CA00036074105510518F48FEF9FEF45C1173FB7
:104CB00039F480E028178DE738074105410510F0E9
:104CC00020E03DE72C8B3D8B26EDA22EEAE5F2E0BD
:104CD000E60DF11D859188608E87EAE5F2E0EB0D27
:104CE000F11D859188608F87E7E5F2E0E60DF11D03
:104CF0007590E7E5F2E0EB0DF11DC59090EC692AA7
:104D0000B92A81E0E82EF12C012D112D8E831F820E
:104D1000188619861A861B861C861D86188E198E83
:104D20001B8E1A8E0E94ED1C88E088B960927C0070
:104D30000E94AE0C3F8537B975B874B852E05A95E9
:104D4000F1F70000000014B815B8DD243E8537B92E
:104D500075B874B860927C00A895A0927A00809192
:104D60007A0086FDFCCF2090780030907900B092D8
:104D70007C004C2DE5D02091780030917900288B73
:104D8000398B3F8537B9C5B8C4B8A895B0927C00B7
:104D9000A0927A0080917A0086FDFCCF6091780025
:104DA0007091790060927C00472DCAD040917800C4
:104DB0005091790014B8CB01820D931DE80EF91EB5
:104DC000011D111DEA82FB820C831D83888999894C
:104DD000840F951F2E813F8168857985280F391FA3
:104DE000611D711D2E833F836887798722E3241715
:104DF000150650F075B874B80E94B80C14B815B800
:104E0000888D8395888F07C0483E73E0570718F058
:104E10008A8D83958A8F888999892817190660F069
:104E20003E8537B9C5B8C4B80E94B80C14B815B8D7
:104E3000898D8395898F07C0883E73E0970718F0A6
:104E40008B8D83958B8FD3945D2D5F3F49F05F37BA
:104E500031F45C2D550FC50E572D550F750E76CFBD
:104E60004090450150904601440C551C9201E4E0ED
:104E7000240D351DEA95E1F72901570168016E807F
:104E80007F8088849984209125012830C1F46C8921
:104E90007D89812D912D65507040804090409B010F
:104EA000AC010E94913C9B01AC0160E779E786E18F
:104EB00090E00E94D33C621A730A840A950AA614F1
:104EC000B704C804D90428F46A187B088C089D0824
:104ED00003C0662477244301B20180E090E093018F
:104EE000A4010E94913C9501A6010E94D33C8AE353
:104EF00093E07981870F911D0E948F3E682EC90132
:104F000060E170E00E94AC3C260F371FC9016816B3
:104F1000190618F4861991090FC08C5E9F4F8615EB
:104F2000910540F48C899D89843981E1980710F0BE
:104F30000E94F512812D912D6E96E2E10C94183E9F
:104F4000109281001092800010926F0010928B00DE
:104F500010928A0057E056BB5FEF50938500509344
:104F6000840055E050937B0056EB50937A0051E05B
:104F70005093810058E25A95F1F7000045B944B9C1
:104F800055E05A95F1F7000014B815B81092810059
:104F900080917A0084FFFCCF80937A000895B0E07E
:104FA000A0E0E5EDF7E20C94FE3D00919101109137
:104FB00092010115110509F091C0E0919301F0E013
:104FC000E65AFD4FD491D860E0919401F0E0E95A9F
:104FD000FD4FC4910E94ED1C88E088B915B8D7B97F
:104FE000C4B9809194010E94F20C7C01D091960189
:104FF0008CE08D0F843008F071C080918701909112
:105000008801A0918901B0918A01D15F2AE0422EE6
:10501000512C612C712CBC01CD016B5F7F4F8F4FE8
:105020009F4FA30192010E94D33C49015A01DA012A
:10503000C901DF5FD73079F7893823E19207A105ED
:10504000B10508F04BC0059708F448C0C5B9C4B90C
:10505000D0E0C0E0C815D90508F445C014B815B8AB
:10506000A89585E080933801809194010E94F20C0C
:10507000EC01CE19DF09E816F90610F0D0E0C0E027
:10508000D12CC12CC814D90490F1809194010E94B4
:10509000F20C29E120933801A895E816F90618F4D6
:1050A0008C010E191F090C171D0788F49E01201B87
:1050B000310B69F0A4EFB1E00E94173D9E0150E072
:1050C00040E00E94D33C30939201209391010E94D2
:1050D000ED1C88E087B988B914B815B8CDB7DEB72C
:1050E000E0E10C941A3E0E94B40C2296B3CF0E94C9
:1050F000B40C8FEFC81AD80AC5CFA7E0B0E0E3E838
:10510000F8E20C94FC3D83ED91E0EFD660EF6B8309
:1051100054980E94A90C14BC16BC10921201109253
:105120001301109214011092150181E085BB809348
:105130006E0010928000E3E1FAE7F0938B00E093B9
:105140008A0081E090E0909389008093880010921B
:1051500085001092840083B5816083BD96E096BB84
:1051600090936F007894E4E0E0938100F2E3F98398
:105170001A820E94A20CA8954F9902C061E06A832E
:1051800085B5882329F08981815089838111F1CFE8
:1051900015BC86B5809312010E945B080E94C0096D
:1051A0000E9463080E94C0090E94ED0986E60E94E1
:1051B00060090E94F10960911201709113018091C0
:1051C00014019091150147E00E94480C5498809179
:1051D0008100882319F08FE30E94600910928100FA
:1051E00010926F002091120130911301409114012F
:1051F00050911501DA01C9010197A109B109813F57
:105200009048A105B10508F096C0AAE0B0E00E9460
:105210002C3D685F7F4F8F4F9F4F23E0969587957A
:10522000779567952A95D1F7660F771F7093790167
:105230006093780154980E94A90C16BC1092120138
:10524000109213011092140110921501F1E0F5BBB8
:10525000F0936E0010927B0110927A0164E06BBBB8
:1052600080916800846080936800789480916D00DC
:10527000806180936D0019820E94A20CA8954F99BD
:1052800002C081E08A8380916D0084FF05C099810E
:105290009F5F99839A3F81F715BC80916D008F7E47
:1052A00080936D00809168008B7F8093680086B545
:1052B000809312010E945B0884E50E9460090E94AD
:1052C000F109E0917801F0917901FD83EC8360911F
:1052D000120170911301809114019091150128EA37
:1052E00031E640E050E00E943C3DEC81FD81612CC4
:1052F000712C43015F01C12CD12CE12CF12C00E079
:1053000010E00E94903D49014F835E831B012C01F8
:105310008C819D818038910520F107E023E745EFDE
:10532000B4018F81952F0E94510B99819A3F91F57D
:105330008FE30E94600910926E0080ED97E00E945A
:10534000AE0D6A81860F49F480911E01833028F4E6
:105350008B8181508B838111DBCE2796E2E10C9407
:10536000183E84E6A82EB12CC12CD12CE12CF12CB6
:1053700000E010E094014F815E81B101C2010E9402
:10538000903DF22FE42F07E023E747EF6F2F732FB5
:105390008E2FC8CF94014F815E81B101C201263E9C
:1053A000354B41055105610571058105910519F2DE
:1053B00010F20E94630886E60E9460090E94F109CB
:1053C00094014F815E81B101C20154012115FAECB3
:1053D0003F07FAE94F07FBE35F07610571058105A8
:1053E0009105F1F0E8F06A017101820120E030E0FE
:1053F0004AE85DE568E775E483E691E00E94903D48
:10540000F22FE42F07E028E44AEF6F2F732F8E2F3F
:10541000952F0E94510B8AE70E94600954988BCF08
:10542000CF80DE807101820120E030E44AE750E164
:1054300063EF7AE580E090E00E94903DF22FE42F48
:1054400007E028E44DEFE1CF1F920F920FB60F92C5
:1054500011248F939F93AF93BF93789480911201FF
:1054600090911301A0911401B09115019F5FAF4F6E
:10547000BF4F8093120190931301A0931401B09336
:105480001501BF91AF919F918F910F900FBE0F901B
:105490001F9018951F920F920FB60F9211248F93A1
:1054A00086E085BD8F910F900FBE0F901F901895CD
:1054B0001F920F920FB60F921124A895109281009F
:1054C00015BC0F900FBE0F901F9018951F920F9252
:1054D0000FB60F9211242F933F938F939F93809138
:1054E0007A0190917B01892B11F481E085BD209197
:1054F0007A0130917B018091780190917901281790
:10550000390730F015BC80916D008F7E80936D005F
:1055100080917A0190917B01019690937B01809319
:105520007A019F918F913F912F910F900FBE0F9015
:105530001F9018958D3008F08D50811109C08FE3B0
:1055400092E00E940D0A0E94C0090C94BD070895C4
:10555000813019F483ED91E0F4CF823019F486E1C3
:1055600092E0EFCF833019F48BE092E0EACF843001
:1055700019F48FE890E0E5CF853019F484E890E0E5
:10558000E0CF863019F48DE790E0DBCF873019F457
:105590008AEF91E0D6CF883019F48BEE91E0D1CF2D
:1055A000893019F483E091E0CCCF8A3019F489EF87
:1055B00090E0C7CF8B3019F48DE292E0C2CF8C30EF
:1055C00011F682E292E0BDCF0F93CF938FE890E087
:1055D0008CD4C0E01092250160E082E09BD48091E1
:1055E0002501883009F050C00E94530883E40E94CE
:1055F00060090E94F1096091870170918801809192
:10560000890190918A0103E026E4409196010E946D
:10561000510B0E94C009609193018091940117DBA6
:105620009093900180938F010E945B0880E691E047
:105630000E940D0A80918F01909190018A3F2FEF77
:105640009207F0F422E044E06EEF0E94330C0E94D7
:10565000C0098C2F0E94192388EE93E00E94AE0DA2
:1056600081110BC080911E01843038F48C2F0E9470
:105670002023C82F8A3F08F4ADCFCF910F91089512
:105680008FE30E946009E3CF0E94ED090E945B084E
:10569000DECF0895A5E0B0E0E0E5FBE20C94FC3D30
:1056A00086E192E022D480E18093800010926F0026
:1056B00081E090E0909389008093880010928B00A5
:1056C00010928A0083E086BB1092820088E080936B
:1056D000810015B891E194B988B989E087B9229A17
:1056E00080938100312C20E03AE0398341E04D8302
:1056F000812C912C5401839451E15C83832D90E0A3
:105700000A966EE170E00E94C03C6B83F62E621731
:1057100061F00E94C20786E192E00E940D0A10E04B
:105720001F1508F4DAC00E94C0098D8169810E94AA
:10573000A03CA92FB0E0A50194010E942C3D6B0173
:105740007C018C81823150F0652D762D872D902F34
:105750000E94D33CC60ED71EE81EF91E0E945308B5
:105760009D812981212C921306C081E03C81323138
:1057700008F480E0282E2A828CE3211005C04C8199
:105780008EE3463108F082E50E9460090E94B40968
:105790004C81C701B6010E94480CC701B6017E5E6C
:1057A00085489F4FA7019601220F331F441F551FA5
:1057B0000E94D33CCA014F3F510509F008F492C042
:1057C0008DE08093810080E094E02C01712C612CAD
:1057D000CA01B901A30192010E94D33C21503109B1
:1057E00030938900209388008091880090918900EF
:1057F000892B31F481E090E09093890080938800B8
:105800000E94C0090E945B0886E60E9460090E940F
:10581000B409009188001091890060E079E08DE37F
:1058200090E0A30192010E94D33CA4E6B0E00E9464
:105830002C3D0F5F1F4F980150E040E00E94D33C89
:1058400029013A01A4E6B0E0A70196010E942C3D8F
:10585000A3019201261B370B480B590BCA01B90152
:1058600005E228E44EEF0E94510B8AE70E9460098E
:105870000E94C00980ED97E00E94AE0D282F811193
:1058800051C080911E01811101C0232D80911E0104
:105890008B30B8F480911D0187FD88C03D81830F56
:1058A00090E03981632F70E06F5F7F4F0E94C03CB2
:1058B0008D83822F0E942023382E4FEE481708F048
:1058C00056C0109281001092800088E087B914B809
:1058D00022982596E2E10C94183E8EE20E9460091F
:1058E0001F5F1ECF4034510530F08CE08093810063
:1058F00080E091E06ACF4830510530F08BE0809332
:10590000810080E490E061CF892B31F08AE08093C0
:10591000810088E090E059CF89E08093810081E0A8
:1059200090E053CF883C68F68135C8F1222029F1F8
:105930003C8131503C83C501B4012AE030E040E0B5
:1059400050E00E94D33C49015A01C701B6010E94B0
:10595000D33CCA01B9012AE030E040E050E00E94A7
:10596000D33C6A834AE049832A812D83312C2B81E1
:105970005C2C6D2C7E2C0F2DC1CE5C815631E0F459
:105980005F5F5C83563111F485E18983AAE0B0E062
:10599000A50194010E942C3D4B015C01E5CF8B30A9
:1059A00018F09D819F5F9D8320E070CF8F5F4981BC
:1059B000840F5D81850F74CF5AE0598381E08A831B
:1059C000812C912C5401839491E19C83CDCFB0E044
:1059D000A0E0EDEEFCE20C94FE3D8BE092E085D27F
:1059E00083E28093800010926F008FEF90E090939D
:1059F0008B0080938A0083E086BB1092820015B8EA
:105A000081E184B988E088B989E087B9229A21E0E8
:105A100030E030938900209388008093810010E06B
:105A200080E0D2E300E094E6C92ED12CE12CF12CE9
:105A300088248A9423E0922EA12CB12CD817A1F1AE
:105A4000D43608F0D4562D2F30E0AFEFB3E00E94EB
:105A5000173D6E5C7F4F8F4F9F4FA70196010E94AD
:105A6000D33C29013A0130938B0020938A000E9495
:105A70005308A8EEB3E0A30192010E942C3D6150AF
:105A80007E4F8F4F9F4FA50194010E94D33CC901C7
:105A900025E045E26FEF0E94330C0E94C0090932F5
:105AA00018F08CE30E94BA0C80E496E00E94AE0DE0
:105AB000082F8338A0F480911E018B3080F4C091B0
:105AC0001D01C7FD1BC0CD0F0333D0F0C65F10E032
:105AD000812F0E942023182F8D2F103F68F088E01F
:105AE00087B9109281001092800014B82298CDB727
:105AF000DEB7E0E10C941A3EDC2FA0CFCC59E3CF07
:105B0000002311F0CF5FE3CF8111E1CFE1CFA3E01C
:105B1000B0E0EDE8FDE20C94033E082F81115CC07B
:105B200083E091E0E2D187E393E00E948F3E182F5B
:105B300086E393E00E948F3E982F969596959695D2
:105B40009983912F9F719B8328E0829FC00111242C
:105B50008873129516951770812B8A83D12C10E0CB
:105B6000CE0101965C01C12C7C01992493949C0C7C
:105B700060E0892D880F0E949207C11238C08EE321
:105B80000E94600982E4CC2021F031E087E4C31256
:105B900082E50E9460098DE30E946009F501819110
:105BA0005F0124E040E260E090E00E94330C0E943C
:105BB000C009C92CF3E09F12D8CF80E496E00E9480
:105BC000AE0D811117C090911E01911116C02FE3E7
:105BD0001130E1F02FE11AC089EF90E086D189E31E
:105BE00093E00E948F3E182F88E393E0A3CF0E949A
:105BF000B409C8CF823808F042C02FE3113009F051
:105C00002FE190911E019B30D0F5D12C90911D0178
:105C1000E12FF0E0D701AE0FBF1F3C9197FD41C0CF
:105C2000930F9C93EE0DFF1D9081292320832A81E1
:105C300049819B81011139C038E0439FA0011124A3
:105C4000322F369536953695432B409361019F71DF
:105C500040E2249F90011124922B909360018823AD
:105C600031F08932B0F11E5F133008F013508D2DE2
:105C70000E942023D82E2FEE281708F071CF011193
:105C80002AC06091600187E393E00E949C3E60918E
:105C9000610186E393E00E949C3E2396EBE00C9426
:105CA0001F3E9F5F930F920FBCCFE8E04E9FA00175
:105CB0001124322F369536953695432B4093270184
:105CC0009F71F0E22F9F90011124922B9093260157
:105CD000C6CF1F5FC9CF6091260189E393E00E9480
:105CE0009C3E6091270188E393E0D5CF0F931F93EB
:105CF000CF93DF938AEF91E0F8D08EE393E00E9498
:105D00008F3EC82FD0E00E9453080C2F0C2E000CA1
:105D1000110BC7FF37C08DE20E94600923E045E206
:105D20006FEF88279927801B910B0E94330C0E94EC
:105D3000C00980E496E00E94AE0D811128C09091C8
:105D40001E01911126C090911E019B3088F4909104
:105D50001D01C90F882319F08932E8F0CF5FC135E2
:105D6000E4F0C5568D2F0E942023D82F803F58F293
:105D70006C2F8EE393E00E949C3EDF91CF911F91A8
:105D80000F91089523E045E26FEFC801CECF82382E
:105D900078F7D0E0D8CFC150E2CFCC3E1CF7CB593A
:105DA000E1CF813019F480E0A8C90895823011F460
:105DB00071CC0895833011F40ACE0895843011F423
:105DC00003CC0895853019F40C942A230895863065
:105DD00029F40E94C9070C946C230895873011F4AC
:105DE00085CF0895883021F481E10C945E0F0895E9
:105DF000893019F480E08BCE08958A3011F481E067
:105E0000FACF8B3011F4C5C108958C3011F40C9485
:105E1000040F0895FF920F931F93CF93DF938AE4AB
:105E200092E063D0D0E0C0E01BE01C0F00E0FF2454
:105E3000F394F00E60E08F2D880F0E9492070230DD
:105E400009F049C08EE30E94600983EF810F1D3085
:105E500008F4812F6FDB1F5F0F2D053041F780E4C1
:105E60009FE10E94AE0D8111D0E0909142019130EE
:105E700009F4D0E0823330F490917F01992371F0DE
:105E8000882361F0CC23D9F08C2F8BDF10921E0178
:105E900010921D018AE492E028D080E090911E01CA
:105EA0009A3068F490911D01992319F097FD16C05E
:105EB000D0E0C90F811117C0DF5FD23839F480E01C
:105EC000CDB7DEB7E5E00C94253ED1E0CD3008F447
:105ED000ABCFCD50A9CF0E94B409B7CF935FC90F04
:105EE000882399F3D0E0CF5FE7CFCF93DF93EC0126
:105EF0000E94C907CE010E940D0AC4E682E00E94FA
:105F0000BA0C4F9902C0C150C9F70E945308DF91E3
:105F1000CF910895B0E0A0E0E0E9FFE20C94053EE7
:105F2000182F062F862F90E0FC01E65AFD4FE491D2
:105F3000FE2E6894F3F8E12FF0E0E95AFD4FC4918A
:105F4000FC01E95AFD4FD4911092900110928F01FB
:105F500010928301109284011092850110928601A3
:105F600087EF809395010E94ED1C88E088B9F7B80F
:105F7000D4B9D5B9812F0E94F20C7C01802F0E94E8
:105F8000F20CE81AF90A14B810925F0110925E013F
:105F900030E020E05CE2C52EDD24D394DAE064E654
:105FA000B62E80915E0190915F01843D904350F048
:105FB00088E087B988B914B815B8CDB7DEB7E9E07D
:105FC0000C94213EC5B980915E0190915F01892BAF
:105FD00091F0F601E21BF30B60915E0170915F019D
:105FE000D29FC001D39F900D11240E94AC3CE617B4
:105FF000F70708F0A5C0C4B90E94AD0C14B8809191
:106000005E0190915F01019690935F0180935E0124
:1060100015B80E94AF0CA895812F0E94F20C9C012C
:106020002E193F0980915E0190915F018B3196405E
:1060300020F0253231050CF4BBCF2D3281E038073A
:106040000CF4AFCF80915E0190915F01019729F42C
:10605000253185E038070CF0ABCF80915E0190913F
:106060005F01880F991FB0E0A0E080938B019093AF
:106070008C01A0938D01B0938E01C90168E270E09C
:106080000E94C03CCB01820F931F0E94CA20209126
:106090008B0130918C0140918D0150918E01DC017A
:1060A0000E942C3D60938B0170938C0180938D0135
:1060B00090938E0160938301709384018093850196
:1060C000909386010E947C1DC0908301D090840132
:1060D000E0908501F09086018EE393E00E948F3E70
:1060E000A8EEB3E0A81BB10987FDB395A7019601FF
:1060F0000E94363D20E137E240E050E00E94D33C70
:10610000209383013093840140938501509386014D
:1061100088E0809325012093870130938801409384
:10612000890150938A018091950180939601109284
:10613000920110929101009393011093940138CF32
:1061400080915E0190915F010B97C8F060915E01B4
:1061500070915F01B29EC001B39E900D11240E9408
:10616000AC3C6E177F0758F4C4B90E94A20C14B857
:1061700080915E0190915F018C599F4F45CFC4B9CA
:106180000E94A80C14B880915E0190915F010A965C
:106190003BCFCF92DF92FF920F931F93CF93DF936A
:1061A0000E94C9078AE191E00E940D0A0E945308EB
:1061B00081EC90E00E940D0A8CE393E00E948F3EF8
:1061C00023E040E26EEF90E00E94330C8DE393E019
:1061D0000E948F3E23E040E26EEF90E00E94330C7D
:1061E0008BE393E00E948F3E23E044E06EEF90E06B
:1061F0000E94330C0E945B088AEB90E00E940D0A1B
:1062000023E044E06FEF80913E0190913F010E94B6
:10621000330C0E94630883EB90E00E940D0A23E098
:1062200044E06FEF80914501909146010E94330C4C
:1062300088E99AE30E94AE0D80911E018B3008F030
:10624000BFC080911D0187FDABCF0E94C9078FEAB7
:1062500090E00E940D0A80E693E00E948F3E8251FA
:10626000990B0E94680A81E693E00E948F3E82515A
:10627000990B0E94680A8DE593E00E948F3E23E00F
:1062800046E464EF8251990B0E94330C0E9453083C
:1062900083E00E94B7098CE593E00E948F3E825113
:1062A000990B0E94680A8FE593E00E948F3E82510D
:1062B000990B0E94680A8BE593E00E948F3E23E0D1
:1062C00046E464EF8251990B0E94330C0E945B08F4
:1062D0008DE190E00E940D0A82E693E00E94973ED5
:1062E0000E94530A0E94630886E190E00E940D0A12
:1062F00084E693E00E948F3E082E000C990B0E94CA
:10630000530A60E082E10E949207C0E0FC2EFF0C7D
:10631000FC0ED0E0FA94CD1709F446C00F2D0D0FF6
:1063200010E0000F111FC801835B9C4F0E94973E35
:106330006C01C801815C9C4F0E94973E8C0180914A
:10634000B101893008F444C088E99AE30E94AE0D97
:1063500080911E018B30A0F580911D018E3F0CF4C1
:106360001FCF8E3F09F471CF8F3F59F20E94C907AA
:1063700087EA90E00E940D0A8C2F0E94B1098AE3FF
:106380000E9460098D2F0E94B10980E00E94C60919
:1063900023E040E26EEFC6010E94330C23E046E4A6
:1063A00062EFC8010E94330CDF5FD33009F0B3CF36
:1063B000CF5FC33009F0AACF88E99AE30E94AE0DFF
:1063C000DF91CF911F910F91FF90DF90CF900895B3
:1063D00080E00E94C609CCCF08954F925F926F92E1
:1063E0007F928F929F92AF92BF92CF92DF92EF9265
:1063F000FF92AC016C01F12CE12C56019924882408
:10640000E52FFF279A01DA010E94173D2C0166242F
:106410007724920165E0369527956A95E1F7E29F2A
:10642000C001E39F900DF29F900D11249A0174E03A
:10643000369527957A95E1F7E20FF31FE40FF51FE4
:1064400092013695279536952795B4E05694479452
:10645000BA95E1F72419350950E040E02E0F3F1FAF
:10646000411D511DBC01E3E076956795EA95E1F782
:10647000861B970B280F391F411D511DC701B601FF
:106480000E94913C680D791D8A1D9B1DFF90EF9025
:10649000DF90CF90BF90AF909F908F907F906F9044
:1064A0005F904F900895A3E0B2E0E9E5F2E30C9429
:1064B000FC3DCF5FDD4F8883C150D240162FCE5FA9
:1064C000DD4F4883C250D2400E94ED1CCF5FDD4FAC
:1064D0002881C150D240E22FF0E0E95AFD4FF490FC
:1064E0009F2C990CE12FF0E0E65AFD4FE491E86013
:1064F000E7B915B8F4B8822F806480937C000E94BD
:10650000AE0CCE5FDD4F3881C250D2403170CD5FCE
:10651000DD4F3883C350D240CE5FDD4F8881C250FB
:10652000D2408F2C80FF892CE0E2DE2E90E080E0CC
:10653000CF2CE82C092D282D44E7BE016F5F7F4F3B
:106540000E943400DA9480E490E0D110F1CF14B8C6
:106550001E0197E4290E311C73E2472E512C612C49
:10656000712CC12CD12C7601812C912C5401F1017C
:10657000819191911F01CD5FDD4FF881C350D240D1
:10658000FF2329F020E030E8281B390BC90125DF63
:106590009C0150E040E0820E931EA41EB51EC30174
:1065A000B2010E94913CC60ED71EE81EF91E3FEFB5
:1065B000431A530A630A730A84E7481651046104B4
:1065C0007104A9F6C501B40121E530E040E050E0D6
:1065D0000E94D33CABEBB7E10E942C3DC61AD70A10
:1065E000E80AF90AA701960164E0569547953795A0
:1065F00027956A95D1F760EE7DEC81EC9FE80E94CB
:10660000D33C69017A01CE5FDD4F9881C250D24000
:1066100091FD20C0CF5FDD4F8881C150D240880FEF
:10662000CF5FDD4FE881C150D2408E0F1150810FF6
:1066300090E0880F991FCD5FDD4FF881C350D240A5
:10664000FF2379F0815C9C4F0E94973EC81AD90ABB
:10665000E108F108C701B601CD5FDD4FE2E10C941E
:10666000183E835B9C4FF0CF4F925F926F927F9268
:106670008F929F92AF92BF92FF920F931F93CF93EF
:10668000DF93C0E0FC2EFF0CFC0ED0E0FA94CD1797
:1066900009F43EC042E06D2F8C2F05DF2B0143E053
:1066A0006D2F8C2F00DF4B010E94C90787EA90E015
:1066B0000E940D0A0E94B4098C2F0E94B1098AE33E
:1066C0000E9460098D2F0E94B1090E94B4090E94A6
:1066D000530824E040E26EEFC2010E94330C24E034
:1066E00046E462EFC4010E94330C0F2D0D0F10E041
:1066F000000F111FB201C801835B9C4F0E94AA3E8C
:10670000B401C801815C9C4F0E94AA3E0E94C0094E
:10671000DF5FD33009F0BBCFCF5FC33009F0B2CF1A
:106720000E94C2078AEC91E00E940D0A0E94C009F3
:1067300088E20E94BA0CDF91CF911F910F91FF90D8
:10674000BF90AF909F908F907F906F905F904F9091
:106750000895A2E1B0E0EFEAF3E30C94FC3D2C01D4
:106760007C836B83DD24D3942D2C312C33E0D39E9A
:10677000900111243E872D87F101EE0FFF1FEE0FD0
:10678000FF1FFC87EB87812C30E4932E50E0712CA7
:10679000612C18861F82B12CA12C1A8219821E82AC
:1067A0001D8240E0C12CF0E0E0E030E020E061E05C
:1067B00070E08FEF90E082199309988B8F870C2DF2
:1067C00010E08F8598890817190774F1AB81BC8197
:1067D000AB2B29F170E060E04230E8F09501ED81EB
:1067E000FE812E1B3F0BA8EEB3E00E94173DE9810E
:1067F000FA81AE1ABF0A950150E040E00E94D33CF6
:1068000088EE93E0821B930B0E94960EBC0188EBEE
:106810009AE70E94AC3CAB81BC816D937C93C40130
:106820006296E2E10C94183ED801A20DB31DAA0FA6
:10683000BB1FA40DB51D8D919C91E80FF91FD801C8
:10684000AA0FBB1FA40DB51D8D919C91280F391F58
:10685000CD1408F48BC0D801A219B309AA0FBB1F2D
:10686000A40DB51D0D90BC91A02D2A1B3B0BE81B60
:10687000F90B7901EE0EFF1EC9018E1B9F0B898754
:106880009A87D701B695A795B695A795A80FB91F72
:10689000B7FD77C0E217F30708F06AC0513009F07E
:1068A00067C0D80156E0AA0FBB1F5A95E1F7BA8B13
:1068B000A98BDC01A61BB70BBD01A817B90770F0A7
:1068C000A6E0880F991FAA95E1F780960E94AC3C3C
:1068D00089899A89861B970B9A8B898BAD85BE8592
:1068E000EA16FB0608F472CF8B859C8508171907FA
:1068F000C4F14423B1F069897A8966197709433074
:1069000050F0D4019096C401969587958A0F9B1FED
:1069100086179707D8F1D71650F4DD24D394D70EF5
:1069200023CFA989BA89B887AF83FE82ED82AE0CE6
:10693000BF1C4F5F413001F1842F8150990BBC0186
:1069400095958795A989BA898A0F9B1FAF81B885CC
:106950008A1B9B0B0E94AC3C4B0169887A88FA82A7
:10696000E982453108F032CF50E002C069877A876A
:10697000C39469857A8523CF69887A88FA82E98207
:10698000F3CF51E0E217F30798F78BCFEB81FC814F
:10699000EF2B09F023CF43CFA6E2B2E0E2EDF4E320
:1069A0000C94003EF82ED62E80E793E00E94973E8E
:1069B0003C01ED2DF0E0E95AFD4F1491EF2DF0E090
:1069C000E65AFD4FE4911092BE011092BF01109261
:1069D000C0011092C1011092C5011092C401109221
:1069E000C6011092C7011092C8011092C90180918E
:1069F0002501813009F0D2C08091020118160CF4F3
:106A0000CDC088E088B9E860E7B90E94AE0C2D2DB2
:106A1000206CD22E20937C000E94AE0CC12EE12C63
:106A200000E0212F4FEFBE016F5F7F4F80E191E0CB
:106A30000E9434003F2D306CF32E30937C00212FC8
:106A400044E1BE0161507E4F80E191E00E9434003C
:106A5000FE013196BE0161507E4F5B01AE01475D84
:106A60005F4F81919191D5016D917D915D019F0164
:106A7000225031098617970708F495C0861B970B9B
:106A8000D9018D939C93E417F50759F7D0927C00B8
:106A900070E060E0CE0101965CDE9F5F30E1A32EE6
:106AA000BB24B394912C812C913178F040E1A42E39
:106AB00044E0B42E52E0852E912C903430F090E1D9
:106AC000A92EBA2C24E0822E912C88E0D82EA895ED
:106AD000C12EE12C00E0212F4FEFBE016F5F7F4FF1
:106AE000C5010E9434008114910409F462C064EC71
:106AF00071E0CE0101962DDE5C01813C9F4308F0E0
:106B0000B2C06501F12CE12C9501D50190D723E3AA
:106B100030E040E050E047D7A8E6B2E09DD73FEF35
:106B2000831A930A76946794930150E040E03BD730
:106B3000C401880F991F04C0220F331F441F551F23
:106B40008A95D2F72093C6013093C7014093C801BC
:106B50005093C90180910B0190910C01A0910D01FE
:106B6000B0910E010397A105B10540F01092C60146
:106B70001092C7011092C8011092C901A114B1046A
:106B800009F074C01092C5011092C4011092C601A0
:106B90001092C7011092C8011092C901CA5DDD4F61
:106BA000EEE00C941C3ED9011D921C926CCF5C014E
:106BB0008ECFC5018064DA94D110F9CF811594404D
:106BC000C8F08EEF8F3F09F492CFE82FF0E0EE0F80
:106BD000FF1F21E030E02C0F3D1FE20FF31F20814B
:106BE0003181A3E036952795AA95E1F7318320837B
:106BF0008150E8CFF0927C00E894A6F808E0F02EEF
:106C0000C12EE12C00E0212F44E1BE0161507E4FF6
:106C1000C5010E9434006894A6F8FA94F110F0CFF0
:106C200024E1215070F2822F90E0880F991FE1E05B
:106C3000F0E0EC0FFD1FE80FF91F408151816FEF6D
:106C400071E06C0F7D1F860F971FDC018D919C9169
:106C50004817590728F0481B590B51834083E1CF4F
:106C600011821082DECFB12CA12C4BCF27E030E077
:106C70002819390960E072E18AE790E004C0660FE4
:106C8000771F881F991F2A95D2F7A70196018BD6E7
:106C90002093BE013093BF014093C0015093C101C6
:106CA0008091020187FD7ACF8FEF8093020176CF2A
:106CB000CF93DF93D82F0E94C20786E090E00E9416
:106CC0000D0A0E94C009C0E01092C3011092C201D7
:106CD00084E10E94BA0C62E080E00E94BC1D0E9428
:106CE000530824E046E464EF8091C2019091C3010F
:106CF0000E94330C6091C2017091C301CB018C538F
:106D00009F4085399547A8F4CF5FC53098F080E75C
:106D100093E00E94AA3E0E94B4098AEC91E00E948E
:106D20000D0A84E60E94BA0C0E94C207DF91CF913F
:106D30000895C0E00E94C009DF5F31F6F5CFB0E0F2
:106D4000A0E0E4EAF6E358C780E48AB98BB9D6E854
:106D5000D0937A001092C1000E949A0CC4B7C870F8
:106D600084B7877F84BF0FB6F894A89580916000A0
:106D7000886180936000109260000FBED093640021
:106D800088E380937E001092B00087E08093B1008A
:106D900078940E94EE07C111B3C580E185BF84E0FD
:106DA00080931C014F9906C082E00E94BA0CCF5F0D
:106DB000CC33C1F78FE59DE69093170180931601C0
:106DC000CF3130F080E69DE6909317018093160155
:106DD000109239010E94092188E19FE00FB6F894D2
:106DE000A895809360000FBE90936000CC3309F4A7
:106DF00062C048E0242E5AE0A52EB12C68E1362E60
:106E00007CE4872E71E0972EE8E6EE2EE1E0FE2E80
:106E10000E94C90727B80E94E10E0E9409210E9422
:106E2000C2070E944F1380914701882381F00E947E
:106E3000530885E691E00E940D0A63E080913C01D1
:106E400090913D010E943E0C88EC0E94BA0C0E9479
:106E500053080E94ED1C80912501893089F50E941C
:106E6000C9078AE691E00E940D0A0E94530863E078
:106E700080910501909106010E943E0C0E94B40988
:106E800063E080910701909108010E943E0C0E94EE
:106E9000B40963E08091090190910A010E943E0CBF
:106EA0008AEC0E94BA0C81E10E945E0FC09116012B
:106EB000D0911701A4C10E940A2F8111FCCF99CF54
:106EC0008EE593E02CD7C82F8BE593E028D7C81B1D
:106ED000C093440180E00E945E0F0E94ED0983EDA3
:106EE00092E00E940D0A83E00E94820C0E94BD077E
:106EF00042E061E080E00E94BA1342E060E081E09D
:106F00000E94BA1341E062E080E00E94BA1341E0BF
:106F100060E082E00E94BA1340E062E081E00E94FB
:106F2000BA1340E061E082E00E94BA13809125012B
:106F300081110EC00E94ED1C60E082E00E94BC1D29
:106F400061E082E00E94BC1D60E081E00E94BC1D07
:106F50000E94C90790924A018092490180912501BF
:106F6000863009F585EC0E94200960E188EF0E94D7
:106F7000630C66E080E00E9492078AEA92E00E9439
:106F80000D0A66E082E00E9492078EE791E00E947F
:106F90000D0A62E080915001909151010E943E0CD7
:106FA0000E94BD0783CF873071F484EC0E942009D2
:106FB00060E188EF0E94630C66E080E00E94920727
:106FC00083EB92E0DCCF8830C9F4809193019091FB
:106FD0009401890F9927991F029761F40E946C23ED
:106FE00080914401882309F476C43AE0732ED0E0FE
:106FF000C0E05EC480E00E94A22258CF833009F036
:1070000010C180912301813009F069C080E00E94A5
:10701000250B6091990180919F010E94071380E7E1
:107020000E94FD0A40E06091990180919F013BDA46
:10703000609383017093840180938501909386010E
:1070400080E00E94E1096091830170918401809148
:1070500085019091860102E026E442EF0E94510BE7
:107060008DE20E94600941E06091990180919F0149
:107070001ADA609383017093840180938501909361
:10708000860126E442EF0E94510B82E491E00E94C7
:107090000D0A0E94BD070E94BD0780917E018823D2
:1070A00009F404CF37B827B880E00E94E109309195
:1070B0007E01332309F4B7C380916501313009F0B3
:1070C0004EC30E94BF0A20916501213009F042C3DE
:1070D0002091230121113EC30E942A2381CF8230B7
:1070E00081F582E30E94600982E391E00E940D0A2B
:1070F0009091990130919A01931308C080E00E9409
:10710000410B81E00E94380B81E08ACF20919F01E2
:107110008091A001281307C080E00E94310B81E01C
:107120000E94480BF1CF321306C081E08093110119
:107130000E94130BB0CF981341C020E1209311019E
:10714000F7CF8330D9F583E38093110180919F01BC
:1071500090919A01891303C021E02093110140917D
:1071600099013091A001431303C020E12093110144
:1071700020919B01821303C082E0809311018091D2
:10718000A101481303C040E24093110132130DC026
:1071900022E120931101981751F083E30E946009C6
:1071A00082E391E00E940D0AC3CF981303C081E2ED
:1071B0008093110180911101823278F389EB92E082
:1071C0000E940D0A81EA92E00E940D0A0E94530873
:1071D00080912301805D0E9460098AE20E9460091B
:1071E0008CE491E00E940D0A87E892E00E940D0A6B
:1071F0000E94BD0786E00E942009C0E4DFE137B8A5
:107200004F9BFECFCE010E94AE0D823328F49091A9
:107210001E01933008F414C30E940A2F8111FCCF81
:10722000F7CD843009F059C180917701882309F4A2
:107230005FC080915B01882309F45AC060915801B6
:1072400080915A010E94BC1D40908301509084019E
:107250006090850170908601C091950160917601E2
:10726000809174010E94BC1D80914C0190914D0150
:10727000A0914E01B0914F01409168015091690178
:1072800060916A0170916B01843F31E09307A10521
:10729000B10538F4443F21E052076105710508F05B
:1072A000C0EF443F51406105710540F4843F914077
:1072B000A105B10518F080EF8093950180919501AB
:1072C0008C1311C08091830190918401A09185015C
:1072D000B0918601481659066A067B0630F08CE0AC
:1072E0008093240105C0C817D4F73DE030932401F2
:1072F00080917701882361F080915B01882341F0C0
:107300004F9906C08091240191E089278093240140
:1073100066E080E00E94920780EC0E942009809144
:1073200024018C3009F0C2C08AE991E00E940D0A64
:1073300080917701882319F080E70E9460090E94FC
:10734000BC0EC82F853090F4A0914901B0914A013C
:10735000E82FF0E0E756FE4F1D969C91808160E09B
:10736000981362E088EA91E00E94470960E189EFA2
:107370000E94630C86E00E94C60989EA91E00E949F
:107380000D0AE0914901F0914A0160817181828189
:10739000938103E020E04EEF0E94510B87E00E94B2
:1073A000C60989E40E946009E0914901F0914A010F
:1073B000868197818031974208F48BC085E60E94D0
:1073C0006009E0914901F0914A01868197818051DD
:1073D0009742978386830E94F109E0914901F091D9
:1073E0004A0122E041E46AEF868197810E94330CD2
:1073F00086E00E94C60982E891E00E940D0AE091B1
:107400004901F0914A0163E0848195810E943E0C1C
:1074100081E080934B01E0914901F0914A01808520
:107420009185892B91F085E00E94E10984E191E04A
:107430000E940D0AE0914901F0914A0122E041E4E5
:107440006AEF808591850E94330CE0914901F091AB
:107450004A0182859385892B91F085E00E94E1099C
:107460008EE091E00E940D0AE0914901F0914A01FD
:1074700022E041E46AEF828593850E94330CC53097
:1074800078F480E00E94E1098C2F0E94250B8EE7A2
:1074900091E00E940D0A8C2F0E94EF0A0E94BD0706
:1074A00043E462E485E40E94920A7ACDF0924A01B4
:1074B000E09249018DED91E00E945D0982E991E041
:1074C0000E940D0A80915B01882309F438CF8EE673
:1074D00034CF83E60E9460097ECF853009F0E7CD86
:1074E00066E080E00E94920780912401C82FC0715D
:1074F00084FF65C080E50E946009F0924A01E09235
:107500004901C2E08DE20E94600980912401D82FD8
:10751000DF70D43009F057C084EB91E00E940D0A6F
:1075200083EC0E94200986EE91E0C11168C00E94A0
:10753000BC0E853090F4A0914901B0914A01E82F2A
:10754000F0E0E756FE4F1D969C91808160E0981315
:1075500062E088EA91E00E94470960E189EF0E94B9
:10756000630C86E00E94C60986E00E94C6098091ED
:10757000240185FD60C08AE791E00E940D0AE09138
:107580004901F0914A0162E0828593850E943E0C98
:10759000E0914901F0914A01668584850E94BC1DF5
:1075A00086E00E94C6090E94270A85E00E943F0AE1
:1075B000D43009F0CDC04FE367E48FE374CF8EE49D
:1075C0000E9460099FCF85FF1DC084E40E9460096E
:1075D000CF5FD330D9F48EEA91E00E940D0A81EC9E
:1075E0000E94200983E392E0C13049F08FE392E0EA
:1075F000C23029F08FE092E0C33009F098CF0E94AA
:107600005D0995CF85E40E946009E3CF89EB91E0A5
:107610000E940D0A82EC0E9420098FEF91E0C13098
:1076200071F385E092E0C23051F3C33009F07FCFAF
:107630008DEE91E0E4CFE0914901F0914A018F7025
:10764000843009F44EC0668584850E94BC1D0E946A
:10765000270A60E086E00E94920789E40E946009A0
:107660000E94F109E0914901F0914A0122E041E4D0
:107670006AEF868197810E94330C84E791E00E9433
:107680000D0AE0914901F0914A0162E082859385FB
:107690000E943E0CE0914901F0914A01808591855C
:1076A000803C9241E0F480E00E94E10989E40E947C
:1076B00060090E94F10922E041E46BEF90E080E074
:1076C0000E94330C84E791E00E940D0AE091490189
:1076D000F0914A0162E0808591850E943E0C80E035
:1076E00065CF84819581892B09F4B3CF80E090E048
:1076F0000E940D0AE0914901F0914A0122E041E423
:107700006AEF848195810E94330CA3CFC11103C01D
:1077100080E00E94C60980E00E94E1098C2F0E944F
:10772000250B8EE791E00E940D0A8C2F0E94EF0A34
:107730000E94BD07CF5F80912301C81738F344E44E
:1077400067E483E5D33009F0AECE43E467E4AACE24
:10775000C0E0F1CF40E0692F0E94DA21A7CB9091E1
:10776000660124E0929FD0011124AE54BE4F24E064
:10777000829FF0011124EE54FE4F4D905D906D906C
:107780007C904081518162817381282F4415550579
:107790006605770508F4292F980FC3E0C91B32301E
:1077A000E1F0C091670134E0C39FD0011124AE54D1
:1077B000BE4F84E0289FF0011124EE54FE4F4D91FE
:1077C0005D916D917C9180819181A281B3818417BB
:1077D0009507A607B70708F0C22F1C2F1695D2E011
:1077E000DC1B02E0C11101C001E0812F0E94B10940
:1077F0008DE291E00E940D0A8D2F0E94B1098DE269
:1078000091E00E940D0A802F0E94B10980E00E9441
:10781000C60981E0C11180E00E94C90A82E0811B93
:107820000E94C90A43CB81E992E00E940D0A0E949E
:1078300053088EEB92E00E940D0A89EB92E0D6CCC1
:107840008111E6CA9111DECCCBCBFC01EC0DFD1D04
:10785000649020E2621201C0582E01968131910598
:10786000A1F7772071F1872D6AE06AD0192F911165
:1078700002C00E94C90760E0812F880F0E94920712
:107880000E94BD07A895872D90E00196B50178D09C
:10789000782E10E000E0051508F16620C1F0C50D56
:1078A000D11DFE01E35AFD4FE491E03209F4219627
:1078B00090E080E020E1522E9E01235A3D4F690165
:1078C000C4CF80E197E20E94AE0D882361F280E18F
:1078D00097E20E94AE0D0E94040F9ACAF601E00FD3
:1078E000F11F6490662099F33FEF631205C00E9478
:1078F000B4090F5F1F4FCFCF862D0E946009F9CFCB
:107900000E94C2078EE792E00E940D0A8BEC0E9453
:10791000BA0C0E94040F90E080E0CDB7DEB7E2E140
:1079200087C1DB018F939F9397D0BF91AF91A29FA7
:10793000800D911DA39F900DB29F900D112408956D
:10794000991B79E004C0991F961708F0961B881FB1
:107950007A95C9F780950895AA1BBB1B51E107C012
:10796000AA1FBB1FA617B70710F0A61BB70B881FCF
:10797000991F5A95A9F780959095BC01CD0108955E
:1079800097FB072E16F4009406D077FD08D0E4DFAD
:1079900007FC05D03EF4909581959F4F0895709512
:1079A00061957F4F0895A1E21A2EAA1BBB1BFD0112
:1079B0000DC0AA1FBB1FEE1FFF1FA217B307E407CE
:1079C000F50720F0A21BB30BE40BF50B661F771F26
:1079D000881F991F1A9469F7609570958095909506
:1079E0009B01AC01BD01CF010895052E97FB16F454
:1079F00000940FD057FD05D0D6DF07FC02D046F427
:107A000008C050954095309521953F4F4F4F5F4F9F
:107A1000089590958095709561957F4F8F4F9F4FFA
:107A20000895EE0FFF1F0590F491E02D0994A29F99
:107A3000B001B39FC001A39F700D811D1124911D42
:107A4000B29F700D811D1124911D0895F0DFB7FFC5
:107A50000895821B930B0895EADFA59F900DB49FB4
:107A6000900DA49F800D911D11240895B7FFF4CFB0
:107A7000F3DF821B930B0895E894DF93CF93FC010F
:107A8000DB01D5DF7F936F93E9019A01AC01BF93CE
:107A9000AF933F932F93DF01CADF26F46C1B7D0B5E
:107AA000820B930B9E01EB01FC01DDD0AF91BF91E6
:107AB0002F913F91D8D0BE01CF01F9012F913F9175
:107AC000CF91DF910895689401C0E894F92FF12BCC
:107AD0000AF027C0A0E0B0E0EFE6FDE393C0092E76
:107AE00005941AF479D0112392F4F0E80F26FFEFF1
:107AF000E094F09400951095B094C094D094A19423
:107B0000BF0ACF0ADF0AEF0AFF0A0F0B1F0B13D0C1
:107B100007FC62D0CDB7DEB7ECE090C0689401C03E
:107B2000E8948F929F92CF93DF9305D0DF91CF910E
:107B30009F908F90089588249924F401E401B0E483
:107B40009F93AA279A158B049C04ED05FE05CF058B
:107B5000D007A10798F4AD2FDC2FCF2FFE2FE92DF2
:107B6000982C892E982F872F762F652F542F432FEF
:107B7000322F2227B85031F7BF9127C01B2EBF915B
:107B8000BB27220F331F441F551F661F771F881FF7
:107B9000991F881C991CEE1FFF1FCC1FDD1FAA1FF9
:107BA000BB1F8A149B04EC05FD05CE05DF05A0076D
:107BB000B10748F08A189B08EC09FD09CE09DF09D6
:107BC000A00BB10B21601A94E1F62EF49401AF01E1
:107BD000BE01CD01000C089560957095809590953B
:107BE00030954095509521953F4F4F4F5F4F6F4FC8
:107BF0007F4F8F4F9F4F08952F923F924F925F92EA
:107C00006F927F928F929F92AF92BF92CF92DF92AC
:107C1000EF92FF920F931F93CF93DF93CDB7DEB711
:107C2000CA1BDB0B0FB6F894DEBF0FBECDBF0994A5
:107C30002A88398848885F846E847D848C849B84FC
:107C4000AA84B984C884DF80EE80FD800C811B810A
:107C5000AA81B981CE0FD11D0FB6F894DEBF0FBE39
:107C6000CDBFED010895E3DE460F571FC81FD91F92
:107C700008F431960895BB27FA01A62F6217710503
:107C800081059105330B30FB66F0AA27660F771F3D
:107C9000881F991FAA1FA21710F0A21B63953850C6
:107CA000A9F7A05DAA3308F0A95DA19336F7B11139
:107CB000B1931082CA0123C04532510518F44230F5
:107CC00008F004C0FB011082CB010895BB27FB0123
:107CD0005527AA27880F991FAA1FA41710F0A41BC5
:107CE00083955051B9F7A05DAA3308F0A95DA1931F
:107CF000009779F7B111B1931192CB0100C0DC016B
:107D0000FC01672F71917723E1F7329704C07C91D2
:107D10006D9370836291AE17BF07C8F30895F99908
:107D2000FECF92BD81BDF89A992780B50895A8E14C
:107D3000B0E042E050E013C0262FF999FECF1FBA01
:107D400092BD81BD20BD0FB6F894FA9AF99A0FBE84
:107D500001960895F1DF272FF0CFDC01CB01FC0164
:107D6000F999FECF06C0F2BDE1BDF89A319600B494
:0E7D70000D9241505040B8F70895F894FFCF9F
:00000001FF
