:1000000045C7000055C7000053C7000051C7000096
:100010004FC700000C949F274BC700000C940A0E9A
:1000200047C7000045C700000C94BD1F0C948327F0
:100030000C9491270C94971F3BC7000039C7000010
:1000400037C7000035C7000033C7000031C70000C4
:100050002FC700000C940B0E2BC7000029C700000F
:1000600027C7000025C70000E62FF72F903009F4BE
:100070009395E5B8C4B8B6EFB0937A00A5E0A09325
:100080007B00A8E0A093810010928000AFEFA093C6
:100090008500A0938400A6E0A093360010928B0008
:1000A00010928A00B3E0AFE3A91B51E0392F33303F
:1000B0002AF0A05CBC4F53953350F9CFB093890020
:1000C000A0938800A0917A00A4FFFCCFB6EBB09378
:1000D0007A00A2E0A0936F00A9E0A093810062E003
:1000E000A0E0A0937B00A1E0A09353008895E5B821
:1000F000C4B884FF1AC0A8E10000AA95F1F7EF93F5
:10010000FF93E7B1F8B1A4E0C2FCA2E0C0FCA1E01B
:10011000BF2FBA2BAE2BB8B904B9A7B9E7B9F8B954
:10012000FF91EF910BC00C947300ACE10000000054
:10013000AA95F1F725B9E5B8000004B9A0918400AB
:10014000A0918500B0918900A395AB1760F7A091AD
:100150007A00A4FFF3CFB6EBB0937A006A9571F7FB
:100160006091780070917900308186FD630F619312
:10017000308186FD731F80FF7193652F4A9579F753
:1001800010926F0010928100B6E0B0937A0008954B
:10019000DA01D101C8011008407E01013E01013E93
:1001A00001013E01017E404018000720080808F8C0
:1001B0000000002060A03FA06020020202FF0202B7
:1001C000021010101F0000000708FFDBBDB5B5CB03
:1001D000FF0708FFBB9DADADB3FF0708FFFFF7FBAF
:1001E00081FFFF10100508F87838588809100308B7
:1001F0001C3E7F0D080710FF818181F1E1C1FF40A6
:1002000040404743410D080110FFFF11080310F162
:10021000E1C14743410E0008202121122060E0E0A7
:10022000E0FEFE0402010001037F7F21C2C4C4C0BE
:100230004094840007030102040E080210FEFE7FB2
:100240007F00000000110005202060E0E0E00201D6
:10025000000103C2C4C4C04007030102040104102A
:100260000102044E6F742063616C6962726174658F
:10027000642120466F72FF63616C69627261746908
:100280006F6E20636C616D70207468652033FF7041
:10029000696E7320746F67657468657220616E643F
:1002A000207374617274207769746820746865FFC4
:1002B0006B65792E2041636B6E6F776C6564676543
:1002C000207468652073656C662D7465737420777F
:1002D00069746820746865206B6579207769746833
:1002E000696EFF32732E20446973636F6E6E6563AF
:1002F000742070696E73206166746572207468651D
:10030000FF6D657373616765202269736F6C61743B
:1003100065FF50726F626521222069732073686FD8
:10032000776E2E20536F66747761726520616E64FC
:1003300020646F63756D656E746174696F6E20699A
:10034000732061742073766E3A2F2F206D696B7263
:100350006F636F6E74726F6C6C65722E206E657455
:100360002F7472616E736973746F72207465737425
:1003700065722000B903870358032E030703E402C4
:10038000C302A40288020000140029003E005300AA
:10039000690080009700AE00C600DF00F80012017F
:1003A0002D01490165018201A001BE01DE01FF01AD
:1003B0002102440268028E02B502DE0209033503FF
:1003C00064039403C803FE0337047304B404F904FC
:1003D00043059305EA054906B3062907AE07480811
:1003E000FF08DE09FD0A930C480F991B000000006E
:1003F0000000000000000000000000001E2121217C
:100400001200807F0000007E4A4A4A34000000004B
:100410000000FC402010080402010000000101015E
:10042000010101010101010101017F0488D0E0F017
:10043000F8000000000000000000000000000000C4
:10044000000000FC94948400000102FC0000000005
:1004500000000000000000001E21212112E0C080E9
:100460004020100F000000C020202040000000FCB1
:1004700000009E9E040303030302000000202023CB
:10048000242525232020203F00007B7B214284045B
:1004900080C000000000000000000000000000001C
:1004A000FC94948400040607070708F0000000008D
:1004B000000000000000000000803F2121120C001D
:1004C000000000FF000000F0084848C80000FE00DF
:1004D00000E7818181C1E1F181818101002020203B
:1004E0002121212020203F0000F34040404143478C
:1004F00040407FC00000000000000000000000003D
:100500000000489494946400000000FF0000000084
:100510000000000000000000000000003F21211248
:100520000C0000FF000000F0084848D00000000068
:100530000000FEFE04040404040404070008080884
:1005400009090908087F3E1C08087F7F2020202019
:10055000202020E00000000000000000000000005B
:100560000000000048949494640000FF0000000024
:1005700000000000000000FF003C0A090A3C0022C5
:1005800031292926000082868E9EBEFEFEBEDEEF49
:10059000F6FAFEFEFAF2E2C2820000000808080441
:1005A000027984A4A46800FF00000000000000009D
:1005B000000000000000000000000000000000FF3C
:1005C0000000F0282428F0001008FC0000000000C3
:1005D000000000000000003C0A090A3C00FF000087
:1005E000000000000000000000000000000000000B
:1005F000040C1C3C7CFF7C3C1C0C04000000000034
:10060000009EA1A9A99A804323130B0703FF0303AC
:100610000303030300000000000000000000007856
:100620008484844800FF000000000000000000F007
:100630000804E2110909090909090909091121C276
:10064000040810E00000000102040407000000009C
:10065000008040201088442310080403000000009C
:1006600000000000000000FE0100FC02010000008C
:100670000000000000000000000000000000007901
:10068000494979000000000000000000C0F8181877
:100690001818F8C00007060606060700C0FCF8F0A8
:1006A000E0DCFCC0000F0703010E0F00C0FCDCE023
:1006B000F0F8FCC0000F0E0103070F00C0FCFC00A7
:1006C00000FCFCC0000F0F00000F0F00F0F80C0C36
:1006D0000CF8F0000C0D0F000F0D0C0000FCFC00DE
:1006E00000F8F800381F0F03060307060C0C0C0C6B
:1006F0000CFCFCC00C0C0C0C0C0F0F00C0FCFC0C18
:100700000C0C0C0C000F0F0C0C0C0C0CC0C0C0C05F
:10071000C0C0C0C00000000000000000C000008099
:1007200000008000070C0C070C0C070C0080000078
:10073000800000C00C070C0C070C0C0700F8FC46EE
:1007400062BC1800381F0F000407030000000000FF
:100750000000000000000000000000000000000099
:100760000000000000000000000000000000000089
:100770000000000000000000000000000000000079
:1007800000000000000000000000000000F8FC066F
:1007900002FEFE00381F0F08080F1F38FEFE000083
:1007A000FEFE00000F0F08080F3F1800FEFE00F8C5
:1007B00000FEFE000F0F080F080F3F180080E0300A
:1007C00010F0F000381F0F08080F1F38C0E028F89D
:1007D00028E0C000070F283F280F0700F0F00000B6
:1007E000F0F000000F0F08080F3F1800F0F000F0C5
:1007F00000F0F0000F0F080F080F3F180000000076
:1008000000000000000000000000000000000000E8
:1008100000000000000000000000000000000000D8
:1008200000000000000000000000000000000000C8
:1008300000000000000000000000000000000000B8
:1008400000000000000000000000000000000000A8
:100850000000000000000000000000000000000098
:100860000000000000000000000000000000000088
:100870000000000000000000000000000000000078
:100880000000000000000000000000000000000068
:1008900000000000000000000000000000007CFEDE
:1008A000FE7C00000000001B1B000000000E1E006C
:1008B000001E0E00000000000000000020F8F820DC
:1008C000F8F82000020F0F020F0F0200387C444797
:1008D00047CC9800060C0838380F0700081494C855
:1008E00060301800060301040A0A040080D87CE482
:1008F000BCD84000070F0808070F080000080F07C2
:100900000000000000000000000000000000F0F8FF
:100910000C0400000000070F181000000000040C79
:10092000F8F00000000010180F0700004050F0E041
:10093000F05040000001010001010000004040F0C3
:10094000F040400000000001010000000000000035
:100950000000000000002C3C1C000000C0C0C0C013
:10096000C0C0C00000000000000000000000000047
:100970000000000000000C0C00000000000080C01F
:10098000603018000603010000000000F8FC0602B9
:1009900006FCF80003070C080C07030000181CFEF7
:1009A000FE0000000008080F0F0808000C0E82C2AD
:1009B000623E1C000E0F0908080C0C00040642429F
:1009C00042FEBC00040C0808080F0700C0E0B09805
:1009D000FCFE8000000000080F0F08003E3E2222AF
:1009E00022E2C200060C0808080F0700F8FC2622C5
:1009F00066C4800003070C080C070300060682C2C9
:100A0000623E1E0000000F0F00000000BCFE4242CC
:100A100042FEBC00070F0808080F0700387CC6829A
:100A200086FCF80000040C080C07030000003030BE
:100A30003000000000000606060000000000303014
:100A4000300000000020361E0E0000000040E0B024
:100A5000180C06000000000103060C0000202020F6
:100A600020202000000101010101010000060C18F6
:100A7000B0E04000000C060301000000181C86C214
:100A8000663C18000000191900000000F8FC04E49E
:100A9000E4FCF800070F080B0B0B0100F0F88C8644
:100AA0008CF8F0000F0F0000000F0F0002FEFE4256
:100AB00042FEBC00080F0F08080F0700F8FC0602F2
:100AC00002060C0003070C08080C060002FEFE02DA
:100AD00006FCF800080F0F080C07030002FEFE4298
:100AE000E2060E00080F0F08080C0E0002FEFE4280
:100AF000E2060E00080F0F0800000000F8FC068256
:100B000082868C0003070C0808070F00FEFE404099
:100B100040FEFE000F0F0000000F0F00000002FE5D
:100B2000FE0200000000080F0F0800000000000295
:100B3000FEFE0200070F08080F07000002FEFE601D
:100B4000F09E0E00080F0F00000F0F0002FEFE02C5
:100B500000000000080F0F08080C0E00FEFE38E031
:100B600038FEFE000F0F0000000F0F00FEFE38E001
:100B700080FEFE000F0F0000030F0F00F8FC0602BE
:100B800006FCF80003070C080C07030002FEFE42F7
:100B9000427E3C00080F0F0800000000FCFE02022D
:100BA00002FEFC00070F080E3C3F270002FEFE423B
:100BB000C6FC3800080F0F00000F0F001C3E6242F9
:100BC000C28E0C00060E0808080F07000E0602FE73
:100BD000FE02060E0000080F0F080000FEFE0000D7
:100BE00000FEFE00070F0808080F0700FEFE0000C9
:100BF00000FEFE000103060C06030100FEFE00F8E5
:100C000000FEFE00030F0E030E0F0300069EF8F019
:100C1000F89E06000E0F0100010F0E00003E7EC080
:100C2000C07E3E000000080F0F0800000682C2626E
:100C3000321E0E000E0F090808080C000000FEFE10
:100C40000202000000000F0F080800001C3870E0CE
:100C5000C080000000000000010307000000020245
:100C6000FEFE0000000008080F0F0000080C06033D
:100C7000060C08000000000000000000000000005A
:100C8000000000003030303030303000000003070A
:100C900004000000000000000000000020B0909060
:100CA000F0E00000070F0808070F080002FEFE1022
:100CB00030E0C000000F0F080C070300C0E0301048
:100CC0001030200003070C08080C0400C0E03012AC
:100CD000FEFE0000070F0808070F0800C0E0B090F4
:100CE000B0E0C00003070C08080C04000020FCFE64
:100CF000220E0C0000080F0F08000000E0F010109A
:100D0000E0F01000133724243F1F000002FEFE20F5
:100D100010F0E000080F0F00000F0F00000010F6A9
:100D2000F60000000000080F0F080000000000108F
:100D3000F6F60000183820203F1F000002FEFEC01B
:100D4000E0301000080F0F00010F0E00000002FE3F
:100D5000FE0000000000080F0F080000F0E030E087
:100D600030F0E0000F0F0007000F0F0010F0E01050
:100D700030E0C000000F0F00000F0F00C0E0301087
:100D800030E0C00003070C080C07030010F0E0106F
:100D900010F0E000203F3F28080F0700E0F010109F
:100DA000E0F01000070F08283F3F200010F0E0306F
:100DB00010706000080F0F08000000002070D09035
:100DC00090302000040C0808090F06001010FCFEEB
:100DD000101000000000070F080C0400F0F00000E5
:100DE000F0F00000070F0808070F080000F0F000FF
:100DF00000F0F0000003070C0C070300F0F000C047
:100E000000F0F000070F0C070C0F07003070C080D7
:100E1000C07030000C0F0301030F0C00F0F0000055
:100E200000F0F00013372424243F1F0030301090CE
:100E3000D07030000C0E0B09080C0C000040E0BE16
:100E40001F0100000000000F1F100000000000FF45
:100E5000FF0000000000003F3F0000000000011FF5
:100E6000BEE040000000101F0F000000080C040C42
:100E7000080C0400000000000000000080C060308A
:100E800060C08000070704040407070011241FBE88
:100E9000CFEFD8E0DEBFCDBF21E0A0E0B1E001C0E0
:100EA0001D92A63CB207E1F70E94FA320C94103A68
:100EB000A7C85D98559A80FD5B9A80FF5B98539A0E
:100EC000519A5A9867FD599A67FF59985A9A5A98B1
:100ED00066FD599A66FF59985A9A5A9865FD599A2B
:100EE00065FF59985A9A5A9864FD599A64FF59981F
:100EF0005A9A5A9863FD599A63FF59985A9A5A9880
:100F000062FD599A62FF59985A9A5A9861FD599A06
:100F100061FF59985A9A5A9860FD599A60FF5998FA
:100F20005A9A5D9A5A985998089560934601809309
:100F3000040186958093AD01660F660F660F60937E
:100F40000F0108951092AD0160E080E0EECF0895AA
:100F500081E08093AD0160E082E0E7CF089582E018
:100F60008093AD0160E084E0E0CF089583E080935A
:100F7000AD0160E086E0D9CF08958091460180936D
:100F800001018091AD0180930301089580910301D7
:100F900060910101880FC9CF0895CF93C82F692FA1
:100FA00081E087DF6C2F81E084DFCF910895682F87
:100FB00080E07FCF08958EEAFADF85EAF8CF0895C2
:100FC000CF93DF93C0E080E1F2DF80E0F0DF8C2F91
:100FD000806BEDDFD4E860E081E06BDFD150D9F7C2
:100FE000CF5FC83081F7AEDFDF91CF9108955C9875
:100FF0005A9859985D98549A529A519A559A03D48E
:101000005D9A559A5B98539A84E104D45C9A84E182
:1010100001D48EEACCDF82EECADF82EAC8DF80EA42
:10102000C6DF80ECC4DF8FE2C2DF84E2C0DF81E88C
:10103000BEDF80E293E00E94E2398F73B8DF80E484
:10104000B6DF84EAB4DF86EAB2DFBADF8FEAAFDF69
:1010500060E080E06ACF08950895582F28E030E0DE
:1010600090E841E080E0652F642309F0892B440F6C
:10107000969521503109B9F70895B0E0A0E0E3E476
:10108000F8E00C9459396C0110E0C801860F911DED
:1010900081389105ECF5E42FEE0DFF27FF1FCF01FE
:1010A000E134F105ACF5D42FD695D695D6950197B8
:1010B00033E0959587953A95E1F7F22FF2704F2E30
:1010C00021FF0DC0482F4D1B550BFA01E09FA001D9
:1010D000E19F500DF09F500D1124C40ED51EC82F56
:1010E000883008F0C7E0862F82958F70582E68945C
:1010F00054F86F70762E2170622E780151E0E51A57
:10110000F108CD1750F4809104018F70806B4FDF90
:10111000CDB7DEB7E0E10C9475398D2F806B47DFDA
:10112000852D45DF872D43DF912C812C5601AE0C98
:10113000BF1C0815190531F44420B1F0C01AD10ABA
:10114000DF5FDFCFF501E819F909611003C0F6018F
:10115000E80DF91D8491411080DF682F81E0A9DE40
:101160008FEF881A980AE5CFC00ED11EE9CFEF9213
:101170000F93482F8F7320E6829FC0011124845162
:101180009C4F28E046FF28E42093100110920001B4
:1011900047FD08C02091100130E2309300012D5E20
:1011A0002093100120E2E22E08E120E040910001AE
:1011B0006091100162DF0F91EF900895EF920F930D
:1011C000262FFC0134913196449131960491319649
:1011D000E490E09100014E0F60911001630F0496BE
:1011E0004CDF0F91EF90089560E0E8CF0895EF9203
:1011F0000F93909146019F5F9093460140910401A7
:10120000440F440F440F20E1829FC001112420E1CC
:10121000E22E08E020E060910F018457994F2DDF06
:1012200080910F01885F80930F01A8950F91EF9037
:1012300008958F5CDCCF089580E2D9CF0895CF93D5
:10124000C82F1C1614F0CF910895F6DFC150F9CFC6
:101250009091460180E1891BF2CF0895CF93C82F6A
:10126000F7DF8091AD018F5F8093AD01843068F02E
:1012700083E08093AD0181E0809349018091AD01CD
:101280006C2F880F52DECF91089510924901F6CF4E
:10129000E5DF1BC4089556DEDBDF54CE089558DE2B
:1012A000D7DF56CE08958DE3A2CF0895CF93DF9375
:1012B000EC018991811103C0DF91CF91089597DFEF
:1012C000F8CFCF93DF93EC01FE018491982F9F77A5
:1012D00019F08DDF2196F8CFDF91CF910895CF934C
:1012E000DF93EC01CE010E94E239982F9F7719F02D
:1012F0007EDF2196F7CFDF91CF910895EF920F9384
:10130000FC0104913196E4900296B7DE0F91EF90C4
:1013100008950F9380E991E0E2DF409191014D3F04
:101320006CF460917F0170918001809181019091B6
:10133000820103E026E417D10F9108958FE357DF70
:10134000FBCF909124019F70923071F4A1DF84E76C
:1013500090E0C5DFE0914701F091480122E044E0D0
:101360006FEF84819581E1C1089597FF09C08F9344
:101370009F938DE23CDF9F918F91909581959F4F38
:101380006CE271E04AE050E00E94AF398FCF0895DF
:10139000ECDF01C0EADF50CF0895EF92FF920F9388
:1013A0001F93182F062FF42E82E791E098DFEE248A
:1013B000E0914701F09148018685E81611F4812FEC
:1013C00009C08485E81611F4802F04C08585E816CD
:1013D00011F48F2D0CDFE3948E2D833049F71F918C
:1013E0000F91FF90EF900895EF92FF920F931F934C
:1013F000182F062FF42E80E04BDF88E791E06FDF97
:10140000EE248E2D16DF4FDFE0914701F091480169
:101410008685E81611F4812F09C08485E81611F439
:10142000802F04C08585E81611F48F2DE0DE04DFDF
:10143000E3948E2D833029F71F910F91FF90EF9049
:101440000895682F80E092E0662309F491E062300D
:1014500009F481E008950F93082FEEEAF1E0880F78
:10146000880FE80FF11D608171818281938164365C
:1014700071058105910570F42091020127FD0AC0D4
:10148000802FDFDF692F0E9430256EEF23E044E0DC
:101490004CD104C04FEF04E024E065D0CDDE0F91C5
:1014A0000895863058F4E1EAF1E0E80FF11DE80F05
:1014B000F11D8081918163E043D1BECE08951F93D9
:1014C000182F80917A01882319F0B6DE80E08FDE34
:1014D0003FDD89E691E003DF812F82958F70E1DFA8
:1014E000812F8F70DEDF1F91089580911101829509
:1014F0008F7019D08091110183701CD080911101DF
:10150000DECF0895E5E9F1E0E80FF11D0895CF93EE
:10151000F9DF9081C681C91710F405D001C013D03E
:101520008BDECF910895EEDF8F93808182DE8F91E5
:1015300001C008958F9387E391E0D1DE8F91E2DFC0
:10154000868177CE0895DEDF8F93868172DE8F915C
:1015500001C008958F9383E391E0C1DE8F91D2DFC4
:10156000808167CE0895AEE0B0E0E9EBFAE00C943C
:101570005739142F622E702E6B017C010F7080E39F
:1015800089838A838B838C838D838E83F7FE40C00F
:101590008DE22DDEF094E094D094C094C11CD11C57
:1015A000E11CF11C68EE862E63E0962EA12CB12C76
:1015B000033041F150E1852E57E2952EA12CB12C3C
:1015C000043001F140EA842E46E8942EAA24A39424
:1015D000B12C0530B9F030E4832E32E4932E3FE095
:1015E000A32EB12C063071F074E6872E912CA12C1D
:1015F000B12C073039F420E8822E26E9922E28E912
:10160000A22EB12C9AE0292E312C412C512C12C043
:1016100075FEC8CF8BE2EBDDC5CFC701B6016B5FAE
:101620007F4F8F4F9F4FA20191010E94F4386901B3
:101630007A011F5FC814D904EA04FB0470F781E142
:10164000810F9BEA899F812D1124A82EA69486E004
:10165000811B899F112D11241695912F990F190F18
:10166000811B182F4E0187E0880E911C2AE0A401EF
:10167000C701B6010E948E39F40101900020E9F7FC
:1016800031977F01E818F9089E2C6701DD24812F2E
:1016900090E004968C159D0514F4A3941D5F8A2D8B
:1016A00090E0845D9F4F0E94E239A82E74FE29C00D
:1016B000901638F50E198E2C811A800E181424F00D
:1016C0008EE295DD012F0E19111102C088EF882ED0
:1016D000912C10E0C00ED11EE82C082C000CFF0845
:1016E000E92DF0E0EC15FD0574F0AA2011F08A2D2B
:1016F0007EDD662011F0862D7ADD2E96E2E10C94D7
:10170000733900E0D8CF3696E01BF10B81E090E012
:101710008C0F9D1FE80FF91F808169DD93949E1443
:101720001F04F1F68EE263DDDBCF0F93362FBC0191
:1017300090E080E0022F242F432F15DF0F910895B2
:101740000F93062FBC0190E080E026E54DEF0BDF04
:101750000F9108950F93042F28E440E004DF8AE7F7
:1017600046DD6ADD0F910895E82FF0E0EE0FFF1FD0
:10177000E057FE4F8591949120910001420F2091F6
:101780001001620F20E0BACD0895CF93DF93C82FE8
:10179000D62FE0914701F091480148E16EE186853E
:1017A000E3DFE0914701F09148014D2F6C2F8485D4
:1017B000DBDFE0914701F091480140E06EE1858573
:1017C000D3DFDF91CF910895089503D002D001D0E7
:1017D00000D000D003D002D001D000D000D003D080
:1017E00002D001D000D000D0A89503D002D001D003
:1017F00000D000D003D002D001D000D000D003D060
:1018000002D001D000D000D003D002D001D000D04F
:101810000000089590E0893C28F0885C48EC849FA3
:10182000C0011124009709F40895209181002770C8
:1018300019F0DADF0197F6CF8130910519F00297A0
:101840003EE303C037E180E090E02091B200230F37
:101850002093B30042E04093700027E023BF8895B7
:1018600026E023BF10927000A895DCCF8F9384E010
:10187000D1DF07C08F9382E0CDDF03C08F9381E07B
:10188000C9DF8F911F93182F106410937C00E12FF4
:10189000E07880913701E81759F0E0933701AEDF27
:1018A0008EE980937A0083E083BF889582E083BFCE
:1018B00020E030E0A901E0E01FC08EE980937A00CB
:1018C00083E083BF889582E083BF60917800709148
:1018D0007900260F371F411D511DE43061F48091BE
:1018E0003901803041F084E02030380720F417FDC2
:1018F00002C01068CACFEF5F80913601E817E8F2A6
:1019000060913A0170913B0117FF04C0609138016A
:101910007091390180E090E00E94B2382FEF33E0FF
:1019200040E050E00E94F438B901CA01209136012C
:1019300030E040E050E00E94F438C9011F91089562
:101940009B01281B390B50F0C9010895BC018091FF
:101950003A0190913B016817790718F4861B970BA1
:10196000089580E090E0089589B183FB882780F98D
:101970004999826090911C01943050F09EE09093C0
:1019800018018093190110921D0191E090931C01A0
:10199000E0911C01AE2FB0E0A85EBE4F2C9128173D
:1019A000C1F081110EC090911D01A3E0AE0FA37094
:1019B0002230B1F4B0E0A85EBE4F2C919F5F23307F
:1019C000C1F0EF5FE370E0931C01F0E0E85EFE4FD2
:1019D000808380911D0187FD0FC080931E010895B3
:1019E000213079F7B0E0A85EBE4F2C91233049F743
:1019F000915090931D01E5CF8195EFCFB0E0A0E02D
:101A0000E4E0FDE00C946039E82ED92E539851980B
:101A1000F0DE10921D01E0911C01F0E03196E370C0
:101A2000FF27E85EFE4F80EF8083C5E6D9E19CDFAB
:101A30004F9B24C0CE2DDD2DF12C15E500E0BB24FD
:101A4000B394D7FD15C082E3C82E8EDFD6DECA94CC
:101A5000C110FBCF110F4F9B1F5F1F731F33A1F4EA
:101A6000011103C0CE2DDD2D04E00F5F083C80F096
:101A7000802FCDB7DEB7E9E00C947C39BEDED150C3
:101A8000B1F6C15099F6D6CF111102C00111F0CFB5
:101A9000A8951C161D0624F42A9711F4CFEFDFEF4A
:101AA00080911E01882339F0F39480917B0181118C
:101AB00002C0B0927B0184E18F1508F0C2CF809103
:101AC0001D018111D5CFF12CBCCFCF9356DAC82F91
:101AD00080914901882301F1813051F4C33041F4F0
:101AE0006FE086E022DA8BE282DB6FE086E01DDACF
:101AF00080E49FE183DF811104C080911E01811188
:101B0000F7CFC33041F480914901813021F460E086
:101B100086E00BDA9DDB3ADACF91089589E493E011
:101B20000E94E239382F8AE493E00E94E239209142
:101B30003E01230F30913F01381F20932101309344
:101B4000220183E0283E380720F0C901885E9340D7
:101B500002C080E090E062E370E00E94CD3868301F
:101B600008F067E0E4E7F3E0E60FF11DE60FF11D92
:101B7000459155912591359162E3681B421B530BAA
:101B8000649FC001659F900D1124499662E370E047
:101B90000E94CD38620F731F70937E0160937D01A8
:101BA0008BE493E00E94E239992787FD909560913C
:101BB0003E0170913F01860F971F909339018093EA
:101BC000380190937901809378010895CF93DF9342
:101BD00024E130E0B9010E94CD38DC01E6E8F3E011
:101BE000E60FF71FE60FF71FC591D5914591559167
:101BF0004C1B5D0B4A9FC0014B9F900D5A9F900D4F
:101C00001124B9010E94CD386C0F7D1FCB01DF91EB
:101C1000CF9108951895189540912301A0914701FF
:101C2000B0914801E5E9F1E030E020E0822F24178F
:101C3000B0F451911C969C911C97591719F055813D
:101C4000951303C02F5F3F4FF1CF220F331FF901D0
:101C5000EF55FE4F20813181293E334008F084E169
:101C60000895109225011092230110927301109291
:101C70005901109224011092450110927A01EEE56B
:101C8000F1E0108211821282EFE7F1E0108A82E027
:101C9000818B109202011786168614821582168295
:101CA000178281EF838B089586D95E9891DD90E04D
:101CB00080E0A4CE08951F93CF93DF93162F17B81B
:101CC00018B8E82FF0E0E35AFD4F949195B9262F0C
:101CD000281BE20FF11D27FDFA95E491E92BE4B9E9
:101CE000D1DDEC01812FCEDDAC0120913A013091A4
:101CF0003B0136952795C9010397BE01625E7F4F70
:101D00008617970778F4255E3F4FC217D30750F424
:101D1000BA01625E7F4F8617970720F481E0421771
:101D2000530708F080E014B8DF91CF911F91089518
:101D3000CF9361E080E0BFDFC82F62E080E0BBDFCF
:101D4000C80F62E081E0B7DF8C0FCF910895AFE05C
:101D5000B0E0EDEAFEE00C945739B82E1092250160
:101D6000807FB9F4E5DF833081F42AD988E592E0F9
:101D7000B6DAEED88FE33BDA80ED97E03FDE8B30CA
:101D8000B0F41ED985E091E0AADA2F96E2E10C9436
:101D9000733906E910E014D987EC91E0A0DAC8DFC6
:101DA000833009F068C01F5F143008F465C0D0D8D4
:101DB0000E941E2081EC90E092DA60E083E293E0E2
:101DC0000E94EF3960E084E293E00E94EF3960E026
:101DD00082E293E00E94EF3960E082E00E943025C9
:101DE0006C019A83898361E082E00E9430257C0146
:101DF0009C838B8360E081E00E9430258C019E8370
:101E00008D8323E040E26EEFC6018FDC23E040E2E9
:101E10006EEFC7018ADC23E044E06EEFC80185DC89
:101E20002AE5C216D10424F084E190E09A838983E4
:101E3000698183E293E00E94EF398AE5E816F104B4
:101E400024F084E190E09C838B836B8184E293E0B7
:101E50000E94EF390A35110524F084E190E09E8359
:101E60008D836D8182E293E00E94EF3982E080935E
:101E700049012BDE06C010E088E2CCDC015009F0FD
:101E80008ACFEB2DEF70EF87E13009F04CC0EE24E4
:101E9000E394F12C78EB872E72ED972E77E4A72E42
:101EA000B12C02E0E8E0DE2EF0E23F2EC12C1E2D28
:101EB00050E3252EF4D9EFD984E599D9C70160DA2A
:101EC000BBD9113009F0C7C184EF90E008DA64E0B3
:101ED00080913E0190913F0133DC3AD88FEE90E043
:101EE000FED980917D0190917E014ADA8EEB80933C
:101EF000360117B818B814B815B888EE93E07EDD2F
:101F0000143011F08B3020F4C39484E0C812D2CF87
:101F100088EE93E073DDEFEFEE1AFE0AF8E0EF16BD
:101F2000F10409F0C3CF18E703DF882341F0B7D9E4
:101F300088E492E0D4D984E66DDC1150A9F740D84A
:101F40008AEB90E0CCD923E044E06FEF80913C0134
:101F500090913D01EADB0E94A80783EB90E0BFD996
:101F600023E044E06FEF8091430190914401DDDB79
:101F700082E080934901A9DD1092250121D88FEAE2
:101F800090E0ADD960E082E00E94C71C809087019C
:101F900090908801A0908901B0908A019C868B86E0
:101FA00061E082E00E94C71CC0908701D090880148
:101FB000E0908901F0908A01DE86CD8660E081E0C4
:101FC0000E94C71C00918701109188011E830D8318
:101FD00062E080E00E94C71C809187019091880197
:101FE0009C838B8362E081E00E94C71C8091870103
:101FF000909188019A87898761E080E00E94C71CE0
:1020000080918701909188019A8389832F8521305F
:1020100029F020914201223009F002C202969887ED
:102020008F83C401B7D9C601B5D9B801110F880B88
:10203000990B03E026E444EF96DA8E010F5F1F4F01
:102040009E01215F3F4F7801F701819191917F01BE
:102050000A97853B9105D0F42E173F07A9F742E474
:10206000C42E43E0D42EF80160810E5F1F4F6E5ED8
:10207000C6010E94EF39FFEFCF1ADF0A0E151F05C8
:1020800091F70E94A80785EB91E029D982E080931F
:1020900049011BDD0E94A92F2F85213029F0809155
:1020A0004201823009F0C0C00E94E00780E0C1D840
:1020B0008BE591E014D982E0BCD884E290E00FD99E
:1020C00020E4F22E10E03AE0832E912CA12CB12CCA
:1020D000C8DD1092250160E082E00E94C71C0091DB
:1020E000910120917F0130918001409181015091B7
:1020F0008201073F0CF499C10093910120937F0165
:10210000309380014093810150938201073F09F091
:1021100094C12056310941095109203935454105FD
:10212000510508F08AC16091930170919401CB012F
:102130008B569F4F8B32914008F07FC11F5F153047
:1021400008F47CC189E493E00E94FD390E94E00715
:102150008DE190E0C4D8809193019091940105D9CC
:10216000DDDC18B881E087B980E284B982E08ADBDF
:10217000853D9340DCF714B8109239011092380174
:1021800082E080DB7C0180917801909179019093CD
:1021900039018093380182E075DB6C01CC0CDD1CC9
:1021A000109239011092380182E06CDB4C01A09052
:1021B0007801B0907901B0923901A09238010E9463
:1021C000A80786E190E08BD88BE493E00E94E23987
:1021D000182FD701A80DB91DAC19BD0995010E9492
:1021E000413996010D2C000C440B550B0E941639F9
:1021F0001D5F120F612F8BE493E00E94EF39812F56
:10220000012E000C990BB1D889DC82E08093490142
:102210005CDC1092420182E493E00E94E239682F74
:1022200085E493E00E94EF3989E18093360180E0F4
:102230000E94B4320E94E00785E091E050D80E94ED
:10224000A8078FE392E04BD81092250182E080939B
:1022500049013BDC9ACD123081F520913A01309151
:102260003B01A8E5BBE10E94323924EC36E340E0B3
:1022700050E00E94163929013A0181E085B9F5E064
:10228000F4B980E0F3DA841995099A83898381E1AE
:1022900084B980E0EBDA841995099C838B8384E010
:1022A00085B984E184B981E0E1DA841995099E83D6
:1022B0008D8389ED90E013D834C0133049F505B90A
:1022C0002AE024B980E0D2DA20913A0130913B0132
:1022D0003695279538872F83821B930B9A838983A2
:1022E00082E284B980E0C2DA2F813885821B930BA9
:1022F0009C838B83D5B8E8E2E4B981E0B7DA2F811B
:102300003885821B930B9E838D838BEC90E0D3CF1B
:102310001430B9F488E492E00E946F0909DD81115C
:10232000A4C00E94A80789819A811FD80E941C0915
:102330008B819C811AD80E941C098D819E8115D8A1
:10234000D8CD153099F415B804B980E08FDA9A83A6
:102350008983D4B881E08ADA9C838B8334B882E0A5
:1023600085DA9E838D838BEE90E0A5CF163039F50C
:1023700004B905B980E07ADA20913A0130913B0145
:10238000821B930B9A838983D4B8D5B881E06EDA27
:1023900020913A0130913B01821B930B9C838B83EC
:1023A00034B835B882E062DA20913A0130913B01CD
:1023B000821B930B9E838D8387EE90E07CCF17303A
:1023C00059F520913A0130913B01A8E5BBE10E940B
:1023D0003239A50194010E94F43829013A0105B966
:1023E000F3E0F4B980E042DA841995099A8389838D
:1023F000D5B82CE024B981E039DA841995099C8399
:102400008B8335B824B882E031DA841995099E832C
:102410008D8385EC90E04FCF113009F082CF69CDEC
:1024200098878F8310924201FCCD0F5FCA01B901DA
:10243000A50194010E94F4385CCE10E00E94A80728
:1024400060917F0170918001809181019091820162
:1024500004E026E44091910186D80E94280988E290
:10246000D9D9FA94F11034CEDFCE82E0C82E59CFFC
:102470008091420181110DC082E493E00E94E23913
:1024800061E0680F85E493E00E94EF3981E080937A
:1024900042010895EF92FF920F931F93CF93DF9322
:1024A000D62FE82FF0E0E05AFD4FE491E8B9E7B904
:1024B00015B8E62FF0E0E35AFD4FE491E4B9CE2FD2
:1024C000CC0F88E8E82E83E1F82E8D2FCFD98C0130
:1024D000C4B98E159F0510F1892BD9F00E94B6075B
:1024E0008BE391E00E946F09D80120EA36E841E0D1
:1024F00050E00E94473928E937EB40E050E00E9465
:10250000F438C90122E041E467EF0FD917B818B8D1
:1025100014B8CDB7DEB7E6E00C947F397801D5CF9B
:102520000F931F93CF93DF9385E0ACD985E0A6D9B5
:102530008C01EC01CC0FDD1FCC0FDD1FCA56DF4F25
:1025400010924001C43883E0D80770F489EA91E022
:102550000E946F090E94280981E080934001DF9169
:10256000CF911F910F91089588EB91E00E946F0920
:1025700062E0CE01E5D80E941C090A3F86E01807F8
:10258000A0F40333164050F481EB92E00E946F09EF
:102590000E9428098DEC3ED987DBE1CF88EB92E0E1
:1025A0000E946F090E942809DACF85EB91E0F8CFED
:1025B000FC019C01261B370BCA01432F311101C0BE
:1025C00041E0240F311D492F5527BA01660F771FAF
:1025D000860F971F4B3E20F4E217F30770F708951C
:1025E00090E080E00895A7E1B0E0E9EFF2E10C941B
:1025F00057398E8B162F042FA895E62FF0E0E35A5B
:10260000FD4F24912D87220F2D8B339634913A83E1
:10261000E42FF0E0E35AFD4F44914B833396F4905E
:10262000E82FF0E0E35AFD4F54915983550F5E8730
:10263000339684918F8B45B96D84642A64B887B9C9
:1026400088B9862F1BD96C019D8594B9812F16D925
:10265000782EE92E14B8C7D815B864B8812F0ED9D2
:10266000B6016ED94C01EA81E7B918B8FB8129811E
:10267000F22BFC83F5B9F4B98E8900D967D95C01D6
:1026800015B8B1D8398135B98E89F8D85FD99C870A
:102690008B87498144B98E89F1D858D91C016B8543
:1026A0007C85C5014DD9803251E0950730F4E0E2D8
:1026B0008E16E1E09E0608F45DC62B853C85820EF1
:1026C000931E8C0D9D1D8816990620F0DC86CB8606
:1026D000272C3E2C2091590180917301820F99275C
:1026E000991F02974CF0213009F07FC59091560157
:1026F00080917001981379C5EB80EE0C7D847E2863
:1027000039813E293A874B855C854437510508F469
:102710008BC1CA010A96880F991F2816390608F03E
:1027200083C15F8957B958B974B8812FA3D86C0198
:10273000802FA8D85C01E5B8812F9CD89601295A32
:102740003D4F18B82817390708F0ACC08A8187B9FF
:102750009A8594B995B9802F8DD888349F4008F414
:102760009CC085E08093250182E280932401D09271
:102770004F01C0924E01B501C601EDD890935501AD
:10278000809354019601A0E1B7E20E943239209172
:102790001F013091200150E040E00E94F438309356
:1027A0005101209350018D898E2984B915B8FF8974
:1027B000F7B9F8B9812F5ED89093530180935201F5
:1027C000802F60D82091520130915301A901481BFC
:1027D000590BCA0150935301409352012091240197
:1027E0002F70243061F5409150015091510160915A
:1027F000540170915501DCDE0097E9F0E4B85F897F
:102800008A81582B57B9812F35D86C0117B89C0194
:10281000A0E1B7E20E943239209143013091440196
:1028200050E040E00E94F438A901B60180915201C5
:1028300090915301BDDE90934F0180934E018091A2
:1028400024018F70843019F118B89A81F92AF7B8E9
:10285000E981E4B9FC81F5B98E8910D86C0176D88C
:102860007C01812F0FD8A0902601B0902701BC01D8
:10287000C60171D89501DC010E943239970150E000
:1028800040E00E94F43830934F0120934E01809134
:1028900059018F5F8093590136C385E080932501EC
:1028A00084E263CF2A8127B93A8534B935B98E8954
:1028B0000E943A0C6C01802F0E94420C5C014981FD
:1028C00045B98E890E943A0C895A9D4F8C159D05F9
:1028D00008F08BC45F8958B957B9802F0E943A0C11
:1028E000813D934008F09BC085E08093250182E301
:1028F00080932401B601C5012ED890936F01809377
:102900006E01C60123D89C01A0E1B7E20E943239D2
:10291000209126013091270150E040E00E94F438D8
:1029200030936B0120936A0118B8FA81F7B98E854C
:102930008E2984B985B98E890E94420C6C01802F42
:102940000E943A0CB60107D89C0190936D018093C8
:102950006C01909124019F70943091F540916A012F
:1029600050916B0160916E0170916F01C90120DE81
:10297000009711F1E5B8E4B82F8928B9EA81E22B74
:10298000E7B98E890E943A0C0E94A60C6C0117B818
:102990009C01A0E1B7E20E94323920913C013091C4
:1029A0003D0150E040E00E94F438A901B601809159
:1029B0006C0190916D01FCDD909369018093680139
:1029C000809124018F70843021F13F893F2938B9EB
:1029D00037B915B84C8144B98E890E943E0C5C0110
:1029E000812F0E94420C7C01C0901F01D0902001D9
:1029F000BC01C5010E94AB0C9601DC010E9432397A
:102A0000970150E040E00E94F43830936901209330
:102A10006801809173018F5F8093730111C185E01C
:102A20008093250184E364CF18B85A8157B989810E
:102A300085B99A8594B98E890E943E0C988B8F87B0
:102A40000E94A60C9F838E83802F0E94420C998740
:102A500088872101E4E64E0E511C2E813F81B10191
:102A60004216530608F0EEC0C9010E94AB0C6C017F
:102A7000209126013091270150E040E060E871EAA2
:102A800083E09CE10E94F438D6010E944739E88532
:102A9000F9859F0150E040E00E94F43849015A0155
:102AA00014B815B8FF89F8B9F7B981E00E940A0C8B
:102AB00064B8812F0E943E0C8F359D4008F468C198
:102AC00074B8812F0E943A0C6C01802F0E94420C36
:102AD0009A8B898B8E890E94420C9C8B8B8B4989A7
:102AE0005A89413D574008F4E0C084E080932501B5
:102AF0008DE08093240176012C143D0410F4E2183B
:102B0000F30840901F0150902001712C612C60E867
:102B100071EA83E09CE1A30192010E94F438D7019D
:102B20000E944739E989FA899F0150E040E00E94FC
:102B3000F43880917301882371F080916401909141
:102B40006501A0916601B091670182179307A40700
:102B5000B50708F096C02093640130936501409357
:102B60006601509367019601A0E1B7E20E943239F5
:102B7000A30192010E94F43830936B0120936A0103
:102B800069897A898B899C890E94AB0C9093690131
:102B90008093680181E040916401509165016091EA
:102BA000660170916701481559056A057B0508F0B3
:102BB0006AC08092640190926501A0926601B09211
:102BC0006701688579858F8598890E94AB0C909301
:102BD0006901809368012E813F81A0E1B7E20E94E4
:102BE0003239209126013091270150E040E00E94C7
:102BF000F438205F384D30936B0120936A01C09008
:102C00001F01D0902001F12CE12C9101A0E1B7E24D
:102C10000E943239A70196010E94F43830936D0169
:102C200020936C012B853C85A0E1B7E20E943239EC
:102C3000A70196010E94F43830936F0120936E0132
:102C400081E023C08E819F810E94AB0C6C01FC81CE
:102C5000F4B98E890E943E0C988B8F870E94A60C37
:102C60009F838E83802F0E94420C99878887BC01A6
:102C7000C6010E94AB0C9C01A4E6B0E00E94323970
:102C800006CF80E088CF8111BACF909173019F5F0A
:102C900090937301882309F462C300937001109329
:102CA00071014E89409372015AC3F1E62F16310427
:102CB00008F06EC021EDC21627E0D20608F468C005
:102CC00085E08093250182E180932401C60186502E
:102CD0009F4F4B895C898417950708F042C083E1B8
:102CE000809324015A815770B52E802F8064809381
:102CF0007C008BE08983CC24C394D12CEE24EA940D
:102D0000A3E0FA2EA89561E08B8152D574B886B104
:102D10008B21E9F39D8594B980917A00806480933A
:102D20007A0080917A0086FDFCCF809178009091A6
:102D30007900F701E81BF90BCE0EDF1EF981F15087
:102D4000F983F111DFCFC601880F991F880F991FF2
:102D500069E070E00E94CD3870936F0160936E015E
:102D600058CEE0901F01F0902001B6018B899C891C
:102D70000E94AB0C9701DC010E943239960150E0B1
:102D800040E00E94F4383093690120936801AACF93
:102D900074B8E5B8812F0E943E0C5C01802F0E9420
:102DA000420C9F838E830E94A60C7C014A145B0414
:102DB00008F0ABC0B101C5010E94AB0C6C012091C1
:102DC0001F013091200150E040E060E871EA83E0AB
:102DD0009CE10E94F438D6010E944739970150E0E7
:102DE00040E00E94F43829013A013A8137B918B815
:102DF0004C8144B945B98E890E943E0C6C01802FEC
:102E00000E94420C4C01812F0E94420C7C0150E335
:102E1000C51651E1D50608F0E6C1898185B98E89CC
:102E20000E943E0C99878887998194B98E890E9467
:102E30003E0C988B8F8715B881E00E940A0CE981BF
:102E4000E5B98E890E943E0C2F85388920343640A2
:102E500008F079C08133914108F475C0C6018A56E3
:102E60009F4FE885F985E817F90708F06CC086E000
:102E700080932501809159018F5F80935901B7019B
:102E8000C4010E94AB0C90934F0180934E01B70197
:102E9000C6010E94AB0C909355018093540114B865
:102EA00015B8FA81F8B981E00E940A0C298124B989
:102EB0008E890E943E0C853F910528F53C8134B9EE
:102EC000802F0E943E0C813D9340E8F08E890E9445
:102ED000420C8D3D9240B8F0898184B98E890E9460
:102EE0003E0C8D3D924078F0F981F5B981E00E9469
:102EF0000A0C15B88E890E943E0C853F910518F486
:102F000087E08093250181E0F3C064B82B8125B967
:102F1000812F0E943E0C5C01802F0E94420C9F83F7
:102F20008E830E94A60C7C01C5012A143B0410F478
:102F300082199309B7010E94AB0C9C01A4E6B0E092
:102F40000E9432394BCF2A8127B93B8134B935B938
:102F500081E00E940A0C4A8544B945B98E890E94D5
:102F60003E0C6C010E94A60C7C01802F0E94420C3A
:102F70009D838C830E94A60C99878887812F0E944D
:102F8000420C4C01888599858E3F994008F4C0C059
:102F900084E0809325018CE080932401B101C70176
:102FA0000E94AB0C6C01209126013091270150E06A
:102FB00040E060E871EA83E09CE10E94F438D601C9
:102FC0000E944739E885F9859F0150E040E00E9462
:102FD000F43880915901882371F080914A019091D1
:102FE0004B01A0914C01B0914D0182179307A407AA
:102FF000B50708F079C020934A0130934B01409304
:103000004C0150934D01B4018C819D810E94AB0C09
:1030100090934F0180934E019701A0E1B7E20E9487
:103020003239209126013091270150E040E00E9482
:10303000F438309351012093500181E040914A01CE
:1030400050914B0160914C0170914D014415550513
:103050006605770508F04AC040924A0150924B013C
:1030600060924C0170924D01B5018E819F810E944A
:10307000AB0C90934F0180934E019501A0E1B7E214
:103080000E94323920911F013091200150E040E030
:103090000E94F438205F384D309351012093500145
:1030A0009101A0E1B7E20E94323920911F013091D5
:1030B000200150E040E00E94F43830935301209307
:1030C00052012B853C85A0E1B7E20E943239209164
:1030D00026013091270150E040E00E94F4383093FF
:1030E0005501209354010FCF80E0A8CF8111D8CF94
:1030F000909159019F5F90935901882309F42FC142
:10310000009356015E89509357011093580127C1CF
:10311000F1E62F16310408F066C029E4E2162DE02E
:10312000F20608F460C085E08093250182E0809378
:103130002401C40186509F4F8C159D0508F03DC0A9
:1031400083E0809324013F893770D32E802F8064E1
:1031500080937C004BE04A83EE24E394F12CA89505
:1031600060E08B8125D35A8554B955B986B18D213C
:10317000E9F7898184B980917A00806480937A002C
:1031800080917A0086FDFCCF809178009091790043
:10319000E80EF91E9A8191509A839111E0CFC701F0
:1031A000880F991F880F991F69E070E00E94CD3841
:1031B00070935501609354016ACBA0902601B090A2
:1031C0002701B401C6010E94AB0C9501DC010E94ED
:1031D0003239970150E040E00E94F43830934F01BB
:1031E00020934E01B0CF17B818B814B815B817B857
:1031F000E7EC2E16E1E03E0608F4D7C018B8FE85CD
:10320000F4B908ECEA802F89E22AE7B881E00E944D
:103210000A0C3A8137B98E890E94420C429710F00D
:10322000015099F74E8544B945B961E08B81C0D210
:103230008E890E943E0C4C015D8954B915B88F8966
:1032400087B988B960E08B81B3D2812F0E943E0C90
:103250000E94A60C6C019D8594B9812F0E94420C9E
:103260007C018E890E943E0CB7010E94AB0C5C0170
:10327000812F0E94420C7C018E890E943E0CB70176
:103280000E94AB0C950128533F4F2817390708F4CB
:1032900066C018B8EA81E7B9F981F4B9F5B961E017
:1032A0008B8186D2812F0E94420C7C018E890E94E4
:1032B0003E0CB7010E94AB0C7C01A816B90608F0C1
:1032C0005CC02E8524B925B98E890E943E0C9C01D4
:1032D000640158EEE51653E0F50608F05FC0C7013B
:1032E00064E670E00E94CD38C7018759910989389A
:1032F000914108F05AC02E153F0508F056C0C6018E
:1033000043E0969587954A95E1F7893C910510F041
:1033100088EC90E08C0D9D1D8E159F0508F045C032
:103320006C157D0508F041C080912501833018F4AB
:1033300083E08093250120912301822F90E0FC01FE
:10334000EB56FE4F3E8930831683880F991FFC0190
:10335000EF55FE4FF182E0822F5F2093230117B8D3
:1033600018B814B815B88EE20E94F7086796E2E123
:103370000C947339272C3E2C38CF3D8934B915B8BD
:103380004F8947B948B960E08B8112D2812F0E94E2
:103390003E0C0E94A60C9C0175019BCFB70154E026
:1033A000769567955A95E1F79FCF612F8E8901D069
:1033B000D6CFB0E0A0E0EFEDF9E10C945939C82F79
:1033C000D62FA895862F90E0FC01E35AFD4F54902C
:1033D000339624914C2F50E0FA01E35AFD4F14919B
:1033E000339604916091730130915901630F7727EF
:1033F000771F672B09F058C0A8956091290170913B
:103400002A01660F771F660F771F70933B01609349
:103410003A016091780170917901660F771F660F0C
:10342000771F70933901609338013EEB309336017A
:1034300060912301E5E9F1E030E0840F951F63130B
:1034400038C018B827B914B915B9B8E1BB2ED12CBA
:10345000C12C8D2F0E943E0C782E692E8C2F0E943D
:10346000420C7C018C199D0997FF03C091958195B1
:10347000910903970CF45AC1A895BA946701B11049
:10348000E8CF8091290190912A0190933B0180938C
:103490003A0180917801909179019093390180935C
:1034A000380189E180933601CDB7DEB7E0E10C94B5
:1034B000753951914581450F5527551F48175907B3
:1034C00001F33F5FBCCF25E8C21621E0D206C8F663
:1034D000043AE2E01E0708F0B5C0F8E9AF16B104FF
:1034E00080F2C6010E94A60CAC019601A8E9B7EBD8
:1034F0000E9432399A0150E040E00E94F4382901DC
:103500003A01C5010E94A60C9C01A8E9B7EB0E94F4
:103510003239950150E040E00E94F43888E7C8163F
:103520008FE0D80608F072C0F2E0440C551C661C0F
:10353000771CFA95D1F7C301B201620F731F841F84
:10354000951F25E030E040E050E00E94F438A4E60A
:10355000B0E00E9447396B017C01FCEACF0EFDE030
:10356000DF1EE11CF11C10912501143008F089CFF9
:10357000C1500C2F0D0F802F90E0EC01C25ADE4F8E
:103580002881880F991F880F991F82559E4FFC0133
:10359000222309F4C4C080809180A280B380A70157
:1035A0009601281939094A095B0957FF07C0509548
:1035B0004095309521953F4F4F4F5F4FAAE0B0E0C7
:1035C0000E944739F4E68F0E911CA11CB11CA50185
:1035D00094012C0D3D1D4E1D5F1D0E94F438232BC0
:1035E000242B252B09F04DCF133019F081E0809367
:1035F000250182E0888380917A01E82FF0E0EF597D
:10360000FE4F00838F5F80937A013BCFE8E7AE16D1
:10361000EFE0BE0670F4E2E0220F331F441F551F97
:10362000EA95D1F7CA01B901640D751D861D971D74
:1036300088CF240D351D461D571D56954795379546
:10364000279585CFC0902601D0902701672D762D34
:10365000E616F70608F4B701C7010E94AB0C960105
:10366000DC010E9432392B013C01C7010E94A60CEB
:103670009C0150E040E0C301B2010E94F4382901EE
:103680003A01A0901F01B0902001892D982D80173C
:10369000910708F4C801B8010E94AB0C9501DC0148
:1036A0000E943239980150E040E00E94F43888E7E7
:1036B000E8168FE0F806B0F462E0440C551C661C76
:1036C000771C6A95D1F7C301B201620F731F841F83
:1036D000951F25E030E040E050E00E94F438690199
:1036E0007A0141CF0837EFE01E0770F4CA01B90133
:1036F00052E0660F771F881F991F5A95D1F7640D06
:10370000751D861D971DE5CF73016201C20ED31E84
:10371000E41EF51EF694E794D794C79424CFC08294
:10372000D182E282F38281E08883ABCE110F15B89B
:1037300014B98C2F0E943E0C8135910508F0A1CE62
:1037400015B98C2F0E943E0C6C0107B908B915B849
:1037500054B8A8E14A2EB12CA12C8C2F0E943E0C0B
:10376000982E892E8D2F0E94420C8C018A199B095C
:1037700097FF03C0919581959109039734F0A8951F
:103780004A9458014110E9CF7CCE550C54B88D2F86
:103790000E943E0C5C01F0ECEF16F4E4FF0608F426
:1037A00092CE80EBC8168DE4D80608F06ACE90CE93
:1037B000CF93C82FC09595B160FF10C0982B95B9D5
:1037C00094B1892B84B982E00E940A0C84B18C23C5
:1037D00084B985B18C2385B9CF9108959C23EFCF0F
:1037E000AF92BF92DF92EF92FF920F931F93CF930E
:1037F000DF931AE08FE3D82E09E017B818B815B890
:10380000D4B880E00E943E0C7C0181E00E94420C12
:10381000EC0182E00E94420C9C01809125018930DC
:10382000C1F417B814B8F0920601E0920501D093E4
:103830000801C093070130930A0120930901DF9129
:10384000CF911F910F91FF90EF90DF90BF90AF90BD
:10385000089584E0E816F10450F4C430D10508F06E
:103860004EC024303105E8F291E092600AC091E048
:1038700088EEE81683E0F80608F090E0C83ED340F2
:10388000A0F3283E334008F4946097B9D0E0C0E03C
:10389000A89580E00E94360C5C0181E00E94420CF9
:1038A0007C0182E00E94420C24E1A21625E0B206CF
:1038B00008F4389A24E1E21625E0F20608F4399A71
:1038C000843125E0920708F43A9A26E0A216B10462
:1038D00030F426E0E216F10410F4069738F0219651
:1038E000C43F81E0D807A1F600932501F12CE12C1B
:1038F000EC16FD0631F4115009F07FCFA0CF91E016
:10390000BDCF0E94F90B2FEFE21AF20AF1CFCF924E
:10391000DF92EF92FF92CF9320917F01309180014F
:103920004091810150918201C09191018AE0C82E9D
:10393000D12CE12CF12C8C2FCF5F213A96E839075E
:1039400091E049075105E0F480939101A0913A017B
:10395000B0913B010E94473928E833E140E050E054
:103960000E94F43820937F013093800140938101BD
:1039700050938201CF91FF90EF90DF90CF90089508
:10398000CA01B901A70196010E94F438D4CF8F92E1
:103990009F92AF92BF92CF92DF92EF92FF921F93CE
:1039A000CF93DF93C82F162F880F8C0F9FEF960FA2
:1039B000890F80935B01EC2FF0E0E35AFD4FD49127
:1039C000862F90E0FC01E35AFD4FF490FC01E05A91
:1039D000FD4FD490809125018130A9F120912301E0
:1039E000A5E9B1E090E080E08217C8F110928C0167
:1039F00010928B0181EF8093910110927F011092C0
:103A000080011092810110928201EADE18B8D7B8C5
:103A1000F4B8F5B88C2F0E94420C5C01812F0E94F3
:103A2000420CA81AB90A14B810925D0110925C01F8
:103A300080915C0190915D01843F914028F117B81D
:103A400018B814B815B8DF91CF911F91FF90EF907F
:103A5000DF90CF90BF90AF909F908F900895169673
:103A60003C91169731130DC03C913C130AC0FC01E8
:103A7000EE0FFF1FEB56FE4F448555854C3D5540DC
:103A800010F301961196B0CFD5B9D4B90E94F30BBB
:103A900014B815B80E94FA0BA8958C2F0E94420CFE
:103AA0007C01EA18FB0880915C0190915D018E37E2
:103AB000910528F08BE4E816F1040CF4C0CF809156
:103AC0005C0190915D012DE2E21621E0F2060CF01E
:103AD00022C2019690935D0180935C01A9CF0E9460
:103AE000F40B8C2F0E94420C8A199B09A8952FEF8A
:103AF000C21AD20A20915C0130915D012C153D055E
:103B000070F75701A81AB90A1A141B040CF0ADC0BB
:103B100039ECA316B1040CF092CF28EE33E0D501B6
:103B20000E94413997010F2C000C440B550B0E9449
:103B3000F438690180915C0190915D010196B0E0DB
:103B4000A0E08093870190938801A0938901B093AE
:103B50008A01C7018A0D9B1D32D2209187013091C5
:103B600088014091890150918A01DC010E94473906
:103B700060938701709388018093890190938A01F3
:103B800060937F0170938001809381019093820103
:103B900087EF80939101BBDE80907F019090800140
:103BA000A0908101B090820185E293E00E94E23909
:103BB000A8EEB3E0A81BB10987FDB395A501940158
:103BC0000E94513924E630E040E050E00E94F43891
:103BD00020937F01309380014093810150938201B3
:103BE00080912301882329F080912501853009F0F7
:103BF00026CF88E0809325018091910190919201D8
:103C00009817C4F089131BCF80907F01909080019A
:103C1000A0908101B0908201409183015091840174
:103C20006091850170918601481559056A057B05EB
:103C300008F005CF40917F01509180016091810192
:103C400070918201409383015093840160938501B8
:103C50007093860180939201D0928E01C0928D0163
:103C600010938F01C0939001EACED12CC12C62CF6A
:103C7000B7DD15B887E087B918B8FD2EFF0CF4B88A
:103C800080E480937B0084E580BF8C2F80648093E8
:103C90007C0086E180937A000E94FD0B10925D010A
:103CA00010925C01109280001092850010928400A6
:103CB00087E286BB81E280936F0081E080937C0184
:103CC000F5B89091250180938100953009F005C1E8
:103CD00081E090E00C2E01C0880F0A94EAF78095ED
:103CE000877087B9F89483B7817F83BF80917C0107
:103CF000882389F083B7816083BF7894889583B7E0
:103D00008E7F83BFF894A89580915C0190915D01AE
:103D10008034964059F7789410928100E0908600A4
:103D2000F090870010926F0086E980937A0014B8B3
:103D300015B88C2F0E94420C20913E0130913F011A
:103D4000821B930B0C969093940180939301809126
:103D50005C0190915D018032934008F070CE8091BB
:103D60005C0190915D0190938A0180938901F092AA
:103D70008801E092870184EF8093910180915C013A
:103D800090915D0182349105C8F060918701709136
:103D900088018091890190918A0124E630E040E019
:103DA00050E00E94F43820938701309388014093BB
:103DB000890150938A0186EF80939101A0917D0142
:103DC000B0917E0120918701309188014091890155
:103DD00050918A010E94473920E233E040E050E0F0
:103DE0000E94F43820938701309388014093890121
:103DF00050938A0120937F01309380014093810189
:103E00005093820184DD80919101843F09F054C078
:103E1000C0907F01D0908001E0908101F0908201FC
:103E200080EAC8168FE0D806E104F104C0F4A701C7
:103E300096012C543F4F4F4F5F4F60EA7FE080E088
:103E400090E00E94F438C20ED31EE41EF51EC0920C
:103E50007F01D0928001E0928101F0928201C090B6
:103E60007F01D0908001E0908101F0908201C11427
:103E7000D10421E0E206F10490F5D092BF01C09296
:103E8000BE0180915B0190E08E5B9C4F0E94E23905
:103E900090E0B0E0A0E08C159D05AE05BF0530F5C3
:103EA000C81AD90AEA0AFB0AC0927F01D09280019F
:103EB000E0928101F0928201D4B980917F019091CA
:103EC0008001A0918101B09182014997A105B105BE
:103ED00008F4B5CDD12CC12C83CED7B803CF81E067
:103EE00090E09093BF018093BE01CBCF34E1C30E2D
:103EF000D11CE11CF11CC816D906EA06FB0610F419
:103F00000E94381210927F0110928001109281015C
:103F100010928201D1CF892B31F485E1E81685E03A
:103F2000F8060CF0A5CEC701D12CC12CE3CD1F9211
:103F30000F920FB60F9211248F939F93B59904C0DF
:103F400080917C01811109C0B59B10C080918600D1
:103F5000909187008A3F910548F480915C0190918F
:103F60005D01019690935D0180935C019F918F911B
:103F70000F900FBE0F901F9018951F920F920FB6C3
:103F80000F9211248F939F9310927C01B09B10C0CD
:103F900080918600909187008A3F910548F4809136
:103FA0005C0190915D01019690935D0180935C01AD
:103FB0009F918F910F900FBE0F901F9018950F92A9
:103FC00021E08C32920710F48CE291E08C52914007
:103FD00069E170E00E94CD3899E16B3210F0982FC2
:103FE0006BE2981BE6ECF2E0E60FF11DE60FF11D27
:103FF0009F93CF010E94E239482F3196CF010E9452
:10400000E239582F3196CF010E94E239282F31969C
:10401000CF010E94E239382F6F91421B530B649FEE
:10402000C001659F900D11240C9669E170E00E941B
:10403000CD38620F731FCB010F900895B0E0A0E060
:10404000E4E2F0E20C945D3988E893E190932A0170
:104050008093290190933B0180933A018EEB8093EA
:10406000360118B880E187B90E94020C17B884E0C5
:104070000E943E0CAC018B5C9840833F9140A0F4C1
:1040800081E08093450120913A0130913B01AFEBF3
:10409000B9E00E9432399A0150E040E00E94F438C1
:1040A00030932A01209329018091290190912A01BE
:1040B00090933B0180933A018EE00E94420C8EE087
:1040C0000E943E0C90933F0180933E010E948E0D12
:1040D00087DB18B8C1E0C7B9C5B9C4B980E00E9490
:1040E0003E0C8C0182E0C82EC7B8D4E0D5B9D4B953
:1040F00081E00E943E0C080F191FD7B990E1D92E1C
:10410000D5B8D4B882E00E943E0C080F191F15B82C
:10411000C8B9C7B9C4B980E00E943E0C0E94A60C81
:104120007C01C8B8C7B8D4B981E00E943E0C0E9497
:10413000A60CE80EF91ED8B9D7B9D4B882E00E940F
:104140003E0C0E94A60CE701C80FD91F17B818B87B
:1041500014B880913A0190913B016C01CC0CDD1CAC
:10416000C80ED91EC01AD10ACC1ADD0AF12CE12CD6
:104170009801A0E9BAE10E943239A70196010E9494
:10418000F43849015A0130934401209343019E01C0
:10419000A0E9BAE10E943239A70196010E94F438E1
:1041A00030933D0120933C012057354E3093270139
:1041B0002093260180E7881A85EE980A90922001C4
:1041C00080921F0189E180933601CDB7DEB7ECE024
:1041D0000C947939CF92DF92EF92FF920F93CF93A5
:1041E000DF93F82ED62FC42F0E94190988E191E0A1
:1041F0000E946F09FED16D2F8F2D0E942B31C09030
:10420000C201D090C301E090C401F090C50180913B
:10421000020187FD05C0C114D104E104F10421F0BD
:1042200084E191E00E946F098D2F0E941909C11449
:10423000D104E104F10409F474C00E941C098091C6
:1042400061010E942B0ACC2309F467C080914601CA
:104250008D3030F48650990B845B9C4F0E946F091F
:1042600080E00E944809CD28CE28CF2809F45EC0FE
:104270006091C2017091C3018091C4019091C50108
:1042800003E028E447EF0E94B30A87E291E00E942E
:104290006F0987E593E00E94EA3923E046E464EF82
:1042A0000E94950B8091BA019091BB01A091BC0135
:1042B000B091BD01892B8A2B8B2B01F180E00E94EC
:1042C00048096091BA017091BB018091BC01909145
:1042D000BD0104E028E440E00E94B30A82E291E0DC
:1042E0000E946F0923E040E26FEF8091C00190913E
:1042F000C1010E94950B0E94280907C080E00E941E
:104300002E09809149018823B1F3DF91CF910F915C
:10431000FF90EF90DF90CF90089580E00E944809D1
:10432000A7CFC11193CF80E00E944809809161011D
:104330000E942B0A809102018E3F0CF0B3CF8FE3D5
:1043400091E00E946F0960910B0170910C018091C6
:104350000D0190910E0103E028E4409102010E94BA
:10436000B30AA0CFEF92FF920F931F93CF93DF93E7
:10437000182F0E94A20780918F010E9419098BE5D6
:1043800091E00E946F0914D560918F018091900196
:1043900067D3EC0190938C0180938B01E0908D01A9
:1043A000F0908E01CA3F8FEFD80720F489E191E0A9
:1043B0000E946F09809190010E941909112309F44C
:1043C00045C0909146018DE0891B0E941F0989E735
:1043D00090E00E946F090E94A8076091830170918C
:1043E0008401809185019091860104E026E440914A
:1043F00092010E94B30ACA3FDF4F68F48AE491E059
:104400000E946F0922E044E06EEF80918B01909151
:104410008C010E94950B0E9428090E94AF07E114AD
:10442000F10469F083E491E00E946F0922E045E223
:104430006FEF80918D0190918E010E94950B0E94EB
:104440002809CDB7DEB7E6E00C947F390E94280931
:10445000C2CF8F7021F40E94B6070C949012089579
:104460008F3021F490914001913011F08F5F0895C9
:1044700080E00895CF9384E890E00E94F02BC0E0A4
:104480000E94310E60E082E00E94D91962E080E073
:104490000E94D9190E94A20780917A018823C9F04D
:1044A00041E062E080E096DE8C2FD3DF88EE93E07F
:1044B0000E94FE0C811109C080911E01843028F4F5
:1044C0008C2FCEDFC82F8A3FD8F20E94E007CF9111
:1044D000089584E890E00E946F0980E593E00E94CF
:1044E0006F090E94A8078FE30E94F70880E00E94EE
:1044F0002E090E942809D8CF0F931F93CF93DF93E3
:10450000C0E0D8E012EF0DE00E94310E60E082E0E2
:104510003EDAD093250180919101843FE1F48091AE
:104520007F0190918001A0918101B0918201843638
:104530009105A105B10578F440E060E082E00E94B9
:10454000C92E60937F0170938001809381019093C5
:1045500082011093910180919101823F6CF18093CF
:10456000920180917F0190918001A0918101B09191
:1045700082018093830190938401A0938501B0937D
:10458000860181E0EFDE8C2F64DF88EE93E00E94ED
:10459000FE0C81110AC080911E01843030F48C2FF2
:1045A0005FDFC82F8A3F08F4AFCF0E94E007DF919A
:1045B000CF911F910F9108950E94A2078DE790E07F
:1045C0000E946F0980914601902F981B892F0E94AD
:1045D0001F0989E790E00E946F090E94A8078FE3F6
:1045E0000E94F7080E9428090E94AF070E9428092C
:1045F000CACFA6E1B0E0EFEFF2E20C94573982E0C7
:104600008093020180912501813009F0EBC18091F6
:104610007A01813009F0E6C14090610124E0429EB8
:10462000F0011124E255FE4F80819181A281B38176
:10463000893032E59307A105B10508F0D3C11C010B
:10464000712C81E0871508F4D1C1842D0E94210AC4
:10465000982E892EE82DF0E0E05AFD4F5490892DD8
:1046600090E0FC01E35AFD4FE49115B818B8272DEE
:104670002170622E30EF2316310408F0BCC12111E5
:10468000BAC100911F011091200100591A4121E087
:1046900030E0092C02C0220F331F0A94E2F7C9014F
:1046A000852987B934E1398B892D0E943A0C5C0148
:1046B000882D0E94420C24E0A216B10410F4049745
:1046C00028F039893150398B3111EECF80E4809355
:1046D0007B0094E590BF892D806480937C0026E167
:1046E00020937A00F12CE12C10928000109285002A
:1046F0001092840037E236BB0E94FD0B872D90E0BC
:104700009A8B898B61107EC181E88093810058B8B3
:1047100086B385FD0CC080FFFBCF21E026BBA895AA
:1047200097012F5F3F4F79012035310589F718B880
:104730001092810030E236BB2091860030918700D4
:10474000690140918400509185002417350738F4A1
:1047500080FF05C081E086BB9FEFE91AF90A86E970
:1047600080937A00B4E15B2E892D0E943A0C5C01A3
:10477000882D0E94420C24E0A216B10410F4049784
:1047800018F05A945110F0CF80904301909044015A
:10479000820C931C800E911E2091210130912201E8
:1047A00000398AE1180708F036C169E191EEC916AF
:1047B000D104E104F10430F4C60165E070E00E9428
:1047C000CD38645128523109261B310967FD3395D4
:1047D00066E0862F90E0B0E0A0E08C159D05AE0568
:1047E000BF0508F021C1C81AD90AEA0AFB0A6620E7
:1047F00029F082E2C80ED11CE11CF11C90E5E916FB
:10480000F10418F0C12CD12C76018BE0C816D1042C
:10481000E104F10428F091E0C91AD108E108F10897
:10482000B12CA12CA8EEB3E00E9432396B8B7C8BAB
:104830008D8B9E8BA0913A01B0913B0198010E9413
:104840003239A50194010E94F438442755276B8919
:104850007C898D899E890E94F438C9010E94E60DE9
:10486000FC01A5019401C701B6010E94B2384B01B9
:104870005C01BF0190E080E0E3E0660F771F881FD6
:10488000991FEA95D1F76B5F7F4F8F4F9F4F2AE0BB
:1048900030E040E050E00E94F438C501B4010E94CD
:1048A000F438E989FA89EE0FFF1FEE0FFF1F81E050
:1048B00090E08C0F9D1FE80FF91F20833183428306
:1048C0005383611018C09CE0C916D104E104F104BF
:1048D00090F07394E989FA893196EE0FFF1FEE0F7D
:1048E000FF1F81E090E08C0F9D1FE80FF91F2083D0
:1048F000318342835383A895739493E0971508F00E
:10490000A0CE18B884E00E940A0C91E00D811E81AF
:104910002F81388549815A816B817C8140175107ED
:104920006207730708F090E00D851E852F85388992
:1049300049855A856B857C8582E04017510762075F
:10494000730708F483E024E0829FD001112421E062
:1049500030E02C0F3D1FA20FB31FE92FF0E0EE0F48
:10496000FF1FEE0FFF1FE20FF31F0D911D912D9101
:104970003C9140815181628173810417150726079C
:10498000370708F0892F34E0839FF001112421E0DC
:1049900030E02C0F3D1FE20FF31F408151816281F7
:1049A000738140930B0150930C0160930D01709340
:1049B0000E0180FD3DC030EF23163104C8F58BEFAA
:1049C0008093020180910B0190910C01A0910D0147
:1049D000B0910E01892B8A2B8B2B11F410920201BE
:1049E00017B814B86696E2E10C947339842D0E94CE
:1049F000210A4C012FCEE4B957B800911F01109144
:104A0000200150CE58B80E94060C90E296BB81E877
:104A1000809381007DCEC40160EB76E30E94CD38A7
:104A2000695F285D3F4FD5CEC12CD12C7601DFCEFA
:104A30008CEF80930201CB01BA016B5F7F4F8F4FE8
:104A40009F4F2AE030E040E050E00E94F43820938D
:104A50000B0130930C0140930D0150930E01B2CF26
:104A6000AEE1B0E0E6E3F5E20C945739662EB82EDD
:104A7000860F898320912501283059F520918301E3
:104A800030918401409185015091860157FD15C0F8
:104A90001091920109C0CA01B9012AE0312D412DBE
:104AA000512D0E94F4381F5F173FACF391F424316D
:104AB00060E036074105510518F48FEF9FEF45C1BF
:104AC000173F39F480E028178DE738074105410585
:104AD00010F020E03DE72C8B3D8B26EDA22EE0E68A
:104AE000F2E0E60DF11D859180608E87E0E6F2E050
:104AF000EB0DF11D859180608F87EDE5F2E0E60D0D
:104B0000F11D7590EDE5F2E0EB0DF11DC59090EC17
:104B1000692AB92A81E0E82EF12C012D112D8E830E
:104B20001F82188619861A861B861C861D86188E7B
:104B3000198E1B8E1A8E0E94F01B80E088B960923D
:104B40007C000E94FE0B3F8537B975B874B852E0FF
:104B50005A95F1F70000000014B815B8DD243E8521
:104B600037B975B874B860927C00A895A0927A00A5
:104B700080917A0086FDFCCF2090780030907900FB
:104B8000B0927C004C2DE5D02091780030917900D6
:104B9000288B398B3F8537B9C5B8C4B8A895B09272
:104BA0007C00A0927A0080917A0086FDFCCF609113
:104BB00078007091790060927C00472DCAD04091B6
:104BC00078005091790014B8CB01820D931DE80E46
:104BD000F91E011D111DEA82FB820C831D83888949
:104BE0009989840F951F2E813F8168857985280FCB
:104BF000391F611D711D2E833F836887798722E3EA
:104C00002417150650F075B874B80E94080C14B833
:104C100015B8888D8395888F07C0483E73E0570785
:104C200018F08A8D83958A8F8889998928171906A3
:104C300060F03E8537B9C5B8C4B80E94080C14B8F6
:104C400015B8898D8395898F07C0883E73E09707D3
:104C500018F08B8D83958B8FD3945D2D5F3F49F03A
:104C60005F3731F45C2D550FC50E572D550F750E5E
:104C700076CF4090430150904401440C551C920162
:104C8000E4E0240D351DEA95E1F72901570168019B
:104C90006E807F8088849984209125012830C1F41A
:104CA0006C897D89812D912D6550704080409040A8
:104CB0009B01AC010E94B2389B01AC0160E779E72F
:104CC00086E190E00E94F438621A730A840A950A19
:104CD000A614B704C804D90428F46A187B088C0801
:104CE0009D0803C0662477244301B20180E090E070
:104CF0009301A4010E94B2389501A6010E94F438E4
:104D000081E293E07981870F911D0E94E239682E3C
:104D1000C90160E170E00E94CD38260F371FC9013C
:104D20006816190618F4861991090FC08C5E9F4FFA
:104D30008615910540F48C899D89843981E1980715
:104D400010F00E943812812D912D6E96E2E10C94A4
:104D50007339109281001092800010926F001092AF
:104D60008B0010928A0057E056BB5FEF509385008E
:104D70005093840055E050937B0056EB50937A009B
:104D800051E05093810058E25A95F1F7000045B97F
:104D900044B955E05A95F1F7000014B815B81092CF
:104DA000810080917A0084FFFCCF80937A0008957F
:104DB000B0E0A0E0EEEDF6E20C94593900918D01DF
:104DC00010918E010115110509F08EC0E0918F013F
:104DD000F0E0E05AFD4FD491E0919001F0E0E35A09
:104DE000FD4FC4910E94F01B18B815B8D7B9C4B9CB
:104DF000809190010E94420C7C01D09192018CE044
:104E00008D0F843008F070C08091830190918401EF
:104E1000A0918501B0918601D15F2AE0422E512CEC
:104E2000612C712CBC01CD016B5F7F4F8F4F9F4F69
:104E3000A30192010E94F43849015A01DA01C90123
:104E4000DF5FD73079F7893823E19207A105B105F3
:104E500008F04AC0059708F447C0C5B9C4B9D0E006
:104E6000C0E0C815D90508F444C014B815B8A89511
:104E700085E080933601809190010E94420CEC0104
:104E8000CE19DF09E816F90610F0D0E0C0E0D12C09
:104E9000C12CC814D90488F1809190010E94420C61
:104EA00029E120933601A895E816F90618F48C013B
:104EB0000E191F090C171D0788F49E01201B310BCA
:104EC00069F0A4EFB1E00E9432399E0150E040E069
:104ED0000E94F43830938E0120938D010E94F01BC4
:104EE00017B818B814B815B8CDB7DEB7E0E10C9410
:104EF00075390E94040C2296B4CF0E94040C8FEFE7
:104F0000C81AD80AC6CF1F920F920FB60F9211245B
:104F10008F9386E085BD8F910F900FBE0F901F90ED
:104F200018951F920F920FB60F921124A895109208
:104F3000810015BC0F900FBE0F901F9018951F9207
:104F40000F920FB60F9211242F933F938F939F933D
:104F50008091760190917701892B11F481E085BDD4
:104F600020917601309177018091740190917501C3
:104F70002817390730F015BC80916D008F7E809323
:104F80006D00809176019091770101969093770161
:104F9000809376019F918F913F912F910F900FBE3B
:104FA0000F901F9018958B3008F08B50811107C01F
:104FB00089E292E00E946F090C94280908958130DB
:104FC00019F480E092E0F6CF823019F485EF91E099
:104FD000F1CF833019F48FE890E0ECCF843019F4EE
:104FE00084E890E0E7CF853019F48DE790E0E2CFD8
:104FF000863019F484EE91E0DDCF873019F485ED29
:1050000091E0D8CF883019F48EEB91E0D3CF89307E
:1050100019F487E192E0CECF8A3071F68CE092E00D
:10502000C9CF0F93CF938FE890E0DAD3C0E010920E
:10503000250160E082E0E9D380912501883009F004
:105040004EC00E94A80783E40E94F7080E945309FB
:105050006091830170918401809185019091860116
:1050600003E026E4409192010E94B30A0E942809BD
:1050700060918F0180919001F3DC90938C0180937B
:105080008B010E94AF078BE491E00E946F09809131
:105090008B0190918C018A3F2FEF9207E0F422E080
:1050A00044E06EEF0E94950B0E9428098C2FD1D905
:1050B00088EE93E00E94FE0C81110AC080911E01CF
:1050C000843030F48C2FCCD9C82F8A3F08F4AFCF6E
:1050D000CF910F9108958FE30E94F708E5CF0E94CA
:1050E0004F090E94AF07E0CF0895A5E0B0E0EBE7DD
:1050F000F8E20C94573980E092E072D380E180931B
:10510000800010926F0081E090E09093890080937E
:10511000880010928B0010928A0083E086BB109268
:10512000820088E08093810015B881E184B918B8C5
:1051300081E087B9229A89E080938100312C20E0B8
:105140003AE0398341E04D83812C912C54018394C2
:1051500051E15C83832D90E00A966EE170E00E943D
:10516000E1386B83F62E621761F00E94A20780E09F
:1051700092E00E946F0910E01F1508F4D8C00E9449
:1051800028098D8169810E94C138A92FB0E0A5014D
:1051900094010E9447396B017C018C81823150F06F
:1051A000652D762D872D902F0E94F438C60ED71EC0
:1051B000E81EF91E0E94A8079D812981212C9213C7
:1051C00006C081E03C81323108F480E0282E2A823A
:1051D0008CE3211005C04C818EE3463108F082E556
:1051E0000E94F7080E941C094C81C701B6010E9469
:1051F000AA0BC701B6017E5E85489F4FA7019601A5
:10520000220F331F441F551F0E94F438CA014F3F1D
:10521000510509F008F490C08DE08093810080E092
:1052200094E02C01712C612CCA01B901A3019201F7
:105230000E94F4382150310930938900209388006E
:105240008091880090918900892B31F481E090E071
:1052500090938900809388000E9428090E94AF07DC
:1052600086E60E94F7080E941C09009188001091B0
:10527000890060E079E08DE390E0A30192010E9453
:10528000F438A4E6B0E00E9447390F5F1F4F980141
:1052900050E040E00E94F43829013A01A4E6B0E071
:1052A000A70196010E944739A3019201261B370BE3
:1052B000480B590BCA01B90105E228E44EEF0E94E0
:1052C000B30A8AE70E94F7080E94280980ED97E058
:1052D0000E94FE0C282F81114FC080911E01811168
:1052E00001C0232D80911E018B30B0F480911D01EF
:1052F00087FD86C03D81830F90E03981632F70E088
:105300006F5F7F4F0E94E1388D83822FA9D8382E9E
:105310004FEE481708F055C010928100109280009F
:1053200017B814B822982596E2E10C9473398EE2EE
:105330000E94F7081F5F20CF4034510530F08CE009
:105340008093810080E091E06CCF4830510530F0CF
:105350008BE08093810080E490E063CF892B31F073
:105360008AE08093810088E090E05BCF89E08093C1
:10537000810081E090E055CF883C70F68135C8F11E
:10538000222029F13C8131503C83C501B4012AE03F
:1053900030E040E050E00E94F43849015A01C70172
:1053A000B6010E94F438CA01B9012AE030E040E0B9
:1053B00050E00E94F4386A834AE049832A812D83B1
:1053C000312C2B815C2C6D2C7E2C0F2DC3CE5C815F
:1053D0005631E0F45F5F5C83563111F485E18983D7
:1053E000AAE0B0E0A50194010E9447394B015C019D
:1053F000E5CF8B3018F09D819F5F9D8320E072CFB9
:105400008F5F4981840F5D81850F76CF5AE0598384
:1054100081E08A83812C912C5401839491E19C83B7
:10542000CDCFB0E0A0E0E7E1FAE20C94593985EF86
:1054300091E0D6D183E28093800010926F008FEFCD
:1054400090E090938B0080938A0083E086BB10925B
:10545000820015B881E184B918B881E087B9229A31
:1054600081E090E0909389008093880089E08093A8
:10547000810010E080E0D2E300E094E6C92ED12C58
:10548000E12CF12C88248A9423E0922EA12CB12CBB
:10549000D817A1F1D43608F0D4562D2F30E0AFEF55
:1054A000B3E00E9432396E5C7F4F8F4F9F4FA70150
:1054B00096010E94F43829013A0130938B00209321
:1054C0008A000E94A807A8EEB3E0A30192010E94FF
:1054D000473961507E4F8F4F9F4FA50194010E9425
:1054E000F438C90125E045E26FEF0E94950B0E9458
:1054F0002809093218F08CE30E940A0C80E496E037
:105500000E94FE0C082F8338A0F480911E018B307E
:1055100080F4C0911D01C7FD1AC0CD0F0333C8F040
:10552000C65F10E0812F0E943022182F8D2F103F70
:1055300060F017B8109281001092800014B8229881
:10554000CDB7DEB7E0E10C947539DC2FA1CFCC5993
:10555000E4CF002311F0CF5FE4CF8111E2CFE2CF9F
:10556000CF93DF938EEB91E03BD180E293E00E94FA
:10557000E239C82FD0E081E80E94D7078C2F0E9423
:10558000D7070E94A80724E040E260E08C2F90E05B
:105590000E94950B0E94280980E496E00E94FE0C70
:1055A000811121C090911E0191111FC090911E0187
:1055B0009B3088F490911D0197FD19C0C90F882375
:1055C00019F08932B0F0CF5FCF778D2F0E94302253
:1055D000D82F803F80F26C2F80E293E00E94EF3959
:1055E000DF91CF9108958238B0F7D0E0DFCF9058A7
:1055F000E5CFC158E9CF0F931F93CF93DF9384EE8C
:1056000091E0EED085E293E00E94E239C82FD0E02D
:105610000E94A8070C2F0C2E000C110BC7FF37C0DF
:105620008DE20E94F70823E045E26FEF8827992773
:10563000801B910B0E94950B0E94280980E496E044
:105640000E94FE0C811128C090911E01911126C06C
:1056500090911E019B3088F490911D01C90F882301
:1056600019F08932E8F0CF5FC135E4F0C5568D2FCF
:105670000E943022D82F803F58F26C2F85E293E0B1
:105680000E94EF39DF91CF911F910F91089523E090
:1056900045E26FEFC801CECF823878F7D0E0D8CF9F
:1056A000C150E2CFCC3E1CF7CB59E1CF813011F491
:1056B0001CCD0895823011F4B4CE0895833011F4D6
:1056C000B0CC0895843019F40C943A2208958530B2
:1056D00029F40E94E0070C947C220895863011F48E
:1056E0008ACF0895873021F481E10C94A70E0895A4
:1056F000883011F435CF0895893011F4C0C1089570
:105700008A3011F40C94540E0895FF920F931F9356
:10571000CF93DF9384E392E063D0D0E0C0E01AE05F
:105720001C0F00E0FF24F394F00E60E08F2D880F33
:105730000E949507013009F048C08EE30E94F708E7
:1057400085EF810F1B3008F4812F2DDC1F5F0F2D9B
:10575000033041F780E49FE10E94FE0C8111D0E00C
:1057600090914001913009F4D0E0823330F490916F
:105770007B01992371F0882361F0CC23D9F08C2F21
:1057800095DF10921E0110921D0184E392E028D053
:1057900080E090911E019A3068F490911D01992348
:1057A00019F097FD15C0D0E0C90F811117C0DF5F58
:1057B000DE3631F480E0CDB7DEB7E5E00C94803919
:1057C000CB3008F4ACCFCB50AACF0E941C09B8CF85
:1057D000955FC90FD1E0882399F3D0E0CF5FE7CF81
:1057E000CF93DF93EC010E94E007CE010E946F0986
:1057F000C4E682E00E940A0C4F9902C0C150C9F76A
:105800000E94A807DF91CF910895B0E0A0E0EBE0FF
:10581000FCE20C946039182F062F862F90E0FC01D3
:10582000E05AFD4FF490E12FF0E0E35AFD4FC491B0
:10583000FC01E35AFD4FD49110928C0110928B0120
:1058400010927F01109280011092810110928201CA
:1058500087EF809391010E94F01B18B8F7B8D4B974
:10586000D5B9812F0E94420C7C01802F0E94420CEE
:10587000E81AF90A14B810925D0110925C0130E048
:1058800020E05CE2C52EDD24D394DAE064E6B62E97
:1058900080915C0190915D01843D904348F017B880
:1058A00018B814B815B8CDB7DEB7E9E00C947C3958
:1058B000C5B980915C0190915D01892B91F0F60151
:1058C000E21BF30B60915C0170915D01D29FC001FE
:1058D000D39F900D11240E94CD38E617F70708F0EA
:1058E000A5C0C4B90E94FD0B14B880915C019091D1
:1058F0005D01019690935D0180935C0115B80E9453
:10590000FF0BA895812F0E94420C9C012E193F0984
:1059100080915C0190915D018B31964020F02532A1
:1059200031050CF4BCCF2D3281E038070CF4B0CF38
:1059300080915C0190915D01019729F4253185E00A
:1059400038070CF0ACCF80915C0190915D01880F1D
:10595000991FB0E0A0E08093870190938801A09305
:105960008901B0938A01C90168E270E00E94E138C0
:10597000CB01820F931F0E94DF1F2091870130917E
:1059800088014091890150918A01DC010E944739C8
:1059900060938701709388018093890190938A01B5
:1059A00060937F01709380018093810190938201C5
:1059B0000E94871CC0907F01D0908001E0908101FF
:1059C000F090820185E293E00E94E239A8EEB3E014
:1059D000A81BB10987FDB395A70196010E94513913
:1059E00020E137E240E050E00E94F43820937F014C
:1059F00030938001409381015093820188E080932D
:105A000025012093830130938401409385015093B5
:105A10008601809191018093920110928E011092E3
:105A20008D0100938F011093900139CF80915C011B
:105A300090915D010B97C8F060915C0170915D01E0
:105A4000B29EC001B39E900D11240E94CD386E17F6
:105A50007F0758F4C4B90E94F20B14B880915C011E
:105A600090915D018C599F4F45CFC4B90E94F80BAE
:105A700014B880915C0190915D010A963BCFCF9262
:105A8000DF92FF920F931F93CF93DF930E94E00763
:105A900085E091E00E946F090E94A80781EC90E0E8
:105AA0000E946F0983E293E00E94E23923E040E222
:105AB0006EEF90E00E94950B84E293E00E94E23941
:105AC00023E040E26EEF90E00E94950B82E293E0CB
:105AD0000E94E23923E044E06EEF90E00E94950BD3
:105AE0000E94AF078AEB90E00E946F0923E044E038
:105AF0006FEF80913C0190913D010E94950B0E94B7
:105B0000B60783EB90E00E946F0923E044E06FEF5B
:105B100080914301909144010E94950B88E99AE39A
:105B20000E94FE0C80911E018B3008F0BFC0809156
:105B30001D0187FDABCF0E94E0078FEA90E00E9435
:105B40006F0987E493E00E94E2398251990B0E9429
:105B5000CA0988E493E00E94E2398251990B0E94BD
:105B6000CA0984E493E00E94E23923E046E464EF4A
:105B70008251990B0E94950B0E94A80783E00E9416
:105B80001F0983E493E00E94E2398251990B0E943D
:105B9000CA0986E493E00E94E2398251990B0E947F
:105BA000CA0982E493E00E94E23923E046E464EF0C
:105BB0008251990B0E94950B0E94AF078DE190E0F6
:105BC0000E946F0989E493E00E94EA390E94B509B6
:105BD0000E94B60786E190E00E946F098BE493E093
:105BE0000E94E239082E000C990B0E94B50960E072
:105BF00086E00E949507C0E0FC2EFF0CFC0ED0E072
:105C0000FA94CD1709F446C00F2D0D0F10E0000FC8
:105C1000111FC8018C5C9C4F0E94EA396C01C801BD
:105C20008A5D9C4F0E94EA398C018091AD018330DE
:105C300008F444C088E99AE30E94FE0C80911E019A
:105C40008B30A0F580911D018E3F0CF41FCF8E3F4D
:105C500009F471CF8F3F59F20E94E00787EA90E084
:105C60000E946F098C2F0E9419098AE30E94F7088D
:105C70008D2F0E94190980E00E942E0923E040E246
:105C80006EEFC6010E94950B23E046E462EFC80167
:105C90000E94950BDF5FD33009F0B3CFCF5FC330E5
:105CA00009F0AACF88E99AE30E94FE0CDF91CF9118
:105CB0001F910F91FF90DF90CF90089580E00E9498
:105CC0002E09CCCF08954F925F926F927F928F9260
:105CD0009F92AF92BF92CF92DF92EF92FF92AC0170
:105CE0006C01F12CE12C560199248824E52FFF2723
:105CF0009A01DA010E9432392C016624772492013C
:105D000065E0369527956A95E1F7E29FC001E39F2C
:105D1000900DF29F900D11249A0174E0369527950D
:105D20007A95E1F7E20FF31FE40FF51F9201369524
:105D3000279536952795B4E056944794BA95E1F7A0
:105D40002419350950E040E02E0F3F1F411D511D21
:105D5000BC01E3E076956795EA95E1F7861B970B22
:105D6000280F391F411D511DC701B6010E94B238CD
:105D7000680D791D8A1D9B1DFF90EF90DF90CF90DD
:105D8000BF90AF909F908F907F906F905F904F905B
:105D90000895A3E0B2E0EFECFEE20C945739CF5F38
:105DA000DD4F8883C150D240162FCE5FDD4F488330
:105DB000C250D2400E94F01BCF5FDD4F2881C150FE
:105DC000D240E22FF0E0E35AFD4F9490892C880CEA
:105DD000E12FF0E0E05AFD4FE491E7B915B894B82F
:105DE000822F806480937C000E94FE0BCE5FDD4F8B
:105DF0003881C250D2403170CD5FDD4F3883C350FF
:105E0000D240CE5FDD4F8881C250D240D92C80FF76
:105E1000D82CE0E2FE2E90E080E0C92CED2C082D7D
:105E20002D2D44E7BE016F5F7F4F0E943400FA942E
:105E300080E490E0F110F1CF14B81E0197E4290E30
:105E4000311C73E2472E512C612C712CC12CD12CAA
:105E50007601812C912C5401F101819191911F01C6
:105E6000CD5FDD4FF881C350D240FF2329F020E001
:105E700030E8281B390BC90126DF9C0150E040E0C7
:105E8000820E931EA41EB51EC301B2010E94B23839
:105E9000C60ED71EE81EF91E3FEF431A530A630AC7
:105EA000730A84E74816510461047104A9F6C50118
:105EB000B40121E530E040E050E00E94F438ABEB63
:105EC000B7E10E944739C61AD70AE80AF90AA701BA
:105ED000960164E056954795379527956A95D1F7D1
:105EE00060EE7DEC81EC9FE80E94F43869017A0154
:105EF000CE5FDD4F9881C250D24091FD20C0CF5F70
:105F0000DD4F8881C150D240880FCF5FDD4FE881DF
:105F1000C150D2408E0F1150810F90E0880F991F11
:105F2000CD5FDD4FF881C350D240FF2379F08A5D09
:105F30009C4F0E94EA39C81AD90AE108F108C70142
:105F4000B601CD5FDD4FE2E10C9473398C5C9C4F60
:105F5000F0CF8F929F92AF92BF92FF920F931F93B9
:105F6000CF93DF93C0E0FC2EFF0CFC0ED0E0FA9440
:105F7000CD1799F142E06D2F8C2F0BDF4B010E9462
:105F8000E00787EA90E00E946F090E941C098C2FAD
:105F90000E9419098AE30E94F7088D2F0E941909AF
:105FA0000E941C090E94A80724E040E262EFC4019D
:105FB0000E94950B0F2D0D0F10E0000F111FB40163
:105FC000C8018C5C9C4F0E94FD39B401C8018A5DF8
:105FD0009C4F0E94FD390E942809DF5FD33041F6B3
:105FE000CF5FC33009F0BFCF0E94A20785EB91E0DD
:105FF0000E946F090E94280988E20E940A0CDF9122
:10600000CF911F910F91FF90BF90AF909F908F9075
:106010000895A2E1B0E0EFE0F0E30C9457392C01D1
:106020007C836B83DD24D3942D2C312C33E0D39EE1
:10603000900111243E872D87F101EE0FFF1FEE0F17
:10604000FF1FFC87EB87812C30E4932E50E0712CEE
:10605000612C18861F82B12CA12C1A8219821E82F3
:106060001D8240E0C12CF0E0E0E030E020E061E0A3
:1060700070E08FEF90E082199309988B8F870C2D39
:1060800010E08F8598890817190774F1AB81BC81DE
:10609000AB2B29F170E060E04230E8F09501ED8132
:1060A000FE812E1B3F0BA8EEB3E00E943239E9813E
:1060B000FA81AE1ABF0A950150E040E00E94F43820
:1060C00088EE93E0821B930B0E94E60DBC0188EBE7
:1060D0009AE70E94CD38AB81BC816D937C93C4015B
:1060E0006296E2E10C947339D801A20DB31DAA0F98
:1060F000BB1FA40DB51D8D919C91E80FF91FD80110
:10610000AA0FBB1FA40DB51D8D919C91280F391F9F
:10611000CD1408F48AC0D801A219B309AA0FBB1F75
:10612000A40DB51D0D90BC91A02D2A1B3B0BE81BA7
:10613000F90B7901EE0EFF1EC9018E1B9F0B89879B
:106140009A87D701B695A795B695A795A80FB91FB9
:10615000B7FD76C0E217F30708F069C0513009F0C7
:1061600066C0D80156E0AA0FBB1F5A95E1F7BA8B5B
:10617000A98BDC01A61BB70BBD01A817B90770F0EE
:10618000A6E0880F991FAA95E1F780960E94CD3866
:1061900089899A89861B970B9A8B898BAD85BE85D9
:1061A000EA16FB0608F472CF8B859C850817190741
:1061B000BCF14423B1F069897A89661977094330C3
:1061C00050F0D4019096C401969587958A0F9B1F35
:1061D00086179707D0F1D71650F4DD24D394D70E45
:1061E00023CFA989BA89B887AF83FE82ED82AE0C2E
:1061F000BF1C4F5F4130F9F0842F8150990BBC01D7
:1062000095958795A989BA898A0F9B1FAF81B88513
:106210008A1B9B0BC2D74B0169887A88FA82E98274
:10622000453108F033CF50E002C069877A87C394C4
:1062300069857A8524CF69887A88FA82E982F3CFE2
:1062400051E0E217F30798F78CCFEB81FC81EF2B3D
:1062500009F024CF44CFA6E2B2E0E1E3F1E30C94ED
:106260005B39F82ED62E87E593E00E94EA393C018F
:10627000ED2DF0E0E35AFD4F1491EF2DF0E0E05AE0
:10628000FD4FE4911092BA011092BB011092BC0133
:106290001092BD011092C1011092C0011092C20172
:1062A0001092C3011092C4011092C5018091250182
:1062B000813009F0D0C08091020118160CF4CBC0D7
:1062C00018B8E7B90E94FE0B2D2D206CD22E20931A
:1062D0007C000E94FE0BC12EE12C00E0212F4FEF2D
:1062E000BE016F5F7F4F80E191E00E9434003F2D3F
:1062F000306CF32E30937C00212F44E1BE016150BD
:106300007E4F80E191E00E943400FE013196BE0193
:1063100061507E4F5B01AE01475D5F4F819191916E
:10632000D5016D917D915D019F0122503109861744
:10633000970708F494C0861B970BD9018D939C9303
:10634000E417F50759F7D0927C0070E060E0CE01C9
:1063500001965FDE9F5F30E1A32EBB24B394912CA6
:10636000812C913178F040E1A42E44E0B42E52E02B
:10637000852E912C903430F090E1A92EBA2C24E097
:10638000822E912C88E0D82EA895C12EE12C00E019
:10639000212F4FEFBE016F5F7F4FC5010E94340078
:1063A0008114910409F461C060EC71E0CE010196A2
:1063B00030DE5C01813C9F4308F0B1C06501F12CE7
:1063C000E12C9501D5014ED723E330E040E050E0C9
:1063D0000BD7A8E6B2E05BD73FEF831A930A769417
:1063E0006794930150E040E0FFD6C401880F991FE5
:1063F00004C0220F331F441F551F8A95D2F72093E4
:10640000C2013093C3014093C4015093C5018091F0
:106410000B0190910C01A0910D01B0910E01039719
:10642000A105B10540F01092C2011092C301109273
:10643000C4011092C501A114B10409F073C01092F7
:10644000C1011092C0011092C2011092C3011092BA
:10645000C4011092C501CA5DDD4FEEE048C7D90105
:106460001D921C926DCF5C018FCFC5018064DA94C0
:10647000D110F9CF81159440C8F08EEF8F3F09F409
:1064800093CFE82FF0E0EE0FFF1F21E030E02C0F5C
:106490003D1FE20FF31F20813181A3E03695279540
:1064A000AA95E1F7318320838150E8CFF0927C00F8
:1064B000E894A6F808E0F02EC12EE12C00E0212F90
:1064C00044E1BE0161507E4FC5010E9434006894D2
:1064D000A6F8FA94F110F0CF24E1215070F2822F47
:1064E00090E0880F991FE1E0F0E0EC0FFD1FE80F4E
:1064F000F91F408151816FEF71E06C0F7D1F860F96
:10650000971FDC018D919C914817590728F0481B73
:10651000590B51834083E1CF11821082DECFB12C21
:10652000A12C4CCF27E030E02819390960E072E156
:106530008AE790E004C0660F771F881F991F2A958D
:10654000D2F7A701960150D62093BA013093BB0130
:106550004093BC015093BD018091020187FD7BCF28
:106560008FEF8093020177CFCF93DF93D82F0E94D4
:10657000A20786E090E00E946F090E942809C0E00F
:106580001092BF011092BE0184E10E940A0C62E0E9
:1065900080E00E94C71C0E94A80724E046E464EF44
:1065A0008091BE019091BF010E94950B6091BE0148
:1065B0007091BF01CB018C539F4085399547A0F462
:1065C000CF5FC53090F087E593E017D70E941C0994
:1065D00085EB91E00E946F0984E60E940A0C0E94FC
:1065E000A207DF91CF910895C0E00E942809DF5FE4
:1065F00039F6F5CFB0E0A0E0EFEFF2E358C680E463
:106600008AB98BB95F9AD6E8D0937A001092C1000C
:106610000E94EA0BC4B7C87084B7877F84BF0FB6E7
:10662000F894A89580916000886180936000109232
:1066300060000FBED093640088E380937E001092C8
:10664000B00087E08093B10078940E94F707C111F1
:1066500078C584E080931C014F9906C082E00E94B7
:106660000A0CCF5FCC33C1F78FE59DE690931701FD
:1066700080931601CF3130F080E69DE690931701AC
:1066800080931601109237010E941E2088E19FE03E
:106690000FB6F894A895809360000FBE90936000A9
:1066A000CC3309F467C030E1632E40E1542E54E648
:1066B000C52E51E0D52E61E2262E72E1472EE0E292
:1066C0003E2E8FEA0E94D70784EA0E94D7070E94D5
:1066D000E00717B80E94310E0E941E200E94A207F8
:1066E0000E94901280914501882381F00E94A807A2
:1066F00080E591E00E946F0963E080913A019091FA
:106700003B010E94A00B88EC0E940A0C0E94A80783
:106710000E94F01B80912501893089F50E94E007D5
:1067200085E591E00E946F090E94A80763E08091CF
:106730000501909106010E94A00B0E941C0963E0D4
:1067400080910701909108010E94A00B0E941C09F2
:1067500063E08091090190910A010E94A00B8AECEC
:106760000E940A0C81E10E94A70EC0911601D091EF
:1067700017017AC10E94852B8111FCCF94CF85E44B
:1067800093E020D6C82F82E493E01CD6C81BC093A8
:10679000420180E00E94A70E0E944F098DEB92E01B
:1067A0000E946F0942E061E080E00E94F31242E043
:1067B00060E081E00E94F31241E062E080E00E942C
:1067C000F31241E060E082E00E94F31240E062E0F8
:1067D00081E00E94F31240E061E082E00E94F31247
:1067E0008091250181110EC00E94F01B60E082E0C3
:1067F0000E94C71C61E082E00E94C71C60E081E04B
:106800000E94C71C0E94E0072AE431E0309348014F
:1068100020934701809125018630F9F485EC0E9490
:10682000B70860E188EF0E94C50B66E080E00E9437
:10683000950784E992E00E946F0966E082E00E9479
:10684000950789E691E00E946F0962E080914E0110
:1068500090914F010E94A00B88CF873071F484EC97
:106860000E94B70860E188EF0E94C50B66E080E0F7
:106870000E9495078DE992E0DECF8830C1F48091C7
:106880008F0190919001890F9927991F029759F4D0
:106890000E947C2280914201882309F43DC4D4E007
:1068A00010E000E026C480E00E94B2215ECF833079
:1068B00009F0ECC080912301813009F04CC080E0E8
:1068C0000E94870A6091950180919B010E944A1263
:1068D00080E70E945F0A40E06091950180919B01F2
:1068E00058DA60937F0170938001809381019093C7
:1068F000820180E00E94480960917F0170918001CF
:10690000809181019091820102E026E442EF0E9491
:10691000B30A80917A01882309F427CF67B817B8A2
:1069200080E00E94480930917A01332309F4A4C31E
:1069300080916101313009F03BC30E94210A20910E
:106940006101213009F02FC32091230121112BC3B4
:106950000E943A229FCF823079F582E30E94F708A5
:106960008DE191E00E946F0990919501309196011F
:10697000931308C080E00E94A30A81E00E949A0A53
:1069800081E0A7CF20919B0180919C01281307C033
:1069900080E00E94930A81E00E94AA0AF1CF32139C
:1069A00006C081E0809311010E94750AB2CF98134E
:1069B0003CC050921101F8CF8330B9F533E33093E6
:1069C000110180919B0190919601891303C021E0F0
:1069D000209311014091950130919C01431302C015
:1069E0005092110120919701821303C082E080939D
:1069F000110180919D01481302C0309211013213A0
:106A00000CC040921101981751F083E30E94F708DF
:106A10008DE191E00E946F09C7CF981302C02092C8
:106A2000110180911101823280F383EA92E00E9489
:106A30006F098BE892E00E946F090E94A80780917D
:106A40002301805D0E94F7088AE20E94F70887E32D
:106A500091E00E946F0981E792E00E946F0986E051
:106A60000E94B708C0E4DFE167B84F9BFECFCE01BC
:106A70000E94FE0C823328F490911E01933008F49A
:106A800008C30E94852B8111FCCF1BCE843009F0F6
:106A900057C180917301882309F45FC08091590127
:106AA000882309F45AC060915601809158010E94D0
:106AB000C71C80907F0190908001A0908101B090D0
:106AC0008201C091910160917201809170010E94D8
:106AD000C71C80914A0190914B01A0914C01B0914B
:106AE0004D01409164015091650160916601709182
:106AF0006701843F21E09207A105B10538F4443FC6
:106B000031E053076105710508F0C0EF443F514083
:106B10006105710540F4843F9140A105B10518F06D
:106B200080EF80939101809191018C1311C080912D
:106B30007F0190918001A0918101B091820188161E
:106B40009906AA06BB0630F02CE02093240105C06C
:106B5000C817D4F79DE09093240180917301882396
:106B600061F080915901882341F04F9906C08091CE
:106B7000240191E089278093240166E080E00E944F
:106B8000950780EC0E94B708809124018C3009F0B1
:106B9000C0C085E891E00E946F098091730188234D
:106BA00019F080E70E94F7080E940C0EC82F85306C
:106BB00090F4A0914701B0914801E82FF0E0EB5626
:106BC000FE4F1D969C91808160E0981362E088EAF8
:106BD00091E00E94DE0860E189EF0E94C50B86E02B
:106BE0000E942E0984E991E00E946F09E09147011B
:106BF000F0914801608171818281938103E020E0FE
:106C00004EEF0E94B30A87E00E942E0989E40E9499
:106C1000F708E0914701F091480186819781803122
:106C2000974208F489C085E60E94F708E091470181
:106C3000F09148018681978180519742978386839E
:106C40000E945309E0914701F091480122E041E49C
:106C50006AEF868197810E94950B86E00E942E093B
:106C60008DE691E00E946F09E0914701F0914801A3
:106C700063E0848195810E94A00B81E080934901AB
:106C8000E0914701F091480180859185892B91F031
:106C900085E00E9448098FEF90E00E946F09E09123
:106CA0004701F091480122E041E46AEF8085918537
:106CB0000E94950BE0914701F091480182859385F0
:106CC000892B91F085E00E94480989EF90E00E94AD
:106CD0006F09E0914701F091480122E041E46AEF39
:106CE000828593850E94950BC53068F480E00E94F0
:106CF00048098C2F0E94870A89E691E00E946F095B
:106D00008C2F0E94510A43E462E485E40E94F40956
:106D10002CCDD0924801C092470183EE91E00E94B1
:106D2000F4088DE791E00E946F0980915901882352
:106D300009F43ACF8EE636CF83E60E94F70880CF7B
:106D4000853009F0F0CD66E080E00E9495078091E3
:106D50002401D82FD07184FF62C080E50E94F7081B
:106D6000D0924801C0924701D2E08DE20E94F7081C
:106D700080912401C82FCF70C43009F054C08FE92E
:106D800091E00E946F0983EC0E94B7088CEE91E0BD
:106D9000D11165C00E940C0E853090F4A09147017E
:106DA000B0914801E82FF0E0EB56FE4F1D969C9104
:106DB000808160E0981362E088EA91E00E94DE083A
:106DC00060E189EF0E94C50B86E00E942E09809148
:106DD000240185FD60C085E691E00E946F09E09185
:106DE0004701F091480162E0828593850E94A00BE3
:106DF000E0914701F0914801668584850E94C71C97
:106E000086E00E942E090E94890985E00E94A1095E
:106E1000C43009F0C6C04FE367E48FE377CF8EE458
:106E20000E94F708A2CF85FF1DC084E40E94F708E6
:106E3000DF5FC330D9F489E991E00E946F0981ECEA
:106E40000E94B70889E392E0D13049F085E492E0EE
:106E5000D23029F085E192E0D33009F09BCF0E9437
:106E6000F40898CF85E40E94F708E3CF84EA91E024
:106E70000E946F0982EC0E94B70885E092E0D13051
:106E800071F38BE092E0D23051F3D33009F082CF2E
:106E900083EF91E0E4CFE0914701F09148018F70DA
:106EA000843009F44EC0668584850E94C71C0E9408
:106EB000890960E084E00E94950789E40E94F70850
:106EC0000E945309E0914701F091480122E041E41A
:106ED0006AEF868197810E94950B8FE591E00E9471
:106EE0006F09E0914701F091480162E08285938546
:106EF0000E94A00BE0914701F091480180859185A7
:106F0000803C9241E0F480E00E94480989E40E94BC
:106F1000F7080E94530922E041E46BEF90E080E023
:106F20000E94950B8FE591E00E946F09E091470167
:106F3000F091480162E0808591850E94A00B80E07D
:106F400065CF84819581892B09F4B3CF80E090E0EF
:106F50000E946F09E0914701F091480122E041E46D
:106F60006AEF848195810E94950BA3CF80E00E94F7
:106F700048098D2F0E94870A89E691E00E946F09D7
:106F80008D2F0E94510ADF5F80912301D81770F383
:106F900044E467E483E5C33009F0B8CE43E467E432
:106FA000B4CED0E0F1CF40E0692F0E94EA20DDCBE3
:106FB0009091620124E0929FD0011124A255BE4F0E
:106FC00024E0829FF0011124E255FE4FED90FD90E8
:106FD0000D911C914081518162817381282F4E1542
:106FE0005F056007710708F4292F980FC3E0C91BDC
:106FF0003230E1F0C091630134E0C39FD00111242D
:10700000A255BE4F84E0289FF0011124E255FE4FA7
:107010004D915D916D917C9180819181A281B3812F
:1070200084179507A607B70708F0C22F1C2F1695DF
:10703000D2E0DC1B02E0C11101C001E0812F0E94FF
:10704000190988E191E00E946F098D2F0E941909AA
:1070500088E191E00E946F09802F0E94190980E069
:107060000E942E0981E0C11180E00E942B0A82E07B
:10707000811B0E942B0A79CB8BE792E00E946F095B
:107080000E94A80788EA92E00E946F0983EA92E0D2
:10709000E4CC811116CB9111EACCFCCBFC01EA0DBA
:1070A000FB1DC491C03209F4782E019681319105FF
:1070B000A9F7DD2339F19D2F9370F92E11F40E9469
:1070C000E00760E08F2D880F0E949507A895DF5F8D
:1070D000D370F12CE12CE71410F1CC23C9F0070D8B
:1070E000111DF801ED59FD4FE491E03211F40F5FED
:1070F0001F4F90E080E020E1722E98012D593D4F06
:107100005901CCCF80E197E20E94FE0C882399F2CE
:1071100080E197E20E94FE0C0E94540ED2CAF50153
:10712000EE0DFF1DC491CC2399F3CF3F31F40E94A3
:107130001C092FEFE21AF20ACECF8C2F0E94F7081B
:10714000F8CF0E94A20788E692E00E946F098BECBC
:107150000E940A0C0E94540E90E080E0CDB7DEB78A
:10716000E2E1C1C0DB018F939F9391D0BF91AF91BA
:10717000A29F800D911DA39F900DB29F900D112491
:107180000895991B79E004C0991F961708F0961B83
:10719000881F7A95C9F780950895AA1BBB1B51E1FA
:1071A00007C0AA1FBB1FA617B70710F0A61BB70B77
:1071B000881F991F5A95A9F780959095BC01CD011C
:1071C000089597FB072E16F4009406D077FD08D09B
:1071D000E4DF07FC05D03EF4909581959F4F08951C
:1071E000709561957F4F0895A1E21A2EAA1BBB1BD3
:1071F000FD010DC0AA1FBB1FEE1FFF1FA217B30783
:10720000E407F50720F0A21BB30BE40BF50B661F98
:10721000771F881F991F1A9469F76095709580955C
:1072200090959B01AC01BD01CF010895052E97FB00
:1072300016F400940FD057FD05D0D6DF07FC02D01E
:1072400046F408C050954095309521953F4F4F4FDB
:107250005F4F089590958095709561957F4F8F4F02
:107260009F4F0895A29FB001B39FC001A39F700DCF
:10727000811D1124911DB29F700D811D1124911D3E
:107280000895F0DFB7FF0895821B930B0895EADF9E
:10729000A59F900DB49F900DA49F800D911D11246A
:1072A0000895B7FFF4CFF3DF821B930B08952F925D
:1072B0003F924F925F926F927F928F929F92AF9286
:1072C000BF92CF92DF92EF92FF920F931F93CF93D3
:1072D000DF93CDB7DEB7CA1BDB0B0FB6F894DEBF6A
:1072E0000FBECDBF09942A88398848885F846E8490
:1072F0007D848C849B84AA84B984C884DF80EE80DA
:10730000FD800C811B81AA81B981CE0FD11D0FB6E2
:10731000F894DEBF0FBECDBFED010895BB27FA0183
:10732000A62F6217710581059105330B30FB66F0BE
:10733000AA27660F771F881F991FAA1FA21710F090
:10734000A21B63953850A9F7A05DAA3308F0A95D88
:10735000A19336F7B111B1931082CA0123C045320F
:10736000510518F4423008F004C0FB011082CB0133
:107370000895BB27FB015527AA27880F991FAA1F2D
:10738000A41710F0A41B83955051B9F7A05DAA3340
:1073900008F0A95DA193009779F7B111B19311920B
:1073A000CB0100C0DC01FC01672F71917723E1F76D
:1073B000329704C07C916D9370836291AE17BF07C2
:1073C000C8F30895F999FECF92BD81BDF89A992727
:1073D00080B50895A8E1B0E042E050E013C0262F48
:1073E000F999FECF1FBA92BD81BD20BD0FB6F894AA
:1073F000FA9AF99A0FBE01960895F1DF272FF0CF80
:10740000DC01CB01FC01F999FECF06C0F2BDE1BD64
:10741000F89A319600B40D9241505040B8F7089553
:04742000F894FFCF0E
:00000001FF
