:1000000042C7000052C7000050C700004EC70000A2
:100010004CC700000C94202A48C700000C94740EB2
:1000200044C7000042C700000C9462200C94042ACC
:100030000C94122A0C943C2038C7000036C70000EC
:100040000C94DE2932C7000030C700002EC7000024
:100050002CC700000C94750E28C7000026C70000AE
:1000600024C7000022C70000E62FF72F903009F4C4
:100070009395E5B8C4B8B6EFB0937A00A5E0A09325
:100080007B00A8E0A093810010928000AFEFA093C6
:100090008500A0938400A6E0A093360010928B0008
:1000A00010928A00B3E0AFE3A91B51E0392F33303F
:1000B0002AF0A05CBC4F53953350F9CFB093890020
:1000C000A0938800A0917A00A4FFFCCFB6EBB09378
:1000D0007A00A2E0A0936F00A9E0A093810062E003
:1000E000A0E0A0937B00A1E0A09353008895E5B821
:1000F000C4B884FF1AC0A8E10000AA95F1F7EF93F5
:10010000FF93E7B1F8B1A4E0C2FCA2E0C0FCA1E01B
:10011000BF2FBA2BAE2BB8B904B9A7B9E7B9F8B954
:10012000FF91EF910BC00C947300ACE10000000054
:10013000AA95F1F725B9E5B8000004B9A0918400AB
:10014000A0918500B0918900A395AB1760F7A091AD
:100150007A00A4FFF3CFB6EBB0937A006A9571F7FB
:100160006091780070917900308186FD630F619312
:10017000308186FD731F80FF7193652F4A9579F753
:1001800010926F0010928100B6E0B0937A0008954B
:10019000D601CF01C8011008407E01013E01013E99
:1001A00001013E01017E404018000720080808F8C0
:1001B0000000002060A03FA06020020202FF0202B7
:1001C000021010101F000000050842818989760581
:1001D00008C2A19189860508000402FF00101005DD
:1001E00008F878385888091003081C3E7F0D080766
:1001F00010FF818181F1E1C1FF4040404743410D43
:10020000080110FFFF11080310F1E1C14743410E3F
:100210000008202121122060E0E0E0FEFE0402013F
:100220000001037F7F21C2C4C4C04094840007033F
:100230000102040E080210FEFE7F7F000000001184
:100240000005202060E0E0E00201000103C2C4C418
:10025000C0400703010204010410090A0C4E6F7428
:100260002063616C696272617465642120466F72FB
:10027000FF63616C6962726174696F6E20636C61A7
:100280006D70207468652033FF70696E7320746F21
:1002900067657468657220616E642073746172743E
:1002A000207769746820746865FF6B65792E20413A
:1002B000636B6E6F776C6564676520746865207327
:1002C000656C662D74657374207769746820746832
:1002D00065206B65792077697468696EFF32732ECB
:1002E00020446973636F6E6E6563742070696E730A
:1002F00020616674657220746865FF6D6573736153
:100300006765202269736F6C617465FF50726F625C
:100310006521222069732073686F776E2E20536FDA
:1003200066747761726520616E6420646F63756DB9
:10033000656E746174696F6E2069732061742073D7
:10034000766E3A2F2F206D696B726F636F6E7472C9
:100350006F6C6C65722E206E65742F7472616E7393
:100360006973746F72207465737465722000B903C9
:10037000870358032E030703E402C302A402880282
:100380000000140029003E0053006900800097001F
:10039000AE00C600DF00F80012012D014901650121
:1003A0008201A001BE01DE01FF01210244026802B8
:1003B0008E02B502DE020903350364039403C80309
:1003C000FE0337047304B404F90443059305EA05F6
:1003D0004906B3062907AE074808FF08DE09FD0AEB
:1003E000930C480F991B0000000000000000000063
:1003F0000000000000001E2121211200807F00006B
:10040000007E4A4A4A34000000000000FC402010F0
:1004100008040201000000010101010101010101C4
:10042000010101017F0488D0E0F0F8000000000025
:1004300000000000000000000000000000FC949498
:100440008400000102FC0000000000000000000029
:1004500000001E21212112E0C0804020100F00006A
:1004600000C020202040000000FC00009E9E0403ED
:10047000030303020000002020232425252320203D
:10048000203F00007B7B2142840480C000000000EC
:1004900000000000000000000000FC9494840004B0
:1004A0000607070708F00000000000000000000039
:1004B000000000803F2121120C00000000FF00001E
:1004C00000F0084848C80000FE0000E7818181C1B3
:1004D000E1F18181810100202020212121202020A3
:1004E0003F0000F340404041434740407FC0000090
:1004F00000000000000000000000000048949494F8
:100500006400000000FF0000000000000000000088
:100510000000000000003F2121120C0000FF00003D
:1005200000F0084848D0000000000000FEFE04046F
:100530000404040404070008080809090908087FDE
:100540003E1C08087F7F20202020202020E0000083
:1005500000000000000000000000000000004894BF
:100560009494640000FF0000000000000000000000
:1005700000FF003C0A090A3C00223129292600001C
:1005800082868E9EBEFEFEBEDEEFF6FAFEFEFAF21A
:10059000E2C28200000008080804027984A4A4686A
:1005A00000FF00000000000000000000000000004C
:1005B000000000000000000000FF0000F0282428D8
:1005C000F0001008FC000000000000000000000027
:1005D000003C0A090A3C00FF000000000000000087
:1005E00000000000000000000000040C1C3C7CFF28
:1005F0007C3C1C0C040000000000009EA1A9A99AEC
:10060000804323130B0703FF0303030303030000CB
:10061000000000000000000000788484844800FF8F
:10062000000000000000000000F00804E2110909C9
:10063000090909090909091121C2040810E000008B
:100640000001020404070000000000804020108820
:100650004423100804030000000000000000000014
:1006600000FE0100FC02010000000000000000008C
:1006700000000000000000000079494979000000F6
:1006800000000000000040F010101010F0400001C9
:1006900001010101010040FCF8F0E040FC400007CE
:1006A00003010000070040FC40E0F0F8FC400007B8
:1006B00000000103070040FCFC0000FCFC400007B8
:1006C000070000070700788482028284780006040D
:1006D00007000704060000FC000000F01000100FE7
:1006E000020402070400080808080808F84002028B
:1006F00002020202030040F8080808080808000384
:1007000002020202020240404040404040400000DD
:10071000000000000000C000008000008000010216
:1007200002010202010200800000800000C00201FC
:1007300002020102020100F8040222548800101F84
:100740001002020100000000000000000000000094
:100750000000000000000000000000000000000099
:100760000000000000000000000000000000000089
:100770000000000000000000000000000000000079
:100780000000000000000000F80402FE02000C0659
:10079000050404070C0002FE020002FE020004072A
:1007A000040404170C0002FE02F002FE020004071B
:1007B000040704170C000000E01008F808000C06FD
:1007C000050404070C00804028F82840800001023E
:1007D000141F1402010008F8080008F808000407B4
:1007E000040404170C0008F808C008F808000407FF
:1007F000040704170C00001018FCFC18100000017E
:10080000010101010100001018FC18100000000097
:10081000000100000000000000FC000000000001DA
:100820000101010100004040404050E04000000054
:100830000000010000002070A820202020000000FF
:10084000000000000000E0000000000000000101C6
:100850000101010101002070A82020A870200000E3
:1008600000000000000000C0F0FCF0C0000000002C
:100870000000000000000C3CFCFCFC3C0C000000F4
:100880000000000000000000000000000000000068
:10089000000000000000000000FE0000000000005A
:1008A000000D0000000000160E0000160E000000F3
:1008B0000000000000000010FC1010FC10000001FF
:1008C000070101070100001824FE4488000000030E
:1008D000040F040300000C12924C201008000201C7
:1008E0000006090906008C5222528C40C000010209
:1008F000040404010200000000160E0000000000C5
:100900000000000000000000F008040200000000E9
:100910000102040800000000020408F000000000CA
:100920000804020100004850E0FCE05048000201C9
:10093000000700010200404040F840404000000035
:1009400000030000000000000000000000000000A4
:1009500000160E00000040404040404040000000B3
:100960000000000000000000000000000000000087
:100970000006060000000000804020100800020170
:10098000000000000000F80402020204F800010266
:10099000040404020100000804FE02000000000438
:1009A000040704040000080402824224180004061C
:1009B00005040404060006020202122AC60001020F
:1009C000040404020100C0A09E8080FC800000009E
:1009D0000000040704003E120A0A0A12E60001029F
:1009E000040404020100F84422121224C00001028F
:1009F0000404040201000E02C262321A0E0000005A
:100A000007000000000088542222225488000102BE
:100A1000040404020100384482824224F8000002E7
:100A20000404040201000000001818000000000087
:100A3000000606000000000000181800000000007A
:100A400000160E0000000040A01008040200000084
:100A500000010204080000202020202020000001C6
:100A60000101010101000002040810A0400000087B
:100A70000402010000001804028242241800000051
:100A8000000D00000000F804D252E204F800010258
:100A900005050405040200F0080402FE0200040734
:100AA00005010507040002FE2222225488000407E3
:100AB000040404020100F804020202048E00010290
:100AC00004040402010002FE02020204F80004070A
:100AD00004040402010002FE222272020E00040736
:100AE00004040404070002FE222272020E0004071E
:100AF000040400000000F80402C24244DE000102C7
:100B000004040201070002FE222022FE0200040764
:100B1000040004070400000202FE020200000004B8
:100B20000407040400000000000202FE02000003AB
:100B300004040403000002FE62900804020004079B
:100B400004000106040002FE020000000000040789
:100B500004040404070002FE38E038FE0200040723
:100B600004000407040002FE1A6082FE020004076B
:100B7000040005070400F80402020204F800010260
:100B800004040402010002FE424242241800040749
:100B9000040000000000F80402028204F8000102D0
:100BA00004040405020402FE42C2422418000407A1
:100BB0000400010604008814222222448E0001024F
:100BC0000404040201000E0202FE02020E000004F0
:100BD00004070404000002FE020002FE02000003FB
:100BE00004040403000002FE820082FE02000000F2
:100BF00003060300000002FE02F002FE02000001F4
:100C000007030701000002DE722072DE0200040703
:100C1000040004070400027EC280C27E02000000BD
:100C20000407040000000E824222120A0600070494
:100C300004040404070000FE020202000000000792
:100C400004040400000008102040800000000000A0
:100C50000000000102000000020202FE000000008D
:100C60000404040700001008040204081000000037
:100C70000000000000000000000000000000080864
:100C80000808080808000000000E16000000000018
:100C9000000000000000904828284890E000010271
:100CA00004040402070002FE10080810E000040714
:100CB000020404020100E0100808081038000102D4
:100CC000040404020100E010080810FE0200010202
:100CD000040402070400E050484848506000010244
:100CE00004040402010020F82422020C000004077E
:100CF000040400000000E010080810F808000009D3
:100D000012120907000002FE100808F00000040794
:100D1000040004070400001016F6000000000004A0
:100D20000407040400000000101616F00000000C78
:100D30001010100F000002FEC02010081800040759
:100D400004010204040000000202FE000000000092
:100D500004040704040008F808F008F00000040781
:100D600000070007040008F8201008F0000004073E
:100D7000040004070400E01008080810E000010265
:100D800004040402010008F810080810E000101F15
:100D9000120404020100E010080810F80800010223
:100DA0000404121F100008F820100808300004077F
:100DB0000400000000001028484848903800010254
:100DC0000404040201000808FE08080000000000F6
:100DD00003040404020008F8080008F808000003EF
:100DE00004040207040008F8880088F808000000DE
:100DF00003060300000008F808C008F80800000314
:100E000006030603000008B8E040E0B80800040745
:100E100000000007040008F8080008F808000009AE
:100E20001212110F0000180888482818080006053B
:100E300004040404060040B01C020200000000018B
:100E4000070808000000000000FE0000000000008D
:100E5000001F00000000000002021CB04000000063
:100E60000808070100000C02020408080402000040
:100E7000000000000000C02010081020C000010188
:100E800001010101010011241FBECFEFD8E0DEBF38
:100E9000CDBF21E0A0E0B1E001C01D92A63CB207A9
:100EA000E1F70E9456350C946A3DAAC86F938F9360
:100EB000559817D5529A15D58AE70ED06F9180E8CC
:100EC00060FD80E409D08F9107D0529A0AD55598D9
:100ED00008D5529806C508950894881F559A10F4AD
:100EE000529801C0529AFDD45598FBD4880FB1F79F
:100EF000559A5298F6D455984D9BFECF4A9981E069
:100F0000F0D4559AEEC40895529855985A985D9821
:100F10000895609346018093040186958093AD0106
:100F2000660F660F660F60930F010895809146016A
:100F3000809301018091AD01809303010895809118
:100F4000030160910101880FE4CF0895CF93C82F6A
:100F5000692F81E0ABDF6C2F81E0A8DFCF9108958E
:100F6000682F80E0A3CF08958DE086D48AE084C402
:100F700008951092AD0160E080E0CBDFF5CF0895D9
:100F8000CF93DF9385E1ECDF80E0EADF8FE3E8DFFA
:100F900080E0E6DF85E7E4DF80E0E2DF8FE7E0DFA7
:100FA000C0E0D0E190E080E0D1DF2197D9F7E1DF28
:100FB000DF91CF910895A8DF84E196D48EEAD0DF47
:100FC00085E1CEDF80E0CCDF8FE3CADF85E7C8DFD5
:100FD00080E0C6DF8FE7C4DF81E8C2DF80E8C0DFE2
:100FE00080EABEDF81E5BCDF83EBBADF80E0B8DFFB
:100FF0008EEBB6DF8FE0B4DF8CEBB2DF88E0B0DFE2
:1010000085EDAEDF82E6ACDF80EAAADF80E4A8DF10
:10101000B7DF8FEAA5CF089581E08093AD0160E04E
:1010200082E077DFA1CF089582E08093AD0160E098
:1010300084E06FDF99CF089583E08093AD0160E095
:1010400086E067DF91CF08950895582F28E030E0BB
:1010500090E841E080E0652F642309F0892B440F7C
:10106000969521503109B9F70895A4E0B0E0EBE37B
:10107000F8E00C94A93C9C838B83C02ED12CC60134
:10108000860F911D81389105DCF5F12CC701840F85
:10109000911D81389105A4F54695A42EB12C3C01F3
:1010A00031E0631A710877FC3C0175946794822FD4
:1010B0008270282E21FF15C091E0E91AF10893E013
:1010C000F594E7949A95E1F7EC9CC001ED9C900DA6
:1010D000FC9C900D1124EB81FC81E80FF91FFC832F
:1010E000EB834D5F498380E8801B482E461A2170B0
:1010F0002A837601F1E0EF1AF1086A147B0420F4E8
:101100002496E2E10C94C53C10E000E08B809C80CA
:101110008E0C9F1CC016D10681F4222009F443C016
:101120008B819C818C199D099C838B83F4E0AF0E8D
:10113000B11C39813C5F3983E0CF85E111DF8A2D15
:101140000FDF89810DDF85E70BDF542C500E852DD5
:1011500007DF852D05DF3A81F401E01BF10B332316
:1011600021F0EB81FC81E00FF11F5490211003C0AE
:10117000852D6BDF582E84E0382E852D807C6FEF17
:10118000803C39F06FE0803821F060EF803409F066
:1011900060E081E08BDE550C550C3A943110EDCFB8
:1011A0000F5F1F4FB7CFEB81FC81EC0DFD1DFC8362
:1011B000EB83BCCFEF920F93482F8F7320E6829F73
:1011C000C00111248A519C4F28E046FF28E4209357
:1011D00010011092000147FD08C02091100130E27B
:1011E000309300012D5E2093100120E2E22E08E1F1
:1011F00020E0409100016091100137DF0F91EF90E6
:101200000895EF920F93262FFC013491319644916B
:10121000319604913196E490E09100014E0F609177
:101220001001630F049621DF0F91EF90089560E0A5
:10123000E8CF0895EF920F93CF93C82F8091460186
:101240008F5F8093460140910401440F440F440F87
:1012500020E1C29FC001112420E1E22E08E020E03D
:1012600060910F018A57994F00DF80910F01885FCD
:1012700080930F01EFEFEC0F8C2FEA30B0F4F0E029
:10128000EC5BF64F0C94BE3B4E0952095B096309B7
:1012900061095D095D095F09690969098EE3ECD29D
:1012A0008CE703C08CE7E8D28CE3E6D2A895CF9117
:1012B0000F91EF9008958CE7F2CF82E5F6CF8DE2A3
:1012C000F4CF85E7F2CF8FE4D7D288E6D5D28DE68A
:1012D000ECCF8CE4EACF8F5CADCF089580E2AACF4B
:1012E0000895CF93C82F1C1614F0CF910895F6DF00
:1012F000C150F9CF9091460180E1891BF2CF08954A
:10130000CF93C82FF7DF8091AD018F5F8093AD0140
:10131000883070F087E08093AD0181E080934901CF
:101320008091AD016C2F880FF4DD1EDECF91089502
:1013300010924901F5CFE4DF32D48091AD018330C2
:1013400008F012CE089515DED5DF13CE089564DEC1
:10135000D1DF62CE08958DE36DCF0895CF93DF93F3
:10136000EC018991811103C0DF91CF91089562DF73
:10137000F8CFCF93DF93EC01FE018491982F9F77F4
:1013800019F058DF2196F8CFDF91CF910895CF93D0
:10139000DF93EC01CE010E943C3D982F9F7719F01E
:1013A00049DF2196F7CFDF91CF910895EF920F9308
:1013B000FC0104913196E490029657DE0F91EF9074
:1013C00008950F9380E991E0E2DF409191014D3F54
:1013D0006CF460917F017091800180918101909106
:1013E000820103E026E417D10F9108958FE322DFF5
:1013F000FBCF909124019F70923071F49CDF84E7C1
:1014000090E0C5DFE0914701F091480122E044E01F
:101410006FEF84819581E1C1089597FF09C08F9393
:101420009F938DE207DF9F918F91909581959F4FBC
:101430006CE271E04AE050E00E94093D8FCF0895D0
:10144000ECDF01C0EADF4ACF0895EF92FF920F93DD
:101450001F93182F062FF42E82E791E098DFEE24D9
:10146000E0914701F09148018685E81611F4812F3B
:1014700009C08485E81611F4802F04C08585E8161C
:1014800011F48F2DD7DEE3948E2D833049F71F9111
:101490000F91FF90EF900895EF92FF920F931F939B
:1014A000182F062FF42E80E046DF88E791E06FDFEB
:1014B000EE248E2D10DF4FDFE0914701F0914801BF
:1014C0008685E81611F4812F09C08485E81611F489
:1014D000802F04C08585E81611F48F2DABDEFEDE6B
:1014E000E3948E2D833029F71F910F91FF90EF9099
:1014F0000895682F80E092E0662309F491E062305D
:1015000009F481E008950F93082FEEEAF1E0880FC7
:10151000880FE80FF11D60817181828193816436AB
:1015200071058105910570F42091020127FD0AC023
:10153000802FDFDF692F0E94E1256EEF23E044E07A
:101540004CD104C04FEF04E024E065D0C7DE0F911A
:101550000895863058F4E1EAF1E0E80FF11DE80F54
:10156000F11D8081918163E043D1B8CE08951F932E
:10157000182F80917A01882319F0B0DE80E05ADEBE
:101580004BDD89E691E003DF812F82958F70E1DFEB
:10159000812F8F70DEDF1F91089580911101829558
:1015A0008F7019D08091110183701CD0809111012E
:1015B000DECF0895E5E9F1E0E80FF11D0895CF933E
:1015C000F9DF9081C681C91710F405D001C013D08E
:1015D00085DECF910895EEDF8F9380817CDE8F9141
:1015E00001C008958F9387E391E0D1DE8F91E2DF10
:1015F000868171CE0895DEDF8F9386816CDE8F91B8
:1016000001C008958F9383E391E0C1DE8F91D2DF13
:10161000808161CE0895AEE0B0E0E1E1FBE00C94A2
:10162000A93C142F622E702E6B017C010F7080E399
:1016300089838A838B838C838D838E83F7FE40C05E
:101640008DE2F8DDF094E094D094C094C11CD11CDC
:10165000E11CF11C68EE862E63E0962EA12CB12CC5
:10166000033041F150E1852E57E2952EA12CB12C8B
:10167000043001F140EA842E46E8942EAA24A39473
:10168000B12C0530B9F030E4832E32E4932E3FE0E4
:10169000A32EB12C063071F074E6872E912CA12C6C
:1016A000B12C073039F420E8822E26E9922E28E961
:1016B000A22EB12C9AE0292E312C412C512C12C093
:1016C00075FEC8CF8BE2B6DDC5CFC701B6016B5F33
:1016D0007F4F8F4F9F4FA20191010E94803B690174
:1016E0007A011F5FC814D904EA04FB0470F781E192
:1016F000810F9BEA899F812D1124A82EA69486E054
:10170000811B899F112D11241695912F990F190F67
:10171000811B182F4E0187E0880E911C2AE0A4013E
:10172000C701B6010E94E83CF40101900020E9F7EE
:1017300031977F01E818F9089E2C6701DD24812F7D
:1017400090E004968C159D0514F4A3941D5F8A2DDA
:1017500090E0845D9F4F0E943C3DA82E74FE29C0FE
:10176000901638F50E198E2C811A800E181424F05C
:101770008EE260DD012F0E19111102C088EF882E54
:10178000912C10E0C00ED11EE82C082C000CFF0894
:10179000E92DF0E0EC15FD0574F0AA2011F08A2D7A
:1017A00049DD662011F0862D45DD2E96E2E10C9490
:1017B000C53C00E0D8CF3696E01BF10B81E090E00D
:1017C0008C0F9D1FE80FF91F808134DD93949E14C8
:1017D0001F04F1F68EE22EDDDBCF0F93362FBC0116
:1017E00090E080E0022F242F432F15DF0F91089502
:1017F0000F93062FBC0190E080E026E54DEF0BDF54
:101800000F9108950F93042F28E440E004DF8AE746
:1018100011DD64DD0F910895E82FF0E0EE0FFF1F5A
:10182000E057FE4F8591949120910001420F209145
:101830001001620F20E0BACD0895CF93DF93C82F37
:10184000D62FE0914701F091480148E16EE186858D
:10185000E3DFE0914701F09148014D2F6C2F848523
:10186000DBDFE0914701F091480140E06EE18585C2
:10187000D3DFDF91CF9108958F932F932AE0809546
:101880003B9A089410F4439802C0439A000020D079
:1018900027D086952A95B1F72F918F91089503D07F
:1018A00002D001D000D000D003D002D001D000D0AF
:1018B00000D003D002D001D000D000D0A89503D032
:1018C00002D001D000D000D003D002D001D000D08F
:1018D00000D003D002D001D000D000D003D002D07D
:1018E00001D000D00000089590E0893C28F0885C89
:1018F00048EC849FC0011124009709F408952091B9
:101900008100277019F0DADF0197F6CF8130910559
:1019100019F002973EE303C037E180E090E02091A8
:10192000B200230F2093B30042E04093700027E001
:1019300023BF889526E023BF10927000A895DCCFC6
:101940008F9384E0D1DF07C08F9382E0CDDF03C0A7
:101950008F9381E0C9DF8F911F93182F106410932C
:101960007C00E12FE07880913701E81759F0E0938F
:101970003701AEDF8EE980937A0083E083BF8895DC
:1019800082E083BF20E030E0A901E0E01FC08EE9E3
:1019900080937A0083E083BF889582E083BF609163
:1019A000780070917900260F371F411D511DE430DA
:1019B00061F480913901803041F084E020303807B3
:1019C00020F417FD02C01068CACFEF5F8091360186
:1019D000E817E8F260913A0170913B0117FF04C0EB
:1019E000609138017091390180E090E00E943E3BA7
:1019F0002FEF33E040E050E00E94803BB901CA0184
:101A00002091360130E040E050E00E94803BC90167
:101A10001F9108959B01281B390B50F0C9010895AF
:101A2000BC0180913A0190913B016817790718F445
:101A3000861B970B089580E090E0089589B183FBA1
:101A4000882780F94999826090911C01943050F068
:101A50009EE0909318018093190110921D0191E06E
:101A600090931C01E0911C01AE2FB0E0A85EBE4F28
:101A70002C912817C1F081110EC090911D01A3E097
:101A8000AE0FA3702230B1F4B0E0A85EBE4F2C912F
:101A90009F5F2330C1F0EF5FE370E0931C01F0E043
:101AA000E85EFE4F808380911D0187FD0FC080930B
:101AB0001E010895213079F7B0E0A85EBE4F2C9149
:101AC000233049F7915090931D01E5CF8195EFCFD9
:101AD000B0E0A0E0EEE6FDE00C94B23CE82ED92E9A
:101AE00053985198F0DE10921D01E0911C01F0E036
:101AF0003196E370FF27E85EFE4F80EF8083C5E6F6
:101B0000D9E19CDF4F9B24C0CE2DDD2DF12C15E5B6
:101B100000E0BB24B394D7FD15C082E3C82E8EDF4E
:101B2000D6DECA94C110FBCF110F4F9B1F5F1F73EE
:101B30001F33A1F4011103C0CE2DDD2D04E00F5F92
:101B4000083C80F0802FCDB7DEB7E9E00C94CE3CA6
:101B5000BEDED150B1F6C15099F6D6CF111102C0F8
:101B60000111F0CFA8951C161D0624F42A9711F434
:101B7000CFEFDFEF80911E01882339F0F39480913D
:101B80007B01811102C0B0927B0184E18F1508F0C6
:101B9000C2CF80911D018111D5CFF12CBCCFCF9345
:101BA000C5D9C82F80914901882301F1813051F4B2
:101BB000C73041F46FE08EE0ACD98BE23BDB6FE0E5
:101BC0008EE0A7D980E49FE183DF811104C080917A
:101BD0001E018111F7CFC73041F480914901813056
:101BE00021F460E08EE095D985DBA9D9CF910895E5
:101BF00089E493E00E943C3D382F8AE493E00E9400
:101C00003C3D20913E01230F30913F01381F20932E
:101C100021013093220183E0283E380720F0C901DA
:101C2000885E934002C080E090E062E370E00E9432
:101C3000593B683008F067E0EEE6F3E0E60FF11D8F
:101C4000E60FF11D459155912591359162E3681B91
:101C5000421B530B649FC001659F900D1124499650
:101C600062E370E00E94593B620F731F70937E0124
:101C700060937D018BE493E00E943C3D992787FDB2
:101C8000909560913E0170913F01860F971F909350
:101C900039018093380190937901809378010895F8
:101CA000CF93DF9324E130E0B9010E94593BDC017E
:101CB000E0E8F3E0E60FF71FE60FF71FC591D591B7
:101CC000459155914C1B5D0B4A9FC0014B9F900D58
:101CD0005A9F900D1124B9010E94593B6C0F7D1F32
:101CE000CB01DF91CF91089518951895409123016C
:101CF000A0914701B0914801E5E9F1E030E020E032
:101D0000822F2417B0F451911C969C911C9759175F
:101D100019F05581951303C02F5F3F4FF1CF220F6C
:101D2000331FF901EF55FE4F20813181293E3340A9
:101D300008F084E108951092250110922301109279
:101D400073011092590110922401109245011092D2
:101D50007A01EEE5F1E0108211821282EFE7F1E004
:101D6000108A82E0818B10920201178616861482F7
:101D700015821682178281EF838B08958FE47CDDB4
:101D800086E47ADD86E478DDEFD85E988BDD90E03E
:101D900080E09ECE08951F93CF93DF93162F98E097
:101DA00097B998B9E82FF0E0E95AFD4F949195B9A9
:101DB000262F281BE20FF11D27FDFA95E491E92B50
:101DC000E4B9CADDEC01812FC7DDAC0120913A01F5
:101DD00030913B0136952795C9010397BE01625E9C
:101DE0007F4F8617970778F4255E3F4FC217D307BA
:101DF00050F4BA01625E7F4F8617970720F481E0A6
:101E00004217530708F080E014B8DF91CF911F917B
:101E10000895CF9361E080E0BEDFC82F62E080E0EC
:101E2000BADFC80F62E081E0B6DF8C0FCF91089572
:101E3000AFE0B0E0EEE1FFE00C94A93CB82E1092C8
:101E40002501807FB9F4E5DF833081F499D889E5F5
:101E500092E09DDAE1D88FE3EDD980ED97E038DEAE
:101E60008B30B0F48DD885E091E091DA2F96E2E1E5
:101E70000C94C53C06E910E083D888EC91E087DA41
:101E8000C8DF833009F068C01F5F143008F465C0F4
:101E9000C3D80E94C32081EC90E079DA60E083E24D
:101EA00093E00E94493D60E084E293E00E94493D56
:101EB00060E082E293E00E94493D60E082E00E949F
:101EC000E1256C019A83898361E082E00E94E1252B
:101ED0007C019C838B8360E081E00E94E1258C0182
:101EE0009E838D8323E040E26EEFC60176DC23E023
:101EF00040E26EEFC70171DC23E044E06EEFC80101
:101F00006CDC2AE5C216D10424F084E190E09A83C7
:101F10008983698183E293E00E94493D8AE5E8165E
:101F2000F10424F084E190E09C838B836B8184E254
:101F300093E00E94493D0A35110524F084E190E0C8
:101F40009E838D836D8182E293E00E94493D82E011
:101F50008093490124DE06C010E088E2C5DC015010
:101F600009F08ACFEB2DEF70EF87E13009F04CC01C
:101F7000EE24E394F12C78EB872E72ED972E77E424
:101F8000A72EB12CE2E0DE2E08E0F0E23F2EC12CBD
:101F90001E2D50E3252EDBD9D6D984E54BD9C701B8
:101FA00047DA9CD9113009F0CAC184EF90E0EFD92B
:101FB00064E080913E0190913F011ADC2DD88FEEB4
:101FC00090E0E5D980917D0190917E0131DA8EEB30
:101FD0008093360107B908B914B815B888EE93E0B4
:101FE00077DD143011F08B3020F4C39484E0C812F4
:101FF000D2CF88EE93E06CDDEFEFEE1AFE0AF8E048
:10200000EF16F10409F0C3CF18E703DF882341F08E
:102010009ED989E492E0BBD984E666DC1150A9F729
:102020000E94C0078AEB90E0B2D923E044E06FEF52
:1020300080913C0190913D01D0DB0E940C0883EB24
:1020400090E0A5D923E044E06FEF809143019091A7
:102050004401C3DB82E080934901A1DD1092250198
:102060000E94C0078FEA90E092D960E082E00E946F
:10207000761D8090870190908801A0908901B09092
:102080008A019C868B8661E082E00E94761DC0906A
:102090008701D0908801E0908901F0908A01DE8666
:1020A000CD8660E081E00E94761D0091870110914D
:1020B00088011E830D8362E080E00E94761D80917E
:1020C0008701909188019C838B8362E081E00E946C
:1020D000761D80918701909188019A87898761E0B8
:1020E00080E00E94761D80918701909188019A83FB
:1020F00089832F85213029F020914201223009F077
:1021000006C2029698878F83C4019CD9C6019AD9CA
:10211000B801110F880B990B03E026E444EF7BDA3A
:102120008E010F5F1F4F9E01215F3F4F7801F70126
:10213000819191917F010A97853B9105D0F42E17EB
:102140003F07A9F742E4C42E43E0D42EF801608192
:102150000E5F1F4F6E5EC6010E94493DFFEFCF1A12
:10216000DF0A0E151F0591F70E940C0885EB91E020
:102170000ED982E08093490112DD0E94EC312F8557
:10218000213029F080914201823009F0C1C00E94C3
:10219000C00780E0A0D88BE591E0F9D882E09BD819
:1021A00084E290E0F4D820E4F22E10E03AE0832EAE
:1021B000912CA12CB12CBFDD1092250160E082E0B2
:1021C0000E94761D0091910120917F013091800144
:1021D0004091810150918201073F0CF49DC1009311
:1021E000910120937F0130938001409381015093AE
:1021F0008201073F09F098C1205631094109510970
:10220000203935454105510508F08EC16091930193
:1022100070919401CB018B569F4F8B32914008F007
:1022200083C11F5F153008F480C189E493E00E94E8
:10223000573D0E94C0078DE190E0A9D8809193019D
:1022400090919401EAD8D4DC88E088B989E087B914
:1022500080E284B982E080DB853D9340DCF714B8EE
:10226000109239011092380182E076DB7C01809176
:10227000780190917901909339018093380182E03F
:102280006BDB6C01CC0CDD1C109239011092380113
:1022900082E062DB4C01A0907801B0907901B092AD
:1022A0003901A09238010E940C0886E190E06FD8B5
:1022B0008BE493E00E943C3D182FD701A80DB91D77
:1022C000AC19BD0995010E94D33B96010D2C000C61
:1022D000440B550B0E94A23B1D5F120F612F8BE434
:1022E00093E00E94493D812F012E000C990B95D857
:1022F0007FDC82E08093490152DC1092420182E44B
:1023000093E00E943C3D682F85E493E00E94493DA4
:1023100089E18093360180E00E940F350E94C0075A
:1023200085E091E034D80E940C0880E492E02FD838
:102330001092250182E08093490131DC97CD123063
:1023400089F520913A0130913B01A8E5BBE10E945B
:10235000C43B24EC36E340E050E00E94A23B29015C
:102360003A0181E085B9F5E0F4B980E0E9DA841951
:1023700095099A83898381E184B980E0E1DA84193F
:1023800095099C838B8384E085B984E184B981E0DD
:10239000D7DA841995099E838D8389ED90E00E9498
:1023A000C70934C0133049F5D5B82AE024B980E014
:1023B000C7DA20913A0130913B013695279538874D
:1023C0002F83821B930B9A83898382E284B980E0F6
:1023D000B7DA2F813885821B930B9C838B8305B9D9
:1023E000E8E2E4B981E0ACDA2F813885821B930BF7
:1023F0009E838D838BEC90E0D2CF1430C9F489E4B6
:1024000092E00E94C70905DD8111A6C00E940C0858
:1024100089819A8102D80E946E098B819C810E94D9
:102420000D0A0E946E098D819E810E940D0AD2CDF7
:10243000153099F415B8D4B880E082DA9A8389838C
:1024400004B981E07DDA9C838B8334B882E078DA4A
:102450009E838D838BEE90E0A2CF163039F5D4B8F1
:10246000D5B880E06DDA20913A0130913B01821BB2
:10247000930B9A83898304B905B981E061DA2091CD
:102480003A0130913B01821B930B9C838B8334B8C0
:1024900035B882E055DA20913A0130913B01821B38
:1024A000930B9E838D8387EE90E079CF173059F59B
:1024B00020913A0130913B01A8E5BBE10E94C43B69
:1024C000A50194010E94803B29013A01D5B8F3E0AF
:1024D000F4B980E035DA841995099A83898305B9BE
:1024E0002CE024B981E02CDA841995099C838B8334
:1024F00035B824B882E024DA841995099E838D8347
:1025000085EC90E04CCF113009F080CF63CD9887F7
:102510008F8310924201F8CD0F5FCA01B901A50166
:1025200094010E94803B58CE10E00E940C086091FC
:102530007F0170918001809181019091820104E07E
:1025400026E44091910167D80E947A0988E2CCD9AB
:10255000FA94F11030CEDCCE82E0C82E57CF8091B5
:10256000420181110DC082E493E00E943C3D61E094
:10257000680F85E493E00E94493D81E08093420129
:102580000895EF92FF920F931F93CF93DF93D62F6F
:10259000E82FF0E0E65AFD4FE491E8B9E860E7B9CA
:1025A00015B8E62FF0E0E95AFD4FE491E4B9CE2FDB
:1025B000CC0F88E8E82E83E1F82E8D2FC1D98C014D
:1025C000C4B98E159F0518F1892BE1F00E941C08F3
:1025D0008BE391E00E94C709D80120EA36E841E088
:1025E00050E00E94D93B28E937EB40E050E00E94E0
:1025F000803BC90122E041E467EFEFD888E087B96A
:1026000088B914B8CDB7DEB7E6E00C94D13C7801B8
:10261000D4CF0F931F93CF93DF9385E09DD985E0AF
:1026200097D98C01EC01CC0FDD1FCC0FDD1FCA56F2
:10263000DF4F10924001C43883E0D80770F489EA74
:1026400091E00E94C7090E947A0981E080934001CD
:10265000DF91CF911F910F91089588EB91E00E9437
:10266000C70962E0CE01C4D80E946E090A3F86E025
:102670001807A0F40333164050F482EB92E00E9456
:10268000C7090E947A098DEC2FD978DBE1CF89EB5D
:1026900092E00E94C7090E947A09DACF85EB91E0A7
:1026A000F8CFFC019C01261B370BCA0170E060E0EB
:1026B000A901460F511D452F5527620F240F351FC5
:1026C000AC01470F511D452F5527780FDA01AA0F8E
:1026D000BB1F8A0F9B1F4B3E20F4E217F30740F706
:1026E000089590E080E00895A9E1B0E0EAE7F3E121
:1026F0000C94A93C582E462E342EA895E62FF0E0D7
:10270000E95AFD4F24912E87220F2F8B3396349157
:102710003A8BE42FF0E0E95AFD4F44914983339618
:1027200084918F83E52DF0E0E95AFD4F2490922D9E
:10273000990F9F87339624912B8328602C833860D0
:102740003A8345B9EE84E42AE4B827B93B8138B925
:10275000862FFED88C014E8544B9842DF9D8B82E29
:10276000998714B8AAD815B8E4B8842DF1D8B8015F
:1027700051D96C018A8187B988E088B999819229F9
:102780009D8395B994B9852DE3D84AD94C0115B8E4
:1027900094D825B8852DDCD843D99D878C8724B85B
:1027A000852DD6D83DD93C016C857D85C40132D9B3
:1027B0008032E1E09E0730F4F0E2CF16F1E0DF0670
:1027C00008F48AC62C853D85C20ED31E800F911F4A
:1027D000C816D90620F01D870C876B2C79842091B0
:1027E000590180917301820F9927991F02974CF02C
:1027F000213009F09FC59091560180917001981386
:1028000099C5D980DD0CFE84FD283D2D32293B87FA
:102810008C859D858437910508F499C10A96880FA7
:10282000991F6816790608F092C19C8197B9EB81CF
:10283000E8B9F4B8842D88D88C01832D8DD87C011B
:10284000D5B8842D81D89801295A3D4F28173907CA
:1028500008F0AFC088E088B9FA81F7B92B8524B9B0
:1028600025B9832D71D888349F4008F49DC085E038
:102870008093250182E28093240110934F010093FD
:102880004E01B701C801D1D89093550180935401EE
:102890009801A0E1B7E20E94C43B20911F01309152
:1028A000200150E040E00E94803B30935101209392
:1028B00050018F898D2984B915B84C8147B98B8116
:1028C00088B9832D49D88C01842D3ED8B801ADD864
:1028D0009C019093530180935201909124019F7029
:1028E000943071F540915001509151016091540123
:1028F00070915501C901D5DE0097F1F0D4B8EA898D
:102900009C81E92BE7B9842D1FD88C0188E087B919
:102910009801A0E1B7E20E94C43B209143013091AD
:10292000440150E040E00E94803BA901B801809141
:10293000520190915301B5DE90934F0180934E0167
:10294000809124018F70843049F188E088B9EF814B
:10295000FA81EF2BE7B924B82D8125B9852D0E9486
:10296000A80C8C015DD89E838D83842D0E94AC0CB5
:10297000E0902601F0902701BC01C80156D89701CC
:10298000DC010E94C43BED81FE819F0150E040E0EC
:102990000E94803B30934F0120934E01809159015A
:1029A0008F5F809359014EC385E08093250184E2B7
:1029B00062CF88E088B9FA81F7B92B8524B925B9A7
:1029C000852D0E94A40C8C01832D0E94AC0C7C01EF
:1029D00025B8852D0E94A40C895A9D4F8017910718
:1029E00008F0A8C43B8138B94C8147B9832D0E94B7
:1029F000A40C813D934008F0A5C085E0809325019B
:102A000082E380932401B801C7010FD890936F012E
:102A100080936E01C80104D89C01A0E1B7E20E9436
:102A2000C43B209126013091270150E040E00E94F4
:102A3000803B30936B0120936A01F8E0F8B92A815A
:102A400027B98F858D2984B985B9852D0E94AC0C55
:102A50008C01832D0E94A40CB8010E94150D9C01CD
:102A600090936D0180936C01909124019F7094303C
:102A7000A1F540916A0150916B0160916E017091D6
:102A80006F01C9010EDE009721F1D5B8D4B83B81A2
:102A900038B9EC814A81E42BE7B9852D0E94A40C5A
:102AA0000E94100D8C0188E087B99801A0E1B7E27F
:102AB0000E94C43B20913C0130913D0150E040E038
:102AC0000E94803BA901B80180916C0190916D0139
:102AD000E8DD9093690180936801809124018F70F3
:102AE000843051F1EB819F81E92BE8B9EC819E2B79
:102AF00097B915B8FD81F4B9852D0E94A80C7C0109
:102B0000842D0E94AC0C9E838D8300911F01109137
:102B10002001BC01C7010E94150D9801DC010E9433
:102B2000C43BED81FE819F0150E040E00E94803B6C
:102B30003093690120936801809173018F5F8093C6
:102B4000730118C185E08093250184E35ACF88E0A2
:102B500088B9FA81F7B925B82B8524B9852D0E944B
:102B6000A80C998B888B0E94100D98878F83832DDA
:102B70000E94AC0C9A87898783010C591F4F8F8163
:102B80009885B3010817190708F0F6C00E94150DC3
:102B90009C8B8B8B209126013091270150E040E0E7
:102BA00060E871EA83E09CE10E94803BAB89BC89CC
:102BB0000E94D93BE985FA859F0150E040E00E94E0
:102BC000803B49015A0114B815B8FB81F8B92C8132
:102BD00027B981E00E94740CE4B8842D0E94A80CEF
:102BE0008F359D4008F474C1F4B8842D0E94A40C64
:102BF000998F888F832D0E94AC0C9C8B8B8B852D9D
:102C00000E94AC0C9E8B8D8B8B899C89813D97405B
:102C100008F4E6C084E0809325018DE080932401D0
:102C2000288D398D8901061917096216730610F06F
:102C3000088D198DC0901F01D0902001F12CE12C3E
:102C400060E871EA83E09CE1A70196010E94803B65
:102C5000D8010E94D93BEB89FC899F0150E040E0FC
:102C60000E94803B80917301882371F08091640100
:102C700090916501A0916601B09167018217930759
:102C8000A407B50708F099C020936401309365014B
:102C90004093660150936701288D398DA0E1B7E21A
:102CA0000E94C43BA70196010E94803B30936B01B8
:102CB00020936A016B897C898D899E890E94150DFC
:102CC000909369018093680181E040916401509183
:102CD00065016091660170916701481559056A05A3
:102CE0007B0508F06CC08092640190926501A0920F
:102CF0006601B092670169857A85888999890E9401
:102D0000150D90936901809368012F813885A0E1AA
:102D1000B7E20E94C43B209126013091270150E088
:102D200040E00E94803B205F384D30936B01209340
:102D30006A01C0901F01D0902001F12CE12C930179
:102D4000A0E1B7E20E94C43BA70196010E94803B2C
:102D500030936D0120936C012C853D85A0E1B7E295
:102D60000E94C43BA70196010E94803B30936F01F3
:102D700020936E0181E025C08F8198850E94150DFA
:102D80009C8B8B8BFD81F4B9852D0E94A80C998BAF
:102D9000888B0E94100D98878F83832D0E94AC0C26
:102DA0009A878987BC018B899C890E94150D9C019B
:102DB000A4E6B0E00E94C43BFDCE80E086CF811146
:102DC000B8CF909173019F5F90937301882309F4AA
:102DD00077C330927001409271015092720170C3BA
:102DE000F1E66F16710408F073C0288D398D213D0E
:102DF00047E0340708F46CC085E08093250182E148
:102E000080932401C90186509F4FED89FE898E175A
:102E10009F0708F043C083E180932401FA89F7708B
:102E2000DF2E832D806480937C00EBE0EE2E21E08A
:102E300030E03E832D830FEF13E0A89561E0898198
:102E40006ED5F4B886B18D21E9F33E8534B9809111
:102E50007A00806480937A0080917A0086FDFCCFAE
:102E60008091780090917900F801E81BF90B2D8191
:102E70003E812E0F3F1F3E832D83EA94E110DDCF6C
:102E8000C901880F991F880F991F69E070E00E949F
:102E9000593B70936F0160936E014ECE00911F01FC
:102EA00010912001688D798D8D899E890E94150D64
:102EB0009801DC010E94C43BE88DF98D9F0150E030
:102EC00040E00E94803B3093690120936801A6CFC7
:102ED000F4B8D5B8842D0E94A80C6C01832D0E94F3
:102EE000AC0C98878F830E94100D9A8789870C15E8
:102EF0001D0508F0A9C0B301C6010E94150D8C0183
:102F000020911F013091200150E040E060E871EA1B
:102F100083E09CE10E94803BD8010E94D93BE98577
:102F2000FA859F0150E040E00E94803B49015A0130
:102F3000FA81F7B988E088B92D8124B925B9852DA2
:102F40000E94A80C8C01832D0E94AC0C9A87898763
:102F5000842D0E94AC0C7C01003331E1130708F092
:102F6000E6C125B8852D0E94A80C998B888B24B8C2
:102F7000852D0E94A80C9C8B8B8B15B881E00E943C
:102F8000740C25B8852D0E94A80CEB89FC89E034CF
:102F9000F64008F079C08133914108F475C0C8014A
:102FA0008A569F4FE889F989E817F90708F06CC03D
:102FB00086E080932501809159018F5F80935901AC
:102FC000B70189859A850E94150D90934F018093D2
:102FD0004E01B701C8010E94150D909355018093D1
:102FE000540114B815B8FA89F8B981E00E94740C3C
:102FF00024B8852D0E94A80C853F910518F52D81D8
:1030000024B9832D0E94A80C813D9340D8F0852DD2
:103010000E94AC0C8D3D9240A8F024B8852D0E94F2
:10302000A80C8D3D924070F025B881E00E94740C90
:1030300015B8852D0E94A80C853F910518F487E0EE
:103040008093250181E0F8C0E4B8F981F5B9842DB9
:103050000E94A80C6C01832D0E94AC0C98878F8372
:103060000E94100D9A878987C6016C147D0410F4A4
:103070008619970969857A850E94150D9C01A4E639
:10308000B0E00E94C43B4BCFFA81F7B9298124B943
:1030900025B981E00E94740C3B8534B935B9852D82
:1030A0000E94A80C8C010E94100D998B888B832D97
:1030B0000E94AC0C9E838D830E94100D9A87898795
:1030C000842D0E94AC0C7C0189859A858E3F9940A5
:1030D00008F4C1C084E0809325018CE08093240132
:1030E000B301888999890E94150D8C0120912601D0
:1030F0003091270150E040E060E871EA83E09CE114
:103100000E94803BD8010E94D93BE985FA859F0146
:1031100050E040E00E94803B80915901882371F08B
:1031200080914A0190914B01A0914C01B0914D01C9
:1031300082179307A407B50708F07AC020934A01C5
:1031400030934B0140934C0150934D01B7018D8159
:103150009E810E94150D90934F0180934E01288906
:103160003989A0E1B7E20E94C43B20912601309149
:10317000270150E040E00E94803B309351012093B2
:10318000500181E040914A0150914B0160914C0106
:1031900070914D01481559056A057B0508F04AC034
:1031A00080924A0190924B01A0924C01B0924D0145
:1031B000B6018F8198850E94150D90934F018093E1
:1031C0004E019601A0E1B7E20E94C43B20911F018D
:1031D0003091200150E040E00E94803B205F384D5C
:1031E00030935101209350019301A0E1B7E20E9476
:1031F000C43B20911F013091200150E040E00E942B
:10320000803B30935301209352012C853D85A0E1F2
:10321000B7E20E94C43B209126013091270150E083
:1032200040E00E94803B30935501209354010ACF27
:1032300080E0A8CF8111D8CF909159019F5F9093E2
:103240005901882309F43CC130925601509257012C
:103250004092580135C1F1E66F16710408F067C05D
:103260002889398929343D4008F461C085E080937C
:10327000250182E080932401C70186509F4F80176B
:10328000910708F03CC083E0809324010B81077014
:10329000832D806480937C001BE021E030E03E833E
:1032A0002D83A89560E089813AD33B8534B935B93F
:1032B00086B18023E9F724B880917A0080648093F6
:1032C0007A0080917A0086FDFCCF80917800909101
:1032D0007900ED81FE81E80FF91FFE83ED83115027
:1032E00001F7CF01880F991F880F991F69E070E0DF
:1032F0000E94593B70935501609354014FCBC0908D
:103300002601D0902701B701C8010E94150D960132
:10331000DC010E94C43BE889F9899F0150E040E04C
:103320000E94803B30934F0120934E01AFCF88E045
:1033300087B988B914B815B888E087B9F7EC6F1663
:10334000F1E07F0608F4E4C088B92F8524B938EC91
:103350003D834C818A81482B4F839F8197B981E0BF
:103360000E94740CEA81E7B9852D0E94AC0C42974B
:1033700028F0FD81F150FD83F111EFCF2F8524B9A5
:1033800025B961E08981CBD2852D0E94A80C6C0102
:103390003F8934B915B84C8147B98B8188B960E051
:1033A0008981BDD2842D0E94A80C0E94100D9E839D
:1033B0008D839E8594B9842D0E94AC0C8C01852D43
:1033C0000E94A80CB8010E94150D8C01842D0E944A
:1033D000AC0C7C01852D0E94A80CB7010E94150D34
:1033E00098012C5E3F4F2817390708F469C088E020
:1033F00088B9EA81E7B924B825B861E089818FD21C
:10340000842D0E94AC0C7C01852D0E94A80CB70174
:103410000E94150D7C010817190708F060C0FF8590
:10342000F4B9F5B9852D0E94A80C9C01CD82DE82ED
:1034300088EEE81683E0F80608F063C0C70164E68A
:1034400070E00E94593BC701875991098938914121
:1034500008F05EC02E153F0508F05AC08D819E8190
:1034600043E0969587954A95E1F7893C910510F0E0
:1034700088EC90E02D813E81820F931F8E159F0571
:1034800008F046C06217730708F042C0809125011A
:10349000833018F483E08093250120912301822F4B
:1034A00090E0FC01EB56FE4F50824682880F991F38
:1034B000FC01EF55FE4FF182E0822F5F2093230144
:1034C00088E087B988B914B815B88EE20E941A0945
:1034D0006996E2E10C94C53C6B2C79842BCF2F8943
:1034E00024B915B83C8137B94B8148B960E089816E
:1034F00016D2842D0E94A80C0E94100D9C01780108
:1035000097CFB70154E0769567955A95E1F79BCF31
:10351000642D852D01D0D4CFB0E0A0E0E2E9FAE13E
:103520000C94AB3CC82FD62FA895862F90E0FC01B9
:10353000E95AFD4F5490339624914C2F50E0FA01F4
:10354000E95AFD4F149133960491609173013091C3
:103550005901630F7727771F672B09F05AC0A89589
:103560006091290170912A01660F771F660F771FFE
:1035700070933B0160933A016091780170917901F9
:10358000660F771F660F771F7093390160933801BC
:103590003EEB3093360160912301E5E9F1E030E044
:1035A000840F951F63133AC088E088B9286027B953
:1035B00014B915B9B8E1BB2ED12CC12C8D2F0E94A6
:1035C000A80C782E692E8C2F0E94AC0C7C018C19D3
:1035D0009D0997FF03C091958195910903970CF47C
:1035E0005AC1A895BA946701B110E8CF809129011A
:1035F00090912A0190933B0180933A018091780148
:1036000090917901909339018093380189E18093F9
:103610003601CDB7DEB7E0E10C94C73C519145814E
:10362000450F5527551F4817590701F33F5FBACF7C
:1036300025E8C21621E0D206C8F6043AE2E01E07E9
:1036400008F0B5C0F8E9AF16B10480F2C6010E94D7
:10365000100DAC019601A8E9B7EB0E94C43B9A019A
:1036600050E040E00E94803B29013A01C5010E94E0
:10367000100D9C01A8E9B7EB0E94C43B950150E0F6
:1036800040E00E94803B88E7C8168FE0D80608F02B
:1036900072C0F2E0440C551C661C771CFA95D1F7F9
:1036A000C301B201620F731F841F951F25E030E034
:1036B00040E050E00E94803BA4E6B0E00E94D93B8D
:1036C0006B017C01FCEACF0EFDE0DF1EE11CF11C6A
:1036D00010912501143008F089CFC1500C2F0D0F27
:1036E000802F90E0EC01C25ADE4F2881880F991F8D
:1036F000880F991F82559E4FFC01222309F4C4C0F4
:1037000080809180A280B380A70196012819390991
:103710004A095B0957FF07C05095409530952195A0
:103720003F4F4F4F5F4FAAE0B0E00E94D93BF4E615
:103730008F0E911CA11CB11CA50194012C0D3D1DE7
:103740004E1D5F1D0E94803B232B242B252B09F04F
:103750004DCF133019F081E08093250182E08883FA
:1037600080917A01E82FF0E0EF59FE4F00838F5FE0
:1037700080937A013BCFE8E7AE16EFE0BE0670F427
:10378000E2E0220F331F441F551FEA95D1F7CA010B
:10379000B901640D751D861D971D88CF240D351D3B
:1037A000461D571D569547953795279585CFC0904F
:1037B0002601D0902701672D762DE616F70608F42E
:1037C000B701C7010E94150D9601DC010E94C43BA0
:1037D0002B013C01C7010E94100D9C0150E040E00C
:1037E000C301B2010E94803B29013A01A0901F0150
:1037F000B0902001892D982D8017910708F4C801F9
:10380000B8010E94150D9501DC010E94C43B98018E
:1038100050E040E00E94803B88E7E8168FE0F80621
:10382000B0F462E0440C551C661C771C6A95D1F715
:10383000C301B201620F731F841F951F25E030E0A2
:1038400040E050E00E94803B69017A0141CF083797
:10385000EFE01E0770F4CA01B90152E0660F771F4E
:10386000881F991F5A95D1F7640D751D861D971DE8
:10387000E5CF73016201C20ED31EE41EF51EF6945D
:10388000E794D794C79424CFC082D182E282F38296
:1038900081E08883ABCE110F15B814B98C2F0E942C
:1038A000A80C8135910508F0A1CE15B98C2F0E9486
:1038B000A80C6C01802F886087B908B915B854B876
:1038C000A8E14A2EB12CA12C8C2F0E94A80C982E76
:1038D000892E8D2F0E94AC0C8C018A199B0997FFB1
:1038E00003C0919581959109039734F0A8954A9466
:1038F00058014110E9CF7ACE550C54B88D2F0E9453
:10390000A80C5C01F0ECEF16F4E4FF0608F490CE8E
:1039100080EBC8168DE4D80608F068CE8ECECF9323
:10392000C82FC09595B160FF10C0982B95B994B180
:10393000892B84B982E00E94740C84B18C2384B9F1
:1039400085B18C2385B9CF9108959C23EFCFB0E04A
:10395000A0E0EDEAFCE10C94B13C1AE008E08FE352
:10396000C82E99E0D92E07B908B915B8C4B880E0B7
:103970000E94A80C7C0181E00E94AC0CEC0182E06A
:103980000E94AC0C9C01809125018930A1F488E053
:1039900087B914B8F0920601E0920501D0930801AE
:1039A000C093070130930A0120930901CDB7DEB718
:1039B000EAE00C94CD3C84E0E816F10448F4C4300D
:1039C000D10560F42430310510F399E092600AC00B
:1039D00098E088EEE81683E0F80608F499E0C83E1F
:1039E000D340A0F3283E334008F4946097B9D0E068
:1039F000C0E0A89580E00E94A00C5C0181E00E94DC
:103A0000AC0C7C0182E00E94AC0C24E1A21625E003
:103A1000B20608F4389A24E1E21625E0F20608F42A
:103A2000399A843125E0920708F43A9A26E0A216E2
:103A3000B10430F426E0E216F10410F4069738F0F1
:103A40002196C43F81E0D807A1F6D0922501F12C40
:103A5000E12CEC16FD0621F4115009F084CFA6CF1D
:103A60000E94630C2FEFE21AF20AF3CFCF92DF929B
:103A7000EF92FF92CF9320917F013091800140918E
:103A8000810150918201C09191018AE0C82ED12C10
:103A9000E12CF12C8C2FCF5F213A96E8390791E089
:103AA00049075105E0F480939101A0913A01B0914A
:103AB0003B010E94D93B28E833E140E050E00E94FE
:103AC000803B20937F01309380014093810150938C
:103AD0008201CF91FF90EF90DF90CF900895CA01BF
:103AE000B901A70196010E94803BD4CFB0E0A0E0CD
:103AF000ECE7FDE10C94AF3CC82F062F880F8C0F2C
:103B00009FEF960F890F80935B01EC2FF0E0E95A4D
:103B1000FD4F1491862F90E0FC01E95AFD4FF4907F
:103B2000FC01E65AFD4FD491809125018130C1F10D
:103B300020912301E5E9F1E090E080E08217A8F10F
:103B4000D86010928C0110928B0181EF80939101CB
:103B500010927F01109280011092810110928201D7
:103B6000F6DE88E088B9D7B9F4B8F5B88C2F0E9492
:103B7000AC0C5C01802F0E94AC0CA81AB90A14B8D6
:103B800010925D0110925C0180915C0190915D0149
:103B9000843F9140F0F088E087B988B914B815B82F
:103BA000CDB7DEB7ECE00C94CB3C368130130EC0C1
:103BB00030813C130BC0DC01AA0FBB1FAB56BE4FBC
:103BC0001C964D915C914C3D554050F301963196B9
:103BD000B5CF15B914B90E945D0C14B815B80E9480
:103BE000640CA8958C2F0E94AC0C7C01EA18FB0891
:103BF00080915C0190915D018E37910520F08BE4FE
:103C0000E816F10444F280915C0190915D012DE28F
:103C1000E21621E0F2060CF023C2019690935D01BA
:103C200080935C01B1CF0E945E0C8C2F0E94AC0C83
:103C30008A199B09A8952FEFC21AD20A20915C011C
:103C400030915D012C153D0570F75701A81AB90A8E
:103C50001A141B040CF0ADC039ECA316B1040CF01F
:103C60009ACF28EE33E0D5010E94D33B97010F2C69
:103C7000000C440B550B0E94803B690180915C0154
:103C800090915D010196B0E0A0E080938701909350
:103C90008801A0938901B0938A01C7018A0D9B1DF9
:103CA00033D2209187013091880140918901509150
:103CB0008A01DC010E94D93B6093870170938801DF
:103CC0008093890190938A0160937F0170938001B2
:103CD000809381019093820187EF80939101C6DEEA
:103CE00080907F0190908001A0908101B09082012E
:103CF00085E293E00E943C3DA8EEB3E0A81BB10929
:103D000087FDB395A50194010E94E33B24E630E0D2
:103D100040E050E00E94803B20937F01309380017F
:103D2000409381015093820180912301882329F0DF
:103D300080912501853009F02ECF88E08093250100
:103D400080919101909192019817C4F0891323CF2B
:103D500080907F0190908001A0908101B0908201BD
:103D60004091830150918401609185017091860199
:103D7000481559056A057B0508F00DCF40917F0174
:103D80005091800160918101709182014093830183
:103D90005093840160938501709386018093920112
:103DA000D0928E01C0928D0100938F01C09390013B
:103DB000F2CED12CC12C62CFCADD15B88FE087B905
:103DC00088E088B9F12EFF0CF4B880E480937B0082
:103DD00084E580BF8C2F806480937C0086E1809393
:103DE0007A000E94670C10925D0110925C011092A3
:103DF0008000109285001092840087E286BB81E2E9
:103E000080936F0081E080937C01F5B8909125014B
:103E100080938100953009F005C181E090E00C2E7F
:103E200001C0880F0A94EAF780958F7087B9F894DB
:103E300083B7817F83BF80917C01882389F083B71A
:103E4000816083BF7894889583B78E7F83BFF89411
:103E5000A89580915C0190915D018034964059F75E
:103E6000789410928100E0908600F0908700109284
:103E70006F0086E980937A0014B815B88C2F0E94E1
:103E8000AC0C20913E0130913F01821B930B0C96AC
:103E9000909394018093930180915C0190915D01D6
:103EA0008032934008F077CE80915C0190915D0163
:103EB00090938A0180938901F0928801E0928701B2
:103EC00084EF8093910180915C0190915D01823437
:103ED0009105C8F0609187017091880180918901F6
:103EE00090918A0124E630E040E050E00E94803B5F
:103EF00020938701309388014093890150938A0170
:103F000086EF80939101A0917D01B0917E01209177
:103F10008701309188014091890150918A010E9466
:103F2000D93B20E233E040E050E00E94803B209308
:103F30008701309388014093890150938A0120932F
:103F40007F013093800140938101509382018EDD87
:103F500080919101843F09F054C0C0907F01D090BE
:103F60008001E0908101F090820180EAC8168FE024
:103F7000D806E104F104C0F4A70196012C543F4F88
:103F80004F4F5F4F60EA7FE080E090E00E94803B0F
:103F9000C20ED31EE41EF51EC0927F01D092800196
:103FA000E0928101F0928201C0907F01D090800167
:103FB000E0908101F0908201C114D10421E0E20679
:103FC000F10490F5D092BF01C092BE0180915B01D7
:103FD00090E08E5B9C4F0E943C3D90E0B0E0A0E002
:103FE0008C159D05AE05BF0530F5C81AD90AEA0A39
:103FF000FB0AC0927F01D0928001E0928101F09291
:10400000820114B980917F0190918001A09181017A
:10401000B09182014997A105B10508F4BCCDD12C1E
:10402000C12C82CED7B903CF81E090E09093BF013D
:104030008093BE01CBCF34E1C30ED11CE11CF11C37
:10404000C816D906EA06FB0610F40E94AF121092B9
:104050007F01109280011092810110928201D1CFD4
:10406000892B31F485E1E81685E0F8060CF0A4CE42
:10407000C701D12CC12CE2CD1F920F920FB60F9227
:1040800011248F939F93B59904C080917C01811175
:1040900009C0B59B10C080918600909187008A3F2F
:1040A000910548F480915C0190915D010196909397
:1040B0005D0180935C019F918F910F900FBE0F90D7
:1040C0001F9018951F920F920FB60F9211248F9385
:1040D0009F9310927C01B09B10C0809186009091BC
:1040E00087008A3F910548F480915C0190915D01C1
:1040F000019690935D0180935C019F918F910F9049
:104100000FBE0F901F9018950F9221E08C329207EE
:1041100010F48CE291E08C52914069E170E00E94D1
:10412000593B99E16B3210F0982F6BE2981BE7EC4A
:10413000F2E0E60FF11DE60FF11D9F93CF010E9403
:104140003C3D482F3196CF010E943C3D582F31967F
:10415000CF010E943C3D282F3196CF010E943C3D6B
:10416000382F6F91421B530B649FC001659F900DC8
:1041700011240C9669E170E00E94593B620F731F95
:10418000CB010F900895B0E0A0E0E9ECF0E20C94D0
:10419000AF3C88E893E190932A01809329019093A2
:1041A0003B0180933A018EEB80933601C8E0C8B999
:1041B00088E187B90E946C0CC7B984E00E94A80C02
:1041C000AC018B5C9840833F9140A0F481E08093E8
:1041D000450120913A0130913B01AFEBB9E00E94DB
:1041E000C43B9A0150E040E00E94803B30932A019A
:1041F000209329018091290190912A0190933B01FC
:1042000080933A018EE00E94AC0C8EE00E94A80CD4
:1042100090933F0180933E010E94F80D98DB88E067
:10422000F82EF8B8C9E0C7B985E185B9D1E0D4B9AD
:1042300080E00E94A80C8C019AE0D92ED7B824E027
:10424000B22EB4B881E00E94A80C080F191F3CE000
:10425000E32EE7B840E1C42EC4B882E00E94A80C67
:10426000080F191F15B8C8B9C7B9D4B980E00E94A2
:10427000A80C0E94100DEC01D8B8D7B8B4B881E0F2
:104280000E94A80C0E94100DC80FD91FE8B8E7B80B
:10429000C4B882E00E94A80C0E94100DC80FD91F5C
:1042A000F7B8F8B814B880913A0190913B016C01CD
:1042B000CC0CDD1CC80ED91EC01AD10ACC1ADD0ADE
:1042C000F12CE12C9801A0E9BAE10E94C43BA701BE
:1042D00096010E94803B49015A013093440120938A
:1042E00043019E01A0E9BAE10E94C43BA7019601E7
:1042F0000E94803B30933D0120933C012057354E76
:10430000309327012093260180E7881A85EE980ACA
:104310009092200180921F0189E180933601CDB7F0
:10432000DEB7ECE00C94CB3CCF92DF92EF92FF92A1
:104330000F93CF93DF93F82ED62FC42F0E946B09D3
:1043400088E191E00E94C709FED16D2F8F2D0E9458
:104350008333C090C201D090C301E090C401F090BB
:10436000C5018091020187FD05C0C114D104E1049B
:10437000F10421F084E191E00E94C7098D2F0E9491
:104380006B09C114D104E104F10409F474C00E9462
:104390006E09809161010E94830ACC2309F467C0F1
:1043A000809146018D3030F48650990B845B9C4F90
:1043B0000E94C70980E00E949B09CD28CE28CF2803
:1043C00009F45EC06091C2017091C3018091C40183
:1043D0009091C50103E028E447EF0E940B0B87E2B0
:1043E00091E00E94C70987E593E00E94443D23E0E5
:1043F00046E464EF0E94ED0B8091BA019091BB01FD
:10440000A091BC01B091BD01892B8A2B8B2B01F1AE
:1044100080E00E949B096091BA017091BB0180917C
:10442000BC019091BD0104E028E440E00E940B0B28
:1044300082E291E00E94C70923E040E26FEF8091A1
:10444000C0019091C1010E94ED0B0E947A0907C042
:1044500080E00E948009809149018823B1F3DF91B7
:10446000CF910F91FF90EF90DF90CF90089580E073
:104470000E949B09A7CFC11193CF80E00E949B09A6
:10448000809161010E94830A809102018E3F0CF0AD
:10449000B3CF8FE391E00E94C70960910B01709147
:1044A0000C0180910D0190910E0103E028E44091F0
:1044B00002010E940B0BA0CFEF92FF920F931F936C
:1044C000CF93DF93182F0E94B90780918F010E942C
:1044D0006B098BE591E00E94C7091BD560918F01A4
:1044E000809190016ED3EC0190938C0180938B01AD
:1044F000E0908D01F0908E01CA3F8FEFD80720F435
:1045000089E191E00E94C709809190010E946B09A6
:10451000112309F445C0909146018DE0891B0E944A
:10452000710989E790E00E94C7090E940C08609118
:10453000830170918401809185019091860104E04E
:1045400026E4409192010E940B0BCA3FDF4F68F4B2
:104550008AE491E00E94C70922E044E06EEF809176
:104560008B0190918C010E94ED0B0E947A090E94B0
:104570001408E114F10469F083E491E00E94C70992
:1045800022E045E26FEF80918D0190918E010E94B3
:10459000ED0B0E947A09CDB7DEB7E6E00C94D13C72
:1045A0000E947A09C2CF8F7021F40E941C080C94DB
:1045B000091308958F3021F490914001913011F04A
:1045C0008F5F089580E00895CF9384E890E00E9483
:1045D0002D2EC0E00E949B0E60E082E00E948C1AAB
:1045E00062E080E00E948C1A0E94B90780917A01F3
:1045F0008823C9F041E062E080E096DE8C2FD3DFB3
:1046000088EE93E00E94680D811109C080911E011F
:10461000843028F48C2FCEDFC82F8A3FD8F20E9436
:10462000C007CF91089584E890E00E94C70980E513
:1046300093E00E94C7090E940C088FE30E941A09A8
:1046400080E00E9480090E947A09D8CF0F931F93BF
:10465000CF93DF93C0E0D8E012EF0DE00E949B0EF5
:1046600060E082E043DAD093250180919101843F9C
:10467000E1F480917F0190918001A0918101B0913E
:10468000820184369105A105B10578F440E060E02F
:1046900082E00E940B3160937F01709380018093D0
:1046A0008101909382011093910180919101823F49
:1046B0006CF18093920180917F0190918001A09193
:1046C0008101B09182018093830190938401A09332
:1046D0008501B093860181E0EFDE8C2F64DF88EEE8
:1046E00093E00E94680D81110AC080911E01843000
:1046F00030F48C2F5FDFC82F8A3F08F4AFCF0E94C1
:10470000C007DF91CF911F910F9108950E94B907C3
:104710008DE790E00E94C70980914601902F981B79
:10472000892F0E94710989E790E00E94C7090E94C1
:104730000C088FE30E941A090E947A090E9414084B
:104740000E947A09CACFA6E1B0E0E9EAF3E20C944C
:10475000A93C82E08093020180912501813009F01B
:10476000F0C180917A01813009F0EBC14090610184
:1047700024E0429EF0011124E255FE4F8081918198
:10478000A281B381893032E59307A105B10508F014
:10479000D8C11C01712C81E0871508F4D6C1842D85
:1047A0000E94790A982E892EE82DF0E0E65AFD4FF6
:1047B0005490892D90E0FC01E95AFD4FE49115B821
:1047C00028E028B9372D3170632E20EF22163104EE
:1047D00008F0C0C13111BEC100911F01109120012C
:1047E00000591A4121E030E0092C02C0220F331F8A
:1047F0000A94E2F7C9018860852987B934E1398BC9
:10480000892D0E94A40C5C01882D0E94AC0C24E030
:10481000A216B10410F4049728F039893150398B6D
:104820003111EECF80E480937B0094E590BF892D19
:10483000806480937C0026E120937A00F12CE12CA7
:1048400010928000109285001092840087E286BB4F
:104850000E94670C872D90E09A8B898B611083C131
:1048600081E88093810058B886B385FD0CC080FF35
:10487000FBCF21E026BBA89597012F5F3F4F790121
:104880002035310589F738E038B91092810090E27F
:1048900096BB209186003091870069014091840089
:1048A000509185002417350738F480FF05C021E0BA
:1048B00026BB3FEFE31AF30A86E980937A00B4E15E
:1048C0005B2E892D0E94A40C5C01882D0E94AC0CEB
:1048D00024E0A216B10410F4049718F05A94511071
:1048E000F0CF8090430190904401820C931C800E85
:1048F000911E209121013091220100398AE118078F
:1049000008F03AC169E191EEC916D104E104F1045D
:1049100030F4C60165E070E00E94593B64512852B2
:104920003109261B310967FD339566E0862F90E03B
:10493000B0E0A0E08C159D05AE05BF0508F025C1CF
:10494000C81AD90AEA0AFB0A662029F082E2C80ED0
:10495000D11CE11CF11C90E5E916F10418F0C12C02
:10496000D12C76018BE0C816D104E104F10428F0C3
:1049700091E0C91AD108E108F108B12CA12CA8EEE8
:10498000B3E00E94C43B6B8B7C8B8D8B9E8BA09184
:104990003A01B0913B0198010E94C43BA5019401EA
:1049A0000E94803B442755276B897C898D899E898D
:1049B0000E94803BC9010E94500EFC01A501940198
:1049C000C701B6010E943E3B4B015C01BF0190E074
:1049D00080E0E3E0660F771F881F991FEA95D1F703
:1049E0006B5F7F4F8F4F9F4F2AE030E040E050E0F9
:1049F0000E94803BC501B4010E94803BE989FA898D
:104A0000EE0FFF1FEE0FFF1F81E090E08C0F9D1F48
:104A1000E80FF91F2083318342835383611018C04C
:104A20009CE0C916D104E104F10490F07394E98983
:104A3000FA893196EE0FFF1FEE0FFF1F81E090E025
:104A40008C0F9D1FE80FF91F20833183428353830E
:104A5000A895739493E0971508F09DCE88E088B9E7
:104A600084E00E94740C91E00D811E812F813885B5
:104A700049815A816B817C81401751076207730716
:104A800008F090E00D851E852F85388949855A8567
:104A90006B857C8582E0401751076207730708F435
:104AA00083E024E0829FD001112421E030E02C0F2C
:104AB0003D1FA20FB31FE92FF0E0EE0FFF1FEE0F17
:104AC000FF1FE20FF31F0D911D912D913C9140812D
:104AD000518162817381041715072607370708F093
:104AE000892F34E0839FF001112421E030E02C0F66
:104AF0003D1FE20FF31F408151816281738140931A
:104B00000B0150930C0160930D0170930E0180FD19
:104B100040C030EF23163104E0F58BEF80930201A3
:104B200080910B0190910C01A0910D01B0910E01AB
:104B3000892B8A2B8B2B11F41092020188E087B904
:104B400014B86696E2E10C94C53C842D0E94790A63
:104B50004C012ACEE4B9852D886087B900911F01E8
:104B6000109120014BCE58B80E94700C90E296BB79
:104B700081E88093810078CEC40160EB76E30E94E7
:104B8000593B695F285D3F4FD1CEC12CD12C7601B6
:104B9000DBCE8CEF80930201CB01BA016B5F7F4FBC
:104BA0008F4F9F4F2AE030E040E050E00E94803B72
:104BB00020930B0130930C0140930D0150930E0193
:104BC000AFCFAEE1B0E0E7EEF5E20C94A93C662E83
:104BD000B82E860F898320912501283059F5209120
:104BE000830130918401409185015091860157FDE8
:104BF00015C01091920109C0CA01B9012AE0312DF6
:104C0000412D512D0E94803B1F5F173FACF391F463
:104C1000243160E036074105510518F48FEF9FEF0E
:104C200045C1173F39F480E028178DE73807410563
:104C3000410510F020E03DE72C8B3D8B26EDA22EA8
:104C4000EAE5F2E0E60DF11D859188608E87EAE5E0
:104C5000F2E0EB0DF11D859188608F87E7E5F2E0CA
:104C6000E60DF11D7590E7E5F2E0EB0DF11DC59045
:104C700090EC692AB92A81E0E82EF12C012D112D42
:104C80008E831F82188619861A861B861C861D86AF
:104C9000188E198E1B8E1A8E0E94A71C88E088B968
:104CA00060927C000E94680C3F8537B975B874B873
:104CB00052E05A95F1F70000000014B815B8DD2451
:104CC0003E8537B975B874B860927C00A895A092FB
:104CD0007A0080917A0086FDFCCF20907800309099
:104CE0007900B0927C004C2DE5D020917800309175
:104CF0007900288B398B3F8537B9C5B8C4B8A895DA
:104D0000B0927C00A0927A0080917A0086FDFCCF60
:104D1000609178007091790060927C00472DCAD034
:104D2000409178005091790014B8CB01820D931D09
:104D3000E80EF91E011D111DEA82FB820C831D8302
:104D400088899989840F951F2E813F81688579858F
:104D5000280F391F611D711D2E833F836887798756
:104D600022E32417150650F075B874B80E94720C2F
:104D700014B815B8888D8395888F07C0483E73E0B6
:104D8000570718F08A8D83958A8F88899989281703
:104D9000190660F03E8537B9C5B8C4B80E94720CD8
:104DA00014B815B8898D8395898F07C0883E73E044
:104DB000970718F08B8D83958B8FD3945D2D5F3F74
:104DC00049F05F3731F45C2D550FC50E572D550F47
:104DD000750E76CF4090430150904401440C551C11
:104DE0009201E4E0240D351DEA95E1F72901570110
:104DF00068016E807F808884998420912501283005
:104E0000C1F46C897D89812D912D65507040804061
:104E100090409B01AC010E943E3B9B01AC0160E7CE
:104E200079E786E190E00E94803B621A730A840A67
:104E3000950AA614B704C804D90428F46A187B0894
:104E40008C089D0803C0662477244301B20180E0EA
:104E500090E09301A4010E943E3B9501A6010E94AF
:104E6000803B81E293E07981870F911D0E943C3D58
:104E7000682EC90160E170E00E94593B260F371F80
:104E8000C9016816190618F4861991090FC08C5EBD
:104E90009F4F8615910540F48C899D89843981E165
:104EA000980710F00E94AF12812D912D6E96E2E1CD
:104EB0000C94C53C109281001092800010926F00FB
:104EC00010928B0010928A0057E056BB5FEF509310
:104ED00085005093840055E050937B0056EB50932F
:104EE0007A0051E05093810058E25A95F1F70000A2
:104EF00045B944B955E05A95F1F7000014B815B812
:104F00001092810080917A0084FFFCCF80937A0018
:104F10000895B0E0A0E0EFE8F7E20C94AB3C00911C
:104F20008D0110918E010115110509F091C0E091DC
:104F30008F01F0E0E65AFD4FD491D860E0919001E6
:104F4000F0E0E95AFD4FC4910E94A71C88E088B99F
:104F500015B8D7B9C4B9809190010E94AC0C7C01FE
:104F6000D09192018CE08D0F843008F071C0809157
:104F7000830190918401A0918501B0918601D15F58
:104F80002AE0422E512C612C712CBC01CD016B5FAB
:104F90007F4F8F4F9F4FA30192010E94803B490199
:104FA0005A01DA01C901DF5FD73079F7893823E187
:104FB0009207A105B10508F04BC0059708F448C059
:104FC000C5B9C4B9D0E0C0E0C815D90508F445C0DA
:104FD00014B815B8A89585E08093360180919001AA
:104FE0000E94AC0CEC01CE19DF09E816F90610F0AE
:104FF000D0E0C0E0D12CC12CC814D90490F180912C
:1050000090010E94AC0C29E120933601A895E81686
:10501000F90618F48C010E191F090C171D0788F4E6
:105020009E01201B310B69F0A4EFB1E00E94C43B4C
:105030009E0150E040E00E94803B30938E0120931F
:105040008D010E94A71C88E087B988B914B815B8EB
:10505000CDB7DEB7E0E10C94C73C0E946E0C2296FF
:10506000B3CF0E946E0C8FEFC81AD80AC5CFA7E045
:10507000B0E0EDE3F8E20C94A93C8EEB91E0EDD5C5
:1050800060EF6B8354980E94630C14BC16BC1092A2
:10509000120110921301109214011092150181E077
:1050A00085BB80936E0010928000E3E1FAE7F093F5
:1050B0008B00E0938A0081E090E0909389008093D8
:1050C0008800109285001092840083B5816083BDB2
:1050D00096E096BB90936F007894E4E0E0938100B3
:1050E000F2E3F9831A820E945C0CA8954F9902C0E2
:1050F00061E06A8385B5882329F08981815089839D
:105100008111F1CF15BC86B5809312010E9414085D
:105110000E947A090E941C080E947A090E94A7092D
:1051200086E60E941A090E94AB09609112017091F3
:105130001301809114019091150147E00E94020C27
:10514000549880918100882319F08FE30E941A09F6
:105150001092810010926F00209112013091130182
:105160004091140150911501DA01C9010197A1097B
:10517000B109813F9048A105B10508F096C0AAE0A9
:10518000B0E00E94D93B685F7F4F8F4F9F4F23E075
:1051900096958795779567952A95D1F7660F771F2E
:1051A000709375016093740154980E94630C16BC4F
:1051B0001092120110921301109214011092150115
:1051C000F1E0F5BBF0936E0010927701109276013A
:1051D00064E06BBB80916800846080936800789481
:1051E00080916D00806180936D0019820E945C0C3B
:1051F000A8954F9902C081E08A8380916D0084FF59
:1052000005C099819F5F99839A3F81F715BC809172
:105210006D008F7E80936D00809168008B7F8093FE
:10522000680086B5809312010E94140884E50E94EC
:105230001A090E94AB09E0917401F0917501FD8398
:10524000EC8360911201709113018091140190918F
:10525000150128EA31E640E050E00E94E93BEC818C
:10526000FD81612C712C43015F01C12CD12CE12CFB
:10527000F12C00E010E00E943D3C49014F835E8329
:105280001B012C018C819D818038910520F107E064
:1052900023E745EFB4018F81952F0E940B0B998175
:1052A0009A3F91F58FE30E941A0910926E0080EDEB
:1052B00097E00E94680D6A81860F49F480911E0173
:1052C000833028F48B8181508B838111DBCE27962C
:1052D000E2E10C94C53C84E6A82EB12CC12CD12C63
:1052E000E12CF12C00E010E094014F815E81B101CE
:1052F000C2010E943D3CF22FE42F07E023E747EF75
:105300006F2F732F8E2FC8CF94014F815E81B10113
:10531000C201263E354B41055105610571058105E8
:10532000910519F210F20E941C0886E60E941A09E3
:105330000E94AB0994014F815E81B101C201540109
:105340002115FAEC3F07FAE94F07FBE35F07610518
:10535000710581059105F1F0E8F06A0171018201A2
:1053600020E030E04AE85DE568E775E483E691E037
:105370000E943D3CF22FE42F07E028E44AEF6F2F14
:10538000732F8E2F952F0E940B0B8AE70E941A090C
:1053900054988BCFCF80DE807101820120E030E411
:1053A0004AE750E163EF7AE580E090E00E943D3CFF
:1053B000F22FE42F07E028E44DEFE1CF1F920F9288
:1053C0000FB60F9211248F939F93AF93BF9378944E
:1053D0008091120190911301A0911401B0911501D7
:1053E0009F5FAF4FBF4F8093120190931301A09323
:1053F0001401B0931501BF91AF919F918F910F90C0
:105400000FBE0F901F9018951F920F920FB60F921C
:1054100011248F9386E085BD8F910F900FBE0F9062
:105420001F9018951F920F920FB60F921124A895F6
:105430001092810015BC0F900FBE0F901F90189511
:105440001F920F920FB60F9211242F933F938F93B9
:105450009F938091760190917701892B11F481E0DF
:1054600085BD2091760130917701809174019091F2
:1054700075012817390730F015BC80916D008F7EBB
:1054800080936D00809176019091770101969093C1
:105490007701809376019F918F913F912F910F908B
:1054A0000FBE0F901F9018958B3008F08B50811114
:1054B00009C08AE292E00E94C7090E947A090C940E
:1054C000B4070895813019F48EEB91E0F4CF823067
:1054D00019F481E092E0EFCF833019F486EF91E088
:1054E000EACF843019F48FE890E0E5CF853019F4E5
:1054F00084E890E0E0CF863019F48DE790E0DBCFD0
:10550000873019F485EE91E0D6CF883019F486ED16
:1055100091E0D1CF893019F488E192E0CCCF8A3084
:1055200061F68DE092E0C7CF0F93CF938FE890E0C4
:1055300094D3C0E01092250160E082E0A3D3809173
:105540002501883009F050C00E940C0883E40E94B5
:105550001A090E94AB0960918301709184018091C6
:1055600085019091860103E026E4409192010E941A
:105570000B0B0E947A0960918F018091900121DBD1
:1055800090938C0180938B010E9414088BE491E02E
:105590000E94C70980918B0190918C018A3F2FEF67
:1055A0009207F0F422E044E06EEF0E94ED0B0E94BF
:1055B0007A098C2F0E94D32288EE93E00E94680D16
:1055C00081110BC080911E01843038F48C2F0E9411
:1055D000DA22C82F8A3F08F4ADCFCF910F910895FA
:1055E0008FE30E941A09E3CF0E94A7090E941408C2
:1055F000DECF0895A5E0B0E0E0E0FBE20C94A93C2A
:1056000081E092E02AD380E18093800010926F00C5
:1056100081E090E0909389008093880010928B0045
:1056200010928A0083E086BB1092820088E080930B
:10563000810015B891E194B988B989E087B9229AB7
:1056400080938100312C20E03AE0398341E04D83A2
:10565000812C912C5401839451E15C83832D90E043
:105660000A966EE170E00E946D3B6B83F62E621726
:1056700061F00E94B90781E092E00E94C70910E042
:105680001F1508F4DAC00E947A098D8169810E9491
:105690004D3BA92FB0E0A50194010E94D93B6B01BD
:1056A0007C018C81823150F0652D762D872D902FD5
:1056B0000E94803BC60ED71EE81EF91E0E940C08F1
:1056C0009D812981212C921306C081E03C813231D9
:1056D00008F480E0282E2A828CE3211005C04C813A
:1056E0008EE3463108F082E50E941A090E946E0995
:1056F0004C81C701B6010E94020CC701B6017E5E53
:1057000085489F4FA7019601220F331F441F551F45
:105710000E94803BCA014F3F510509F008F492C036
:105720008DE08093810080E094E02C01712C612C4D
:10573000CA01B901A30192010E94803B21503109A5
:10574000309389002093880080918800909189008F
:10575000892B31F481E090E0909389008093880058
:105760000E947A090E94140886E60E941A090E9483
:105770006E09009188001091890060E079E08DE366
:1057800090E0A30192010E94803BA4E6B0E00E9459
:10579000D93B0F5F1F4F980150E040E00E94803BD3
:1057A00029013A01A4E6B0E0A70196010E94D93B85
:1057B000A3019201261B370B480B590BCA01B901F3
:1057C00005E228E44EEF0E940B0B8AE70E941A09BB
:1057D0000E947A0980ED97E00E94680D282F8111C0
:1057E00051C080911E01811101C0232D80911E01A5
:1057F0008B30B8F480911D0187FD88C03D81830FF7
:1058000090E03981632F70E06F5F7F4F0E946D3BA6
:105810008D83822F0E94DA22382E4FEE481708F02F
:1058200056C0109281001092800088E087B914B8A9
:1058300022982596E2E10C94C53C8EE20E941A095A
:105840001F5F1ECF4034510530F08CE08093810003
:1058500080E091E06ACF4830510530F08BE08093D2
:10586000810080E490E061CF892B31F08AE0809361
:10587000810088E090E059CF89E08093810081E049
:1058800090E053CF883C68F68135C8F1222029F199
:105890003C8131503C83C501B4012AE030E040E056
:1058A00050E00E94803B49015A01C701B6010E94A5
:1058B000803BCA01B9012AE030E040E050E00E949C
:1058C000803B6A834AE049832A812D83312C2B81D6
:1058D0005C2C6D2C7E2C0F2DC1CE5C815631E0F4FA
:1058E0005F5F5C83563111F485E18983AAE0B0E003
:1058F000A50194010E94D93B4B015C01E5CF8B309F
:1059000018F09D819F5F9D8320E070CF8F5F49815C
:10591000840F5D81850F74CF5AE0598381E08A83BB
:10592000812C912C5401839491E19C83CDCFB0E0E4
:10593000A0E0EDE9FCE20C94AB3C86EF91E08DD168
:1059400083E28093800010926F008FEF90E090933D
:105950008B0080938A0083E086BB1092820015B88A
:1059600081E184B988E088B989E087B9229A21E089
:1059700030E030938900209388008093810010E00C
:1059800080E0D2E300E094E6C92ED12CE12CF12C8A
:1059900088248A9423E0922EA12CB12CD817A1F14F
:1059A000D43608F0D4562D2F30E0AFEFB3E00E948C
:1059B000C43B6E5C7F4F8F4F9F4FA70196010E94A3
:1059C000803B29013A0130938B0020938A000E948A
:1059D0000C08A8EEB3E0A30192010E94D93B6150EC
:1059E0007E4F8F4F9F4FA50194010E94803BC901BC
:1059F00025E045E26FEF0E94ED0B0E947A09093223
:105A000018F08CE30E94740C80E496E00E94680D0C
:105A1000082F8338A0F480911E018B3080F4C09150
:105A20001D01C7FD1BC0CD0F0333D0F0C65F10E0D2
:105A3000812F0E94DA22182F8D2F103F68F088E006
:105A400087B9109281001092800014B82298CDB7C7
:105A5000DEB7E0E10C94C73CDC2FA0CFCC59E3CFFC
:105A6000002311F0CF5FE3CF8111E1CFE1CF0F939E
:105A70001F93CF93DF9385EE91E0EFD085E293E023
:105A80000E943C3DC82FD0E00E940C080C2F0C2E29
:105A9000000C110BC7FF37C08DE20E941A0923E0EA
:105AA00045E26FEF88279927801B910B0E94ED0B31
:105AB0000E947A0980E496E00E94680D811128C056
:105AC00090911E01911126C090911E019B3088F487
:105AD00090911D01C90F882319F08932E8F0CF5F3A
:105AE000C135E4F0C5568D2F0E94DA22D82F803FB1
:105AF00058F26C2F85E293E00E94493DDF91CF91EF
:105B00001F910F91089523E045E26FEFC801CECFBA
:105B1000823878F7D0E0D8CFC150E2CFCC3E1CF726
:105B2000CB59E1CF813019F480E0A1CA08958230C9
:105B300011F460CD0895833011F4F9CE08958430C6
:105B400011F4F2CC0895853019F40C94E4220895F0
:105B5000863029F40E94C0070C94262308958730CC
:105B600011F485CF0895883021F481E10C94180F49
:105B70000895893011F4C5C108958A3011F40C9448
:105B8000BE0E0895FF920F931F93CF93DF9385E38B
:105B900092E063D0D0E0C0E019E01C0F00E0FF24E9
:105BA000F394F00E60E08F2D880F0E948907023079
:105BB00009F049C08EE30E941A0985EF810F1B305E
:105BC00008F4812F71DC1F5F0F2D053041F780E451
:105BD0009FE10E94680D8111D0E0909140019130C9
:105BE00009F4D0E0823330F490917B01992371F075
:105BF000882361F0CC23D9F08C2F94DF10921E0102
:105C000010921D0185E392E028D080E090911E0162
:105C10009A3068F490911D01992319F097FD16C0F0
:105C2000D0E0C90F811117C0DF5FDE3639F480E0A4
:105C3000CDB7DEB7E5E00C94D23CD1E0CB3008F430
:105C4000ABCFCB50A9CF0E946E09B7CF955FC90FDC
:105C5000882399F3D0E0CF5FE7CFCF93DF93EC01B8
:105C60000E94C007CE010E94C709C4E682E00E94DC
:105C7000740C4F9902C0C150C9F70E940C08DF9103
:105C8000CF910895B0E0A0E0E8E4FEE20C94B23CCD
:105C9000182F062F862F90E0FC01E65AFD4FE49165
:105CA000FE2E6894F3F8E12FF0E0E95AFD4FC4911D
:105CB000FC01E95AFD4FD49110928C0110928B0196
:105CC00010927F0110928001109281011092820146
:105CD00087EF809391010E94A71C88E088B9F7B8EC
:105CE000D4B9D5B9812F0E94AC0C7C01802F0E94C1
:105CF000AC0CE81AF90A14B810925D0110925C011C
:105D000030E020E05CE2C52EDD24D394DAE064E6E6
:105D1000B62E80915C0190915D01843D904350F0DE
:105D200088E087B988B914B815B8CDB7DEB7E9E00F
:105D30000C94CE3CC5B980915C0190915D01892B9A
:105D400091F0F601E21BF30B60915C0170915D0133
:105D5000D29FC001D39F900D11240E94593BE6179A
:105D6000F70708F0A5C0C4B90E94670C14B8809169
:105D70005C0190915D01019690935D0180935C01BF
:105D800015B80E94690CA895812F0E94AC0C9C014B
:105D90002E193F0980915C0190915D018B319640F5
:105DA00020F0253231050CF4BBCF2D3281E03807CD
:105DB0000CF4AFCF80915C0190915D01019729F4C3
:105DC000253185E038070CF0ABCF80915C019091D4
:105DD0005D01880F991FB0E0A0E080938701909348
:105DE0008801A0938901B0938A01C90168E270E03B
:105DF0000E946D3BCB01820F931F0E948420209153
:105E00008701309188014091890150918A01DC011C
:105E10000E94D93B60938701709388018093890128
:105E200090938A0160937F01709380018093810138
:105E3000909382010E94361DC0907F01D090800116
:105E4000E0908101F090820185E293E00E943C3D68
:105E5000A8EEB3E0A81BB10987FDB395A701960191
:105E60000E94E33B20E137E240E050E00E94803BAB
:105E700020937F01309380014093810150938201F0
:105E800088E080932501209383013093840140931F
:105E90008501509386018091910180939201109227
:105EA0008E0110928D0100938F011093900138CFD5
:105EB00080915C0190915D010B97C8F060915C014D
:105EC00070915D01B29EC001B39E900D11240E949D
:105ED000593B6E177F0758F4C4B90E945C0C14B884
:105EE00080915C0190915D018C599F4F45CFC4B961
:105EF0000E94620C14B880915C0190915D010A9639
:105F00003BCFCF92DF92FF920F931F93CF93DF93FC
:105F10000E94C00785E091E00E94C7090E940C081A
:105F200081EC90E00E94C70983E293E00E943C3D2F
:105F300023E040E26EEF90E00E94ED0B84E293E0FC
:105F40000E943C3D23E040E26EEF90E00E94ED0BAA
:105F500082E293E00E943C3D23E044E06EEF90E05B
:105F60000E94ED0B0E9414088AEB90E00E94C70982
:105F700023E044E06FEF80913C0190913D010E944D
:105F8000ED0B0E941C0883EB90E00E94C70923E000
:105F900044E06FEF80914301909144010E94ED0B2A
:105FA00088E99AE30E94680D80911E018B3008F009
:105FB000BFC080911D0187FDABCF0E94C0078FEA53
:105FC00090E00E94C70987E493E00E943C3D825123
:105FD000990B0E94220A88E493E00E943C3D825182
:105FE000990B0E94220A84E493E00E943C3D23E046
:105FF00046E464EF8251990B0E94ED0B0E940C085D
:1060000083E00E94710983E493E00E943C3D825149
:10601000990B0E94220A86E493E00E943C3D825143
:10602000990B0E94220A82E493E00E943C3D23E007
:1060300046E464EF8251990B0E94ED0B0E94140814
:106040008DE190E00E94C70989E493E00E94443DFD
:106050000E940D0A0E941C0886E190E00E94C70978
:106060008BE493E00E943C3D082E000C990B0E94AB
:106070000D0A60E08EE00E948907C0E0FC2EFF0C54
:10608000FC0ED0E0FA94CD1709F446C00F2D0D0F89
:1060900010E0000F111FC8018C5C9C4F0E94443D12
:1060A0006C01C8018A5D9C4F0E94443D8C01809127
:1060B000AD01873008F444C088E99AE30E94680D76
:1060C00080911E018B30A0F580911D018E3F0CF454
:1060D0001FCF8E3F09F471CF8F3F59F20E94C00746
:1060E00087EA90E00E94C7098C2F0E946B098AE31F
:1060F0000E941A098D2F0E946B0980E00E9480097E
:1061000023E040E26EEFC6010E94ED0B23E046E47F
:1061100062EFC8010E94ED0BDF5FD33009F0B3CF0F
:10612000CF5FC33009F0AACF88E99AE30E94680DD7
:10613000DF91CF911F910F91FF90DF90CF90089545
:1061400080E00E948009CCCF08954F925F926F92B9
:106150007F928F929F92AF92BF92CF92DF92EF92F7
:10616000FF92AC016C01F12CE12C5601992488249A
:10617000E52FFF279A01DA010E94C43B2C01662417
:106180007724920165E0369527956A95E1F7E29FBD
:10619000C001E39F900DF29F900D11249A0174E0CD
:1061A000369527957A95E1F7E20FF31FE40FF51F77
:1061B00092013695279536952795B4E056944794E5
:1061C000BA95E1F72419350950E040E02E0F3F1F42
:1061D000411D511DBC01E3E076956795EA95E1F715
:1061E000861B970B280F391F411D511DC701B60192
:1061F0000E943E3B680D791D8A1D9B1DFF90EF900C
:10620000DF90CF90BF90AF909F908F907F906F90D6
:106210005F904F900895A3E0B2E0E1E1F1E30C94C8
:10622000A93CCF5FDD4F8883C150D240162FCE5F8F
:10623000DD4F4883C250D2400E94A71CCF5FDD4F84
:106240002881C150D240E22FF0E0E95AFD4FF4908E
:106250009F2C990CE12FF0E0E65AFD4FE491E860A5
:10626000E7B915B8F4B8822F806480937C000E944F
:10627000680CCE5FDD4F3881C250D2403170CD5FA7
:10628000DD4F3883C350D240CE5FDD4F8881C2508E
:10629000D2408F2C80FF892CE0E2DE2E90E080E05F
:1062A000CF2CE82C092D282D44E7BE016F5F7F4FCE
:1062B0000E943400DA9480E490E0D110F1CF14B859
:1062C0001E0197E4290E311C73E2472E512C612CDC
:1062D000712CC12CD12C7601812C912C5401F1010F
:1062E000819191911F01CD5FDD4FF881C350D24064
:1062F000FF2329F020E030E8281B390BC90125DFF6
:106300009C0150E040E0820E931EA41EB51EC30106
:10631000B2010E943E3BC60ED71EE81EF91E3FEF9B
:10632000431A530A630A730A84E748165104610446
:106330007104A9F6C501B40121E530E040E050E068
:106340000E94803BABEBB7E10E94D93BC61AD70A4B
:10635000E80AF90AA701960164E056954795379532
:1063600027956A95D1F760EE7DEC81EC9FE80E945D
:10637000803B69017A01CE5FDD4F9881C250D240E7
:1063800091FD20C0CF5FDD4F8881C150D240880F82
:10639000CF5FDD4FE881C150D2408E0F1150810F89
:1063A00090E0880F991FCD5FDD4FF881C350D24038
:1063B000FF2379F08A5D9C4F0E94443DC81AD90A98
:1063C000E108F108C701B601CD5FDD4FE2E10C94B1
:1063D000C53C8C5C9C4FF0CF4F925F926F927F9246
:1063E0008F929F92AF92BF92FF920F931F93CF9382
:1063F000DF93C0E0FC2EFF0CFC0ED0E0FA94CD172A
:1064000009F43EC042E06D2F8C2F05DF2B0143E0E5
:106410006D2F8C2F00DF4B010E94C00787EA90E0B0
:106420000E94C7090E946E098C2F0E946B098AE3A3
:106430000E941A098D2F0E946B090E946E090E940A
:106440000C0824E040E26EEFC2010E94ED0B24E054
:1064500046E462EFC4010E94ED0B0F2D0D0F10E01A
:10646000000F111FB201C8018C5C9C4F0E94573D68
:10647000B401C8018A5D9C4F0E94573D0E947A0971
:10648000DF5FD33009F0BBCFCF5FC33009F0B2CFAD
:106490000E94B90785EB91E00E94C7090E947A0922
:1064A00088E20E94740CDF91CF911F910F91FF90B1
:1064B000BF90AF909F908F907F906F905F904F9024
:1064C0000895A2E1B0E0E7E6F2E30C94A93C2C01C8
:1064D0007C836B83DD24D3942D2C312C33E0D39E2D
:1064E000900111243E872D87F101EE0FFF1FEE0F63
:1064F000FF1FFC87EB87812C30E4932E50E0712C3A
:10650000612C18861F82B12CA12C1A8219821E823E
:106510001D8240E0C12CF0E0E0E030E020E061E0EE
:1065200070E08FEF90E082199309988B8F870C2D84
:1065300010E08F8598890817190774F1AB81BC8129
:10654000AB2B29F170E060E04230E8F09501ED817D
:10655000FE812E1B3F0BA8EEB3E00E94C43BE981F5
:10656000FA81AE1ABF0A950150E040E00E94803BDC
:1065700088EE93E0821B930B0E94500EBC0188EBC7
:106580009AE70E94593BAB81BC816D937C93C40117
:106590006296E2E10C94C53CD801A20DB31DAA0F8E
:1065A000BB1FA40DB51D8D919C91E80FF91FD8015B
:1065B000AA0FBB1FA40DB51D8D919C91280F391FEB
:1065C000CD1408F48AC0D801A219B309AA0FBB1FC1
:1065D000A40DB51D0D90BC91A02D2A1B3B0BE81BF3
:1065E000F90B7901EE0EFF1EC9018E1B9F0B8987E7
:1065F0009A87D701B695A795B695A795A80FB91F05
:10660000B7FD76C0E217F30708F069C0513009F012
:1066100066C0D80156E0AA0FBB1F5A95E1F7BA8BA6
:10662000A98BDC01A61BB70BBD01A817B90770F039
:10663000A6E0880F991FAA95E1F780960E94593B22
:1066400089899A89861B970B9A8B898BAD85BE8524
:10665000EA16FB0608F472CF8B859C85081719078C
:10666000BCF14423B1F069897A896619770943300E
:1066700050F0D4019096C401969587958A0F9B1F80
:1066800086179707D0F1D71650F4DD24D394D70E90
:1066900023CFA989BA89B887AF83FE82ED82AE0C79
:1066A000BF1C4F5F4130F9F0842F8150990BBC0122
:1066B00095958795A989BA898A0F9B1FAF81B8855F
:1066C0008A1B9B0BF6D74B0169887A88FA82E9828C
:1066D000453108F033CF50E002C069877A87C39410
:1066E00069857A8524CF69887A88FA82E982F3CF2E
:1066F00051E0E217F30798F78CCFEB81FC81EF2B89
:1067000009F024CF44CFA6E2B2E0E9E8F3E30C9429
:10671000AD3CF82ED62E87E593E00E94443D3C0127
:10672000ED2DF0E0E95AFD4F1491EF2DF0E0E65A1F
:10673000FD4FE4911092BA011092BB011092BC017E
:106740001092BD011092C1011092C0011092C201BD
:106750001092C3011092C4011092C50180912501CD
:10676000813009F0D2C08091020118160CF4CDC01E
:1067700088E088B9E860E7B90E94680C2D2D206C8C
:10678000D22E20937C000E94680CC12EE12C00E0E8
:10679000212F4FEFBE016F5F7F4F80E191E00E949C
:1067A00034003F2D306CF32E30937C00212F44E1D8
:1067B000BE0161507E4F80E191E00E943400FE01F5
:1067C0003196BE0161507E4F5B01AE01475D5F4F68
:1067D00081919191D5016D917D915D019F01225033
:1067E00031098617970708F495C0861B970BD901C6
:1067F0008D939C93E417F50759F7D0927C0070E0D5
:1068000060E0CE0101965DDE9F5F30E1A32EBB24E8
:10681000B394912C812C913178F040E1A42E44E086
:10682000B42E52E0852E912C903430F090E1A92EB8
:10683000BA2C24E0822E912C88E0D82EA895C12E67
:10684000E12C00E0212F4FEFBE016F5F7F4FC501AC
:106850000E9434008114910409F462C060EC71E07C
:10686000CE0101962EDE5C01813C9F4308F0B2C050
:106870006501F12CE12C9501D50186D723E330E0A9
:1068800040E050E03DD7A8E6B2E093D73FEF831A4F
:10689000930A76946794930150E040E031D7C401A5
:1068A000880F991F04C0220F331F441F551F8A955C
:1068B000D2F72093C2013093C3014093C401509397
:1068C000C50180910B0190910C01A0910D01B09137
:1068D0000E010397A105B10540F01092C20110927C
:1068E000C3011092C4011092C501A114B10409F0B2
:1068F00074C01092C1011092C0011092C201109296
:10690000C3011092C4011092C501CA5DDD4FEEE0D3
:106910000C94C93CD9011D921C926CCF5C018ECFA6
:10692000C5018064DA94D110F9CF81159440C8F084
:106930008EEF8F3F09F492CFE82FF0E0EE0FFF1FAC
:1069400021E030E02C0F3D1FE20FF31F2081318149
:10695000A3E036952795AA95E1F7318320838150EE
:10696000E8CFF0927C00E894A6F808E0F02EC12E63
:10697000E12C00E0212F44E1BE0161507E4FC501B2
:106980000E9434006894A6F8FA94F110F0CF24E144
:10699000215070F2822F90E0880F991FE1E0F0E023
:1069A000EC0FFD1FE80FF91F408151816FEF71E07F
:1069B0006C0F7D1F860F971FDC018D919C914817EE
:1069C000590728F0481B590B51834083E1CF1182AE
:1069D0001082DECFB12CA12C4BCF27E030E028195C
:1069E000390960E072E18AE790E004C0660F771F22
:1069F000881F991F2A95D2F7A701960181D6209367
:106A0000BA013093BB014093BC015093BD0180910A
:106A1000020187FD7ACF8FEF8093020176CFCF936B
:106A2000DF93D82F0E94B90786E090E00E94C70943
:106A30000E947A09C0E01092BF011092BE0184E169
:106A40000E94740C62E080E00E94761D0E940C0897
:106A500024E046E464EF8091BE019091BF010E9462
:106A6000ED0B6091BE017091BF01CB018C539F4033
:106A700085399547A8F4CF5FC53098F087E593E056
:106A80000E94573D0E946E0985EB91E00E94C70964
:106A900084E60E94740C0E94B907DF91CF9108959B
:106AA000C0E00E947A09DF5F31F6F5CFB0E0A0E0E8
:106AB000EBE5F5E34EC780E48AB98BB9D6E8D0930D
:106AC0007A001092C1000E94540CC4B7C87084B7F9
:106AD000877F84BF0FB6F894A89580916000886185
:106AE00080936000109260000FBED093640088E332
:106AF00080937E001092B00087E08093B10078947C
:106B00000E94DB07C111A9C580E185BF84E08093A5
:106B10001C014F9906C082E00E94740CCF5FCC33F9
:106B2000C1F78FE59DE69093170180931601CF3151
:106B300030F080E69DE69093170180931601109245
:106B400037010E94C32088E19FE00FB6F894A89512
:106B5000809360000FBE90936000CC3309F461C055
:106B600038E0632E40E1542E58E1452E64E6C62EEF
:106B700061E0D62E71E2272EE2E13E2E0E94C00790
:106B800067B80E949B0E0E94C3200E94B9070E9412
:106B9000091380914501882381F00E940C0880E54B
:106BA00091E00E94C70963E080913A0190913B0116
:106BB0000E94F80B88EC0E94740C0E940C080E9442
:106BC000A71C80912501893089F50E94C00785E5C1
:106BD00091E00E94C7090E940C0863E080910501C2
:106BE000909106010E94F80B0E946E0963E080916B
:106BF0000701909108010E94F80B0E946E0963E062
:106C00008091090190910A010E94F80B8AEC0E9480
:106C1000740C81E10E94180FC0911601D0911701E8
:106C2000A1C10E94C22D8111FCCF9ACF85E493E0CF
:106C300023D7C82F82E493E01FD7C81BC09342011B
:106C400080E00E94180F0E94A7098EEB92E00E943C
:106C5000C70983E00E943C0C0E94B40742E061E057
:106C600080E00E94741342E060E081E00E947413AF
:106C700041E062E080E00E94741341E060E082E065
:106C80000E94741340E062E081E00E94741340E0CF
:106C900061E082E00E9474138091250181110EC091
:106CA0000E94A71C60E082E00E94761D61E082E005
:106CB0000E94761D60E081E00E94761D0E94C00760
:106CC0002AE431E030934801209347018091250167
:106CD000863009F585EC0E94DA0860E188EF0E94B1
:106CE0001D0C66E080E00E94890785E992E00E9421
:106CF000C70966E082E00E94890789E691E00E9468
:106D0000C70962E080914E0190914F010E94F80BFB
:106D10000E94B40781CF873071F484EC0E94DA08B6
:106D200060E188EF0E941D0C66E080E00E94890708
:106D30008EE992E0DCCF8830C1F480918F01909190
:106D40009001890F9927991F029759F40E942623D1
:106D500080914201882309F46BC4D8E010E000E080
:106D600054C480E00E945C2257CF833009F00CC1EC
:106D700080912301813009F069C080E00E94DF0A20
:106D80006091950180919B010E94C11280E70E9451
:106D9000B70A40E06091950180919B013CDA6093D5
:106DA0007F0170938001809381019093820180E044
:106DB0000E949B0960917F01709180018091810107
:106DC0009091820102E026E442EF0E940B0B8DE2DB
:106DD0000E941A0941E06091950180919B011BDAA4
:106DE00060937F0170938001809381019093820171
:106DF00026E442EF0E940B0B8DE291E00E94C7094E
:106E00000E94B4070E94B40780917A01882309F494
:106E100003CF47B867B880E00E949B0930917A01A0
:106E2000332309F4B3C380916101313009F04AC3BF
:106E30000E94790A20916101213009F03EC320911E
:106E4000230121113AC30E94E42282CF823079F5D6
:106E500082E30E941A098DE191E00E94C709909196
:106E6000950130919601931308C080E00E94FB0ABF
:106E700081E00E94F20A81E08ACF20919B018091FB
:106E80009C01281307C080E00E94EB0A81E00E9469
:106E9000020BF1CF321306C081E0809311010E94F2
:106EA000CD0AB0CF98133DC050921101F8CF833076
:106EB000C1F533E33093110180919B0190919601CC
:106EC000891303C021E02093110140919501309175
:106ED0009C01431302C0509211012091970182132B
:106EE00003C082E08093110180919D01481303C08B
:106EF00040E24093110132130CC0309211019817F7
:106F000051F083E30E941A098DE191E00E94C709C4
:106F1000C6CF981302C020921101809111018232D4
:106F200080F384EA92E00E94C7098CE892E00E9414
:106F3000C7090E940C0880912301805D0E941A09F4
:106F40008AE20E941A0987E391E00E94C70982E75A
:106F500092E00E94C7090E94B40786E00E94DA0806
:106F6000C0E4DFE147B84F9BFECFCE010E94680D21
:106F7000823328F490911E01933008F414C30E94C8
:106F8000C22D8111FCCFFACD843009F059C1809116
:106F90007301882309F45FC080915901882309F4A3
:106FA0005AC060915601809158010E94761D8090D0
:106FB0007F0190908001A0908101B0908201C091EA
:106FC000910160917201809170010E94761D809103
:106FD0004A0190914B01A0914C01B0914D0140911B
:106FE0006401509165016091660170916701843F71
:106FF00021E09207A105B10538F4443F31E0530781
:107000006105710508F0C0EF443F5140610571050D
:1070100040F4843F9140A105B10518F080EF8093C2
:107020009101809191018C1311C080917F01909109
:107030008001A0918101B091820188169906AA066B
:10704000BB0630F02CE02093240105C0C817D4F70C
:107050009DE09093240180917301882361F08091D9
:107060005901882341F04F9906C08091240191E095
:1070700089278093240166E080E00E94890780ECE4
:107080000E94DA08809124018C3009F0C2C085E8A2
:1070900091E00E94C70980917301882319F080E76D
:1070A0000E941A090E94760EC82F853090F4A09194
:1070B0004701B0914801E82FF0E0EB56FE4F1D96D6
:1070C0009C91808160E0981362E088EA91E00E94E0
:1070D000010960E189EF0E941D0C86E00E94800991
:1070E00084E991E00E94C709E0914701F0914801CD
:1070F000608171818281938103E020E04EEF0E94E4
:107100000B0B87E00E94800989E40E941A09E09134
:107110004701F0914801868197818031974208F4B8
:107120008BC085E60E941A09E0914701F091480161
:107130008681978180519742978386830E94AB090D
:10714000E0914701F091480122E041E46AEF868135
:1071500097810E94ED0B86E00E9480098DE691E008
:107160000E94C709E0914701F091480163E08481E2
:1071700095810E94F80B81E080934901E0914701DD
:10718000F091480180859185892B91F085E00E94DE
:107190009B098FEF90E00E94C709E0914701F091B1
:1071A000480122E041E46AEF808591850E94ED0B61
:1071B000E0914701F091480182859385892B91F0F8
:1071C00085E00E949B0989EF90E00E94C709E09149
:1071D0004701F091480122E041E46AEF82859385FE
:1071E0000E94ED0BC53078F480E00E949B098C2F43
:1071F0000E94DF0A89E691E00E94C7098C2F0E9455
:10720000A90A0E94B40743E462E485E40E944C0AA0
:107210007FCDD0924801C09247018DED91E00E9450
:1072200017098DE791E00E94C709809159018823D1
:1072300009F438CF8EE634CF83E60E941A097ECF58
:10724000853009F0EBCD66E080E00E9489078091EF
:107250002401D82FD07184FF65C080E50E941A09EF
:10726000D0924801C0924701D2E08DE20E941A09F3
:1072700080912401C82FCF70C43009F057C08FE926
:1072800091E00E94C70983EC0E94DA0886EE91E043
:10729000D11168C00E94760E853090F4A09147010C
:1072A000B0914801E82FF0E0EB56FE4F1D969C91FF
:1072B000808160E0981362E088EA91E00E94010911
:1072C00060E189EF0E941D0C86E00E94800986E043
:1072D0000E9480098091240185FD60C085E691E0CF
:1072E0000E94C709E0914701F091480162E0828560
:1072F00093850E94F80BE0914701F0914801668563
:1073000084850E94761D86E00E9480090E94E10922
:1073100085E00E94F909C43009F0CDC04FE367E46D
:107320008FE374CF8EE40E941A099FCF85FF1DC0A2
:1073300084E40E941A09DF5FC330D9F489E991E03F
:107340000E94C70981EC0E94DA0883E392E0D13001
:1073500049F08FE392E0D23029F08FE092E0D33011
:1073600009F098CF0E94170995CF85E40E941A0969
:10737000E3CF84EA91E00E94C70982EC0E94DA0818
:107380008FEF91E0D13071F385E092E0D23051F38C
:10739000D33009F07FCF8DEE91E0E4CFE09147014B
:1073A000F09148018F70843009F44EC06685848561
:1073B0000E94761D0E94E10960E086E00E94890734
:1073C00089E40E941A090E94AB09E0914701F091FB
:1073D000480122E041E46AEF868197810E94ED0B2B
:1073E0008FE591E00E94C709E0914701F0914801C3
:1073F00062E0828593850E94F80BE0914701F0914D
:10740000480180859185803C9241E0F480E00E94B3
:107410009B0989E40E941A090E94AB0922E041E419
:107420006BEF90E080E00E94ED0B8FE591E00E9411
:10743000C709E0914701F091480162E0808591859C
:107440000E94F80B80E065CF84819581892B09F437
:10745000B3CF80E090E00E94C709E0914701F0912E
:10746000480122E041E46AEF848195810E94ED0B9E
:10747000A3CFD11103C080E00E94800980E00E9468
:107480009B098D2F0E94DF0A89E691E00E94C709BF
:107490008D2F0E94A90A0E94B407DF5F809123010B
:1074A000D81738F344E467E483E5C33009F0AECE7F
:1074B00043E467E4AACED0E0F1CF40E0692F0E9418
:1074C0009421AACB9091620124E0929FD0011124D3
:1074D000A255BE4F24E0829FF0011124E255FE4FD9
:1074E000ED90FD900D911C914081518162817381DD
:1074F000282F4E155F056007710708F4292F980F94
:10750000C3E0C91B3230E1F0C091630134E0C39F96
:10751000D0011124A255BE4F84E0289FF001112410
:10752000E255FE4F4D915D916D917C9180819181ED
:10753000A281B38184179507A607B70708F0C22F69
:107540001C2F1695D2E0DC1B02E0C11101C001E046
:10755000812F0E946B0988E191E00E94C7098D2F5D
:107560000E946B0988E191E00E94C709802F0E9468
:107570006B0980E00E94800981E0C11180E00E94D7
:10758000830A82E0811B0E94830A46CB8CE792E04B
:107590000E94C7090E940C0889EA92E00E94C7096C
:1075A00084EA92E0D6CC8111E9CA9111DECCD0CB2D
:1075B000FC01EA0DFB1DC491C03209F4782E01963E
:1075C00081319105A9F7DD2349F19D2F9770F92E9F
:1075D00011F40E94C00760E08F2D880F0E94890778
:1075E0000E94B407A895DF5FD770F12CE12CE71457
:1075F00010F1CC23C9F0070D111DF801E35AFD4F1E
:10760000E491E03211F40F5F1F4F90E080E020E141
:10761000722E9801235A3D4F5901CACF80E197E25B
:107620000E94680D882389F280E197E20E94680D2C
:107630000E94BE0EA3CAF501EE0DFF1DC491CC231E
:1076400099F3CF3F31F40E946E092FEFE21AF20A4C
:10765000CECF8C2F0E941A09F8CF0E94B90789E675
:1076600092E00E94C7098BEC0E94740C0E94BE0E2F
:1076700090E080E0CDB7DEB7E2E187C1DB018F9318
:107680009F9397D0BF91AF91A29F800D911DA39F13
:10769000900DB29F900D11240895991B79E004C0BC
:1076A000991F961708F0961B881F7A95C9F7809541
:1076B0000895AA1BBB1B51E107C0AA1FBB1FA61739
:1076C000B70710F0A61BB70B881F991F5A95A9F78B
:1076D00080959095BC01CD01089597FB072E16F477
:1076E000009406D077FD08D0E4DF07FC05D03EF417
:1076F000909581959F4F0895709561957F4F08955E
:10770000A1E21A2EAA1BBB1BFD010DC0AA1FBB1FA5
:10771000EE1FFF1FA217B307E407F50720F0A21B17
:10772000B30BE40BF50B661F771F881F991F1A9484
:1077300069F760957095809590959B01AC01BD01AE
:10774000CF010895052E97FB16F400940FD057FD36
:1077500005D0D6DF07FC02D046F408C0509540950E
:10776000309521953F4F4F4F5F4F089590958095ED
:10777000709561957F4F8F4F9F4F0895EE0FFF1FBC
:107780000590F491E02D0994A29FB001B39FC00130
:10779000A39F700D811D1124911DB29F700D811D3D
:1077A0001124911D0895F0DFB7FF0895821B930BFC
:1077B0000895EADFA59F900DB49F900DA49F800DC2
:1077C000911D11240895B7FFF4CFF3DF821B930BB3
:1077D0000895E894DF93CF93FC01DB01D5DF7F931D
:1077E0006F93E9019A01AC01BF93AF933F932F933D
:1077F000DF01CADF26F46C1B7D0B820B930B9E010D
:10780000EB01FC01DDD0AF91BF912F913F91D8D01A
:10781000BE01CF01F9012F913F91CF91DF910895E2
:10782000689401C0E894F92FF12B0AF027C0A0E07A
:10783000B0E0ECE1FCE393C0092E05941AF479D092
:10784000112392F4F0E80F26FFEFE094F0940095F6
:107850001095B094C094D094A194BF0ACF0ADF0AC7
:10786000EF0AFF0A0F0B1F0B13D007FC62D0CDB736
:10787000DEB7ECE090C0689401C0E8948F929F92CC
:10788000CF93DF9305D0DF91CF919F908F90089594
:1078900088249924F401E401B0E49F93AA279A155F
:1078A0008B049C04ED05FE05CF05D007A10798F4D5
:1078B000AD2FDC2FCF2FFE2FE92D982C892E982F5E
:1078C000872F762F652F542F432F322F2227B85022
:1078D00031F7BF9127C01B2EBF91BB27220F331F4B
:1078E000441F551F661F771F881F991F881C991CEE
:1078F000EE1FFF1FCC1FDD1FAA1FBB1F8A149B0496
:10790000EC05FD05CE05DF05A007B10748F08A1894
:107910009B08EC09FD09CE09DF09A00BB10B216022
:107920001A94E1F62EF49401AF01BE01CD01000CD2
:1079300008956095709580959095309540955095F7
:1079400021953F4F4F4F5F4F6F4F7F4F8F4F9F4F4F
:1079500008952F923F924F925F926F927F928F92F3
:107960009F92AF92BF92CF92DF92EF92FF920F93CE
:107970001F93CF93DF93CDB7DEB7CA1BDB0B0FB6D8
:10798000F894DEBF0FBECDBF09942A883988488895
:107990005F846E847D848C849B84AA84B984C8842B
:1079A000DF80EE80FD800C811B81AA81B981CE0F22
:1079B000D11D0FB6F894DEBF0FBECDBFED01089507
:1079C000E3DE460F571FC81FD91F08F431960895EC
:1079D000BB27FA01A62F6217710581059105330BAC
:1079E00030FB66F0AA27660F771F881F991FAA1F12
:1079F000A21710F0A21B63953850A9F7A05DAA3317
:107A000008F0A95DA19336F7B111B1931082CA01B4
:107A100023C04532510518F4423008F004C0FB0180
:107A20001082CB010895BB27FB015527AA27880F99
:107A3000991FAA1FA41710F0A41B83955051B9F7E2
:107A4000A05DAA3308F0A95DA193009779F7B11161
:107A5000B1931192CB0100C0DC01FC01672F719141
:107A60007723E1F7329704C07C916D937083629124
:107A7000AE17BF07C8F30895F999FECF92BD81BD37
:107A8000F89A992780B50895A8E1B0E042E050E067
:107A900013C0262FF999FECF1FBA92BD81BD20BD1C
:107AA0000FB6F894FA9AF99A0FBE01960895F1DF8D
:107AB000272FF0CFDC01CB01FC01F999FECF06C0E6
:107AC000F2BDE1BDF89A319600B40D92415050409C
:087AD000B8F70895F894FFCF08
:00000001FF
