:1000000061C3000073C3000071C300006FC3000030
:100010006DC300006BC3000069C300000C94D325BE
:1000200065C3000063C3000061C300005FC300003C
:100030005DC300005BC3000059C3000057C300004C
:1000400055C300000C94B5250C94C4254FC3000083
:100050004DC300004BC3000049C3000047C300006C
:1000600045C3000043C3000041C300003FC300007C
:100070003DC300000C94450839C3000037C300009D
:1000800035C3000033C3000031C300000C94972532
:100090002DC300002BC3000029C3000027C30000AC
:1000A00025C3000023C3000021C300001FC30000BC
:1000B0001DC300001BC3000019C3000017C30000CC
:1000C00015C3000013C3000011C300000FC30000DC
:1000D0000DC300000BC3000009C3000007C30000EC
:1000E00005C30000E62FF72F903009F49395E092B6
:1000F0000801C0920701B7EFB0937A00A5E0A09382
:100100007B00A8E0A093810010928000AFEFA09345
:100110008500A0938400A6E0A093360010928B0087
:1001200010928A00B6E0AFE7A91B51E0392F3630B4
:100130002AF0A058B94F53953650F9CFB0938900A3
:10014000A0938800A0917A00A4FFFCCFB7EBB093F6
:100150007A00A2E0A0936F00A9E0A093810062E082
:10016000A0E0A0937B00A1E0A09353008895E092CB
:100170000801C092070184FF1AC0A3E4AA95F1F711
:10018000EF93FF93E0B3F1B3A4E0C2FCA2E0C0FCA4
:10019000A1E0BF2FBA2BAE2BB1BB00930701A0BBD0
:1001A000E0BBF1BBFF91EF910DC00C94B300A7E44D
:1001B0000000AA95F1F720930801E09208010000E1
:1001C00000930701A0918400A0918500B09189005F
:1001D000A395AB1750F7A0917A00A4FFF3CFB7EB2C
:1001E000B0937A006A9571F7609178007091790008
:1001F000308186FD630F6193308186FD731F80FF20
:100200007193652F4A9579F710926F0010928100D3
:10021000B7E0B0937A000895496473733D00312DBF
:10022000032D3320342D33306E46284C290052459F
:10023000465F523D005245465F433D00203E31300F
:10024000306E460066706EE46D006B4D0104100167
:100250000204041F111111111F04001E0203021ECB
:100260000000000F0818080F00001113171F1713C4
:10027000110011191D1F1D1911001B1B1B1B1B1B1E
:100280001B005244533D005B435D00312D032D3371
:100290002000312D07062D77772D332000432B4585
:1002A0005352405450313A3300664054503200208B
:1002B0003530487A00433073616D70200043302040
:1002C0000052695F4C6F3D0052695F48693D0052C2
:1002D000303D0052482F524C002B52482D203132D5
:1002E000203133203233002B524C2D20313220313B
:1002F000332032330052482B0052482D00524866BA
:100300003D005265663D00494345733D0049434504
:10031000303D0056657273696F6E20312E31336B3C
:10032000002D77772D002D07062D002A01202000B3
:100330007A20513D0020696620002040302D35563E
:10034000002D022D002D012D004E6F742063616C75
:10035000696272617465642120466F72FF63616C2B
:100360006962726174696F6E20636C616D70207474
:1003700068652033FF70696E7320746F67657468F9
:10038000657220616E642073746172742077697481
:100390006820746865FF6B65792E2041636B6E6F12
:1003A000776C65646765207468652073656C662D7D
:1003B00074657374207769746820746865206B6550
:1003C000792077697468696EFF32732E20446973EF
:1003D000636F6E6E6563742070696E7320616674FE
:1003E000657220746865FF6D6573736167652022AF
:1003F00069736F6C617465FF50726F6265212220B2
:1004000069732073686F776E2E20536F66747761FF
:10041000726520616E6420646F63756D656E7461D2
:1004200074696F6E2069732061742073766E3A2F41
:100430002F206D696B726F636F6E74726F6C6C6579
:10044000722E206E65742F7472616E736973746F8F
:1004500072207465737465722000202049723D001B
:100460004C3D0020566C6F73733D00204553523D48
:10047000005643433D0043656C6C21002D032D0065
:100480004056673D002056743D0055663D0055625C
:10049000653D00203132333D00504E50004E504EED
:1004A00000433D00433D00423D002D49474254007A
:1004B0004A464554002D4D4F530044432050777217
:1004C000204D6F6465004F4B004261742E20004642
:1004D00072657175656E63790073686F7274205010
:1004E000726F626573210053656C66746573740086
:1004F0007475726E21004328E446292D636F727271
:10050000656374696F6E00726F7461727920656ED5
:10051000636F6465720031302D6269742050574DED
:1005200000662D47656E657261746F72005377695E
:10053000746368206F66660053686F772064617427
:100540006100566F6C74616765005472616E736907
:1005500073746F720053656C656374696F6E3A00F3
:100560005465737420456E640069736F6C617465C3
:100570002050726F626573210053656C66746573F9
:1005800074206D6F64652E2E0054696D656F7574EF
:100590002100206465746563746564004E6F2C20CF
:1005A000756E6B6E6F776E2C206F720020756E6BA0
:1005B0006E6F776E00546879726973742E0054728E
:1005C00069616300706172740064616D6167656484
:1005D0002000656D70747921007765616B0054654A
:1005E0007374696E672E00B903870358032E0307DF
:1005F00003E402C302A40288020000140029003EA2
:10060000005300690080009700AE00C600DF00F8CC
:100610000012012D01490165018201A001BE01DE28
:1006200001FF012102440268028E02B502DE0209C6
:1006300003350364039403C803FE0337047304B44F
:1006400004F90443059305EA054906B3062907AEF4
:10065000074808FF08DE09FD0A930C480F991B7034
:100660005780508D4A6645E340E83C5E3933365A40
:1006700033C6306D2E492C532A8428DA264E25DFC6
:100680002389224A212020081F011E091D201C4306
:100690001B731AAD19F1183F189517F4165A16C6A0
:1006A000153A15B3143214B7134013CE126112F871
:1006B0001193113111D31078102020202020205BBD
:1006C000524C5D0011241FBECFEFD1E2DEBFCDBF83
:1006D00000E00CBF22E0A0E0B2E001C01D92A73B09
:1006E000B207E1F70E94F8310C949A3989CC80FD69
:1006F000149A80FF14980C9A0000159A0D9A10987D
:1007000011981298139864FD109A089A65FD119A31
:10071000099A66FD129A0A9A67FD139A0B9A0000CD
:10072000159868D387FD10C0159A109811981298E3
:10073000139860FD109A61FD119A62FD129A63FD93
:10074000139A0000159856C3089580913B02809338
:10075000000280919E02809302020895CF93C82FD9
:1007600080913B028F5F80933B026C2F81E0BFDF63
:1007700038D3C83068F482E5C630B0F4C23089F0AE
:10078000C330B1F0C130E1F48EE3FED28CE70CC08F
:1007900085E7C43E49F0C43F69F0CD3289F48DE26B
:1007A00003C08CE7F1D28CE3EFD2A895CF910895E6
:1007B0008CE7EBCF8FE4E8D288E6E6D28DE6F4CF83
:1007C0008C2FF2CF8F5CCACF089580E2C7CF0895F7
:1007D000CF93C82F1C1614F0CF910895F6DFC150A7
:1007E000F9CF8DE3BBCF0895682F80E080DFF9C299
:1007F000089560933B02813021F480EC860FF4CFA2
:10080000089580E8FBCF6091000280910202F1CF51
:1008100008958DE0B9D28AE0B7C2089510929E0281
:1008200080E8E2DF10923B02F4CF089581E0DCDF44
:10083000CCD2F4CF089581E080939E0280ECD4DF87
:1008400010923B02E6CF089582E080939E0280E9F9
:10085000CBDF10923B02DDCF089583E080939E02B0
:1008600080EDC2DF10923B02D4CF0895CF93DF9387
:10087000EC018991811103C0DF91CF9108956EDF62
:10088000F8CFCF93DF93EC01FE018491982F9F77EF
:1008900019F064DF2196F8CFDF91CF9108950F937F
:1008A0001F93CF93DF93EC018C01085F1F4FFE0174
:1008B000849154DF21960C171D07C9F7DF91CF9162
:1008C0001F910F9108957CD283E38EDF82E38CDF4A
:1008D0007CD280E289DF80E287DF8AE285DF88E000
:1008E00083DF86E081DF82E07FDFA0DF6FD28CE0F4
:1008F0007BDF88E479DF82E792E0D1DF80E574DF97
:100900008AE692E0CCDF88E56FDF8AE792E0C7DF16
:1009100088E76ADF82E692E0C2DF80E765DF8AE58A
:1009200092E0BDDF80E460DF82E592E0B8CF089519
:1009300090913B0280E1891B4BCF0895CF93C82F44
:10094000F7DF80919E028F5F80939E02823060F07D
:1009500081E080939E0280933E026C2F80919E02E4
:1009600048DF57DFCF91089510923E02F6CFE6DFC1
:10097000EFD280919E02833008F04BCF08954EDF76
:10098000D7DF4CCF089557DFD3DF55CF08950895B3
:100990000F9384EA94E075DF409182024D3F6CF43E
:1009A0006091700270917102809172029091730255
:1009B00003E026E4EAD00F9108958FE3CFDEFBCF6A
:1009C000909119029F70923071F4D1DF82E892E029
:1009D00058DFE0913C02F0913D0222E044EF6FEFDE
:1009E00084819581B2C1089597FF09C08F939F9329
:1009F0008DE2B4DE9F918F91909581959F4F61E23A
:100A000072E04AE050E00E94393930CF0895ECDFBF
:100A100001C0EADFDACE0895EF92FF920F931F93A1
:100A2000182F062FF42E83E994E02BDFEE24E091BB
:100A30003C02F0913D028685E81611F4812F09C031
:100A40008485E81611F4802F04C08585E81611F41A
:100A50008F2D84DEE3948E2D833049F71F910F9103
:100A6000FF90EF900895682F80E092E0662309F4EC
:100A700091E0623009F481E008950F93082FEFE9C7
:100A8000F2E0880F880FE80FF11D6081718182818B
:100A90009381643671058105910570F420910102FE
:100AA00027FD0AC0802FDFDF692F0E948C216EEFA7
:100AB00023E044EF4AD104C04FEF04E024EF65D0B7
:100AC00084DE0F910895863058F4E2E9F2E0E80FF1
:100AD000F11DE80FF11D8081918163E041D175CE58
:100AE00008951F93182F80916D02882319F06DDEF1
:100AF00080E034DEA0DE8AE894E0C3DE812F8295B8
:100B00008F70E1DF812F8F70DEDF1F91089580915C
:100B10000D0282958F7019D080910D0283701CD0C8
:100B200080910D02DECF0895E6E8F2E0E80FF11DB6
:100B30000895CF93F9DF9081C681C91710F405D0CD
:100B400001C013D042DECF910895EEDF8F938081F4
:100B500039DE8F9101C008958F9385E493E091DE93
:100B60008F91E2DF86812ECE0895DEDF8F9386811E
:100B700029DE8F9101C008958F9381E493E081DE97
:100B80008F91D2DF80811ECE0895AEE0B0E0EBEC15
:100B9000F5E00C94D938142F322E202E6B017C01F5
:100BA0000F7080E389838A838B838C838D838E830C
:100BB000F7FE40C08DE2D2DDF094E094D094C09472
:100BC000C11CD11CE11CF11C68EE462E63E0562EC0
:100BD000612C712C033041F150E1452E57E2552E26
:100BE000612C712C043001F140EA442E46E8542E69
:100BF00066246394712C0530B9F030E4432E32E45E
:100C0000532E3FE0632E712C063071F074E6472EB0
:100C1000512C612C712C073039F420E8422E26E942
:100C2000522E28E9622E712C9AE0892E912CA12C4B
:100C3000B12C12C025FEC8CF8BE290DDC5CFC70115
:100C4000B6016B5F7F4F8F4F9F4FA50194010E94AC
:100C5000B63769017A011F5FC414D504E604F704AE
:100C600070F7E1E1E10F9BEAE99FE12D11247E2E6F
:100C7000769486E0811B899F112D11241695912F62
:100C8000990F190F811B182F5E0187E0A80EB11C68
:100C90002AE0A501C701B6010E941839F5010190AB
:100CA0000020E9F731976F01CA18DB082C2D560197
:100CB000BB24812F90E004968A159B0514F473944D
:100CC0001D5FE72DF0E0EC5BFD4FF49024FE29C0A2
:100CD000201738F50C198C2C811A800E181424F06A
:100CE0008EE23CDD012F0C19111102C088EF882E15
:100CF000E12C10E0A00EB11EC82C082C000CDD0861
:100D0000EE2DF0E0EA15FB0574F0FF2011F08F2DB9
:100D100025DD332011F0832D21DD2E96E2E10C94A8
:100D2000F53800E0D8CF3696E01BF10B81E090E07B
:100D30008C0F9D1FE80FF91F808110DDE394EC14E8
:100D40001D04F1F68EE20ADDDBCF0F93362FBC01D6
:100D500090E080E0022F242F432F17DF0F9108959A
:100D60000F93062FBC0190E080E026E54DEF0DDFEC
:100D70000F9108950F93042F28E440E006DF8AE7DF
:100D8000EDDC23DD0F9108958F932F932AE080955A
:100D9000539A089410F45B9802C05B9A000020D02C
:100DA00027D086952A95B1F72F918F91089503D07A
:100DB00002D001D000D000D003D002D001D000D0AA
:100DC00000D003D002D001D000D000D0A89503D02D
:100DD00002D001D000D000D003D002D001D000D08A
:100DE00000D003D002D001D000D000D003D002D078
:100DF00001D000D000D000000895E7DFE7DFE6DF94
:100E00001F93182F106410937C00E12FE0788091DD
:100E10002C02E81751F0E0932C02D7DF87ED809386
:100E20007A0080917A0086FDFCCF20E030E0A901B5
:100E3000E0E01FC087ED80937A0080917A0086FD04
:100E4000FCCF6091780070917900260F371F411D0B
:100E5000511DE43069F480912E02803049F084E025
:100E60002030380728F417FD03C010681F7BCBCF54
:100E7000EF5F80912B02E817E8F260912F027091EA
:100E8000300217FF04C060912D0270912E0280E0A5
:100E900090E00E9474372FEF33E040E050E00E9472
:100EA000B637B901CA0120912B0230E040E050E092
:100EB0000E94B637C9011F9108959B01281B390B69
:100EC00050F0C9010895BC0180912F029091300229
:100ED0006817790718F4861B970B089580E090E057
:100EE0000895EF92FF920F931F93CF93DF93F82E05
:100EF000E92EC5E6079B1BC0CF2DDE2D15E500E0D2
:100F0000D7FD0FC062DF110F079B1F5F1F731F33D9
:100F100091F4011103C0CF2DDE2D04E00F5F083CDA
:100F200070F0802FCDB7DEB7E6E00C9401394EDFCC
:100F3000C15001F7E1CF111102C00111F2CFA89504
:100F40001C161D06ECF62A97D9F6CFEFDFEFD8CFA7
:100F5000CF93FBDBC82F80913E028823C1F0813004
:100F600049F4C13039F46FE044DC8BE2F7DB6FE029
:100F700081E03FDC80E49FE1B4DFC13039F480914F
:100F80003E02813019F460E034DCD2DC3CDCCF91ED
:100F9000089588E290E00E946C39382F89E290E051
:100FA0000E946C3920913302230F30913402381F94
:100FB000209316023093170283E0283E380720F072
:100FC000C901885E934002C080E090E062E370E077
:100FD0000E948F37683008F067E0E7EEF5E0E60F33
:100FE000F11DE60FF11D459155912591359162E373
:100FF000681B421B530B649FC001659F900D112419
:10100000499662E370E00E948F37620F731F7093FE
:101010006F0260936E028AE290E00E946C39992719
:1010200087FD90956091330270913402860F971F6F
:1010300090932E0280932D0290936C0280936B020A
:101040000895CF93DF9324E130E0B9010E948F37F8
:10105000DC01E9EFF5E0E60FF71FE60FF71FC5919A
:10106000D591459155914C1B5D0B4A9FC0014B9FFB
:10107000900D5A9F900D1124B9010E948F376C0F6B
:101080007D1FCB01DF91CF910895189540911802F3
:10109000A0913C02B0913D02E6E8F2E030E020E0B1
:1010A000822F2417B0F451911C969C911C975917CC
:1010B00019F05581951303C02F5F3F4FF1CF220FD9
:1010C000331FF901EE56FD4F20813181293E334017
:1010D00008F084E1089510921A02109218021092FA
:1010E000660210924E021092190210923A02109269
:1010F0006D02E1E5F2E0108211821282E0E7F2E097
:10110000108A82E0818B1092010217861686148263
:1011100015821682178281EF838B08958FE434DE67
:1011200086E432DE86E430DE74DB169843DE90E03F
:1011300080E0D7CE08951F93CF93DF93162F10BA78
:1011400011BAE82FF0E0E45BFD4F94919093080111
:10115000262F281BE20FF11D27FDFA95E491E92BBC
:10116000E09307014DDEEC01812F4ADEAC012091B6
:101170002F023091300236952795C9010397BE01A1
:10118000625E7F4F8617970778F4255E3F4FC21740
:10119000D30750F4BA01625E7F4F8617970720F499
:1011A00081E04217530708F080E010920701DF91B9
:1011B000CF911F910895CF9361E080E0BCDFC82FED
:1011C00062E080E0B8DFC80F62E081E0B4DF8C0F3E
:1011D000CF910895AFE0B0E0E0EFF8E00C94D9389B
:1011E000B82E10921A02807FB9F4E5DF833081F4C3
:1011F0001DDB89E795E045DB1EDB8FE3AFDA80ED91
:1012000097E06FDE8B30B0F411DB83E193E039DBE4
:101210002F96E2E10C94F53806E910E007DB89ED42
:1012200094E02FDBC8DF833009F068C01F5F143003
:1012300008F465C000DB0E94631C8FEC92E021DBA8
:1012400060E082E090E00E94793960E083E090E025
:101250000E94793960E081E090E00E94793960E095
:1012600082E00E948C216C019A83898361E082E094
:101270000E948C217C019C838B8360E081E00E9432
:101280008C218C019E838D8323E040E26EEFC601AA
:101290005CDD23E040E26EEFC70157DD23E044EF61
:1012A0006EEFC80152DD2AE5C216D10424F084E1B4
:1012B00090E09A838983698182E090E00E94793985
:1012C0008AE5E816F10424F084E190E09C838B83A6
:1012D0006B8183E090E00E9479390A35110524F092
:1012E00084E190E09E838D836D8181E090E00E9497
:1012F000793982E080933E022BDE05C010E05FDD8D
:10130000015009F08BCFEB2DEF70EF87E13009F042
:1013100052C2EE24E394F12CF8EB8F2EF2ED9F2EC7
:10132000F7E4AF2EB12C02E0A8E0DA2EB0E23B2EBB
:10133000C12C1E2D70E3272E26DB21DB84E50EDA7F
:10134000C7015DDB42DA113009F0DCC382E093E0D3
:1013500098DA64E0809133029091340201DD6BDA17
:101360008DEF92E08EDA80916E0290916F0247DBF2
:101370008EEB80932B0210BA11BA109207011092D3
:10138000080188EE93E0ADDD143011F08B3020F4CD
:10139000C39484E0C812D0CF88EE93E0A2DDEFEFD3
:1013A000EE1AFE0AF8E0EF16F10409F0C1CF3EDABA
:1013B00080E008DA8CE4D2D914DA11BA11E010BB5B
:1013C000109308011093070180E019DD9A83898347
:1013D00058E0952E90927B0080E012DD9C838B83F9
:1013E00010927B00A981BA81EB80FC8027014A1A08
:1013F0005B0A052C000C6608770820E93AE10E9498
:101400000338A30192010E94B637CA01B901609363
:101410009F027093A0028093A1029093A20203E026
:1014200024EF4FEFB2DBD1D988E498D9DAD9C701DC
:101430004ADD9C01A0E9BAE10E94F437A3019201C0
:101440000E94B637CA01B9016093A3027093A40247
:101450008093A5029093A60224EF4FEF96DBEBD981
:1014600080E0B0D9B2D988E479D9BBD911BB109248
:10147000080180E0C4DC9A83898390927B0080E03D
:10148000BFDC9C838B8310927B00C980DA80C6010D
:101490001ADDAB80BC80CA18DB080D2C000CEE08EE
:1014A000FF089C01A0E9BAE10E94F437A701960168
:1014B0000E94B637CA01B9016093A3027093A402D7
:1014C0008093A5029093A60224EF4FEF5EDB7DD9B7
:1014D0008CE444D986D920E93AE1D5010E94033849
:1014E000A70196010E94B637CA01B90160939F0215
:1014F0007093A0028093A1029093A20224EF4FEF79
:1015000044DB59DC12E010933E0222DD8FD981E0EA
:1015100059D98CE423D965D911BA10BB64E0862E61
:10152000809208018092070181E069DC9A838983B7
:1015300090927B0082E064DC9C838B8310927B0022
:10154000A981BA81EB80FC8027014A1A5B0A052C2D
:10155000000C6608770820E93AE10E940338A301ED
:1015600092010E94B637CA01B90160939F0270933D
:10157000A0028093A1029093A20224EF4FEF05DB1B
:1015800024D988E4EBD82DD9C7019DDC9C01A0E9C2
:10159000BAE10E94F437A30192010E94B637CA0152
:1015A000B9016093A3027093A4028093A502909363
:1015B000A60224EF4FEFE9DA3ED981E003D988E4AF
:1015C000CDD80FD911BB1092080181E018DC9A83A5
:1015D000898390927B0082E013DC9C838B83109242
:1015E0007B00C980DA80C6016EDCAB80BC80CA1883
:1015F000DB080D2C000CEE08FF089C01A0E9BAE105
:101600000E94F437A70196010E94B637CA01B901BA
:101610006093A3027093A4028093A5029093A60204
:1016200024EF4FEFB2DAD1D88CE498D8DAD820E999
:101630003AE1D5010E940338A70196010E94B6370E
:10164000CA01B90160939F027093A0028093A10226
:101650009093A20224EF4FEF98DAADDB10933E0295
:1016600077DCE4D882E0AED88CE478D8BAD880BAF7
:1016700080E1809308018093070182E0C0DB9A83B8
:10168000898390927B0084E0BBDB9C838B831092E8
:101690007B00A981BA81EB80FC8027014A1A5B0A92
:1016A000052C000C6608770820E93AE10E9403380F
:1016B000A30192010E94B637CA01B90160939F024B
:1016C0007093A0028093A1029093A20224EF4FEFA7
:1016D0005CDA7BD888E442D884D8C701F4DB9C016B
:1016E000A0E9BAE10E94F437A30192010E94B63743
:1016F000CA01B9016093A3027093A4028093A5026A
:101700009093A60224EF4FEF40DA95D882E05AD8A2
:1017100088E424D866D881BA1092080182E06FDB91
:101720009A83898390927B0084E06ADB9C838B831D
:1017300010927B00C980DA80C601C5DBAB80BC801B
:10174000CA18DB080D2C000CEE08FF089C01A0E96C
:10175000BAE10E94F437A70196010E94B637CA0188
:10176000B9016093A3027093A4028093A5029093A1
:10177000A60224EF4FEF09DA28D88CE40E94AE03CA
:1017800030D820E93AE1D5010E940338A70196013B
:101790000E94B637CA01B90160939F027093A002FC
:1017A0008093A1029093A20224EF4FEFEED903DBC6
:1017B00010933E02CDDB18E7FEDC882339F0E3D836
:1017C00089E695E05ED8F8DA1150B1F72FD888ECA9
:1017D00092E057D823E044EF6FEF8091310290916F
:1017E0003202B3DA28D881EC92E04BD823E044EF00
:1017F0006FEF8091380290913902A7DA82E08093EE
:101800003E02A6DB10921A0211D88DEB92E039D875
:1018100060E082E00E946F198090780290907902D7
:10182000A0907A02B0907B029C868B8661E082E079
:101830000E946F19C0907802D0907902E0907A02ED
:10184000F0907B02DE86CD8660E081E00E946F1919
:1018500000917802109179021E830D8362E080E08E
:101860000E946F1980917802909179029C838B83FA
:1018700062E081E00E946F19809178029091790274
:101880009A87898761E080E00E946F1980917802D1
:10189000909179029A8389832F85213029F02091B4
:1018A0003702223009F02FC2029698878F83C40135
:1018B000B0D8C601AED8B801110F880B990B03E060
:1018C00026E444EF62D98E010F5F1F4F9E01215F16
:1018D0003F4F7801F701819191917F010A97853BF4
:1018E0009105D8F4E217F307A9F741E2C42E40E0CE
:1018F000D42EF80160810E5F1F4F6E5EC6010E94FC
:101900007939FFEFCF1ADF0A0E151F0591F70E94F4
:101910001B0486EC94E00E94410482E080933E0226
:1019200017DB0E94972E2F85213029F080913702F6
:10193000823009F0CEC00E94160480E00E94E203CB
:101940008CE794E00E94410482E00E94E2038CE371
:1019500092E00E94410420E4E22EF12C3AE0832E32
:10196000912CA12CB12CB7DB10921A0260E082E01E
:101970000E946F19109182022091700230917102C1
:101980004091720250917302173F0CF4C4C110933E
:10199000820220937002309371024093720250933E
:1019A0007302173F09F0BFC120563109410951099F
:1019B000203935454105510508F0B5C160918402D3
:1019C00070918502CB018B569F4F8B32914008F06E
:1019D000AAC1F394F4E0FF1508F0A6C188E290E0F4
:1019E0000E9487390E94160485E392E00E94410418
:1019F00080918402909185020E94F404CADA11BA9F
:101A000081E080BB80E28093070182E0F9D9853DC7
:101A10009340DCF71092070110922E0210922D02D3
:101A200082E0EED97C0180916B0290916C029093E0
:101A30002E0280932D0282E0E3D96C01CC0CDD1CD8
:101A400010922E0210922D0282E0DAD94C01A09061
:101A50006B02B0906C02B0922E02A0922D020E94F6
:101A60001B048EE292E00E9441048AE290E00E9410
:101A70006C39182FD701A80DB91DAC19BD099501F6
:101A80000E94033896010D2C000C440B550B0E944C
:101A9000D8371D5F120F612F8AE290E00E947939DA
:101AA000812F012E000C990B0E94F40472DA82E05F
:101AB00080933E024DDA109237028CE00E94F403CC
:101AC00081E290E00E946C39682F84E290E00E94ED
:101AD000793989E180932B0280E00E94B4310E9421
:101AE000160483E193E00E9441040E941B0480E6F7
:101AF00095E00E94410410921A0282E080933E0217
:101B000027DA86CB1230A9F520912F0230913002CE
:101B1000A8E5BBE10E94F43724EC36E340E050E056
:101B20000E94D837290181E080930801F5E0F09305
:101B3000070180E062D9841995099A83898381E13C
:101B40008093070180E059D9841995099C838B8380
:101B500084E08093080184E18093070181E04DD9FE
:101B6000841995099E838D8387EE92E00E9441043B
:101B700039C0133071F5009308012AE02093070162
:101B800080E03BD920912F02309130023695279585
:101B900038872F83821B930B9A83898382E28093F9
:101BA000070180E02AD92F813885821B930B9C8303
:101BB0008B83D0920801E8E2E093070181E01DD910
:101BC0002F813885821B930B9E838D8389ED92E054
:101BD000CDCF1430D1F489E695E00E944104EBDAD0
:101BE0008111B9C00E941B0489819A810E94F4046A
:101BF0000E94E5038B819C810E94F4040E94E5030E
:101C00008D819E810E94F404B6CB1530B9F41092F8
:101C100008010093070180E0F0D89A838983D0926D
:101C2000070181E0EAD89C838B833092070182E030
:101C3000E4D89E838D8389EF92E098CF163069F5C2
:101C4000009307010093080180E0D7D820912F026C
:101C500030913002821B930B9A838983D0920701C3
:101C6000D092080181E0C9D820912F023091300232
:101C7000821B930B9C838B83309207013092080167
:101C800082E0BBD820912F0230913002821B930B4F
:101C90009E838D8385EF92E069CF173081F5209187
:101CA0002F0230913002A8E5BBE10E94F437A50174
:101CB00094010E94B637290100930801F3E0F093E4
:101CC000070180E09AD8841995099A838983D09274
:101CD00008012CE02093070181E08FD88419950931
:101CE0009C838B83309208012092070182E085D883
:101CF000841995099E838D8383ED92E037CF11304F
:101D000009F070CF38CB98878F83109237028CE020
:101D10000E94F403CCCD1F5FCA01B901A501940153
:101D20000E94B63731CEF12C0E941B0460917002E4
:101D300070917102809172029091730204E026E426
:101D4000409182020E94C5050E94980438D8EA9406
:101D5000E11009CEBECE82E0C82E44CF809137027A
:101D600081110DC081E290E00E946C3961E0680F42
:101D700084E290E00E94793981E0809337020895EF
:101D8000EF92FF920F931F93CF93DF93D62FE82FFD
:101D9000F0E0E15BFD4FE491E1BBE0BB1092080194
:101DA000E62FF0E0E45BFD4FE491E0930701CE2FD6
:101DB000CC0F88E8E82E83E1F82E8D2F1ED88C01F9
:101DC000C09307018E159F0510F1892BD9F08AE584
:101DD00094E00E944104D80120EA36E841E050E056
:101DE0000E94093828E937EB40E050E00E94B637FE
:101DF000C90122E041E467EF0E94A50610BA11BABA
:101E000010920701CDB7DEB7E6E00C9401397801F6
:101E1000D4CFFC019C01261B370BCA0170E060E0A7
:101E2000A901460F511D452F5527620F240F351F5D
:101E3000AC01470F511D452F5527780FDA01AA0F26
:101E4000BB1F8A0F9B1F4B3E20F4E217F30740F79E
:101E5000089590E080E00895A7E1B0E0E2E3FFE0BC
:101E60000C94D9388E8B162F042FA895E62FF0E00E
:101E7000E45BFD4F24912D87220F2D8B33963491F7
:101E80003A83E42FF0E0E45BFD4F44914B833396BB
:101E9000F490E82FF0E0E45BFD4F84918983880F94
:101EA0008E87339694919F8B409308016D84642AAA
:101EB0006092070190BB91BB862F0E94FF066C01C8
:101EC000ED85E0930701812F0E94FF06782EE92E11
:101ED000109207010E94E506109208016092070126
:101EE000812F0E94FF06B6010E945D074C01FA8116
:101EF000F0BB11BA2B813981232B2C83209308014D
:101F0000209307018E890E94FF060E9463075C01EF
:101F1000109208010E94E5064981409308018E89CC
:101F20000E94FF060E9463079C878B8789818093AC
:101F300007018E890E94FF060E9463071C016B85C2
:101F40007C85C5010E945D078032E1E09E0730F488
:101F5000F0E28F16F1E09F0608F4A0C62B853C85C1
:101F6000820E931E8C0D9D1D8816990620F0DC862E
:101F7000CB86272C3E2C20914E0280916602820F48
:101F80009927991F02974CF0213009F0B5C590911F
:101F90004B02809163029813AFC5EB80EE0C7D84F9
:101FA0007E2839813E293A878B859C858437910527
:101FB00008F4A5C10A96880F991F2816390608F05B
:101FC0009EC19F8990BB91BB70920701812F0E9497
:101FD000FE066C01802F0E9400075C01E092080160
:101FE000812F0E94FE069601295A3D4F11BA2817EB
:101FF000390708F0B6C0EA81E0BBFA85F093070123
:10200000F0930801802F0E94FE0688349F4008F458
:10201000A3C085E080931A0282E280931902D092D5
:102020004402C0924302B501C6010E946807909322
:102030004A02809349029601A0E1B7E20E94F43778
:10204000209114023091150250E040E00E94B63712
:1020500030934602209345028D898E298093070193
:10206000109208013F8930BB31BB802F0E940007CE
:102070006C01812F0E94FE06B6010E9468079C0138
:102080009093480280934702909119029F70943078
:1020900079F5409145025091460260914902709154
:1020A0004A02C901B6DE0097F9F0E09207014F89B4
:1020B0008A81482B40BB812F0E94FE066C0110BA1A
:1020C0009C01A0E1B7E20E94F437209138023091E0
:1020D000390250E040E00E94B637A901B601809174
:1020E00047029091480295DE909344028093430208
:1020F000809119028F70843049F111BA9A81F92ABE
:10210000F0BAE981E0930701FC81F09308018E8920
:102110000E94FF066C010E9463077C01812F0E94D0
:102120000007A0901B02B0901C02BC01C6010E94D7
:1021300068079501DC010E94F437970150E040E008
:102140000E94B637309344022093430280914E029E
:102150008F5F80934E0256C385E080931A0284E21B
:102160005CCF2A8120BB3A85309307013093080168
:102170008E890E94FE066C01802F0E9400075C0180
:102180004981409308018E890E94FE06895A9D4F1D
:102190008C159D0508F0B0C48F8981BB80BB802F52
:1021A0000E94FE06813D934008F0A4C085E0809324
:1021B0001A0282E380931902B601C5010E946807E2
:1021C0009093620280936102C6010E9463079C01A2
:1021D000A0E1B7E20E94F43720911B0230911C026B
:1021E00050E040E00E94B63730935E0220935D02DB
:1021F00011BAFA81F0BB8E858E29809307018093F6
:1022000008018E890E9400076C01802F0E94FE0643
:10221000B6010E9468079C019093600280935F0260
:10222000909119029F709430A1F540915D025091F8
:102230005E026091610270916202C901EADD00975D
:1022400021F1E0920801E09207012F8921BBEA8188
:10225000E22BE0BB8E890E94FE060E9463076C01A0
:1022600010BA9C01A0E1B7E20E94F437209131023C
:102270003091320250E040E00E94B637A901B60129
:1022800080915F0290916002C4DD90935C02809324
:102290005B02809119028F70843031F13F893F29B0
:1022A00031BB30BB109208014C81409307018E89ED
:1022B0000E94FF065C01812F0E9400077C01C090F4
:1022C0001402D0901502BC01C5010E946807960156
:1022D000DC010E94F437970150E040E00E94B637DD
:1022E00030935C0220935B02809166028F5F809343
:1022F000660216C185E080931A0284E35BCF11BAAF
:102300008A8180BB998190930801EA85E093070157
:102310008E890E94FF06988B8F870E9463079F8398
:102320008E83802F0E940007998788872101F4E619
:102330004F0E511C2E813F81B1014216530608F009
:10234000F1C0C9010E9468076C0120911B02309105
:102350001C0250E040E060E871EA83E09CE10E94EA
:10236000B637D6010E940938E885F9859F0150E00B
:1023700040E00E94B63749015A01109207011092BD
:102380000801FF89F1BBF0BB0E94E60660920701DD
:10239000812F0E94FF068F359D4008F46CC170921A
:1023A0000701812F0E94FE066C01802F0E9400070A
:1023B0009A8B898B8E890E9400079C8B8B8B8989D5
:1023C0009A89813D974008F4E1C084E080931A0225
:1023D0008DE08093190276012C143D0410F4E2186C
:1023E000F3084090140250901502712C612C60E8A3
:1023F00071EA83E09CE1A30192010E94B637D70104
:102400000E940938E989FA899F0150E040E00E9462
:10241000B63780916602882371F0809157029091BF
:102420005802A0915902B0915A0282179307A4074B
:10243000B50708F097C02093570230935802409395
:10244000590250935A029601A0E1B7E20E94F43774
:10245000A30192010E94B63730935E0220935D0281
:1024600069897A898B899C890E94680790935C02AC
:1024700080935B0281E04091570250915802609135
:10248000590270915A02481559056A057B0508F0F2
:102490006BC08092570290925802A0925902B0925B
:1024A0005A02688579858F8598890E94680790937C
:1024B0005C0280935B022E813F81A0E1B7E20E9423
:1024C000F43720911B0230911C0250E040E00E9442
:1024D000B637205F384D30935E0220935D02C09086
:1024E0001402D0901502F12CE12C9101A0E1B7E289
:1024F0000E94F437A70196010E94B637309360021C
:1025000020935F022B853C85A0E1B7E20E94F4375F
:10251000A70196010E94B6373093620220936102B0
:1025200081E024C08E819F810E9468076C01FC813C
:10253000F09307018E890E94FF06988B8F870E9477
:1025400063079F838E83802F0E9400079987888767
:10255000BC01C6010E9468079C01A4E6B0E00E948D
:10256000F43702CF80E087CF8111B9CF9091660216
:102570009F5F90936602882309F483C300936302EC
:10258000109364024E89409365027BC3F1E62F16D7
:10259000310408F070C021EDC21627E0D20608F41D
:1025A0006AC085E080931A0282E180931902C60115
:1025B00086509F4FEB89FC898E179F0708F044C017
:1025C00083E180931902FA81F770BF2E802F806417
:1025D00080937C002BE02983CC24C394D12CEE245F
:1025E000EA94A3E0FA2EA89561E08B817FD57092E2
:1025F00007018FB18B21E9F33D853093070180916D
:102600007A00806480937A0080917A0086FDFCCF06
:102610008091780090917900F701E81BF90BCE0EBC
:10262000DF1EF981F150F983F111DDCFC601880F6A
:10263000991F880F991F69E070E00E948F3770938F
:1026400062026093610250CEE0901402F090150295
:10265000B6018B899C890E9468079701DC010E9462
:10266000F437960150E040E00E94B63730935C02A8
:1026700020935B02A8CF70920701E0920801812F9E
:102680000E94FF065C01802F0E9400079F838E83BB
:102690000E9463077C014A145B0408F0B5C0B101D5
:1026A000C5010E9468076C01209114023091150247
:1026B00050E040E060E871EA83E09CE10E94B637B8
:1026C000D6010E940938970150E040E00E94B637D9
:1026D00029013A013A8130BB11BA4C81409307017C
:1026E000409308018E890E94FF066C01802F0E9492
:1026F00000074C01812F0E9400077C0180E3C8166F
:1027000081E1D80608F0F6C19981909308018E897D
:102710000E94FF0699878887E981E09307018E89E7
:102720000E94FF06988B8F87109208010E94E60690
:10273000F981F09308018E890E94FF062F85388960
:102740002034364008F080C08133914108F47CC0C9
:10275000C6018A569F4F288539852817390708F002
:1027600073C086E080931A0280914E028F5F80933F
:102770004E02B701C4010E946807909344028093FF
:102780004302B701C6010E94680790934A028093F2
:10279000490210920701109208013A8131BB0E9450
:1027A000E6064981409307018E890E94FF06853F16
:1027B000910540F58C8180930701802F0E94FF06D0
:1027C000813D9340F8F08E890E9400078D3D924034
:1027D000C8F02981209307018E890E94FF068D3D54
:1027E000924080F04981409308010E94E6061092D1
:1027F00008018E890E94FF06853F910518F487E045
:1028000080931A0281E0F8C0609207012B81209327
:102810000801812F0E94FF065C01802F0E940007A3
:102820009F838E830E9463077C01C5012A143B04A9
:1028300010F482199309B7010E9468079C01A4E66D
:10284000B0E00E94F4373FCF8A8180BB9B81909398
:102850000701909308010E94E606EA85E0930701CC
:10286000E09308018E890E94FF066C010E946307B5
:102870007C01802F0E9400079D838C830E94630748
:1028800099878887812F0E9400074C012885398508
:102890002E3F394008F4C0C084E080931A028CE0D7
:1028A00080931902B101C7010E9468076C01209151
:1028B0001B0230911C0250E040E060E871EA83E0C6
:1028C0009CE10E94B637D6010E940938E885F98557
:1028D0009F0150E040E00E94B63780914E0288236D
:1028E00071F080913F0290914002A0914102B0911D
:1028F000420282179307A407B50708F079C0209316
:102900003F02309340024093410250934202B4018F
:102910008C819D810E9468079093440280934302BA
:102920009701A0E1B7E20E94F43720911B02309199
:102930001C0250E040E00E94B637309346022093DC
:10294000450281E040913F02509140026091410276
:1029500070914202441555056605770508F04AC096
:1029600040923F02509240026092410270924202B5
:10297000B5018E819F810E946807909344028093E5
:1029800043029501A0E1B7E20E94F43720911402BE
:102990003091150250E040E00E94B637205F384D7C
:1029A00030934602209345029101A0E1B7E20E94D4
:1029B000F437209114023091150250E040E00E945B
:1029C000B63730934802209347022B853C85A0E11F
:1029D000B7E20E94F43720911B0230911C0250E0B4
:1029E00040E00E94B63730934A02209349020ACF52
:1029F00080E0A8CF8111D8CF90914E029F5F909335
:102A00004E02882309F43DC100934B028E898093C6
:102A10004C0210934D0235C1F1E62F16310408F037
:102A200069C029E4E2162DE0F20608F463C085E0EF
:102A300080931A0282E080931902C40186509F4F4E
:102A40008C159D0508F040C083E0809319023F89F2
:102A50003770D32E802F806480937C004BE04A83B4
:102A6000EE24E394F12CA89560E08B813FD38A8516
:102A700080930701809308018FB18D21E9F7998137
:102A80009093070180917A00806480937A0080910E
:102A90007A0086FDFCCF8091780090917900E80E55
:102AA000F91EEA81E150EA83E111DDCFC701880F09
:102AB000991F880F991F69E070E00E948F3770930B
:102AC0004A026093490242CBA0901B02B0901C02C4
:102AD000B401C6010E9468079501DC010E94F43729
:102AE000970150E040E00E94B637309344022093B3
:102AF0004302ADCF10BA11BA10920701109208012B
:102B000010BAF7EC2F16F1E03F0608F4E4C011BA52
:102B10002E852093070108ECEA803F89E32AE0BA7A
:102B20000E94E6064A8140BB8E890E9400074297B8
:102B300010F00150A1F78E85809307018093080162
:102B400061E08B81D3D28E890E94FF064C019D8962
:102B50009093070110920801EF89E0BBE1BB60E0B0
:102B60008B81C4D2812F0E94FF060E9463076C01F3
:102B7000FD85F0930701812F0E9400077C018E895B
:102B80000E94FF06B7010E9468075C01812F0E9426
:102B900000077C018E890E94FF06B7010E9468072A
:102BA00095012C5E3F4F2817390708F46AC011BA07
:102BB0002A8120BB3981309307013093080161E0FD
:102BC0008B8194D2812F0E9400077C018E890E9404
:102BD000FF06B7010E9468077C01A816B90608F035
:102BE00060C04E8540930701409308018E890E9482
:102BF000FF069C016401E8EEEE16E3E0FE0608F035
:102C000063C0C70164E670E00E948F37C70187592F
:102C100091098938914108F05EC02E153F0508F0F2
:102C20005AC0C60143E0969587954A95E1F7893CDD
:102C3000910510F088EC90E08C0D9D1D8E159F0580
:102C400008F049C06C157D0508F045C080911A0256
:102C5000833018F483E080931A0220911802822FA7
:102C600090E0FC01EA57FD4F3E8930831683880FC0
:102C7000991FFC01EE56FD4FF182E0822F5F2093F9
:102C8000180210BA11BA10920701109208018EE2D0
:102C90000E94AE036796E2E10C94F538272C3E2C97
:102CA0002BCF8D8980930701109208019F8990BBDB
:102CB00091BB60E08B811AD2812F0E94FF060E9497
:102CC00063079C01750197CFB70154E0769567952E
:102CD0005A95E1F79BCF612F8E8901D0D2CFB0E01A
:102CE000A0E0E5E7F6E10C94DB38C82FD62FA895D5
:102CF000862F90E0FC01E45BFD4F549033962491C5
:102D00004C2F50E0FA01E45BFD4F1491339604918F
:102D10006091660230914E02630F7727771F672B11
:102D200009F05AC0A89560911E0270911F02660FAB
:102D3000771F660F771F7093300260932F026091A8
:102D40006B0270916C02660F771F660F771F70938E
:102D50002E0260932D023EEB30932B0260911802FD
:102D6000E6E8F2E030E0840F951F63133AC011BA31
:102D700020BB1093070110930801B8E1BB2ED12CA2
:102D8000C12C8D2F0E94FF06782E692E8C2F0E9459
:102D900000077C018C199D0997FF03C091958195CF
:102DA000910903970CF45AC1A895BA946701B11020
:102DB000E8CF80911E0290911F0290933002809381
:102DC0002F0280916B0290916C0290932E0280935F
:102DD0002D0289E180932B02CDB7DEB7E0E10C94A0
:102DE000F73851914581450F5527551F4817590709
:102DF00001F33F5FBACF25E8C21621E0D206C8F63C
:102E0000043AE2E01E0708F0B5C0F8E9AF16B104D5
:102E100080F2C6010E946307AC019601A8E9B7EBF6
:102E20000E94F4379A0150E040E00E94B637290131
:102E30003A01C5010E9463079C01A8E9B7EB0E9413
:102E4000F437950150E040E00E94B63788E7C81695
:102E50008FE0D80608F072C0F2E0440C551C661CE6
:102E6000771CFA95D1F7C301B201620F731F841F5B
:102E7000951F25E030E040E050E00E94B637A4E620
:102E8000B0E00E9409386B017C01FCEACF0EFDE046
:102E9000DF1EE11CF11C10911A02143008F089CFDA
:102EA000C1500C2F0D0F802F90E0EC01CF5ADD4F59
:102EB0002881880F991F880F991F81569D4FFC010B
:102EC000222309F4C4C080809180A280B380A7012E
:102ED0009601281939094A095B0957FF07C050951F
:102EE0004095309521953F4F4F4F5F4FAAE0B0E09E
:102EF0000E940938F4E68F0E911CA11CB11CA5019B
:102F000094012C0D3D1D4E1D5F1D0E94B637232BD5
:102F1000242B252B09F04DCF133019F081E080933D
:102F20001A0282E0888380916D02E82FF0E0EC5A6B
:102F3000FD4F00838F5F80936D023BCFE8E7AE16B5
:102F4000EFE0BE0670F4E2E0220F331F441F551F6E
:102F5000EA95D1F7CA01B901640D751D861D971D4B
:102F600088CF240D351D461D571D5695479537951D
:102F7000279585CFC0901B02D0901C02672D762D1F
:102F8000E616F70608F4B701C7010E946807960124
:102F9000DC010E94F4372B013C01C7010E9463074A
:102FA0009C0150E040E0C301B2010E94B637290104
:102FB0003A01A0901402B0901502892D982D801727
:102FC000910708F4C801B8010E9468079501DC0167
:102FD0000E94F437980150E040E00E94B63788E73D
:102FE000E8168FE0F806B0F462E0440C551C661C4D
:102FF000771C6A95D1F7C301B201620F731F841F5A
:10300000951F25E030E040E050E00E94B6376901AE
:103010007A0141CF0837EFE01E0770F4CA01B90109
:1030200052E0660F771F881F991F5A95D1F7640DDC
:10303000751D861D971DE5CF73016201C20ED31E5B
:10304000E41EF51EF694E794D794C79424CFC0826B
:10305000D182E282F38281E08883ABCE110F10929D
:103060000801109307018C2F0E94FF0681359105FE
:1030700008F09FCE109308018C2F0E94FF066C0170
:1030800000BB01BB1092080150920701A8E14A2E33
:10309000B12CA12C8C2F0E94FF06982E892E8D2FEB
:1030A0000E9400078C018A199B0997FF03C0919524
:1030B00081959109039734F0A8954A9458014110DD
:1030C000E9CF77CE550C509207018D2F0E94FF0655
:1030D0005C01F0ECEF16F4E4FF0608F48CCE80EB14
:1030E000C8168DE4D80608F064CE8ACECF93C82FD8
:1030F000C0959091080160FF16C0982B909308012D
:1031000090910701892B809307010E94E506809129
:1031100007018C2380930701809108018C23809301
:103120000801CF9108959C23E9CFAF92BF92DF921F
:10313000EF92FF920F931F93CF93DF931AE08FE3E9
:10314000D82E09E010BA11BA10920801D0920701E6
:1031500080E00E94FF067C0181E00E940007EC01F4
:1031600082E00E9400079C0180911A028930C9F414
:1031700010BA10920701F0920402E0920302D09379
:103180000602C09305023093080220930702DF91E4
:10319000CF911F910F91FF90EF90DF90BF90AF9074
:1031A000089584E0E816F10450F4C430D10508F025
:1031B0004EC024303105E0F291E092600AC091E007
:1031C00088EEE81683E0F80608F090E0C83ED340A9
:1031D000A0F3283E334008F4946090BBD0E0C0E0F8
:1031E000A89580E00E94FD065C0181E00E94000736
:1031F0007C0182E00E94000724E1A21625E0B206CD
:1032000008F4809A24E1E21625E0F20608F4819A97
:10321000843125E0920708F4829A26E0A216B104D0
:1032200030F426E0E216F10410F4069738F0219607
:10323000C43F81E0D807A1F600931A02F12CE12CDB
:10324000EC16FD0631F4115009F07CCFA0CF91E0CF
:10325000BDCF0E94EB062FEFE21AF20AF1CFCF9218
:10326000DF92EF92FF92CF93209170023091710222
:103270004091720250917302C09182028AE0C82E7E
:10328000D12CE12CF12C8C2FCF5F213A96E8390715
:1032900091E049075105E0F480938202A0912F024A
:1032A000B09130020E94093828E833E140E050E054
:1032B0000E94B637209370023093710240937202DD
:1032C00050937302CF91FF90EF90DF90CF900895CD
:1032D000CA01B901A70196010E94B637D4CF4F9217
:1032E0005F926F927F928F929F92BF92CF92DF9266
:1032F000EF92FF920F931F93CF93DF93182FB62E69
:10330000880F810F9FEF960F890F80935002E12F56
:10331000F0E0E45BFD4F0491862F90E0FC01E45B5C
:10332000FD4FC491FC01E15BFD4FE49080911A02D6
:10333000813009F457C020911802A6E8B2E090E06D
:1033400080E0821708F45EC010927D0210927C0229
:1033500081EF80938202109270021092710210929B
:10336000720210927302E1DE11BAE0BAC093070153
:10337000C0930801812F0E9400076C018B2D0E94D1
:103380000007C81AD90A10920701D0E0C0E00093E4
:103390000801009307010E94E506109207011092B0
:1033A00008010E94EC06A895812F0E9400074C019D
:1033B0008C189D08CE37D10520F08BE48816910437
:1033C0005CF02DE2821621E092060CF081C121967C
:1033D000C43F31E0D307D9F610BA11BA10920701F1
:1033E00010920801DF91CF911F910F91FF90EF9004
:1033F000DF90CF90BF909F908F907F906F905F9065
:103400004F90089516963C9116973B110DC03C9134
:1034100031130AC0FC01EE0FFF1FEA57FD4F448530
:1034200055854C3D5540F0F2019611968ACFD12C2E
:1034300000E080C17ADE1092080187E080BB11BAFB
:10344000F02EFF0CF092070180E480937B0084E56E
:1034500080BF812F806480937C0087E180937A0015
:103460000E94EF0610928000109285001092840056
:1034700087E286BBF092080180911A02853009F03C
:1034800006C181E08093810081E090E0012E01C0BF
:10349000880F0A94EAF78095877080BBF12CE12CA5
:1034A00091E086B385FD0CC080FFFBCF96BBA8954D
:1034B0002FEFE21AF20A30E8E3163CE0F30689F750
:1034C0001092810090E296BBC0908600D090870059
:1034D0002091840030918500C216D30638F480FF15
:1034E00005C081E086BB8FEFE81AF80A87E9809370
:1034F0007A001092070110920801812F0E940007A4
:103500002091330230913402821B930B0C969093DE
:1035100085028093840220E4E21626E0F20608F099
:103520005BCFF0927B02E0927A02D0927902C09255
:10353000780284EF8093820232E4E316F104C8F04B
:10354000609178027091790280917A0290917B0269
:1035500024E630E040E050E00E94B6372093780245
:103560003093790240937A0250937B0286EF8093E6
:103570008202A0916E02B0916F0220917802309188
:10358000790240917A0250917B020E94093820E42E
:1035900036E040E050E00E94B63720937802309346
:1035A000790240937A0250937B0220937002309309
:1035B0007102409372025093730251DE8091820235
:1035C000843F09F054C0C0907002D0907102E09026
:1035D0007202F090730280EAC8168FE0D806E10408
:1035E000F104C0F4A70196012C543F4F4F4F5F4F99
:1035F00060EA7FE080E090E00E94B637C20ED31E02
:10360000E41EF51EC0927002D0927102E092720226
:10361000F0927302C0907002D0907102E09072023A
:10362000F0907302C114D10421E0E206F104A0F588
:10363000D092B002C092AF028091500290E08F5DB4
:103640009F4F0E946C3990E0B0E0A0E08C159D0582
:10365000AE05BF0540F5C81AD90AEA0AFB0AC092AE
:103660007002D0927102E0927202F09273020093A3
:1036700007018091700290917102A0917202B09145
:1036800073024997A105B10508F4A6CEA8C081E050
:1036900080938100E0BA02CF81E090E09093B00285
:1036A0008093AF02C9CF34E1C30ED11CE11CF11CE1
:1036B000C816D906EA06FB0610F40E94AE0E109258
:1036C0007002109271021092720210927302CFCFA8
:1036D000209731F485E1881685E098060CF0AACE93
:1036E000F12CE12C0E94E606812F0E940007A8958C
:1036F0002FEFE21AF20ACE15DF05A0F78C199D090B
:103700007401E81AF90A1E141F040CF090CE39EC6B
:10371000E316F1040CF060CE28EE33E0D7010E94EE
:1037200003389401092C000C440B550B0E94B6374A
:10373000D22E032F2196CE01B0E0A0E08093780234
:1037400090937902A0937A02B0937B02C4018E0D0C
:103750009F1D8AD0209178023091790240917A029F
:1037600050917B02DC010E940938609378027093CB
:10377000790280937A0290937B0260937002709337
:103780007102809372029093730287EF809382029A
:1037900066DD4090700250907102609072027090ED
:1037A000730284E090E00E946C39A8EEB3E0A81B9D
:1037B000B10987FDB395A30192010E94133824E655
:1037C00030E040E050E00E94B63720937002309322
:1037D00071024093720250937302CD2DD02F8091CD
:1037E0001802882329F080911A02853009F0F4CD5F
:1037F00088E080931A028091820290918302981748
:10380000C4F08913E9CDC0907002D0907102E090AD
:103810007202F090730240917402509175026091AF
:103820007602709177024C155D056E057F0508F0F4
:10383000D3CD4091700250917102609172027091EB
:1038400073024093740250937502609376027093F2
:10385000770280938302D0937F02C0937E02B0925E
:10386000800210938102B8CD0F9221E08C32920732
:1038700010F48CE291E08C52914069E170E00E947A
:103880008F3799E16B3210F0982F6BE2981BEFE5C0
:10389000F6E0E60FF11DE60FF11D459155912591DA
:1038A0003591692F421B530B649FC001659F900D9A
:1038B00011240C9669E170E00E948F37620F731F2C
:1038C000CB010F900895B0E0A0E0E9E6FCE10C9494
:1038D000DF3888E893E190931F0280931E02909353
:1038E000300280932F028EEB80932B0211BA80E17D
:1038F00080BB0E94F40610BA84E00E94FF06AC016F
:103900008B5C9840833F9140A0F481E080933A0221
:1039100020912F0230913002AFEBB9E00E94F437D2
:103920009A0150E040E00E94B63730931F02209386
:103930001E0280911E0290911F029093300280938C
:103940002F028EE10E9400078EE10E94FF069093F5
:103950003402809333020E94C907E7DB11BAC1E049
:10396000C0BB85E180930801C093070180E00E94FD
:10397000FF068C0182E0D82ED0BAD4E0D0930701A4
:1039800081E00E94FF06080F191FD0BB90E1C92EED
:10399000C092070182E00E94FF06080F191F1092D3
:1039A0000801C1BBC0BBC093070180E00E94FF06B5
:1039B0000E9463077C01D1BAD0BAD093070181E09D
:1039C0000E94FF060E946307E80EF91ED1BBD0BB20
:1039D000C092070182E00E94FF060E946307E70190
:1039E000C80FD91F10BA11BA1092070180912F0287
:1039F000909130026C01CC0CDD1CC80ED91EC01A8F
:103A0000D10ACC1ADD0AF12CE12C9801A0E9BAE127
:103A10000E94F437A70196010E94B63749015A0166
:103A200030933902209338029E01A0E9BAE10E9446
:103A3000F437A70196010E94B637309332022093E3
:103A400031022057354E30931C0220931B0280E731
:103A5000881A85EE980A909215028092140289E1E4
:103A600080932B02CDB7DEB7ECE00C94FB38CF92FD
:103A7000DF92EF92FF920F93CF93DF93F82ED62F22
:103A8000C42F0E94E20386E293E00E94410409D21F
:103A90006D2F8F2D0E942C30C090B302D090B402B5
:103AA000E090B502F090B6028091010287FD05C05A
:103AB000C114D104E104F10421F082E293E00E94F8
:103AC00041048D2F0E94E203C114D104E104F104EA
:103AD00009F474C00E94E503809154020E943D05E0
:103AE000CC2309F467C080913B028D3030F48650BE
:103AF000990B8754994F0E94410480E00E94B704BB
:103B0000CD28CE28CF2809F45EC06091B302709111
:103B1000B4028091B5029091B60203E028E447EF29
:103B20000E94C50585E393E00E9441048BE290E08A
:103B30000E94743922E046E464EF0E94A506809159
:103B4000AB029091AC02A091AD02B091AE02892B74
:103B50008A2B8B2B01F180E00E94B7046091AB02AD
:103B60007091AC028091AD029091AE0204E028E425
:103B700040E00E94C50580E393E00E94410423E0F9
:103B800040E26FEF8091B1029091B2020E94A506CF
:103B90000E94980407C080E00E949E0480913E022B
:103BA0008823B1F3DF91CF910F91FF90EF90DF90D9
:103BB000CF90089580E00E94B704A7CFC11193CFA2
:103BC00080E00E94B704809154020E943D058091DC
:103BD00001028E3F0CF0B3CF80E694E00E944104D6
:103BE0006091090270910A0280910B0290910C027F
:103BF00003E028E4409101020E94C505A0CFCF92C6
:103C0000DF92EF92FF920F93CF93C82F0E940E0482
:103C1000809180020E94E2038CE794E00E944104BC
:103C200035D5609180028091810276D37C0190939A
:103C30007D0280937C02C0907E02D0907F028AEF4A
:103C4000E8168FEFF80678F4C114D10441F081E052
:103C500090E0C11102C090E080E0892B21F087E262
:103C600093E00E944104809181020E94E203CC23F0
:103C700009F44BC090913B028DE0891B0E94E80340
:103C800087E892E00E9441040E941B046091740244
:103C900070917502809176029091770204E026E49B
:103CA000409183020E94C5058AEFE8168FEFF8065F
:103CB00068F48BE694E00E94410422E044EF6EEF4A
:103CC00080917C0290917D020E94A5060E9498043A
:103CD000CC2391F0CD2881F080E00E94B70484E6E7
:103CE00094E00E94410422E045E26FEF80917E0261
:103CF00090917F020E94A5060E949804CF910F9197
:103D0000FF90EF90DF90CF90089580917E02909188
:103D10007F02892B69F083E694E00E94410422E04F
:103D200045E26FEF80917E0290917F020E94A5068E
:103D30000E949804A9CF8F3021F4909135029130E0
:103D400011F08F5F089580E00895CF9382E992E0AB
:103D50000E947629C0E00E946B0860E082E00E9429
:103D60006F1662E080E00E946F160E940E04809140
:103D70006D02882399F041E062E080E078DE88EE11
:103D800093E00E947107811105C08C2FD4DFC82FEA
:103D90008A3F08F30E941604CF91089582E992E0C9
:103DA0000E9441048DEB96E00E9441040E941B0496
:103DB0008FE30E94AE030E949804E1CF0F931F93FC
:103DC000CF93DF93C0E0D8E012EF0DE00E946B08C4
:103DD00060E082E084DAD0931A0280918202843F0C
:103DE000E1F48091700290917102A0917202B09101
:103DF000730284369105A105B10578F440E060E0D6
:103E000082E00E94DD2D60937002709371028093B6
:103E10007202909373021093820280918202823F19
:103E20003CF1809383028091700290917102A09185
:103E30007202B09173028093740290937502A09302
:103E40007602B093770281E0DADE80ED97E00E949F
:103E50007107811106C08C2F6EDFC82F8A3F08F4CE
:103E6000B5CF0E941604DF91CF911F910F91089555
:103E70000E940E048BE892E00E94410480913B0274
:103E8000902F981B892F0E94E80387E892E00E94F8
:103E900041040E941B048FE30E94AE030E94980419
:103EA000D4CFA6E1B0E0E7E5FFE10C94D93882E099
:103EB0008093010280911A02813009F0EEC1809155
:103EC0006D02813009F0E9C14090540224E0429E25
:103ED000F0011124E156FD4F80819181A281B381CF
:103EE000893032E59307A105B10508F0D6C11C0160
:103EF000712C81E0871508F4D4C1842D0E9433050C
:103F0000982E892EE82DF0E0E15BFD4F5490892D2D
:103F100090E0FC01E45BFD4FE4911092080111BABE
:103F2000272D2170622E30EF2316310408F0BEC118
:103F30002111BCC1009114021091150200591A41BF
:103F400021E030E0092C02C0220F331F0A94E2F76F
:103F5000C901852980BB34E1398B892D0E94FE0679
:103F60005C01882D0E94000724E0A216B10410F421
:103F7000049728F039893150398B3111EECF80E424
:103F800080937B0094E590BF892D806480937C00B2
:103F900027E120937A00F12CE12C109280001092FE
:103FA00085001092840037E236BB0E94EF06872D11
:103FB00090E09A8B898B611081C181E880938100A8
:103FC00051BA86B385FD0CC080FFFBCF21E026BB34
:103FD000A89597012F5F3F4F7901203A310589F766
:103FE00011BA1092810030E236BB209186003091E8
:103FF000870069014091840050918500241735079E
:1040000038F480FF05C081E086BB9FEFE91AF90A0A
:1040100087E980937A00B4E15B2E892D0E94FE0629
:104020005C01882D0E94000724E0A216B10410F460
:10403000049718F05A945110F0CF80903802909065
:104040003902820C931C800E911E20911602309131
:10405000170200398AE1180708F039C169E191EEC9
:10406000C916D104E104F10430F4C60165E070E042
:104070000E948F37645128523109261B310967FD90
:10408000339566E0862F90E0B0E0A0E08C159D05AA
:10409000AE05BF0508F024C1C81AD90AEA0AFB0A0E
:1040A000662029F08AE3C80ED11CE11CF11C90EABD
:1040B000E916F10418F0C12CD12C76018BE0C8165A
:1040C000D104E104F10428F091E0C91AD108E10813
:1040D000F108B12CA12CA8EEB3E00E94F4376B8B51
:1040E0007C8B8D8B9E8BA0912F02B091300298011A
:1040F0000E94F437A50194010E94B6374427552742
:104100006B897C898D899E890E94B637C9010E947E
:104110002108FC01A5019401C701B6010E94743772
:104120004B015C01BF0190E080E0E4E0660F771F87
:10413000881F991FEA95D1F76B5F7F4F8F4F9F4F75
:104140002AE030E040E050E00E94B637442755278F
:10415000C501B4010E94B637E989FA89EE0FFF1F45
:10416000EE0FFF1F81E090E08C0F9D1FE80FF91FFD
:104170002083318342835383611018C094E1C916B0
:10418000D104E104F10490F07394E989FA8931963D
:10419000EE0FFF1FEE0FFF1F81E090E08C0F9D1FC1
:1041A000E80FF91F2083318342835383A8957394CA
:1041B00093E0971508F09DCE11BA0E94E40691E0B5
:1041C0000D811E812F81388549815A816B817C81C7
:1041D000401751076207730708F090E00D851E85B0
:1041E0002F85388949855A856B857C8582E0401703
:1041F00051076207730708F483E024E0829FD0012F
:10420000112421E030E02C0F3D1FA20FB31FE92F36
:10421000F0E0EE0FFF1FEE0FFF1FE20FF31F0D91F7
:104220001D912D913C9140815181628173810417D0
:1042300015072607370708F0892F34E0839FF00120
:10424000112421E030E02C0F3D1FE20FF31F4081CD
:104250005181628173814093090250930A026093F5
:104260000B0270930C0280FD3FC030EF2316310427
:10427000D8F58BEF809301028091090290910A0298
:10428000A0910B02B0910C02892B8A2B8B2B11F47D
:104290001092010210BA109207016696E2E10C94A6
:1042A000F538842D0E9433054C012CCEE093070194
:1042B00050BA00911402109115024DCE51BA0E94CD
:1042C000F80690E296BB81E8809381007ACEC40123
:1042D00068E57BE10E948F37695F285D3F4FD2CE52
:1042E000C12CD12C7601DCCE8CEF80930102CB0166
:1042F000BA016B5F7F4F8F4F9F4F2AE030E040E065
:1043000050E00E94B6372093090230930A0240938E
:104310000B0250930C02B0CFAEE1B0E0E2E9F1E263
:104320000C94D938662EB82E860F898320911A02F4
:10433000283059F52091740230917502409176022F
:104340005091770257FD15C01091830209C0CA0130
:10435000B9012AE0312D412D512D0E94B6371F5F42
:10436000173FACF391F4243160E036074105510565
:1043700018F48FEF9FEF55C1173F39F480E02817ED
:104380008DE738074105410510F020E03DE72D8B12
:104390003E8B27EDA22EEFE4F2E0E60DF11D8591B4
:1043A00080608F87EFE4F2E0EB0DF11D8591806076
:1043B000888BECE4F2E0E60DF11D7590ECE4F2E0A0
:1043C000EB0DF11DC59090E8692AB92A81E0E82E2D
:1043D000F12C012D112D8F83188619861A861B86C4
:1043E0001C861D861E86198E1A8E1C8E1B8E0E94A0
:1043F000951880E081BB60927C000E94E5063889B8
:1044000030BB709208017092070155E05A95F1F7A0
:1044100000001092070110920801DD243F8530BB97
:10442000709208017092070160927C00A895A0929A
:104430007A0080917A0086FDFCCF20907800309041
:104440007900B0927C004C2DF0D020917800309112
:104450007900298B3A8B388930BBC0920801C09211
:104460000701A895B0927C00A0927A0080917A0012
:1044700086FDFCCF609178007091790060927C009D
:10448000472DD3D0409178005091790010920701C8
:10449000CB01820D931DE80EF91E011D111DEB824B
:1044A000FC820D831E8389899A89840F951F2F8131
:1044B000388569857A85280F391F611D711D2F8305
:1044C000388769877A8722E32417150670F070927F
:1044D0000801709207010E94FA06109207011092DB
:1044E0000801898D8395898F07C0483E73E057077F
:1044F00018F08B8D83958B8F89899A8928171906D7
:1045000080F03F8530BBC0920801C09207010E9435
:10451000FA0610920701109208018A8D83958A8FFE
:1045200007C0883E73E0970718F08C8D83958C8FB9
:10453000D3945D2D5F3F49F05F3731F45C2D550F0B
:10454000C50E572D550F750E69CF4090380250900B
:104550003902440C551C9201E4E0240D351DEA9506
:10456000E1F72901570168016F80788489849A8472
:1045700020911A022830C1F46D897E89812D912DF8
:1045800065507040804090409B01AC010E947437A0
:104590009B01AC0160E779E786E190E00E94B637C5
:1045A000621A730A840A950AA614B704C804D904C7
:1045B00028F46A187B088C089D0803C066247724B9
:1045C0004301B20180E090E09301A4010E9474379E
:1045D0009501A6010E94B63780E090E07981870FAF
:1045E000911D0E946C39682EC90160E170E00E9443
:1045F0008F37260F371FC9016816190618F4861958
:1046000091090FC08C5E9F4F8615910540F48D89EE
:104610009E89843981E1980710F00E94AE0E812DA9
:10462000912D6E96E2E10C94F53810928100109273
:10463000800010926F0010928B0010928A0057E059
:1046400056BB5FEF509385005093840055E0509324
:104650007B0057EB50937A0051E0509381005FE468
:104660005A95F1F740930801409307015BE05A9592
:10467000F1F71092070110920801109281008091C9
:104680007A0084FFFCCF80937A000895B0E0A0E028
:10469000ECE4F3E20C94DB3800917E0210917F028F
:1046A0000115110509F096C0E0918002F0E0E15B90
:1046B000FD4FD491E0918102F0E0E45BFD4FC491A5
:1046C0000E94951811BA10920801D0BBC09307013F
:1046D000809181020E9400077C01D09183028CE0CE
:1046E0008D0F843008F076C080917402909175022D
:1046F000A0917602B0917702D15F2AE0422E512C30
:10470000612C712CBC01CD016B5F7F4F8F4F9F4F90
:10471000A30192010E94B63749015A01DA01C90189
:10472000DF5FD73079F7893823E19207A105B1051A
:1047300008F050C0059708F44DC0C0930801C0931D
:104740000701D0E0C0E0C815D90508F448C01092B0
:10475000070110920801A89585E080932B028091B3
:1047600081020E940007EC01CE19DF09E816F90664
:1047700010F0D0E0C0E0D12CC12CC814D90498F1BD
:10478000809181020E94000729E120932B02A895C5
:10479000E816F90618F48C010E191F090C171D07ED
:1047A00088F49E01201B310B69F0A4EFB1E00E9458
:1047B000F4379E0150E040E00E94B63730937F020C
:1047C00020937E020E94951810BA11BA1092070128
:1047D00010920801CDB7DEB7E0E10C94F7380E94E3
:1047E000F6062296B0CF0E94F6068FEFC81AD80AB6
:1047F000C4CFA7E0B0E0EFEFF3E20C94D9388FEC30
:1048000094E074D560EF6B836E980E94EB06109273
:104810009000109295001092940010920E02109247
:104820000F02109210021092110281E088BB809357
:10483000710010928000E5E2F4EFF0938B00E093BA
:104840008A0081E090E09093890080938800109224
:1048500085001092840083B5816083BD96E096BB8D
:1048600090936F007894E4E0E0938100F2E3F983A1
:104870001A820E94E406A895079902C061E06A8343
:1048800080919100882329F0898181508983811149
:10489000F0CF1092910080919400909195009093A8
:1048A0000F0280930E020E94160486E60E94AE0359
:1048B0000E94F10360910E0270910F02809110022C
:1048C0009091110247E00E94BA066E988091810093
:1048D000882319F08FE30E94AE031092810010929A
:1048E0006F0020910E0230910F0240911002509102
:1048F0001102DA01C9010197A109B1098336934C6C
:10490000A105B10508F08EC0AAE0B0E00E94093808
:10491000605F7F4F8F4F9F4F24E0969587957795E7
:1049200067952A95D1F7660F771F70936802609399
:1049300067026E980E94EB06109295001092940008
:1049400010920E0210920F02109210021092110299
:10495000F1E0F8BBF093710010926A0210926902C4
:1049600060E160936A00E69AEE9A7894EE9A198272
:104970000E94E406A895079902C081E08A83EE9B15
:1049800005C099819F5F99839A3F91F7109291009A
:10499000EE98809194009091950090930F028093EF
:1049A0000E020E941B0484E50E94AE030E94F103E4
:1049B000E0916702F0916802FD83EC8360910E0242
:1049C00070910F02809110029091110224ED30E35A
:1049D00040E050E00E941938EC81FD81612C712C7F
:1049E00043015F01C12CD12CE12CF12C00E010E03F
:1049F0000E946D3849014F835E831B012C018C811D
:104A00009D818038910500F107E023E745EFB4016F
:104A10008F81952F0E94C50599819A3F71F58FE38B
:104A20000E94AE0310926E0080ED97E00E94710725
:104A30006A81860F29F48B8181508B838111E4CEAA
:104A40002796E2E10C94F53884E6A82EB12CC12C0F
:104A5000D12CE12CF12C00E010E094014F815E811B
:104A6000B101C2010E946D38F22FE42F07E023E765
:104A700047EF6F2F732F8E2FCCCF94014F815E8124
:104A8000B101C201263E354B410551056105710555
:104A90008105910539F230F20E940E0486E60E94EB
:104AA000AE030E94F10394014F815E81B101C20106
:104AB00054012115FAEC3F07FAE94F07FBE35F07C2
:104AC0006105710581059105F1F0E8F06A01710158
:104AD000820120E030E04AE85DE568E775E483E6BE
:104AE00091E00E946D38F22FE42F07E028E44AEFAE
:104AF0006F2F732F8E2F952F0E94C5058AE70E9476
:104B0000AE036E988FCFCF80DE807101820120E0EE
:104B100030E44AE750E163EF7AE580E090E00E94FC
:104B20006D38F22FE42F07E028E44DEFE1CF1F921C
:104B30000F920FB60F9211240BB60F928F939F9383
:104B4000EF93FF937894EEE0F2E0828193810196F7
:104B500093838283FF91EF919F918F910F900BBE72
:104B60000F900FBE0F901F9018951F920F920FB6C7
:104B70000F9211248F9386E0809391008F910F9074
:104B80000FBE0F901F9018951F920F920FB60F92A5
:104B90001124A89510928100109291000F900FBEE1
:104BA0000F901F9018951F920F920FB60F9211241D
:104BB0002F933F938F939F938091690290916A0204
:104BC000892B19F481E08093910020916902309142
:104BD0006A0280916702909168022817390718F0DD
:104BE00010929100EE988091690290916A0201966C
:104BF00090936A02809369029F918F913F912F91C8
:104C00000F900FBE0F901F9018958C3008F08C50AD
:104C1000811109C08AE495E00E9441040E94980431
:104C20000C9409040895813019F48FEC94E0F4CFCA
:104C3000823019F481E295E0EFCF833019F486E1F8
:104C400095E0EACF843019F48DE992E0E5CF853024
:104C500019F482E992E0E0CF863019F48BE892E013
:104C6000DBCF883019F487E095E0D6CF873019F490
:104C700086EF94E0D1CF893019F487EE94E0CCCF61
:104C80008A3019F488E395E0C7CF8B3039F68DE28E
:104C900095E0C2CF0F93CF938DE992E027D3C0E088
:104CA00010921A0260E082E035D380911A028830B7
:104CB00009F048C00E940E0483E40E94AE030E94E3
:104CC000F103609174027091750280917602909167
:104CD000770203E026E4409183020E94C5050E940A
:104CE0009804609180028091810216DB90937D028E
:104CF00080937C020E941B048CE694E00E94410495
:104D000080917C0290917D028A3F2FEF9207B0F450
:104D100022E044EF6EEF0E94A5060E94980488EE00
:104D200093E00E947107811106C08C2F04D8C82F10
:104D30008A3F08F4B5CFCF910F9108958FE30E9479
:104D4000AE03EBCF0E940E048DE992E00E94410475
:104D50000E9498040E94C304E2CF0895A5E0B0E049
:104D6000E4EBF6E20C94D93881E295E0BFD280E121
:104D70008093800010926F0081E090E09093890012
:104D80008093880010928B0010928A0083E086BB8B
:104D90001092820088E0809381001092080181E1E6
:104DA0008093070111BA81E080BB269A89E0809345
:104DB0008100312C20E03AE0398341E04C83812CA2
:104DC000912C5401839451E15D83832D90E00A96E8
:104DD0006EE170E00E94A3376B83F62E621761F0DC
:104DE0000E940E0481E295E00E94410410E01F152C
:104DF00008F4D1C00E9498048C8169810E94833795
:104E0000A92FB0E0A50194010E9409386B017C0133
:104E10008D81823150F0652D762D872D902F0E9447
:104E2000B637C60ED71EE81EF91E0E941B049C81D1
:104E30002981212C921306C081E03D81323108F492
:104E400080E0282E2A828CE3211005C04D818EE35C
:104E5000463108F082E50E94AE034D81C701B601DC
:104E60000E94BA06C701B6017C5D8B409F4FA70127
:104E70009601220F331F441F551F0E94B637CA01E7
:104E80004F3F510509F008F48BC08DE080938100FD
:104E900080E094E02C01712C612CCA01B901A301BE
:104EA00092010E94B6372150310930938900209336
:104EB00088008091880090918900892B31F481E0ED
:104EC00090E0909389008093880000918800109171
:104ED000890060E072E18AE790E0A30192010E94FC
:104EE000B637A4E6B0E00E9409380F5F1F4F980163
:104EF00050E040E00E94B63729013A01A4E6B0E054
:104F0000A70196010E940938A3019201261B370BC5
:104F1000480B590BCA01B90102E228E44EEF0E9486
:104F2000C5058AE70E94AE030E94980480ED97E0D1
:104F30000E947107882309F46BC0883C08F07BC08D
:104F4000813508F45FC0222009F44AC03D81315008
:104F50003D83C501B4012AE030E040E050E00E940A
:104F6000B63749015A01C701B6010E94B637CA01D6
:104F7000B9012AE030E040E050E00E94B6376A8391
:104F80004AE049832A812C83312C2B815C2C6D2CA7
:104F90007E2C0F2D1ACF8EE20E94AE031F5F27CF0B
:104FA0004034510530F08CE08093810080E091E046
:104FB00071CF4830510530F08BE08093810080E460
:104FC00090E068CF892B31F08AE08093810088E0FF
:104FD00090E060CF89E08093810081E090E05ACF3B
:104FE0005D815631A0F55F5F5D83563111F485E137
:104FF0008983AAE0B0E0A50194010E9409384B0121
:105000005C01C0CF8B3018F09C819F5F9C83312C5A
:105010002C81822F90E03981632F70E06F5F7F4F8A
:105020000E94A3378C83832D0E949B1E382E4FEE47
:10503000481708F0AACF109281001092800010BA91
:105040001092070126982596E2E10C94F5385AE073
:10505000598381E08A83812C912C5401839491E1BE
:105060009D8390CFB0E0A0E0E8E3F8E20C94DB3859
:1050700086E195E03BD183E28093800010926F003F
:105080008FEF90E090938B0080938A0083E086BB43
:10509000109282001092080181E18093070111BAF9
:1050A00081E080BB269A81E090E090938900809314
:1050B000880089E080938100D0E080E0C2E310E0C6
:1050C00094E6C92ED12CE12CF12C88248A9423E07B
:1050D000922EA12CB12CC81799F1C43608F0C456F1
:1050E0002C2F30E0AFEFB3E00E94F4376E5C7F4FBF
:1050F0008F4F9F4FA70196010E94B63729013A01B1
:1051000030938B0020938A000E941B04A8EEB3E02A
:10511000A30192010E94093861507E4F8F4F9F4F2B
:10512000A50194010E94B637C90125E045E26FEF61
:105130000E94A5060E949804193210F00E94DE0613
:1051400080E496E00E947107182F833880F40AE00B
:10515000833320F40C2F882319F001E00C0FD0E0EA
:105160008D2F0E949B1ED82F8C2FD03F68F010BA35
:105170001092810010928000109207012698CDB7FE
:10518000DEB7E0E10C94F738C02FA5CF0F931F9343
:10519000CF93DF9386EF94E0A9D084E090E00E9463
:1051A0006C39C82FD0E00E941B040C2F0C2E000C71
:1051B000110BC7FF27C08DE20E94AE0323E045E23A
:1051C0006FEF88279927801B910B0E94A5060E94EC
:1051D000980480E496E00E94710781111EC0C135D9
:1051E000C4F0C5568D2F0E949B1ED82F803FD8F249
:1051F0006C2F84E090E00E947939DF91CF911F916C
:105200000F91089523E045E26FEFC801DECFC15052
:1052100009C0CC3E3CF7CB59E5CF823848F78932FC
:10522000B0F3CF5FD0E0DBCF813019F480E0E1CA8A
:105230000895823011F492CD0895833011F412CF85
:105240000895843011F426CD0895853019F40C9416
:10525000A51E0895863029F40E9416040C94DE1EC3
:105260000895883011F46FC10895873011F48ECFFE
:105270000895893021F481E10C94EA0808958A3078
:1052800011F4ADC208958B3011F40C948E0808957A
:10529000CF93DF9385E595E029D0D0E0C0E00E9470
:1052A0001B048C2FB2DC80E49FE10E947107811106
:1052B000D0E090913502913009F4D0E0823390F043
:1052C000CC2341F08C2FB0DF85E595E00FD0DF5F78
:1052D000D83721F480E0DF91CF910895CC30F8F2F7
:1052E000CC50DDCF882399F3CF5FF1CFCF93DF93FD
:1052F000EC010E941604CE010E944104C4E60E9403
:10530000E506079902C0C150D1F70E941B04DF9146
:10531000CF910895B0E0A0E0E0E9F9E20C94E03824
:10532000182F062F862F90E0FC01E15BFD4FD491F2
:10533000E12FF0E0E45BFD4FB490FC01E45BFD4F36
:10534000C49110927D0210927C0210927002109211
:105350007102109272021092730287EF80938202A0
:105360000E94951811BAD0BBC0930701C0930801E1
:10537000812F0E9400077C01802F0E940007E81AFD
:10538000F90A10920701D0E0C0E030E020E09CE292
:10539000C92EDD24D3944AE0A42E54E6952EB09273
:1053A0000801209771F0F601E21BF30BA29EC001E9
:1053B000A39E900D1124BE010E948F37E617F707B8
:1053C00060F5B09207010E94EF0610920701219646
:1053D000109208010E94F106A895812F0E940007F3
:1053E0009C012E193F09CB3186E0D80718F02532F1
:1053F000310544F02D3281E0380774F5C43D80E377
:10540000D80768F210BA11BA109207011092080179
:10541000CDB7DEB7EBE00C94FC38CB30D105A0F073
:10542000929EC001939E900D1124BE010E948F3761
:105430006E177F0748F4B09207010E94E4061092AD
:105440000701CC59DF4FC4CFB09207010E94EA0692
:10545000109207012A96BCCFC130D10521F4253125
:1054600085E038077CF6CC0FDD1FCE01B0E0A0E070
:105470008093780290937902A0937A02B0937B0292
:10548000C90168E270E00E94A337CB01820F931F2D
:105490000E94341C209178023091790240917A0266
:1054A00050917B02DC010E9409386093780270936E
:1054B000790280937A0290937B02609370027093DA
:1054C000710280937202909373020E942F19C09010
:1054D0007002D0907102E0907202F090730284E04A
:1054E00090E00E946C39A8EEB3E0A81BB10987FDDB
:1054F000B395A70196010E94133820E137E240E0FE
:1055000050E00E94B63720937002309371024093AE
:1055100072025093730288E080931A0220937402FF
:105520003093750240937602509377028091820205
:105530008093830210927F0210927E020093800279
:10554000109381025FCFA8E1B0E0E9EAFAE20C949F
:10555000E13887E095E0CADE0E941B0480EF94E00A
:105560000E944104AE014F5E5F4FCE010996DE01FD
:1055700011969E01275E3F4F7D01FA011192119213
:10558000AF01FC0111921192CF011D921D924217A1
:10559000530799F785E1809308018093070110E094
:1055A00000E0D12CCC24C39474E0A72EE2E0BE2E00
:1055B00011BAC0BA0E94F9068FB181FBEE27E0F95B
:1055C00082FDEE5F0115110509F445C0ED1509F4E2
:1055D00044C0F0E0EE0FFF1FEE0DFF1D80859185AA
:1055E000019691878087B0BA0E94F9068FB1E82FA3
:1055F000E17082FDEE5FF4E0DF120AC0F0E0EE0F32
:10560000FF1FEE0DFF1D808991890196918B808B84
:10561000A0BA0E94F9068FB1E82FE17081FDEE5F1C
:1056200084E0D8120AC0F0E0EE0FFF1FEE0DFF1D60
:1056300080819181019691838083A8950E94EB06D9
:1056400007990EC0109208011092070110BA6896CF
:10565000EAE00C94FD38DE2EC6CF54E0D52EC3CF41
:1056600049895A894531510510F18B899C898531C9
:105670009105E8F06D897E8965317105C0F02F894B
:10568000388D2531310598F0860F971FFF24F3944C
:105690008417950708F0F12C01E08217930708F0B2
:1056A00000E0CC24C39422E0D22EE12C26C0498510
:1056B0005A854531510528F18B859C8585319105A9
:1056C00000F16D857E8565317105D8F02F853889AB
:1056D00025313105B0F0860F971FFF24F39484170E
:1056E000950708F0F12C01E08217930708F000E01D
:1056F000C12C92E0D92EEE24E3940E94C30410E062
:1057000041C049815A814531510508F18B819C8105
:1057100085319105E0F06D817E8165317105B8F0CC
:105720002F8138852531310590F0860F971FFF2492
:10573000F3948417950708F0F12C01E08217930782
:1057400008F000E082E0C82EDD24D394AECF0F5FD6
:105750001F4F0931E6EF1E0709F02ACF78CF8330BB
:10576000C9F50023B9F18FE601C083E40E94AE03BE
:1057700080ED97E00E947107811164CF1F5F183799
:1057800009F460CF0E941B048E2D0E94E2038DE27B
:105790000E94AE038DE210FD8FE20E94AE038DE207
:1057A0000E94AE038C2D0E94E2038DE20E94AE03A4
:1057B0008DE211FD8FE20E94AE038DE20E94AE03E6
:1057C0008D2D0E94E2030E94E503812F837039F63C
:1057D000F110CBCF0E94E50380E991E0CBCFCF92CF
:1057E000DF92FF920F931F93CF93DF930E941604D3
:1057F00083E193E00E9441040E941B048FEC92E03D
:105800000E94410482E090E00E946C3923E040E273
:105810006EEF90E00E94A50683E090E00E946C3954
:1058200023E040E26EEF90E00E94A50681E090E068
:105830000E946C3923E044EF6EEF90E00E94A506D1
:1058400088E99AE30E9471070E94160488EC92E0AE
:105850000E94410423E044EF6FEF80913102909168
:1058600032020E94A5060E941B0481EC92E00E9475
:10587000410423E044EF6FEF8091380290913902A8
:105880000E94A50688E99AE30E9471070E94160407
:105890008DEB92E00E94410486E290E00E946C3918
:1058A0008251990B0E94090587E290E00E946C39B1
:1058B0008251990B0E94090583E290E00E946C39A5
:1058C00023E046E464EF8251990B0E94A5060E94F2
:1058D0001B0483E00E94E80382E290E00E946C399E
:1058E0008251990B0E94090585E290E00E946C3973
:1058F0008251990B0E94090581E290E00E946C3967
:1059000023E046E464EF8251990B0E94A50688E9E2
:105910009AE30E9471070E94160485E392E00E94B8
:10592000410488E290E00E9474390E94F4040E94CD
:105930001B048EE292E00E9441048AE290E00E9401
:105940006C39082E000C990B0E94F40460E081E091
:105950000E94F903C0E0FC2EFF0CFC0ED0E0FA948C
:10596000CD17B9F10F2D0D0F10E0000F111FC80159
:105970008D5E9F4F0E9474396C01C8018B5F9F4FF1
:105980000E9474398C0180919E028823A9F188E9D4
:105990009AE30E9471070E94160485EB92E00E9430
:1059A00041048C2F0E94E2038AE30E94AE038D2FF4
:1059B0000E94E20380E00E949E0423E040E26EEF3A
:1059C000C6010E94A50623E046E462EFC8010E94DA
:1059D000A506DF5FD33021F6CF5FC33009F0BBCF20
:1059E00088E99AE30E947107DF91CF911F910F918F
:1059F000FF90DF90CF90089580E00E949E04CDCF6D
:105A00000F931F93CF93DF9380E090E00E946C3957
:105A1000D82F8431F9F401E210E0C0E0C8010E94FF
:105A20006C39CC2309F453C0C33009F051C08D1731
:105A300009F44EC0482F50E02D2F30E0B9016F5FC0
:105A40007F4F4617570709F443C02E5F3F4F421759
:105A50005307F1F10E940E0485E40E94AE0385E431
:105A60000E94AE0363E08AE290E00E9479396CE024
:105A700070E088E290E00E94873969E379E381E28F
:105A800090E00E9487396BE383E290E00E947939CD
:105A90006BE384E290E00E9479396BE385E290E069
:105AA0000E94793969E379E386E290E00E948739C0
:105AB00064E174E180E090E00E94873964E174E180
:105AC00082E090E00E9487390E94DB060BC0D82F4D
:105AD0008A50853B08F0BECFCF5F0F5F1F4FC730A6
:105AE00009F09CCFDF91CF911F910F9108954F92B4
:105AF0005F926F927F928F929F92AF92BF92CF925E
:105B0000DF92EF92FF92AC016C01F12CE12C560177
:105B100099248824E52FFF279A01DA010E94F4379F
:105B20002C0166247724920165E0369527956A95C5
:105B3000E1F7E29FC001E39F900DF29F900D1124C9
:105B40009A0174E0369527957A95E1F7E20FF31FF5
:105B5000E40FF51F92013695279536952795B4E009
:105B600056944794BA95E1F72419350950E040E07E
:105B70002E0F3F1F411D511DBC01E3E07695679537
:105B8000EA95E1F7861B970B280F391F411D511D20
:105B9000C701B6010E947437680D791D8A1D9B1DCF
:105BA000FF90EF90DF90CF90BF90AF909F908F903D
:105BB0007F906F905F904F900895A1E0B2E0E3EE88
:105BC000FDE20C94D938782E162F642E0E94951879
:105BD000E72DF0E0E45BFD4FB490AB2CAA0CE12F75
:105BE000F0E0E15BFD4FE491E0BB10920801B09260
:105BF0000701872D806480937C000E94E506262D96
:105C00002170CF5FDD4F2883C150D240DB2C60FE76
:105C1000DA2CF0E2FF2E90E080E0CB2CED2C0A2D68
:105C20002D2D47EEBE016F5F7F4F0E947200FA94E8
:105C300080E490E0F110F1CF10920701C12CD12C3B
:105C40007601212C312C210106E4812CE0E89E2EE6
:105C5000063B09F401ECA02EB12CF501EE0FFF1F5D
:105C600081E090E08C0F9D1FE80FF91F80819181EA
:105C7000CF5FDD4F2881C150D240222321F0940113
:105C8000281B390BC90133DF280E391E411C511C5A
:105C90009501DC010E94F437C60ED71EE81EF91EDE
:105CA0000F5F073EA9F6C201B10126E930E040E0EE
:105CB00050E00E94B637ADE4B6E50E940938C61A36
:105CC000D70AE80AF90AA701960166E056954795B2
:105CD000379527956A95D1F76CEA77E485E896E8D9
:105CE0000E94B63769017A0161FC17C0872D880FC1
:105CF000870D1150810F90E0880F991FCF5FDD4F06
:105D00003881C150D240332379F08B5F9F4F0E947E
:105D10007439C81AD90AE108F108C701B601CF5F82
:105D2000DD4FE2E10C94F5388D5E9F4FF0CF4F923E
:105D30005F926F927F928F929F92AF92BF92FF92EB
:105D40000F931F93CF93DF93C0E0FC2EFF0CFC0E4C
:105D5000D0E0FA94CD1709F43EC042E06D2F8C2FAD
:105D60002CDF2B0143E06D2F8C2F27DF4B010E948E
:105D7000160485EB92E00E9441040E94E5038C2FFB
:105D80000E94E2038AE30E94AE038D2F0E94E20389
:105D90000E94E5030E941B0424E040E26EEFC20172
:105DA0000E94A50624E046E462EFC4010E94A50615
:105DB0000F2D0D0F10E0000F111FB201C8018D5EF5
:105DC0009F4F0E948739B401C8018B5F9F4F0E948B
:105DD00087390E949804DF5FD33009F0BBCFCF5FD3
:105DE000C33009F0B2CF0E940E0486EC94E00E940A
:105DF00041040E9498040E94DF06DF91CF911F9119
:105E00000F91FF90BF90AF909F908F907F906F9079
:105E10005F904F900895A2E1B0E0E1E1FFE20C94C1
:105E2000D9382C017C836B83DD24D3942D2C312C29
:105E300033E0D39E900111243E872D87F101EE0FB0
:105E4000FF1FEE0FFF1FFC87EB87812C30E4932EA2
:105E500050E0712C612C18861F82B12CA12C1A8263
:105E600019821E821D8240E0C12CF0E0E0E030E0AB
:105E700020E061E070E08FEF90E082199309988B49
:105E80008F870C2D10E08F8598890817190774F1FA
:105E9000AB81BC81AB2B29F170E060E04230E8F0CF
:105EA0009501ED81FE812E1B3F0BA8EEB3E00E9411
:105EB000F437E981FA81AE1ABF0A950150E040E05B
:105EC0000E94B63788EE93E0821B930B0E94210854
:105ED000BC0188EB9AE70E948F37AB81BC816D9340
:105EE0007C93C4016296E2E10C94F538D801A20DCE
:105EF000B31DAA0FBB1FA40DB51D8D919C91E80F7A
:105F0000F91FD801AA0FBB1FA40DB51D8D919C913F
:105F1000280F391FCD1408F489C0D801A219B3097C
:105F2000AA0FBB1FA40DB51D0D90BC91A02D2A1B5F
:105F30003B0BE81BF90B7901EE0EFF1EC9018E1B0E
:105F40009F0B89879A87D701B695A795B695A79590
:105F5000A80FB91FB7FD75C0E217F30708F068C0B6
:105F6000513009F065C0D80156E0AA0FBB1F5A9501
:105F7000E1F7BA8BA98BDC01A61BB70BBD01A817F3
:105F8000B90768F0A6E0880F991FAA95E1F78096F7
:105F9000C6D789899A89861B970B9A8B898BAD8581
:105FA000BE85EA16FB0608F473CF8B859C8508171F
:105FB0001907BCF14423B1F069897A896619770918
:105FC000433050F0D4019096C401969587958A0F7E
:105FD0009B1F86179707D0F1D71650F4DD24D39472
:105FE000D70E24CFA989BA89B887AF83FE82ED8204
:105FF000AE0CBF1C4F5F4130F9F0842F8150990BDC
:10600000BC0195958795A989BA898A0F9B1FAF8195
:10601000B8858A1B9B0B83D74B0169887A88FA82E3
:10602000E982453108F034CF50E002C069877A87B1
:10603000C39469857A8525CF69887A88FA82E9824E
:10604000F3CF51E0E217F30798F78DCFEB81FC8196
:10605000EF2B09F025CF45CFA6E2B2E0E2E3F0E373
:106060000C94DD38F82EB62E8BE290E00E94743945
:106070003C01EB2DF0E0E45BFD4F1491EF2DF0E0DF
:10608000E15BFD4FE4911092AB021092AC021092D2
:10609000AD021092AE021092B2021092B1021092B2
:1060A000B3021092B4021092B5021092B60280911F
:1060B0001A02813009F0CBC08091010218160CF44D
:1060C000C6C011BAE0BB0E94F0066894B7F8B0925F
:1060D0007C000E94E506C12EE12C00E0212F4FEF4D
:1060E000BE016F5F7F4F80E191E00E947200689473
:1060F000F7F8F0927C00212F44E1BE0161507E4F01
:1061000080E191E00E947200FE0131969E012150D3
:106110003E4F6901AE01475D5F4F81919191D6017C
:106120006D917D916D019F0122503109861797076E
:1061300008F491C0861B970BD9018D939C93E417AB
:10614000F50759F7B0927C0070E060E0CE0101964F
:1061500062DE9F5FE0E1AE2EBB24B394912C812CD4
:10616000913178F0F0E1AF2EF4E0BF2EA2E08A2E5C
:10617000912C903430F060E1A62EBA2C74E0872E7A
:10618000912C58E0D52EA895C12EE12C00E0212FAE
:106190004FEFBE016F5F7F4FC5010E9472008114F7
:1061A000910409F45EC061EB72E0CE01019633DE2A
:1061B0005C01813C9F4308F0AEC06501F12CE12CED
:1061C0009501D50111D723E330E040E050E0CED671
:1061D000A8E6B2E01ED776946794930150E040E0C1
:1061E000C5D6C401880F991F04C0220F331F441F56
:1061F000551F8A95D2F72093B3023093B40240938F
:10620000B5025093B6028091090290910A02A091C2
:106210000B02B0910C020397A105B10540F010925A
:10622000B3021092B4021092B5021092B602A114F9
:10623000B10409F073C01092B2021092B102109230
:10624000B3021092B4021092B5021092B602CA5D67
:10625000DD4FEEE0CEC7D9011D921C9270CF5C01DC
:1062600092CFC5018064DA94D110F9CF81159440A2
:10627000C8F08EEF8F3F09F496CFE82FF0E0EE0FD5
:10628000FF1F21E030E02C0F3D1FE20FF31F2081A4
:10629000318193E0369527959A95E1F731832083F4
:1062A0008150E8CFF0927C00E894A6F848E0F42E04
:1062B000C12EE12C00E0212F44E1BE0161507E4F50
:1062C000C5010E9472006894A6F8FA94F110F0CF0C
:1062D00024E1215070F2822F90E0880F991FE1E0B5
:1062E000F0E0EC0FFD1FE80FF91F408151816FEFC7
:1062F00071E06C0F7D1F860F971FDC018D919C91C3
:106300004817590728F0481B590B51834083E1CFA8
:1063100011821082DECFB12CA12C4FCF27E030E0CC
:106320002819390960E074E284EF90E004C0660F38
:10633000771F881F991F2A95D2F7A7019601220F70
:10634000331F441F551F12D62093AB023093AC026B
:106350004093AD025093AE028091010287FD77CF4A
:106360008FEF8093010273CFCF93DF93D82F0E94DA
:106370000E048EE192E00E9441040E949804C0E065
:106380001092B0021092AF020E94E00662E080E03C
:106390000E946F190E941B0424E046E464EF809180
:1063A000AF029091B0020E94A5066091AF02709179
:1063B000B002CB018C539F408539954798F4CF5F4D
:1063C000C53088F08BE290E0A2D70E94E50386EC0E
:1063D00094E00E9441040E94DC060E940E04DF91BA
:1063E000CF910895C0E00E949804DF5F49F6F5CF91
:1063F000B0E0A0E0EDEFF1E3DCC680E481B982B962
:1064000087E880937A001092C1000E94DC065B9AB4
:10641000539AC4B7C87084B7877F84BF0FB6F89407
:10642000A895809160008861809360001092600060
:106430000FBE78940E946304C11146C580E185BFF8
:10644000DFDA079905C00E94E506CF5FCC33C9F7B4
:106450008FE59DE69093130280931202CF3130F0C6
:1064600080E69DE6909313028093120210922C0214
:106470000E94631C88E19FE00FB6F894A895809372
:1064800060000FBE90936000CC3321F40E94482935
:106490008111FCCF32E0732E40E1542E50E1452EA5
:1064A00067E5C62E62E0D62E72E1272EE0E23E2E90
:1064B0000E94160410BA0E946B080E94631C0E947E
:1064C0000E0483E193E00E94410480913A02882304
:1064D00079F00E941B0481E794E00E94410463E08C
:1064E00080912F02909130020E94B0060E94DB063C
:1064F0000E941B040E94951880911A02893059F558
:106500000E94160486E794E00E9441040E941B0446
:1065100063E080910302909104020E94B0060E9401
:10652000E50363E080910502909106020E94B006A7
:106530000E94E50363E080910702909108020E94A7
:10654000B0060E94DA0681E10E94EA0880911202F8
:1065500090911302A3C18CE00E94F40384E290E0C6
:10656000BBD6C82F81E290E0B7D6C81BC0933702D4
:10657000CC2319F08EE00E94F40380E00E94EA0828
:106580000E94C3048EED95E00E94410483E00E94C6
:10659000C4060E94090442E061E080E00E942C0FE2
:1065A00042E060E081E00E942C0F41E062E080E088
:1065B0000E942C0F41E060E082E00E942C0F40E03E
:1065C00062E081E00E942C0F40E061E082E00E94E6
:1065D0002C0F80911A0281110EC00E94951860E064
:1065E00082E00E946F1961E082E00E946F1960E012
:1065F00081E00E946F190E9416042FE332E030936D
:106600003D0220933C0280911A028630C9F485EB4A
:1066100095E00E94410441E467E483E40E940C0594
:106620000E941B048AE894E00E94410462E0809189
:106630004302909144020E94B0060E94090486CF52
:10664000873041F48EEB95E00E94410442E367E419
:1066500081E3E4CF8830D9F4809180029091810267
:10666000890F9927991F029771F40E94DE1E8CE012
:106670000E94F40380913702882309F410C4D2E009
:1066800010E000E0F9C380E00E94FF1D5FCF83307F
:1066900009F011C180911802813009F077C080E0C3
:1066A0000E9499056091860280918C020E94C00E22
:1066B00080E70E94710540E06091860280918C0223
:1066C0007CDA6093700270937102809372029093EF
:1066D000730280E00E94B7046091700270917102B1
:1066E000809172029091730202E026E442EF0E94D0
:1066F000C5058DE20E94AE0341E060918602809163
:106700008C025BDA60937002709371028093720264
:106710009093730226E442EF0E94C5058BE393E059
:106720000E9441040E9409040E94090480916D02A4
:10673000882309F40BCF50BA809112029091130272
:106740000E94710710BA0E94160480911802805DA1
:106750000E94AE038BE293E00E94410430916D02EF
:10676000332309F44DC380915402313009F0E4C25F
:106770000E94330520915402213009F0D8C22091A3
:1067800018022111D4C20E94A51E71CF823079F562
:1067900082E30E94AE038BE293E00E944104909159
:1067A000860230918702931308C080E00E94B505ED
:1067B00081E00E94AC0581E07CCF20918C02809129
:1067C0008D02281307C080E00E94A50581E00E9489
:1067D000BC05F1CF321306C081E080930D020E9408
:1067E0008705A2CF98133CC040920D02F8CF8330AA
:1067F000B9F533E330930D0280918C0290918702BA
:10680000891303C021E020930D024091860230914C
:106810008D02431302C040920D0220918802821320
:1068200002C070920D0280918E02481302C0309215
:106830000D0232130CC020920D02981751F083E321
:106840000E94AE038BE293E00E944104C8CF9813EC
:1068500003C081E280930D0280910D02823278F3B1
:1068600084EC95E00E9441048CEA95E00E9441048A
:106870000E941B0480911802805D0E94AE038AE290
:106880000E94AE0385E493E00E94410482E995E012
:106890000E9441040E94090480E49FE150BA079BD2
:1068A000FECF0E947107823308F4B7C20E944829C4
:1068B0008111FCCFFDCD843009F050C1809166027A
:1068C000882309F45FC080914E02882309F45AC0DE
:1068D00060914B0280914D020E946F19809070026E
:1068E00090907102A0907202B0907302C0918202E7
:1068F00060916502809163020E946F1980913F024E
:1069000090914002A0914102B09142024091570201
:10691000509158026091590270915A02843F21E0CF
:106920009207A105B10538F4443F31E053076105F2
:10693000710508F0C0EF443F51406105710540F416
:10694000843F9140A105B10518F080EF8093820249
:10695000809182028C1311C080917002909171021B
:10696000A0917202B091730288169906AA06BB061E
:1069700030F08CE08093190205C0C817D4F79DE071
:106980009093190280916602882361F080914E02F3
:10699000882341F0079906C08091190291E0892768
:1069A00080931902809119028C30F9F48DE994E0FA
:1069B0000E94410480916602882319F080E70E94BA
:1069C000AE030E94E5030E944608C82F853048F5B3
:1069D000809119028C30B9F481E020914C029091A1
:1069E0004D029217B8F080E015C0D0923D02C092DF
:1069F0003C0289E994E00E94410480914E02882380
:106A000001F38EE6DCCF81E0209164029091650273
:106A1000291748F7882309F49AC085E493E00E9477
:106A2000410443E462E485E40E940C050E941B04D7
:106A300087EA94E00E944104E0913C02F0913D021B
:106A4000608171818281938103E020E04EEF0E949A
:106A5000C5050E94E50389E40E94AE03E0913C0273
:106A6000F0913D02868197818031974208F472C08F
:106A700085E60E94AE03E0913C02F0913D028681E2
:106A8000978180519742978386830E94F103E0911A
:106A90003C02F0913D0222E041E46AEF8681978159
:106AA0000E94A50680E00E94B7048EE894E00E9450
:106AB0004104E0913C02F0913D0263E084819581C4
:106AC0000E94B006E0913C02F0913D0280859185E4
:106AD000892B91F080E00E94B7048DE093E00E9442
:106AE0004104E0913C02F0913D0223E041E46AEF71
:106AF000808591850E94A506E0913C02F0913D02BF
:106B000082859385892B91F080E00E94B70487E00D
:106B100093E00E944104E0913C02F0913D0223E0A9
:106B200041E46AEF828593850E94A506C53008F08E
:106B30000DCD80E00E94B7048C2F0E9499058AE851
:106B400094E00E9441048C2F0E94630576CD81E47D
:106B500093E065CF83E60E94AE0397CF853009F0BE
:106B6000FDCD8091190284FF3EC080E50E94AE03F6
:106B7000D0923D02C0923C028DE20E94AE03809111
:106B80001902C82FCF70C43091F580EB94E00E94B9
:106B900041044FE367E48FE30E940C0580911902E2
:106BA00085FD3EC00E941B04E0913C02F0913D0235
:106BB000668584850E946F190E94C80485E894E068
:106BC0000E944104E0913C02F0913D0262E0828526
:106BD00093850E94B00680E00E94E004C43009F46E
:106BE000B5CCC0E09FC08EE40E94AE03C5CF85FF48
:106BF0000DC084E40E94AE03C33051F48AEA94E0ED
:106C00000E94410443E467E485E4C6CF85E4F2CF03
:106C100085EB94E00E94410444E467E483E5BCCF43
:106C20008F70843009F452C080E00E949E04E0918D
:106C30003C02F0913D02668584850E946F190E9496
:106C4000C80480E00E94B70489E40E94AE030E9459
:106C5000F103E0913C02F0913D0222E041E46AEF51
:106C6000868197810E94A50680E894E00E944104F5
:106C7000E0913C02F0913D0262E0828593850E94A2
:106C8000B006E0913C02F0913D0280859185803C08
:106C9000924108F0A0CF80E00E94B70489E40E94EE
:106CA000AE030E94F10322E041E46BEF90E080E04C
:106CB0000E94A50680E894E00E944104E0913C0215
:106CC000F0913D0262E08085918583CFE0913C02A6
:106CD000F0913D0284819581892B09F4B2CF80E047
:106CE0000E949E0488E192E00E944104E0913C02EF
:106CF000F0913D0222E041E46AEF848195810E9497
:106D0000A5069FCF80E00E94B7048C2F0E949905B2
:106D10008AE894E00E9441048C2F0E9463050E943F
:106D20000904CF5F80911802C81760F30FCC40E0D0
:106D3000692F0E94371D0ACC9091550224E0929F42
:106D4000D0011124A156BD4F24E0829FF0011124EF
:106D5000E156FD4FED90FD900D911C9140815181C8
:106D600062817381282F4E155F056007710708F453
:106D7000292F980FC3E0C91B3230E1F0C0915602B1
:106D800034E0C39FD0011124A156BD4F84E0289F59
:106D9000F0011124E156FD4F4D915D916D917C9173
:106DA00080819181A281B38184179507A607B707D7
:106DB00008F0C22FDC2FD695072D0C1B12E0C11155
:106DC00001C011E08D2F0E94E20386E293E00E9451
:106DD0004104802F0E94E20386E293E00E94410476
:106DE000812F0E94E20380E00E949E0481E0C11195
:106DF00080E00E943D05872D8D1B0E943D05A6CB9E
:106E00008CE995E00E9441040E941B0489EC95E006
:106E10000E94410484EC95E03BCD811149CB27CC05
:106E2000F501E80FF91FC491C03209F4682E0196EC
:106E300081319105A9F7DD2341F19D2F9170F92E44
:106E4000D0FF0E94160460E08F2D0E94F9030E947B
:106E50000904A895DF5FD170F12CE12CE61410F144
:106E6000CC23C9F0060D111DF801E75BFC4FE4913E
:106E7000E03211F40F5F1F4F90E080E020E1622EBE
:106E80009801275B3C4F5901CBCF80E197E20E94EC
:106E90007107882391F280E197E20E9471070E94B6
:106EA0008E0806CBF501EE0DFF1DC491CC2399F39E
:106EB000CF3F31F40E94E5032FEFE21AF20ACECF62
:106EC0008C2F0E94AE03F8CF0E940E0489E895E053
:106ED0000E9441040E94D9060E948E0890E080E042
:106EE000CDB7DEB7E2E181C1DB018F939F9391D0F3
:106EF000BF91AF91A29F800D911DA39F900DB29F56
:106F0000900D11240895991B79E004C0991F9617DC
:106F100008F0961B881F7A95C9F780950895AA1BDB
:106F2000BB1B51E107C0AA1FBB1FA617B70710F074
:106F3000A61BB70B881F991F5A95A9F780959095A6
:106F4000BC01CD01089597FB072E16F4009406D0DE
:106F500077FD08D0E4DF07FC05D03EF490958195DD
:106F60009F4F0895709561957F4F0895A1E21A2E65
:106F7000AA1BBB1BFD010DC0AA1FBB1FEE1FFF1FDD
:106F8000A217B307E407F50720F0A21BB30BE40B2D
:106F9000F50B661F771F881F991F1A9469F7609574
:106FA0007095809590959B01AC01BD01CF0108952E
:106FB000052E97FB16F400940FD057FD05D0D6DFB1
:106FC00007FC02D046F408C05095409530952195B5
:106FD0003F4F4F4F5F4F0895909580957095619505
:106FE0007F4F8F4F9F4F0895A29FB001B39FC00165
:106FF000A39F700D811D1124911DB29F700D811DE5
:107000001124911D0895F0DFB7FF0895821B930BA3
:107010000895EADFA59F900DB49F900DA49F800D69
:10702000911D11240895B7FFF4CFF3DF821B930B5A
:107030000895E894DF93CF93FC01DB01D5DF7F93C4
:107040006F93E9019A01AC01BF93AF933F932F93E4
:10705000DF01CADF26F46C1B7D0B820B930B9E01B4
:10706000EB01FC01DDD0AF91BF912F913F91D8D0C2
:10707000BE01CF01F9012F913F91CF91DF9108958A
:10708000689401C0E894F92FF12B0AF027C0A0E022
:10709000B0E0ECE4F8E393C0092E05941AF479D03B
:1070A000112392F4F0E80F26FFEFE094F09400959E
:1070B0001095B094C094D094A194BF0ACF0ADF0A6F
:1070C000EF0AFF0A0F0B1F0B13D007FC62D0CDB7DE
:1070D000DEB7ECE090C0689401C0E8948F929F9274
:1070E000CF93DF9305D0DF91CF919F908F9008953C
:1070F00088249924F401E401B0E49F93AA279A1507
:107100008B049C04ED05FE05CF05D007A10798F47C
:10711000AD2FDC2FCF2FFE2FE92D982C892E982F05
:10712000872F762F652F542F432F322F2227B850C9
:1071300031F7BF9127C01B2EBF91BB27220F331FF2
:10714000441F551F661F771F881F991F881C991C95
:10715000EE1FFF1FCC1FDD1FAA1FBB1F8A149B043D
:10716000EC05FD05CE05DF05A007B10748F08A183C
:107170009B08EC09FD09CE09DF09A00BB10B2160CA
:107180001A94E1F62EF49401AF01BE01CD01000C7A
:10719000089560957095809590953095409550959F
:1071A00021953F4F4F4F5F4F6F4F7F4F8F4F9F4FF7
:1071B00008952F923F924F925F926F927F928F929B
:1071C0009F92AF92BF92CF92DF92EF92FF920F9376
:1071D0001F93CF93DF93CDB7DEB7CA1BDB0B0FB680
:1071E000F894DEBF0FBECDBF19942A88398848882D
:1071F0005F846E847D848C849B84AA84B984C884D3
:10720000DF80EE80FD800C811B81AA81B981CE0FC9
:10721000D11D0FB6F894DEBF0FBECDBFED010895AE
:10722000E3DE460F571FC81FD91F08F43196089593
:10723000BB27FA01A62F6217710581059105330B53
:1072400030FB66F0AA27660F771F881F991FAA1FB9
:10725000A21710F0A21B63953850A9F7A05DAA33BE
:1072600008F0A95DA19336F7B111B1931082CA015C
:1072700023C04532510518F4423008F004C0FB0128
:107280001082CB010895BB27FB015527AA27880F41
:10729000991FAA1FA41710F0A41B83955051B9F78A
:1072A000A05DAA3308F0A95DA193009779F7B11109
:1072B000B1931192CB0100C0DC01FC01672F7191E9
:1072C0007723E1F7329704C07C916D9370836291CC
:1072D000AE17BF07C8F30895F999FECF92BD81BDDF
:1072E000F89A992780B50895A8E1B0E042E050E00F
:1072F00013C0262FF999FECF1FBA92BD81BD20BDC4
:107300000FB6F894FA9AF99A0FBE01960895F1DF34
:10731000272FF0CFDC01CB01FC01F999FECF06C08D
:10732000F2BDE1BDF89A319600B40D924150504043
:08733000B8F70895F894FFCFAF
:00000001FF
