:100000000C9486080C9498080C9498080C94980802
:100010000C9498080C94562C0C9498080C949310FB
:100020000C9498080C9498080C9498220C943A2CF0
:100030000C94482C0C9472220C9498080C949808F8
:100040000C94142C0C9498080C9498080C94980810
:100050000C9498080C9494100C9498080C9498089C
:100060000C9498080C949808E62FF72F903009F418
:100070009395E5B8C4B8B6EFB0937A00A5E0A09325
:100080007B00A8E0A093810010928000AFEFA093C6
:100090008500A0938400A6E0A093360010928B0008
:1000A00010928A00B3E0AFE3A91B51E0392F33303F
:1000B0002AF0A05CBC4F53953350F9CFB093890020
:1000C000A0938800A0917A00A4FFFCCFB6EBB09378
:1000D0007A00A2E0A0936F00A9E0A093810062E003
:1000E000A0E0A0937B00A1E0A09353008895E5B821
:1000F000C4B884FF1AC0A8E10000AA95F1F7EF93F5
:10010000FF93E7B1F8B1A4E0C2FCA2E0C0FCA1E01B
:10011000BF2FBA2BAE2BB8B904B9A7B9E7B9F8B954
:10012000FF91EF910BC00C947300ACE10000000054
:10013000AA95F1F725B9E5B8000004B9A0918400AB
:10014000A0918500B0918900A395AB1760F7A091AD
:100150007A00A4FFF3CFB6EBB0937A006A9571F7FB
:100160006091780070917900308186FD630F619312
:10017000308186FD731F80FF7193652F4A9579F753
:1001800010926F0010928100B6E0B0937A0008954B
:10019000DA01D101C8011008407E01013E01013E93
:1001A00001013E01017E404018000720080808F8C0
:1001B0000000002060A03FA06020020202FF0202B7
:1001C000021010101F0000000708FFDBBDB5B5CB03
:1001D000FF0708FFBB9DADADB3FF0708FFFFF7FBAF
:1001E00081FFFF10100508F87838588809100308B7
:1001F0001C3E7F0D080710FF818181F1E1C1FF40A6
:1002000040404743410D080110FFFF11080310F162
:10021000E1C14743410E0008202121122060E0E0A7
:10022000E0FEFE0402010001037F7F21C2C4C4C0BE
:100230004094840007030102040E080210FEFE7FB2
:100240007F00000000110005202060E0E0E00201D6
:10025000000103C2C4C4C04007030102040104102A
:10026000090A0C4E6F742063616C69627261746577
:10027000642120466F72FF63616C69627261746908
:100280006F6E20636C616D70207468652033FF7041
:10029000696E7320746F67657468657220616E643F
:1002A000207374617274207769746820746865FFC4
:1002B0006B65792E2041636B6E6F776C6564676543
:1002C000207468652073656C662D7465737420777F
:1002D00069746820746865206B6579207769746833
:1002E000696EFF32732E20446973636F6E6E6563AF
:1002F000742070696E73206166746572207468651D
:10030000FF6D657373616765202269736F6C61743B
:1003100065FF50726F626521222069732073686FD8
:10032000776E2E20536F66747761726520616E64FC
:1003300020646F63756D656E746174696F6E20699A
:10034000732061742073766E3A2F2F206D696B7263
:100350006F636F6E74726F6C6C65722E206E657455
:100360002F7472616E736973746F72207465737425
:1003700065722000B903870358032E030703E402C4
:10038000C302A40288020000140029003E005300AA
:10039000690080009700AE00C600DF00F80012017F
:1003A0002D01490165018201A001BE01DE01FF01AD
:1003B0002102440268028E02B502DE0209033503FF
:1003C00064039403C803FE0337047304B404F904FC
:1003D00043059305EA054906B3062907AE07480811
:1003E000FF08DE09FD0A930C480F991B000000006E
:1003F0000000000000000000000000001E2121217C
:100400001200807F0000007E4A4A4A34000000004B
:100410000000FC402010080402010000000101015E
:10042000010101010101010101017F0488D0E0F017
:10043000F8000000000000000000000000000000C4
:10044000000000FC94948400000102FC0000000005
:1004500000000000000000001E21212112E0C080E9
:100460004020100F000000C020202040000000FCB1
:1004700000009E9E040303030302000000202023CB
:10048000242525232020203F00007B7B214284045B
:1004900080C000000000000000000000000000001C
:1004A000FC94948400040607070708F0000000008D
:1004B000000000000000000000803F2121120C001D
:1004C000000000FF000000F0084848C80000FE00DF
:1004D00000E7818181C1E1F181818101002020203B
:1004E0002121212020203F0000F34040404143478C
:1004F00040407FC00000000000000000000000003D
:100500000000489494946400000000FF0000000084
:100510000000000000000000000000003F21211248
:100520000C0000FF000000F0084848D00000000068
:100530000000FEFE04040404040404070008080884
:1005400009090908087F3E1C08087F7F2020202019
:10055000202020E00000000000000000000000005B
:100560000000000048949494640000FF0000000024
:1005700000000000000000FF003C0A090A3C0022C5
:1005800031292926000082868E9EBEFEFEBEDEEF49
:10059000F6FAFEFEFAF2E2C2820000000808080441
:1005A000027984A4A46800FF00000000000000009D
:1005B000000000000000000000000000000000FF3C
:1005C0000000F0282428F0001008FC0000000000C3
:1005D000000000000000003C0A090A3C00FF000087
:1005E000000000000000000000000000000000000B
:1005F000040C1C3C7CFF7C3C1C0C04000000000034
:10060000009EA1A9A99A804323130B0703FF0303AC
:100610000303030300000000000000000000007856
:100620008484844800FF000000000000000000F007
:100630000804E2110909090909090909091121C276
:10064000040810E00000000102040407000000009C
:10065000008040201088442310080403000000009C
:1006600000000000000000FE0100FC02010000008C
:100670000000000000000000000000000000007901
:1006800049497900000000000000000040F010100F
:100690001010F040000101010101010040FCF8F0E0
:1006A000E040FC40000703010000070040FC40E080
:1006B000F0F8FC40000700000103070040FCFC00CC
:1006C00000FCFC4000070700000707007884820256
:1006D00082847800060407000704060000FC00007E
:1006E00000F01000100F02040207040008080808B8
:1006F0000808F840020202020202030040F808085B
:1007000008080808000302020202020240404040BA
:10071000404040400000000000000000C000008099
:1007200000008000010202010202010200800000BC
:10073000800000C0020102020102020100F804026E
:1007400022548800101F1002020100000000000067
:100750000000000000000000000000000000000099
:100760000000000000000000000000000000000089
:100770000000000000000000000000000000000079
:100780000000000000000000000000000000F8046D
:1007900002FE02000C06050404070C0002FE020023
:1007A00002FE02000407040404170C0002FE02F01B
:1007B00002FE02000407040704170C000000E0100A
:1007C00008F808000C06050404070C00804028F80F
:1007D000284080000102141F1402010008F80800DC
:1007E00008F808000407040404170C0008F808C0FF
:1007F00008F808000407040704170C00001018FC90
:10080000FC1810000001010101010100001018FC9A
:10081000181000000000000100000000000000FCB3
:1008200000000000000101010101000040404040C3
:1008300050E0400000000000010000002070A820EF
:10084000202020000000000000000000E000000068
:100850000000000001010101010101002070A82039
:1008600020A87020000000000000000000C0F0FC84
:10087000F0C0000000000000000000000C3CFCFC88
:10088000FC3C0C0000000000000000000000000024
:10089000000000000000000000000000000000FE5A
:1008A000000000000000000D0000000000160E0017
:1008B00000160E0000000000000000000010FC10F8
:1008C00010FC10000001070101070100001824FEC0
:1008D000448800000003040F040300000C12924C33
:1008E0002010080002010006090906008C5222525D
:1008F0008C40C00001020404040102000000001644
:100900000E00000000000000000000000000F008E1
:1009100004020000000001020408000000000204BC
:1009200008F0000000000804020100004850E0FC4C
:10093000E05048000201000700010200404040F87A
:1009400040404000000000030000000000000000E4
:1009500000000000000000160E0000004040404073
:1009600040404000000000000000000000000000C7
:1009700000000000000000060600000000008040AB
:10098000201008000201000000000000F80402022C
:100990000204F8000102040404020100000804FE3D
:1009A000020000000004040704040000080402829E
:1009B000422418000406050404040600060202028C
:1009C000122AC6000102040404020100C0A09E8095
:1009D00080FC800000000000040704003E120A0AA8
:1009E0000A12E6000102040404020100F844221283
:1009F0001224C00001020404040201000E02C262BB
:100A0000321A0E0000000700000000008854222265
:100A10002254880001020404040201003844828246
:100A20004224F8000002040404020100000000183F
:100A3000180000000000000606000000000000187A
:100A400018000000000000160E0000000040A0107A
:100A50000804020000000001020408000020202019
:100A60002020200000010101010101000002040812
:100A700010A04000000804020100000018040282D7
:100A8000422418000000000D00000000F804D252BB
:100A9000E204F800010205050405040200F0080460
:100AA00002FE0200040705010507040002FE2222DF
:100AB000225488000407040404020100F80402021E
:100AC00002048E00010204040402010002FE02027C
:100AD0000204F800040704040402010002FE2222BA
:100AE00072020E00040704040404070002FE22221E
:100AF00072020E000407040400000000F80402C2A1
:100B00004244DE00010204040201070002FE22202A
:100B100022FE02000407040004070400000202FE93
:100B200002020000000404070404000000000002A8
:100B300002FE0200000304040403000002FE6290AF
:100B400008040200040704000106040002FE02007B
:100B500000000000040704040404070002FE38E05B
:100B600038FE0200040704000407040002FE1A60B5
:100B700082FE02000407040005070400F8040202D4
:100B80000204F800010204040402010002FE4242D1
:100B9000422418000407040000000000F8040202C8
:100BA0008204F800010204040405020402FE42C2A9
:100BB00042241800040704000106040088142222BD
:100BC00022448E0001020404040201000E0202FE0F
:100BD00002020E00000404070404000002FE0200EA
:100BE00002FE0200000304040403000002FE82006F
:100BF00082FE0200000003060300000002FE02F075
:100C000002FE0200000107030701000002DE72205D
:100C100072DE02000407040004070400027EC280A2
:100C2000C27E020000000407040000000E8242227F
:100C3000120A0600070404040404070000FE02026E
:100C40000200000000070404040000000810204017
:100C5000800000000000000000010200000002020D
:100C600002FE000000000404040700001008040253
:100C70000408100000000000000000000000000058
:100C80000000000008080808080808000000000E1E
:100C90001600000000000000000000009048282816
:100CA0004890E000010204040402070002FE10085C
:100CB0000810E0000407020404020100E010080824
:100CC000081038000102040404020100E0100808C2
:100CD00010FE02000102040402070400E05048482C
:100CE00048506000010204040402010020F824229C
:100CF000020C00000407040400000000E0100808D3
:100D000010F80800000912120907000002FE10087E
:100D100008F000000407040004070400001016F6A1
:100D20000000000000040407040400000000101686
:100D300016F00000000C1010100F000002FEC02082
:100D40001008180004070401020404000000020255
:100D5000FE000000000004040704040008F808F086
:100D600008F00000040700070007040008F820103E
:100D700008F000000407040004070400E01008085D
:100D80000810E000010204040402010008F8100841
:100D90000810E000101F120404020100E01008080F
:100DA00010F8080001020404121F100008F82010B7
:100DB000080830000407040000000000102848481C
:100DC0004890380001020404040201000808FE08EB
:100DD00008000000000003040404020008F80800F2
:100DE00008F80800000304040207040008F888005B
:100DF00088F80800000003060300000008F808C097
:100E000008F80800000306030603000008B8E040E5
:100E1000E0B80800040700000007040008F8080014
:100E200008F8080000091212110F0000180888487D
:100E300028180800060504040404060040B01C023B
:100E4000020000000001070808000000000000FE8A
:100E5000000000000000001F00000000000002026F
:100E60001CB0400000000808070100000C0202044A
:100E7000080804020000000000000000C020100864
:100E80001020C000010101010101010002FE222227
:100E900022428600040704040402010002FE02024A
:100EA00002020E0004070400000000000AFA48E8ED
:100EB0000A1A0000040704040404070002DE60FEAE
:100EC00060DE020004070007000704008E0402022F
:100ED00022548800010204040402010002FEC070D2
:100EE0001CFE0200040705000407040004FCC264A1
:100EF00032FC0400040704000407040000F00804A6
:100F000002FE0200040700000407040002FE0202C1
:100F100002FE02000407040004070400027E82802F
:100F200042FE0200000204040403000070888AFEEE
:100F30008A8870000000040704000000027E82809E
:100F400042FE0200000000000407040002FE02F05E
:100F500002FE020004070407040704000E02FE124A
:100F60000808F000040407040402010002FE12084D
:100F7000F000FE0004070404030007008E04027260
:100F80002224F800010204040402010002FE20FCF5
:100F90000202FC000407000304040300182442C2F8
:100FA00042FE02000406010004070400F048242465
:100FB00022428000010204040402010008F84848AB
:100FC0004850A000040704040402010008F80808BF
:100FD000083800000407040000000000E0524A48FE
:100FE0004A526000010204040402010008B8C0F87B
:100FF000C0B80800040700070007040038100848BC
:1010000048A81000010204040402010008F880C08E
:1010100060F80800040705000407040008F882C40B
:1010200062F80800040705000407040008F840A05F
:1010300010081800040700000106040000C020107A
:1010400008F80800040700000407040008F860C05E
:1010500060F80800040704010407040008F8484089
:1010600048F80800040704000407040008F808080A
:1010700008F808000407040004070400380808F80A
:1010800008083800000004070400000008F8080001
:1010900088F80800000001010407040008F808C0EF
:1010A00008F8080004070407040704003808F84893
:1010B0002020C000000407040402010008F84820B2
:1010C000C000F800040704040300070008F84820E3
:1010D000204080000407040404020100381008E8DE
:1010E0004850E000010204040402010008F840F046
:1010F0000808F000040700030404030060900808D7
:1011000008F80800000405030507040011241FBEA9
:10111000CFEFD8E0DEBFCDBF21E0A0E0B1E001C05D
:101120001D92A63CB207E1F70E948E370C949A3FBD
:101130000C9400005A98529A5898509A5D98559A73
:101140005C98549A67FD5C9A21D066FD5C9A1ED02B
:1011500065FD5C9A1BD064FD5C9A18D063FD5C9AB7
:1011600015D062FD5C9A12D061FD5C9A0FD060FDD3
:101170005C9A0CD0589A58985C98549A80FD5C9A66
:10118000D0D55D9ACED55D98C7C508955A9A5A9A1A
:101190005A985C98089580FD5B9880FF5B9A81FD6A
:1011A000599881FF599A539A519A0895609346012C
:1011B0008093040186958093AD01660F660F660FDC
:1011C00060930F0108958091460180930101809101
:1011D000AD018093030108958091030160910101A5
:1011E000880FE4CF0895CF93C82F692F81E0A2DF45
:1011F0006C2F81E09FDFCF910895682F80E09ACF18
:1012000008958EE3FACF08958DE055D58AE053C551
:1012100008951092AD0160E080E0C8DFF5CF089539
:10122000CF93DF9383E0B7DFC0E080E4E6DF8C2F6D
:10123000886BE3DFD0E460E081E07CDFD150D9F758
:10124000CF5FC83091F7E5DFDF91CF9108958AE055
:101250006AD583E0A0DF80ECD0DFE2DF8FE3CDDF73
:101260008AE061C5089581E08093AD0160E082E08D
:101270009DDFCACF089582E08093AD0160E084E0F5
:1012800095DFC2CF089583E08093AD0160E086E0F2
:101290008DDFBACF08950895582F28E030E090E808
:1012A00041E080E0652F642309F0892B440F969577
:1012B00021503109B9F70895B0E0A0E0E2E6F9E085
:1012C0000C94DB3E6C01662E10E0C801860F911D68
:1012D00081389105D4F5642F6E0D7727771FCB01E8
:1012E0006134710594F5D42FD695D695D69501978E
:1012F00033E0959587953A95E1F7722F7270472EF6
:1013000021FF0DC0482F4D1B550BBA01609FA00156
:10131000619F500D709F500D1124C40ED51EC82F13
:10132000883008F0C7E0862D8F73582E689456F8E1
:101330002170722E580151E0A51AB108CD1750F452
:10134000809104018770886B58DFCDB7DEB7E0E18C
:101350000C94F73E83E01FDF8D2F886B4EDF6FE329
:1013600081E0661508F482E016DF852D46DFF12C5A
:10137000E12C46018A0C9B1C0E151F0531F44420FC
:10138000F1F0C01AD10ADF5FD9CF862D8E0D8034DF
:1013900021F482E000DF80E430DFF401EE19FF0980
:1013A000711003C0F601EE0DFF1D8491411074DF32
:1013B000682F81E0BFDE7FEFE71AF70ADDCFC00EAE
:1013C000D11EE1CFEF920F93482F8F7320E6829FBB
:1013D000C001112484519C4F28E046FF28E420934B
:1013E00010011092000147FD08C02091100130E269
:1013F000309300012D5E2093100120E2E22E08E1DF
:1014000020E0409100016091100156DF0F91EF90B4
:101410000895EF920F93262FFC0134913196449159
:10142000319604913196E490E09100014E0F609165
:101430001001630F049640DF0F91EF90089560E074
:10144000E8CF0895EF920F93CF93C82F8091460174
:101450008F5F8093460140910401440F440F440F75
:1014600020E1C29FC001112420E1E22E08E020E02B
:1014700060910F018457994F1FDF80910F01885FA2
:1014800080930F01EFEFEC0F8C2FEA30B0F4F0E017
:10149000E45BF54F0C94EE3D560A5A0A630A6B0A58
:1014A000690A650A650A670A710A710A8EE303D43C
:1014B0008CE703C08CE7FFD38CE3FDD3A895CF91D5
:1014C0000F91EF9008958CE7F2CF82E5F6CF8DE291
:1014D000F4CF85E7F2CF8FE4EED388E6ECD38DE648
:1014E000ECCF8CE4EACF8F5CADCF089580E2AACF39
:1014F0000895CF93C82F1C1614F0CF910895F6DFEE
:10150000C150F9CF9091460180E1891BF2CF089537
:10151000CF93C82FF7DF8091AD018F5F8093AD012E
:10152000843070F083E08093AD0181E080934901C5
:101530008091AD016C2F880F39DE66DECF91089562
:1015400010924901F5CFE4DF49D58091AD01833098
:1015500008F05ACE08955DDED5DF5BCE089583DEB8
:10156000D1DF81CE08958DE36DCF0895CF93DF93C2
:10157000EC018991811103C0DF91CF91089562DF61
:10158000F8CFCF93DF93EC01FE018491982F9F77E2
:1015900019F058DF2196F8CFDF91CF910895CF93BE
:1015A000DF93EC01CE010E946C3F982F9F7719F0DA
:1015B00049DF2196F7CFDF91CF910895EF920F93F6
:1015C000FC0104913196E490029676DE0F91EF9043
:1015D00008950F9380E991E0E2DF409191014D3F42
:1015E0006CF460917F0170918001809181019091F4
:1015F000820103E026E417D10F9108958FE322DFE3
:10160000FBCF909124019F70923071F49CDF84E7AE
:1016100090E0C5DFE0914701F091480122E044E00D
:101620006FEF84819581E1C1089597FF09C08F9381
:101630009F938DE207DF9F918F91909581959F4FAA
:101640006CE271E04AE050E00E94393F8FCF08958C
:10165000ECDF01C0EADF4ACF0895EF92FF920F93CB
:101660001F93182F062FF42E82E791E098DFEE24C7
:10167000E0914701F09148018685E81611F4812F29
:1016800009C08485E81611F4802F04C08585E8160A
:1016900011F48F2DD7DEE3948E2D833049F71F91FF
:1016A0000F91FF90EF900895EF92FF920F931F9389
:1016B000182F062FF42E80E046DF88E791E06FDFD9
:1016C000EE248E2D10DF4FDFE0914701F0914801AD
:1016D0008685E81611F4812F09C08485E81611F477
:1016E000802F04C08585E81611F48F2DABDEFEDE59
:1016F000E3948E2D833029F71F910F91FF90EF9087
:101700000895682F80E092E0662309F491E062304A
:1017100009F481E008950F93082FEEEAF1E0880FB5
:10172000880FE80FF11D6081718182819381643699
:1017300071058105910570F42091020127FD0AC011
:10174000802FDFDF692F0E9417286EEF23E044E02F
:101750004CD104C04FEF04E024E065D0C7DE0F9108
:101760000895863058F4E1EAF1E0E80FF11DE80F42
:10177000F11D8081918163E043D1B8CE08951F931C
:10178000182F80917A01882319F0B0DE80E05ADEAC
:101790006ADD89E691E003DF812F82958F70E1DFBA
:1017A000812F8F70DEDF1F91089580911101829546
:1017B0008F7019D08091110183701CD0809111011C
:1017C000DECF0895E5E9F1E0E80FF11D0895CF932C
:1017D000F9DF9081C681C91710F405D001C013D07C
:1017E00085DECF910895EEDF8F9380817CDE8F912F
:1017F00001C008958F9387E391E0D1DE8F91E2DFFE
:10180000868171CE0895DEDF8F9386816CDE8F91A5
:1018100001C008958F9383E391E0C1DE8F91D2DF01
:10182000808161CE0895AEE0B0E0E9E1FCE00C9487
:10183000D93E142F622E702E6B017C010F7080E355
:1018400089838A838B838C838D838E83F7FE40C04C
:101850008DE2F8DDF094E094D094C094C11CD11CCA
:10186000E11CF11C68EE862E63E0962EA12CB12CB3
:10187000033041F150E1852E57E2952EA12CB12C79
:10188000043001F140EA842E46E8942EAA24A39461
:10189000B12C0530B9F030E4832E32E4932E3FE0D2
:1018A000A32EB12C063071F074E6872E912CA12C5A
:1018B000B12C073039F420E8822E26E9922E28E94F
:1018C000A22EB12C9AE0292E312C412C512C12C081
:1018D00075FEC8CF8BE2B6DDC5CFC701B6016B5F21
:1018E0007F4F8F4F9F4FA20191010E94B03D690130
:1018F0007A011F5FC814D904EA04FB0470F781E180
:10190000810F9BEA899F812D1124A82EA69486E041
:10191000811B899F112D11241695912F990F190F55
:10192000811B182F4E0187E0880E911C2AE0A4012C
:10193000C701B6010E94183FF40101900020E9F7A9
:1019400031977F01E818F9089E2C6701DD24812F6B
:1019500090E004968C159D0514F4A3941D5F8A2DC8
:1019600090E0845D9F4F0E946C3FA82E74FE29C0BA
:10197000901638F50E198E2C811A800E181424F04A
:101980008EE260DD012F0E19111102C088EF882E42
:10199000912C10E0C00ED11EE82C082C000CFF0882
:1019A000E92DF0E0EC15FD0574F0AA2011F08A2D68
:1019B00049DD662011F0862D45DD2E96E2E10C947E
:1019C000F53E00E0D8CF3696E01BF10B81E090E0C9
:1019D0008C0F9D1FE80FF91F808134DD93949E14B6
:1019E0001F04F1F68EE22EDDDBCF0F93362FBC0104
:1019F00090E080E0022F242F432F15DF0F910895F0
:101A00000F93062FBC0190E080E026E54DEF0BDF41
:101A10000F9108950F93042F28E440E004DF8AE734
:101A200011DD64DD0F910895E82FF0E0EE0FFF1F48
:101A3000E057FE4F8591949120910001420F209133
:101A40001001620F20E0BACD0895CF93DF93C82F25
:101A5000D62FE0914701F091480148E16EE186857B
:101A6000E3DFE0914701F09148014D2F6C2F848511
:101A7000DBDFE0914701F091480140E06EE18585B0
:101A8000D3DFDF91CF910895CF93DF93C9DB80EC53
:101A900099DC62E088EA91E0BCDC80E893DC83EECC
:101AA00091E0CDDC60E085E081DB85E891E077DDE9
:101AB00068E085E07BDB8DE791E071DD88E99AE302
:101AC00026D2AEDB83E47EDC83E07CDC8CEE91E02E
:101AD000B6DC61E082E06ADB8EE4B4DC8DE2B2DC8D
:101AE0008FE991E05CDD69E082E060DB80E5AADC03
:101AF0008DE2A8DC8FE991E052DD88E99AE307D214
:101B00008FDB81EC5FDC81E85DDC85E492E097DCD3
:101B100060E085E04BDB8EE495DC8DE293DC85E4D0
:101B200091DC89E991E03BDD68E086E03FDB80E520
:101B300089DC8DE287DC85E485DC89E991E02FDDB5
:101B400088E99AE3E4D16CDB81E43CDC89E392E050
:101B500076DC81E037DC85E192E071DC60E081E0F9
:101B600025DB8EE46FDC8DE26DDC84E46BDC89E9DF
:101B700091E015DD68E082E019DB80E563DC8DE251
:101B800061DC84E45FDC89E991E009DD88E99AE3BE
:101B9000BED146DB82EC16DC82E814DC8BE092E0FE
:101BA0004EDC60E085E002DB8EE44CDC8DE24ADC5A
:101BB00085E448DC84EA91E0F2DC68E086E0F6DA6D
:101BC00080E540DC8DE23EDC85E43CDC84EA91E0AB
:101BD000E6DC88E99AE39BD123DB82E4F3DB85E052
:101BE00092E02DDC82E0EEDB83EF91E028DC61E027
:101BF00081E0DCDA8EE426DC8DE224DC84E422DC85
:101C000084EA91E0CCDC69E082E0D0DA80E51ADC9D
:101C10008DE218DC84E416DC84EA91E0C0DC88E91B
:101C20009AE375D1FDDAF5DA88E191E0B8DC1BDBE7
:101C300083E191E0B4DC1FDB8BE591E0B0DC23DBDA
:101C400087E391E0ACDC52DC83E391E0A8DCC0E008
:101C50008C2F8F7061F4DC2FD295D37021F488E93A
:101C60009AE355D1DDDA60E08D2F880F9FDA80E2AC
:101C70008C0FE8DBCF5FCF3559F788E99AE347D17E
:101C8000CFDAC0E08C2F8F7031F460E08C2F82951A
:101C90008F70880F8BDA80E8C83208F088EE8C0FDE
:101CA000D1DBCF5FCF3271F788E99AE330D1B8DA70
:101CB000DF91CF9108958F932F932AE080953B9ADF
:101CC000089410F4439802C0439A000020D027D013
:101CD00086952A95B1F72F918F91089503D002D060
:101CE00001D000D000D003D002D001D000D000D06D
:101CF00003D002D001D000D000D0A89503D002D0EC
:101D000001D000D000D003D002D001D000D000D04C
:101D100003D002D001D000D000D003D002D001D037
:101D200000D00000089590E0893C28F0885C48ECE1
:101D3000849FC0011124009709F408952091810027
:101D4000277019F0DADF0197F6CF8130910519F08D
:101D500002973EE303C037E180E090E02091B200BB
:101D6000230F2093B30042E04093700027E023BF8D
:101D7000889526E023BF10927000A895DCCF8F9342
:101D800084E0D1DF07C08F9382E0CDDF03C08F9363
:101D900081E0C9DF8F911F93182F106410937C008E
:101DA000E12FE07880913701E81759F0E09337018F
:101DB000AEDF8EE980937A0083E083BF889582E06E
:101DC00083BF20E030E0A901E0E01FC08EE98093EE
:101DD0007A0083E083BF889582E083BF60917800BA
:101DE00070917900260F371F411D511DE43061F4B9
:101DF00080913901803041F084E02030380720F4B0
:101E000017FD02C01068CACFEF5F80913601E81756
:101E1000E8F260913A0170913B0117FF04C06091B4
:101E200038017091390180E090E00E946E3D2FEF03
:101E300033E040E050E00E94B03DB901CA0120917A
:101E4000360130E040E050E00E94B03DC9011F91F2
:101E500008959B01281B390B50F0C9010895BC015E
:101E600080913A0190913B016817790718F4861B1D
:101E7000970B089580E090E0089589B183FB88274F
:101E800080F94999826090911C01943050F09EE055
:101E9000909318018093190110921D0191E0909385
:101EA0001C01E0911C01AE2FB0E0A85EBE4F2C914A
:101EB0002817C1F081110EC090911D01A3E0AE0F53
:101EC000A3702230B1F4B0E0A85EBE4F2C919F5FAA
:101ED0002330C1F0EF5FE370E0931C01F0E0E85EB7
:101EE000FE4F808380911D0187FD0FC080931E01EE
:101EF0000895213079F7B0E0A85EBE4F2C912330D1
:101F000049F7915090931D01E5CF8195EFCFB0E057
:101F1000A0E0EDE8FFE00C94E23EE82ED92E5398C5
:101F20005198F0DE10921D01E0911C01F0E0319615
:101F3000E370FF27E85EFE4F80EF8083C5E6D9E1BE
:101F40009CDF4F9B24C0CE2DDD2DF12C15E500E04C
:101F5000BB24B394D7FD15C082E3C82E8EDFD6DE36
:101F6000CA94C110FBCF110F4F9B1F5F1F731F330C
:101F7000A1F4011103C0CE2DDD2D04E00F5F083C5C
:101F800080F0802FCDB7DEB7E9E00C94FE3EBEDED8
:101F9000D150B1F6C15099F6D6CF111102C001113E
:101FA000F0CFA8951C161D0624F42A9711F4CFEF44
:101FB000DFEF80911E01882339F0F39480917B013B
:101FC000811102C0B0927B0184E18F1508F0C2CF6D
:101FD00080911D018111D5CFF12CBCCFCF93F3D8C7
:101FE000C82F80914901882301F1813051F4C33019
:101FF00041F46FE086E0DAD88BE224DA6FE086E025
:10200000D5D880E49FE183DF811104C080911E0157
:102010008111F7CFC33041F480914901813021F41F
:1020200060E086E0C3D86EDAD7D8CF91089589E40E
:1020300093E00E946C3F382F8AE493E00E946C3F4B
:1020400020913E01230F30913F01381F2093210141
:102050003093220183E0283E380720F0C901885ED2
:10206000934002C080E090E062E370E00E94893D0E
:10207000683008F067E0E4E7F3E0E60FF11DE60FF3
:10208000F11D459155912591359162E3681B421BE5
:10209000530B649FC001659F900D1124499662E324
:1020A00070E00E94893D620F731F70937E01609300
:1020B0007D018BE493E00E946C3F992787FD90950A
:1020C00060913E0170913F01860F971F90933901F7
:1020D0008093380190937901809378010895CF938C
:1020E000DF9324E130E0B9010E94893DDC01E6E89C
:1020F000F3E0E60FF71FE60FF71FC591D591459165
:1021000055914C1B5D0B4A9FC0014B9F900D5A9FF0
:10211000900D1124B9010E94893D6C0F7D1FCB01E8
:10212000DF91CF9108951895189540912301A091C2
:102130004701B0914801E5E9F1E030E020E0822F6D
:102140002417B0F451911C969C911C97591719F0C3
:102150005581951303C02F5F3F4FF1CF220F331FDF
:10216000F901EF55FE4F20813181293E334008F0BF
:1021700084E10895109225011092230110927301B9
:1021800010925901109224011092450110927A0187
:10219000EEE5F1E0108211821282EFE7F1E0108AA1
:1021A00082E0818B109202011786168614821582B6
:1021B0001682178281EF838B08958FE47CDD86E49D
:1021C0007ADD86E478DD20D85E988BDD90E080E0D3
:1021D0009ECE08951F93CF93DF93162F98E097B963
:1021E00098B9E82FF0E0E35AFD4F949195B9262F66
:1021F000281BE20FF11D27FDFA95E491E92BE4B9C4
:10220000CADDEC01812FC7DDAC0120913A0130918C
:102210003B0136952795C9010397BE01625E7F4F4A
:102220008617970778F4255E3F4FC217D30750F4FF
:10223000BA01625E7F4F8617970720F481E042174C
:10224000530708F080E014B8DF91CF911F910895F3
:10225000CF9361E080E0BEDFC82F62E080E0BADFAC
:10226000C80F62E081E0B6DF8C0FCF910895AFE038
:10227000B0E0EDE3F1E10C94D93EB82E10922501C7
:10228000807FD1F4E5DF833099F40E94100989E55D
:1022900092E085D90E9433098FE3D4D880ED97E08E
:1022A00036DE8B30C0F40E94100985E091E077D9CA
:1022B0002F96E2E10C94F53E06E910E00E94100929
:1022C00088EC91E06CD9C4DF833009F069C01F5FEE
:1022D000143008F466C00E9433090E94F92281EC90
:1022E00090E05DD960E083E293E00E94793F60E096
:1022F00084E293E00E94793F60E082E293E00E94F2
:10230000793F60E082E00E9417286C019A838983FC
:1023100061E082E00E9417287C019C838B8360E04F
:1023200081E00E9417288C019E838D8323E040E288
:102330006EEFC6015ADB23E040E26EEFC70155DBCA
:1023400023E044E06EEFC80150DB2AE5C216D10459
:1023500024F084E190E09A838983698183E293E0A9
:102360000E94793F8AE5E816F10424F084E190E0C8
:102370009C838B836B8184E293E00E94793F0A35D2
:10238000110524F084E190E09E838D836D8182E2CB
:1023900093E00E94793F82E0809349011FDE06C0EE
:1023A00010E088E2C0DC015009F088CFEB2DEF701F
:1023B000EF87E13009F04DC0EE24E394F12C78EB87
:1023C000872E72ED972E77E4A72EB12CE2E0DE2E59
:1023D00008E0F0E23F2EC12C1E2D50E3252EBFD881
:1023E000BAD884E52FD8C7012BD980D8113009F08D
:1023F000D6C184EF90E0D3D864E080913E01909103
:102400003F01FEDA0E9433098FEE90E0C8D8809138
:102410007D0190917E0114D98EEB8093360107B92E
:1024200008B914B815B888EE93E071DD143011F0D6
:102430008B3020F4C39484E0C812D1CF88EE93E0AF
:1024400066DDEFEFEE1AFE0AF8E0EF16F10409F090
:10245000C2CF18E7FDDE882341F081D889E492E0FD
:102460009ED884E660DC1150A9F70E9410098AEB1F
:1024700090E095D823E044E06FEF80913C0190918B
:102480003D01B3DA0E94330983EB90E088D823E062
:1024900044E06FEF8091430190914401A6DA82E01D
:1024A000809349019BDD109225010E9410098FEA5B
:1024B00090E075D860E082E00E94AC1F80908701B8
:1024C00090908801A0908901B0908A019C868B86AB
:1024D00061E082E00E94AC1FC0908701D09088012B
:1024E000E0908901F0908A01DE86CD8660E081E08F
:1024F0000E94AC1F00918701109188011E830D83FB
:1025000062E080E00E94AC1F809187019091880179
:102510009C838B8362E081E00E94AC1F80918701E5
:10252000909188019A87898761E080E00E94AC1FC2
:1025300080918701909188019A8389832F8521302A
:1025400029F020914201223009F012C202969887A8
:102550008F83C4017FD8C6017DD8B801110F880BC5
:10256000990B03E026E444EF5ED98E010F5F1F4F05
:102570009E01215F3F4F7801F701819191917F0189
:102580000A97853B9105D8F42E173F07A9F742E437
:10259000C42E43E0D42EF80160810E5F1F4F6E5EA3
:1025A000C6010E94793FFFEFCF1ADF0A0E151F0503
:1025B00091F70E94330985EB91E00E94CF0A82E0F7
:1025C000809349010BDD0E9424342F85213029F0AE
:1025D00080914201823009F0C9C00E94100980E058
:1025E0000E94730A8BE591E00E94CF0A82E00E946C
:1025F000730A84E290E00E94CF0A20E4F22E10E0F9
:102600003AE0832E912CA12CB12CB4DD109225013F
:1026100060E082E00E94AC1F0091910120917F0157
:10262000309180014091810150918201073F0CF46B
:10263000A4C10093910120937F01309380014093C6
:10264000810150938201073F09F09FC12056310953
:1026500041095109203935454105510508F095C119
:102660006091930170919401CB018B569F4F8B32F7
:10267000914008F08AC11F5F153008F487C189E4D2
:1026800093E00E94873F0E9410098DE190E00E9434
:10269000CF0A80919301909194010E94150BC7DCA1
:1026A00088E088B989E087B980E284B982E073DB89
:1026B000853D9340DCF714B810923901109238012F
:1026C00082E069DB7C01809178019091790190939F
:1026D00039018093380182E05EDB6C01CC0CDD1C9B
:1026E000109239011092380182E055DB4C01A09024
:1026F0007801B0907901B0923901A09238010E941E
:10270000330986E190E00E94CF0A8BE493E00E94B7
:102710006C3F182FD701A80DB91DAC19BD09950143
:102720000E94033E96010D2C000C440B550B0E9499
:10273000D23D1D5F120F612F8BE493E00E94793F21
:10274000812F012E000C990B0E94150B70DC82E08A
:102750008093490143DC1092420182E493E00E949D
:102760006C3F682F85E493E00E94793F89E1809374
:10277000360180E00E9447370E94100985E091E011
:102780000E94CF0A0E94330980E492E00E94CF0A9F
:102790001092250182E08093490120DC89CD12301E
:1027A00089F520913A0130913B01A8E5BBE10E94F7
:1027B000F43D24EC36E340E050E00E94D23D290194
:1027C0003A0181E085B9F5E0F4B980E0D8DA8419FE
:1027D00095099A83898381E184B980E0D0DA8419EC
:1027E00095099C838B8384E085B984E184B981E079
:1027F000C6DA841995099E838D8389ED90E00E9445
:10280000CF0A34C0133049F5D5B82AE024B980E0A6
:10281000B6DA20913A0130913B01369527953887F9
:102820002F83821B930B9A83898382E284B980E091
:10283000A6DA2F813885821B930B9C838B8305B985
:10284000E8E2E4B981E09BDA2F813885821B930BA3
:102850009E838D838BEC90E0D2CF1430D1F489E449
:1028600092E00E94CF0AF4DC8111A8C00E943309D3
:1028700089819A810E94150B0E94760A8B819C8126
:102880000E94150B0E94760A8D819E810E94150B75
:10289000C6CD153099F415B8D4B880E070DA9A83B3
:1028A000898304B981E06BDA9C838B8334B882E03E
:1028B00066DA9E838D838BEE90E0A1CF163039F5DA
:1028C000D4B8D5B880E05BDA20913A0130913B0171
:1028D000821B930B9A83898304B905B981E04FDA8F
:1028E00020913A0130913B01821B930B9C838B8397
:1028F00034B835B882E043DA20913A0130913B0197
:10290000821B930B9E838D8387EE90E078CF1730E8
:1029100059F520913A0130913B01A8E5BBE10E94B5
:10292000F43DA50194010E94B03D29013A01D5B8BA
:10293000F3E0F4B980E023DA841995099A83898356
:1029400005B92CE024B981E01ADA841995099C8331
:102950008B8335B824B882E012DA841995099E83F6
:102960008D8385EC90E04BCF113009F07FCF57CDB0
:1029700098878F8310924201ECCD0F5FCA01B90195
:10298000A50194010E94B03D51CE10E00E94330990
:1029900060917F017091800180918101909182010D
:1029A00004E026E4409191010E94130C0E94820AE7
:1029B00088E2B9D9FA94F11028CED8CE82E0C82E98
:1029C00055CF8091420181110DC082E493E00E94B5
:1029D0006C3F61E0680F85E493E00E94793F81E0FD
:1029E000809342010895EF92FF920F931F93CF932C
:1029F000DF93D62FE82FF0E0E05AFD4FE491E8B9DD
:102A0000E860E7B915B8E62FF0E0E35AFD4FE4912E
:102A1000E4B9CE2FCC0F88E8E82E83E1F82E8D2F75
:102A2000AED98C01C4B98E159F0520F1892BE9F030
:102A30000E9443098BE391E00E94CF0AD80120EA6B
:102A400036E841E050E00E94093E28E937EB40E0DB
:102A500050E00E94B03DC90122E041E467EF0E94CE
:102A6000F50C88E087B988B914B8CDB7DEB7E6E0D1
:102A70000C94013F7801D3CF0F931F93CF93DF9333
:102A800085E089D985E083D98C01EC01CC0FDD1F6D
:102A9000CC0FDD1FCA56DF4F10924001C43883E0CF
:102AA000D80770F489EA91E00E94CF0A0E94820A56
:102AB00081E080934001DF91CF911F910F910895A4
:102AC00088EB91E00E94CF0A62E0CE010E94000DE7
:102AD0000E94760A0A3F86E01807A0F403331640E6
:102AE00050F482EB92E00E94CF0A0E94820A8DECA1
:102AF0001AD963DBE0CF89EB92E00E94CF0A0E94F3
:102B0000820AD9CF85EB91E0F8CFFC019C01261B0E
:102B1000370BCA0170E060E0A901460F511D452F37
:102B20005527620F240F351FAC01470F511D452F4C
:102B30005527780FDA01AA0FBB1F8A0F9B1F4B3E48
:102B400020F4E217F30740F7089590E080E008953D
:102B5000A9E1B0E0EEEAF5E10C94D93E582E462EFC
:102B6000342EA895E62FF0E0E35AFD4F24912E87EE
:102B7000220F2F8B339634913A8BE42FF0E0E35AF7
:102B8000FD4F44914983339684918F83E52DF0E086
:102B9000E35AFD4F2490922D990F9F8733962491ED
:102BA0002B8328602C8338603A8345B9EE84E42A6D
:102BB000E4B827B93B8138B9862FE9D88C014E8516
:102BC00044B9842DE4D8B82E998714B895D815B88F
:102BD000E4B8842DDCD8B8013CD96C018A8187B96E
:102BE00088E088B9998192299D8395B994B9852DFA
:102BF000CED835D94C0115B87FD825B8852DC7D882
:102C00002ED99D878C8724B8852DC1D828D93C0121
:102C10006C857D85C4011DD98032E1E09E0730F4CA
:102C2000F0E2CF16F1E0DF0608F48CC62C853D8576
:102C3000C20ED31E800F911FC816D90620F01D8723
:102C40000C876B2C79842091590180917301820F3C
:102C50009927991F02974CF0213009F0A1C5909156
:102C600056018091700198139BC5D980DD0CFE84BC
:102C7000FD283D2D32293B878C859D858437910524
:102C800008F49BC10A96880F991F6816790608F008
:102C900094C19C8197B9EB81E8B9F4B8842D73D8BD
:102CA0008C01832D78D87C01D5B8842D6CD89801FF
:102CB000295A3D4F2817390708F0AFC088E088B976
:102CC000FA81F7B92B8524B925B9832D5CD88834CE
:102CD0009F4008F49DC085E08093250182E28093A7
:102CE000240110934F0100934E01B701C801BCD8D5
:102CF00090935501809354019801A0E1B7E20E949E
:102D0000F43D20911F013091200150E040E00E94ED
:102D1000B03D30935101209350018F898D2984B9A2
:102D200015B84C8147B98B8188B9832D34D88C0173
:102D3000842D29D8B80198D89C0190935301809391
:102D40005201909124019F70943071F5409150018F
:102D5000509151016091540170915501C901D5DE26
:102D60000097F1F0D4B8EA899C81E92BE7B9842D6A
:102D70000AD88C0188E087B99801A0E1B7E20E94E7
:102D8000F43D209143013091440150E040E00E9425
:102D9000B03DA901B8018091520190915301B5DE77
:102DA00090934F0180934E01809124018F70843065
:102DB00049F188E088B9EF81FA81EF2BE7B924B8AF
:102DC0002D8125B9852D0E94C70E8C0148D89E8380
:102DD0008D83842D0E94CB0EE0902601F090270178
:102DE000BC01C80141D89701DC010E94F43DED818E
:102DF000FE819F0150E040E00E94B03D30934F01C2
:102E000020934E01809159018F5F8093590150C3E7
:102E100085E08093250184E262CF88E088B9FA8159
:102E2000F7B92B8524B925B9852D0E94C30E8C01D5
:102E3000832D0E94CB0E7C0125B8852D0E94C30EE8
:102E4000895A9D4F8017910708F0AAC43B8138B971
:102E50004C8147B9832D0E94C30E813D934008F0F9
:102E6000A7C085E08093250182E380932401B80107
:102E7000C7010E94340F90936F0180936E01C801C7
:102E80000E942F0F9C01A0E1B7E20E94F43D209127
:102E900026013091270150E040E00E94B03D309380
:102EA0006B0120936A01F8E0F8B92A8127B98F8570
:102EB0008D2984B985B9852D0E94CB0E8C01832D77
:102EC0000E94C30EB8010E94340F9C0190936D01C3
:102ED00080936C01909124019F709430A1F54091F2
:102EE0006A0150916B0160916E0170916F01C9018F
:102EF0000CDE009721F1D5B8D4B83B8138B9EC810C
:102F00004A81E42BE7B9852D0E94C30E0E942F0F42
:102F10008C0188E087B99801A0E1B7E20E94F43DF6
:102F200020913C0130913D0150E040E00E94B03DD5
:102F3000A901B80180916C0190916D01E6DD90933B
:102F4000690180936801809124018F70843051F170
:102F5000EB819F81E92BE8B9EC819E2B97B915B8DD
:102F6000FD81F4B9852D0E94C70E7C01842D0E943D
:102F7000CB0E9E838D8300911F0110912001BC0117
:102F8000C7010E94340F9801DC010E94F43DED81DD
:102F9000FE819F0150E040E00E94B03D3093690106
:102FA00020936801809173018F5F8093730118C132
:102FB00085E08093250184E358CF88E088B9FA81C1
:102FC000F7B925B82B8524B9852D0E94C70E998B9A
:102FD000888B0E942F0F98878F83832D0E94CB0EA2
:102FE0009A87898783010C591F4F8F819885B30178
:102FF0000817190708F0F6C00E94340F9C8B8B8BC2
:10300000209126013091270150E040E060E871EA0C
:1030100083E09CE10E94B03DAB89BC890E94093EDF
:10302000E985FA859F0150E040E00E94B03D4901EA
:103030005A0114B815B8FB81F8B92C8127B981E081
:103040000E94930EE4B8842D0E94C70E8F359D40D8
:1030500008F474C1F4B8842D0E94C30E998F888F30
:10306000832D0E94CB0E9C8B8B8B852D0E94CB0ECB
:103070009E8B8D8B8B899C89813D974008F4E6C09F
:1030800084E0809325018DE080932401288D398D83
:103090008901061917096216730610F0088D198D3B
:1030A000C0901F01D0902001F12CE12C60E871EA62
:1030B00083E09CE1A70196010E94B03DD8010E94E7
:1030C000093EEB89FC899F0150E040E00E94B03D41
:1030D00080917301882371F0809164019091650162
:1030E000A0916601B091670182179307A407B50705
:1030F00008F099C020936401309365014093660104
:1031000050936701288D398DA0E1B7E20E94F43D0C
:10311000A70196010E94B03D30936B0120936A0194
:103120006B897C898D899E890E94340F90936901F7
:103130008093680181E04091640150916501609144
:10314000660170916701481559056A057B0508F00D
:103150006CC08092640190926501A0926601B09269
:10316000670169857A85888999890E94340F9093CF
:103170006901809368012F813885A0E1B7E20E9440
:10318000F43D209126013091270150E040E00E945B
:10319000B03D205F384D30936B0120936A01C090A1
:1031A0001F01D0902001F12CE12C9301A0E1B7E2A6
:1031B0000E94F43DA70196010E94B03D30936D013D
:1031C00020936C012C853D85A0E1B7E20E94F43D7F
:1031D000A70196010E94B03D30936F0120936E01CC
:1031E00081E025C08F8198850E94340F9C8B8B8B4A
:1031F000FD81F4B9852D0E94C70E998B888B0E94A2
:103200002F0F98878F83832D0E94CB0E9A878987F3
:10321000BC018B899C890E94340F9C01A4E6B0E01C
:103220000E94F43DFDCE80E086CF8111B8CF909111
:1032300073019F5F90937301882309F477C33092E1
:103240007001409271015092720170C3F1E66F16E5
:10325000710408F073C0288D398D213D47E0340793
:1032600008F46CC085E08093250182E180932401FD
:10327000C90186509F4FED89FE898E179F0708F080
:1032800043C083E180932401FA89F770DF2E832DF8
:10329000806480937C00EBE0EE2E21E030E03E8302
:1032A0002D830FEF13E0A89561E089816ED5F4B806
:1032B00086B18D21E9F33E8534B980917A0080642E
:1032C00080937A0080917A0086FDFCCF809178000F
:1032D00090917900F801E81BF90B2D813E812E0FAA
:1032E0003F1F3E832D83EA94E110DDCFC901880F93
:1032F000991F880F991F69E070E00E94893D7093C3
:103300006F0160936E014ECE00911F01109120015C
:10331000688D798D8D899E890E94340F9801DC011A
:103320000E94F43DE88DF98D9F0150E040E00E943D
:10333000B03D3093690120936801A6CFF4B8D5B8A9
:10334000842D0E94C70E6C01832D0E94CB0E98879E
:103350008F830E942F0F9A8789870C151D0508F00F
:10336000A9C0B301C6010E94340F8C0120911F0136
:103370003091200150E040E060E871EA83E09CE198
:103380000E94B03DD8010E94093EE985FA859F015F
:1033900050E040E00E94B03D49015A01FA81F7B97E
:1033A00088E088B92D8124B925B9852D0E94C70EE2
:1033B0008C01832D0E94CB0E9A878987842D0E94D1
:1033C000CB0E7C01003331E1130708F0E6C125B8CC
:1033D000852D0E94C70E998B888B24B8852D0E945D
:1033E000C70E9C8B8B8B15B881E00E94930E25B87D
:1033F000852D0E94C70EEB89FC89E034F64008F069
:1034000079C08133914108F475C0C8018A569F4F35
:10341000E889F989E817F90708F06CC086E080931D
:103420002501809159018F5F80935901B7018985EA
:103430009A850E94340F90934F0180934E01B701FB
:10344000C8010E94340F909355018093540114B821
:1034500015B8FA89F8B981E00E94930E24B8852D39
:103460000E94C70E853F910518F52D8124B9832D43
:103470000E94C70E813D9340D8F0852D0E94CB0E4F
:103480008D3D9240A8F024B8852D0E94C70E8D3D39
:10349000924070F025B881E00E94930E15B8852DFA
:1034A0000E94C70E853F910518F487E0809325019F
:1034B00081E0F8C0E4B8F981F5B9842D0E94C70E07
:1034C0006C01832D0E94CB0E98878F830E942F0F53
:1034D0009A878987C6016C147D0410F486199709B0
:1034E00069857A850E94340F9C01A4E6B0E00E94B1
:1034F000F43D4BCFFA81F7B9298124B925B981E090
:103500000E94930E3B8534B935B9852D0E94C70EB4
:103510008C010E942F0F998B888B832D0E94CB0EDC
:103520009E838D830E942F0F9A878987842D0E9406
:10353000CB0E7C0189859A858E3F994008F4C1C0E5
:1035400084E0809325018CE080932401B301888975
:1035500099890E94340F8C01209126013091270116
:1035600050E040E060E871EA83E09CE10E94B03DF9
:10357000D8010E94093EE985FA859F0150E040E0AC
:103580000E94B03D80915901882371F080914A01D9
:1035900090914B01A0914C01B0914D01821793077E
:1035A000A407B50708F07AC020934A0130934B0175
:1035B00040934C0150934D01B7018D819E810E9433
:1035C000340F90934F0180934E0128893989A0E1EF
:1035D000B7E20E94F43D209126013091270150E08E
:1035E00040E00E94B03D309351012093500181E0B2
:1035F00040914A0150914B0160914C0170914D01F5
:10360000481559056A057B0508F04AC080924A01B1
:1036100090924B01A0924C01B0924D01B6018F8166
:1036200098850E94340F90934F0180934E0196012C
:10363000A0E1B7E20E94F43D20911F0130912001EA
:1036400050E040E00E94B03D205F384D3093510182
:10365000209350019301A0E1B7E20E94F43D209134
:103660001F013091200150E040E00E94B03D3093B6
:103670005301209352012C853D85A0E1B7E20E94C1
:10368000F43D209126013091270150E040E00E9456
:10369000B03D30935501209354010ACF80E0A8CF6C
:1036A0008111D8CF909159019F5F90935901882340
:1036B00009F43CC130925601509257014092580192
:1036C00035C1F1E66F16710408F067C028893989A1
:1036D00029343D4008F461C085E08093250182E0F3
:1036E00080932401C70186509F4F8017910708F0EF
:1036F0003CC083E0809324010B810770832D80649C
:1037000080937C001BE021E030E03E832D83A89570
:1037100060E089813AD33B8534B935B986B18023DD
:10372000E9F724B880917A00806480937A008091D0
:103730007A0086FDFCCF8091780090917900ED8130
:10374000FE81E80FF91FFE83ED83115001F7CF01D1
:10375000880F991F880F991F69E070E00E94893DCA
:1037600070935501609354014DCBC0902601D090C9
:103770002701B701C8010E94340F9601DC010E94A5
:10378000F43DE889F9899F0150E040E00E94B03D96
:1037900030934F0120934E01AFCF88E087B988B9AD
:1037A00014B815B888E087B9F7EC6F16F1E07F061A
:1037B00008F4E4C088B92F8524B938EC3D834C81E6
:1037C0008A81482B4F839F8197B981E00E94930E95
:1037D000EA81E7B9852D0E94CB0E429728F0FD8142
:1037E000F150FD83F111EFCF2F8524B925B961E0A8
:1037F0008981CBD2852D0E94C70E6C013F8934B9D7
:1038000015B84C8147B98B8188B960E08981BDD2F8
:10381000842D0E94C70E0E942F0F9E838D839E854C
:1038200094B9842D0E94CB0E8C01852D0E94C70E69
:10383000B8010E94340F8C01842D0E94CB0E7C01B4
:10384000852D0E94C70EB7010E94340F98012C5E8F
:103850003F4F2817390708F469C088E088B9EA8122
:10386000E7B924B825B861E089818FD2842D0E9400
:10387000CB0E7C01852D0E94C70EB7010E94340F2C
:103880007C010817190708F060C0FF85F4B9F5B985
:10389000852D0E94C70E9C01CD82DE8288EEE8163F
:1038A00083E0F80608F063C0C70164E670E00E9498
:1038B000893DC701875991098938914108F05EC057
:1038C0002E153F0508F05AC08D819E8143E09695E4
:1038D00087954A95E1F7893C910510F088EC90E0D6
:1038E0002D813E81820F931F8E159F0508F046C0E3
:1038F0006217730708F042C080912501833018F4E5
:1039000083E08093250120912301822F90E0FC0128
:10391000EB56FE4F50824682880F991FFC01EF55EF
:10392000FE4FF182E0822F5F2093230188E087B968
:1039300088B914B815B88EE20E94220A6996E2E1AD
:103940000C94F53E6B2C79842BCF2F8924B915B8B4
:103950003C8137B94B8148B960E0898116D2842D0A
:103960000E94C70E0E942F0F9C01780197CFB701CC
:1039700054E0769567955A95E1F79BCF642D852D98
:1039800001D0D4CFB0E0A0E0E8ECFCE10C94DB3E49
:10399000C82FD62FA895862F90E0FC01E35AFD4F43
:1039A0005490339624914C2F50E0FA01E35AFD4F86
:1039B0001491339604916091730130915901630F12
:1039C0007727771F672B09F05AC0A89560912901C6
:1039D00070912A01660F771F660F771F70933B0166
:1039E00060933A016091780170917901660F771FB9
:1039F000660F771F70933901609338013EEB309367
:103A0000360160912301E5E9F1E030E0840F951F74
:103A100063133AC088E088B9286027B914B915B98A
:103A2000B8E1BB2ED12CC12C8D2F0E94C70E782E51
:103A3000692E8C2F0E94CB0E7C018C199D0997FF5B
:103A400003C091958195910903970CF45AC1A895EB
:103A5000BA946701B110E8CF8091290190912A01B1
:103A600090933B0180933A01809178019091790184
:103A7000909339018093380189E180933601CDB765
:103A8000DEB7E0E10C94F73E51914581450F552793
:103A9000551F4817590701F33F5FBACF25E8C216F3
:103AA00021E0D206C8F6043AE2E01E0708F0B5C0ED
:103AB000F8E9AF16B10480F2C6010E942F0FAC01E5
:103AC0009601A8E9B7EB0E94F43D9A0150E040E06E
:103AD0000E94B03D29013A01C5010E942F0F9C01AF
:103AE000A8E9B7EB0E94F43D950150E040E00E9448
:103AF000B03D88E7C8168FE0D80608F072C0F2E043
:103B0000440C551C661C771CFA95D1F7C301B20111
:103B1000620F731F841F951F25E030E040E050E0E6
:103B20000E94B03DA4E6B0E00E94093E6B017C011A
:103B3000FCEACF0EFDE0DF1EE11CF11C1091250117
:103B4000143008F089CFC1500C2F0D0F802F90E05A
:103B5000EC01C25ADE4F2881880F991F880F991FE8
:103B600082559E4FFC01222309F4C4C080809180BD
:103B7000A280B380A7019601281939094A095B0977
:103B800057FF07C050954095309521953F4F4F4FB7
:103B90005F4FAAE0B0E00E94093EF4E68F0E911C50
:103BA000A11CB11CA50194012C0D3D1D4E1D5F1DD6
:103BB0000E94B03D232B242B252B09F04DCF133031
:103BC00019F081E08093250182E0888380917A0159
:103BD000E82FF0E0EF59FE4F00838F5F80937A016A
:103BE0003BCFE8E7AE16EFE0BE0670F4E2E0220F4E
:103BF000331F441F551FEA95D1F7CA01B901640D5F
:103C0000751D861D971D88CF240D351D461D571D1A
:103C1000569547953795279585CFC0902601D0902A
:103C20002701672D762DE616F70608F4B701C701C0
:103C30000E94340F9601DC010E94F43D2B013C01EF
:103C4000C7010E942F0F9C0150E040E0C301B20168
:103C50000E94B03D29013A01A0901F01B0902001BF
:103C6000892D982D8017910708F4C801B8010E948A
:103C7000340F9501DC010E94F43D980150E040E0D2
:103C80000E94B03D88E7E8168FE0F806B0F462E0E5
:103C9000440C551C661C771C6A95D1F7C301B20110
:103CA000620F731F841F951F25E030E040E050E055
:103CB0000E94B03D69017A0141CF0837EFE01E074D
:103CC00070F4CA01B90152E0660F771F881F991F6F
:103CD0005A95D1F7640D751D861D971DE5CF7301AB
:103CE0006201C20ED31EE41EF51EF694E794D7942B
:103CF000C79424CFC082D182E282F38281E088839C
:103D0000ABCE110F15B814B98C2F0E94C70E813598
:103D1000910508F0A1CE15B98C2F0E94C70E6C0139
:103D2000802F886087B908B915B854B8A8E14A2E21
:103D3000B12CA12C8C2F0E94C70E982E892E8D2F6E
:103D40000E94CB0E8C018A199B0997FF03C09195A5
:103D500081959109039734F0A8954A945801411030
:103D6000E9CF7ACE550C54B88D2F0E94C70E5C0156
:103D7000F0ECEF16F4E4FF0608F490CE80EBC816E2
:103D80008DE4D80608F068CE8ECECF93C82FC095AC
:103D900095B160FF10C0982B95B994B1892B84B967
:103DA00082E00E94930E84B18C2384B985B18C2368
:103DB00085B9CF9108959C23EFCFB0E0A0E0E3EE6A
:103DC000FEE10C94E13E1AE008E08FE3C82E99E092
:103DD000D92E07B908B915B8C4B880E00E94C70E3B
:103DE0007C0181E00E94CB0EEC0182E00E94CB0EB0
:103DF0009C01809125018930A1F488E087B914B82D
:103E0000F0920601E0920501D0930801C0930701EA
:103E100030930A0120930901CDB7DEB7EAE00C9494
:103E2000FD3E84E0E816F10448F4C430D10560F4A6
:103E30002430310510F399E092600AC098E088EED2
:103E4000E81683E0F80608F499E0C83ED340A0F3F2
:103E5000283E334008F4946097B9D0E0C0E0A895BC
:103E600080E00E94BF0E5C0181E00E94CB0E7C01CD
:103E700082E00E94CB0E24E1A21625E0B20608F4EF
:103E8000389A24E1E21625E0F20608F4399A8431E2
:103E900025E0920708F43A9A26E0A216B10430F41D
:103EA00026E0E216F10410F4069738F02196C43F9C
:103EB00081E0D807A1F6D0922501F12CE12CEC1677
:103EC000FD0621F4115009F084CFA6CF0E94820E86
:103ED0002FEFE21AF20AF3CFCF92DF92EF92FF9226
:103EE000CF9320917F0130918001409181015091C9
:103EF0008201C09191018AE0C82ED12CE12CF12CD5
:103F00008C2FCF5F213A96E8390791E04907510598
:103F1000E0F480939101A0913A01B0913B010E949D
:103F2000093E28E833E140E050E00E94B03D209394
:103F30007F01309380014093810150938201CF91A2
:103F4000FF90EF90DF90CF900895CA01B901A701CB
:103F500096010E94B03DD4CFB0E0A0E0E2EBFFE1DB
:103F60000C94DF3EC82F062F880F8C0F9FEF960F03
:103F7000890F80935B01EC2FF0E0E35AFD4F149121
:103F8000862F90E0FC01E35AFD4FF490FC01E05ACB
:103F9000FD4FD491809125018130C1F12091230101
:103FA000E5E9F1E090E080E08217A8F1D860109296
:103FB0008C0110928B0181EF8093910110927F010F
:103FC000109280011092810110928201F6DE88E049
:103FD00088B9D7B9F4B8F5B88C2F0E94CB0E5C0124
:103FE000802F0E94CB0EA81AB90A14B810925D0156
:103FF00010925C0180915C0190915D01843F914041
:10400000F0F088E087B988B914B815B8CDB7DEB735
:10401000ECE00C94FB3E368130130EC030813C1333
:104020000BC0DC01AA0FBB1FAB56BE4F1C964D91B7
:104030005C914C3D554050F301963196B5CF15B982
:1040400014B90E947C0E14B815B80E94830EA8956E
:104050008C2F0E94CB0E7C01EA18FB0880915C013A
:1040600090915D018E37910520F08BE4E816F10404
:1040700044F280915C0190915D012DE2E21621E015
:10408000F2060CF023C2019690935D0180935C01CF
:10409000B1CF0E947D0E8C2F0E94CB0E8A199B09F6
:1040A000A8952FEFC21AD20A20915C0130915D01D0
:1040B0002C153D0570F75701A81AB90A1A141B04EC
:1040C0000CF0ADC039ECA316B1040CF09ACF28EE79
:1040D00033E0D5010E94033E97010F2C000C440BE6
:1040E000550B0E94B03D690180915C0190915D018A
:1040F0000196B0E0A0E08093870190938801A0939F
:104100008901B0938A01C7018A0D9B1D33D220918A
:104110008701309188014091890150918A01DC0129
:104120000E94093E60938701709388018093890102
:1041300090938A0160937F01709380018093810145
:104140009093820187EF80939101C6DE80907F017A
:1041500090908001A0908101B090820185E293E06F
:104160000E946C3FA8EEB3E0A81BB10987FDB39590
:10417000A50194010E94133E24E630E040E050E0A7
:104180000E94B03D20937F013093800140938101D4
:104190005093820180912301882329F08091250189
:1041A000853009F02ECF88E0809325018091910120
:1041B000909192019817C4F0891323CF80907F01CA
:1041C00090908001A0908101B09082014091830184
:1041D00050918401609185017091860148155905BF
:1041E0006A057B0508F00DCF40917F015091800159
:1041F0006091810170918201409383015093840109
:10420000609385017093860180939201D0928E0114
:10421000C0928D0100938F01C0939001F2CED12CFA
:10422000C12C62CFCADD15B88FE087B988E088B9A4
:10423000F12EFF0CF4B880E480937B0084E580BF0E
:104240008C2F806480937C0086E180937A000E94AA
:10425000860E10925D0110925C0110928000109207
:1042600085001092840087E286BB81E280936F0014
:1042700081E080937C01F5B89091250180938100C5
:10428000953009F005C181E090E00C2E01C0880F47
:104290000A94EAF780958F7087B9F89483B7817F85
:1042A00083BF80917C01882389F083B7816083BFBD
:1042B0007894889583B78E7F83BFF894A895809172
:1042C0005C0190915D018034964059F7789410928A
:1042D0008100E0908600F090870010926F0086E9E0
:1042E00080937A0014B815B88C2F0E94CB0E2091C1
:1042F0003E0130913F01821B930B0C9690939401E9
:104300008093930180915C0190915D018032934094
:1043100008F077CE80915C0190915D0190938A01C5
:1043200080938901F0928801E092870184EF809365
:10433000910180915C0190915D0182349105C8F0FA
:1043400060918701709188018091890190918A0123
:1043500024E630E040E050E00E94B03D2093870129
:10436000309388014093890150938A0186EF8093AE
:104370009101A0917D01B0917E0120918701309142
:1043800088014091890150918A010E94093E20E2F2
:1043900033E040E050E00E94B03D2093870130932D
:1043A00088014093890150938A0120937F013093C3
:1043B000800140938101509382018EDD80919101B3
:1043C000843F09F054C0C0907F01D0908001E090FC
:1043D0008101F090820180EAC8168FE0D806E104DE
:1043E000F104C0F4A70196012C543F4F4F4F5F4F8B
:1043F00060EA7FE080E090E00E94B03DC20ED31EF4
:10440000E41EF51EC0927F01D0928001E0928101EE
:10441000F0928201C0907F01D0908001E0908101F4
:10442000F0908201C114D10421E0E206F10490F57C
:10443000D092BF01C092BE0180915B0190E08E5B83
:104440009C4F0E946C3F90E0B0E0A0E08C159D0571
:10445000AE05BF0530F5C81AD90AEA0AFB0AC092B0
:104460007F01D0928001E0928101F092820114B923
:1044700080917F0190918001A0918101B091820192
:104480004997A105B10508F4BCCDD12CC12C82CE31
:10449000D7B903CF81E090E09093BF018093BE0134
:1044A000CBCF34E1C30ED11CE11CF11CC816D906D8
:1044B000EA06FB0610F40E94E11410927F011092AC
:1044C00080011092810110928201D1CF892B31F4A9
:1044D00085E1E81685E0F8060CF0A4CEC701D12CE2
:1044E000C12CE2CD1F920F920FB60F9211248F9321
:1044F0009F93B59904C080917C01811109C0B59B3F
:1045000010C080918600909187008A3F910548F401
:1045100080915C0190915D01019690935D01809383
:104520005C019F918F910F900FBE0F901F90189577
:104530001F920F920FB60F9211248F939F93109298
:104540007C01B09B10C080918600909187008A3FCB
:10455000910548F480915C0190915D0101969093E2
:104560005D0180935C019F918F910F900FBE0F9022
:104570001F9018950F9221E08C32920710F48CE274
:1045800091E08C52914069E170E00E94893D99E18F
:104590006B3210F0982F6BE2981BE7ECF2E0E60F1D
:1045A000F11DE60FF11D9F93CF010E946C3F482F34
:1045B0003196CF010E946C3F582F3196CF010E9457
:1045C0006C3F282F3196CF010E946C3F382F6F919E
:1045D000421B530B649FC001659F900D11240C96E4
:1045E00069E170E00E94893D620F731FCB010F905B
:1045F0000895B0E0A0E0EFEFF2E20C94DF3E88E82F
:1046000093E190932A018093290190933B01809339
:104610003A018EEB80933601C8E0C8B988E187B9CA
:104620000E948B0EC7B984E00E94C70EAC018B5C60
:104630009840833F9140A0F481E080934501209110
:104640003A0130913B01AFEBB9E00E94F43D9A0191
:1046500050E040E00E94B03D30932A0120932901B0
:104660008091290190912A0190933B0180933A0116
:104670008EE00E94CB0E8EE00E94C70E90933F0109
:1046800080933E010E94171098DB88E0F82EF8B85E
:10469000C9E0C7B985E185B9D1E0D4B980E00E940D
:1046A000C70E8C019AE0D92ED7B824E0B22EB4B848
:1046B00081E00E94C70E080F191F3CE0E32EE7B807
:1046C00040E1C42EC4B882E00E94C70E080F191F33
:1046D00015B8C8B9C7B9D4B980E00E94C70E0E9406
:1046E0002F0FEC01D8B8D7B8B4B881E00E94C70E3C
:1046F0000E942F0FC80FD91FE8B8E7B8C4B882E0EE
:104700000E94C70E0E942F0FC80FD91FF7B8F8B824
:1047100014B880913A0190913B016C01CC0CDD1CE6
:10472000C80ED91EC01AD10ACC1ADD0AF12CE12C10
:104730009801A0E9BAE10E94F43DA70196010E9408
:10474000B03D49015A0130934401209343019E0139
:10475000A0E9BAE10E94F43DA70196010E94B03D94
:1047600030933D0120933C012057354E3093270173
:104770002093260180E7881A85EE980A90922001FE
:1047800080921F0189E180933601CDB7DEB7ECE05E
:104790000C94FB3ECF92DF92EF92FF920F93CF9358
:1047A000DF93F82ED62FC42F0E94730A88E191E080
:1047B0000E94CF0AFED16D2F8F2D0E94BB35C09075
:1047C000C201D090C301E090C401F090C501809176
:1047D000020187FD05C0C114D104E104F10421F0F8
:1047E00084E191E00E94CF0A8D2F0E94730AC114C8
:1047F000D104E104F10409F474C00E94760A8091A6
:1048000061010E948B0BCC2309F467C080914601A3
:104810008D3030F48650990B845B9C4F0E94CF0AF8
:1048200080E00E94A30ACD28CE28CF2809F45EC0DC
:104830006091C2017091C3018091C4019091C50142
:1048400003E028E447EF0E94130C87E291E00E9406
:10485000CF0A87E593E00E94743F23E046E464EFCB
:104860000E94F50C8091BA019091BB01A091BC010E
:10487000B091BD01892B8A2B8B2B01F180E00E9426
:10488000A30A6091BA017091BB018091BC01909123
:10489000BD0104E028E440E00E94130C82E291E0B4
:1048A0000E94CF0A23E040E26FEF8091C001909117
:1048B000C1010E94F50C0E94820A07C080E00E949C
:1048C000880A809149018823B1F3DF91CF910F913C
:1048D000FF90EF90DF90CF90089580E00E94A30AB0
:1048E000A7CFC11193CF80E00E94A30A80916101FC
:1048F0000E948B0B809102018E3F0CF0B3CF8FE3AF
:1049000091E00E94CF0A60910B0170910C0180919F
:104910000D0190910E0103E028E4409102010E94F4
:10492000130CA0CFEF92FF920F931F93CF93DF93BF
:10493000182F0E94090980918F010E94730A8BE54C
:1049400091E00E94CF0A1BD560918F018091900168
:104950006ED3EC0190938C0180938B01E0908D01DC
:10496000F0908E01CA3F8FEFD80720F489E191E0E3
:104970000E94CF0A809190010E94730A112309F4CA
:1049800045C0909146018DE0891B0E94790A89E714
:1049900090E00E94CF0A0E943309609183017091D8
:1049A0008401809185019091860104E026E4409184
:1049B00092010E94130CCA3FDF4F68F48AE491E031
:1049C0000E94CF0A22E044E06EEF80918B0190912B
:1049D0008C010E94F50C0E94820A0E943B09E1149E
:1049E000F10469F083E491E00E94CF0A22E045E2FD
:1049F0006FEF80918D0190918E010E94F50C0E94C5
:104A0000820ACDB7DEB7E6E00C94013F0E94820A2D
:104A1000C2CF8F7021F40E9443090C943C15089575
:104A20008F3021F490914001913011F08F5F089503
:104A300080E00895CF9384E890E00E946330C0E066
:104A40000E94BA1060E082E00E94C21C62E080E036
:104A50000E94C21C0E94090980917A018823C9F032
:104A600041E062E080E096DE8C2FD3DF88EE93E0B9
:104A70000E94870F811109C080911E01843028F4A3
:104A80008C2FCEDFC82F8A3FD8F20E941009CF9119
:104A9000089584E890E00E94CF0A80E593E00E94A8
:104AA000CF0A0E9433098FE30E94220A80E00E940D
:104AB000880A0E94820AD8CF0F931F93CF93DF9367
:104AC000C0E0D8E012EF0DE00E94BA1060E082E092
:104AD00043DAD093250180919101843FE1F48091E4
:104AE0007F0190918001A0918101B0918201843673
:104AF0009105A105B10578F440E060E082E00E94F4
:104B0000433360937F017093800180938101909380
:104B100082011093910180919101823F6CF1809309
:104B2000920180917F0190918001A0918101B091CB
:104B300082018093830190938401A0938501B093B7
:104B4000860181E0EFDE8C2F64DF88EE93E00E9427
:104B5000870F81110AC080911E01843030F48C2FA0
:104B60005FDFC82F8A3F08F4AFCF0E941009DF91A2
:104B7000CF911F910F9108950E9409098DE790E050
:104B80000E94CF0A80914601902F981B892F0E9486
:104B9000790A89E790E00E94CF0A0E9433098FE3E7
:104BA0000E94220A0E94820A0E943B090E94820AF5
:104BB000CACFA6E1B0E0EFEDF5E20C94D93E82E079
:104BC0008093020180912501813009F0F0C180912C
:104BD0007A01813009F0EBC14090610124E0429EEE
:104BE000F0011124E255FE4F80819181A281B381B1
:104BF000893032E59307A105B10508F0D8C11C0141
:104C0000712C81E0871508F4D6C1842D0E94810B98
:104C1000982E892EE82DF0E0E05AFD4F5490892D12
:104C200090E0FC01E35AFD4FE49115B828E028B963
:104C3000372D3170632E20EF2216310408F0C0C1E9
:104C40003111BEC100911F011091200100591A417C
:104C500021E030E0092C02C0220F331F0A94E2F752
:104C6000C9018860852987B934E1398B892D0E9473
:104C7000C30E5C01882D0E94CB0E24E0A216B10465
:104C800010F4049728F039893150398B3111EECF67
:104C900080E480937B0094E590BF892D80648093AD
:104CA0007C0026E120937A00F12CE12C1092800008
:104CB000109285001092840087E286BB0E94860EC7
:104CC000872D90E09A8B898B611083C181E8809356
:104CD000810058B886B385FD0CC080FFFBCF21E072
:104CE00026BBA89597012F5F3F4F790120353105ED
:104CF00089F738E038B91092810090E296BB209194
:104D000086003091870069014091840050918500B0
:104D10002417350738F480FF05C021E026BB3FEF9C
:104D2000E31AF30A86E980937A00B4E15B2E892DB9
:104D30000E94C30E5C01882D0E94CB0E24E0A216B7
:104D4000B10410F4049718F05A945110F0CF8090E9
:104D5000430190904401820C931C800E911E20917F
:104D600021013091220100398AE1180708F03AC187
:104D700069E191EEC916D104E104F10430F4C601F1
:104D800065E070E00E94893D645128523109261B7C
:104D9000310967FD339566E0862F90E0B0E0A0E032
:104DA0008C159D05AE05BF0508F025C1C81AD90AA6
:104DB000EA0AFB0A662029F082E2C80ED11CE11C37
:104DC000F11C90E5E916F10418F0C12CD12C760104
:104DD0008BE0C816D104E104F10428F091E0C91A6F
:104DE000D108E108F108B12CA12CA8EEB3E00E9493
:104DF000F43D6B8B7C8B8D8B9E8BA0913A01B09197
:104E00003B0198010E94F43DA50194010E94B03D30
:104E1000442755276B897C898D899E890E94B03DE6
:104E2000C9010E946F10FC01A5019401C701B601E0
:104E30000E946E3D4B015C01BF0190E080E0E3E029
:104E4000660F771F881F991FEA95D1F76B5F7F4F19
:104E50008F4F9F4F2AE030E040E050E00E94B03D8D
:104E6000C501B4010E94B03DE989FA89EE0FFF1F28
:104E7000EE0FFF1F81E090E08C0F9D1FE80FF91FE0
:104E80002083318342835383611018C09CE0C9168C
:104E9000D104E104F10490F07394E989FA89319620
:104EA000EE0FFF1FEE0FFF1F81E090E08C0F9D1FA4
:104EB000E80FF91F2083318342835383A8957394AD
:104EC00093E0971508F09DCE88E088B984E00E94B1
:104ED000930E91E00D811E812F81388549815A8181
:104EE0006B817C81401751076207730708F090E0DF
:104EF0000D851E852F85388949855A856B857C856A
:104F000082E0401751076207730708F483E024E04A
:104F1000829FD001112421E030E02C0F3D1FA20F11
:104F2000B31FE92FF0E0EE0FFF1FEE0FFF1FE20FA0
:104F3000F31F0D911D912D913C9140815181628112
:104F40007381041715072607370708F0892F34E007
:104F5000839FF001112421E030E02C0F3D1FE20F70
:104F6000F31F408151816281738140930B01509303
:104F70000C0160930D0170930E0180FD40C030EF75
:104F800023163104E0F58BEF8093020180910B0131
:104F900090910C01A0910D01B0910E01892B8A2BEB
:104FA0008B2B11F41092020188E087B914B8669631
:104FB000E2E10C94F53E842D0E94810B4C012ACE37
:104FC000E4B9852D886087B900911F0110912001F7
:104FD0004BCE58B80E948F0E90E296BB81E880932A
:104FE000810078CEC40160EB76E30E94893D695F61
:104FF000285D3F4FD1CEC12CD12C7601DBCE8CEF7A
:1050000080930201CB01BA016B5F7F4F8F4F9F4F9F
:105010002AE030E040E050E00E94B03D20930B01D8
:1050200030930C0140930D0150930E01AFCFAEE1D0
:10503000B0E0EDE1F8E20C94D93E662EB82E860F72
:10504000898320912501283059F5209183013091E1
:105050008401409185015091860157FD15C0109142
:10506000920109C0CA01B9012AE0312D412D512D0B
:105070000E94B03D1F5F173FACF391F4243160E014
:1050800036074105510518F48FEF9FEF45C1173FD3
:1050900039F480E028178DE738074105410510F005
:1050A00020E03DE72C8B3D8B26EDA22EE0E6F2E0E2
:1050B000E60DF11D859188608E87E0E6F2E0EB0D4C
:1050C000F11D859188608F87EDE5F2E0E60DF11D19
:1050D0007590EDE5F2E0EB0DF11DC59090EC692ABD
:1050E000B92A81E0E82EF12C012D112D8E831F822B
:1050F000188619861A861B861C861D86188E198EA0
:105100001B8E1A8E0E94DD1E88E088B960927C009A
:105110000E94870E3F8537B975B874B852E05A952A
:10512000F1F70000000014B815B8DD243E8537B94A
:1051300075B874B860927C00A895A0927A008091AE
:105140007A0086FDFCCF2090780030907900B092F4
:105150007C004C2DE5D02091780030917900288B8F
:10516000398B3F8537B9C5B8C4B8A895B0927C00D3
:10517000A0927A0080917A0086FDFCCF6091780041
:105180007091790060927C00472DCAD040917800E0
:105190005091790014B8CB01820D931DE80EF91ED1
:1051A000011D111DEA82FB820C831D838889998968
:1051B000840F951F2E813F8168857985280F391FBF
:1051C000611D711D2E833F836887798722E3241731
:1051D000150650F075B874B80E94910E14B815B841
:1051E000888D8395888F07C0483E73E0570718F075
:1051F0008A8D83958A8F888999892817190660F086
:105200003E8537B9C5B8C4B80E94910E14B815B818
:10521000898D8395898F07C0883E73E0970718F0C2
:105220008B8D83958B8FD3945D2D5F3F49F05F37D6
:1052300031F45C2D550FC50E572D550F750E76CFD9
:105240004090430150904401440C551C9201E4E00D
:10525000240D351DEA95E1F72901570168016E809B
:105260007F8088849984209125012830C1F46C893D
:105270007D89812D912D65507040804090409B012B
:10528000AC010E946E3D9B01AC0160E779E786E1CD
:1052900090E00E94B03D621A730A840A950AA6142F
:1052A000B704C804D90428F46A187B088C089D0840
:1052B00003C0662477244301B20180E090E09301AB
:1052C000A4010E946E3D9501A6010E94B03D81E2BD
:1052D00093E07981870F911D0E946C3F682EC90170
:1052E00060E170E00E94893D260F371FC9016816F2
:1052F000190618F4861991090FC08C5E9F4F861508
:10530000910540F48C899D89843981E1980710F0DA
:105310000E94E114812D912D6E96E2E10C94F53EF0
:10532000109281001092800010926F0010928B00FA
:1053300010928A0057E056BB5FEF50938500509360
:10534000840055E050937B0056EB50937A0051E077
:105350005093810058E25A95F1F7000045B944B9DD
:1053600055E05A95F1F7000014B815B81092810075
:1053700080917A0084FFFCCF80937A000895B0E09A
:10538000A0E0E5ECF9E20C94DB3E00918D01109178
:105390008E010115110509F091C0E0918F01F0E037
:1053A000E05AFD4FD491D860E0919001F0E0E35ACB
:1053B000FD4FC4910E94DD1E88E088B915B8D7B9A9
:1053C000C4B9809190010E94CB0E7C01D0919201D2
:1053D0008CE08D0F843008F071C080918301909132
:1053E0008401A0918501B0918601D15F2AE0422E0F
:1053F000512C612C712CBC01CD016B5F7F4F8F4F05
:105400009F4FA30192010E94B03D49015A01DA0168
:10541000C901DF5FD73079F7893823E19207A10509
:10542000B10508F04BC0059708F448C0C5B9C4B928
:10543000D0E0C0E0C815D90508F445C014B815B8C7
:10544000A89585E080933601809190010E94CB0E53
:10545000EC01CE19DF09E816F90610F0D0E0C0E043
:10546000D12CC12CC814D90490F1809190010E94D4
:10547000CB0E29E120933601A895E816F90618F419
:105480008C010E191F090C171D0788F49E01201BA3
:10549000310B69F0A4EFB1E00E94F43D9E0150E0B1
:1054A00040E00E94B03D30938E0120938D010E9418
:1054B000DD1E88E087B988B914B815B8CDB7DEB756
:1054C000E0E10C94F73E0E948D0E2296B3CF0E942D
:1054D0008D0E8FEFC81AD80AC5CFA7E0B0E0E3E77A
:1054E000FAE20C94D93E8EEB91E0EDD560EF6B8340
:1054F00054980E94820E14BC16BC10921201109295
:105500001301109214011092150181E085BB809364
:105510006E0010928000E3E1FAE7F0938B00E093D5
:105520008A0081E090E09093890080938800109237
:1055300085001092840083B5816083BD96E096BBA0
:1055400090936F007894E4E0E0938100F2E3F983B4
:105550001A820E947B0EA8954F9902C061E06A836F
:1055600085B5882329F08981815089838111F1CF04
:1055700015BC86B5809312010E943B090E94820AE5
:105580000E9443090E94820A0E94AF0A86E60E9496
:10559000220A0E94B30A6091120170911301809156
:1055A00014019091150147E00E940A0D54988091D2
:1055B0008100882319F08FE30E94220A1092810053
:1055C00010926F002091120130911301409114014B
:1055D00050911501DA01C9010197A109B109813F73
:1055E0009048A105B10508F096C0AAE0B0E00E947D
:1055F000093E685F7F4F8F4F9F4F23E096958795B9
:10560000779567952A95D1F7660F771F7093750187
:105610006093740154980E94820E16BC109212017D
:10562000109213011092140110921501F1E0F5BBD4
:10563000F0936E00109277011092760164E06BBBDC
:1056400080916800846080936800789480916D00F8
:10565000806180936D0019820E947B0EA8954F99FE
:1056600002C081E08A8380916D0084FF05C099812A
:105670009F5F99839A3F81F715BC80916D008F7E63
:1056800080936D00809168008B7F8093680086B561
:10569000809312010E943B0984E50E94220A0E9425
:1056A000B30AE0917401F0917501FD83EC83609180
:1056B000120170911301809114019091150128EA53
:1056C00031E640E050E00E94193EEC81FD81612C02
:1056D000712C43015F01C12CD12CE12CF12C00E095
:1056E00010E00E946D3E49014F835E831B012C0137
:1056F0008C819D818038910520F107E023E745EFFB
:10570000B4018F81952F0E94130C99819A3F91F5D6
:105710008FE30E94220A10926E0080ED97E00E94B3
:10572000870F6A81860F49F480911E01833028F427
:105730008B8181508B838111DBCE2796E2E10C9423
:10574000F53E84E6A82EB12CC12CD12CE12CF12CF5
:1057500000E010E094014F815E81B101C2010E941E
:105760006D3EF22FE42F07E023E747EF6F2F732FF3
:105770008E2FC8CF94014F815E81B101C201263EB8
:10578000354B41055105610571058105910519F2FA
:1057900010F20E94430986E60E94220A0E94B30A80
:1057A00094014F815E81B101C20154012115FAECCF
:1057B0003F07FAE94F07FBE35F07610571058105C4
:1057C0009105F1F0E8F06A017101820120E030E01A
:1057D0004AE85DE568E775E483E691E00E946D3E86
:1057E000F22FE42F07E028E44AEF6F2F732F8E2F5C
:1057F000952F0E94130C8AE70E94220A54988BCF9F
:10580000CF80DE807101820120E030E44AE750E180
:1058100063EF7AE580E090E00E946D3EF22FE42F86
:1058200007E028E44DEFE1CF1F920F920FB60F92E1
:1058300011248F939F93AF93BF937894809112011B
:1058400090911301A0911401B09115019F5FAF4F8A
:10585000BF4F8093120190931301A0931401B09352
:105860001501BF91AF919F918F910F900FBE0F9037
:105870001F9018951F920F920FB60F9211248F93BD
:1058800086E085BD8F910F900FBE0F901F901895E9
:105890001F920F920FB60F921124A89510928100BB
:1058A00015BC0F900FBE0F901F9018951F920F926E
:1058B0000FB60F9211242F933F938F939F93809154
:1058C000760190917701892B11F481E085BD2091BB
:1058D00076013091770180917401909175012817BC
:1058E000390730F015BC80916D008F7E80936D007C
:1058F0008091760190917701019690937701809342
:1059000076019F918F913F912F910F900FBE0F9035
:105910001F9018958B3008F08B50811109C08AE2D6
:1059200092E00E94CF0A0E94820A0C940409089512
:10593000813019F48EEB91E0F4CF823019F481E0DC
:1059400092E0EFCF833019F486EF91E0EACF843014
:1059500019F48FE890E0E5CF853019F484E890E001
:10596000E0CF863019F48DE790E0DBCF873019F473
:1059700085EE91E0D6CF883019F486ED91E0D1CF55
:10598000893019F488E192E0CCCF8A3061F68DE05D
:1059900092E0C7CF0F93CF938FE890E094D3C0E00D
:1059A0001092250160E082E0A3D380912501883028
:1059B00009F050C00E94330983E40E94220A0E9429
:1059C000B30A609183017091840180918501909167
:1059D000860103E026E4409192010E94130C0E948C
:1059E000820A60918F018091900121DB90938C015C
:1059F00080938B010E943B098BE491E00E94CF0AC7
:105A000080918B0190918C018A3F2FEF9207F0F4E7
:105A100022E044E06EEF0E94F50C0E94820A8C2F77
:105A20000E94092588EE93E00E94870F81110BC028
:105A300080911E01843038F48C2F0E941025C82FCD
:105A40008A3F08F4ADCFCF910F9108958FE30E9464
:105A5000220AE3CF0E94AF0A0E943B09DECF0895DD
:105A6000A5E0B0E0E6E3FDE20C94D93E81E092E0EF
:105A70002AD380E18093800010926F0081E090E053
:105A8000909389008093880010928B0010928A0076
:105A900083E086BB1092820088E08093810015B875
:105AA00091E194B988B989E087B9229A80938100FD
:105AB000312C20E03AE0398341E04D83812C912C58
:105AC0005401839451E15C83832D90E00A966EE14A
:105AD00070E00E949D3D6B83F62E621761F00E947C
:105AE000090981E092E00E94CF0A10E01F1508F436
:105AF000DAC00E94820A8D8169810E947D3DA92FB2
:105B0000B0E0A50194010E94093E6B017C018C81EB
:105B1000823150F0652D762D872D902F0E94B03D5B
:105B2000C60ED71EE81EF91E0E9433099D812981E9
:105B3000212C921306C081E03C81323108F480E0D0
:105B4000282E2A828CE3211005C04C818EE3463139
:105B500008F082E50E94220A0E94760A4C81C70161
:105B6000B6010E940A0DC701B6017E5E85489F4FAF
:105B7000A7019601220F331F441F551F0E94B03DFD
:105B8000CA014F3F510509F008F492C08DE080939F
:105B9000810080E094E02C01712C612CCA01B901D4
:105BA000A30192010E94B03D215031093093890038
:105BB000209388008091880090918900892B31F48E
:105BC00081E090E090938900809388000E94820A8F
:105BD0000E943B0986E60E94220A0E94760A0091F2
:105BE00088001091890060E079E08DE390E0A301E6
:105BF00092010E94B03DA4E6B0E00E94093E0F5F12
:105C00001F4F980150E040E00E94B03D29013A0149
:105C1000A4E6B0E0A70196010E94093EA30192010B
:105C2000261B370B480B590BCA01B90105E228E4C2
:105C30004EEF0E94130C8AE70E94220A0E94820AF9
:105C400080ED97E00E94870F282F811151C080912D
:105C50001E01811101C0232D80911E018B30B8F4EB
:105C600080911D0187FD88C03D81830F90E03981BF
:105C7000632F70E06F5F7F4F0E949D3D8D83822F69
:105C80000E941025382E4FEE481708F056C010928B
:105C900081001092800088E087B914B82298259678
:105CA000E2E10C94F53E8EE20E94220A1F5F1ECFB5
:105CB0004034510530F08CE08093810080E091E029
:105CC0006ACF4830510530F08BE08093810080E44A
:105CD00090E061CF892B31F08AE08093810088E0E9
:105CE00090E059CF89E08093810081E090E053CF2C
:105CF000883C68F68135C8F1222029F13C81315079
:105D00003C83C501B4012AE030E040E050E00E944D
:105D1000B03D49015A01C701B6010E94B03DCA0118
:105D2000B9012AE030E040E050E00E94B03D6A83D3
:105D30004AE049832A812D83312C2B815C2C6D2CE8
:105D40007E2C0F2DC1CE5C815631E0F45F5F5C8309
:105D5000563111F485E18983AAE0B0E0A5019401F0
:105D60000E94093E4B015C01E5CF8B3018F09D810C
:105D70009F5F9D8320E070CF8F5F4981840F5D819D
:105D8000850F74CF5AE0598381E08A83812C912C4E
:105D90005401839491E19C83CDCFB0E0A0E0E3ED8A
:105DA000FEE20C94DB3E86EF91E08DD183E280939E
:105DB000800010926F008FEF90E090938B008093A3
:105DC0008A0083E086BB1092820015B881E184B915
:105DD00088E088B989E087B9229A21E030E03093E1
:105DE0008900209388008093810010E080E0D2E356
:105DF00000E094E6C92ED12CE12CF12C88248A9461
:105E000023E0922EA12CB12CD817A1F1D43608F0A2
:105E1000D4562D2F30E0AFEFB3E00E94F43D6E5C1E
:105E20007F4F8F4F9F4FA70196010E94B03D2901E0
:105E30003A0130938B0020938A000E943309A8EE28
:105E4000B3E0A30192010E94093E61507E4F8F4F43
:105E50009F4FA50194010E94B03DC90125E045E294
:105E60006FEF0E94F50C0E94820A093218F08CE351
:105E70000E94930E80E496E00E94870F082F8338DB
:105E8000A0F480911E018B3080F4C0911D01C7FDEC
:105E90001BC0CD0F0333D0F0C65F10E0812F0E94EE
:105EA0001025182F8D2F103F68F088E087B91092C9
:105EB00081001092800014B82298CDB7DEB7E0E1DF
:105EC0000C94F73EDC2FA0CFCC59E3CF002311F088
:105ED000CF5FE3CF8111E1CFE1CF0F931F93CF933A
:105EE000DF9385EE91E0EFD085E293E00E946C3F76
:105EF000C82FD0E00E9433090C2F0C2E000C110B80
:105F0000C7FF37C08DE20E94220A23E045E26FEF0F
:105F100088279927801B910B0E94F50C0E94820A0A
:105F200080E496E00E94870F811128C090911E01A5
:105F3000911126C090911E019B3088F490911D0113
:105F4000C90F882319F08932E8F0CF5FC135E4F03A
:105F5000C5568D2F0E941025D82F803F58F26C2FE8
:105F600085E293E00E94793FDF91CF911F910F91DD
:105F7000089523E045E26FEFC801CECF823878F76D
:105F8000D0E0D8CFC150E2CFCC3E1CF7CB59E1CF07
:105F9000813019F480E0A1CA0895823011F460CDF7
:105FA0000895833011F4F9CE0895843011F4F2CCC1
:105FB0000895853019F40C941A250895863029F433
:105FC0000E9410090C945C250895873011F485CF48
:105FD0000895883021F481E10C94371108958930B7
:105FE00011F4C5C108958A3011F40C94DD100895A0
:105FF000FF920F931F93CF93DF9385E392E063D0DB
:10600000D0E0C0E01AE01C0F00E0FF24F394F00E93
:1060100060E08F2D880F0E94D608013009F048C03B
:106020008EE30E94220A85EF810F1B3008F4812F36
:1060300071DC1F5F0F2D033041F780E49FE10E9468
:10604000870F8111D0E090914001913009F4D0E0A8
:10605000823330F490917B01992371F0882361F0B1
:10606000CC23D9F08C2F94DF10921E0110921D01C9
:1060700085E392E028D080E090911E019A3068F488
:1060800090911D01992319F097FD15C0D0E0C90F1B
:10609000811117C0DF5FDE3631F480E0CDB7DEB7A7
:1060A000E5E00C94023FCB3008F4ACCFCB50AACF44
:1060B0000E94760AB8CF955FC90FD1E0882399F383
:1060C000D0E0CF5FE7CFCF93DF93EC010E941009C0
:1060D000CE010E94CF0AC4E682E00E94930E4F993F
:1060E00002C0C150C9F70E943309DF91CF910895D2
:1060F000B0E0A0E0EEE7F0E30C94E23E182F062FAC
:10610000862F90E0FC01E05AFD4FE491FE2E68944A
:10611000F3F8E12FF0E0E35AFD4FC491FC01E35A9C
:10612000FD4FD49110928C0110928B0110927F013F
:1061300010928001109281011092820187EF80936A
:1061400091010E94DD1E88E088B9F7B8D4B9D5B9AD
:10615000812F0E94CB0E7C01802F0E94CB0EE81A6B
:10616000F90A14B810925D0110925C0130E020E051
:106170005CE2C52EDD24D394DAE064E6B62E80918D
:106180005C0190915D01843D904350F088E087B9B7
:1061900088B914B815B8CDB7DEB7E9E00C94FE3E67
:1061A000C5B980915C0190915D01892B91F0F60158
:1061B000E21BF30B60915C0170915D01D29FC00105
:1061C000D39F900D11240E94893DE617F70708F030
:1061D000A5C0C4B90E94860E14B880915C0190914C
:1061E0005D01019690935D0180935C0115B80E945A
:1061F000880EA895812F0E94CB0E9C012E193F0975
:1062000080915C0190915D018B31964020F02532A8
:1062100031050CF4BBCF2D3281E038070CF4AFCF41
:1062200080915C0190915D01019729F4253185E011
:1062300038070CF0ABCF80915C0190915D01880F25
:10624000991FB0E0A0E08093870190938801A0930C
:106250008901B0938A01C90168E270E00E949D3D06
:10626000CB01820F931F0E94BA22209187013091A7
:1062700088014091890150918A01DC010E94093E08
:1062800060938701709388018093890190938A01BC
:1062900060937F01709380018093810190938201CC
:1062A0000E946C1FC0907F01D0908001E09081011E
:1062B000F090820185E293E00E946C3FA8EEB3E08B
:1062C000A81BB10987FDB395A70196010E94133E53
:1062D00020E137E240E050E00E94B03D20937F0192
:1062E00030938001409381015093820188E0809334
:1062F00025012093830130938401409385015093BD
:106300008601809191018093920110928E011092EA
:106310008D0100938F011093900138CF80915C0123
:1063200090915D010B97C8F060915C0170915D01E7
:10633000B29EC001B39E900D11240E94893D6E173C
:106340007F0758F4C4B90E947B0E14B880915C0199
:1063500090915D018C599F4F45CFC4B90E94810E29
:1063600014B880915C0190915D010A963BCFCF9269
:10637000DF92FF920F931F93CF93DF930E94100938
:1063800085E091E00E94CF0A0E94330981EC90E001
:106390000E94CF0A83E293E00E946C3F23E040E238
:1063A0006EEF90E00E94F50C84E293E00E946C3F57
:1063B00023E040E26EEF90E00E94F50C82E293E071
:1063C0000E946C3F23E044E06EEF90E00E94F50CE9
:1063D0000E943B098AEB90E00E94CF0A23E044E050
:1063E0006FEF80913C0190913D010E94F50C0E945D
:1063F000430983EB90E00E94CF0A23E044E06FEF73
:1064000080914301909144010E94F50C88E99AE340
:106410000E94870F80911E018B3008F0C1C08091CF
:106420001D0187FDABCF0E9410098FEA90E00E940A
:10643000CF0A87E493E00E946C3F8251990B0E943F
:106440002A0B88E493E00E946C3F8251990B0E94D2
:106450002A0B84E493E00E946C3F23E046E464EF5F
:106460008251990B0E94F50C0E94330983E00E942F
:10647000790A83E493E00E946C3F8251990B0E9459
:106480002A0B86E493E00E946C3F8251990B0E9494
:106490002A0B82E493E00E946C3F23E046E464EF21
:1064A0008251990B0E94F50C0E943B098DE190E00E
:1064B0000E94CF0A89E493E00E94743F0E94150B6A
:1064C0000E94430986E190E00E94CF0A8BE493E0AA
:1064D0000E946C3F082E000C990B0E94150B60E087
:1064E00086E00E94D608C0E0FC2EFF0CFC0ED0E037
:1064F000FA94CD1709F446C00F2D0D0F10E0000FD0
:10650000111FC8018C5C9C4F0E94743F6C01C80134
:106510008A5D9C4F0E94743F8C018091AD01833055
:1065200008F446C088E99AE30E94870F80911E0113
:106530008B30B0F580911D018E3F0CF41FCF8E3F44
:1065400009F471CF8F3F59F20E94100987EA90E059
:106550000E94CF0A8C2F0E94730A8AE30E94220AAB
:106560008D2F0E94730A80E00E94880A23E040E297
:106570006EEFC6010E94F50C23E046E462EFC8010D
:106580000E94F50CDF5FD33009F0B3CFCF5FC3308B
:1065900009F0AACF88E99AE30E94870F0E94440D70
:1065A000DF91CF911F910F91FF90DF90CF900895D1
:1065B00080E00E94880ACACF08954F925F926F923E
:1065C0007F928F929F92AF92BF92CF92DF92EF9283
:1065D000FF92AC016C01F12CE12C56019924882426
:1065E000E52FFF279A01DA010E94F43D2C01662471
:1065F0007724920165E0369527956A95E1F7E29F49
:10660000C001E39F900DF29F900D11249A0174E058
:10661000369527957A95E1F7E20FF31FE40FF51F02
:1066200092013695279536952795B4E05694479470
:10663000BA95E1F72419350950E040E02E0F3F1FCD
:10664000411D511DBC01E3E076956795EA95E1F7A0
:10665000861B970B280F391F411D511DC701B6011D
:106660000E946E3D680D791D8A1D9B1DFF90EF9065
:10667000DF90CF90BF90AF909F908F907F906F9062
:106680005F904F900895A3E0B2E0E9E4F3E30C9447
:10669000D93ECF5FDD4F8883C150D240162FCE5FE9
:1066A000DD4F4883C250D2400E94DD1ECF5FDD4FD8
:1066B0002881C150D240E22FF0E0E35AFD4FF49020
:1066C0009F2C990CE12FF0E0E05AFD4FE491E86037
:1066D000E7B915B8F4B8822F806480937C000E94DB
:1066E000870ECE5FDD4F3881C250D2403170CD5F12
:1066F000DD4F3883C350D240CE5FDD4F8881C2501A
:10670000D2408F2C80FF892CE0E2DE2E90E080E0EA
:10671000CF2CE82C092D282D44E7BE016F5F7F4F59
:106720000E943400DA9480E490E0D110F1CF14B8E4
:106730001E0197E4290E311C73E2472E512C612C67
:10674000712CC12CD12C7601812C912C5401F1019A
:10675000819191911F01CD5FDD4FF881C350D240EF
:10676000FF2329F020E030E8281B390BC90125DF81
:106770009C0150E040E0820E931EA41EB51EC30192
:10678000B2010E946E3DC60ED71EE81EF91E3FEFF5
:10679000431A530A630A730A84E7481651046104D2
:1067A0007104A9F6C501B40121E530E040E050E0F4
:1067B0000E94B03DABEBB7E10E94093EC61AD70A72
:1067C000E80AF90AA701960164E0569547953795BE
:1067D00027956A95D1F760EE7DEC81EC9FE80E94E9
:1067E000B03D69017A01CE5FDD4F9881C250D24041
:1067F00091FD20C0CF5FDD4F8881C150D240880F0E
:10680000CF5FDD4FE881C150D2408E0F1150810F14
:1068100090E0880F991FCD5FDD4FF881C350D240C3
:10682000FF2379F08A5D9C4F0E94743FC81AD90AF1
:10683000E108F108C701B601CD5FDD4FE2E10C943C
:10684000F53E8C5C9C4FF0CF4F925F926F927F929F
:106850008F929F92AF92BF92FF920F931F93CF930D
:10686000DF93C0E0FC2EFF0CFC0ED0E0FA94CD17B5
:1068700009F43EC042E06D2F8C2F05DF2B0143E071
:106880006D2F8C2F00DF4B010E94100987EA90E0EA
:106890000E94CF0A0E94760A8C2F0E94730A8AE314
:1068A0000E94220A8D2F0E94730A0E94760A0E947B
:1068B000330924E040E26EEFC2010E94F50C24E0AF
:1068C00046E462EFC4010E94F50C0F2D0D0F10E09D
:1068D000000F111FB201C8018C5C9C4F0E94873FC2
:1068E000B401C8018A5D9C4F0E94873F0E94820AC2
:1068F000DF5FD33009F0BBCFCF5FC33009F0B2CF39
:106900000E94090985EB91E00E94CF0A0E94820A49
:1069100088E20E94930EDF91CF911F910F91FF901B
:10692000BF90AF909F908F907F906F905F904F90AF
:106930000895A2E1B0E0EFE9F4E30C94D93E2C0114
:106940007C836B83DD24D3942D2C312C33E0D39EB8
:10695000900111243E872D87F101EE0FFF1FEE0FEE
:10696000FF1FFC87EB87812C30E4932E50E0712CC5
:10697000612C18861F82B12CA12C1A8219821E82CA
:106980001D8240E0C12CF0E0E0E030E020E061E07A
:1069900070E08FEF90E082199309988B8F870C2D10
:1069A00010E08F8598890817190774F1AB81BC81B5
:1069B000AB2B29F170E060E04230E8F09501ED8109
:1069C000FE812E1B3F0BA8EEB3E00E94F43DE9814F
:1069D000FA81AE1ABF0A950150E040E00E94B03D36
:1069E00088EE93E0821B930B0E946F10BC0188EB32
:1069F0009AE70E94893DAB81BC816D937C93C40171
:106A00006296E2E10C94F53ED801A20DB31DAA0FE7
:106A1000BB1FA40DB51D8D919C91E80FF91FD801E6
:106A2000AA0FBB1FA40DB51D8D919C91280F391F76
:106A3000CD1408F48AC0D801A219B309AA0FBB1F4C
:106A4000A40DB51D0D90BC91A02D2A1B3B0BE81B7E
:106A5000F90B7901EE0EFF1EC9018E1B9F0B898772
:106A60009A87D701B695A795B695A795A80FB91F90
:106A7000B7FD76C0E217F30708F069C0513009F09E
:106A800066C0D80156E0AA0FBB1F5A95E1F7BA8B32
:106A9000A98BDC01A61BB70BBD01A817B90770F0C5
:106AA000A6E0880F991FAA95E1F780960E94893D7C
:106AB00089899A89861B970B9A8B898BAD85BE85B0
:106AC000EA16FB0608F472CF8B859C850817190718
:106AD000BCF14423B1F069897A896619770943309A
:106AE00050F0D4019096C401969587958A0F9B1F0C
:106AF00086179707D0F1D71650F4DD24D394D70E1C
:106B000023CFA989BA89B887AF83FE82ED82AE0C04
:106B1000BF1C4F5F4130F9F0842F8150990BBC01AD
:106B200095958795A989BA898A0F9B1FAF81B885EA
:106B30008A1B9B0BEED74B0169887A88FA82E9821F
:106B4000453108F033CF50E002C069877A87C3949B
:106B500069857A8524CF69887A88FA82E982F3CFB9
:106B600051E0E217F30798F78CCFEB81FC81EF2B14
:106B700009F024CF44CFA6E2B2E0E1ECF5E30C94B7
:106B8000DD3EF82ED62E87E593E00E94743F3C014F
:106B9000ED2DF0E0E35AFD4F1491EF2DF0E0E05AB7
:106BA000FD4FE4911092BA011092BB011092BC010A
:106BB0001092BD011092C1011092C0011092C20149
:106BC0001092C3011092C4011092C5018091250159
:106BD000813009F0D2C08091020118160CF4CDC0AA
:106BE00088E088B9E860E7B90E94870E2D2D206CF7
:106BF000D22E20937C000E94870EC12EE12C00E053
:106C0000212F4FEFBE016F5F7F4F80E191E00E9427
:106C100034003F2D306CF32E30937C00212F44E163
:106C2000BE0161507E4F80E191E00E943400FE0180
:106C30003196BE0161507E4F5B01AE01475D5F4FF3
:106C400081919191D5016D917D915D019F012250BE
:106C500031098617970708F495C0861B970BD90151
:106C60008D939C93E417F50759F7D0927C0070E060
:106C700060E0CE0101965DDE9F5F30E1A32EBB2474
:106C8000B394912C812C913178F040E1A42E44E012
:106C9000B42E52E0852E912C903430F090E1A92E44
:106CA000BA2C24E0822E912C88E0D82EA895C12EF3
:106CB000E12C00E0212F4FEFBE016F5F7F4FC50138
:106CC0000E9434008114910409F462C060EC71E008
:106CD000CE0101962EDE5C01813C9F4308F0B2C0DC
:106CE0006501F12CE12C9501D5017ED723E330E03D
:106CF00040E050E035D7A8E6B2E08BD73FEF831AEB
:106D0000930A76946794930150E040E029D7C40138
:106D1000880F991F04C0220F331F441F551F8A95E7
:106D2000D2F72093C2013093C3014093C401509322
:106D3000C50180910B0190910C01A0910D01B091C2
:106D40000E010397A105B10540F01092C201109207
:106D5000C3011092C4011092C501A114B10409F03D
:106D600074C01092C1011092C0011092C201109221
:106D7000C3011092C4011092C501CA5DDD4FEEE05F
:106D80000C94F93ED9011D921C926CCF5C018ECF00
:106D9000C5018064DA94D110F9CF81159440C8F010
:106DA0008EEF8F3F09F492CFE82FF0E0EE0FFF1F38
:106DB00021E030E02C0F3D1FE20FF31F20813181D5
:106DC000A3E036952795AA95E1F73183208381507A
:106DD000E8CFF0927C00E894A6F808E0F02EC12EEF
:106DE000E12C00E0212F44E1BE0161507E4FC5013E
:106DF0000E9434006894A6F8FA94F110F0CF24E1D0
:106E0000215070F2822F90E0880F991FE1E0F0E0AE
:106E1000EC0FFD1FE80FF91F408151816FEF71E00A
:106E20006C0F7D1F860F971FDC018D919C91481779
:106E3000590728F0481B590B51834083E1CF118239
:106E40001082DECFB12CA12C4BCF27E030E02819E7
:106E5000390960E072E18AE790E004C0660F771FAD
:106E6000881F991F2A95D2F7A701960179D62093FA
:106E7000BA013093BB014093BC015093BD01809196
:106E8000020187FD7ACF8FEF8093020176CFCF93F7
:106E9000DF93D82F0E94090986E090E00E94CF0A74
:106EA0000E94820AC0E01092BF011092BE0184E1EC
:106EB0000E94930E62E080E00E94AC1F0E943309A2
:106EC00024E046E464EF8091BE019091BF010E94EE
:106ED000F50C6091BE017091BF01CB018C539F40B6
:106EE00085399547A8F4CF5FC53098F087E593E0E2
:106EF0000E94873F0E94760A85EB91E00E94CF0AAC
:106F000084E60E94930E0E940909DF91CF910895B3
:106F1000C0E00E94820ADF5F31F6F5CFB0E0A0E06A
:106F2000E3E9F7E346C780E48AB98BB9D6E8D093A2
:106F30007A001092C1000E94730EC4B7C87084B763
:106F4000877F84BF0FB6F894A89580916000886110
:106F500080936000109260000FBED093640088E3BD
:106F600080937E001092B00087E08093B100789407
:106F70000E942709C111A1C580E185BF84E08093EB
:106F80001C014F9906C082E00E94930ECF5FCC3364
:106F9000C1F78FE59DE69093170180931601CF31DD
:106FA00030F080E69DE690931701809316011092D1
:106FB00037010E94F92288E19FE00FB6F894A89566
:106FC000809360000FBE90936000CC3309F461C0E1
:106FD00038E0632E40E1542E58E1452E64E6C62E7B
:106FE00061E0D62E73E3272EE1E23E2E0E941009C7
:106FF00067B80E94BA100E94F9220E9409090E94F3
:107000003C1580914501882381F00E94330980E579
:1070100091E00E94CF0A63E080913A0190913B0198
:107020000E94000D88EC0E94930E0E9433090E947A
:10703000DD1E80912501893089F50E94100985E5C2
:1070400091E00E94CF0A0E94330963E0809105011C
:10705000909106010E94000D0E94760A63E08091E3
:107060000701909108010E94000D0E94760A63E0DA
:107070008091090190910A010E94000D8AEC0E9402
:10708000930E81E10E943711C0911601D091170132
:10709000A1C10E94F82F8111FCCF9ACF85E493E023
:1070A0001BD7C82F82E493E017D7C81BC0934201B7
:1070B00080E00E9437110E94AF0A8EEB92E00E949E
:1070C000CF0A83E00E945B0E0E94040942E061E067
:1070D00080E00E94A81542E060E081E00E94A815CF
:1070E00041E062E080E00E94A81541E060E082E0BB
:1070F0000E94A81540E062E081E00E94A81540E0EF
:1071000061E082E00E94A8158091250181110EC0E6
:107110000E94DD1E60E082E00E94AC1F61E082E020
:107120000E94AC1F60E081E00E94AC1F0E94100929
:107130002AE431E0309348012093470180912501F2
:10714000863009F585EC0E94E20960E188EF0E9433
:10715000250D66E080E00E94D60885E992E00E9455
:10716000CF0A66E082E00E94D60889E691E00E949C
:10717000CF0A62E080914E0190914F010E94000D74
:107180000E94040981CF873071F484EC0E94E209E7
:1071900060E188EF0E94250D66E080E00E94D6083D
:1071A0008EE992E0DCCF8830C1F480918F0190911C
:1071B0009001890F9927991F029759F40E945C2525
:1071C00080914201882309F463C4D4E010E000E018
:1071D0004CC480E00E94922457CF833009F00CC148
:1071E00080912301813009F069C080E00E94E70BA3
:1071F0006091950180919B010E94F31480E70E94A9
:10720000BF0B40E06091950180919B013CDA609357
:107210007F0170938001809381019093820180E0CF
:107220000E94A30A60917F01709180018091810189
:107230009091820102E026E442EF0E94130C8DE25D
:107240000E94220A41E06091950180919B011BDA26
:1072500060937F01709380018093810190938201FC
:1072600026E442EF0E94130C8DE291E00E94CF0AC7
:107270000E9404090E94040980917A01882309F47C
:1072800003CF47B867B880E00E94A30A30917A0123
:10729000332309F4ABC380916101313009F042C35B
:1072A0000E94810B20916101213009F036C32091A9
:1072B0002301211132C30E941A2582CF823079F531
:1072C00082E30E94220A8DE191E00E94CF0A909110
:1072D000950130919601931308C080E00E94030C41
:1072E00081E00E94FA0B81E08ACF20919B0180917E
:1072F0009C01281307C080E00E94F30B81E00E94EC
:107300000A0CF1CF321306C081E0809311010E9474
:10731000D50BB0CF98133DC050921101F8CF8330F8
:10732000C1F52092110180919B01909196018913E2
:1073300003C021E0209311014091950130919C01FF
:10734000431302C05092110120919701821303C090
:1073500082E08093110180919D01481303C040E2B7
:107360004093110132130DC022E1209311019817AF
:1073700051F083E30E94220A8DE191E00E94CF0A3E
:10738000C6CF981302C03092110180911101823250
:1073900080F384EA92E00E94CF0A8CE892E00E9497
:1073A000CF0A0E94330980912301805D0E94220A46
:1073B0008AE20E94220A87E391E00E94CF0A82E7D4
:1073C00092E00E94CF0A0E94040986E00E94E2092E
:1073D000C0E4DFE147B84F9BFECFCE010E94870F8C
:1073E000823328F490911E01933008F40CC30E945C
:1073F000F82F8111FCCFFACD843009F059C180916A
:107400007301882309F45FC080915901882309F42E
:107410005AC060915601809158010E94AC1F809023
:107420007F0190908001A0908101B0908201C09175
:10743000910160917201809170010E94AC1F809156
:107440004A0190914B01A0914C01B0914D014091A6
:107450006401509165016091660170916701843FFC
:1074600031E09307A105B10538F4443F21E052070C
:107470006105710508F0C0EF443F51406105710599
:1074800040F4843F9140A105B10518F030EF3093EE
:107490009101809191018C1311C080917F01909195
:1074A0008001A0918101B091820188169906AA06F7
:1074B000BB0630F09CE09093240105C0C817D4F7B8
:1074C0008DE08093240180917301882361F0809185
:1074D0005901882341F04F9906C08091240191E021
:1074E00089278093240166E080E00E94D60880EC22
:1074F0000E94E209809124018C3009F0C2C085E825
:1075000091E00E94CF0A80917301882319F080E7EF
:107510000E94220A0E949510C82F853090F4A091F5
:107520004701B0914801E82FF0E0EB56FE4F1D9661
:107530009C91808160E0981362E088EA91E00E946B
:10754000090A60E189EF0E94250D86E00E94880A01
:1075500084E991E00E94CF0AE0914701F09148014F
:10756000608171818281938103E020E04EEF0E946F
:10757000130C87E00E94880A89E40E94220AE091A5
:107580004701F0914801868197818031974208F444
:107590008BC085E60E94220AE0914701F0914801E4
:1075A0008681978180519742978386830E94B30A90
:1075B000E0914701F091480122E041E46AEF8681C1
:1075C00097810E94F50C86E00E94880A8DE691E082
:1075D0000E94CF0AE0914701F091480163E0848165
:1075E00095810E94000D81E080934901E09147015F
:1075F000F091480180859185892B91F085E00E946A
:10760000A30A8FEF90E00E94CF0AE0914701F0912A
:10761000480122E041E46AEF808591850E94F50CE3
:10762000E0914701F091480182859385892B91F083
:1076300085E00E94A30A89EF90E00E94CF0AE091C2
:107640004701F091480122E041E46AEF8285938589
:107650000E94F50CC53078F480E00E94A30A8C2FBC
:107660000E94E70B89E691E00E94CF0A8C2F0E94CE
:10767000B10B0E94040943E462E485E40E94540BC8
:107680007FCDD0924801C092470183EE91E00E94E5
:107690001F0A8DE791E00E94CF0A8091590188234B
:1076A00009F438CF8EE634CF83E60E94220A7ECFDB
:1076B000853009F0EBCD66E080E00E94D60880912D
:1076C0002401C82FC07184FF62C080E50E94220A95
:1076D000D0924801C0924701C2E08DE20E94220A86
:1076E00080912401D82FDF70D43009F054C08FE985
:1076F00091E00E94CF0A83EC0E94E2098CEE91E0B7
:10770000C11165C00E949510853090F4A091470189
:10771000B0914801E82FF0E0EB56FE4F1D969C918A
:10772000808160E0981362E088EA91E00E94090A93
:1077300060E189EF0E94250D86E00E94880A809111
:10774000240185FD60C085E691E00E94CF0AE091AA
:107750004701F091480162E0828593850E94000D07
:10776000E0914701F0914801668584850E94AC1F35
:1077700086E00E94880A0E94E90A85E00E94010BC7
:10778000D43009F0C8C04FE367E48FE377CF8EE4CD
:107790000E94220AA2CF85FF1DC084E40E94220A13
:1077A000CF5FD330D9F489E991E00E94CF0A81EC10
:1077B0000E94E20989E392E0C13049F085E492E059
:1077C000C23029F085E192E0C33009F09BCF0E94DE
:1077D0001F0A98CF85E40E94220AE3CF84EA91E051
:1077E0000E94CF0A82EC0E94E20985E092E0C1305B
:1077F00071F38BE092E0C23051F3C33009F082CFD5
:1078000083EF91E0E4CFE0914701F09148018F7060
:10781000843009F44EC0668584850E94AC1F0E94A6
:10782000E90A60E084E00E94D60889E40E94220A06
:107830000E94B30AE0914701F091480122E041E43F
:107840006AEF868197810E94F50C8FE591E00E9496
:10785000CF0AE0914701F091480162E0828593856B
:107860000E94000DE0914701F091480180859185CB
:10787000803C9241E0F480E00E94A30A89E40E94E7
:10788000220A0E94B30A22E041E46BEF90E080E01C
:107890000E94F50C8FE591E00E94CF0AE09147012C
:1078A000F091480162E0808591850E94000D80E0A2
:1078B00065CF84819581892B09F4B3CF80E090E076
:1078C0000E94CF0AE0914701F091480122E041E493
:1078D0006AEF848195810E94F50CA3CF80E00E941D
:1078E000A30A8C2F0E94E70B89E691E00E94CF0A41
:1078F0008C2F0E94B10B0E940409CF5F809123015D
:10790000C81760F344E467E483E5D33009F0B6CEEA
:1079100043E467E4B2CEC0E0F1CF40E0692F0E94BB
:10792000CA23B2CB9091620124E0929FD00111242E
:10793000A255BE4F24E0829FF0011124E255FE4F74
:10794000ED90FD900D911C91408151816281738178
:10795000282F4E155F056007710708F4292F890F3E
:10796000C3E0C81B3230E1F0C091630134E0C39F33
:10797000D0011124A255BE4F84E0289FF0011124AC
:10798000E255FE4F4D915D916D917C918081918189
:10799000A281B38184179507A607B70708F0C22F05
:1079A0001C2F1695D2E0DC1B02E0C11101C001E0E2
:1079B000812F0E94730A88E191E00E94CF0A8D2FE7
:1079C0000E94730A88E191E00E94CF0A802F0E94F2
:1079D000730A80E00E94880A81E0C11180E00E9461
:1079E0008B0B82E0811B0E948B0B4ECB8CE792E0CD
:1079F0000E94CF0A0E94330989EA92E00E94CF0ACE
:107A000084EA92E0DECC8111F1CA9111E6CCD8CBA8
:107A1000FC01EA0DFB1DC491C03209F4782E0196D9
:107A200081319105A9F7DD2349F19D2F9370F92E3E
:107A300011F40E94100960E08F2D880F0E94D60873
:107A40000E940409A895DF5FD370F12CE12CE714A4
:107A500010F1CC23C9F0070D111DF801ED59FD4FB0
:107A6000E491E03211F40F5F1F4F90E080E020E1DD
:107A7000722E98012D593D4F5901CACF80E197E2EE
:107A80000E94870F882389F280E197E20E94870F86
:107A90000E94DD10ABCAF501EE0DFF1DC491CC2391
:107AA00099F3CF3F31F40E94760A2FEFE21AF20ADF
:107AB000CECF8C2F0E94220AF8CF0E94090989E6B6
:107AC00092E00E94CF0A8BEC0E94930E0E94DD1080
:107AD00090E080E0CDB7DEB7E2E187C1DB018F93B4
:107AE0009F9397D0BF91AF91A29F800D911DA39FAF
:107AF000900DB29F900D11240895991B79E004C058
:107B0000991F961708F0961B881F7A95C9F78095DC
:107B10000895AA1BBB1B51E107C0AA1FBB1FA617D4
:107B2000B70710F0A61BB70B881F991F5A95A9F726
:107B300080959095BC01CD01089597FB072E16F412
:107B4000009406D077FD08D0E4DF07FC05D03EF4B2
:107B5000909581959F4F0895709561957F4F0895F9
:107B6000A1E21A2EAA1BBB1BFD010DC0AA1FBB1F41
:107B7000EE1FFF1FA217B307E407F50720F0A21BB3
:107B8000B30BE40BF50B661F771F881F991F1A9420
:107B900069F760957095809590959B01AC01BD014A
:107BA000CF010895052E97FB16F400940FD057FDD2
:107BB00005D0D6DF07FC02D046F408C050954095AA
:107BC000309521953F4F4F4F5F4F08959095809589
:107BD000709561957F4F8F4F9F4F0895EE0FFF1F58
:107BE0000590F491E02D0994A29FB001B39FC001CC
:107BF000A39F700D811D1124911DB29F700D811DD9
:107C00001124911D0895F0DFB7FF0895821B930B97
:107C10000895EADFA59F900DB49F900DA49F800D5D
:107C2000911D11240895B7FFF4CFF3DF821B930B4E
:107C30000895E894DF93CF93FC01DB01D5DF7F93B8
:107C40006F93E9019A01AC01BF93AF933F932F93D8
:107C5000DF01CADF26F46C1B7D0B820B930B9E01A8
:107C6000EB01FC01DDD0AF91BF912F913F91D8D0B6
:107C7000BE01CF01F9012F913F91CF91DF9108957E
:107C8000689401C0E894F92FF12B0AF027C0A0E016
:107C9000B0E0ECE4FEE393C0092E05941AF479D029
:107CA000112392F4F0E80F26FFEFE094F094009592
:107CB0001095B094C094D094A194BF0ACF0ADF0A63
:107CC000EF0AFF0A0F0B1F0B13D007FC62D0CDB7D2
:107CD000DEB7ECE090C0689401C0E8948F929F9268
:107CE000CF93DF9305D0DF91CF919F908F90089530
:107CF00088249924F401E401B0E49F93AA279A15FB
:107D00008B049C04ED05FE05CF05D007A10798F470
:107D1000AD2FDC2FCF2FFE2FE92D982C892E982FF9
:107D2000872F762F652F542F432F322F2227B850BD
:107D300031F7BF9127C01B2EBF91BB27220F331FE6
:107D4000441F551F661F771F881F991F881C991C89
:107D5000EE1FFF1FCC1FDD1FAA1FBB1F8A149B0431
:107D6000EC05FD05CE05DF05A007B10748F08A1830
:107D70009B08EC09FD09CE09DF09A00BB10B2160BE
:107D80001A94E1F62EF49401AF01BE01CD01000C6E
:107D90000895609570958095909530954095509593
:107DA00021953F4F4F4F5F4F6F4F7F4F8F4F9F4FEB
:107DB00008952F923F924F925F926F927F928F928F
:107DC0009F92AF92BF92CF92DF92EF92FF920F936A
:107DD0001F93CF93DF93CDB7DEB7CA1BDB0B0FB674
:107DE000F894DEBF0FBECDBF09942A883988488831
:107DF0005F846E847D848C849B84AA84B984C884C7
:107E0000DF80EE80FD800C811B81AA81B981CE0FBD
:107E1000D11D0FB6F894DEBF0FBECDBFED010895A2
:107E2000E3DE460F571FC81FD91F08F43196089587
:107E3000BB27FA01A62F6217710581059105330B47
:107E400030FB66F0AA27660F771F881F991FAA1FAD
:107E5000A21710F0A21B63953850A9F7A05DAA33B2
:107E600008F0A95DA19336F7B111B1931082CA0150
:107E700023C04532510518F4423008F004C0FB011C
:107E80001082CB010895BB27FB015527AA27880F35
:107E9000991FAA1FA41710F0A41B83955051B9F77E
:107EA000A05DAA3308F0A95DA193009779F7B111FD
:107EB000B1931192CB0100C0DC01FC01672F7191DD
:107EC0007723E1F7329704C07C916D9370836291C0
:107ED000AE17BF07C8F30895F999FECF92BD81BDD3
:107EE000F89A992780B50895A8E1B0E042E050E003
:107EF00013C0262FF999FECF1FBA92BD81BD20BDB8
:107F00000FB6F894FA9AF99A0FBE01960895F1DF28
:107F1000272FF0CFDC01CB01FC01F999FECF06C081
:107F2000F2BDE1BDF89A319600B40D924150504037
:087F3000B8F70895F894FFCFA3
:00000001FF
