:1000000042C7000052C7000050C700004EC70000A2
:100010004CC700000C949E2748C700000C94D90DD3
:1000200044C7000042C700000C94B51F0C948227FF
:100030000C9490270C948F1F38C7000036C700001F
:1000400034C7000032C7000030C700002EC70000D0
:100050002CC700000C94DA0D28C7000026C700004A
:1000600024C7000022C70000E62FF72F903009F4C4
:100070009395E5B8C4B8B6EFB0937A00A5E0A09325
:100080007B00A8E0A093810010928000AFEFA093C6
:100090008500A0938400A6E0A093360010928B0008
:1000A00010928A00B3E0AFE3A91B51E0392F33303F
:1000B0002AF0A05CBC4F53953350F9CFB093890020
:1000C000A0938800A0917A00A4FFFCCFB6EBB09378
:1000D0007A00A2E0A0936F00A9E0A093810062E003
:1000E000A0E0A0937B00A1E0A09353008895E5B821
:1000F000C4B884FF1AC0A8E10000AA95F1F7EF93F5
:10010000FF93E7B1F8B1A4E0C2FCA2E0C0FCA1E01B
:10011000BF2FBA2BAE2BB8B904B9A7B9E7B9F8B954
:10012000FF91EF910BC00C947300ACE10000000054
:10013000AA95F1F725B9E5B8000004B9A0918400AB
:10014000A0918500B0918900A395AB1760F7A091AD
:100150007A00A4FFF3CFB6EBB0937A006A9571F7FB
:100160006091780070917900308186FD630F619312
:10017000308186FD731F80FF7193652F4A9579F753
:1001800010926F0010928100B6E0B0937A0008954B
:10019000D601CF01C8011008407E01013E01013E99
:1001A00001013E01017E404018000720080808F8C0
:1001B0000000002060A03FA06020020202FF0202B7
:1001C000021010101F000000050842818989760581
:1001D00008C2A19189860508000402FF00101005DD
:1001E00008F878385888091003081C3E7F0D080766
:1001F00010FF818181F1E1C1FF4040404743410D43
:10020000080110FFFF11080310F1E1C14743410E3F
:100210000008202121122060E0E0E0FEFE0402013F
:100220000001037F7F21C2C4C4C04094840007033F
:100230000102040E080210FEFE7F7F000000001184
:100240000005202060E0E0E00201000103C2C4C418
:10025000C0400703010204010410090A0C4E6F7428
:100260002063616C696272617465642120466F72FB
:10027000FF63616C6962726174696F6E20636C61A7
:100280006D70207468652033FF70696E7320746F21
:1002900067657468657220616E642073746172743E
:1002A000207769746820746865FF6B65792E20413A
:1002B000636B6E6F776C6564676520746865207327
:1002C000656C662D74657374207769746820746832
:1002D00065206B65792077697468696EFF32732ECB
:1002E00020446973636F6E6E6563742070696E730A
:1002F00020616674657220746865FF6D6573736153
:100300006765202269736F6C617465FF50726F625C
:100310006521222069732073686F776E2E20536FDA
:1003200066747761726520616E6420646F63756DB9
:10033000656E746174696F6E2069732061742073D7
:10034000766E3A2F2F206D696B726F636F6E7472C9
:100350006F6C6C65722E206E65742F7472616E7393
:100360006973746F72207465737465722000B903C9
:10037000870358032E030703E402C302A402880282
:100380000000140029003E0053006900800097001F
:10039000AE00C600DF00F80012012D014901650121
:1003A0008201A001BE01DE01FF01210244026802B8
:1003B0008E02B502DE020903350364039403C80309
:1003C000FE0337047304B404F90443059305EA05F6
:1003D0004906B3062907AE074808FF08DE09FD0AEB
:1003E000930C480F991B0000000000000000000063
:1003F0000000000000001E2121211200807F00006B
:10040000007E4A4A4A34000000000000FC402010F0
:1004100008040201000000010101010101010101C4
:10042000010101017F0488D0E0F0F8000000000025
:1004300000000000000000000000000000FC949498
:100440008400000102FC0000000000000000000029
:1004500000001E21212112E0C0804020100F00006A
:1004600000C020202040000000FC00009E9E0403ED
:10047000030303020000002020232425252320203D
:10048000203F00007B7B2142840480C000000000EC
:1004900000000000000000000000FC9494840004B0
:1004A0000607070708F00000000000000000000039
:1004B000000000803F2121120C00000000FF00001E
:1004C00000F0084848C80000FE0000E7818181C1B3
:1004D000E1F18181810100202020212121202020A3
:1004E0003F0000F340404041434740407FC0000090
:1004F00000000000000000000000000048949494F8
:100500006400000000FF0000000000000000000088
:100510000000000000003F2121120C0000FF00003D
:1005200000F0084848D0000000000000FEFE04046F
:100530000404040404070008080809090908087FDE
:100540003E1C08087F7F20202020202020E0000083
:1005500000000000000000000000000000004894BF
:100560009494640000FF0000000000000000000000
:1005700000FF003C0A090A3C00223129292600001C
:1005800082868E9EBEFEFEBEDEEFF6FAFEFEFAF21A
:10059000E2C28200000008080804027984A4A4686A
:1005A00000FF00000000000000000000000000004C
:1005B000000000000000000000FF0000F0282428D8
:1005C000F0001008FC000000000000000000000027
:1005D000003C0A090A3C00FF000000000000000087
:1005E00000000000000000000000040C1C3C7CFF28
:1005F0007C3C1C0C040000000000009EA1A9A99AEC
:10060000804323130B0703FF0303030303030000CB
:10061000000000000000000000788484844800FF8F
:10062000000000000000000000F00804E2110909C9
:10063000090909090909091121C2040810E000008B
:100640000001020404070000000000804020108820
:100650004423100804030000000000000000000014
:1006600000FE0100FC02010000000000000000008C
:1006700000000000000000000079494979000000F6
:1006800000000000000040F010101010F0400001C9
:1006900001010101010040FCF8F0E040FC400007CE
:1006A00003010000070040FC40E0F0F8FC400007B8
:1006B00000000103070040FCFC0000FCFC400007B8
:1006C000070000070700788482028284780006040D
:1006D00007000704060000FC000000F01000100FE7
:1006E000020402070400080808080808F84002028B
:1006F00002020202030040F8080808080808000384
:1007000002020202020240404040404040400000DD
:10071000000000000000C000008000008000010216
:1007200002010202010200800000800000C00201FC
:1007300002020102020100F8040222548800101F84
:100740001002020100000000000000000000000094
:100750000000000000000000000000000000000099
:100760000000000000000000000000000000000089
:100770000000000000000000000000000000000079
:100780000000000000000000F80402FE02000C0659
:10079000050404070C0002FE020002FE020004072A
:1007A000040404170C0002FE02F002FE020004071B
:1007B000040704170C000000E01008F808000C06FD
:1007C000050404070C00804028F82840800001023E
:1007D000141F1402010008F8080008F808000407B4
:1007E000040404170C0008F808C008F808000407FF
:1007F000040704170C00001018FCFC18100000017E
:10080000010101010100001018FC18100000000097
:10081000000100000000000000FC000000000001DA
:100820000101010100004040404050E04000000054
:100830000000010000002070A820202020000000FF
:10084000000000000000E0000000000000000101C6
:100850000101010101002070A82020A870200000E3
:1008600000000000000000C0F0FCF0C0000000002C
:100870000000000000000C3CFCFCFC3C0C000000F4
:100880000000000000000000000000000000000068
:10089000000000000000000000FE0000000000005A
:1008A000000D0000000000160E0000160E000000F3
:1008B0000000000000000010FC1010FC10000001FF
:1008C000070101070100001824FE4488000000030E
:1008D000040F040300000C12924C201008000201C7
:1008E0000006090906008C5222528C40C000010209
:1008F000040404010200000000160E0000000000C5
:100900000000000000000000F008040200000000E9
:100910000102040800000000020408F000000000CA
:100920000804020100004850E0FCE05048000201C9
:10093000000700010200404040F840404000000035
:1009400000030000000000000000000000000000A4
:1009500000160E00000040404040404040000000B3
:100960000000000000000000000000000000000087
:100970000006060000000000804020100800020170
:10098000000000000000F80402020204F800010266
:10099000040404020100000804FE02000000000438
:1009A000040704040000080402824224180004061C
:1009B00005040404060006020202122AC60001020F
:1009C000040404020100C0A09E8080FC800000009E
:1009D0000000040704003E120A0A0A12E60001029F
:1009E000040404020100F84422121224C00001028F
:1009F0000404040201000E02C262321A0E0000005A
:100A000007000000000088542222225488000102BE
:100A1000040404020100384482824224F8000002E7
:100A20000404040201000000001818000000000087
:100A3000000606000000000000181800000000007A
:100A400000160E0000000040A01008040200000084
:100A500000010204080000202020202020000001C6
:100A60000101010101000002040810A0400000087B
:100A70000402010000001804028242241800000051
:100A8000000D00000000F804D252E204F800010258
:100A900005050405040200F0080402FE0200040734
:100AA00005010507040002FE2222225488000407E3
:100AB000040404020100F804020202048E00010290
:100AC00004040402010002FE02020204F80004070A
:100AD00004040402010002FE222272020E00040736
:100AE00004040404070002FE222272020E0004071E
:100AF000040400000000F80402C24244DE000102C7
:100B000004040201070002FE222022FE0200040764
:100B1000040004070400000202FE020200000004B8
:100B20000407040400000000000202FE02000003AB
:100B300004040403000002FE62900804020004079B
:100B400004000106040002FE020000000000040789
:100B500004040404070002FE38E038FE0200040723
:100B600004000407040002FE1A6082FE020004076B
:100B7000040005070400F80402020204F800010260
:100B800004040402010002FE424242241800040749
:100B9000040000000000F80402028204F8000102D0
:100BA00004040405020402FE42C2422418000407A1
:100BB0000400010604008814222222448E0001024F
:100BC0000404040201000E0202FE02020E000004F0
:100BD00004070404000002FE020002FE02000003FB
:100BE00004040403000002FE820082FE02000000F2
:100BF00003060300000002FE02F002FE02000001F4
:100C000007030701000002DE722072DE0200040703
:100C1000040004070400027EC280C27E02000000BD
:100C20000407040000000E824222120A0600070494
:100C300004040404070000FE020202000000000792
:100C400004040400000008102040800000000000A0
:100C50000000000102000000020202FE000000008D
:100C60000404040700001008040204081000000037
:100C70000000000000000000000000000000080864
:100C80000808080808000000000E16000000000018
:100C9000000000000000904828284890E000010271
:100CA00004040402070002FE10080810E000040714
:100CB000020404020100E0100808081038000102D4
:100CC000040404020100E010080810FE0200010202
:100CD000040402070400E050484848506000010244
:100CE00004040402010020F82422020C000004077E
:100CF000040400000000E010080810F808000009D3
:100D000012120907000002FE100808F00000040794
:100D1000040004070400001016F6000000000004A0
:100D20000407040400000000101616F00000000C78
:100D30001010100F000002FEC02010081800040759
:100D400004010204040000000202FE000000000092
:100D500004040704040008F808F008F00000040781
:100D600000070007040008F8201008F0000004073E
:100D7000040004070400E01008080810E000010265
:100D800004040402010008F810080810E000101F15
:100D9000120404020100E010080810F80800010223
:100DA0000404121F100008F820100808300004077F
:100DB0000400000000001028484848903800010254
:100DC0000404040201000808FE08080000000000F6
:100DD00003040404020008F8080008F808000003EF
:100DE00004040207040008F8880088F808000000DE
:100DF00003060300000008F808C008F80800000314
:100E000006030603000008B8E040E0B80800040745
:100E100000000007040008F8080008F808000009AE
:100E20001212110F0000180888482818080006053B
:100E300004040404060040B01C020200000000018B
:100E4000070808000000000000FE0000000000008D
:100E5000001F00000000000002021CB04000000063
:100E60000808070100000C02020408080402000040
:100E7000000000000000C02010081020C000010188
:100E800001010101010011241FBECFEFD8E0DEBF38
:100E9000CDBF21E0A0E0B1E001C01D92AE3BB207A2
:100EA000E1F70E94A1320C94E139AAC85D98559AE5
:100EB00080FD599A80FF5998519A539A5A9867FD24
:100EC0005B9A67FF5B985A9A5A9866FD5B9A66FF31
:100ED0005B985A9A5A9865FD5B9A65FF5B985A9A97
:100EE0005A9864FD5B9A64FF5B985A9A5A9863FD1E
:100EF0005B9A63FF5B985A9A5A9862FD5B9A62FF0D
:100F00005B985A9A5A9861FD5B9A61FF5B985A9A6E
:100F10005A9860FD5B9A60FF5B985A9A5D9A5A985E
:100F20005B98089560933F018093040186958093B8
:100F3000A501660F660F660F60930F0108958091FB
:100F40003F01809301018091A501809303010895E1
:100F50008091030160910101880FE4CF0895CF9340
:100F6000C82F692F81E0A2DF6C2F81E09FDFCF9136
:100F70000895682F80E09ACF08958EEAFADF85EA17
:100F8000F8CF08958DE05BD48AE059C4089510929B
:100F9000A50160E080E0C6DFF5CF0895CF93DF9331
:100FA000C0E080E1E6DF80E0E4DF8C2F806BE1DFF2
:100FB000D4E860E081E07ADFD150D9F7CF5FC83064
:100FC00081F7E5DFDF91CF91089558985A985B98A3
:100FD0005D98509A529A539A559A62D45D9A559A4E
:100FE0005998519A84E163D4589A84E160D48EEA86
:100FF000C0DF82EEBEDF82EABCDF80EABADF80ECCF
:10100000B8DF8FE2B6DF84E2B4DF81E8B2DF80E2EE
:1010100093E00E94B3398F73ACDF80E4AADF84EAE7
:10102000A8DF86EAA6DFBADF8FEAA3DF60E080E010
:1010300079CF089581E08093A50160E082E072DFBE
:10104000A1CF089582E08093A50160E084E06ADF8B
:1010500099CF089583E08093A50160E086E062DF88
:1010600091CF08950895582F28E030E090E841E0AE
:1010700080E0652F642309F0892B440F9695215059
:101080003109B9F70895B0E0A0E0E9E4F8E00C9484
:101090002A396C0110E0C801860F911D8138910535
:1010A000ECF5E42FEE0DFF27FF1FCF01E134F10532
:1010B000ACF5D42FD695D695D695019733E0959576
:1010C00087953A95E1F7F22FF2704F2E21FF0DC070
:1010D000482F4D1B550BFA01E09FA001E19F500DD9
:1010E000F09F500D1124C40ED51EC82F883008F073
:1010F000C7E0862F82958F70582E689454F86F70D1
:10110000762E2170622E780151E0E51AF108CD1794
:1011100050F4809104018F70806B2BDFCDB7DEB768
:10112000E0E10C9446398D2F806B23DF852D21DF84
:10113000872D1FDF912C812C5601AE0CBF1C08158A
:10114000190531F44420B1F0C01AD10ADF5FDFCFB6
:10115000F501E819F909611003C0F601E80DF91D60
:101160008491411080DF682F81E0A0DE8FEF881A24
:10117000980AE5CFC00ED11EE9CFEF920F93482F0A
:101180008F7320E6829FC00111248A519C4F28E072
:1011900046FF28E4209310011092000147FD08C08B
:1011A0002091100130E2309300012D5E2093100158
:1011B00020E2E22E08E120E0409100016091100160
:1011C00062DF0F91EF900895EF920F93262FFC01AD
:1011D000349131964491319604913196E490E091A6
:1011E00000014E0F60911001630F04964CDF0F91C8
:1011F000EF90089560E0E8CF0895EF920F93CF93BA
:10120000C82F80913F018F5F80933F01409104017F
:10121000440F440F440F20E1C29FC001112420E17C
:10122000E22E08E020E060910F018A57994F2BDFF2
:1012300080910F01885F80930F01EFEFEC0F8C2FEF
:10124000EA30B0F4F0E0E95DF64F0C94FD38310976
:1012500035093E09460944094009400942094C093B
:101260004C098EE3ECD28CE703C08CE7E8D28CE328
:10127000E6D2A895CF910F91EF9008958CE7F2CF29
:1012800082E5F6CF8DE2F4CF85E7F2CF8FE4D7D2B7
:1012900088E6D5D28DE6ECCF8CE4EACF8F5CADCF7B
:1012A000089580E2AACF0895CF93C82F1C1614F09A
:1012B000CF910895F6DFC150F9CF90913F0180E1C1
:1012C000891BF2CF0895CF93C82FF7DF8091A50136
:1012D0008F5F8093A501843070F083E08093A50137
:1012E00081E0809342018091A5016C2F880F1ADE66
:1012F00049DECF91089510924201F5CFE4DFBAD3D1
:101300008091A501833008F03DCE089540DED5DF01
:101310003ECE08958FDED1DF8DCE08958DE36DCF63
:101320000895CF93DF93EC018991811103C0DF9180
:10133000CF91089562DFF8CFCF93DF93EC01FE01E8
:101340008491982F9F7719F058DF2196F8CFDF917D
:10135000CF910895CF93DF93EC01CE010E94B33972
:10136000982F9F7719F049DF2196F7CFDF91CF9122
:101370000895EF920F93FC0104913196E490029648
:1013800082DE0F91EF9008950F9380E991E0E2DF04
:10139000409189014D3F6CF4609177017091780123
:1013A0008091790190917A0103E026E417D10F91A1
:1013B00008958FE322DFFBCF90911D019F70923043
:1013C00071F49CDF84E790E0C5DFE0914001F0918B
:1013D000410122E044E06FEF84819581E1C10895ED
:1013E00097FF09C08F939F938DE207DF9F918F91A5
:1013F000909581959F4F65E271E04AE050E00E9430
:1014000080398FCF0895ECDF01C0EADF4ACF08951D
:10141000EF92FF920F931F93182F062FF42E82E75F
:1014200091E098DFEE24E0914001F0914101868542
:10143000E81611F4812F09C08485E81611F4802F75
:1014400004C08585E81611F48F2DD7DEE3948E2D28
:10145000833049F71F910F91FF90EF900895EF921D
:10146000FF920F931F93182F062FF42E80E046DF74
:1014700088E791E06FDFEE248E2D10DF4FDFE091E3
:101480004001F09141018685E81611F4812F09C0D1
:101490008485E81611F4802F04C08585E81611F4C0
:1014A0008F2DABDEFEDEE3948E2D833029F71F9166
:1014B0000F91FF90EF900895682F80E092E06623EF
:1014C00009F491E0623009F481E008950F93082F48
:1014D000E6EAF1E0880F880FE80FF11D6081718165
:1014E00082819381643671058105910570F42091A4
:1014F000020127FD0AC0802FDFDF692F0E942C2503
:101500006EEF23E044E04CD104C04FEF04E024E050
:1015100065D0C7DE0F910895863058F4E9E9F1E00F
:10152000E80FF11DE80FF11D8081918163E043D147
:10153000B8CE08951F93182F80917301882319F056
:10154000B0DE80E05ADE76DD89E691E003DF812FB0
:1015500082958F70E1DF812F8F70DEDF1F910895FC
:101560008091110182958F7019D080911101837043
:101570001CD080911101DECF0895EDE8F1E0E80F75
:10158000F11D0895CF93F9DF9081C681C91710F43A
:1015900005D001C013D085DECF910895EEDF8F9383
:1015A00080817CDE8F9101C008958F9387E391E065
:1015B000D1DE8F91E2DF868171CE0895DEDF8F93D9
:1015C00086816CDE8F9101C008958F9383E391E053
:1015D000C1DE8F91D2DF808161CE0895AEE0B0E0B0
:1015E000E4EFFAE00C942839142F622E702E6B0170
:1015F0007C010F7080E389838A838B838C838D8346
:101600008E83F7FE40C08DE2F8DDF094E094D09434
:10161000C094C11CD11CE11CF11C68EE862E63E055
:10162000962EA12CB12C033041F150E1852E57E2CA
:10163000952EA12CB12C043001F140EA842E46E80D
:10164000942EAA24A394B12C0530B9F030E4832E53
:1016500032E4932E3FE0A32EB12C063071F074E6F5
:10166000872E912CA12CB12C073039F420E8822E42
:1016700026E9922E28E9A22EB12C9AE0292E312CAF
:10168000412C512C12C075FEC8CF8BE2B6DDC5CF00
:10169000C701B6016B5F7F4F8F4F9F4FA201910132
:1016A0000E94BF3869017A011F5FC814D904EA0497
:1016B000FB0470F781E1810F9BEA899F812D112442
:1016C000A82EA69486E0811B899F112D11241695C2
:1016D000912F990F190F811B182F4E0187E0880E4B
:1016E000911C2AE0A401C701B6010E945F39F401F0
:1016F00001900020E9F731977F01E818F9089E2C46
:101700006701DD24812F90E004968C159D0514F46B
:10171000A3941D5F8A2D90E0845D9F4F0E94B33992
:10172000A82E74FE29C0901638F50E198E2C811A39
:10173000800E181424F08EE260DD012F0E191111B5
:1017400002C088EF882E912C10E0C00ED11EE82C2C
:10175000082C000CFF08E92DF0E0EC15FD0574F0F5
:10176000AA2011F08A2D49DD662011F0862D45DD75
:101770002E96E2E10C94443900E0D8CF3696E01B77
:10178000F10B81E090E08C0F9D1FE80FF91F808125
:1017900034DD93949E141F04F1F68EE22EDDDBCF30
:1017A0000F93362FBC0190E080E0022F242F432FAF
:1017B00015DF0F9108950F93062FBC0190E080E094
:1017C00026E54DEF0BDF0F9108950F93042F28E4CA
:1017D00040E004DF8AE711DD64DD0F910895E82F12
:1017E000F0E0EE0FFF1FE057FE4F8591949120919E
:1017F0000001420F20911001620F20E0BACD089540
:10180000CF93DF93C82FD62FE0914001F091410193
:1018100048E16EE18685E3DFE0914001F09141010E
:101820004D2F6C2F8485DBDFE0914001F091410169
:1018300040E06EE18585D3DFDF91CF9108958F93EE
:101840002F932AE080953B9A089410F4439802C0A5
:10185000439A000020D027D086952A95B1F72F9182
:101860008F91089503D002D001D000D000D003D0D2
:1018700002D001D000D000D003D002D001D000D0DF
:1018800000D0A89503D002D001D000D000D003D062
:1018900002D001D000D000D003D002D001D000D0BF
:1018A00000D003D002D001D000D00000089590E015
:1018B000893C28F0885C48EC849FC0011124009783
:1018C00009F4089520918100277019F0DADF01975B
:1018D000F6CF8130910519F002973EE303C037E15E
:1018E00080E090E02091B200230F2093B30042E00B
:1018F0004093700027E023BF889526E023BF109215
:101900007000A895DCCF8F9384E0D1DF07C08F9360
:1019100082E0CDDF03C08F9381E0C9DF8F911F93F9
:10192000182F106410937C00E12FE0788091300133
:10193000E81759F0E0933001AEDF8EE980937A002A
:1019400083E083BF889582E083BF20E030E0A90177
:10195000E0E01FC08EE980937A0083E083BF889522
:1019600082E083BF6091780070917900260F371F65
:10197000411D511DE43061F480913201803041F00D
:1019800084E02030380720F417FD02C01068CACF69
:10199000EF5F80912F01E817E8F2609133017091B9
:1019A000340117FF04C0609131017091320180E071
:1019B00090E00E947D382FEF33E040E050E00E943D
:1019C000BF38B901CA0120912F0130E040E050E05A
:1019D0000E94BF38C9011F9108959B01281B390B34
:1019E00050F0C9010895BC018091330190913401F8
:1019F0006817790718F4861B970B089580E090E02C
:101A00000895EF92FF920F931F93CF93DF93F82ED9
:101A1000E92EC5E64F9B1CC0CF2DDE2D15E500E05D
:101A2000D7FD10C082E043DF110F4F9B1F5F1F7374
:101A30001F3399F4011103C0CF2DDE2D04E00F5F99
:101A4000083C78F0802FCDB7DEB7E6E00C94503933
:101A500081E02DDFC150F1F6DFCF111102C001117D
:101A6000F1CFA8951C161D06DCF62A97C9F6CFEF14
:101A7000DFEFD6CFCF9363DAC82F8091420188235E
:101A8000D1F0813051F4C33041F46FE086E04ADA9E
:101A90008BE2B3DB6FE086E045DA80E49FE1B1DF03
:101AA000C33041F480914201813021F460E086E04E
:101AB00039DA03DC4DDACF91089589E493E00E948E
:101AC000B339382F8AE493E00E94B339209137016B
:101AD000230F30913801381F20931A0130931B01D6
:101AE00083E0283E380720F0C901885E934002C099
:101AF00080E090E062E370E00E949838683008F07F
:101B000067E0EEE6F3E0E60FF11DE60FF11D45910B
:101B100055912591359162E3681B421B530B649FDD
:101B2000C001659F900D1124499662E370E00E9408
:101B30009838620F731F70937601609375018BE480
:101B400093E00E94B339992787FD90956091370102
:101B500070913801860F971F909332018093310165
:101B600090937201809371010895CF93DF9324E1E4
:101B700030E0B9010E949838DC01E0E8F3E0E60FBC
:101B8000F71FE60FF71FC591D591459155914C1B55
:101B90005D0B4A9FC0014B9F900D5A9F900D1124E1
:101BA000B9010E9498386C0F7D1FCB01DF91CF9156
:101BB00008951895189540911C01A0914001B0918D
:101BC0004101EDE8F1E030E020E0822F2417B0F48D
:101BD00051911C969C911C97591719F0558195139A
:101BE00003C02F5F3F4FF1CF220F331FF901E7569C
:101BF000FE4F20813181293E334008F084E1089571
:101C000010921E0110921C0110926C011092520150
:101C100010921D0110923E0110927301E7E5F1E070
:101C2000108211821282E7E7F1E0108A82E0818B54
:101C30001092020117861686148215821682178268
:101C400081EF838B08958FE4FADD86E4F8DD86E486
:101C5000F6DD98D992D95E9808DE90E080E0D1CE8A
:101C600008951F93CF93DF93162F98E097B998B9F3
:101C7000E82FF0E0E95AFD4F949195B9262F281BE3
:101C8000E20FF11D27FDFA95E491E92BE4B947DE57
:101C9000EC01812F44DEAC012091330130913401FD
:101CA00036952795C9010397BE01625E7F4F86175F
:101CB000970778F4255E3F4FC217D30750F4BA0157
:101CC000625E7F4F8617970720F481E04217530723
:101CD00008F080E014B8DF91CF911F910895CF9361
:101CE00061E080E0BEDFC82F62E080E0BADFC80FAD
:101CF00062E081E0B6DF8C0FCF910895AFE0B0E0F5
:101D0000E4E8FEE00C942839B82E10921E01807F82
:101D1000B9F4E5DF833081F441D988E592E01ADB3C
:101D200089D98FE36ADA80ED97E06BDE8B30B0F40F
:101D300035D985E091E00EDB2F96E2E10C94443931
:101D400006E910E02BD987EC91E004DBC8DF833093
:101D500009F068C01F5F143008F465C06BD90E9499
:101D6000162081EC90E0F6DA60E083E293E00E94D6
:101D7000C03960E084E293E00E94C03960E082E212
:101D800093E00E94C03960E082E00E942C256C0143
:101D90009A83898361E082E00E942C257C019C83E8
:101DA0008B8360E081E00E942C258C019E838D83D3
:101DB00023E040E26EEFC601F3DC23E040E26EEF89
:101DC000C701EEDC23E044E06EEFC801E9DC2AE560
:101DD000C216D10424F084E190E09A83898369815A
:101DE00083E293E00E94C0398AE5E816F10424F00A
:101DF00084E190E09C838B836B8184E293E00E947A
:101E0000C0390A35110524F084E190E09E838D836A
:101E10006D8182E293E00E94C03982E080934201AA
:101E200029DE06C010E088E242DD015009F08ACFC9
:101E3000EB2DEF70EF87E13009F04CC0EE24E39416
:101E4000F12C78EB872E72ED972E77E4A72EB12C2C
:101E5000E2E0DE2E08E0F0E23F2EC12C1E2D50E322
:101E6000252E58DA53DA84E5C8D9C701C4DA19DA5D
:101E7000113009F0C6C184EF90E06CDA64E0809123
:101E800037019091380197DCD5D88FEE90E062DA77
:101E90008091750190917601AEDA8EEB80932F01DF
:101EA00007B908B914B815B888EE93E0AADD143064
:101EB00011F08B3020F4C39484E0C812D2CF88EEA6
:101EC00093E09FDDEFEFEE1AFE0AF8E0EF16F10463
:101ED00009F0C3CF18E703DF882341F01BDA88E459
:101EE00092E038DA84E6E3DC1150A9F757D88AEBA0
:101EF00090E030DA23E044E06FEF8091350190917B
:101F000036014EDC97D883EB90E024DA23E044E0FE
:101F10006FEF80913C0190913D0142DC82E0809323
:101F20004201A8DD10921E0139D88FEA90E012DA42
:101F300060E082E00E94C91C80907F019090800147
:101F4000A0908101B09082019C868B8661E082E046
:101F50000E94C91CC0907F01D0908001E090810157
:101F6000F0908201DE86CD8660E081E00E94C91C8F
:101F700000917F01109180011E830D8362E080E05B
:101F80000E94C91C80917F01909180019C838B836A
:101F900062E081E00E94C91C80917F0190918001E4
:101FA0009A87898761E080E00E94C91C80917F0147
:101FB000909180019A8389832F85213029F0209187
:101FC0003B01223009F001C2029698878F83C40139
:101FD0001CDAC6011ADAB801110F880B990B03E05D
:101FE00026E444EFFBDA8E010F5F1F4F9E01215F55
:101FF0003F4F7801F701819191917F010A97853BCD
:102000009105C8F42E173F07A9F742E4C42E43E018
:10201000D42EF80160810E5F1F4F6E5EC6010E94D4
:10202000C039FFEFCF1ADF0A0E151F0591F702D84E
:1020300085EB91E08FD982E0809342011BDD0E9405
:10204000392F2F85213029F080913B01823009F012
:10205000C1C00E94CE0780E021D98BE591E07AD9FA
:1020600082E01CD984E290E075D920E4F22E10E0E1
:102070003AE0832E912CA12CB12CC2DD10921E01CE
:1020800060E082E00E94C91C0091890120917701E3
:10209000309178014091790150917A01073F0CF419
:1020A00099C100938901209377013093780140937F
:1020B000790150937A01073F09F094C12056310904
:1020C00041095109203935454105510508F08AC1BA
:1020D00060918B0170918C01CB018B569F4F8B329D
:1020E000914008F07FC11F5F153008F47CC189E47E
:1020F00093E00E94CE390E94CE078DE190E02AD96C
:1021000080918B0190918C016BD9D7DC88E088B9E4
:1021100089E087B980E284B982E001DC853D9340A3
:10212000DCF714B8109232011092310182E0F7DB33
:102130007C018091710190917201909332018093A2
:10214000310182E0ECDB6C01CC0CDD1C1092320121
:102150001092310182E0E3DB4C01A0907101B0905C
:102160007201B0923201A09231010E941A0886E1F8
:1021700090E0F0D88BE493E00E94B339182FD70198
:10218000A80DB91DAC19BD0995010E94123996011F
:102190000D2C000C440B550B0E94E1381D5F120FF3
:1021A000612F8BE493E00E94C039812F012E000C37
:1021B000990B16D982DC82E0809342015BDC10929D
:1021C0003B0182E493E00E94B339682F85E493E0F9
:1021D0000E94C03989E180932F0180E00E945B3228
:1021E0000E94CE0785E091E0B5D80E941A088FE3DF
:1021F00092E0B0D810921E0182E0809342013ADC56
:102200009BCD123081F52091330130913401A8E546
:10221000BBE10E94033924EC36E340E050E00E9429
:10222000E13829013A0181E085B9F5E0F4B980E0AF
:102230006ADB841995099A83898381E184B980E0F6
:1022400062DB841995099C838B8384E085B984E1E2
:1022500084B981E058DB841995099E838D8389EDCB
:1022600090E078D833C0133049F5D5B82AE024B9C6
:1022700080E049DB20913301309134013695279578
:1022800038872F83821B930B9A83898382E284B9D8
:1022900080E039DB2F813885821B930B9C838B83F5
:1022A00005B9E8E2E4B981E02EDB2F813885821B95
:1022B000930B9E838D838BEC90E0D3CF1430B1F4DD
:1022C00088E492E047D80BDD8111A4C00E941A086F
:1022D00089819A8185D80E9451098B819C8180D8FF
:1022E0000E9451098D819E817BD8DACD153099F4F9
:1022F00015B8D4B880E007DB9A83898304B981E0FC
:1023000002DB9C838B8334B882E0FDDA9E838D836D
:102310008BEE90E0A6CF163039F5D4B8D5B880E072
:10232000F2DA2091330130913401821B930B9A83AE
:10233000898304B905B981E0E6DA2091330130914F
:102340003401821B930B9C838B8334B835B882E0B5
:10235000DADA2091330130913401821B930B9E8392
:102360008D8387EE90E07DCF173059F520913301B2
:1023700030913401A8E5BBE10E940339A501940125
:102380000E94BF3829013A01D5B8F3E0F4B980E0E2
:10239000BADA841995099A83898305B92CE024B99E
:1023A00081E0B1DA841995099C838B8335B824B810
:1023B00082E0A9DA841995099E838D8385EC90E0EB
:1023C00050CF113009F082CF6BCD98878F83109258
:1023D0003B01FDCD0F5FCA01B901A50194010E9427
:1023E000BF385CCE10E00E941A08609177017091AE
:1023F00078018091790190917A0104E026E440917E
:102400008901ECD80E945D0988E251DAFA94F11052
:1024100034CEE0CE82E0C82E59CF80913B018111AD
:102420000DC082E493E00E94B33961E0680F85E457
:1024300093E00E94C03981E080933B010895EF92C0
:10244000FF920F931F93CF93DF93D62FE82FF0E0E7
:10245000E65AFD4FE491E8B9E860E7B915B8E62F10
:10246000F0E0E95AFD4FE491E4B9CE2FCC0F88E8B3
:10247000E82E83E1F82E8D2F46DA8C01C4B98E1533
:102480009F0518F1892BE1F00E942A088BE391E067
:102490000E94AA09D80120EA36E841E050E00E94F3
:1024A000183928E937EB40E050E00E94BF38C901F5
:1024B00022E041E467EF74D988E087B988B914B89D
:1024C000CDB7DEB7E6E00C9450397801D4CF0F9346
:1024D0001F93CF93DF9385E022DA85E01CDA8C012D
:1024E000EC01CC0FDD1FCC0FDD1FCA56DF4F109261
:1024F0003901C43883E0D80770F489EA91E00E947A
:10250000AA090E945D0981E080933901DF91CF9192
:102510001F910F91089588EB91E00E94AA0962E053
:10252000CE0149D90E9451090A3F86E01807A0F45C
:102530000333164050F481EB92E00E94AA090E94F6
:102540005D098DECB4D97FDBE1CF88EB92E00E948E
:10255000AA090E945D09DACF85EB91E0F8CFFC0172
:102560009C01261B370BCA0170E060E0A901460FF1
:10257000511D452F5527620F240F351FAC01470F02
:10258000511D452F5527780FDA01AA0FBB1F8A0F5F
:102590009B1F4B3E20F4E217F30740F7089590E0AD
:1025A00080E00895A9E1B0E0E8EDF2E10C9428396B
:1025B000582E462E342EA895E62FF0E0E95AFD4F0E
:1025C00024912E87220F2F8B339634913A8BE42F50
:1025D000F0E0E95AFD4F44914983339684918F830B
:1025E000E52DF0E0E95AFD4F2490922D990F9F8739
:1025F000339624912B8328602C8338603A8345B925
:10260000EE84E42AE4B827B93B8138B9862F83D910
:102610008C014E8544B9842D7ED9B82E998714B883
:102620002FD915B8E4B8842D76D9B801D6D96C0164
:102630008A8187B988E088B9998192299D8395B963
:1026400094B9852D68D9CFD94C0115B819D925B8B9
:10265000852D61D9C8D99D878C8724B8852D5BD9F4
:10266000C2D93C016C857D85C401B7D98032E1E0D7
:102670009E0730F4F0E2CF16F1E0DF0608F47FC6E3
:102680002C853D85C20ED31E800F911FC816D9061A
:1026900020F01D870C876B2C79842091520180914A
:1026A0006C01820F9927991F02974CF0213009F095
:1026B00094C590914F018091690198138EC5D9807E
:1026C000DD0CFE84FD283D2D32293B878C859D85C0
:1026D0008437910508F48EC10A96880F991F6816F1
:1026E000790608F087C19C8197B9EB81E8B9F4B805
:1026F000842D0DD98C01832D12D97C01D5B8842D60
:1027000006D99801295A3D4F2817390708F0ADC05E
:1027100088E088B9FA81F7B92B8524B925B9832DCA
:10272000F6D888349F4008F49BC085E080931E0152
:1027300082E280931D011093480100934701B70185
:10274000C80156D990934E0180934D019801A0E1A4
:10275000B7E20E940339209118013091190150E02D
:1027600040E00E94BF3830934A01209349018F898D
:102770008D2984B915B84C8147B98B8188B9832DCF
:10278000CED88C01842DC3D8B80132D99C01909346
:102790004C0180934B0190911D019F70943071F515
:1027A0004091490150914A0160914D0170914E0153
:1027B000C901D5DE0097F1F0D4B8EA899C81E92BF4
:1027C000E7B9842DA4D88C0188E087B99801A0E1ED
:1027D000B7E20E94033920913C0130913D0150E065
:1027E00040E00E94BF38A901B80180914B0190914F
:1027F0004C01B5DE909348018093470180911D0103
:102800008F70843039F188E088B9EF81FA81EF2B3D
:10281000E7B924B82D8125B9852D7DD88C01E3D861
:102820009E838D83842D7BD8E0901F01F090200142
:10283000BC01C801DDD89701DC010E940339ED819C
:10284000FE819F0150E040E00E94BF383093480174
:1028500020934701809152018F5F8093520145C3BD
:1028600085E080931E0184E264CF88E088B9FA8114
:10287000F7B92B8524B925B9852D49D88C01832D2D
:102880004ED87C0125B8852D42D8895A9D4F801796
:10289000910708F0A2C43B8138B94C8147B9832D18
:1028A00036D8813D934008F0A0C085E080931E019A
:1028B00082E380931D01B801C7019AD89093680103
:1028C00080936701C8018FD89C01A0E1B7E20E9404
:1028D000033920911F013091200150E040E00E9417
:1028E000BF383093640120936301F8E0F8B92A817E
:1028F00027B98F858D2984B985B9852D10D88C018C
:10290000832D05D8B80174D89C01909366018093FB
:10291000650190911D019F70943099F5409163017C
:10292000509164016091670170916801C90117DEDF
:10293000009719F1D5B8D4B83B8138B9EC814A81F8
:10294000E42BE7B9852D0E94870C4DD88C0188E0D7
:1029500087B99801A0E1B7E20E94033920913501BF
:102960003091360150E040E00E94BF38A901B80123
:102970008091650190916601F2DD909362018093F0
:10298000610180911D018F70843049F1EB819F813D
:10299000E92BE8B9EC819E2B97B915B8FD81F4B904
:1029A000852D0E948B0C7C01842D0E948F0C9E83B0
:1029B0008D830091180110911901BC01C70118D82D
:1029C0009801DC010E940339ED81FE819F0150E0F6
:1029D00040E00E94BF3830936201209361018091F2
:1029E0006C018F5F80936C0118C185E080931E019C
:1029F00084E35FCF88E088B9FA81F7B925B82B85E1
:102A000024B9852D0E948B0C998B888B0E94F30C26
:102A100098878F83832D0E948F0C9A8789878301E3
:102A20000C591F4F8F819885B3010817190708F0BB
:102A3000F6C00E94F80C9C8B8B8B20911F0130916B
:102A4000200150E040E060E871EA83E09CE10E94F0
:102A5000BF38AB89BC890E941839E985FA859F0186
:102A600050E040E00E94BF3849015A0114B815B83F
:102A7000FB81F8B92C8127B981E00E94570CE4B89A
:102A8000842D0E948B0C8F359D4008F474C1F4B8DE
:102A9000842D0E94870C998F888F832D0E948F0C24
:102AA0009C8B8B8B852D0E948F0C9E8B8D8B8B89A5
:102AB0009C89813D974008F4E6C084E080931E0124
:102AC0008DE080931D01288D398D89010619170924
:102AD0006216730610F0088D198DC0901801D09001
:102AE0001901F12CE12C60E871EA83E09CE1A70177
:102AF00096010E94BF38D8010E941839EB89FC89E1
:102B00009F0150E040E00E94BF3880916C01882313
:102B100071F080915D0190915E01A0915F01B09193
:102B2000600182179307A407B50708F099C02093A6
:102B30005D0130935E0140935F0150936001288DE9
:102B4000398DA0E1B7E20E940339A70196010E94E6
:102B5000BF3830936401209363016B897C898D8930
:102B60009E890E94F80C909362018093610181E03C
:102B700040915D0150915E0160915F017091600133
:102B8000481559056A057B0508F06CC080925D0107
:102B900090925E01A0925F01B092600169857A8592
:102BA000888999890E94F80C909362018093610151
:102BB0002F813885A0E1B7E20E94033920911F01DF
:102BC0003091200150E040E00E94BF38205F384D36
:102BD0003093640120936301C0901801D0901901D3
:102BE000F12CE12C9301A0E1B7E20E940339A70187
:102BF00096010E94BF3830936601209365012C85B1
:102C00003D85A0E1B7E20E940339A70196010E9429
:102C1000BF38309368012093670181E025C08F8120
:102C200098850E94F80C9C8B8B8BFD81F4B9852DC7
:102C30000E948B0C998B888B0E94F30C98878F8352
:102C4000832D0E948F0C9A878987BC018B899C8970
:102C50000E94F80C9C01A4E6B0E00E940339FDCE6E
:102C600080E086CF8111B8CF90916C019F5F9093E7
:102C70006C01882309F477C33092690140926A019C
:102C800050926B0170C3F1E66F16710408F073C0C7
:102C9000288D398D213D47E0340708F46CC085E06C
:102CA00080931E0182E180931D01C90186509F4FD0
:102CB000ED89FE898E179F0708F043C083E180935A
:102CC0001D01FA89F770DF2E832D806480937C00CC
:102CD000EBE0EE2E21E030E03E832D830FEF13E09A
:102CE000A89561E089816ED5F4B886B18D21E9F3AC
:102CF0003E8534B980917A00806480937A00809117
:102D00007A0086FDFCCF8091780090917900F801DF
:102D1000E81BF90B2D813E812E0F3F1F3E832D8333
:102D2000EA94E110DDCFC901880F991F880F991F20
:102D300069E070E00E9498387093680160936701C1
:102D40004ECE0091180110911901688D798D8D89F1
:102D50009E890E94F80C9801DC010E940339E88DDD
:102D6000F98D9F0150E040E00E94BF38309362012E
:102D700020936101A6CFF4B8D5B8842D0E948B0CA6
:102D80006C01832D0E948F0C98878F830E94F30C17
:102D90009A8789870C151D0508F0A9C0B301C601E3
:102DA0000E94F80C8C01209118013091190150E01B
:102DB00040E060E871EA83E09CE10E94BF38D801FE
:102DC0000E941839E985FA859F0150E040E00E9491
:102DD000BF3849015A01FA81F7B988E088B92D81D5
:102DE00024B925B9852D0E948B0C8C01832D0E945E
:102DF0008F0C9A878987842D0E948F0C7C01003369
:102E000031E1130708F0E6C125B8852D0E948B0C2F
:102E1000998B888B24B8852D0E948B0C9C8B8B8B77
:102E200015B881E00E94570C25B8852D0E948B0CA7
:102E3000EB89FC89E034F64008F079C08133914198
:102E400008F475C0C8018A569F4FE889F989E817C8
:102E5000F90708F06CC086E080931E018091520152
:102E60008F5F80935201B70189859A850E94F80C83
:102E70009093480180934701B701C8010E94F80C64
:102E800090934E0180934D0114B815B8FA89F8B9A2
:102E900081E00E94570C24B8852D0E948B0C853F41
:102EA000910518F52D8124B9832D0E948B0C813D4D
:102EB0009340D8F0852D0E948F0C8D3D9240A8F054
:102EC00024B8852D0E948B0C8D3D924070F025B862
:102ED00081E00E94570C15B8852D0E948B0C853F10
:102EE000910518F487E080931E0181E0F8C0E4B8F2
:102EF000F981F5B9842D0E948B0C6C01832D0E9401
:102F00008F0C98878F830E94F30C9A878987C6015C
:102F10006C147D0410F48619970969857A850E94DE
:102F2000F80C9C01A4E6B0E00E9403394BCFFA8173
:102F3000F7B9298124B925B981E00E94570C3B8556
:102F400034B935B9852D0E948B0C8C010E94F30C8D
:102F5000998B888B832D0E948F0C9E838D830E947A
:102F6000F30C9A878987842D0E948F0C7C018985B8
:102F70009A858E3F994008F4C1C084E080931E0179
:102F80008CE080931D01B301888999890E94F80C17
:102F90008C0120911F013091200150E040E060E859
:102FA00071EA83E09CE10E94BF38D8010E94183981
:102FB000E985FA859F0150E040E00E94BF3880918A
:102FC0005201882371F08091430190914401A091B6
:102FD0004501B091460182179307A407B50708F091
:102FE0007AC02093430130934401409345015093AC
:102FF0004601B7018D819E810E94F80C9093480193
:103000008093470128893989A0E1B7E20E940339FA
:1030100020911F013091200150E040E00E94BF3814
:1030200030934A012093490181E04091430150913E
:1030300044016091450170914601481559056A05A2
:103040007B0508F04AC08092430190924401A0920F
:103050004501B0924601B6018F8198850E94F80C17
:1030600090934801809347019601A0E1B7E20E9446
:103070000339209118013091190150E040E00E947D
:10308000BF38205F384D30934A01209349019301A6
:10309000A0E1B7E20E940339209118013091190193
:1030A00050E040E00E94BF3830934C0120934B0128
:1030B0002C853D85A0E1B7E20E94033920911F01D4
:1030C0003091200150E040E00E94BF3830934E0123
:1030D00020934D010ACF80E0A8CF8111D8CF9091E5
:1030E00052019F5F90935201882309F43CC13092B2
:1030F0004F01509250014092510135C1F1E66F16D7
:10310000710408F067C02889398929343D4008F4E2
:1031100061C085E080931E0182E080931D01C7019C
:1031200086509F4F8017910708F03CC083E0809342
:103130001D010B810770832D806480937C001BE050
:1031400021E030E03E832D83A89560E089813AD369
:103150003B8534B935B986B18023E9F724B880912D
:103160007A00806480937A0080917A0086FDFCCF9B
:103170008091780090917900ED81FE81E80FF91F30
:10318000FE83ED83115001F7CF01880F991F880F3F
:10319000991F69E070E00E94983870934E01609327
:1031A0004D0158CBC0901F01D0902001B701C8013C
:1031B0000E94F80C9601DC010E940339E889F98924
:1031C0009F0150E040E00E94BF38309348012093B7
:1031D0004701AFCF88E087B988B914B815B888E03F
:1031E00087B9F7EC6F16F1E07F0608F4E4C088B900
:1031F0002F8524B938EC3D834C818A81482B4F833D
:103200009F8197B981E00E94570CEA81E7B9852D2B
:103210000E948F0C429728F0FD81F150FD83F1113F
:10322000EFCF2F8524B925B961E08981CBD2852DD7
:103230000E948B0C6C013F8934B915B84C8147B999
:103240008B8188B960E08981BDD2842D0E948B0C6E
:103250000E94F30C9E838D839E8594B9842D0E94D9
:103260008F0C8C01852D0E948B0CB8010E94F80CEC
:103270008C01842D0E948F0C7C01852D0E948B0C6B
:10328000B7010E94F80C98012C5E3F4F28173907B0
:1032900008F469C088E088B9EA81E7B924B825B89C
:1032A00061E089818FD2842D0E948F0C7C01852D55
:1032B0000E948B0CB7010E94F80C7C0108171907BB
:1032C00008F060C0FF85F4B9F5B9852D0E948B0C1C
:1032D0009C01CD82DE8288EEE81683E0F80608F0D5
:1032E00063C0C70164E670E00E949838C70187593F
:1032F00091098938914108F05EC02E153F0508F00C
:103300005AC08D819E8143E0969587954A95E1F755
:10331000893C910510F088EC90E02D813E81820F70
:10332000931F8E159F0508F046C06217730708F0BB
:1033300042C080911E01833018F483E080931E0107
:1033400020911C01822F90E0FC01E357FE4F508238
:103350004682880F991FFC01E756FE4FF182E082FA
:103360002F5F20931C0188E087B988B914B815B87D
:103370008EE20E94FD086996E2E10C9444396B2CC0
:1033800079842BCF2F8924B915B83C8137B94B816B
:1033900048B960E0898116D2842D0E948B0C0E946E
:1033A000F30C9C01780197CFB70154E076956795AF
:1033B0005A95E1F79BCF642D852D01D0D4CFB0E095
:1033C000A0E0E5EEF9E10C942A39C82FD62FA89594
:1033D000862F90E0FC01E95AFD4F549033962491DA
:1033E0004C2F50E0FA01E95AFD4F149133960491A5
:1033F00060916C0130915201630F7727771F672B23
:1034000009F05AC0A8956091220170912301660FBE
:10341000771F660F771F70933401609333016091BB
:10342000710170917201660F771F660F771F70939D
:103430003201609331013EEB30932F0160911C010A
:10344000EDE8F1E030E0840F951F63133AC088E0A7
:1034500088B9286027B914B915B9B8E1BB2ED12CA9
:10346000C12C8D2F0E948B0C782E692E8C2F0E94E0
:103470008F0C7C018C199D0997FF03C09195819554
:10348000910903970CF45AC1A895BA946701B11039
:10349000E8CF809122019091230190933401809391
:1034A0003301809171019091720190933201809368
:1034B000310189E180932F01CDB7DEB7E0E10C94B3
:1034C000463951914581450F5527551F48175907D2
:1034D00001F33F5FBACF25E8C21621E0D206C8F655
:1034E000043AE2E01E0708F0B5C0F8E9AF16B104EF
:1034F00080F2C6010E94F30CAC019601A8E9B7EB7B
:103500000E9403399A0150E040E00E94BF3829012F
:103510003A01C5010E94F30C9C01A8E9B7EB0E9497
:103520000339950150E040E00E94BF3888E7C81693
:103530008FE0D80608F072C0F2E0440C551C661CFF
:10354000771CFA95D1F7C301B201620F731F841F74
:10355000951F25E030E040E050E00E94BF38A4E62F
:10356000B0E00E9418396B017C01FCEACF0EFDE04F
:10357000DF1EE11CF11C10911E01143008F089CFF0
:10358000C1500C2F0D0F802F90E0EC01C95ADE4F77
:103590002881880F991F880F991F8A559E4FFC011B
:1035A000222309F4C4C080809180A280B380A70147
:1035B0009601281939094A095B0957FF07C0509538
:1035C0004095309521953F4F4F4F5F4FAAE0B0E0B7
:1035D0000E941839F4E68F0E911CA11CB11CA501A4
:1035E00094012C0D3D1D4E1D5F1D0E94BF38232BE5
:1035F000242B252B09F04DCF133019F081E0809357
:103600001E0182E0888380917301E82FF0E0E65A82
:10361000FE4F00838F5F809373013BCFE8E7AE16C8
:10362000EFE0BE0670F4E2E0220F331F441F551F87
:10363000EA95D1F7CA01B901640D751D861D971D64
:1036400088CF240D351D461D571D56954795379536
:10365000279585CFC0901F01D0902001672D762D32
:10366000E616F70608F4B701C7010E94F80C9601A8
:10367000DC010E9403392B013C01C7010E94F30CBD
:103680009C0150E040E0C301B2010E94BF38290113
:103690003A01A0901801B0901901892D982D80173A
:1036A000910708F4C801B8010E94F80C9501DC01EB
:1036B0000E940339980150E040E00E94BF3888E73B
:1036C000E8168FE0F806B0F462E0440C551C661C66
:1036D000771C6A95D1F7C301B201620F731F841F73
:1036E000951F25E030E040E050E00E94BF386901BE
:1036F0007A0141CF0837EFE01E0770F4CA01B90123
:1037000052E0660F771F881F991F5A95D1F7640DF5
:10371000751D861D971DE5CF73016201C20ED31E74
:10372000E41EF51EF694E794D794C79424CFC08284
:10373000D182E282F38281E08883ABCE110F15B88B
:1037400014B98C2F0E948B0C8135910508F0A1CE05
:1037500015B98C2F0E948B0C6C01802F886087B963
:1037600008B915B854B8A8E14A2EB12CA12C8C2F59
:103770000E948B0C982E892E8D2F0E948F0C8C010D
:103780008A199B0997FF03C0919581959109039729
:1037900034F0A8954A9458014110E9CF7ACE550CDF
:1037A00054B88D2F0E948B0C5C01F0ECEF16F4E402
:1037B000FF0608F490CE80EBC8168DE4D80608F01A
:1037C00068CE8ECECF93C82FC09595B160FF10C044
:1037D000982B95B994B1892B84B982E00E94570C3B
:1037E00084B18C2384B985B18C2385B9CF91089598
:1037F0009C23EFCFB0E0A0E0E0E0FCE10C94303996
:103800001AE008E08FE3C82E99E0D92E07B908B96D
:1038100015B8C4B880E00E948B0C7C0181E00E9446
:103820008F0CEC0182E00E948F0C9C0180911E01A4
:103830008930A1F488E087B914B8F0920601E092CB
:103840000501D0930801C093070130930A0120932A
:103850000901CDB7DEB7EAE00C944C3984E0E816F4
:10386000F10448F4C430D10560F42430310510F37C
:1038700099E092600AC098E088EEE81683E0F806C6
:1038800008F499E0C83ED340A0F3283E334008F442
:10389000946097B9D0E0C0E0A89580E00E94830CC6
:1038A0005C0181E00E948F0C7C0182E00E948F0C01
:1038B00024E1A21625E0B20608F4389A24E1E216C3
:1038C00025E0F20608F4399A843125E0920708F4DD
:1038D0003A9A26E0A216B10430F426E0E216F1048A
:1038E00010F4069738F02196C43F81E0D807A1F67E
:1038F000D0921E01F12CE12CEC16FD0621F41150A2
:1039000009F084CFA6CF0E94460C2FEFE21AF20AEC
:10391000F3CFCF92DF92EF92FF92CF932091770176
:10392000309178014091790150917A01C0918901DB
:103930008AE0C82ED12CE12CF12C8C2FCF5F213ABC
:1039400096E8390791E049075105E0F48093890131
:10395000A0913301B09134010E94183928E833E175
:1039600040E050E00E94BF38209377013093780107
:103970004093790150937A01CF91FF90EF90DF90BF
:10398000CF900895CA01B901A70196010E94BF38DE
:10399000D4CFB0E0A0E0EFECFCE10C942E39C82FBE
:1039A000062F880F8C0F9FEF960F890F809354017D
:1039B000EC2FF0E0E95AFD4F1491862F90E0FC01C6
:1039C000E95AFD4FF490FC01E65AFD4FD4918091E5
:1039D0001E018130C1F120911C01EDE8F1E090E081
:1039E00080E08217A8F1D8601092840110928301C0
:1039F00081EF8093890110927701109278011092E3
:103A0000790110927A01F6DE88E088B9D7B9F4B866
:103A1000F5B88C2F0E948F0C5C01802F0E948F0CB8
:103A2000A81AB90A14B81092560110925501809143
:103A3000550190915601843F9140F0F088E087B99C
:103A400088B914B815B8CDB7DEB7ECE00C944A3994
:103A5000368130130EC030813C130BC0DC01AA0F3D
:103A6000BB1FA357BE4F1C964D915C914C3D5540DA
:103A700050F301963196B5CF15B914B90E94400C98
:103A800014B815B80E94470CA8958C2F0E948F0C73
:103A90007C01EA18FB0880915501909156018E3700
:103AA000910520F08BE4E816F10444F28091550171
:103AB000909156012DE2E21621E0F2060CF023C2AD
:103AC00001969093560180935501B1CF0E94410C0D
:103AD0008C2F0E948F0C8A199B09A8952FEFC21A70
:103AE000D20A20915501309156012C153D0570F7F1
:103AF0005701A81AB90A1A141B040CF0ADC039EC0E
:103B0000A316B1040CF09ACF28EE33E0D5010E9441
:103B1000123997010F2C000C440B550B0E94BF3833
:103B2000690180915501909156010196B0E0A0E0A5
:103B300080937F0190938001A0938101B0938201D3
:103B4000C7018A0D9B1D33D220917F0130918001E6
:103B50004091810150918201DC010E9418396093EB
:103B60007F01709380018093810190938201609323
:103B70007701709378018093790190937A0187EFB0
:103B800080938901C6DE8090770190907801A090A3
:103B90007901B0907A0185E293E00E94B339A8EEF2
:103BA000B3E0A81BB10987FDB395A50194010E945C
:103BB000223924E630E040E050E00E94BF382093F4
:103BC0007701309378014093790150937A01809185
:103BD0001C01882329F080911E01853009F02ECF29
:103BE00088E080931E018091890190918A01981745
:103BF000C4F0891323CF8090770190907801A09032
:103C00007901B0907A0140917B0150917C016091E3
:103C10007D0170917E01481559056A057B0508F004
:103C20000DCF4091770150917801609179017091A9
:103C30007A0140937B0150937C0160937D017093E6
:103C40007E0180938A01D0928601C0928501009303
:103C50008701C0938801F2CED12CC12C62CFCADD7E
:103C600015B88FE087B988E088B9F12EFF0CF4B859
:103C700080E480937B0084E580BF8C2F80648093F8
:103C80007C0086E180937A000E944A0C10925601D3
:103C900010925501109280001092850010928400BD
:103CA00087E286BB81E280936F0081E0809374019C
:103CB000F5B890911E0180938100953009F005C1FF
:103CC00081E090E00C2E01C0880F0A94EAF78095FD
:103CD0008F7087B9F89483B7817F83BF8091740117
:103CE000882389F083B7816083BF7894889583B7F0
:103CF0008E7F83BFF894A8958091550190915601CD
:103D00008034964059F7789410928100E0908600B4
:103D1000F090870010926F0086E980937A0014B8C3
:103D200015B88C2F0E948F0C2091370130913801EB
:103D3000821B930B0C9690938C0180938B01809146
:103D40005501909156018032934008F077CE8091D2
:103D50005501909156019093820180938101F092D8
:103D60008001E0927F0184EF809389018091550169
:103D70009091560182349105C8F060917F01709155
:103D80008001809181019091820124E630E040E041
:103D900050E00E94BF3820937F0130938001409310
:103DA00081015093820186EF80938901A091750172
:103DB000B091760120917F01309180014091810185
:103DC000509182010E94183920E233E040E050E037
:103DD0000E94BF3820937F0130938001409381017E
:103DE00050938201209377013093780140937901B9
:103DF00050937A018EDD80918901843F09F054C08F
:103E0000C0907701D0907801E0907901F0907A012C
:103E100080EAC8168FE0D806E104F104C0F4A701D7
:103E200096012C543F4F4F4F5F4F60EA7FE080E098
:103E300090E00E94BF38C20ED31EE41EF51EC09251
:103E40007701D0927801E0927901F0927A01C090E6
:103E50007701D0907801E0907901F0907A01C11457
:103E6000D10421E0E206F10490F5D092B701C092AE
:103E7000B6018091540190E08E5B9C4F0E94B33953
:103E800090E0B0E0A0E08C159D05AE05BF0530F5D3
:103E9000C81AD90AEA0AFB0AC0927701D0927801BF
:103EA000E0927901F0927A0114B9809177019091B2
:103EB0007801A0917901B0917A014997A105B105E6
:103EC00008F4BCCDD12CC12C82CED7B903CF81E070
:103ED00090E09093B7018093B601CBCF34E1C30E4D
:103EE000D11CE11CF11CC816D906EA06FB0610F429
:103EF0000E940D12109277011092780110927901B0
:103F000010927A01D1CF892B31F485E1E81685E052
:103F1000F8060CF0A4CEC701D12CC12CE2CD1F9223
:103F20000F920FB60F9211248F939F93B59904C0EF
:103F300080917401811109C0B59B10C080918600E9
:103F4000909187008A3F910548F4809155019091A6
:103F50005601019690935601809355019F918F9140
:103F60000F900FBE0F901F9018951F920F920FB6D3
:103F70000F9211248F939F9310927401B09B10C0E5
:103F800080918600909187008A3F910548F4809146
:103F900055019091560101969093560180935501D9
:103FA0009F918F910F900FBE0F901F9018950F92B9
:103FB00021E08C32920710F48CE291E08C52914017
:103FC00069E170E00E94983899E16B3210F0982F07
:103FD0006BE2981BE6ECF2E0E60FF11DE60FF11D37
:103FE0009F93CF010E94B339482F3196CF010E9491
:103FF000B339582F3196CF010E94B339282F31960B
:10400000CF010E94B339382F6F91421B530B649F2D
:10401000C001659F900D11240C9669E170E00E942B
:104020009838620F731FCB010F900895B0E0A0E0A5
:10403000ECE1F0E20C942E3988E893E190932301AF
:104040008093220190933401809333018EEB80930F
:104050002F01C8E0C8B988E187B90E944F0CC7B9E1
:1040600084E00E948B0CAC018B5C9840833F9140B4
:10407000A0F481E080933E0120913301309134011E
:10408000AFEBB9E00E9403399A0150E040E00E9492
:10409000BF38309323012093220180912201909117
:1040A000230190933401809333018EE00E948F0CA2
:1040B0008EE00E948B0C90933801809337010E9410
:1040C0005D0D98DB88E0F82EF8B8C9E0C7B985E146
:1040D00085B9D1E0D4B980E00E948B0C8C019AE0C4
:1040E000D92ED7B824E0B22EB4B881E00E948B0C50
:1040F000080F191F3CE0E32EE7B840E1C42EC4B816
:1041000082E00E948B0C080F191F15B8C8B9C7B9F7
:10411000D4B980E00E948B0C0E94F30CEC01D8B85B
:10412000D7B8B4B881E00E948B0C0E94F30CC80F82
:10413000D91FE8B8E7B8C4B882E00E948B0C0E948F
:10414000F30CC80FD91FF7B8F8B814B88091330131
:10415000909134016C01CC0CDD1CC80ED91EC01A24
:10416000D10ACC1ADD0AF12CE12C9801A0E9BAE1C0
:104170000E940339A70196010E94BF3849015A01E4
:1041800030933D0120933C019E01A0E9BAE10E94D9
:104190000339A70196010E94BF383093360120935E
:1041A00035012057354E3093200120931F0180E7C1
:1041B000881A85EE980A909219018092180189E177
:1041C00080932F01CDB7DEB7ECE00C944A39CF9243
:1041D000DF92EF92FF920F93CF93DF93F82ED62FBB
:1041E000C42F0E944E0988E191E00E94AA09F6D1ED
:1041F0006D2F8F2D0E94D030C090BA01D090BB019E
:10420000E090BC01F090BD018091020187FD05C0E6
:10421000C114D104E104F10421F084E191E00E9491
:10422000AA098D2F0E944E09C114D104E104F104A2
:1042300009F474C00E94510980915A010E94660AD3
:10424000CC2309F467C080913F018D3030F4865053
:10425000990B845B9C4F0E94AA0980E00E947E0912
:10426000CD28CE28CF2809F45EC06091BA017091A4
:10427000BB018091BC019091BD0103E028E447EFB0
:104280000E94EE0A87E291E00E94AA0987E593E086
:104290000E94BB3923E046E464EF0E94D00B80917A
:1042A000B2019091B301A091B401B091B501892BF5
:1042B0008A2B8B2B01F180E00E947E096091B20174
:1042C0007091B3018091B4019091B50104E028E4AC
:1042D00040E00E94EE0A82E291E00E94AA0923E0F7
:1042E00040E26FEF8091B8019091B9010E94D00B2C
:1042F0000E945D0907C080E00E946309809142012D
:104300008823B1F3DF91CF910F91FF90EF90DF9071
:10431000CF90089580E00E947E09A7CFC11193CF6E
:1043200080E00E947E0980915A010E94660A809175
:1043300002018E3F0CF0B3CF8FE391E00E94AA09F7
:1043400060910B0170910C0180910D0190910E0113
:1043500003E028E4409102010E94EE0AA0CFEF9210
:10436000FF920F931F93CF93DF93182F0E94C707DD
:10437000809187010E944E098BE591E00E94AA0975
:1043800013D5609187018091880166D3EC019093E9
:10439000840180938301E0908501F0908601CA3FFB
:1043A0008FEFD80720F489E191E00E94AA0980915B
:1043B00088010E944E09112309F445C090913F01E4
:1043C0008DE0891B0E94540989E790E00E94AA09A8
:1043D0000E941A0860917B0170917C0180917D019F
:1043E00090917E0104E026E440918A010E94EE0A49
:1043F000CA3FDF4F68F48AE491E00E94AA0922E0F4
:1044000044E06EEF80918301909184010E94D00B73
:104410000E945D090E942208E114F10469F083E41E
:1044200091E00E94AA0922E045E26FEF80918501A8
:10443000909186010E94D00B0E945D09CDB7DEB736
:10444000E6E00C9450390E945D09C2CF8F7021F4D0
:104450000E942A080C94671208958F3021F49091DD
:104460003901913011F08F5F089580E00895CF9366
:1044700084E890E00E94942BC0E00E94000E60E06F
:1044800082E00E94DF1962E080E00E94DF190E9452
:10449000C707809173018823A9F041E062E080E0C2
:1044A00096DE8C2FD3DF88EE93E00E94010D811100
:1044B00005C08C2FD2DFC82F8A3FF8F20E94CE07AA
:1044C000CF91089584E890E00E94AA0980E593E0E6
:1044D0000E94AA090E941A088FE30E94FD0880E04A
:1044E0000E9463090E945D09DCCF0F931F93CF9355
:1044F000DF93C0E0D8E012EF0DE00E94000E60E014
:1045000082E047DAD0931E0180918901843FE1F473
:104510008091770190917801A0917901B0917A0111
:1045200084369105A105B10578F440E060E082E0B1
:104530000E94582E609377017093780180937901DF
:1045400090937A011093890180918901823F4CF107
:1045500080938A018091770190917801A0917901EF
:10456000B0917A0180937B0190937C01A0937D01AF
:10457000B0937E0181E0F3DE8C2F68DF88EE93E05C
:104580000E94010D811106C08C2F67DFC82F8A3F62
:1045900008F4B3CF0E94CE07DF91CF911F910F9106
:1045A00008950E94C7078DE790E00E94AA098091B4
:1045B0003F01902F981B892F0E94540989E790E0B2
:1045C0000E94AA090E941A088FE30E94FD080E9417
:1045D0005D090E9422080E945D09CECFA6E1B0E0ED
:1045E000E4EFF2E20C94283982E08093020180919A
:1045F0001E01813009F0F0C180917301813009F012
:10460000EBC140905A0124E0429EF0011124EA558A
:10461000FE4F80819181A281B381893032E5930779
:10462000A105B10508F0D8C11C01712C81E08715E6
:1046300008F4D6C1842D0E945C0A982E892EE82D9C
:10464000F0E0E65AFD4F5490892D90E0FC01E95AC4
:10465000FD4FE49115B828E028B9372D3170632E4D
:1046600020EF2216310408F0C0C13111BEC1009103
:1046700018011091190100591A4121E030E0092C6C
:1046800002C0220F331F0A94E2F7C901886085290E
:1046900087B934E1398B892D0E94870C5C01882D04
:1046A0000E948F0C24E0A216B10410F4049728F0A5
:1046B00039893150398B3111EECF80E480937B0002
:1046C00094E590BF892D806480937C0026E120933F
:1046D0007A00F12CE12C109280001092850010924B
:1046E000840087E286BB0E944A0C872D90E09A8B5B
:1046F000898B611083C181E88093810058B886B3AB
:1047000085FD0CC080FFFBCF21E026BBA89597015B
:104710002F5F3F4F79012035310589F738E038B9EF
:104720001092810090E296BB209186003091870024
:10473000690140918400509185002417350738F4B1
:1047400080FF05C021E026BB3FEFE31AF30A86E9AC
:1047500080937A00B4E15B2E892D0E94870C5C0166
:10476000882D0E948F0C24E0A216B10410F4049747
:1047700018F05A945110F0CF80903C0190903D0178
:10478000820C931C800E911E20911A0130911B0106
:1047900000398AE1180708F03AC169E191EEC916BB
:1047A000D104E104F10430F4C60165E070E00E9438
:1047B0009838645128523109261B310967FD339519
:1047C00066E0862F90E0B0E0A0E08C159D05AE0578
:1047D000BF0508F025C1C81AD90AEA0AFB0A6620F3
:1047E00029F082E2C80ED11CE11CF11C90E5E9160B
:1047F000F10418F0C12CD12C76018BE0C816D1043D
:10480000E104F10428F091E0C91AD108E108F108A7
:10481000B12CA12CA8EEB3E00E9403396B8B7C8BEA
:104820008D8B9E8BA0913301B091340198010E9431
:104830000339A50194010E94BF38442755276B898D
:104840007C898D899E890E94BF38C9010E94B50D5F
:10485000FC01A5019401C701B6010E947D384B01FE
:104860005C01BF0190E080E0E3E0660F771F881FE6
:10487000991FEA95D1F76B5F7F4F8F4F9F4F2AE0CB
:1048800030E040E050E00E94BF38C501B4010E9412
:10489000BF38E989FA89EE0FFF1FEE0FFF1F81E095
:1048A00090E08C0F9D1FE80FF91F20833183428316
:1048B0005383611018C09CE0C916D104E104F104CF
:1048C00090F07394E989FA893196EE0FFF1FEE0F8D
:1048D000FF1F81E090E08C0F9D1FE80FF91F2083E0
:1048E000318342835383A895739493E0971508F01E
:1048F0009DCE88E088B984E00E94570C91E00D813C
:104900001E812F81388549815A816B817C814017B6
:1049100051076207730708F090E00D851E852F850B
:10492000388949855A856B857C8582E04017510717
:104930006207730708F483E024E0829FD00111240A
:1049400021E030E02C0F3D1FA20FB31FE92FF0E054
:10495000EE0FFF1FEE0FFF1FE20FF31F0D911D91D2
:104960002D913C914081518162817381041715071B
:104970002607370708F0892F34E0839FF0011124C0
:1049800021E030E02C0F3D1FE20FF31F40815181E9
:104990006281738140930B0150930C0160930D0170
:1049A00070930E0180FD40C030EF23163104E0F516
:1049B0008BEF8093020180910B0190910C01A091EB
:1049C0000D01B0910E01892B8A2B8B2B11F41092C3
:1049D000020188E087B914B86696E2E10C94443984
:1049E000842D0E945C0A4C012ACEE4B9852D886092
:1049F00087B900911801109119014BCE58B80E9447
:104A0000530C90E296BB81E88093810078CEC4017C
:104A100060EB76E30E949838695F285D3F4FD1CE06
:104A2000C12CD12C7601DBCE8CEF80930201CB011F
:104A3000BA016B5F7F4F8F4F9F4F2AE030E040E01D
:104A400050E00E94BF3820930B0130930C0140933B
:104A50000D0150930E01AFCFAEE1B0E0E2E3F5E21D
:104A60000C942839662EB82E860F898320911E015A
:104A7000283059F520917B0130917C0140917D01D6
:104A800050917E0157FD15C010918A0109C0CA01DD
:104A9000B9012AE0312D412D512D0E94BF381F5FF1
:104AA000173FACF391F4243160E03607410551051E
:104AB00018F48FEF9FEF45C1173F39F480E02817B6
:104AC0008DE738074105410510F020E03DE72C8BCC
:104AD0003D8B26EDA22EEAE5F2E0E60DF11D859173
:104AE00088608E87EAE5F2E0EB0DF11D8591886024
:104AF0008F87E7E5F2E0E60DF11D7590E7E5F2E05E
:104B0000EB0DF11DC59090EC692AB92A81E0E82EE1
:104B1000F12C012D112D8E831F82188619861A867D
:104B20001B861C861D86188E198E1B8E1A8E0E945F
:104B3000FA1B88E088B960927C000E944B0C3F858C
:104B400037B975B874B852E05A95F1F70000000013
:104B500014B815B8DD243E8537B975B874B86092BD
:104B60007C00A895A0927A0080917A0086FDFCCF07
:104B70002090780030907900B0927C004C2DE5D0E8
:104B80002091780030917900288B398B3F8537B997
:104B9000C5B8C4B8A895B0927C00A0927A00809164
:104BA0007A0086FDFCCF6091780070917900609268
:104BB0007C00472DCAD0409178005091790014B8FC
:104BC000CB01820D931DE80EF91E011D111DEA8215
:104BD000FB820C831D8388899989840F951F2E8100
:104BE0003F8168857985280F391F611D711D2E83CE
:104BF0003F836887798722E32417150650F075B83C
:104C000074B80E94550C14B815B8888D8395888F98
:104C100007C0483E73E0570718F08A8D83958A8F46
:104C2000888999892817190660F03E8537B9C5B873
:104C3000C4B80E94550C14B815B8898D8395898F16
:104C400007C0883E73E0970718F08B8D83958B8F94
:104C5000D3945D2D5F3F49F05F3731F45C2D550FE4
:104C6000C50E572D550F750E76CF40903C015090D4
:104C70003D01440C551C9201E4E0240D351DEA95DC
:104C8000E1F72901570168016E807F80888499844B
:104C900020911E012830C1F46C897D89812D912DD0
:104CA00065507040804090409B01AC010E947D386F
:104CB0009B01AC0160E779E786E190E00E94BF3894
:104CC000621A730A840A950AA614B704C804D904A0
:104CD00028F46A187B088C089D0803C06624772492
:104CE0004301B20180E090E09301A4010E947D386D
:104CF0009501A6010E94BF3881E293E07981870F78
:104D0000911D0E94B339682EC90160E170E00E94D4
:104D10009838260F371FC9016816190618F4861926
:104D200091090FC08C5E9F4F8615910540F48C89C8
:104D30009D89843981E1980710F00E940D12812D20
:104D4000912D6E96E2E10C944439109281001092FC
:104D5000800010926F0010928B0010928A0057E032
:104D600056BB5FEF509385005093840055E05093FD
:104D70007B0056EB50937A0051E05093810058E24B
:104D80005A95F1F7000045B944B955E05A95F1F745
:104D9000000014B815B81092810080917A0084FF49
:104DA000FCCF80937A000895B0E0A0E0EAEDF6E24F
:104DB0000C942A3900918501109186010115110585
:104DC00009F091C0E0918701F0E0E65AFD4FD491DF
:104DD000D860E0918801F0E0E95AFD4FC4910E944B
:104DE000FA1B88E088B915B8D7B9C4B98091880191
:104DF0000E948F0C7C01D0918A018CE08D0F843051
:104E000008F071C080917B0190917C01A0917D019F
:104E1000B0917E01D15F2AE0422E512C612C712C81
:104E2000BC01CD016B5F7F4F8F4F9F4FA30192015C
:104E30000E94BF3849015A01DA01C901DF5FD7304A
:104E400079F7893823E19207A105B10508F04BC035
:104E5000059708F448C0C5B9C4B9D0E0C0E0C8158A
:104E6000D90508F445C014B815B8A89585E0809315
:104E70002F01809188010E948F0CEC01CE19DF096F
:104E8000E816F90610F0D0E0C0E0D12CC12CC8140F
:104E9000D90490F1809188010E948F0C29E1209320
:104EA0002F01A895E816F90618F48C010E191F09B0
:104EB0000C171D0788F49E01201B310B69F0A4EF2D
:104EC000B1E00E9403399E0150E040E00E94BF38EB
:104ED00030938601209385010E94FA1B88E087B9F0
:104EE00088B914B815B8CDB7DEB7E0E10C944639EF
:104EF0000E94510C2296B3CF0E94510C8FEFC81A1A
:104F0000D80AC5CF1F920F920FB60F9211248F931C
:104F100086E085BD8F910F900FBE0F901F90189562
:104F20001F920F920FB60F921124A8951092810034
:104F300015BC0F900FBE0F901F9018951F920F92E7
:104F40000FB60F9211242F933F938F939F938091CD
:104F50006F0190917001892B11F481E085BD209142
:104F60006F013091700180916D0190916E01281751
:104F7000390730F015BC80916D008F7E80936D00F5
:104F800080916F01909170010196909370018093D0
:104F90006F019F918F913F912F910F900FBE0F90B6
:104FA0001F9018958B3008F08B50811109C089E251
:104FB00092E00E94AA090E945D090C94C20708951C
:104FC000813019F480E092E0F4CF823019F485EF5B
:104FD00091E0EFCF833019F48FE890E0EACF84308E
:104FE00019F484E890E0E5CF853019F48DE790E07E
:104FF000E0CF863019F484EE91E0DBCF873019F4EE
:1050000085ED91E0D6CF883019F48EEB91E0D1CFC9
:10501000893019F487E192E0CCCF8A3061F68CE0D8
:1050200092E0C7CF0F93CF938FE890E07DD3C0E09D
:1050300010921E0160E082E08CD380911E018830C6
:1050400009F04AC00E941A0883E40E94FD080E94E9
:105050008E0960917B0170917C0180917D0190911E
:105060007E0103E026E440918A010E94EE0A0E943C
:105070005D096091870180918801EEDC9093840145
:10508000809383010E9422088BE491E00E94AA0988
:1050900080918301909184018A3F2FEF9207C0F4A1
:1050A00022E044E06EEF0E94D00B0E945D098C2F3D
:1050B000CDD988EE93E00E94010D811106C08C2F9E
:1050C000CCD9C82F8A3F08F4B3CFCF910F91089560
:1050D0008FE30E94FD08E9CF0E948A090E942208FE
:1050E000E4CF0895A5E0B0E0E8E7F8E20C942839B1
:1050F00080E092E019D380E18093800010926F00ED
:1051000081E090E0909389008093880010928B005A
:1051100010928A0083E086BB1092820088E0809320
:10512000810015B891E194B988B989E087B9229ACC
:1051300080938100312C20E03AE0398341E04C83B8
:10514000812C912C5401839451E15D83832D90E057
:105150000A966EE170E00E94AC386B83F62E6217FF
:1051600061F00E94C70780E092E00E94AA0910E067
:105170001F1508F4DCC00E945D098C8169810E94C2
:105180008C38A92FB0E0A50194010E9418396B0159
:105190007C018D81823150F0652D762D872D902FE9
:1051A0000E94BF38C60ED71EE81EF91E0E941A08BC
:1051B0009C812981212C921306C081E03D813231EE
:1051C00008F480E0282E2A828CE3211005C04D814E
:1051D0008EE3463108F082E50E94FD080E945109E5
:1051E0004D81C701B6010E94E50BC701B6017E5E85
:1051F00085489F4FA7019601220F331F441F551F5B
:105200000E94BF38CA014F3F510509F008F494C00D
:105210008DE08093810080E094E02C01712C612C62
:10522000CA01B901A30192010E94BF38215031097E
:1052300030938900209388008091880090918900A4
:10524000892B31F481E090E090938900809388006D
:105250000E945D090E94220886E60E94FD080E94C5
:105260005109009188001091890060E079E08DE398
:1052700090E0A30192010E94BF38A4E6B0E00E9432
:1052800018390F5F1F4F980150E040E00E94BF386F
:1052900029013A01A4E6B0E0A70196010E9418395D
:1052A000A3019201261B370B480B590BCA01B90108
:1052B00005E228E44EEF0E94EE0A8AE70E94FD080C
:1052C0000E945D0980ED97E00E94010D882309F49A
:1052D0006BC0883C08F07AC0813508F45FC022209A
:1052E00009F44AC03D8131503D83C501B4012AE033
:1052F00030E040E050E00E94BF3849015A01C70148
:10530000B6010E94BF38CA01B9012AE030E040E08E
:1053100050E00E94BF386A834AE049832A812C8387
:10532000312C2B815C2C6D2C7E2C0F2D0FCF8EE21F
:105330000E94FD081F5F1CCF4034510530F08CE007
:105340008093810080E091E068CF4830510530F0D3
:105350008BE08093810080E490E05FCF892B31F077
:105360008AE08093810088E090E057CF89E08093C5
:10537000810081E090E051CF5D81563198F55F5F0B
:105380005D83563111F485E18983AAE0B0E0A5017F
:1053900094010E9418394B015C01C0CF8B3018F08A
:1053A0009C819F5F9C83312C2C81822F90E03981DE
:1053B000632F70E06F5F7F4F0E94AC388C83832D2A
:1053C0004CD8382E4FEE481708F0ABCF1092810022
:1053D0001092800088E087B914B822982596E2E1FF
:1053E0000C9444395AE0598381E08A83812C912CB2
:1053F0005401839491E19D8391CFB0E0A0E0E3E07C
:10540000FAE20C942A3985EF91E08ED183E2809301
:10541000800010926F008FEF90E090938B0080934C
:105420008A0083E086BB1092820015B881E184B9BE
:1054300088E088B989E087B9229A21E030E030938A
:1054400089002093880080938100D0E080E0C2E34F
:1054500010E094E6C92ED12CE12CF12C88248A94FA
:1054600023E0922EA12CB12CC817A1F1C43608F06C
:10547000C4562C2F30E0AFEFB3E00E9403396E5CCE
:105480007F4F8F4F9F4FA70196010E94BF38290180
:105490003A0130938B0020938A000E941A08A8EEEC
:1054A000B3E0A30192010E94183961507E4F8F4FE3
:1054B0009F4FA50194010E94BF38C90125E045E234
:1054C0006FEF0E94D00B0E945D09193218F08CE337
:1054D0000E94570C80E496E00E94010D182F83383B
:1054E00080F40AE0833320F40C2F882319F001E0C4
:1054F0000C0FD0E08D2F0E942D22D82F8C2FD03F63
:1055000068F088E087B9109281001092800014B88A
:105510002298CDB7DEB7E0E10C944639C02FA4CF76
:10552000CF93DF938EEB91E0FFD080E293E00E9477
:10553000B339C82FD0E081E80E94B9078C2F0E94B0
:10554000B9070E941A0824E040E260E08C2F90E046
:105550000E94D00B0E945D0980E496E00E94010D3C
:10556000811111C0CF778D2F0E942D22D82F803F1F
:1055700010F36C2F80E293E00E94C039DF91CF914D
:105580000895C15805C08238A0F78932D0F3CF5FA3
:10559000D0E0E8CF0F931F93CF93DF9384EE91E099
:1055A000C3D085E293E00E94B339C82FD0E00E94B7
:1055B0001A080C2F0C2E000C110BC7FF27C08DE210
:1055C0000E94FD0823E045E26FEF88279927801BA2
:1055D000910B0E94D00B0E945D0980E496E00E942E
:1055E000010D81111EC0C135C4F0C5568D2F0E941A
:1055F0002D22D82F803FD8F26C2F85E293E00E94B5
:10560000C039DF91CF911F910F91089523E045E2BA
:105610006FEFC801DECFC15009C0CC3E3CF7CB597B
:10562000E5CF823848F78932B0F3CF5FD0E0DBCFE7
:10563000813011F457CD0895823011F4DECE0895F3
:10564000833011F4EFCC0895843019F40C94372290
:105650000895853029F40E94CE070C947522089590
:10566000863011F497CF0895873021F481E10C94AE
:105670007E0E0895883011F453CF0895893011F4C7
:10568000A7C108958A3011F40C94230E0895FF9257
:105690000F931F93CF93DF9384E392E045D010E004
:1056A000C0E0D0E0FF24FA94FC0E01E00D0F60E0B2
:1056B000802F880F0E949207D13069F58EE30E94F7
:1056C000FD088C2F8D0F51F18F2D8D0F6BDCD02F9E
:1056D000033059F780E49FE10E94010D811110E031
:1056E00090913901913009F410E08233C8F0CC2355
:1056F00041F08C2F9DDF84E392E016D01F5F1E36B1
:1057000031F480E0CDB7DEB7E5E00C945139CB3011
:1057100040F2CB50C6CF0E945109D3CF8AE0D6CFFA
:10572000882361F3CF5FEACFCF93DF93EC010E9430
:10573000CE07CE010E94AA09C4E682E00E94570C5F
:105740004F9902C0C150C9F70E941A08DF91CF914A
:105750000895B0E0A0E0EFEAFBE20C943139182F95
:10576000062F862F90E0FC01E65AFD4FE491FE2EB5
:105770006894F3F8E12FF0E0E95AFD4FC491FC0181
:10578000E95AFD4FD4911092840110928301109236
:105790007701109278011092790110927A0187EFC7
:1057A000809389010E94FA1B88E088B9F7B8D4B9C0
:1057B000D5B9812F0E948F0C7C01802F0E948F0C05
:1057C000E81AF90A14B8109256011092550130E007
:1057D00020E05CE2C52EDD24D394DAE064E6B62E48
:1057E0008091550190915601843D904350F088E09E
:1057F00087B988B914B815B8CDB7DEB7E9E00C940D
:105800004D39C5B98091550190915601892B91F080
:10581000F601E21BF30B6091550170915601D29F86
:10582000C001D39F900D11240E949838E617F70706
:1058300008F0A5C0C4B90E944A0C14B88091550163
:10584000909156010196909356018093550115B899
:105850000E944C0CA895812F0E948F0C9C012E1940
:105860003F0980915501909156018B31964020F06F
:10587000253231050CF4BBCF2D3281E038070CF412
:10588000AFCF8091550190915601019729F42531B0
:1058900085E038070CF0ABCF80915501909156010F
:1058A000880F991FB0E0A0E080937F019093800162
:1058B000A0938101B0938201C90168E270E00E9467
:1058C000AC38CB01820F931F0E94D71F20917F011C
:1058D000309180014091810150918201DC010E9450
:1058E000183960937F0170938001809381019093B8
:1058F000820160937701709378018093790190938E
:105900007A010E94891CC0907701D0907801E090C4
:105910007901F0907A0185E293E00E94B339A8EE14
:10592000B3E0A81BB10987FDB395A70196010E94BA
:10593000223920E137E240E050E00E94BF38209356
:105940007701309378014093790150937A0188E090
:1059500080931E0120937B0130937C0140937D0155
:1059600050937E018091890180938A011092860173
:1059700010928501009387011093880138CF8091A0
:105980005501909156010B97C8F0609155017091A7
:105990005601B29EC001B39E900D11240E9498380A
:1059A0006E177F0758F4C4B90E943F0C14B8809159
:1059B0005501909156018C599F4F45CFC4B90E9413
:1059C000450C14B880915501909156010A963BCF31
:1059D000CF92DF92FF920F931F93CF93DF930E949A
:1059E000CE0785E091E00E94AA090E941A0881EC86
:1059F00090E00E94AA0983E293E00E94B33923E079
:105A000040E26EEF90E00E94D00B84E293E00E94AF
:105A1000B33923E040E26EEF90E00E94D00B82E2C7
:105A200093E00E94B33923E044E06EEF90E00E94DF
:105A3000D00B0E9422088AEB90E00E94AA0923E082
:105A400044E06FEF80913501909136010E94D00BB8
:105A50000E942A0883EB90E00E94AA0923E044E018
:105A60006FEF80913C0190913D010E94D00B88E93D
:105A70009AE30E94010D0E94CE078FEA90E00E94F7
:105A8000AA0987E493E00E94B3398251990B0E94DE
:105A9000050A88E493E00E94B3398251990B0E9471
:105AA000050A84E493E00E94B33923E046E464EFFE
:105AB0008251990B0E94D00B0E941A0883E00E9429
:105AC000540983E493E00E94B3398251990B0E94F8
:105AD000050A86E493E00E94B3398251990B0E9433
:105AE000050A82E493E00E94B33923E046E464EFC0
:105AF0008251990B0E94D00B0E9422088DE190E008
:105B00000E94AA0989E493E00E94BB390E94F0092F
:105B10000E942A0886E190E00E94AA098BE493E0A3
:105B20000E94B339082E000C990B0E94F00960E026
:105B300086E00E949207C0E0FC2EFF0CFC0ED0E035
:105B4000FA94CD17B9F10F2D0D0F10E0000F111FB2
:105B5000C8018C5C9C4F0E94BB396C01C8018A5DF6
:105B60009C4F0E94BB398C018091A5018330A8F124
:105B700088E99AE30E94010D0E94CE0787EA90E02F
:105B80000E94AA098C2F0E944E098AE30E94FD08F8
:105B90008D2F0E944E0980E00E94630923E040E2BD
:105BA0006EEFC6010E94D00B23E046E462EFC8010D
:105BB0000E94D00BDF5FD33021F6CF5FC33009F0F6
:105BC000BBCF88E99AE30E94010DDF91CF911F912D
:105BD0000F91FF90DF90CF90089580E00E946309BD
:105BE000CDCF08954F925F926F927F928F929F9246
:105BF000AF92BF92CF92DF92EF92FF92AC016C0115
:105C0000F12CE12C560199248824E52FFF279A01D5
:105C1000DA010E9403392C0166247724920165E0A1
:105C2000369527956A95E1F7E29FC001E39F900DB5
:105C3000F29F900D11249A0174E0369527957A957C
:105C4000E1F7E20FF31FE40FF51F92013695279558
:105C500036952795B4E056944794BA95E1F7241900
:105C6000350950E040E02E0F3F1F411D511DBC0182
:105C7000E3E076956795EA95E1F7861B970B280F89
:105C8000391F411D511DC701B6010E947D38680DA5
:105C9000791D8A1D9B1DFF90EF90DF90CF90BF90E4
:105CA000AF909F908F907F906F905F904F900895EE
:105CB000A3E0B2E0EEE5FEE20C942839CF5FDD4FC1
:105CC0008883C150D240162FCE5FDD4F4883C2502B
:105CD000D2400E94FA1BCF5FDD4F2881C150D240D5
:105CE000E22FF0E0E95AFD4FF4909F2C990CE12F40
:105CF000F0E0E65AFD4FE491E860E7B915B8F4B872
:105D0000822F806480937C000E944B0CCE5FDD4F1D
:105D10003881C250D2403170CD5FDD4F3883C350DF
:105D2000D240CE5FDD4F8881C250D2408F2C80FFA1
:105D3000892CE0E2DE2E90E080E0CF2CE82C092DCB
:105D4000282D44E7BE016F5F7F4F0E943400DA9434
:105D500080E490E0D110F1CF14B81E0197E4290E31
:105D6000311C73E2472E512C612C712CC12CD12C8B
:105D70007601812C912C5401F101819191911F01A7
:105D8000CD5FDD4FF881C350D240FF2329F020E0E2
:105D900030E8281B390BC90125DF9C0150E040E0A9
:105DA000820E931EA41EB51EC301B2010E947D384F
:105DB000C60ED71EE81EF91E3FEF431A530A630AA8
:105DC000730A84E74816510461047104A9F6C501F9
:105DD000B40121E530E040E050E00E94BF38ABEB79
:105DE000B7E10E941839C61AD70AE80AF90AA701CA
:105DF000960164E056954795379527956A95D1F7B2
:105E000060EE7DEC81EC9FE80E94BF3869017A0169
:105E1000CE5FDD4F9881C250D24091FD20C0CF5F50
:105E2000DD4F8881C150D240880FCF5FDD4FE881C0
:105E3000C150D2408E0F1150810F90E0880F991FF2
:105E4000CD5FDD4FF881C350D240FF2379F08A5DEA
:105E50009C4F0E94BB39C81AD90AE108F108C70152
:105E6000B601CD5FDD4FE2E10C9444398C5C9C4F70
:105E7000F0CF4F925F926F927F928F929F92AF92EC
:105E8000BF92FF920F931F93CF93DF93C0E0FC2E3E
:105E9000FF0CFC0ED0E0FA94CD1709F43EC042E0AE
:105EA0006D2F8C2F05DF2B0143E06D2F8C2F00DF32
:105EB0004B010E94CE0787EA90E00E94AA090E9447
:105EC00051098C2F0E944E098AE30E94FD088D2FF4
:105ED0000E944E090E9451090E941A0824E040E2E3
:105EE0006EEFC2010E94D00B24E046E462EFC401D1
:105EF0000E94D00B0F2D0D0F10E0000F111FB201EB
:105F0000C8018C5C9C4F0E94CE39B401C8018A5DE7
:105F10009C4F0E94CE390E945D09DF5FD33009F0AB
:105F2000BBCFCF5FC33009F0B2CF0E94C70785EB6C
:105F300091E00E94AA090E945D0988E20E94570C24
:105F4000DF91CF911F910F91FF90BF90AF909F90E5
:105F50008F907F906F905F904F900895A2E1B0E096
:105F6000E4EBFFE20C9428392C017C836B83DD2465
:105F7000D3942D2C312C33E0D39E900111243E87F5
:105F80002D87F101EE0FFF1FEE0FFF1FFC87EB8740
:105F9000812C30E4932E50E0712C612C18861F82E6
:105FA000B12CA12C1A8219821E821D8240E0C12CC4
:105FB000F0E0E0E030E020E061E070E08FEF90E0C2
:105FC00082199309988B8F870C2D10E08F85988903
:105FD0000817190774F1AB81BC81AB2B29F170E074
:105FE00060E04230E8F09501ED81FE812E1B3F0B11
:105FF000A8EEB3E00E940339E981FA81AE1ABF0A24
:10600000950150E040E00E94BF3888EE93E0821B8B
:10601000930B0E94B50DBC0188EB9AE70E9498385B
:10602000AB81BC816D937C93C4016296E2E10C94D8
:106030004439D801A20DB31DAA0FBB1FA40DB51D75
:106040008D919C91E80FF91FD801AA0FBB1FA40DD9
:10605000B51D8D919C91280F391FCD1408F48AC06D
:10606000D801A219B309AA0FBB1FA40DB51D0D902D
:10607000BC91A02D2A1B3B0BE81BF90B7901EE0EFE
:10608000FF1EC9018E1B9F0B89879A87D701B69582
:10609000A795B695A795A80FB91FB7FD76C0E217CB
:1060A000F30708F069C0513009F066C0D80156E026
:1060B000AA0FBB1F5A95E1F7BA8BA98BDC01A61B6F
:1060C000B70BBD01A817B90770F0A6E0880F991F9C
:1060D000AA95E1F780960E94983889899A89861B4B
:1060E000970B9A8B898BAD85BE85EA16FB0608F463
:1060F00072CF8B859C8508171907BCF14423B1F03A
:1061000069897A8966197709433050F0D4019096ED
:10611000C401969587958A0F9B1F86179707D0F124
:10612000D71650F4DD24D394D70E23CFA989BA898A
:10613000B887AF83FE82ED82AE0CBF1C4F5F41304B
:10614000F9F0842F8150990BBC0195958795A98909
:10615000BA898A0F9B1FAF81B8858A1B9B0BE8D732
:106160004B0169887A88FA82E982453108F033CF99
:1061700050E002C069877A87C39469857A8524CF05
:1061800069887A88FA82E982F3CF51E0E217F3074F
:1061900098F78CCFEB81FC81EF2B09F024CF44CF13
:1061A000A6E2B2E0E6EDF0E30C942C39F82ED62E00
:1061B00087E593E00E94BB393C01ED2DF0E0E95A00
:1061C000FD4F1491EF2DF0E0E65AFD4FE49110924F
:1061D000B2011092B3011092B4011092B501109265
:1061E000B9011092B8011092BA011092BB0110923D
:1061F000BC011092BD0180911E01813009F0D2C016
:106200008091020118160CF4CDC088E088B9E860CE
:10621000E7B90E944B0C2D2D206CD22E20937C00D0
:106220000E944B0CC12EE12C00E0212F4FEFBE014C
:106230006F5F7F4F80E191E00E9434003F2D306C12
:10624000F32E30937C00212F44E1BE0161507E4F3C
:1062500080E191E00E943400FE013196BE01615060
:106260007E4F5B01AE01475D5F4F81919191D501FA
:106270006D917D915D019F0122503109861797072D
:1062800008F494C0861B970BD9018D939C93E41757
:10629000F50759F7D0927C0070E060E0CE010196DE
:1062A0005DDE9F5F30E1A32EBB24B394912C812C43
:1062B000913178F040E1A42E44E0B42E52E0852ED6
:1062C000912C903430F090E1A92EBA2C24E0822E4B
:1062D000912C88E0D82EA895C12EE12C00E0212F2A
:1062E0004FEFBE016F5F7F4FC5010E9434008114E4
:1062F000910409F461C068EB71E0CE0101962EDED5
:106300005C01813C9F4308F0B1C06501F12CE12C98
:106310009501D50178D723E330E040E050E02FD756
:10632000A8E6B2E085D73FEF831A930A7694679484
:10633000930150E040E023D7C401880F991F04C0A7
:10634000220F331F441F551F8A95D2F72093BA019D
:106350003093BB014093BC015093BD0180910B0170
:1063600090910C01A0910D01B0910E010397A10530
:10637000B10540F01092BA011092BB011092BC011D
:106380001092BD01A114B10409F073C01092B901BB
:106390001092B8011092BA011092BB011092BC0188
:1063A0001092BD01CA5DDD4FEEE072C7D9011D92AA
:1063B0001C926DCF5C018FCFC5018064DA94D1103F
:1063C000F9CF81159440C8F08EEF8F3F09F493CF39
:1063D000E82FF0E0EE0FFF1F21E030E02C0F3D1F13
:1063E000E20FF31F20813181A3E036952795AA950E
:1063F000E1F7318320838150E8CFF0927C00E8946C
:10640000A6F808E0F02EC12EE12C00E0212F44E197
:10641000BE0161507E4FC5010E9434006894A6F809
:10642000FA94F110F0CF24E1215070F2822F90E025
:10643000880F991FE1E0F0E0EC0FFD1FE80FF91F56
:10644000408151816FEF71E06C0F7D1F860F971FA8
:10645000DC018D919C914817590728F0481B590B76
:1064600051834083E1CF11821082DECFB12CA12C69
:106470004CCF27E030E02819390960E072E18AE763
:1064800090E004C0660F771F881F991F2A95D2F7E6
:10649000A701960174D62093B2013093B3014093C3
:1064A000B4015093B5018091020187FD7BCF8FEF3E
:1064B0008093020177CFCF93DF93D82F0E94C70735
:1064C00086E090E00E94AA090E945D09C0E0109257
:1064D000B7011092B60184E10E94570C62E080E09F
:1064E0000E94C91C0E941A0824E046E464EF8091CF
:1064F000B6019091B7010E94D00B6091B6017091E6
:10650000B701CB018C539F4085399547A0F4CF5FED
:10651000C53090F087E593E041D70E94510985EBA3
:1065200091E00E94AA0984E60E94570C0E94C707C6
:10653000DF91CF910895C0E00E945D09DF5F39F6D9
:10654000F5CFB0E0A0E0E6EAF2E382C680E48AB9E3
:106550008BB9D6E8D0937A001092C1000E94370C14
:10656000C4B7C87084B7877F84BF0FB6F894A89566
:1065700080916000886180936000109260000FBE7F
:10658000D093640088E380937E001092B00087E08F
:106590008093B10078940E94E507C1119DC580E108
:1065A00085BF4F9906C082E00E94570CCF5FCC3365
:1065B000C1F78FE59DE69093170180931601CF31C7
:1065C00030F080E69DE690931701809316011092BB
:1065D00030010E94162088E19FE00FB6F894A8953C
:1065E000809360000FBE90936000CC3309F467C0C5
:1065F00038E0632E40E1542E58E1452E6DE5C62E5D
:1066000061E0D62E73E3272EE1E23E2E8FEA0E9450
:10661000B90784EA0E94B9070E94CE0767B80E94B2
:10662000000E0E9416200E94C7070E9467128091E8
:106630003E01882381F00E941A0880E591E00E94C3
:10664000AA0963E080913301909134010E94DB0B31
:1066500088EC0E94570C0E941A080E94FA1B809135
:106660001E01893089F50E94CE0785E591E00E94E0
:10667000AA090E941A0863E0809105019091060121
:106680000E94DB0B0E94510963E080910701909109
:1066900008010E94DB0B0E94510963E0809109010F
:1066A00090910A010E94DB0B8AEC0E94570C81E159
:1066B0000E947E0E8091160190911701A1C10E9447
:1066C000472B8111FCCF94CF85E493E04CD6C82FA3
:1066D00082E493E048D6C81BC0933B0180E00E944F
:1066E0007E0E0E948A098DEB92E00E94AA0983E047
:1066F0000E941F0C0E94C20742E061E080E00E94FD
:10670000D21242E060E081E00E94D21241E062E0F9
:1067100080E00E94D21241E060E082E00E94D2124A
:1067200040E062E081E00E94D21240E061E082E05D
:106730000E94D21280911E0181110EC00E94FA1B8C
:1067400060E082E00E94C91C61E082E00E94C91CF6
:1067500060E081E00E94C91C0E94CE0723E431E082
:10676000309341012093400180911E01863009F54C
:1067700085EC0E94BD0860E188EF0E94000C66E095
:1067800080E00E94920784E992E00E94AA0966E0F4
:1067900082E00E94920789E691E00E94AA0962E0E5
:1067A00080914701909148010E94DB0B0E94C20733
:1067B00081CF873071F484EC0E94BD0860E188EFDE
:1067C0000E94000C66E080E00E9492078DE992E052
:1067D000DCCF8830C1F48091870190918801890FC6
:1067E0009927991F029759F40E94752280913B01C5
:1067F000882309F45CC4D4E010E000E045C480E0E4
:106800000E94AF2157CF833009F007C180911C014E
:10681000813009F069C080E00E94C20A60918D0158
:10682000809193010E941F1280E70E949A0A40E023
:1068300060918D01809193013BDA609377017093B1
:1068400078018093790190937A0180E00E947E091B
:1068500060917701709178018091790190917A012E
:1068600002E026E442EF0E94EE0A8DE20E94FD085B
:1068700041E060918D01809193011ADA6093770174
:10688000709378018093790190937A0126E442EF26
:106890000E94EE0A8DE291E00E94AA090E94C207BE
:1068A0000E94C20780917301882309F403CF47B87F
:1068B00067B880E00E947E0930917301332309F4A8
:1068C000A6C380915A01313009F03DC30E945C0A91
:1068D00020915A01213009F031C320911C0121116E
:1068E0002DC30E94372282CF823079F582E30E9445
:1068F000FD088DE191E00E94AA0990918D013091EF
:106900008E01931308C080E00E94DE0A81E00E949D
:10691000D50A81E08ACF20919301809194012813B8
:1069200007C080E00E94CE0A81E00E94E50AF1CF14
:10693000321306C081E0809311010E94B00AB0CFEB
:1069400098133DC050921101F8CF8330C1F52092C9
:1069500011018091930190918E01891303C021E070
:106960002093110140918D0130919401431302C095
:106970005092110120918F01821303C082E0809315
:10698000110180919501481303C040E24093110129
:1069900032130DC022E120931101981751F083E3C7
:1069A0000E94FD088DE191E00E94AA09C6CF9813CC
:1069B00002C03092110180911101823280F383EA8A
:1069C00092E00E94AA098BE892E00E94AA090E9424
:1069D0001A0880911C01805D0E94FD088AE20E94D5
:1069E000FD0887E391E00E94AA0981E792E00E94F6
:1069F000AA090E94C20786E00E94BD0880E49FE1C8
:106A000047B84F9BFECF0E94010D823308F40CC3A0
:106A10000E94472B8111FCCFF9CD843009F059C178
:106A200080916C01882309F45FC080915201882312
:106A300009F45AC060914F01809151010E94C91C14
:106A40008090770190907801A0907901B0907A01C0
:106A5000C091890160916B01809169010E94C91CFC
:106A60008091430190914401A0914501B09146016C
:106A700040915D0150915E0160915F0170916001F4
:106A8000843F31E09307A105B10538F4443F21E08C
:106A900052076105710508F0C0EF443F51406105A0
:106AA000710540F4843F9140A105B10518F030EF25
:106AB00030938901809189018C1311C080917701F5
:106AC00090917801A0917901B0917A018816990688
:106AD000AA06BB0630F09CE090931D0105C0C817C4
:106AE000D4F78DE080931D0180916C01882361F0C3
:106AF00080915201882341F04F9906C080911D0179
:106B000091E0892780931D0166E080E00E94920752
:106B100080EC0E94BD0880911D018C3009F0C2C03C
:106B200085E891E00E94AA0980916C01882319F000
:106B300080E70E94FD080E94DB0DC82F853090F48D
:106B4000A0914001B0914101E82FF0E0E357FE4FE2
:106B50001D969C91808160E0981362E088EA91E044
:106B60000E94E40860E189EF0E94000C86E00E9428
:106B7000630984E991E00E94AA09E0914001F09143
:106B80004101608171818281938103E020E04EEFB9
:106B90000E94EE0A87E00E94630989E40E94FD08D2
:106BA000E0914001F09141018681978180319742C7
:106BB00008F48BC085E60E94FD08E0914001F09149
:106BC00041018681978180519742978386830E94F5
:106BD0008E09E0914001F091410122E041E46AEF29
:106BE000868197810E94D00B86E00E9463098DE622
:106BF00091E00E94AA09E0914001F091410163E017
:106C0000848195810E94DB0B81E080934201E091B9
:106C10004001F091410180859185892B91F085E0BB
:106C20000E947E098FEF90E00E94AA09E091400146
:106C3000F091410122E041E46AEF808591850E9454
:106C4000D00BE0914001F091410182859385892B21
:106C500091F085E00E947E0989EF90E00E94AA09E8
:106C6000E0914001F091410122E041E46AEF828528
:106C700093850E94D00BC53078F480E00E947E0995
:106C80008C2F0E94C20A89E691E00E94AA098C2FEB
:106C90000E948C0A0E94C20743E462E485E40E94D9
:106CA0002F0A84CDD0924101C09240018DED91E038
:106CB0000E94FA088DE791E00E94AA098091520192
:106CC000882309F438CF8EE634CF83E60E94FD088E
:106CD0007ECF853009F0F0CD66E080E00E9492071B
:106CE00080911D01C82FC07184FF62C080E50E94A1
:106CF000FD08D0924101C0924001C2E08DE20E94A5
:106D0000FD0880911D01D82FDF70D43009F054C0E8
:106D10008FE991E00E94AA0983EC0E94BD0886EEEB
:106D200091E0C11165C00E94DB0D853090F4A09107
:106D30004001B0914101E82FF0E0E357FE4F1D966E
:106D40009C91808160E0981362E088EA91E00E9463
:106D5000E40860E189EF0E94000C86E00E9463096C
:106D600080911D0185FD60C085E691E00E94AA0921
:106D7000E0914001F091410162E0828593850E949B
:106D8000DB0BE0914001F0914101668584850E9412
:106D9000C91C86E00E9463090E94C40985E00E9424
:106DA000DC09D43009F0C8C04FE367E48FE377CF44
:106DB0008EE40E94FD08A2CF85FF1DC084E40E94DE
:106DC000FD08CF5FD330D9F489E991E00E94AA0988
:106DD00081EC0E94BD0883E392E0C13049F08FE36B
:106DE00092E0C23029F08FE092E0C33009F09BCFEF
:106DF0000E94FA0898CF85E40E94FD08E3CF84EA58
:106E000091E00E94AA0982EC0E94BD088FEF91E0F8
:106E1000C13071F385E092E0C23051F3C33009F024
:106E200082CF8DEE91E0E4CFE0914001F0914101FD
:106E30008F70843009F44EC0668584850E94C91C19
:106E40000E94C40960E084E00E94920789E40E94E5
:106E5000FD080E948E09E0914001F091410122E07D
:106E600041E46AEF868197810E94D00B8FE591E023
:106E70000E94AA09E0914001F091410162E08285FF
:106E800093850E94DB0BE0914001F09141018085E8
:106E90009185803C9241E0F480E00E947E0989E483
:106EA0000E94FD080E948E0922E041E46BEF90E011
:106EB00080E00E94D00B8FE591E00E94AA09E0914A
:106EC0004001F091410162E0808591850E94DB0BD9
:106ED00080E065CF84819581892B09F4B3CF80E070
:106EE00090E00E94AA09E0914001F091410122E066
:106EF00041E46AEF848195810E94D00BA3CF80E0AA
:106F00000E947E098C2F0E94C20A89E691E00E94AD
:106F1000AA098C2F0E948C0A0E94C207CF5F809121
:106F20001C01C81760F344E467E483E5D33009F03B
:106F3000B6CE43E467E4B2CEC0E0F1CF40E0692FC3
:106F40000E94E720B7CB90915B0124E0929FD00193
:106F50001124AA55BE4F24E0829FF0011124EA5566
:106F6000FE4FED90FD900D911C9140815181628109
:106F70007381282F4E155F056007710708F4292FCC
:106F8000890FC3E0C81B3230E1F0C0915C0134E0EE
:106F9000C39FD0011124AA55BE4F84E0289FF00161
:106FA0001124EA55FE4F4D915D916D917C91808148
:106FB0009181A281B38184179507A607B70708F0CE
:106FC000C22F1C2F1695D2E0DC1B02E0C11101C0BC
:106FD00001E0812F0E944E0988E191E00E94AA09F8
:106FE0008D2F0E944E0988E191E00E94AA09802F0E
:106FF0000E944E0980E00E94630981E0C11180E097
:107000000E94660A82E0811B0E94660A53CB8BE7CE
:1070100092E00E94AA090E941A0888EA92E00E945F
:10702000AA0983EA92E0E3CC8111F0CADFCBF50133
:10703000E80FF91FC491C03209F4782E019681310E
:107040009105A9F7DD2349F19D2F9370F92E11F4D5
:107050000E94CE0760E08F2D880F0E9492070E9449
:10706000C207A895DF5FD370F12CE12CE71410F173
:10707000CC23C9F0070D111DF801E35AFD4FE4912F
:10708000E03211F40F5F1F4F90E080E020E1722E9C
:107090009801235A3D4F5901CACF80E197E20E94DF
:1070A000010D882389F280E197E20E94010D0E9480
:1070B000230EACCAF501EE0DFF1DC491CC2399F34C
:1070C000CF3F31F40E9451092FEFE21AF20ACECFDE
:1070D0008C2F0E94FD08F8CF0E94C70788E692E037
:1070E0000E94AA098BEC0E94570C0E94230E90E08C
:1070F00080E0CDB7DEB7E2E1C7C0DB018F939F939D
:1071000097D0BF91AF91A29F800D911DA39F900D2D
:10711000B29F900D11240895991B79E004C0991F26
:10712000961708F0961B881F7A95C9F780950895E1
:10713000AA1BBB1B51E107C0AA1FBB1FA617B7079D
:1071400010F0A61BB70B881F991F5A95A9F78095B9
:107150009095BC01CD01089597FB072E16F400947D
:1071600006D077FD08D0E4DF07FC05D03EF490950B
:1071700081959F4F0895709561957F4F0895A1E285
:107180001A2EAA1BBB1BFD010DC0AA1FBB1FEE1FA1
:10719000FF1FA217B307E407F50720F0A21BB30BEC
:1071A000E40BF50B661F771F881F991F1A9469F768
:1071B00060957095809590959B01AC01BD01CF01C4
:1071C0000895052E97FB16F400940FD057FD05D0B7
:1071D000D6DF07FC02D046F408C0509540953095A4
:1071E00021953F4F4F4F5F4F089590958095709533
:1071F00061957F4F8F4F9F4F0895EE0FFF1F0590B2
:10720000F491E02D0994A29FB001B39FC001A39F08
:10721000700D811D1124911DB29F700D811D1124CF
:10722000911D0895F0DFB7FF0895821B930B089519
:10723000EADFA59F900DB49F900DA49F800D911D36
:1072400011240895B7FFF4CFF3DF821B930B089549
:107250002F923F924F925F926F927F928F929F9266
:10726000AF92BF92CF92DF92EF92FF920F931F9354
:10727000CF93DF93CDB7DEB7CA1BDB0B0FB6F89405
:10728000DEBF0FBECDBF09942A88398848885F8445
:107290006E847D848C849B84AA84B984C884DF80B6
:1072A000EE80FD800C811B81AA81B981CE0FD11D9A
:1072B0000FB6F894DEBF0FBECDBFED010895BB271A
:1072C000FA01A62F6217710581059105330B30FB7A
:1072D00066F0AA27660F771F881F991FAA1FA2179B
:1072E00010F0A21B63953850A9F7A05DAA3308F0EF
:1072F000A95DA19336F7B111B1931082CA0123C0E1
:107300004532510518F4423008F004C0FB011082E8
:10731000CB010895BB27FB015527AA27880F991F8A
:10732000AA1FA41710F0A41B83955051B9F7A05DB4
:10733000AA3308F0A95DA193009779F7B111B19331
:107340001192CB0100C0DC01FC01672F7191772302
:10735000E1F7329704C07C916D9370836291AE1710
:10736000BF07C8F30895F999FECF92BD81BDF89A81
:10737000992780B50895A8E1B0E042E050E013C03D
:10738000262FF999FECF1FBA92BD81BD20BD0FB641
:10739000F894FA9AF99A0FBE01960895F1DF272F13
:1073A000F0CFDC01CB01FC01F999FECF06C0F2BDA4
:1073B000E1BDF89A319600B40D9241505040B8F7B3
:0673C0000895F894FFCFD0
:00000001FF
