:100000008FC100009FC100009DC100009BC1000086
:1000100099C100000C94B72295C10000E3C600000E
:1000200091C100008FC100000C94BE180C949B225B
:100030000C94A9220C94981885C1000083C100007B
:100040000C9475227FC100007DC100007BC10000BF
:1000500079C10000C8C6000075C1000073C100006E
:1000600071C100006FC10000E62FF72F903009F436
:100070009395E5B8C4B8B6EFB0937A00A5E0A09325
:100080007B00A8E0A093810010928000AFEFA093C6
:100090008500A0938400A6E0A093360010928B0008
:1000A00010928A00B3E0AFE3A91B51E0392F33303F
:1000B0002AF0A05CBC4F53953350F9CFB093890020
:1000C000A0938800A0917A00A4FFFCCFB6EBB09378
:1000D0007A00A2E0A0936F00A9E0A093810062E003
:1000E000A0E0A0937B00A1E0A09353008895E5B821
:1000F000C4B884FF1AC0A8E10000AA95F1F7EF93F5
:10010000FF93E7B1F8B1A4E0C2FCA2E0C0FCA1E01B
:10011000BF2FBA2BAE2BB8B904B9A7B9E7B9F8B954
:10012000FF91EF910BC00C947300ACE10000000054
:10013000AA95F1F725B9E5B8000004B9A0918400AB
:10014000A0918500B0918900A395AB1760F7A091AD
:100150007A00A4FFF3CFB6EBB0937A006A9571F7FB
:100160006091780070917900308186FD630F619312
:10017000308186FD731F80FF7193652F4A9579F753
:1001800010926F0010928100B6E0B0937A0008954B
:100190000104100102044E6F742063616C69627285
:1001A000617465642120466F72FF63616C696272DD
:1001B0006174696F6E20636C616D70207468652076
:1001C00033FF70696E7320746F67657468657220A1
:1001D000616E64207374617274207769746820742E
:1001E0006865FF6B65792E2041636B6E6F776C6578
:1001F000646765207468652073656C662D7465732B
:1002000074207769746820746865206B657920773D
:10021000697468696EFF32732E20446973636F6E70
:100220006E6563742070696E7320616674657220F8
:10023000746865FF6D657373616765202269736F0C
:100240006C617465FF50726F6265212220697320B2
:1002500073686F776E2E20536F66747761726520B6
:10026000616E6420646F63756D656E746174696F2F
:100270006E2069732061742073766E3A2F2F206D83
:10028000696B726F636F6E74726F6C6C65722E2027
:100290006E65742F7472616E736973746F722074FB
:1002A00065737465722000B903870358032E030732
:1002B00003E402C302A40288020000140029003EE5
:1002C000005300690080009700AE00C600DF00F810
:1002D0000012012D01490165018201A001BE01DE6C
:1002E00001FF012102440268028E02B502DE02090A
:1002F00003350364039403C803FE0337047304B493
:1003000004F90443059305EA054906B3062907AE37
:10031000074808FF08DE09FD0A930C480F991B00E7
:1003200011241FBECFEFD8E0DEBFCDBF21E0A0E09B
:10033000B1E001C01D92A23CB207E1F70E94412F3B
:100340000C945E375DCE80FD5C9A80FF5C98549A79
:1003500000005D9A559A589859985A985B9864FD90
:10036000589A509A65FD599A519A66FD5A9A529A2E
:1003700067FD5B9A539A00005D9834D387FD10C0E7
:100380005D9A589859985A985B9860FD589A61FD03
:10039000599A62FD5A9A63FD5B9A00005D9822C3E8
:1003A000089580914201809300018091A90180937A
:1003B00002010895909142019F5F90934201682F3E
:1003C00081E0C1DF06D3A89508958F5CF3CF08952F
:1003D00080E2F0CF0895CF93C82F1C1614F0CF9170
:1003E0000895F6DFC150F9CF8DE3E4CF0895682F6B
:1003F00080E0A9DFEEC208951092A90180E8F7DF3E
:1004000010924201089581E08093A90180ECEFDF12
:1004100010924201089582E08093A90180E9E7DF0C
:1004200010924201089583E08093A90180EDDFDFFF
:1004300010924201089560934201813021F480ECD2
:10044000860FD5CF089580E8FBCF609100018091A1
:100450000201F1CF089581E0CADF82E0C5D2CCCF9E
:100460000895CF93DF93EC018991811103C0DF914F
:10047000CF9108959FDFF8CFCF93DF93EC01FE017A
:100480008491982F9F7719F095DF2196F8CFDF910F
:10049000CF910895CF93DF93EC01CE010E943037C6
:1004A000982F9F7719F086DF2196F7CFDF91CF91B4
:1004B00008950F931F93CF93DF93EC0128968C013F
:1004C0000F5F1F4F0E94303775DFC8010C171D07E3
:1004D000B1F7DF91CF911F910F91089584E184D2FC
:1004E00083E385DF82E383DF82E07ED280E27FDF09
:1004F00080E27DDF8AE27BDF88E079DF86E077DFFC
:1005000082E075DFA8DF81E06FD28CE070DF88E4E5
:100510006EDF82E690E0CDDF80E569DF8AE590E07E
:10052000C8DF88E564DF8AE690E0C3DF88E75FDF45
:1005300082E590E0BEDF80E75ADF8AE490E0B9DF31
:1005400080E455DF82E490E0B4CF089590914201B9
:1005500080E1891B40CF0895CF93C82FF7DF8091AA
:10056000A9018F5F8093A901823058F081E08093C8
:10057000A901809345016C2F8091A9015CDFCF9187
:10058000089510924501F7CFE7DF89C3089534DF5E
:10059000DDDF32CF089537DFD9DF35CF08950895F5
:1005A0000F9389E891E076DF40918D014D3F6CF427
:1005B00060917B0170917C0180917D0190917E0121
:1005C00003E026E4EAD00F9108958FE3F3DEFBCF3A
:1005D000909120019F70923071F4D6DF82E790E015
:1005E00059DFE0914301F091440122E044EF6FEFC5
:1005F00084819581B4C1089597FF09C08F939F931B
:100600008DE2D8DE9F918F91909581959F4F68E202
:1006100071E04AE050E00E94FD3623CF0895ECDF00
:1006200001C0EADFD5CE0895EF92FF920F931F939A
:10063000182F062FF42E88E791E02CDFEE24E091AE
:100640004301F09144018685E81611F4812F09C019
:100650008485E81611F4802F04C08585E81611F40E
:100660008F2DA8DEE3948E2D833049F71F910F91D3
:10067000FF90EF900895682F80E092E0662309F4E0
:1006800091E0623009F481E008950F93082FEAEABF
:10069000F1E0880F880FE80FF11D60817181828180
:1006A0009381643671058105910570F420910101F3
:1006B00027FD0AC0802FDFDF692F0E94541E6EEFD6
:1006C00023E044EF4CD104C04FEF04E024EF65D0A9
:1006D0007FDE0F910895863058F4EDE9F1E0E80FE0
:1006E000F11DE80FF11D8081918163E043D170CE4F
:1006F00008951F93182F80917601882319F068DEE2
:1007000080E058DE80DE8FE691E0C4DE812F8295A6
:100710008F70E1DF812F8F70DEDF1F910895809150
:100720000D0182958F7019D080910D0183701CD0BE
:1007300080910D01DECF0895E1E9F1E0E80FF11DB0
:100740000895CF93F9DF9081C681C91710F405D0C1
:1007500001C013D03DDECF910895EEDF8F938081ED
:1007600034DE8F9101C008958F9385E391E092DE8E
:100770008F91E2DF868129CE0895DEDF8F93868117
:1007800024DE8F9101C008958F9381E391E082DE92
:100790008F91D2DF808119CE0895AEE0B0E0E3ED15
:1007A000F3E00C949D36142F622E702E6B017C01A9
:1007B0000F7080E389838A838B838C838D838E8300
:1007C000F7FE40C08DE2F6DDF094E094D094C09442
:1007D000C11CD11CE11CF11C68EE862E63E0962E34
:1007E000A12CB12C033041F150E1852E57E2952E1A
:1007F000A12CB12C043001F140EA842E46E8942E5D
:10080000AA24A394B12C0530B9F030E4832E32E44D
:10081000932E3FE0A32EB12C063071F074E6872EA4
:10082000912CA12CB12C073039F420E8822E26E936
:10083000922E28E9A22EB12C9AE0292E312C412C9F
:10084000512C12C075FEC8CF8BE2B4DDC5CFC701F5
:10085000B6016B5F7F4F8F4F9F4FA20191010E94A6
:100860007A3569017A011F5FC814D904EA04FB04D0
:1008700070F781E1810F9BEA899F812D1124A82EB9
:10088000A69486E0811B899F112D11241695912F26
:10089000990F190F811B182F4E0187E0880E911CAC
:1008A0002AE0A401C701B6010E94DC36F4010190E0
:1008B0000020E9F731977F01E818F9089E2C6701BD
:1008C000DD24812F90E004968C159D0514F4A394EB
:1008D0001D5F8A2D90E0865C9F4F0E943037A82EC6
:1008E00074FE29C0901638F50E198E2C811A800ED0
:1008F000181424F08EE25EDD012F0E19111102C0D2
:1009000088EF882E912C10E0C00ED11EE82C082C08
:10091000000CFF08E92DF0E0EC15FD0574F0AA20AD
:1009200011F08A2D47DD662011F0862D43DD2E96CD
:10093000E2E10C94B93600E0D8CF3696E01BF10B1B
:1009400081E090E08C0F9D1FE80FF91F808132DD60
:1009500093949E141F04F1F68EE22CDDDBCF0F93EF
:10096000362FBC0190E080E0022F242F432F15DFAB
:100970000F9108950F93062FBC0190E080E026E5CB
:100980004DEF0BDF0F9108950F93042F28E440E003
:1009900004DF8AE70FDD1CDD0F910895089503D071
:1009A00002D001D000D000D003D002D001D000D0BE
:1009B00000D003D002D001D000D000D0A89503D041
:1009C00002D001D000D000D003D002D001D000D09E
:1009D00000D003D002D001D000D000D003D002D08C
:1009E00001D000D00000089590E0893C28F0885C98
:1009F00048EC849FC0011124009709F408952091C8
:100A00008100277019F0DADF0197F6CF8130910568
:100A100019F002973EE303C037E180E090E02091B7
:100A2000B200230F2093B30042E04093700027E010
:100A300023BF889526E023BF10927000A895DCCFD5
:100A40008F9384E0D1DF07C08F9382E0CDDF03C0B6
:100A50008F9381E0C9DF8F911F93182F106410933B
:100A60007C00E12FE07880913301E81759F0E093A2
:100A70003301AEDF8EE980937A0083E083BF8895EF
:100A800082E083BF20E030E0A901E0E01FC08EE9F2
:100A900080937A0083E083BF889582E083BF609172
:100AA000780070917900260F371F411D511DE430E9
:100AB00061F480913501803041F084E020303807C6
:100AC00020F417FD02C01068CACFEF5F8091320199
:100AD000E817E8F2609136017091370117FF04C002
:100AE000609134017091350180E090E00E943835CA
:100AF0002FEF33E040E050E00E947A35B901CA019F
:100B00002091320130E040E050E00E947A35C90186
:100B10001F9108959B01281B390B50F0C9010895BE
:100B2000BC0180913601909137016817790718F45C
:100B3000861B970B089580E090E0089589B183FBB0
:100B4000882780F94999826090911801943050F07B
:100B50009EE090931401809315011092190191E089
:100B600090931801E0911801AE2FB0E0AC5EBE4F3B
:100B70002C912817C1F081110EC090911901A3E0AA
:100B8000AE0FA3702230B1F4B0E0AC5EBE4F2C913A
:100B90009F5F2330C1F0EF5FE370E0931801F0E056
:100BA000EC5EFE4F80838091190187FD0FC080931A
:100BB0001A010895213079F7B0E0AC5EBE4F2C9158
:100BC000233049F7915090931901E5CF8195EFCFEC
:100BD000B0E0A0E0EEEEF5E00C94A636E82ED92EBB
:100BE00053985198F0DE10921901E0911801F0E04D
:100BF0003196E370FF27EC5EFE4F80EF8083C5E601
:100C0000D9E19CDF4F9B24C0CE2DDD2DF12C15E5C5
:100C100000E0BB24B394D7FD15C082E3C82E8EDF5D
:100C2000D6DECA94C110FBCF110F4F9B1F5F1F73FD
:100C30001F33A1F4011103C0CE2DDD2D04E00F5FA1
:100C4000083C80F0802FCDB7DEB7E9E00C94C236C7
:100C5000BEDED150B1F6C15099F6D6CF111102C007
:100C60000111F0CFA8951C161D0624F42A9711F443
:100C7000CFEFDFEF80911A01882339F0F394809150
:100C80007701811102C0B092770184E18F1508F0DD
:100C9000C2CF809119018111D5CFF12CBCCFCF9358
:100CA00080DBC82F809145018823F1F0813049F421
:100CB000C13039F46FE0BFDB8BE27CDB6FE081E0B9
:100CC000BADB80E49FE184DF811104C080911A01C6
:100CD0008111F7CFC13039F480914501813019F489
:100CE00060E0A9DB33DCB1DBCF91089589E493E0C8
:100CF0000E943037382F8AE493E00E9430372091E9
:100D00003A01230F30913B01381F20931D0130938E
:100D10001E0183E0283E380720F0C901885E934019
:100D200002C080E090E062E370E00E9453356830DA
:100D300008F067E0E7EAF2E0E60FF11DE60FF11DCB
:100D4000459155912591359162E3681B421B530BE8
:100D5000649FC001659F900D1124499662E370E085
:100D60000E945335620F731F70937A01609379016B
:100D70008BE493E00E943037992787FD909560912E
:100D80003A0170913B01860F971F90933501809334
:100D9000340190937501809374010895CF93DF938C
:100DA00024E130E0B9010E945335DC01E9EBF2E0C7
:100DB000E60FF71FE60FF71FC591D59145915591A5
:100DC0004C1B5D0B4A9FC0014B9F900D5A9F900D8D
:100DD0001124B9010E9453356C0F7D1FCB01DF91A7
:100DE000CF9108951895189540911F01A091430146
:100DF000B0914401E1E9F1E030E020E0822F2417D6
:100E0000B0F451911C969C911C97591719F055817B
:100E1000951303C02F5F3F4FF1CF220F331FF9010E
:100E2000E356FE4F20813181293E334008F084E1B2
:100E300008951092210110921F0110926F011092DB
:100E40005501109220011092410110927601EAE5BD
:100E5000F1E0108211821282EBE7F1E0108A82E069
:100E6000818B1092010117861686148215821682D4
:100E7000178281EF838B08955E9894DD90E080E087
:100E8000A7CE08951F93CF93DF93162F17B818B8E6
:100E9000E82FF0E0E057FE4F949195B9262F281BDC
:100EA000E20FF11D27FDFA95E491E92BE4B9D4DDB9
:100EB000EC01812FD1DDAC01209136013091370159
:100EC00036952795C9010397BE01625E7F4F86174D
:100ED000970778F4255E3F4FC217D30750F4BA0145
:100EE000625E7F4F8617970720F481E04217530711
:100EF00008F080E014B8DF91CF911F910895CF934F
:100F000061E080E0BFDFC82F62E080E0BBDFC80F98
:100F100062E081E0B7DF8C0FCF910895AFE0B0E0E1
:100F2000E4E9F7E00C949D36B82E10922101807F01
:100F3000B9F4E5DF833081F48EDA88E592E0AADA4D
:100F400062DA8FE337DA80ED97E042DE8B30B0F47F
:100F500082DA83E091E09EDA2F96E2E10C94B936D2
:100F600006E910E078DA87EC91E094DAC8DF8330A4
:100F700009F068C01F5F143008F465C044DA0E94AD
:100F80001F198FEB90E086DA60E082E293E00E9426
:100F90003D3760E083E293E00E943D3760E081E20C
:100FA00093E00E943D3760E082E00E94541E6C0195
:100FB0009A83898361E082E00E94541E7C019C83B5
:100FC0008B8360E081E00E94541E8C019E838D83A0
:100FD00023E040E26EEFC601C2DC23E040E26EEFA8
:100FE000C701BDDC23E044EF6EEFC801B8DC2AE5A1
:100FF000C216D10424F084E190E09A838983698148
:1010000082E293E00E943D378AE5E816F10424F07D
:1010100084E190E09C838B836B8183E293E00E9468
:101020003D370A35110524F084E190E09E838D83DD
:101030006D8181E293E00E943D3782E0809345011B
:101040002EDE06C010E088E2CFDC015009F08ACF26
:10105000EB2DEF70EF87E13009F04CC0EE24E39404
:10106000F12C78EB872E72ED972E77E4A72EB12C1A
:1010700002E0E8E0DE2EF0E23F2EC12C1E2D50E310
:10108000252E89DA84DA84E595D9C701C0DAA0D99A
:10109000113009F0C2C182EF90E0FCD964E0809188
:1010A0003A0190913B0166DCAED98DEE90E0F2D929
:1010B0008091790190917A01AADA8EEB80933201C6
:1010C00017B818B814B815B888EE93E081DD14305D
:1010D00011F08B3020F4C39484E0C812D2CF88EE94
:1010E00093E076DDEFEFEE1AFE0AF8E0EF16F1047A
:1010F00009F0C3CF18E703DF882341F04CDA88E416
:1011000092E0C8D984E670DC1150A9F7A4D988EB25
:1011100090E0C0D923E044EF6FEF809138019091C7
:1011200039011DDC70D981EB90E0B4D923E044EFA4
:101130006FEF80913F019091400111DC82E080933C
:101140004501ADDD1092210186D98DEA90E0A2D94A
:1011500060E082E00E94C815809083019090840135
:10116000A0908501B09086019C868B8661E082E02C
:101170000E94C815C0908301D0908401E090850141
:10118000F0908601DE86CD8660E081E00E94C81581
:1011900000918301109184011E830D8362E080E041
:1011A0000E94C81580918301909184019C838B8358
:1011B00062E081E00E94C8158091830190918401D2
:1011C0009A87898761E080E00E94C8158091830139
:1011D000909184019A8389832F85213029F0209171
:1011E0003E01223009F0FEC1029698878F83C40128
:1011F00018DAC60116DAB801110F880B990B03E053
:1012000026E444EFCADA8E010F5F1F4F9E01215F73
:101210003F4F7801F701819191917F010A97853BBA
:101220009105C8F42E173F07A9F742E4C42E43E006
:10123000D42EF80160810E5F1F4F6E5EC6010E94C2
:101240003D37FFEFCF1ADF0A0E151F0591F7DBD8E8
:101250008BEA91E01FD982E08093450120DD0E9456
:10126000D82B2F85213029F080913E01823009F062
:10127000BFC0F1D880E0A9D881E691E00BD982E027
:10128000A4D882E390E006D920E4F22E10E03AE000
:10129000832E912CA12CB12CCCDD1092210160E089
:1012A00082E00E94C81500918D0120917B01309150
:1012B0007C0140917D0150917E01073F0CF49AC161
:1012C00000938D0120937B0130937C0140937D013D
:1012D00050937E01073F09F095C12056310941091D
:1012E0005109203935454105510508F08BC1609100
:1012F0008F0170919001CB018B569F4F8B329140A3
:1013000008F080C11F5F153008F47DC189E493E0C7
:101310000E944B37A0D88BE290E0BCD880918F011F
:101320009091900169D9E2DC18B881E087B980E238
:1013300084B982E091DB853D9340DCF714B81092CC
:1013400035011092340182E087DB7C0180917401C9
:1013500090917501909335018093340182E07CDB9C
:101360006C01CC0CDD1C109235011092340182E02E
:1013700073DB4C01A0907401B0907501B0923501FF
:10138000A092340140D884E290E084D88BE493E0CA
:101390000E943037182FD701A80DB91DAC19BD090F
:1013A00095010E94C73596010D2C000C440B550B7E
:1013B0000E949C351D5F120F612F8BE493E00E9409
:1013C0003D37812F012E000C990B16D98FDC82E05E
:1013D0008093450164DC10923E018CE008D882E4E1
:1013E00093E00E943037682F85E493E00E943D37F8
:1013F00089E18093320180E00E94FA2E2CD883E0AC
:1014000091E048D800D88FE392E044D810922101AF
:1014100082E08093450143DC9FCD123081F520911D
:10142000360130913701A8E5BBE10E94B83524ECC4
:1014300036E340E050E00E949C3529013A0181E00A
:1014400085B9F5E0F4B980E0FBDA841995099A834F
:10145000898381E184B980E0F3DA841995099C835A
:101460008B8384E085B984E184B981E0E9DA841969
:1014700095099E838D8387ED90E00CD834C013309E
:1014800049F505B92AE024B980E0DADA209136017D
:10149000309137013695279538872F83821B930B20
:1014A0009A83898382E284B980E0CADA2F81388501
:1014B000821B930B9C838B83D5B8E8E2E4B981E06F
:1014C000BFDA2F813885821B930B9E838D8389EC35
:1014D00090E0D3CF1430B9F488E492E00E944A023D
:1014E0000EDD8111A7C00E94030289819A8184D8F0
:1014F0000E94E8018B819C817FD80E94E8018D8148
:101500009E817AD8DDCD153099F415B804B980E004
:1015100097DA9A838983D4B881E092DA9C838B83AB
:1015200034B882E08DDA9E838D8389EE90E0A5CF7A
:10153000163039F504B905B980E082DA2091360118
:1015400030913701821B930B9A838983D4B8D5B825
:1015500081E076DA2091360130913701821B930BBE
:101560009C838B8334B835B882E06ADA20913601E7
:1015700030913701821B930B9E838D8385EE90E023
:101580007CCF173059F52091360130913701A8E50D
:10159000BBE10E94B835A50194010E947A3529016A
:1015A0003A0105B9F3E0F4B980E04ADA8419950903
:1015B0009A838983D5B82CE024B981E041DA841973
:1015C00095099C838B8335B824B882E039DA841975
:1015D00095099E838D8383EC90E04FCF113009F005
:1015E00082CF6ECD98878F8310923E018CE00E944F
:1015F000F701FDCD0F5FCA01B901A50194010E9459
:101600007A355BCE10E00E94030260917B017091FD
:101610007C0180917D0190917E0104E026E440915F
:101620008D01BBD80E94A60288E2DED9FA94F1109F
:1016300033CEDECE82E0C82E56CF80913E0181119E
:101640000DC082E493E00E94303761E0680F85E4CA
:1016500093E00E943D3781E080933E010895EF9230
:10166000FF920F931F93CF93DF93D62FE82FF0E0D5
:10167000ED56FE4FE491E8B9E7B915B8E62FF0E072
:10168000E057FE4FE491E4B9CE2FCC0F88E8E82E66
:1016900083E1F82E8D2FD4D98C01C4B98E159F0506
:1016A00000F1892BC9F08FE391E00E944A02D80132
:1016B00020EA36E841E050E00E94CD3528E937EBDA
:1016C00040E050E00E947A35C90122E041E467EF32
:1016D00046D917B818B814B8CDB7DEB7E6E00C9401
:1016E000C5367801D7CF0F931F93CF93DF9385E053
:1016F000B3D985E0ADD98C01EC01CC0FDD1FCC0F47
:10170000DD1FCA56DF4F10923C01C43883E0D80772
:1017100070F48FE991E00E944A020E94A60281E0E3
:1017200080933C01DF91CF911F910F9108958EEA34
:1017300091E00E944A0262E0CE011CD90E94E801B9
:101740000A3F86E01807A0F40333164050F481EBFB
:1017500092E00E944A020E94A6028DEC45D98CDBE1
:10176000E1CF88EB92E00E944A020E94A602DACF03
:101770008BEA91E0F8CFFC019C01261B370BCA01D4
:1017800070E060E0A901460F511D452F5527620FFB
:10179000240F351FAC01470F511D452F5527780FDA
:1017A000DA01AA0FBB1F8A0F9B1F4B3E20F4E217E2
:1017B000F30740F7089590E080E00895A7E1B0E0D6
:1017C000E4EEFBE00C949D368E8B162F042FA8952B
:1017D000E62FF0E0E057FE4F24912D87220F2D8B4E
:1017E000339634913A83E42FF0E0E057FE4F449172
:1017F0004B83E42EEE0C3396F490E82FF0E0E057A4
:10180000FE4F84918983880F8E87339694919F8BA6
:1018100045B94D84442A44B897B998B9862F18D948
:101820006C018B818E2985B95D845E2854B8812F27
:101830000FD9ED85E4B9812F0BD93C0114B8BDD87F
:1018400015B844B8812F04D9B60164D94C01FA8186
:10185000F7B918B82B813981232B2C8325B924B9EA
:101860008E89F6D85DD95C0115B8A7D8498145B9EC
:101870008E89EED855D99C878B87898184B98E89CA
:10188000E7D84ED91C016B857C85C50143D98032D0
:10189000E1E09E0730F4F0E28F16F1E09F0608F4D5
:1018A0006BC62B853C85820E931E8C0D9D1D881664
:1018B000990618F0DC86CB861301209155018091A2
:1018C0006F01820F9927991F02974CF0213009F080
:1018D0008EC59091520180916C01981388C5398111
:1018E0003E293A878B859C858437910508F483C10E
:1018F0000A96880F991F2816390608F07CC19F891F
:1019000097B998B954B8812F9FD86C01802FA4D86B
:101910005C01E5B8812F98D89601295A3D4F18B837
:101920002817390708F0A5C0EA81E7B9FA85F4B9A4
:10193000F5B9802F89D888349F4008F495C085E098
:101940008093210182E280932001D0924B01C092CA
:101950004A01B501C601E9D8909351018093500125
:101960009601A0E1B7E20E94B83520911B013091A9
:101970001C0150E040E00E947A3530934D012093E5
:101980004C018D898E2984B915B83F8937B938B98A
:10199000802F62D86C01812F57D8B601C6D89C0120
:1019A00090934F0180934E01909120019F7094304D
:1019B00069F540914C0150914D0160915001709139
:1019C0005101C901D8DE0097E9F0E4B84F898A8156
:1019D000482B47B9812F38D86C0117B89C01A0E17A
:1019E000B7E20E94B83520913F013091400150E0AC
:1019F00040E00E947A35A901B60180914E01909194
:101A00004F01B9DE90934B0180934A0180912001F0
:101A10008F70843019F118B89A81F92AF7B8E981E2
:101A2000E4B9FC81F5B98E8913D86C0179D87C01B1
:101A3000812F12D8A0902201B0902301BC01C601D1
:101A400074D89501DC010E94B835970150E040E060
:101A50000E947A3530934B0120934A0180915501C1
:101A60008F5F8093550151C385E08093210184E20B
:101A70006ACF2A8127B93A8534B935B98E890E944F
:101A800024056C01802F0E942C055C01498145B919
:101A90008E890E942405895A9D4F8C159D0508F05A
:101AA000A6C48F8988B987B9802F0E942405813DFB
:101AB000934008F09BC085E08093210182E38093EE
:101AC0002001B601C50131D890936B0180936A0162
:101AD000C60126D89C01A0E1B7E20E94B83520914A
:101AE00022013091230150E040E00E947A3530938A
:101AF00067012093660118B8FA81F7B98E858E299F
:101B000084B985B98E890E942C056C01802F0E94B2
:101B10002405B6010AD89C0190936901809368015D
:101B2000909120019F70943091F540916601509101
:101B3000670160916A0170916B01C9011CDE009719
:101B400011F1E5B8E4B82F8928B9EA81E22BE7B9A9
:101B50008E890E9424050E9490056C0117B89C0193
:101B6000A0E1B7E20E94B8352091380130913901E7
:101B700050E040E00E947A35A901B60180916801E9
:101B800090916901F8DD90936501809364018091E3
:101B900020018F70843021F13F893F2938B937B94E
:101BA00015B84C8144B98E890E9428055C01812FAB
:101BB0000E942C057C01C0901B01D0901C01BC012F
:101BC000C5010E9495059601DC010E94B835970178
:101BD00050E040E00E947A35309365012093640123
:101BE00080916F018F5F80936F017FC085E080934C
:101BF000210184E364CF18B88A8187B9998195B9A6
:101C0000EA85E4B98E890E942805988B8F870E9407
:101C100090059F838E83802F0E942C05998788874B
:101C20003101F4E66F0E711C2E813F81B101621605
:101C3000730608F06BC0C9010E9495056C012091E4
:101C400022013091230150E040E060E871EA83E036
:101C50009CE10E947A35D6010E94CD35E885F98550
:101C60009F0150E040E00E947A3549015A0114B8C2
:101C700015B8FF89F8B9F7B981E00E94F40444B8B7
:101C8000812F0E9428058F359D4008F483C154B8E8
:101C9000812F0E9424056C01802F0E942C059A8BB5
:101CA000898B8E890E942C059C8B8B8B89899A89C4
:101CB000813D974008F4FBC0E5B8812F0E942405C0
:101CC0008115944008F441C0809121018430E8F5E9
:101CD0008AE08093210169897A898B899C890E9495
:101CE0009505909365018093640181E090916F0167
:101CF0009F5F90936F01882309F433C400936C01B4
:101D000010936D014E8940936E012BC48E819F818B
:101D10000E9495056C01FC81F4B98E890E9428050A
:101D2000988B8F870E9490059F838E83802F0E94BF
:101D30002C0599878887BC01C6010E9495059C01E6
:101D4000A4E6B0E00E94B83589CF84E080932101F9
:101D50008DE08093200176012C143D0410F4E218EC
:101D6000F30840901B0150901C01712C612C60E81D
:101D700071EA83E09CE1A30192010E947A35D701C8
:101D80000E94CD35E989FA899F0150E040E00E9428
:101D90007A3580916F01882371F080916001909174
:101DA0006101A0916201B091630182179307A407BA
:101DB000B50708F076C0209360013093610140932D
:101DC0006201509363019601A0E1B7E20E94B83529
:101DD000A30192010E947A35309367012093660136
:101DE00069897A898B899C890E9495059093650100
:101DF0008093640181E040916001509161016091A4
:101E0000620170916301481559056A057B0508F068
:101E10004AC08092600190926101A0926201B092EA
:101E20006301688579858F8598890E9495059093CF
:101E30006501809364012E813F81A0E1B7E20E9499
:101E4000B835209122013091230150E040E00E94FA
:101E50007A35205F384D3093670120936601C0903A
:101E60001B01D0901C01F12CE12C9101A0E1B7E203
:101E70000E94B835A70196010E947A353093690116
:101E8000209368012B853C85A0E1B7E20E94B8351C
:101E9000A70196010E947A3530936B0120936A0165
:101EA00024CF80E0A8CF882309F420CFD8CFF1E653
:101EB0002F16310408F06EC021EDC21627E0D206BD
:101EC00008F468C085E08093210182E180932001BD
:101ED000C60186509F4FEB89FC898E179F0708F03B
:101EE00042C083E180932001FA81F770BF2E802FDA
:101EF000806480937C002BE02983CC24C394D12C74
:101F0000EE24EA94A3E0FA2EA89561E08B8151D5E6
:101F100054B886B18B21E9F33D8534B980917A00BC
:101F2000806480937A0080917A0086FDFCCF809156
:101F3000780090917900F701E81BF90BCE0EDF1EB7
:101F4000F981F150F983F111DFCFC601880F991F94
:101F5000880F991F69E070E00E94533570936B0100
:101F600060936A013DCEE0901B01F0901C01B60128
:101F70008B899C890E9495059701DC010E94B835E8
:101F8000960150E040E00E947A353093650120933D
:101F90006401AACF54B8E5B8812F0E9428055C01DE
:101FA000802F0E942C059F838E830E9490057C01C8
:101FB0006A147B0408F0ABC0B101C5010E9495050D
:101FC0006C0120911B0130911C0150E040E060E861
:101FD00071EA83E09CE10E947A35D6010E94CD35FA
:101FE000970150E040E00E947A3529013A013A8198
:101FF00037B918B84C8144B945B98E890E94280573
:102000006C01802F0E942C054C01812F0E942C0511
:102010007C0180E3C81681E1D80608F0E6C1998109
:1020200095B98E890E94280599878887E981E4B946
:102030008E890E942805988B8F8715B881E00E94B1
:10204000F404F981F5B98E890E9428052F85388915
:102050002034364008F079C08133914108F475C0CE
:10206000C6018A569F4F288539852817390708F0F9
:102070006CC086E080932101809155018F5F809331
:102080005501B701C4010E94950590934B018093BF
:102090004A01B701C6010E949505909351018093B2
:1020A000500114B815B83A8138B981E00E94F4049F
:1020B000498144B98E890E942805853F910528F5FC
:1020C0008C8184B9802F0E942805813D9340E8F0DF
:1020D0008E890E942C058D3D9240B8F0298124B94B
:1020E0008E890E9428058D3D924078F0498145B93E
:1020F00081E00E94F40415B88E890E942805853F6E
:10210000910518F487E08093210181E0F3C044B881
:102110002B8125B9812F0E9428055C01802F0E9408
:102120002C059F838E830E9490057C01C5012A1493
:102130003B0410F482199309B7010E9495059C0194
:10214000A4E6B0E00E94B8354BCF8A8187B99B8165
:1021500094B995B981E00E94F404EA85E4B9E5B93F
:102160008E890E9428056C010E9490057C01802FB9
:102170000E942C059D838C830E94900599878887F7
:10218000812F0E942C054C01288539852E3F39402E
:1021900008F4C0C084E0809321018CE0809320018A
:1021A000B101C7010E9495056C0120912201309177
:1021B000230150E040E060E871EA83E09CE10E9486
:1021C0007A35D6010E94CD35E885F9859F0150E02A
:1021D00040E00E947A3580915501882371F080910A
:1021E000460190914701A0914801B09149018217A1
:1021F0009307A407B50708F079C0209346013093F0
:1022000047014093480150934901B4018C819D815D
:102210000E94950590934B0180934A019701A0E19C
:10222000B7E20E94B835209122013091230150E09D
:1022300040E00E947A3530934D0120934C0181E0BB
:1022400040914601509147016091480170914901C8
:10225000441555056605770508F04AC040924601C9
:10226000509247016092480170924901B5018E81F8
:102270009F810E94950590934B0180934A0195019F
:10228000A0E1B7E20E94B83520911B0130911C01FA
:1022900050E040E00E947A35205F384D30934D0188
:1022A00020934C019101A0E1B7E20E94B835209142
:1022B0001B0130911C0150E040E00E947A353093C0
:1022C0004F0120934E012B853C85A0E1B7E20E948F
:1022D000B835209122013091230150E040E00E9466
:1022E0007A3530935101209350010FCF80E0A8CF71
:1022F0008111D8CF909155019F5F9093550188230C
:1023000009F42FC1009352018E89809353011093D9
:10231000540127C1F1E62F16310408F066C029E404
:10232000E2162DE0F20608F460C085E080932101FA
:1023300082E080932001C40186509F4F8C159D053B
:1023400008F03DC083E0809320013F893770D32E91
:10235000802F806480937C004BE04A83EE24E394DA
:10236000F12CA89560E08B8124D38A8584B985B946
:1023700086B18D21E9F7998194B980917A008064C2
:1023800080937A0080917A0086FDFCCF809178005E
:1023900090917900E80EF91EEA81E150EA83E1119B
:1023A000E0CFC701880F991F880F991F69E070E07F
:1023B0000E94533570935101609350014FCBA09010
:1023C0002201B0902301B401C6010E949505950138
:1023D000DC010E94B835970150E040E00E947A3558
:1023E00030934B0120934A01B0CF17B818B814B8F6
:1023F00015B817B8F7EC2F16F1E03F0608F4D6C071
:1024000018B82E8524B908ECEA803F89E32AE7B89A
:1024100081E00E94F4044A8147B98E890E942C050C
:10242000429710F0015099F78E8584B985B961E023
:102430008B81BFD28E890E9428054C019D8994B959
:1024400015B8EF89E7B9E8B960E08B81B2D2812F86
:102450000E9428050E9490056C01FD85F4B9812F2A
:102460000E942C057C018E890E942805B7010E94DC
:1024700095055C01812F0E942C057C018E890E94AC
:102480002805B7010E94950595012C5E3F4F28173E
:10249000390708F466C018B82A8127B9398134B9D8
:1024A00035B961E08B8185D2812F0E942C057C019A
:1024B0008E890E942805B7010E9495057C01A81607
:1024C000B90608F05BC04E8544B945B98E890E94B3
:1024D00028059C016401E8EEEE16E3E0FE0608F034
:1024E0005EC0C70164E670E00E945335C70187599A
:1024F00091098938914108F059C02E153F0508F01F
:1025000055C0C60143E0969587954A95E1F7893C09
:10251000910510F088EC90E08C0D9D1D8E159F05A7
:1025200008F044C06C157D0508F040C08091210181
:10253000833018F483E08093210120911F01822FC2
:1025400090E0FC01EF56FE4F3E8930831683880FE2
:10255000991FFC01E356FE4FF182E0822F5F20932A
:102560001F0117B818B814B815B88EE20E94DA0126
:102570006796E2E10C94B936130139CF8D8984B99D
:1025800015B89F8997B998B960E08B8112D2812FD5
:102590000E9428050E9490059C0175019CCFB701FF
:1025A00054E0769567955A95E1F7A0CF612F8E8913
:1025B00001D0D7CFB0E0A0E0E0EEF2E10C949F367E
:1025C000C82FD62FA895862F90E0FC01E057FE4F2C
:1025D0005490339624914C2F50E0FA01E057FE4F6F
:1025E00014913396049160916F0130915501630FFE
:1025F0007727771F672B09F058C0A89560912501B0
:1026000070912601660F771F660F771F7093370151
:10261000609336016091740170917501660F771FA8
:10262000660F771F70933501609334013EEB309352
:10263000320160911F01E1E9F1E030E0840F951F64
:10264000631338C018B827B914B915B9B8E1BB2E4F
:10265000D12CC12C8D2F0E942805782E692E8C2F0D
:102660000E942C057C018C199D0997FF03C0919550
:102670008195910903970CF45AC1A895BA94670102
:10268000B110E8CF809125019091260190933701F8
:10269000809336018091740190917501909335017A
:1026A0008093340189E180933201CDB7DEB7E0E158
:1026B0000C94BB3651914581450F5527551F48173E
:1026C000590701F33F5FBCCF25E8C21621E0D206CF
:1026D000C8F6043AE2E01E0708F0B5C0F8E9AF1604
:1026E000B10480F2C6010E949005AC019601A8E9F0
:1026F000B7EB0E94B8359A0150E040E00E947A356D
:1027000029013A01C5010E9490059C01A8E9B7EB97
:102710000E94B835950150E040E00E947A3588E784
:10272000C8168FE0D80608F072C0F2E0440C551CC1
:10273000661C771CFA95D1F7C301B201620F731FB3
:10274000841F951F25E030E040E050E00E947A357C
:10275000A4E6B0E00E94CD356B017C01FCEACF0E0F
:10276000FDE0DF1EE11CF11C10912101143008F086
:1027700089CFC1500C2F0D0F802F90E0EC01C65A6D
:10278000DE4F2881880F991F880F991F86559E4F0D
:10279000FC01222309F4C4C080809180A280B38010
:1027A000A7019601281939094A095B0957FF07C093
:1027B00050954095309521953F4F4F4F5F4FAAE080
:1027C000B0E00E94CD35F4E68F0E911CA11CB11C27
:1027D000A50194012C0D3D1D4E1D5F1D0E947A35F3
:1027E000232B242B252B09F04DCF133019F081E03A
:1027F0008093210182E0888380917601E82FF0E0C8
:10280000E35AFE4F00838F5F809376013BCFE8E76A
:10281000AE16EFE0BE0670F4E2E0220F331F441F55
:10282000551FEA95D1F7CA01B901640D751D861DC2
:10283000971D88CF240D351D461D571D569547956C
:102840003795279585CFC0902201D0902301672D21
:10285000762DE616F70608F4B701C7010E94950524
:102860009601DC010E94B8352B013C01C7010E9492
:1028700090059C0150E040E0C301B2010E947A350E
:1028800029013A01A0901B01B0901C01892D982DBF
:102890008017910708F4C801B8010E9495059501B9
:1028A000DC010E94B835980150E040E00E947A3582
:1028B00088E7E8168FE0F806B0F462E0440C551C97
:1028C000661C771C6A95D1F7C301B201620F731FB2
:1028D000841F951F25E030E040E050E00E947A35EB
:1028E00069017A0141CF0837EFE01E0770F4CA0191
:1028F000B90152E0660F771F881F991F5A95D1F7CB
:10290000640D751D861D971DE5CF73016201C20E12
:10291000D31EE41EF51EF694E794D794C79424CFF3
:10292000C082D182E282F38281E08883ABCE110F34
:1029300015B814B98C2F0E9428058135910508F02F
:10294000A1CE15B98C2F0E9428056C0107B908B9D2
:1029500015B854B8A8E14A2EB12CA12C8C2F0E9496
:102960002805982E892E8D2F0E942C058C018A19FE
:102970009B0997FF03C0919581959109039734F0C6
:10298000A8954A9458014110E9CF7CCE550C54B813
:102990008D2F0E9428055C01F0ECEF16F4E4FF0691
:1029A00008F492CE80EBC8168DE4D80608F06ACE03
:1029B00090CECF93C82FC09595B160FF10C0982BD3
:1029C00095B994B1892B84B982E00E94F40484B152
:1029D0008C2384B985B18C2385B9CF9108959C232C
:1029E000EFCFAF92BF92DF92EF92FF920F931F93C0
:1029F000CF93DF931AE08FE3D82E09E017B818B809
:102A000015B8D4B880E00E9428057C0181E00E94BE
:102A10002C05EC0182E00E942C059C018091210193
:102A20008930C1F417B814B8F0920401E0920301A0
:102A3000D0930601C093050130930801209307014C
:102A4000DF91CF911F910F91FF90EF90DF90BF909A
:102A5000AF90089584E0E816F10450F4C430D10535
:102A600008F04EC024303105E8F291E092600AC0CF
:102A700091E088EEE81683E0F80608F090E0C83EA2
:102A8000D340A0F3283E334008F4946097B9D0E0D7
:102A9000C0E0A89580E00E9420055C0181E00E94D2
:102AA0002C057C0182E00E942C0524E1A21625E081
:102AB000B20608F4389A24E1E21625E0F20608F49A
:102AC000399A843125E0920708F43A9A26E0A21652
:102AD000B10430F426E0E216F10410F4069738F061
:102AE0002196C43F81E0D807A1F600932101F12C83
:102AF000E12CEC16FD0631F4115009F07FCFA0CF88
:102B000091E0BDCF0E94E3042FEFE21AF20AF1CF69
:102B1000CF92DF92EF92FF92CF9320917B01309181
:102B20007C0140917D0150917E01C0918D018AE030
:102B3000C82ED12CE12CF12C8C2FCF5F213A96E8B6
:102B4000390791E049075105E0F480938D01A09188
:102B50003601B09137010E94CD3528E833E140E0DD
:102B600050E00E947A3520937B0130937C014093A2
:102B70007D0150937E01CF91FF90EF90DF90CF9039
:102B80000895CA01B901A70196010E947A35D4CFF0
:102B90008F929F92AF92BF92CF92DF92EF92FF926D
:102BA0001F93CF93DF93C82F162F880F8C0F9FEFA3
:102BB000960F890F80935701EC2FF0E0E057FE4FFE
:102BC000D491862F90E0FC01E057FE4FF490FC0179
:102BD000ED56FE4FD490809121018130A9F12091D2
:102BE0001F01A1E9B1E090E080E08217C8F11092E6
:102BF00088011092870181EF80938D0110927B01F3
:102C000010927C0110927D0110927E01EADE18B8CC
:102C1000D7B8F4B8F5B88C2F0E942C055C01812F31
:102C20000E942C05A81AB90A14B8109259011092E2
:102C300058018091580190915901843F914028F1A9
:102C400017B818B814B815B8DF91CF911F91FF903D
:102C5000EF90DF90CF90BF90AF909F908F900895AE
:102C600016963C91169731130DC03C913C130AC047
:102C7000FC01EE0FFF1FEF56FE4F448555854C3D7E
:102C8000554010F301961196B0CFD5B9D4B90E9432
:102C9000DD0414B815B80E94E404A8958C2F0E9496
:102CA0002C057C01EA18FB0880915801909159018C
:102CB0008E37910528F08BE4E816F1040CF4C0CFB0
:102CC00080915801909159012DE2E21621E0F2061F
:102CD0000CF022C201969093590180935801A9CF1C
:102CE0000E94DE048C2F0E942C058A199B09A8954E
:102CF0002FEFC21AD20A20915801309159012C1598
:102D00003D0570F75701A81AB90A1A141B040CF0F4
:102D1000ADC039ECA316B1040CF092CF28EE33E02D
:102D2000D5010E94C73597010F2C000C440B550BA1
:102D30000E947A356901809158019091590101965C
:102D4000B0E0A0E08093830190938401A09385017B
:102D5000B0938601C7018A0D9B1D32D22091830159
:102D6000309184014091850150918601DC010E94DF
:102D7000CD35609383017093840180938501909396
:102D8000860160937B0170937C0180937D01909319
:102D90007E0187EF80938D01BBDE80907B01909058
:102DA0007C01A0907D01B0907E0185E293E00E94BD
:102DB0003037A8EEB3E0A81BB10987FDB395A50194
:102DC00094010E94D73524E630E040E050E00E94B4
:102DD0007A3520937B0130937C0140937D015093A1
:102DE0007E0180911F01882329F080912101853087
:102DF00009F026CF88E08093210180918D01909188
:102E00008E019817C4F089131BCF80907B0190909E
:102E10007C01A0907D01B0907E0140917F01509196
:102E200080016091810170918201481559056A0500
:102E30007B0508F005CF40917B0150917C016091AA
:102E40007D0170917E0140937F01509380016093DA
:102E500081017093820180938E01D0928A01C09289
:102E6000890110938B01C0938C01EACED12CC12C27
:102E700062CFB7DD15B887E087B918B8FD2EFF0C13
:102E8000F4B880E480937B0084E580BF8C2F80645D
:102E900080937C0086E180937A000E94E704109280
:102EA00059011092580110928000109285001092E2
:102EB000840087E286BB81E280936F0081E080938B
:102EC0007801F5B89091210180938100953009F047
:102ED00005C181E090E00C2E01C0880F0A94EAF74A
:102EE0008095877087B9F89483B7817F83BF80917D
:102EF0007801882389F083B7816083BF78948895AF
:102F000083B78E7F83BFF894A895809158019091E4
:102F100059018034964059F7789410928100E090DE
:102F20008600F090870010926F0086E980937A0007
:102F300014B815B88C2F0E942C0520913A013091BD
:102F40003B01821B930B0C969093900180938F0111
:102F500080915801909159018032934008F070CED1
:102F60008091580190915901909386018093850139
:102F7000F0928401E092830184EF80938D0180912F
:102F800058019091590182349105C8F060918301F4
:102F900070918401809185019091860124E630E052
:102FA00040E050E00E947A35209383013093840101
:102FB000409385015093860186EF80938D01A09107
:102FC0007901B0917A01209183013091840140917F
:102FD0008501509186010E94CD3520E233E040E02A
:102FE00050E00E947A35209383013093840140930E
:102FF00085015093860120937B0130937C0140939F
:103000007D0150937E0184DD80918D01843F09F024
:1030100054C0C0907B01D0907C01E0907D01F09085
:103020007E0180EAC8168FE0D806E104F104C0F4FE
:10303000A70196012C543F4F4F4F5F4F60EA7FE04E
:1030400080E090E00E947A35C20ED31EE41EF51E89
:10305000C0927B01D0927C01E0927D01F0927E01D2
:10306000C0907B01D0907C01E0907D01F0907E01CA
:10307000C114D10421E0E206F10490F5D092BB0125
:10308000C092BA018091570190E08E5B9C4F0E94E4
:10309000303790E0B0E0A0E08C159D05AE05BF058F
:1030A00030F5C81AD90AEA0AFB0AC0927B01D0920D
:1030B0007C01E0927D01F0927E01D4B980917B0188
:1030C00090917C01A0917D01B0917E014997A1056D
:1030D000B10508F4B5CDD12CC12C83CED7B803CF20
:1030E00081E090E09093BB018093BA01CBCF34E1B3
:1030F000C30ED11CE11CF11CC816D906EA06FB065A
:1031000010F40E941D0B10927B0110927C01109212
:103110007D0110927E01D1CF892B31F485E1E81633
:1031200085E0F8060CF0A5CEC701D12CC12CE3CD6B
:103130001F920F920FB60F9211248F939F93B59900
:1031400004C080917801811109C0B59B10C08091A5
:103150008600909187008A3F910548F4809158013C
:1031600090915901019690935901809358019F9134
:103170008F910F900FBE0F901F9018951F920F9276
:103180000FB60F9211248F939F9310927801B09BEA
:1031900010C080918600909187008A3F910548F485
:1031A0008091580190915901019690935901809313
:1031B00058019F918F910F900FBE0F901F901895FF
:1031C0000F9221E08C32920710F48CE291E08C5245
:1031D000914069E170E00E94533599E16B3210F043
:1031E000982F6BE2981BE6ECF2E0E60FF11DE60F7C
:1031F000F11D9F93CF010E943037482F3196CF01A8
:103200000E943037582F3196CF010E943037282F37
:103210003196CF010E943037382F6F91421B530BEC
:10322000649FC001659F900D11240C9669E170E0C8
:103230000E945335620F731FCB010F900895B0E0C9
:10324000A0E0E5E2F9E10C94A33688E893E19093DD
:1032500026018093250190933701809336018EEBF0
:103260008093320118B880E187B90E94EC0417B846
:1032700084E00E942805AC018B5C9840833F91401C
:10328000A0F481E080934101209136013091370113
:10329000AFEBB9E00E94B8359A0150E040E00E94DF
:1032A0007A35309326012093250180912501909154
:1032B000260190933701809336018EE00E942C0501
:1032C0008EE00E94280590933B0180933A010E9472
:1032D000760687DB18B8C1E0C7B985E185B9C4B9FE
:1032E00080E00E9428058C0182E0D82ED7B8D4E077
:1032F000D4B981E00E942805080F191FD7B990E1C1
:10330000C92EC4B882E00E942805080F191F15B8FD
:10331000C8B9C7B9C4B980E00E9428050E949005C9
:103320007C01D8B8D7B8D4B981E00E9428050E94A2
:103330009005E80EF91ED8B9D7B9C4B882E00E944A
:1033400028050E949005E701C80FD91F17B818B8C3
:1033500014B880913601909137016C01CC0CDD1CC2
:10336000C80ED91EC01AD10ACC1ADD0AF12CE12CE4
:103370009801A0E9BAE10E94B835A70196010E9420
:103380007A3549015A013093400120933F019E0153
:10339000A0E9BAE10E94B835A70196010E947A35EA
:1033A00030933901209338012057354E3093230153
:1033B0002093220180E7881A85EE980A90921C01DA
:1033C00080921B0189E180933201CDB7DEB7ECE03A
:1033D0000C94BF36CF92DF92EF92FF920F93CF9370
:1033E000DF93F82ED62FC42F0E94E50186E191E0ED
:1033F0000E944A0222D26D2F8F2D0E94702DC09004
:10340000BE01D090BF01E090C001F090C101809159
:10341000010187FD05C0C114D104E104F10421F0CC
:1034200082E191E00E944A028D2F0E94E501C114C1
:10343000D104E104F10409F474C00E94E801809110
:103440005D010E944503CC2309F467C080914201CD
:103450008D3030F48650990B845B9C4F0E944A0259
:1034600080E00E94C402CD28CE28CF2809F45EC097
:103470006091BE017091BF018091C0019091C10126
:1034800003E028E447EF0E94CD0385E291E00E942B
:103490004A0287E593E00E94383722E046E464EF71
:1034A0000E94AF048091B6019091B701A091B8013C
:1034B000B091B901892B8A2B8B2B01F180E00E94FE
:1034C000C4026091B6017091B7018091B8019091EA
:1034D000B90104E028E440E00E94CD0380E291E0DD
:1034E0000E944A0223E040E26FEF8091BC0190917C
:1034F000BD010E94AF040E94A60207C080E00E94A6
:10350000AC02809145018823B1F3DF91CF910F91F7
:10351000FF90EF90DF90CF90089580E00E94C4026A
:10352000A7CFC11193CF80E00E94C40280915D01BA
:103530000E944503809101018E3F0CF0B3CF85E4DA
:1035400091E00E944A026091090170910A01809104
:103550000B0190910C0103E028E4409101010E94CD
:10356000CD03A0CFCF92DF92EF92FF920F93CF9334
:10357000C82F0E94FC0180918B010E94E50181E629
:1035800091E00E944A0238D560918B0180918C01B4
:103590008BD37C019093880180938701C09089012F
:1035A000D0908A018AEFE8168FEFF80678F4C114FC
:1035B000D10441F081E090E0C11102C090E080E0D0
:1035C000892B21F087E191E00E944A0280918C01D1
:1035D0000E94E501CC2309F44BC0909142018DE09B
:1035E000891B0E94EB0187E790E00E944A020E943B
:1035F000030260917F01709180018091810190911F
:10360000820104E026E440918E010E94CD038AEFFE
:10361000E8168FEFF80668F480E591E00E944A0210
:1036200022E044EF6EEF80918701909188010E9423
:10363000AF040E94A602CC2391F0CD2881F080E057
:103640000E94C40289E491E00E944A0222E045E21D
:103650006FEF8091890190918A010E94AF040E94CE
:10366000A602CF910F91FF90EF90DF90CF90089539
:103670008091890190918A01892B69F088E491E019
:103680000E944A0222E045E26FEF80918901909109
:103690008A010E94AF040E94A602A9CF8F7051F444
:1036A00088EC0E94F4040E9403020E94730B88ECD1
:1036B0000C94F40408958F3021F490913C019130E2
:1036C00011F08F5F089580E00895CF9382E890E035
:1036D0000E944027C0E00E94190760E082E00E943B
:1036E000DA1262E080E00E94DA120E94FC0180910E
:1036F00076018823C9F041E062E080E06BDE8C2F28
:10370000CDDF88EE93E00E94E805811109C0809129
:103710001A01843028F48C2FCEDFC82F8A3FD8F2CC
:103720000E942B02CF91089582E890E00E944A0205
:1037300080E593E00E944A020E9403028FE30E9408
:10374000DA010E94A602DBCF0F931F93CF93DF9382
:10375000C0E0D8E012EF0DE00E94190760E082E0BF
:1037600017DAD093210180918D01843FE1F480919B
:103770007B0190917C01A0917D01B0917E01843606
:103780009105A105B10578F440E060E082E00E9477
:10379000F82A60937B0170937C0180937D01909364
:1037A0007E0110938D0180918D01823F6CF1809399
:1037B0008E0180917B0190917C01A0917D01B0915F
:1037C0007E0180937F0190938001A0938101B0934B
:1037D000820181E0C7DE8C2F61DF80ED97E00E94DF
:1037E000E80581110AC080911A01843030F48C2FD1
:1037F00062DFC82F8A3F08F4AFCF0E942B02DF910F
:10380000CF911F910F9108950E94FC018BE790E0EA
:103810000E944A0280914201902F981B892F0E949A
:10382000EB0187E790E00E944A020E9403028FE3C7
:103830000E94DA010E94A602CECFA6E1B0E0E3E248
:10384000FCE10C949D3682E080930101809121017E
:10385000813009F0EBC180917601813009F0E6C139
:1038600040905D0124E0429EF0011124E655FE4F98
:1038700080819181A281B381893032E59307A105CE
:10388000B10508F0D3C11C01712C81E0871508F443
:10389000D1C1842D0E943B03982E892EE82DF0E0A3
:1038A000ED56FE4F5490892D90E0FC01E057FE4FFD
:1038B000E49115B818B8272D2170622E30EF231629
:1038C000310408F0BCC12111BAC100911B01109153
:1038D0001C0100591A4121E030E0092C02C0220FDE
:1038E000331F0A94E2F7C901852987B934E1398B7E
:1038F000892D0E9424055C01882D0E942C0524E05E
:10390000A216B10410F4049728F039893150398B8C
:103910003111EECF80E480937B0094E590BF892D38
:10392000806480937C0026E120937A00F12CE12CC6
:1039300010928000109285001092840037E236BB0E
:103940000E94E704872D90E09A8B898B61107EC1DD
:1039500081E88093810058B886B385FD0CC080FF54
:10396000FBCF21E026BBA89597012F5F3F4F790140
:103970002035310589F718B81092810030E236BB46
:103980002091860030918700690140918400509118
:1039900085002417350738F480FF05C081E086BB19
:1039A0009FEFE91AF90A86E980937A00B4E15B2E69
:1039B000892D0E9424055C01882D0E942C0524E09D
:1039C000A216B10410F4049718F05A945110F0CFD5
:1039D00080903F0190904001820C931C800E911EBC
:1039E00020911D0130911E0100398AE1180708F06D
:1039F00036C169E191EEC916D104E104F10430F455
:103A0000C60165E070E00E945335645128523109C7
:103A1000261B310967FD339566E0862F90E0B0E004
:103A2000A0E08C159D05AE05BF0508F021C1C81AA0
:103A3000D90AEA0AFB0A662029F082E2C80ED11CE4
:103A4000E11CF11C90E5E916F10418F0C12CD12C11
:103A500076018BE0C816D104E104F10428F091E06E
:103A6000C91AD108E108F108B12CA12CA8EEB3E0E5
:103A70000E94B8356B8B7C8B8D8B9E8BA091360111
:103A8000B091370198010E94B835A50194010E94B8
:103A90007A35442755276B897C898D899E890E94B8
:103AA0007A35C9010E94CE06FC01A5019401C70127
:103AB000B6010E9438354B015C01BF0190E080E007
:103AC000E3E0660F771F881F991FEA95D1F76B5FB8
:103AD0007F4F8F4F9F4F2AE030E040E050E00E9440
:103AE0007A35C501B4010E947A35E989FA89EE0F69
:103AF000FF1FEE0FFF1F81E090E08C0F9D1FE80F6E
:103B0000F91F2083318342835383611018C09CE0E6
:103B1000C916D104E104F10490F07394E989FA899B
:103B20003196EE0FFF1FEE0FFF1F81E090E08C0F2C
:103B30009D1FE80FF91F2083318342835383A8958B
:103B4000739493E0971508F0A0CE18B884E00E9413
:103B5000F40491E00D811E812F81388549815A81BD
:103B60006B817C81401751076207730708F090E072
:103B70000D851E852F85388949855A856B857C85FD
:103B800082E0401751076207730708F483E024E0DE
:103B9000829FD001112421E030E02C0F3D1FA20FA5
:103BA000B31FE92FF0E0EE0FFF1FEE0FFF1FE20F34
:103BB000F31F0D911D912D913C91408151816281A6
:103BC0007381041715072607370708F0892F34E09B
:103BD000839FF001112421E030E02C0F3D1FE20F04
:103BE000F31F408151816281738140930901509399
:103BF0000A0160930B0170930C0180FD3DC030EF12
:103C000023163104C8F58BEF8093010180910901DF
:103C100090910A01A0910B01B0910C01892B8A2B84
:103C20008B2B11F41092010117B814B86696E2E1DB
:103C30000C94B936842D0E943B034C012FCEE4B97D
:103C400057B800911B0110911C0150CE58B80E942A
:103C5000F00490E296BB81E8809381007DCEC401A0
:103C600060EB76E30E945335695F285D3F4FD5CE08
:103C7000C12CD12C7601DFCE8CEF80930101CB01DA
:103C8000BA016B5F7F4F8F4F9F4F2AE030E040E0DB
:103C900050E00E947A352093090130930A01409345
:103CA0000B0150930C01B2CFAEE1B0E0EAE5FEE1CA
:103CB0000C949D36662EB82E860F898320912101A3
:103CC000283059F520917F01309180014091810188
:103CD0005091820157FD15C010918E0109C0CA0193
:103CE000B9012AE0312D412D512D0E947A351F5FF7
:103CF000173FACF391F4243160E0360741055105DC
:103D000018F48FEF9FEF45C1173F39F480E0281773
:103D10008DE738074105410510F020E03DE72C8B89
:103D20003D8B26EDA22EE3E9F1E0E60DF11D859134
:103D300080608E87E3E9F1E0EB0DF11D85918060F5
:103D40008F87E0E9F1E0E60DF11D7590E0E9F1E023
:103D5000EB0DF11DC59090EC692AB92A81E0E82E9F
:103D6000F12C012D112D8E831F82188619861A863B
:103D70001B861C861D86188E198E1B8E1A8E0E941D
:103D8000F11480E088B960927C000E94E8043F85CD
:103D900037B975B874B852E05A95F1F700000000D1
:103DA00014B815B8DD243E8537B975B874B860927B
:103DB0007C00A895A0927A0080917A0086FDFCCFC5
:103DC0002090780030907900B0927C004C2DE5D0A6
:103DD0002091780030917900288B398B3F8537B955
:103DE000C5B8C4B8A895B0927C00A0927A00809122
:103DF0007A0086FDFCCF6091780070917900609226
:103E00007C00472DCAD0409178005091790014B8B9
:103E1000CB01820D931DE80EF91E011D111DEA82D2
:103E2000FB820C831D8388899989840F951F2E81BD
:103E30003F8168857985280F391F611D711D2E838B
:103E40003F836887798722E32417150650F075B8F9
:103E500074B80E94F20414B815B8888D8395888FC1
:103E600007C0483E73E0570718F08A8D83958A8F04
:103E7000888999892817190660F03E8537B9C5B831
:103E8000C4B80E94F20414B815B8898D8395898F3F
:103E900007C0883E73E0970718F08B8D83958B8F52
:103EA000D3945D2D5F3F49F05F3731F45C2D550FA2
:103EB000C50E572D550F750E76CF40903F0150908F
:103EC0004001440C551C9201E4E0240D351DEA9597
:103ED000E1F72901570168016E807F808884998409
:103EE000209121012830C1F46C897D89812D912D8B
:103EF00065507040804090409B01AC010E94383575
:103F00009B01AC0160E779E786E190E00E947A3599
:103F1000621A730A840A950AA614B704C804D9045D
:103F200028F46A187B088C089D0803C0662477244F
:103F30004301B20180E090E09301A4010E94383572
:103F40009501A6010E947A3580E293E07981870F7E
:103F5000911D0E943037682EC90160E170E00E9417
:103F60005335260F371FC9016816190618F486192C
:103F700091090FC08C5E9F4F8615910540F48C8986
:103F80009D89843981E1980710F00E941D0B812DD5
:103F9000912D6E96E2E10C94B93610928100109248
:103FA000800010926F0010928B0010928A0057E0F0
:103FB00056BB5FEF509385005093840055E05093BB
:103FC0007B0056EB50937A0051E05093810058E209
:103FD0005A95F1F7000045B944B955E05A95F1F703
:103FE000000014B815B81092810080917A0084FF07
:103FF000FCCF80937A000895B0E0A0E0E2E0F0E228
:104000000C949F360091890110918A0101151105C8
:1040100009F08EC0E0918B01F0E0ED56FE4FD49197
:10402000E0918C01F0E0E057FE4FC4910E94F11442
:1040300018B815B8D7B9C4B980918C010E942C0565
:104040007C01D0918E018CE08D0F843008F070C01F
:1040500080917F0190918001A0918101B0918201B6
:10406000D15F2AE0422E512C612C712CBC01CD0174
:104070006B5F7F4F8F4F9F4FA30192010E947A3554
:1040800049015A01DA01C901DF5FD73079F7893870
:1040900023E19207A105B10508F04AC0059708F48D
:1040A00047C0C5B9C4B9D0E0C0E0C815D90508F407
:1040B00044C014B815B8A89585E08093320180916A
:1040C0008C010E942C05EC01CE19DF09E816F906D7
:1040D00010F0D0E0C0E0D12CC12CC814D90488F174
:1040E00080918C010E942C0529E120933201A89532
:1040F000E816F90618F48C010E191F090C171D0794
:1041000088F49E01201B310B69F0A4EFB1E00E94FE
:10411000B8359E0150E040E00E947A3530938A0124
:10412000209389010E94F11417B818B814B815B873
:10413000CDB7DEB7E0E10C94BB360E94EE042296C8
:10414000B4CF0E94EE048FEFC81AD80AC6CFA8E0F9
:10415000B0E0EDEAF0E20C949D368DEB91E090D664
:1041600084E293E00E94303721E030E002C0220F69
:10417000331F8A95E2F73D832C832130310559F0B6
:104180006BE080E00E941B028FE20E94DA018C81CA
:104190009D810E94070330EF3B8354980E94E30403
:1041A00014BC16BC10920E0110920F011092100157
:1041B0001092110161E065BB60936E001092800067
:1041C00083E19AE790938B0080938A00E1E0F0E02E
:1041D000F0938900E093880010928500109284008B
:1041E00083B5816083BDF6E0F6BBF0936F007894F1
:1041F00024E02093810032E339831A820E94DC0498
:10420000A8954F9902C061E06A8385B5882329F09B
:104210008981815089838111F1CF15BC86B5809346
:104220000E010E942B0286E60E94DA010E94F40130
:1042300084E293E00E943037E1E0F0E002C0EE0F4C
:10424000FF1F8A95E2F7FF83EE8320910E013091E4
:104250000F014091100150911101DF010E94CD35F5
:1042600047E00E94C404549880918100882319F08B
:104270008FE30E94DA011092810010926F0020916A
:104280000E0130910F014091100150911101DA019E
:10429000C9010197A109B109813F9048A105B10564
:1042A00008F09BC0AAE0B0E00E94CD35685F7F4F68
:1042B0008F4F9F4F23E096958795779567952A9521
:1042C000D1F7660F771F7093710160937001549856
:1042D0000E94E30416BC10920E0110920F0110927E
:1042E00010011092110121E025BB20936E00109265
:1042F00073011092720134E03BBB809168008460CE
:1043000080936800789480916D00806180936D0047
:1043100019820E94DC04A8954F9902C061E06A836B
:1043200080916D0084FF05C089818F5F89838A3FFA
:1043300081F715BC80916D008F7E80936D00809118
:1043400068008B7F8093680086B580930E010E9481
:10435000030284E50E94DA010E94F401E0917001F9
:10436000F0917101FD83EC8360910E0170910F015A
:10437000809110019091110128EA31E640E050E06F
:104380000E94DD35EC81FD815F01C12CD12CE12C37
:10439000F12C00E010E00E943136EE81FF81612CAB
:1043A000712C43015F010E943136490148875E83C9
:1043B0001B012C012C813D812038310520F107E0C3
:1043C00023E745EFB4018885952F0E94CD033981FD
:1043D0003A3F89F58FE30E94DA0110926E0080ED7A
:1043E00097E00E94E8052A81820F49F480911A0122
:1043F000833028F43B8131503B833111CECE289657
:10440000E2E10C94B93684E6A82EB12CC12CD12C53
:10441000E12CF12C00E010E0940148855E81C2019E
:104420000E943136F22FE42F07E023E747EF6F2F8A
:10443000732F8E2FC9CF940148855E81B101C201CF
:10444000263E354B410551056105710581059105F4
:1044500021F218F20E94FC0186E60E94DA010E9415
:10446000F401940148855E81B101C2015401211516
:10447000FAEC3F07FAE94F07FBE35F0761057105B7
:1044800081059105F1F0E8F06A017101820120E0F7
:1044900030E04AE85DE568E775E483E691E00E9474
:1044A0003136F22FE42F07E028E44AEF6F2F732F05
:1044B0008E2F952F0E94CD038AE70E94DA0154982F
:1044C0008CCFC884DE807101820120E030E44AE7AD
:1044D00050E163EF7AE580E090E00E943136F22F00
:1044E000E42F07E028E44DEFE1CF1F920F920FB6C3
:1044F0000F9211248F939F93AF93BF9378948091E1
:104500000E0190910F01A0911001B09111019F5FD8
:10451000AF4FBF4F80930E0190930F01A0931001F6
:10452000B0931101BF91AF919F918F910F900FBEEA
:104530000F901F9018951F920F920FB60F92112493
:104540008F9386E085BD8F910F900FBE0F901F90C7
:1045500018951F920F920FB60F921124A8951092E2
:10456000810015BC0F900FBE0F901F9018951F92E1
:104570000F920FB60F9211242F933F938F939F9317
:104580008091720190917301892B11F481E085BDB6
:1045900020917201309173018091700190917101AD
:1045A0002817390730F015BC80916D008F7E8093FD
:1045B0006D00809172019091730101969093730147
:1045C000809372019F918F913F912F910F900FBE19
:1045D0000F901F9018958D3008F08D50811107C0F5
:1045E00089E292E00E944A020C94A6020895823069
:1045F00019F48DEB91E0F6CF813019F484EB91E062
:10460000F1CF833019F480E092E0ECCF843019F4DC
:1046100085EF91E0E7CF853019F48DE890E0E2CFA7
:10462000863019F482E890E0DDCF873019F48BE70B
:1046300090E0D8CF883019F484EE91E0D3CF893060
:1046400019F485ED91E0CECF8A3019F481E292E041
:10465000C9CF8B3019F487E192E0C4CF8C3021F6BA
:104660008CE092E0BFCF0F93CF938DE890E008D419
:10467000C0E01092210160E082E017D48091210116
:10468000883009F050C00E94FC0183E40E94DA01E6
:104690000E94F40160917F017091800180918101FD
:1046A0009091820103E026E440918E010E94CD03A7
:1046B0000E94A60260918B0180918C01F5DA9093A3
:1046C0008801809387010E94030281E591E00E94A6
:1046D0004A0280918701909188018A3F2FEF9207CB
:1046E000F0F422E044EF6EEF0E94AF040E94A602B5
:1046F0008C2F0E944E1B88EE93E00E94E8058111EA
:104700000BC080911A01843038F48C2F0E945B1BFF
:10471000C82F8A3F08F4ADCFCF910F9108958FE352
:104720000E94DA01E3CF0E94FC018DE890E00E9434
:104730004A020E94A6020E94CB02DACF1F93CF93B7
:10474000DF9381E292E09CD3C0E0D0E01AE00E94C7
:10475000030289E391E00E944A0283E00E94280557
:1047600063E09C01129FC001139F900D11240E94D1
:10477000BA040E94A6028C2F0E944E1B88EE93E082
:104780000E94E80590911A0181110AC0911108C098
:10479000D0E08C2F0E945B1BC82F803FC0F208C066
:1047A000C0E0963028F48F3538F0DF5FD53088F3DD
:1047B000DF91CF911F910895882351F3F7CFA5E0A2
:1047C000B0E0E5EEF3E20C949D3680E092E058D341
:1047D00080E18093800010926F0081E090E09093E0
:1047E00089008093880010928B0010928A0083E0E9
:1047F00086BB1092820088E08093810015B881E129
:1048000084B918B881E087B9229A89E08093810041
:10481000312C20E03AE0398341E04D83812C912C0A
:104820005401839451E15C83832D90E00A966EE1FC
:1048300070E00E9467356B83F62E621761F00E946C
:10484000FC0180E092E00E944A0210E01F1508F48B
:10485000CEC00E94A6028D8169810E944735A92F92
:10486000B0E0A50194010E94CD356B017C018C81E3
:10487000823150F0652D762D872D902F0E947A354C
:10488000C60ED71EE81EF91E0E9403029D812981D3
:10489000212C921306C081E03C81323108F480E083
:1048A000282E2A828CE3211005C04C818EE34631EC
:1048B00008F082E50E94DA014C81C701B6010E942E
:1048C000C404C701B6017E5E85489F4FA7019601CB
:1048D000220F331F441F551F0E947A35CA014F3FD4
:1048E000510509F008F488C08DE08093810080E0D4
:1048F00094E02C01712C612CCA01B901A301920131
:104900000E947A3521503109309389002093880024
:104910008091880090918900892B31F481E090E0AA
:1049200090938900809388000091880010918900FD
:1049300060E079E08DE390E0A30192010E947A3576
:10494000A4E6B0E00E94CD350F5F1F4F980150E004
:1049500040E00E947A3529013A01A4E6B0E0A701BF
:1049600096010E94CD35A3019201261B370B480BFF
:10497000590BCA01B90102E228E44EEF0E94CD03AF
:104980008AE70E94DA010E94A60280ED97E00E9469
:10499000E805282F811150C080911A01811101C0B2
:1049A000232D80911A018B30B8F48091190187FD75
:1049B00087C03D81830F90E03981632F70E06F5F86
:1049C0007F4F0E9467358D83822F0E945B1B382E9C
:1049D0004FEE481708F055C01092810010928000E9
:1049E00017B814B822982596E2E10C94B9368EE2F5
:1049F0000E94DA011F5F2ACF4034510530F08CE06D
:104A00008093810080E091E074CF4830510530F010
:104A10008BE08093810080E490E06BCF892B31F0B4
:104A20008AE08093810088E090E063CF89E0809302
:104A3000810081E090E05DCF883C70F68135C8F15F
:104A4000222029F13C8131503C83C501B4012AE088
:104A500030E040E050E00E947A3549015A01C70138
:104A6000B6010E947A35CA01B9012AE030E040E07F
:104A700050E00E947A356A834AE049832A812D8377
:104A8000312C2B815C2C6D2C7E2C0F2DCDCE5C819E
:104A90005631E0F45F5F5C83563111F485E1898320
:104AA000AAE0B0E0A50194010E94CD354B015C0164
:104AB000E5CF8B3018F09D819F5F9D8320E071CF03
:104AC0008F5F4981840F5D81850F75CF5AE05983CF
:104AD00081E08A83812C912C5401839491E19C8301
:104AE000CDCFB0E0A0E0E7E7F5E20C949F3685EF8C
:104AF00091E0C6D183E28093800010926F008FEF27
:104B000090E090938B0080938A0083E086BB1092A4
:104B1000820015B881E184B918B881E087B9229A7A
:104B200081E090E0909389008093880089E08093F1
:104B3000810010E080E0D2E300E094E6C92ED12CA1
:104B4000E12CF12C88248A9423E0922EA12CB12C04
:104B5000D817A1F1D43608F0D4562D2F30E0AFEF9E
:104B6000B3E00E94B8356E5C7F4F8F4F9F4FA70117
:104B700096010E947A3529013A0130938B002093E7
:104B80008A000E940302A8EEB3E0A30192010E94F2
:104B9000CD3561507E4F8F4F9F4FA50194010E94EC
:104BA0007A35C90125E045E26FEF0E94AF040E940B
:104BB000A602093218F08CE30E94F40480E496E027
:104BC0000E94E805082F8338A0F480911A018B30E9
:104BD00080F4C0911901C7FD1AC0CD0F0333C8F08E
:104BE000C65F10E0812F0E945B1B182F8D2F103F96
:104BF00060F017B8109281001092800014B82298CB
:104C0000CDB7DEB7E0E10C94BB36DC2FA1CFCC5999
:104C1000E4CF002311F0CF5FE4CF8111E2CFE2CFE8
:104C20000F931F93CF93DF9384EE91E029D185E218
:104C300093E00E943037C82FD0E00E9403020C2F6F
:104C40000C2E000C110BC7FF37C08DE20E94DA0159
:104C500023E045E26FEF88279927801B910B0E9484
:104C6000AF040E94A60280E496E00E94E80581114C
:104C700028C090911A01911126C090911A019B3081
:104C800088F490911901C90F882319F08932E8F04E
:104C9000CF5FC135E4F0C5568D2F0E945B1BD82F26
:104CA000803F58F26C2F85E293E00E943D37DF9100
:104CB000CF911F910F91089523E045E26FEFC80156
:104CC000CECF823878F7D0E0D8CFC150E2CFCC3EFB
:104CD0001CF7CB59E1CF0F931F93CF93DF9384EB56
:104CE00091E0CED084E293E00E943037C82FD0E02C
:104CF00001E010E00E94030223E040E260E0C8010E
:104D00000C2E02C0880F991F0A94E2F70E94AF048C
:104D10000E94A60280E496E00E94E805811125C069
:104D200090911A01911123C090911A019B3098F42F
:104D300090911901C90F882319F08932D0F0CF5F03
:104D4000C138C8F4CA3008F0C0E08D2F0E945B1B48
:104D5000D82F803F78F26C2F84E293E00E943D3799
:104D6000DF91CF911F910F9108958238A0F7D0E085
:104D7000DBCFC150E5CFC9E0E8CF813011F4ABCF34
:104D80000895823019F480E0E2C90895833011F467
:104D900016CD0895843011F4A4CE0895853011F411
:104DA00062CC0895863019F40C94651B0895873001
:104DB00029F40E942B020C94A41B0895883011F44E
:104DC0002FCF0895893021F481E10C948E07089546
:104DD0008A3011F4B3CC08958B3011F4A0C108953A
:104DE0008C3011F40C943C070895CF93DF9384E347
:104DF00092E046D0D0E0C0E00E9403028C2FEBDBB3
:104E000080E49FE10E94E8058111D0E090913C018F
:104E1000913009F4D0E0823330F4909177019923F6
:104E200071F0882361F0CC23D9F08C2FA6DF10928B
:104E30001A011092190184E392E022D080E090914F
:104E40001A019A3068F490911901992319F097FD8D
:104E500010C0D0E0C90F811111C0DF5FD23829F432
:104E600080E0DF91CF910895D1E0CD3028F2CD5090
:104E7000C3CF935FC90F8823B9F3D0E0CF5FEDCFE5
:104E8000CF93DF93EC010E942B02CE010E944A02D5
:104E9000C4E682E00E94F4044F9902C0C150C9F7F1
:104EA0000E940302DF91CF910895B0E0A0E0EBE50E
:104EB000F7E20C94A636182F062F862F90E0FC01FF
:104EC000ED56FE4FF490E12FF0E0E057FE4FC49115
:104ED000FC01E057FE4FD491109288011092870197
:104EE00010927B0110927C0110927D0110927E0144
:104EF00087EF80938D010E94F11418B8F7B8D4B9E8
:104F0000D5B9812F0E942C057C01802F0E942C0591
:104F1000E81AF90A14B8109259011092580130E0B9
:104F200020E05CE2C52EDD24D394DAE064E6B62E00
:104F30008091580190915901843D904348F017B8F1
:104F400018B814B815B8CDB7DEB7E9E00C94C2367E
:104F5000C5B98091580190915901892B91F0F601C2
:104F6000E21BF30B6091580170915901D29FC0016F
:104F7000D39F900D11240E945335E617F70708F0D0
:104F8000A5C0C4B90E94E70414B88091580190915B
:104F900059010196909359018093580115B80E94C8
:104FA000E904A895812F0E942C059C012E193F0928
:104FB00080915801909159018B31964020F0253213
:104FC00031050CF4BCCF2D3281E038070CF4B0CFA2
:104FD0008091580190915901019729F4253185E07C
:104FE00038070CF0ACCF8091580190915901880F8F
:104FF000991FB0E0A0E08093830190938401A09377
:105000008501B0938601C90168E270E00E946735AE
:10501000CB01820F931F0E94E018209183013091F1
:1050200084014091850150918601DC010E94CD35BB
:10503000609383017093840180938501909386012E
:1050400060937B0170937C0180937D0190937E013E
:105050000E948815C0907B01D0907C01E0907D017A
:10506000F0907E0185E293E00E943037A8EEB3E035
:10507000A81BB10987FDB395A70196010E94D735FA
:1050800020E137E240E050E00E947A3520937B0136
:1050900030937C0140937D0150937E0188E08093A2
:1050A000210120937F01309380014093810150932F
:1050B000820180918D0180938E0110928A0110925D
:1050C000890100938B0110938C0139CF8091580195
:1050D000909159010B97C8F0609158017091590156
:1050E000B29EC001B39E900D11240E9453356E17DD
:1050F0007F0758F4C4B90E94DC0414B880915801A9
:10510000909159018C599F4F45CFC4B90E94E20438
:1051100014B880915801909159010A963BCFCF92D3
:10512000DF92FF920F931F93CF93DF930E942B0286
:1051300083E091E00E944A020E9403028FEB90E01C
:105140000E944A0282E293E00E94303723E040E26C
:105150006EEF90E00E94AF0483E293E00E9430374C
:1051600023E040E26EEF90E00E94AF0481E293E022
:105170000E94303723E044EF6EEF90E00E94AF04CE
:1051800088E99AE30E94E80580911A018B3008F0C3
:1051900007C18091190187FDC9CF0E942B0288EBBE
:1051A00090E00E944A0223E044EF6FEF80913801C3
:1051B000909139010E94AF040E94030281EB90E0BC
:1051C0000E944A0223E044EF6FEF80913F019091EB
:1051D00040010E94AF0488E99AE30E94E8058091AB
:1051E0001A018B3008F0DCC0809119018F3F0CF45C
:1051F0009DCF8F3F91F20E942B028DEA90E00E949A
:105200004A0287E493E00E9430378251990B0E9452
:10521000110388E493E00E9430378251990B0E9479
:10522000110384E493E00E94303723E046E464EF06
:105230008251990B0E94AF040E94030283E00E94F6
:10524000EB0183E493E00E9430378251990B0E9476
:10525000110386E493E00E9430378251990B0E943B
:10526000110382E493E00E94303723E046E464EFC8
:105270008251990B0E94AF0488E99AE30E94E805E5
:1052800080911A018B3008F08BC0809119018E3FFC
:105290000CF44CCF8E3F09F480CF8F3F09F4ABCF95
:1052A0000E942B028BE290E00E944A0289E493E084
:1052B0000E9438370E94FC020E94030284E290E0C0
:1052C0000E944A028BE493E00E943037082E000CC3
:1052D000990B0E94FC0260E081E00E941B02C0E08A
:1052E000FC2EFF0CFC0ED0E0FA94CD1709F44CC054
:1052F0000F2D0D0F10E0000F111FC8018C5C9C4F8B
:105300000E9438376C01C8018A5D9C4F0E94383773
:105310008C018091A901882309F44AC088E99AE3A5
:105320000E94E80580911A018B30D0F58091190117
:105330008C3F0CF4FBCE8C3F09F42FCF8D3F09F44A
:105340005ACF8E3F09F4ACCF8F3F29F20E942B0237
:1053500085EA90E00E944A028C2F0E94E5018AE3D0
:105360000E94DA018D2F0E94E50180E00E94AC02CC
:1053700023E040E26EEFC6010E94AF0423E046E462
:1053800062EFC8010E94AF04DF5FD33009F0ADCFF8
:10539000CF5FC33009F0A4CF88E99AE30E94E80503
:1053A000DF91CF911F910F91FF90DF90CF900895E3
:1053B00080E00E94AC02CCCFA0E8B0E0E2EEF9E2DF
:1053C0000C949F3650909101D0909701F0909801E5
:1053D000852D90E09C0120573E4F4901452C689453
:1053E00046F8AF2CB12CF501E057FE4F8491F40143
:1053F000C490C82A1491110F182B40927C006D2C78
:10540000712CF301ED56FE4FE491E7B918B815B8C9
:1054100014B80E94E804E12E012F212F40E4BE01C0
:105420006F5F7F4F80E090E10E943400FE0175962F
:1054300010E08AE021913191369527953695279590
:10544000121720F48F5F122F8034A1F7912F9695B9
:1054500096959695F12FF91B9F2FE82FF0E0EE0F10
:10546000FF1F21E030E02C0F3D1FE20FF31F8034BF
:1054700039F48F2DF0909701FD104CC0D82EB1CF8C
:10548000219131913695279536952795291708F062
:1054900046C082E080932101D09254015092520183
:1054A000F0925301F501E60DF71DE75AFE4F108209
:1054B0006D2D8F2D0E94DA12E091540180915301DD
:1054C000E80FFF27FF1FEE0FFF1FEE0FFF1FEA552C
:1054D000FE4F80809180A280B3801352212F30E054
:1054E000A4E6B0E00E94B8352B013C019A2D892D2D
:1054F000782D6627A50194012057354E4F4F5F4FF9
:105500000E947A35C301B2010E947A35309351016D
:1055100020935001C058DF4FE0E10C94BB368F5F01
:10552000A6CF08954F925F926F927F928F929F9233
:10553000AF92BF92CF92DF92EF92FF92AC016C01DB
:10554000F12CE12C560199248824E52FFF279A019C
:10555000DA010E94B8352C0166247724920165E0B7
:10556000369527956A95E1F7E29FC001E39F900D7C
:10557000F29F900D11249A0174E0369527957A9543
:10558000E1F7E20FF31FE40FF51F9201369527951F
:1055900036952795B4E056944794BA95E1F72419C7
:1055A000350950E040E02E0F3F1F411D511DBC0149
:1055B000E3E076956795EA95E1F7861B970B280F50
:1055C000391F411D511DC701B6010E943835680DB4
:1055D000791D8A1D9B1DFF90EF90DF90CF90BF90AB
:1055E000AF909F908F907F906F905F904F900895B5
:1055F000A3E0B2E0EEEFFAE20C949D36CF5FDD4F10
:105600008883C150D240162FCE5FDD4F4883C250F1
:10561000D2400E94F114CF5FDD4F2881C150D240AB
:10562000E22FF0E0E057FE4F9490892C880CE12F98
:10563000F0E0ED56FE4FE491E7B915B894B8822F2B
:10564000806480937C000E94E804CE5FDD4F388147
:10565000C250D2403170CD5FDD4F3883C350D2404D
:10566000CE5FDD4F8881C250D240D92C80FFD82C2C
:10567000E0E2FE2E90E080E0C92CED2C082D2D2DCF
:1056800044E7BE016F5F7F4F0E943400FA9480E4CC
:1056900090E0F110F1CF14B81E0197E4290E311CEF
:1056A00073E2472E512C612C712CC12CD12C760128
:1056B000812C912C5401F101819191911F01CD5FB9
:1056C000DD4FF881C350D240FF2329F020E030E8BD
:1056D000281B390BC90126DF9C0150E040E0820EF7
:1056E000931EA41EB51EC301B2010E943835C60E1A
:1056F000D71EE81EF91E3FEF431A530A630A730AC6
:1057000084E74816510461047104A9F6C501B40187
:1057100021E530E040E050E00E947A35ABEBB7E1A4
:105720000E94CD35C61AD70AE80AF90AA7019601E0
:1057300064E056954795379527956A95D1F760EEC1
:105740007DEC81EC9FE80E947A3569017A01CE5F99
:10575000DD4F9881C250D24091FD20C0CF5FDD4F18
:105760008881C150D240880FCF5FDD4FE881C150A2
:10577000D2408E0F1150810F90E0880F991FCD5F9E
:10578000DD4FF881C350D240FF2379F08A5D9C4FF2
:105790000E943837C81AD90AE108F108C701B601D2
:1057A000CD5FDD4FE2E10C94B9368C5C9C4FF0CFBD
:1057B0004F925F926F927F928F929F92AF92BF9221
:1057C000FF920F931F93CF93DF93C0E0FC2EFF0C4B
:1057D000FC0ED0E0FA94CD1709F43EC042E06D2FE4
:1057E0008C2F06DF2B0143E06D2F8C2F01DF4B0147
:1057F0000E942B0285EA90E00E944A020E94E80182
:105800008C2F0E94E5018AE30E94DA018D2F0E940D
:10581000E5010E94E8010E94030224E040E26EEFED
:10582000C2010E94AF0424E046E462EFC4010E947A
:10583000AF040F2D0D0F10E0000F111FB201C801B2
:105840008C5C9C4F0E944B37B401C8018A5D9C4F11
:105850000E944B370E94A602DF5FD33009F0BBCF16
:10586000CF5FC33009F0B2CF0E94FC018BEA91E018
:105870000E944A020E94A60288E20E94F404DF917C
:10588000CF911F910F91FF90BF90AF909F908F90FD
:105890007F906F905F904F900895A2E1B0E0E3E5B4
:1058A000FCE20C949D362C017C836B83DD24D39425
:1058B0002D2C312C33E0D39E900111243E872D876F
:1058C000F101EE0FFF1FEE0FFF1FFC87EB87812C0E
:1058D00030E4932E50E0712C612C18861F82B12C7D
:1058E000A12C1A8219821E821D8240E0C12CF0E098
:1058F000E0E030E020E061E070E08FEF90E08219BE
:105900009309988B8F870C2D10E08F859889081745
:10591000190774F1AB81BC81AB2B29F170E060E019
:105920004230E8F09501ED81FE812E1B3F0BA8EE81
:10593000B3E00E94B835E981FA81AE1ABF0A950139
:1059400050E040E00E947A3588EE93E0821B930B92
:105950000E94CE06BC0188EB9AE70E945335AB81CA
:10596000BC816D937C93C4016296E2E10C94B936DC
:10597000D801A20DB31DAA0FBB1FA40DB51D8D919B
:105980009C91E80FF91FD801AA0FBB1FA40DB51DEC
:105990008D919C91280F391FCD1408F48BC0D8012C
:1059A000A219B309AA0FBB1FA40DB51D0D90BC9180
:1059B000A02D2A1B3B0BE81BF90B7901EE0EFF1EF5
:1059C000C9018E1B9F0B89879A87D701B695A7952A
:1059D000B695A795A80FB91FB7FD77C0E217F307D3
:1059E00008F06AC0513009F067C0D80156E0AA0F2C
:1059F000BB1F5A95E1F7BA8BA98BDC01A61BB70B2D
:105A0000BD01A817B90770F0A6E0880F991FAA95E5
:105A1000E1F780960E94533589899A89861B970BF6
:105A20009A8B898BAD85BE85EA16FB0608F472CF8A
:105A30008B859C8508171907C4F14423B1F0698947
:105A40007A8966197709433050F0D4019096C401E1
:105A5000969587958A0F9B1F86179707D8F1D716BB
:105A600050F4DD24D394D70E23CFA989BA89B887FF
:105A7000AF83FE82ED82AE0CBF1C4F5F413001F15F
:105A8000842F8150990BBC0195958795A989BA8976
:105A90008A0F9B1FAF81B8858A1B9B0B0E945335D1
:105AA0004B0169887A88FA82E982453108F032CF61
:105AB00050E002C069877A87C39469857A8523CFCD
:105AC00069887A88FA82E982F3CF51E0E217F30716
:105AD00098F78BCFEB81FC81EF2B09F023CF43CFDD
:105AE000A6E2B2E0E6E7FDE20C94A136F82ED62E4F
:105AF00087E593E00E9438373C01ED2DF0E0E05758
:105B0000FE4F1491EF2DF0E0ED56FE4FE491109210
:105B1000B6011092B7011092B8011092B90110921B
:105B2000BD011092BC011092BE011092BF011092F3
:105B3000C0011092C10180912101813009F0D0C0D3
:105B40008091010118160CF4CBC018B8E7B90E9477
:105B5000E8042D2D206CD22E20937C000E94E804B6
:105B6000C12EE12C00E0212F4FEFBE016F5F7F4F70
:105B700080E191E00E9434003F2D306CF32E309391
:105B80007C00212F44E1BE0161507E4F80E191E015
:105B90000E943400FE013196BE0161507E4F5B01D0
:105BA000AE01475D5F4F81919191D5016D917D91DE
:105BB0005D019F01225031098617970708F495C0AF
:105BC000861B970BD9018D939C93E417F50759F722
:105BD000D0927C0070E060E0CE0101965EDE9F5FB7
:105BE00030E1A32EBB24B394912C812C913178F019
:105BF00040E1A42E44E0B42E52E0852E912C903446
:105C000030F090E1A92EBA2C24E0822E912C88E06D
:105C1000D82EA895C12EE12C00E0212F4FEFBE0118
:105C20006F5F7F4FC5010E9434008114910409F415
:105C300062C06CEB71E0CE0101962FDE5C01813C0D
:105C40009F4308F0B2C06501F12CE12C9501D5010C
:105C50008FD723E330E040E050E04CD7A8E6B2E035
:105C60009CD73FEF831A930A76946794930150E090
:105C700040E040D7C401880F991F04C0220F331F92
:105C8000441F551F8A95D2F72093BE013093BF0160
:105C90004093C0015093C1018091090190910A0184
:105CA000A0910B01B0910C010397A105B10540F043
:105CB0001092BE011092BF011092C0011092C1015A
:105CC000A114B10409F074C01092BD011092BC017E
:105CD0001092BE011092BF011092C0011092C1013A
:105CE000CA5DDD4FEEE00C94BD36D9011D921C92C9
:105CF0006CCF5C018ECFC5018064DA94D110F9CFEE
:105D000081159440C8F08EEF8F3F09F492CFE82FB1
:105D1000F0E0EE0FFF1F21E030E02C0F3D1FE20FFF
:105D2000F31F20813181A3E036952795AA95E1F7ED
:105D3000318320838150E8CFF0927C00E894A6F86C
:105D400008E0F02EC12EE12C00E0212F44E1BE013D
:105D500061507E4FC5010E9434006894A6F8FA9401
:105D6000F110F0CF24E1215070F2822F90E0880FE3
:105D7000991FE1E0F0E0EC0FFD1FE80FF91F4081F3
:105D800051816FEF71E06C0F7D1F860F971FDC0153
:105D90008D919C914817590728F0481B590B518346
:105DA0004083E1CF11821082DECFB12CA12C4BCFEA
:105DB00027E030E02819390960E072E18AE790E0D5
:105DC00004C0660F771F881F991F2A95D2F7A70175
:105DD000960190D62093B6013093B7014093B80155
:105DE0005093B9018091010187FD7ACF8FEF8093A5
:105DF000010176CFCF93DF93D82F0E94FC0184E17D
:105E000090E00E944A020E94A602C0E01092BB01EC
:105E10001092BA0184E10E94F40462E080E00E94E2
:105E2000C8150E94030224E046E464EF8091BA01A1
:105E30009091BB010E94AF046091BA017091BB01C7
:105E4000CB018C539F4085399547A8F4CF5FC5306F
:105E500098F087E593E00E944B370E94E8018BEAB7
:105E600091E00E944A0284E60E94F4040E94FC0130
:105E7000DF91CF910895C0E00E94A602DF5F31F666
:105E8000F5CFB0E0A0E0E6E4FFE257C780E48AB9CE
:105E90008BB9D6E8D0937A001092C1000E94D40446
:105EA000C4B7C87084B7877F84BF0FB6F894A8952D
:105EB00080916000886180936000109260000FBE46
:105EC000D093640088E380937E001092B00087E056
:105ED0008093B10078940E946E02C111B8C580E130
:105EE00085BF84E0809318014F9906C082E00E942C
:105EF000F404CF5FCC33C1F78FE59DE69093130197
:105F000080931201CF3130F080E69DE6909313012B
:105F100080931201109233010E941F1988E19FE0C3
:105F20000FB6F894A895809360000FBE9093600020
:105F3000CC3321F40E94F5268111FCCF42E0742E6F
:105F400050E1552E60E1462E70E6C72E71E0D72E47
:105F5000E3E32E2EF1E23F2E0E942B0217B80E949F
:105F600019070E941F190E94FC010E94730B809167
:105F70004101882381F00E94030286E591E00E949E
:105F80004A0263E080913601909137010E94BA0481
:105F900088EC0E94F4044F9B35C00E9403020E94CB
:105FA000F11480912101893009F042C00E942B0236
:105FB0008BE591E00E944A020E94030263E0809117
:105FC0000301909104010E94BA040E94E80163E079
:105FD00080910501909106010E94BA040E94E80197
:105FE00063E080910701909108010E94BA048AEC55
:105FF0000E94F40481E10E948E07C0911201D091A9
:1060000013010EC20E94CB0289E391E00E944A0272
:1060100017B883E00E94280563E04AE09C01429F94
:10602000C001439F900D11240E94BA048CE3B1CFAC
:106030008CE00E94F70185E493E012D7C82F82E438
:1060400093E00ED7C81BC0933E01CC2319F08EE01D
:106050000E94F70180E00E948E070E94CB028DEB28
:1060600092E00E944A0242E061E080E00E94DE0B82
:1060700042E060E081E00E94DE0B41E062E080E00F
:106080000E94DE0B41E060E082E00E94DE0B40E017
:1060900062E081E00E94DE0B40E061E082E00E946D
:1060A000DE0B8091210181110EC00E94F11460E08D
:1060B00082E00E94C81561E082E00E94C81560E09D
:1060C00081E00E94C81580912101833059F48091AC
:1060D0001F01823039F490919101809192019813BF
:1060E00001C06AD90E942B0286E491E0909344019A
:1060F00080934301809121018630C9F484E992E0C4
:106100000E944A0241E467E483E40E9414030E946F
:1061100003028FE691E00E944A02E0914301F09170
:10612000440162E0848195810E94BA0466CF873081
:1061300041F48DE992E00E944A0242E367E481E380
:10614000E4CF8A3061F480E190E00E944A02D0926C
:106150004401C092430143E467E481E4D6CF823036
:1061600009F040C08CE090E00E944A0242E365E4FE
:1061700081E30E94140380E00E94AC02609154010C
:1061800080915301E62FF0E0E65AFE4FE80FF11D33
:10619000319710820E94DA12E091540180915301EC
:1061A000E80FFF27FF1FEE0FFF1FEE0FFF1FEA553F
:1061B000FE4F608171818281938102E024EF4FEF75
:1061C0000E94CD0386E090E00E944A026091500157
:1061D0007091510190E080E003E025E240E00E94F0
:1061E000CD030BCF8830D9F480918B0190918C0135
:1061F000890F9927991F029771F40E94A41B8CE0C4
:106200000E94F70180913E01882309F40BC4D2E07B
:1062100010E000E0F4C380E00E94B21AEECE8330BA
:1062200009F010C180911F01813009F073C080E036
:106230000E94A10360919101809197010E942F0B10
:1062400080E70E94790340E060919101809197017D
:10625000CFD960937B0170937C0180937D019093F3
:106260007E0180E00E94C40260917B0170917C01FC
:1062700080917D0190917E0102E026E442EF0E9430
:10628000CD038DE20E94DA0141E06091910180919D
:106290009701AED960937B0170937C0180937D015F
:1062A00090937E0126E442EF0E94CD038BE291E0C1
:1062B0000E944A0280917601882309F49ECE57B845
:1062C00080911201909113010E94E80517B80E9475
:1062D0002B0280911F01805D0E94DA018BE191E029
:1062E0000E944A0230917601332309F44CC3809115
:1062F0005D01313009F0E3C20E943B0320915D0152
:10630000213009F0D7C220911F012111D3C20E9470
:10631000651B75CF823079F582E30E94DA018BE14B
:1063200091E00E944A029091910130919201931361
:1063300008C080E00E94BD0381E00E94B40381E0B8
:1063400080CF2091970180919801281307C080E0A9
:106350000E94AD0381E00E94C403F1CF321306C056
:1063600081E080930D010E948F03A4CF98133CC05D
:1063700040920D01F8CF8330B9F520920D01809144
:10638000970190919201891303C021E020930D01A0
:106390004091910130919801431302C040920D0148
:1063A00020919301821302C070920D018091990196
:1063B000481303C040E240930D0132130DC022E1A7
:1063C00020930D01981751F083E30E94DA018BE1CD
:1063D00091E00E944A02C7CF981302C030920D018B
:1063E00080910D01823280F383EA92E00E944A029A
:1063F0008BE892E00E944A020E94030280911F01F2
:10640000805D0E94DA018AE20E94DA0185E391E070
:106410000E944A0281E792E00E944A02C0E4DFE162
:1064200057B84F9BFECFCE010E94E805823328F477
:1064300090911A01933008F4B3C20E94F52681119D
:10644000FCCF8ACD843009F04EC180916F01882342
:1064500009F45DC080915501882309F458C060910A
:106460005201809154010E94C81580907B01909048
:106470007C01A0907D01B0907E01C0918D01609162
:106480006E0180916C010E94C81580914601909127
:106490004701A0914801B09149014091600150919C
:1064A00061016091620170916301843F21E0920774
:1064B000A105B10538F4443F31E05307610571058A
:1064C00008F0C0EF443F51406105710540F4843F3E
:1064D0009140A105B10518F040EF40938D018091E6
:1064E0008D018C130FC080917B0190917C01A09154
:1064F0007D01B0917E0188169906AA06BB0620F0A0
:106500008CE003C0C817E4F78DE0809320018091F0
:106510006F01882361F080915501882341F04F99E4
:1065200006C08091200191E089278093200180910D
:1065300020018C30F9F482E891E00E944A028091B7
:106540006F01882319F080E70E94DA010E94E801B8
:106550000E94F406C82F853048F5809120018C30C8
:10656000B9F481E020915301909154019217B8F051
:1065700080E015C0D0924401C09243018EE791E0C3
:106580000E944A0280915501882301F38EE6DCCFF8
:1065900081E020916D0190916E01291748F78823C1
:1065A00009F49AC085E391E00E944A0243E462E460
:1065B00085E40E9414030E9403028CE891E00E948B
:1065C0004A02E0914301F09144016081718182812E
:1065D000938103E020E04EEF0E94CD030E94E8018A
:1065E00089E40E94DA01E0914301F091440186813F
:1065F00097818031974208F472C085E60E94DA01E3
:10660000E0914301F0914401868197818051974246
:10661000978386830E94F401E0914301F091440145
:1066200022E041E46AEF868197810E94AF0480E016
:106630000E94C40283E791E00E944A02E091430174
:10664000F091440163E0848195810E94BA04E09155
:106650004301F091440180859185892B91F080E080
:106660000E94C4028DEF90E00E944A02E091430133
:10667000F091440123E041E46AEF808591850E9416
:10668000AF04E0914301F091440182859385892B09
:1066900091F080E00E94C40287EF90E00E944A02DD
:1066A000E0914301F091440123E041E46AEF8285E7
:1066B00093850E94AF04C53008F09FCC80E00E9413
:1066C000C4028C2F0E94A1038FE691E00E944A022F
:1066D0008C2F0E946B0391CC81E391E065CF83E620
:1066E0000E94DA0197CF853009F0FCCD809120011E
:1066F00084FF3EC080E50E94DA01D0924401C0923E
:1067000043018DE20E94DA0180912001C82FCF70F1
:10671000C43091F585E991E00E944A024FE367E4B5
:106720008FE30E9414038091200185FD3EC00E94EA
:106730000302E0914301F0914401668584850E9443
:10674000C8150E94D0028AE691E00E944A02E091B8
:106750004301F091440162E0828593850E94BA046E
:1067600080E00E94E802C43009F447CCC0E09DC03C
:106770008EE40E94DA01C5CF85FF0DC084E40E943B
:10678000DA01C33051F48FE891E00E944A0243E4F9
:1067900067E485E4C6CF85E4F2CF8AE991E00E9400
:1067A0004A0244E467E483E5BCCF8F70843009F487
:1067B00052C080E00E94AC02E0914301F09144019C
:1067C000668584850E94C8150E94D00280E00E94E0
:1067D000C40289E40E94DA010E94F401E0914301BD
:1067E000F091440122E041E46AEF868197810E94A2
:1067F000AF0485E691E00E944A02E0914301F091E6
:10680000440162E0828593850E94BA04E0914301CD
:10681000F091440180859185803C924108F0A0CFA1
:1068200080E00E94C40289E40E94DA010E94F4011F
:1068300022E041E46BEF90E080E00E94AF0485E647
:1068400091E00E944A02E0914301F091440162E02C
:106850008085918583CFE0914301F091440184814B
:106860009581892B09F4B2CF80E00E94AC0280E0D0
:1068700090E00E944A02E0914301F091440122E03D
:1068800041E46AEF848195810E94AF049FCF80E04C
:106890000E94C4028C2F0E94A1038FE691E00E9407
:1068A0004A028C2F0E946B03CF5F80911F01C81793
:1068B00070F3A3CB40E0692F0E94EA199ECB909120
:1068C0005E0144E0949FD0011124A655BE4F24E000
:1068D000829FF0011124E655FE4FED90FD900D9141
:1068E0001C914081518162817381282F4E155F0573
:1068F0006007710708F4292F980FC3E0C91B3230D5
:10690000E1F0C0915F0134E0C39FD0011124A6558E
:10691000BE4F44E0249FF0011124E655FE4F4D91F7
:106920005D916D917C9180819181A281B381841769
:106930009507A607B70708F0C22FDC2FD695072DBD
:106940000C1B12E0C11101C011E08D2F0E94E50166
:1069500086E191E00E944A02802F0E94E50186E1D3
:1069600091E00E944A02812F0E94E50180E00E948E
:10697000AC0281E0C11180E00E944503872D8D1B90
:106980000E9445033ACB8BE792E00E944A020E94A4
:10699000030288EA92E00E944A0283EA92E03CCD38
:1069A0008111DACA91113FCD2ACCFC01EA0DFB1D01
:1069B000C491C03209F4682E019681319105A9F77E
:1069C000DD2331F18D2F8170F82ED0FF0E942B0234
:1069D00060E08F2D0E941B02A895DF5FD170F12C23
:1069E000E12CE61410F1CC23C9F0060D111DF801BD
:1069F000EA56FE4FE491E03211F40F5F1F4F90E032
:106A000080E020E1622E98012A563E4F5901CDCFF9
:106A100080E197E20E94E8058823A1F280E197E2F5
:106A20000E94E8050E943C0797CAF701EA0DFB1D8A
:106A3000C491CC2399F3CF3F31F40E94E8019FEF3A
:106A4000E91AF90ACECF8C2F0E94DA01F8CF0E9402
:106A5000FC0188E692E00E944A028BEC0E94F4045A
:106A60000E943C0790E080E0CDB7DEB7E2E181C153
:106A7000DB018F939F9391D0BF91AF91A29F800D27
:106A8000911DA39F900DB29F900D11240895991B05
:106A900079E004C0991F961708F0961B881F7A9515
:106AA000C9F780950895AA1BBB1B51E107C0AA1F17
:106AB000BB1FA617B70710F0A61BB70B881F991F9F
:106AC0005A95A9F780959095BC01CD01089597FB43
:106AD000072E16F4009406D077FD08D0E4DF07FCFB
:106AE00005D03EF4909581959F4F089570956195DE
:106AF0007F4F0895A1E21A2EAA1BBB1BFD010DC0FA
:106B0000AA1FBB1FEE1FFF1FA217B307E407F5075D
:106B100020F0A21BB30BE40BF50B661F771F881F39
:106B2000991F1A9469F760957095809590959B01CF
:106B3000AC01BD01CF010895052E97FB16F400941A
:106B40000FD057FD05D0D6DF07FC02D046F408C0B1
:106B500050954095309521953F4F4F4F5F4F089589
:106B600090958095709561957F4F8F4F9F4F0895B9
:106B7000A29FB001B39FC001A39F700D811D11247E
:106B8000911DB29F700D811D1124911D0895F0DF9C
:106B9000B7FF0895821B930B0895EADFA59F900D20
:106BA000B49F900DA49F800D911D11240895B7FFEF
:106BB000F4CFF3DF821B930B0895E894DF93CF9318
:106BC000FC01DB01D5DF7F936F93E9019A01AC01F2
:106BD000BF93AF933F932F93DF01CADF26F46C1B63
:106BE0007D0B820B930B9E01EB01FC01DDD0AF917D
:106BF000BF912F913F91D8D0BE01CF01F9012F91C4
:106C00003F91CF91DF910895689401C0E894F92FE6
:106C1000F12B0AF027C0A0E0B0E0E0E1F6E393C07A
:106C2000092E05941AF479D0112392F4F0E80F2676
:106C3000FFEFE094F09400951095B094C094D09438
:106C4000A194BF0ACF0ADF0AEF0AFF0A0F0B1F0B3E
:106C500013D007FC62D0CDB7DEB7ECE090C06894EB
:106C600001C0E8948F929F92CF93DF9305D0DF917C
:106C7000CF919F908F90089588249924F401E40186
:106C8000B0E49F93AA279A158B049C04ED05FE059A
:106C9000CF05D007A10798F4AD2FDC2FCF2FFE2F03
:106CA000E92D982C892E982F872F762F652F542F1A
:106CB000432F322F2227B85031F7BF9127C01B2E08
:106CC000BF91BB27220F331F441F551F661F771F1D
:106CD000881F991F881C991CEE1FFF1FCC1FDD1FEA
:106CE000AA1FBB1F8A149B04EC05FD05CE05DF051A
:106CF000A007B10748F08A189B08EC09FD09CE09E6
:106D0000DF09A00BB10B21601A94E1F62EF4940177
:106D1000AF01BE01CD01000C08956095709580957E
:106D2000909530954095509521953F4F4F4F5F4F2F
:106D30006F4F7F4F8F4F9F4F08952F923F924F92EB
:106D40005F926F927F928F929F92AF92BF92CF92FB
:106D5000DF92EF92FF920F931F93CF93DF93CDB704
:106D6000DEB7CA1BDB0B0FB6F894DEBF0FBECDBF7C
:106D700009942A88398848885F846E847D848C844D
:106D80009B84AA84B984C884DF80EE80FD800C8156
:106D90001B81AA81B981CE0FD11D0FB6F894DEBF39
:106DA0000FBECDBFED010895E3DE460F571FC81F8C
:106DB000D91F08F431960895BB27FA01A62F621750
:106DC000710581059105330B30FB66F0AA27660F2C
:106DD000771F881F991FAA1FA21710F0A21B639587
:106DE0003850A9F7A05DAA3308F0A95DA19336F742
:106DF000B111B1931082CA0123C04532510518F474
:106E0000423008F004C0FB011082CB010895BB277B
:106E1000FB015527AA27880F991FAA1FA41710F056
:106E2000A41B83955051B9F7A05DAA3308F0A95D62
:106E3000A193009779F7B111B1931192CB0100C0E2
:106E4000DC01FC01672F71917723E1F7329704C0D1
:106E50007C916D9370836291AE17BF07C8F308955C
:106E6000F999FECF92BD81BDF89A992780B5089512
:106E7000A8E1B0E042E050E013C0262FF999FECF20
:106E80001FBA92BD81BD20BD0FB6F894FA9AF99A47
:106E90000FBE01960895F1DF272FF0CFDC01CB0163
:106EA000FC01F999FECF06C0F2BDE1BDF89A31961A
:106EB00000B40D9241505040B8F70895F894FFCFB8
:00000001FF
